{
  "address": "0x1561fC5F7Efc049476224005DFf38256dccfc509",
  "abi": [
    {
      "inputs": [
        {
          "internalType": "address",
          "name": "_controller",
          "type": "address"
        }
      ],
      "stateMutability": "nonpayable",
      "type": "constructor"
    },
    {
      "inputs": [
        {
          "internalType": "uint256",
          "name": "newValue",
          "type": "uint256"
        },
        {
          "internalType": "uint256",
          "name": "lastValue",
          "type": "uint256"
        }
      ],
      "name": "DecreasingValues",
      "type": "error"
    },
    {
      "inputs": [
        {
          "internalType": "uint256",
          "name": "lastClaimRound",
          "type": "uint256"
        },
        {
          "internalType": "uint256",
          "name": "maxAllowed",
          "type": "uint256"
        }
      ],
      "name": "FutureLastClaimRound",
      "type": "error"
    },
    {
      "inputs": [
        {
          "internalType": "uint256",
          "name": "queryRound",
          "type": "uint256"
        },
        {
          "internalType": "uint256",
          "name": "maxAllowed",
          "type": "uint256"
        }
      ],
      "name": "FutureLookup",
      "type": "error"
    },
    {
      "inputs": [
        {
          "internalType": "address",
          "name": "caller",
          "type": "address"
        },
        {
          "internalType": "address",
          "name": "required",
          "type": "address"
        }
      ],
      "name": "InvalidCaller",
      "type": "error"
    },
    {
      "inputs": [
        {
          "internalType": "uint256",
          "name": "checkpointRound",
          "type": "uint256"
        },
        {
          "internalType": "uint256",
          "name": "requiredRound",
          "type": "uint256"
        }
      ],
      "name": "InvalidStartRound",
      "type": "error"
    },
    {
      "inputs": [
        {
          "internalType": "uint256",
          "name": "checkpointRound",
          "type": "uint256"
        },
        {
          "internalType": "uint256",
          "name": "requiredRound",
          "type": "uint256"
        }
      ],
      "name": "InvalidTotalStakeCheckpointRound",
      "type": "error"
    },
    {
      "inputs": [
        {
          "internalType": "address",
          "name": "transcoder",
          "type": "address"
        },
        {
          "internalType": "uint256",
          "name": "round",
          "type": "uint256"
        }
      ],
      "name": "MissingEarningsPool",
      "type": "error"
    },
    {
      "inputs": [
        {
          "internalType": "string",
          "name": "bondingManagerFunction",
          "type": "string"
        }
      ],
      "name": "MustCallBondingManager",
      "type": "error"
    },
    {
      "anonymous": false,
      "inputs": [
        {
          "indexed": true,
          "internalType": "address",
          "name": "delegator",
          "type": "address"
        },
        {
          "indexed": true,
          "internalType": "address",
          "name": "fromDelegate",
          "type": "address"
        },
        {
          "indexed": true,
          "internalType": "address",
          "name": "toDelegate",
          "type": "address"
        }
      ],
      "name": "DelegateChanged",
      "type": "event"
    },
    {
      "anonymous": false,
      "inputs": [
        {
          "indexed": true,
          "internalType": "address",
          "name": "delegate",
          "type": "address"
        },
        {
          "indexed": false,
          "internalType": "uint256",
          "name": "previousBalance",
          "type": "uint256"
        },
        {
          "indexed": false,
          "internalType": "uint256",
          "name": "newBalance",
          "type": "uint256"
        }
      ],
      "name": "DelegateVotesChanged",
      "type": "event"
    },
    {
      "anonymous": false,
      "inputs": [
        {
          "indexed": true,
          "internalType": "address",
          "name": "delegate",
          "type": "address"
        },
        {
          "indexed": false,
          "internalType": "uint256",
          "name": "previousBondedAmount",
          "type": "uint256"
        },
        {
          "indexed": false,
          "internalType": "uint256",
          "name": "previousLastClaimRound",
          "type": "uint256"
        },
        {
          "indexed": false,
          "internalType": "uint256",
          "name": "newBondedAmount",
          "type": "uint256"
        },
        {
          "indexed": false,
          "internalType": "uint256",
          "name": "newLastClaimRound",
          "type": "uint256"
        }
      ],
      "name": "DelegatorBondedAmountChanged",
      "type": "event"
    },
    {
      "anonymous": false,
      "inputs": [
        {
          "indexed": false,
          "internalType": "string",
          "name": "param",
          "type": "string"
        }
      ],
      "name": "ParameterUpdate",
      "type": "event"
    },
    {
      "anonymous": false,
      "inputs": [
        {
          "indexed": false,
          "internalType": "address",
          "name": "controller",
          "type": "address"
        }
      ],
      "name": "SetController",
      "type": "event"
    },
    {
      "inputs": [],
      "name": "CLOCK_MODE",
      "outputs": [
        {
          "internalType": "string",
          "name": "",
          "type": "string"
        }
      ],
      "stateMutability": "pure",
      "type": "function"
    },
    {
      "inputs": [
        {
          "internalType": "address",
          "name": "_account",
          "type": "address"
        },
        {
          "internalType": "uint256",
          "name": "_startRound",
          "type": "uint256"
        },
        {
          "internalType": "uint256",
          "name": "_bondedAmount",
          "type": "uint256"
        },
        {
          "internalType": "address",
          "name": "_delegateAddress",
          "type": "address"
        },
        {
          "internalType": "uint256",
          "name": "_delegatedAmount",
          "type": "uint256"
        },
        {
          "internalType": "uint256",
          "name": "_lastClaimRound",
          "type": "uint256"
        },
        {
          "internalType": "uint256",
          "name": "_lastRewardRound",
          "type": "uint256"
        }
      ],
      "name": "checkpointBondingState",
      "outputs": [],
      "stateMutability": "nonpayable",
      "type": "function"
    },
    {
      "inputs": [
        {
          "internalType": "uint256",
          "name": "_totalStake",
          "type": "uint256"
        },
        {
          "internalType": "uint256",
          "name": "_round",
          "type": "uint256"
        }
      ],
      "name": "checkpointTotalActiveStake",
      "outputs": [],
      "stateMutability": "nonpayable",
      "type": "function"
    },
    {
      "inputs": [],
      "name": "clock",
      "outputs": [
        {
          "internalType": "uint48",
          "name": "",
          "type": "uint48"
        }
      ],
      "stateMutability": "view",
      "type": "function"
    },
    {
      "inputs": [],
      "name": "controller",
      "outputs": [
        {
          "internalType": "contract IController",
          "name": "",
          "type": "address"
        }
      ],
      "stateMutability": "view",
      "type": "function"
    },
    {
      "inputs": [],
      "name": "decimals",
      "outputs": [
        {
          "internalType": "uint8",
          "name": "",
          "type": "uint8"
        }
      ],
      "stateMutability": "pure",
      "type": "function"
    },
    {
      "inputs": [
        {
          "internalType": "address",
          "name": "",
          "type": "address"
        }
      ],
      "name": "delegate",
      "outputs": [],
      "stateMutability": "pure",
      "type": "function"
    },
    {
      "inputs": [
        {
          "internalType": "address",
          "name": "",
          "type": "address"
        },
        {
          "internalType": "uint256",
          "name": "",
          "type": "uint256"
        },
        {
          "internalType": "uint256",
          "name": "",
          "type": "uint256"
        },
        {
          "internalType": "uint8",
          "name": "",
          "type": "uint8"
        },
        {
          "internalType": "bytes32",
          "name": "",
          "type": "bytes32"
        },
        {
          "internalType": "bytes32",
          "name": "",
          "type": "bytes32"
        }
      ],
      "name": "delegateBySig",
      "outputs": [],
      "stateMutability": "pure",
      "type": "function"
    },
    {
      "inputs": [
        {
          "internalType": "address",
          "name": "_account",
          "type": "address"
        },
        {
          "internalType": "uint256",
          "name": "_round",
          "type": "uint256"
        }
      ],
      "name": "delegatedAt",
      "outputs": [
        {
          "internalType": "address",
          "name": "",
          "type": "address"
        }
      ],
      "stateMutability": "view",
      "type": "function"
    },
    {
      "inputs": [
        {
          "internalType": "address",
          "name": "_account",
          "type": "address"
        }
      ],
      "name": "delegates",
      "outputs": [
        {
          "internalType": "address",
          "name": "",
          "type": "address"
        }
      ],
      "stateMutability": "view",
      "type": "function"
    },
    {
      "inputs": [
        {
          "internalType": "uint256",
          "name": "_round",
          "type": "uint256"
        }
      ],
      "name": "getPastTotalSupply",
      "outputs": [
        {
          "internalType": "uint256",
          "name": "",
          "type": "uint256"
        }
      ],
      "stateMutability": "view",
      "type": "function"
    },
    {
      "inputs": [
        {
          "internalType": "address",
          "name": "_account",
          "type": "address"
        },
        {
          "internalType": "uint256",
          "name": "_round",
          "type": "uint256"
        }
      ],
      "name": "getPastVotes",
      "outputs": [
        {
          "internalType": "uint256",
          "name": "",
          "type": "uint256"
        }
      ],
      "stateMutability": "view",
      "type": "function"
    },
    {
      "inputs": [
        {
          "internalType": "uint256",
          "name": "_round",
          "type": "uint256"
        }
      ],
      "name": "getTotalActiveStakeAt",
      "outputs": [
        {
          "internalType": "uint256",
          "name": "",
          "type": "uint256"
        }
      ],
      "stateMutability": "view",
      "type": "function"
    },
    {
      "inputs": [
        {
          "internalType": "address",
          "name": "_account",
          "type": "address"
        }
      ],
      "name": "getVotes",
      "outputs": [
        {
          "internalType": "uint256",
          "name": "",
          "type": "uint256"
        }
      ],
      "stateMutability": "view",
      "type": "function"
    },
    {
      "inputs": [
        {
          "internalType": "address",
          "name": "_account",
          "type": "address"
        },
        {
          "internalType": "uint256",
          "name": "_round",
          "type": "uint256"
        }
      ],
      "name": "getVotesAndDelegateAtRoundStart",
      "outputs": [
        {
          "internalType": "uint256",
          "name": "votes",
          "type": "uint256"
        },
        {
          "internalType": "address",
          "name": "delegateAddress",
          "type": "address"
        }
      ],
      "stateMutability": "view",
      "type": "function"
    },
    {
      "inputs": [
        {
          "internalType": "address",
          "name": "_account",
          "type": "address"
        }
      ],
      "name": "hasCheckpoint",
      "outputs": [
        {
          "internalType": "bool",
          "name": "",
          "type": "bool"
        }
      ],
      "stateMutability": "view",
      "type": "function"
    },
    {
      "inputs": [],
      "name": "name",
      "outputs": [
        {
          "internalType": "string",
          "name": "",
          "type": "string"
        }
      ],
      "stateMutability": "pure",
      "type": "function"
    },
    {
      "inputs": [
        {
          "internalType": "address",
          "name": "_controller",
          "type": "address"
        }
      ],
      "name": "setController",
      "outputs": [],
      "stateMutability": "nonpayable",
      "type": "function"
    },
    {
      "inputs": [],
      "name": "symbol",
      "outputs": [
        {
          "internalType": "string",
          "name": "",
          "type": "string"
        }
      ],
      "stateMutability": "pure",
      "type": "function"
    },
    {
      "inputs": [],
      "name": "targetContractId",
      "outputs": [
        {
          "internalType": "bytes32",
          "name": "",
          "type": "bytes32"
        }
      ],
      "stateMutability": "view",
      "type": "function"
    },
    {
      "inputs": [],
      "name": "totalSupply",
      "outputs": [
        {
          "internalType": "uint256",
          "name": "",
          "type": "uint256"
        }
      ],
      "stateMutability": "view",
      "type": "function"
    }
  ],
  "transactionHash": "0x7e98ea0adeebe3098a026332dcb37669a9e709fcd13a33c1954c2a22ca0e4dd1",
  "args": [
    "0xD8E8328501E9645d16Cf49539efC04f734606ee4"
  ],
  "numDeployments": 1,
  "solcInputHash": "a7c2f43b8dedbc725d6bfa7ee94775bb",
  "bytecode": "0x608060405234801561001057600080fd5b5060405161183e38038061183e83398101604081905261002f91610054565b600080546001600160a01b0319166001600160a01b0392909216919091179055610084565b60006020828403121561006657600080fd5b81516001600160a01b038116811461007d57600080fd5b9392505050565b6117ab806100936000396000f3fe608060405234801561001057600080fd5b50600436106101375760003560e01c806392eefe9b116100b8578063c656a01e1161007c578063c656a01e146102cd578063db51a69f14610308578063e35c3e4314610338578063ef105c911461034b578063f77c47911461035e578063f92e135b1461037157600080fd5b806392eefe9b1461026157806395d89b41146102745780639ab24eb014610294578063b782c2bd146102a7578063c3cda520146102ba57600080fd5b806351720b41116100ff57806351720b41146101e6578063587cde1e146101ef5780635c19a95c1461021a5780638e539e8c1461022f57806391ddadf41461024257600080fd5b806306fdde031461013c57806318160ddd1461017f578063313ce567146101955780633a46b1a8146101a45780634bf5d7e9146101b7575b600080fd5b6040805180820190915260158152742634bb32b832b2b9102b37ba34b733902837bbb2b960591b60208201525b604051610176919061146b565b60405180910390f35b610187610384565b604051908152602001610176565b60405160128152602001610176565b6101876101b23660046114d8565b6103ae565b6040805180820190915260138152721b5bd9194f5b1a5d995c19595c97dc9bdd5b99606a1b6020820152610169565b61018760015481565b6102026101fd366004611504565b610429565b6040516001600160a01b039091168152602001610176565b61022d610228366004611504565b610458565b005b61018761023d366004611521565b61048a565b61024a6104c8565b60405165ffffffffffff9091168152602001610176565b61022d61026f366004611504565b61054a565b6040805180820190915260048152631d93141560e21b6020820152610169565b6101876102a2366004611504565b6105a6565b6101876102b5366004611521565b6105bd565b61022d6102c836600461153a565b61071b565b6102f86102db366004611504565b6001600160a01b0316600090815260026020526040902054151590565b6040519015158152602001610176565b61031b6103163660046114d8565b61074e565b604080519283526001600160a01b03909116602083015201610176565b61022d61034636600461159c565b6107b1565b61022d610359366004611601565b6109ed565b600054610202906001600160a01b031681565b61020261037f3660046114d8565b610a5e565b60006103a96103916104c8565b61039c906001611639565b65ffffffffffff166105bd565b905090565b60008160006103bb6104c8565b65ffffffffffff16905080821061040d578181156103e3576103de600183611663565b6103e6565b60005b604051637f07449b60e01b8152600481019290925260248201526044015b60405180910390fd5b600061041e8661031687600161167a565b509695505050505050565b600080610450836104386104c8565b610443906001611639565b65ffffffffffff1661074e565b949350505050565b60405163866cb42d60e01b815260040161040490602080825260049082015263189bdb9960e21b604082015260600190565b60008160006104976104c8565b65ffffffffffff1690508082106104ba578181156103e3576103de600183611663565b6104506102b585600161167a565b60006103a96104d5610aaa565b6001600160a01b0316638a19c8bc6040518163ffffffff1660e01b815260040160206040518083038186803b15801561050d57600080fd5b505afa158015610521573d6000803e3d6000fd5b505050506040513d601f19601f820116820180604052508101906105459190611692565b610b47565b610552610bb2565b600080546001600160a01b0319166001600160a01b0383169081179091556040519081527f4ff638452bbf33c012645d18ae6f05515ff5f2d1dfb0cece8cbf018c60903f709060200160405180910390a150565b6000806105b5836104386104c8565b509392505050565b60006105c76104c8565b6105d2906001611639565b65ffffffffffff1682111561061f57816105ea6104c8565b6105f5906001611639565b604051637f07449b60e01b8152600481019290925265ffffffffffff166024820152604401610404565b600082815260046020526040902054801561063a5792915050565b600360006106488286610c0e565b90508061065a57506000949350505050565b815481101561069a576000828281548110610677576106776116ab565b600091825260208083209091015482526004905260409020549695505050505050565b6106a2610cbb565b6001600160a01b031663465501d36040518163ffffffff1660e01b815260040160206040518083038186803b1580156106da57600080fd5b505afa1580156106ee573d6000803e3d6000fd5b505050506040513d601f19601f820116820180604052508101906107129190611692565b95945050505050565b60405163866cb42d60e01b81526020600482015260076024820152663137b7322337b960c91b6044820152606401610404565b600080600061075d8585610d0c565b600181015481546001600160a01b03909116935090915061078157600092506107a9565b61078b8582610dd2565b1561079c57806002015492506107a9565b6107a68185610dfb565b92505b509250929050565b6107b9610e8b565b6107c16104c8565b6107cc906001611639565b65ffffffffffff16861461081857856107e36104c8565b6107ee906001611639565b60405163b986b59960e01b8152600481019290925265ffffffffffff166024820152604401610404565b85821061084d578161082b600188611663565b6040516308384c5960e11b815260048101929092526024820152604401610404565b6108886040518060a001604052806000815260200160006001600160a01b031681526020016000815260200160008152602001600081525090565b6001600160a01b038816600090815260026020526040902054156108f5576108b08888610d0c565b6040805160a0810182528254815260018301546001600160a01b0316602082015260028301549181019190915260038201546060820152600490910154608082015290505b6000600260008a6001600160a01b03166001600160a01b03168152602001908152602001600020905060006040518060a00160405280898152602001886001600160a01b03168152602001878152602001868152602001858152509050808260010160008b81526020019081526020016000206000820151816000015560208201518160010160006101000a8154816001600160a01b0302191690836001600160a01b031602179055506040820151816002015560608201518160030155608082015181600401559050506109d68983600001610ee090919063ffffffff16565b6109e18a8483610f7b565b50505050505050505050565b6109f5610e8b565b6109fd6104c8565b65ffffffffffff168114610a3e5780610a146104c8565b6040516329af3fdf60e01b8152600481019290925265ffffffffffff166024820152604401610404565b6000818152600460205260409020829055610a5a600382610ee0565b5050565b6000816000610a6b6104c8565b65ffffffffffff169050808210610a8e578181156103e3576103de600183611663565b6000610a9f8661031687600161167a565b979650505050505050565b60008054604051631c2d8fb360e31b81527fe8438ea868df48e3fc21f2f087b993c9b1837dc0f6135064161ce7d7a1701fe860048201526001600160a01b039091169063e16c7d98906024015b60206040518083038186803b158015610b0f57600080fd5b505afa158015610b23573d6000803e3d6000fd5b505050506040513d601f19601f820116820180604052508101906103a991906116c1565b600065ffffffffffff821115610bae5760405162461bcd60e51b815260206004820152602660248201527f53616665436173743a2076616c756520646f65736e27742066697420696e203460448201526538206269747360d01b6064820152608401610404565b5090565b6000546001600160a01b03163314610c0c5760405162461bcd60e51b815260206004820152601960248201527f63616c6c6572206d75737420626520436f6e74726f6c6c6572000000000000006044820152606401610404565b565b8154600090610c1f57506000610cb5565b82546000905b80821015610c6c576000610c39838361112c565b60008781526020902090915085908201541115610c5857809150610c66565b610c6381600161167a565b92505b50610c25565b600082118015610c98575083610c9586610c87600186611663565b600091825260209091200190565b54145b15610cb157610ca8600183611663565b92505050610cb5565b5090505b92915050565b60008054604051631c2d8fb360e31b81527f2517d59a36a86548e38734e8ab416f42afff4bca78706a66ad65750dae7f9e3760048201526001600160a01b039091169063e16c7d9890602401610af7565b6000610d166104c8565b610d21906001611639565b65ffffffffffff16821115610d3957816105ea6104c8565b6001600160a01b038316600090815260026020908152604080832085845260018101909252909120805415610d71579150610cb59050565b6000610d7d8386611147565b8354909150811415610d9357509150610cb59050565b6000836000018281548110610daa57610daa6116ab565b6000918252602080832090910154825260019095019094525050604090912091505092915050565b60018101546000906001600160a01b038481169116148015610df45750815415155b9392505050565b600182015460038301546000916001600160a01b0316908290610e1f9083906111fd565b9050600080610e2e84876112d5565b91509150610e3c8483610dd2565b610e4d576000945050505050610cb5565b866003015482600401541015610e6b57505084549250610cb5915050565b6000610e7e84838a600001546000611365565b5098975050505050505050565b610e93610cbb565b6001600160a01b0316336001600160a01b031614610c0c5733610eb4610cbb565b6040516302d9d9c960e31b81526001600160a01b03928316600482015291166024820152604401610404565b8154610efe5781546001810183556000928352602090922090910155565b81546000908390610f1190600190611663565b81548110610f2157610f216116ab565b9060005260206000200154905080821015610f59576040516328ffde6160e01b81526004810183905260248101829052604401610404565b808214610f76578254600181018455600084815260209020018290555b505050565b602080830151908201516001600160a01b0380831690821614610fe357806001600160a01b0316826001600160a01b0316866001600160a01b03167f3134e8a2e6d97e929a7e54011ea5485d7d196dd5f0ba4d4ef95803e8e3fc257f60405160405180910390a45b6000856001600160a01b0316826001600160a01b03161480156110065750835115155b90506000866001600160a01b0316846001600160a01b031614801561102b5750855115155b905060008161103b576000611041565b86604001515b9050600083611051576000611057565b86604001515b90508082146110a55760408051838152602081018390526001600160a01b038b16917fdec2bacdd2f05b59de34da9b523dff8be42e5e38e818c82fdb0bae774387a724910160405180910390a25b865188511415806110be57508660600151886060015114155b156111215787516060808a015189518a83015160408051958652602086019390935291840152908201526001600160a01b038a16907f1232f54fc2d34f79dc63b496ab493d834655fc2ea6d945ca547e9be242fd2b729060800160405180910390a25b505050505050505050565b600061113b60028484186116de565b610df49084841661167a565b81546000908061115b576000915050610cb5565b8284611168600184611663565b81548110611178576111786116ab565b90600052602060002001541161119b57611193600182611663565b915050610cb5565b60006111a78585610c0e565b90508181106111b8576111b8611700565b838582815481106111cb576111cb6116ab565b906000526020600020015414156111e5579150610cb59050565b806111f257509050610cb5565b610712600182611663565b61122f6040518060a0016040528060008152602001600081526020016000815260200160008152602001600081525090565b611237610cbb565b60405163091153f160e21b81526001600160a01b0385811660048301526024820185905291909116906324454fc49060440160a06040518083038186803b15801561128157600080fd5b505afa158015611295573d6000803e3d6000fd5b505050506040513d601f19601f820116820180604052508101906112b99190611716565b6080860152606085015260408401526020830152815292915050565b60006113096040518060a0016040528060008152602001600081526020016000815260200160008152602001600081525090565b6113138484610d0c565b600481015490925080156107a95761132b85826111fd565b91508160600151600014156107a957604051634956ad3960e11b81526001600160a01b038616600482015260248101829052604401610404565b600080856060015160001415611386576113806001806113f3565b60608701525b60608501516113a05761139a6001806113f3565b60608601525b6113d36113cc856113c28960800151896080015161141590919063ffffffff16565b8960600151611421565b8490611447565b90506113e88486606001518860600151611421565b915094509492505050565b6000610df48261140f856b033b2e3c9fd0803ce8000000611453565b9061145f565b6000610df48284611663565b60006104506b033b2e3c9fd0803ce800000061140f61144086866113f3565b8790611453565b6000610df4828461167a565b6000610df48284611756565b6000610df482846116de565b600060208083528351808285015260005b818110156114985785810183015185820160400152820161147c565b818111156114aa576000604083870101525b50601f01601f1916929092016040019392505050565b6001600160a01b03811681146114d557600080fd5b50565b600080604083850312156114eb57600080fd5b82356114f6816114c0565b946020939093013593505050565b60006020828403121561151657600080fd5b8135610df4816114c0565b60006020828403121561153357600080fd5b5035919050565b60008060008060008060c0878903121561155357600080fd5b863561155e816114c0565b95506020870135945060408701359350606087013560ff8116811461158257600080fd5b9598949750929560808101359460a0909101359350915050565b600080600080600080600060e0888a0312156115b757600080fd5b87356115c2816114c0565b9650602088013595506040880135945060608801356115e0816114c0565b9699959850939660808101359560a0820135955060c0909101359350915050565b6000806040838503121561161457600080fd5b50508035926020909101359150565b634e487b7160e01b600052601160045260246000fd5b600065ffffffffffff80831681851680830382111561165a5761165a611623565b01949350505050565b60008282101561167557611675611623565b500390565b6000821982111561168d5761168d611623565b500190565b6000602082840312156116a457600080fd5b5051919050565b634e487b7160e01b600052603260045260246000fd5b6000602082840312156116d357600080fd5b8151610df4816114c0565b6000826116fb57634e487b7160e01b600052601260045260246000fd5b500490565b634e487b7160e01b600052600160045260246000fd5b600080600080600060a0868803121561172e57600080fd5b5050835160208501516040860151606087015160809097015192989197509594509092509050565b600081600019048311821515161561177057611770611623565b50029056fea2646970667358221220435bdba3701ffceac3f35e5225c9d190ef198780fd163cfe2dd75cd115c3e84d64736f6c63430008090033",
  "devdoc": {
    "details": "Checkpointing logic for BondingManager state for historical stake calculations.",
    "kind": "dev",
    "methods": {
      "checkpointBondingState(address,uint256,uint256,address,uint256,uint256,uint256)": {
        "details": "Since we checkpoint \"delegator\" and \"transcoder\" states, this is called both for the delegator and for the transcoder when any change is made to the bonds, including when rewards are calculated or claimed.",
        "params": {
          "_account": "The account whose bonding state changed",
          "_bondedAmount": "From {BondingManager-Delegator-bondedAmount}",
          "_delegateAddress": "From {BondingManager-Delegator-delegateAddress}",
          "_delegatedAmount": "From {BondingManager-Transcoder-delegatedAmount}",
          "_lastClaimRound": "From {BondingManager-Delegator-lastClaimRound}",
          "_lastRewardRound": "From {BondingManager-Transcoder-lastRewardRound}",
          "_startRound": "The round from which the bonding state will be active. This is normally the next round."
        }
      },
      "checkpointTotalActiveStake(uint256,uint256)": {
        "details": "This is called only from the {BondingManager-setCurrentRoundTotalActiveStake} function to set the total active stake in the current round.",
        "params": {
          "_round": "The round for which the total active stake is valid. This is normally the current round.",
          "_totalStake": "From {BondingManager-currentRoundTotalActiveStake}"
        }
      },
      "constructor": {
        "params": {
          "_controller": "Address of Controller that this contract will be registered with"
        }
      },
      "delegatedAt(address,uint256)": {
        "details": "This is an addition to the IERC5805 interface to support our custom vote counting logic that allows delegators to override their transcoders votes. See {GovernorCountingOverridable-_handleVoteOverrides}."
      },
      "getPastTotalSupply(uint256)": {
        "details": "This value is the sum of all *active* stake, which is not necessarily the sum of all voting power. Bonded stake that is not part of the top 100 active transcoder set is still given voting power, but is not considered here."
      },
      "getTotalActiveStakeAt(uint256)": {
        "params": {
          "_round": "The round for which we want to get the total active stake."
        }
      },
      "getVotesAndDelegateAtRoundStart(address,uint256)": {
        "details": "The value returned by this can also be calculated with the following logic using BondingManager functions at the start of the corresponding round: - If `isRegisteredTranscoder(_account)`, the result is `(transcoderTotalStake(_account), _account)` - Otherwise, the `delegate` is obtained from `getDelegator(_account).delegateAddress`  - If `isRegisteredTranscoder(delegate)`, the result is `(pendingStake(_account, 0), delegate)`  - Otherwise, the result is `(0, delegate)`",
        "params": {
          "_account": "The account to get the voting power and delegate from.",
          "_round": "The round at which to get the account state (at round start)."
        },
        "returns": {
          "delegateAddress": "The address the account delegated to at the start of the given round.",
          "votes": "The voting power of the account at the start of the given round."
        }
      },
      "setController(address)": {
        "params": {
          "_controller": "Controller contract address"
        }
      },
      "totalSupply()": {
        "details": "This value is the sum of all *active* stake, which is not necessarily the sum of all voting power. Bonded stake that is not part of the top 100 active transcoder set is still given voting power, but is not considered here."
      }
    },
    "stateVariables": {
      "bondingCheckpoints": {
        "details": "Checkpoints by account (delegators and transcoders)."
      },
      "totalStakeCheckpoints": {
        "details": "Total active stake checkpoints."
      }
    },
    "title": "BondingVotes",
    "version": 1
  },
  "userdoc": {
    "kind": "user",
    "methods": {
      "CLOCK_MODE()": {
        "notice": "Machine-readable description of the clock as specified in EIP-6372."
      },
      "checkpointBondingState(address,uint256,uint256,address,uint256,uint256,uint256)": {
        "notice": "Called by the BondingManager when the bonding state of an account changes."
      },
      "checkpointTotalActiveStake(uint256,uint256)": {
        "notice": "Called by the BondingManager when the total active stake changes."
      },
      "clock()": {
        "notice": "Clock is set to match the current round, which is the checkpointing  method implemented here."
      },
      "constructor": {
        "notice": "BondingVotes constructor. Only invokes constructor of base Manager contract with provided Controller address"
      },
      "decimals()": {
        "notice": "Returns the decimals places of the token underlying the voting."
      },
      "delegate(address)": {
        "notice": "Delegation through BondingVotes is not supported."
      },
      "delegateBySig(address,uint256,uint256,uint8,bytes32,bytes32)": {
        "notice": "Delegation through BondingVotes is not supported."
      },
      "delegatedAt(address,uint256)": {
        "notice": "Returns the delegate that _account had chosen at the end of the provided past `_round`."
      },
      "delegates(address)": {
        "notice": "Returns the delegate that _account has chosen. This means the delegated transcoder address in case of delegators, and the account's own address for transcoders (self-delegated)."
      },
      "getPastTotalSupply(uint256)": {
        "notice": "Returns the total supply of votes available at the end of the provided past `_round`."
      },
      "getPastVotes(address,uint256)": {
        "notice": "Returns the amount of votes that `_account` had at the end of the provided past `_round`."
      },
      "getTotalActiveStakeAt(uint256)": {
        "notice": "Get the total active stake at the start of a given round. Notice that this function is different from the {IERC5805Upgradeable} functions above that return the state at the *end* of the round. The state at the end of a round is equal to the state at the start of the next round, so to get the same result here, call this function with `round+1` instead."
      },
      "getVotes(address)": {
        "notice": "Returns the current amount of votes that `_account` has. The voting power for a delegator is the amount they are delegating to a transcoder, while for transcoders it is all the stake delegated to them. If an account is not a registered transcoder ({BondingManager-isRegisteredTranscoder}), the voting power of itself and of all its delegators will be zero."
      },
      "getVotesAndDelegateAtRoundStart(address,uint256)": {
        "notice": "Gets the voting power and delegate of an account at the start of a given round. Notice that this function is different from the {IERC5805Upgradeable} functions above that return the state at the *end* of the round. The state at the end of a round is equal to the state at the start of the next round, so to get the same result here, call this function with `round+1` instead."
      },
      "hasCheckpoint(address)": {
        "notice": "Returns whether an account already has any checkpoint."
      },
      "name()": {
        "notice": "Returns the name of the virtual token implemented by this."
      },
      "setController(address)": {
        "notice": "Set controller. Only callable by current controller"
      },
      "symbol()": {
        "notice": "Returns the symbol of the token underlying the voting power."
      },
      "totalSupply()": {
        "notice": "Returns the current total supply of votes available."
      }
    },
    "version": 1
  },
  "storageLayout": {
    "storage": [
      {
        "astId": 18792,
        "contract": "contracts/bonding/BondingVotes.sol:BondingVotes",
        "label": "controller",
        "offset": 0,
        "slot": "0",
        "type": "t_contract(IController)18767"
      },
      {
        "astId": 18974,
        "contract": "contracts/bonding/BondingVotes.sol:BondingVotes",
        "label": "targetContractId",
        "offset": 0,
        "slot": "1",
        "type": "t_bytes32"
      },
      {
        "astId": 23000,
        "contract": "contracts/bonding/BondingVotes.sol:BondingVotes",
        "label": "bondingCheckpoints",
        "offset": 0,
        "slot": "2",
        "type": "t_mapping(t_address,t_struct(BondingCheckpointsByRound)22986_storage)"
      },
      {
        "astId": 23004,
        "contract": "contracts/bonding/BondingVotes.sol:BondingVotes",
        "label": "totalStakeCheckpoints",
        "offset": 0,
        "slot": "3",
        "type": "t_struct(TotalActiveStakeByRound)22994_storage"
      }
    ],
    "types": {
      "t_address": {
        "encoding": "inplace",
        "label": "address",
        "numberOfBytes": "20"
      },
      "t_array(t_uint256)dyn_storage": {
        "base": "t_uint256",
        "encoding": "dynamic_array",
        "label": "uint256[]",
        "numberOfBytes": "32"
      },
      "t_bytes32": {
        "encoding": "inplace",
        "label": "bytes32",
        "numberOfBytes": "32"
      },
      "t_contract(IController)18767": {
        "encoding": "inplace",
        "label": "contract IController",
        "numberOfBytes": "20"
      },
      "t_mapping(t_address,t_struct(BondingCheckpointsByRound)22986_storage)": {
        "encoding": "mapping",
        "key": "t_address",
        "label": "mapping(address => struct BondingVotes.BondingCheckpointsByRound)",
        "numberOfBytes": "32",
        "value": "t_struct(BondingCheckpointsByRound)22986_storage"
      },
      "t_mapping(t_uint256,t_struct(BondingCheckpoint)22977_storage)": {
        "encoding": "mapping",
        "key": "t_uint256",
        "label": "mapping(uint256 => struct BondingVotes.BondingCheckpoint)",
        "numberOfBytes": "32",
        "value": "t_struct(BondingCheckpoint)22977_storage"
      },
      "t_mapping(t_uint256,t_uint256)": {
        "encoding": "mapping",
        "key": "t_uint256",
        "label": "mapping(uint256 => uint256)",
        "numberOfBytes": "32",
        "value": "t_uint256"
      },
      "t_struct(BondingCheckpoint)22977_storage": {
        "encoding": "inplace",
        "label": "struct BondingVotes.BondingCheckpoint",
        "members": [
          {
            "astId": 22964,
            "contract": "contracts/bonding/BondingVotes.sol:BondingVotes",
            "label": "bondedAmount",
            "offset": 0,
            "slot": "0",
            "type": "t_uint256"
          },
          {
            "astId": 22967,
            "contract": "contracts/bonding/BondingVotes.sol:BondingVotes",
            "label": "delegateAddress",
            "offset": 0,
            "slot": "1",
            "type": "t_address"
          },
          {
            "astId": 22970,
            "contract": "contracts/bonding/BondingVotes.sol:BondingVotes",
            "label": "delegatedAmount",
            "offset": 0,
            "slot": "2",
            "type": "t_uint256"
          },
          {
            "astId": 22973,
            "contract": "contracts/bonding/BondingVotes.sol:BondingVotes",
            "label": "lastClaimRound",
            "offset": 0,
            "slot": "3",
            "type": "t_uint256"
          },
          {
            "astId": 22976,
            "contract": "contracts/bonding/BondingVotes.sol:BondingVotes",
            "label": "lastRewardRound",
            "offset": 0,
            "slot": "4",
            "type": "t_uint256"
          }
        ],
        "numberOfBytes": "160"
      },
      "t_struct(BondingCheckpointsByRound)22986_storage": {
        "encoding": "inplace",
        "label": "struct BondingVotes.BondingCheckpointsByRound",
        "members": [
          {
            "astId": 22980,
            "contract": "contracts/bonding/BondingVotes.sol:BondingVotes",
            "label": "startRounds",
            "offset": 0,
            "slot": "0",
            "type": "t_array(t_uint256)dyn_storage"
          },
          {
            "astId": 22985,
            "contract": "contracts/bonding/BondingVotes.sol:BondingVotes",
            "label": "data",
            "offset": 0,
            "slot": "1",
            "type": "t_mapping(t_uint256,t_struct(BondingCheckpoint)22977_storage)"
          }
        ],
        "numberOfBytes": "64"
      },
      "t_struct(TotalActiveStakeByRound)22994_storage": {
        "encoding": "inplace",
        "label": "struct BondingVotes.TotalActiveStakeByRound",
        "members": [
          {
            "astId": 22989,
            "contract": "contracts/bonding/BondingVotes.sol:BondingVotes",
            "label": "rounds",
            "offset": 0,
            "slot": "0",
            "type": "t_array(t_uint256)dyn_storage"
          },
          {
            "astId": 22993,
            "contract": "contracts/bonding/BondingVotes.sol:BondingVotes",
            "label": "data",
            "offset": 0,
            "slot": "1",
            "type": "t_mapping(t_uint256,t_uint256)"
          }
        ],
        "numberOfBytes": "64"
      },
      "t_uint256": {
        "encoding": "inplace",
        "label": "uint256",
        "numberOfBytes": "32"
      }
    }
  }
}