{
  "address": "0x6b397f20DC227B4E23fEc20BBDBe166d0DFFC452",
  "abi": [
    {
      "inputs": [
        {
          "internalType": "address",
          "name": "_controller",
          "type": "address"
        }
      ],
      "stateMutability": "nonpayable",
      "type": "constructor"
    },
    {
      "anonymous": false,
      "inputs": [
        {
          "indexed": true,
          "internalType": "address",
          "name": "newDelegate",
          "type": "address"
        },
        {
          "indexed": true,
          "internalType": "address",
          "name": "oldDelegate",
          "type": "address"
        },
        {
          "indexed": true,
          "internalType": "address",
          "name": "delegator",
          "type": "address"
        },
        {
          "indexed": false,
          "internalType": "uint256",
          "name": "additionalAmount",
          "type": "uint256"
        },
        {
          "indexed": false,
          "internalType": "uint256",
          "name": "bondedAmount",
          "type": "uint256"
        }
      ],
      "name": "Bond",
      "type": "event"
    },
    {
      "anonymous": false,
      "inputs": [
        {
          "indexed": true,
          "internalType": "address",
          "name": "delegate",
          "type": "address"
        },
        {
          "indexed": true,
          "internalType": "address",
          "name": "delegator",
          "type": "address"
        },
        {
          "indexed": false,
          "internalType": "uint256",
          "name": "rewards",
          "type": "uint256"
        },
        {
          "indexed": false,
          "internalType": "uint256",
          "name": "fees",
          "type": "uint256"
        },
        {
          "indexed": false,
          "internalType": "uint256",
          "name": "startRound",
          "type": "uint256"
        },
        {
          "indexed": false,
          "internalType": "uint256",
          "name": "endRound",
          "type": "uint256"
        }
      ],
      "name": "EarningsClaimed",
      "type": "event"
    },
    {
      "anonymous": false,
      "inputs": [
        {
          "indexed": false,
          "internalType": "string",
          "name": "param",
          "type": "string"
        }
      ],
      "name": "ParameterUpdate",
      "type": "event"
    },
    {
      "anonymous": false,
      "inputs": [
        {
          "indexed": true,
          "internalType": "address",
          "name": "delegate",
          "type": "address"
        },
        {
          "indexed": true,
          "internalType": "address",
          "name": "delegator",
          "type": "address"
        },
        {
          "indexed": false,
          "internalType": "uint256",
          "name": "unbondingLockId",
          "type": "uint256"
        },
        {
          "indexed": false,
          "internalType": "uint256",
          "name": "amount",
          "type": "uint256"
        }
      ],
      "name": "Rebond",
      "type": "event"
    },
    {
      "anonymous": false,
      "inputs": [
        {
          "indexed": true,
          "internalType": "address",
          "name": "transcoder",
          "type": "address"
        },
        {
          "indexed": false,
          "internalType": "uint256",
          "name": "amount",
          "type": "uint256"
        }
      ],
      "name": "Reward",
      "type": "event"
    },
    {
      "anonymous": false,
      "inputs": [
        {
          "indexed": false,
          "internalType": "address",
          "name": "controller",
          "type": "address"
        }
      ],
      "name": "SetController",
      "type": "event"
    },
    {
      "anonymous": false,
      "inputs": [
        {
          "indexed": true,
          "internalType": "address",
          "name": "transcoder",
          "type": "address"
        },
        {
          "indexed": false,
          "internalType": "uint256",
          "name": "activationRound",
          "type": "uint256"
        }
      ],
      "name": "TranscoderActivated",
      "type": "event"
    },
    {
      "anonymous": false,
      "inputs": [
        {
          "indexed": true,
          "internalType": "address",
          "name": "transcoder",
          "type": "address"
        },
        {
          "indexed": false,
          "internalType": "uint256",
          "name": "deactivationRound",
          "type": "uint256"
        }
      ],
      "name": "TranscoderDeactivated",
      "type": "event"
    },
    {
      "anonymous": false,
      "inputs": [
        {
          "indexed": true,
          "internalType": "address",
          "name": "transcoder",
          "type": "address"
        },
        {
          "indexed": false,
          "internalType": "address",
          "name": "finder",
          "type": "address"
        },
        {
          "indexed": false,
          "internalType": "uint256",
          "name": "penalty",
          "type": "uint256"
        },
        {
          "indexed": false,
          "internalType": "uint256",
          "name": "finderReward",
          "type": "uint256"
        }
      ],
      "name": "TranscoderSlashed",
      "type": "event"
    },
    {
      "anonymous": false,
      "inputs": [
        {
          "indexed": true,
          "internalType": "address",
          "name": "transcoder",
          "type": "address"
        },
        {
          "indexed": false,
          "internalType": "uint256",
          "name": "rewardCut",
          "type": "uint256"
        },
        {
          "indexed": false,
          "internalType": "uint256",
          "name": "feeShare",
          "type": "uint256"
        }
      ],
      "name": "TranscoderUpdate",
      "type": "event"
    },
    {
      "anonymous": false,
      "inputs": [
        {
          "indexed": true,
          "internalType": "address",
          "name": "oldDelegator",
          "type": "address"
        },
        {
          "indexed": true,
          "internalType": "address",
          "name": "newDelegator",
          "type": "address"
        },
        {
          "indexed": false,
          "internalType": "uint256",
          "name": "oldUnbondingLockId",
          "type": "uint256"
        },
        {
          "indexed": false,
          "internalType": "uint256",
          "name": "newUnbondingLockId",
          "type": "uint256"
        },
        {
          "indexed": false,
          "internalType": "uint256",
          "name": "amount",
          "type": "uint256"
        }
      ],
      "name": "TransferBond",
      "type": "event"
    },
    {
      "anonymous": false,
      "inputs": [
        {
          "indexed": true,
          "internalType": "address",
          "name": "transcoder",
          "type": "address"
        },
        {
          "indexed": false,
          "internalType": "address",
          "name": "treasury",
          "type": "address"
        },
        {
          "indexed": false,
          "internalType": "uint256",
          "name": "amount",
          "type": "uint256"
        }
      ],
      "name": "TreasuryReward",
      "type": "event"
    },
    {
      "anonymous": false,
      "inputs": [
        {
          "indexed": true,
          "internalType": "address",
          "name": "delegate",
          "type": "address"
        },
        {
          "indexed": true,
          "internalType": "address",
          "name": "delegator",
          "type": "address"
        },
        {
          "indexed": false,
          "internalType": "uint256",
          "name": "unbondingLockId",
          "type": "uint256"
        },
        {
          "indexed": false,
          "internalType": "uint256",
          "name": "amount",
          "type": "uint256"
        },
        {
          "indexed": false,
          "internalType": "uint256",
          "name": "withdrawRound",
          "type": "uint256"
        }
      ],
      "name": "Unbond",
      "type": "event"
    },
    {
      "anonymous": false,
      "inputs": [
        {
          "indexed": true,
          "internalType": "address",
          "name": "delegator",
          "type": "address"
        },
        {
          "indexed": false,
          "internalType": "address",
          "name": "recipient",
          "type": "address"
        },
        {
          "indexed": false,
          "internalType": "uint256",
          "name": "amount",
          "type": "uint256"
        }
      ],
      "name": "WithdrawFees",
      "type": "event"
    },
    {
      "anonymous": false,
      "inputs": [
        {
          "indexed": true,
          "internalType": "address",
          "name": "delegator",
          "type": "address"
        },
        {
          "indexed": false,
          "internalType": "uint256",
          "name": "unbondingLockId",
          "type": "uint256"
        },
        {
          "indexed": false,
          "internalType": "uint256",
          "name": "amount",
          "type": "uint256"
        },
        {
          "indexed": false,
          "internalType": "uint256",
          "name": "withdrawRound",
          "type": "uint256"
        }
      ],
      "name": "WithdrawStake",
      "type": "event"
    },
    {
      "inputs": [
        {
          "internalType": "uint256",
          "name": "_amount",
          "type": "uint256"
        },
        {
          "internalType": "address",
          "name": "_to",
          "type": "address"
        }
      ],
      "name": "bond",
      "outputs": [],
      "stateMutability": "nonpayable",
      "type": "function"
    },
    {
      "inputs": [
        {
          "internalType": "uint256",
          "name": "_amount",
          "type": "uint256"
        },
        {
          "internalType": "address",
          "name": "_owner",
          "type": "address"
        },
        {
          "internalType": "address",
          "name": "_to",
          "type": "address"
        },
        {
          "internalType": "address",
          "name": "_oldDelegateNewPosPrev",
          "type": "address"
        },
        {
          "internalType": "address",
          "name": "_oldDelegateNewPosNext",
          "type": "address"
        },
        {
          "internalType": "address",
          "name": "_currDelegateNewPosPrev",
          "type": "address"
        },
        {
          "internalType": "address",
          "name": "_currDelegateNewPosNext",
          "type": "address"
        }
      ],
      "name": "bondForWithHint",
      "outputs": [],
      "stateMutability": "nonpayable",
      "type": "function"
    },
    {
      "inputs": [
        {
          "internalType": "uint256",
          "name": "_amount",
          "type": "uint256"
        },
        {
          "internalType": "address",
          "name": "_to",
          "type": "address"
        },
        {
          "internalType": "address",
          "name": "_oldDelegateNewPosPrev",
          "type": "address"
        },
        {
          "internalType": "address",
          "name": "_oldDelegateNewPosNext",
          "type": "address"
        },
        {
          "internalType": "address",
          "name": "_currDelegateNewPosPrev",
          "type": "address"
        },
        {
          "internalType": "address",
          "name": "_currDelegateNewPosNext",
          "type": "address"
        }
      ],
      "name": "bondWithHint",
      "outputs": [],
      "stateMutability": "nonpayable",
      "type": "function"
    },
    {
      "inputs": [
        {
          "internalType": "address",
          "name": "_account",
          "type": "address"
        }
      ],
      "name": "checkpointBondingState",
      "outputs": [],
      "stateMutability": "nonpayable",
      "type": "function"
    },
    {
      "inputs": [
        {
          "internalType": "uint256",
          "name": "_endRound",
          "type": "uint256"
        }
      ],
      "name": "claimEarnings",
      "outputs": [],
      "stateMutability": "nonpayable",
      "type": "function"
    },
    {
      "inputs": [],
      "name": "controller",
      "outputs": [
        {
          "internalType": "contract IController",
          "name": "",
          "type": "address"
        }
      ],
      "stateMutability": "view",
      "type": "function"
    },
    {
      "inputs": [],
      "name": "currentRoundTotalActiveStake",
      "outputs": [
        {
          "internalType": "uint256",
          "name": "",
          "type": "uint256"
        }
      ],
      "stateMutability": "view",
      "type": "function"
    },
    {
      "inputs": [
        {
          "internalType": "address",
          "name": "_delegator",
          "type": "address"
        }
      ],
      "name": "delegatorStatus",
      "outputs": [
        {
          "internalType": "enum BondingManager.DelegatorStatus",
          "name": "",
          "type": "uint8"
        }
      ],
      "stateMutability": "view",
      "type": "function"
    },
    {
      "inputs": [
        {
          "internalType": "address",
          "name": "_delegator",
          "type": "address"
        }
      ],
      "name": "getDelegator",
      "outputs": [
        {
          "internalType": "uint256",
          "name": "bondedAmount",
          "type": "uint256"
        },
        {
          "internalType": "uint256",
          "name": "fees",
          "type": "uint256"
        },
        {
          "internalType": "address",
          "name": "delegateAddress",
          "type": "address"
        },
        {
          "internalType": "uint256",
          "name": "delegatedAmount",
          "type": "uint256"
        },
        {
          "internalType": "uint256",
          "name": "startRound",
          "type": "uint256"
        },
        {
          "internalType": "uint256",
          "name": "lastClaimRound",
          "type": "uint256"
        },
        {
          "internalType": "uint256",
          "name": "nextUnbondingLockId",
          "type": "uint256"
        }
      ],
      "stateMutability": "view",
      "type": "function"
    },
    {
      "inputs": [
        {
          "internalType": "address",
          "name": "_delegator",
          "type": "address"
        },
        {
          "internalType": "uint256",
          "name": "_unbondingLockId",
          "type": "uint256"
        }
      ],
      "name": "getDelegatorUnbondingLock",
      "outputs": [
        {
          "internalType": "uint256",
          "name": "amount",
          "type": "uint256"
        },
        {
          "internalType": "uint256",
          "name": "withdrawRound",
          "type": "uint256"
        }
      ],
      "stateMutability": "view",
      "type": "function"
    },
    {
      "inputs": [],
      "name": "getFirstTranscoderInPool",
      "outputs": [
        {
          "internalType": "address",
          "name": "",
          "type": "address"
        }
      ],
      "stateMutability": "view",
      "type": "function"
    },
    {
      "inputs": [
        {
          "internalType": "address",
          "name": "_transcoder",
          "type": "address"
        }
      ],
      "name": "getNextTranscoderInPool",
      "outputs": [
        {
          "internalType": "address",
          "name": "",
          "type": "address"
        }
      ],
      "stateMutability": "view",
      "type": "function"
    },
    {
      "inputs": [],
      "name": "getTotalBonded",
      "outputs": [
        {
          "internalType": "uint256",
          "name": "",
          "type": "uint256"
        }
      ],
      "stateMutability": "view",
      "type": "function"
    },
    {
      "inputs": [
        {
          "internalType": "address",
          "name": "_transcoder",
          "type": "address"
        }
      ],
      "name": "getTranscoder",
      "outputs": [
        {
          "internalType": "uint256",
          "name": "lastRewardRound",
          "type": "uint256"
        },
        {
          "internalType": "uint256",
          "name": "rewardCut",
          "type": "uint256"
        },
        {
          "internalType": "uint256",
          "name": "feeShare",
          "type": "uint256"
        },
        {
          "internalType": "uint256",
          "name": "lastActiveStakeUpdateRound",
          "type": "uint256"
        },
        {
          "internalType": "uint256",
          "name": "activationRound",
          "type": "uint256"
        },
        {
          "internalType": "uint256",
          "name": "deactivationRound",
          "type": "uint256"
        },
        {
          "internalType": "uint256",
          "name": "activeCumulativeRewards",
          "type": "uint256"
        },
        {
          "internalType": "uint256",
          "name": "cumulativeRewards",
          "type": "uint256"
        },
        {
          "internalType": "uint256",
          "name": "cumulativeFees",
          "type": "uint256"
        },
        {
          "internalType": "uint256",
          "name": "lastFeeRound",
          "type": "uint256"
        }
      ],
      "stateMutability": "view",
      "type": "function"
    },
    {
      "inputs": [
        {
          "internalType": "address",
          "name": "_transcoder",
          "type": "address"
        },
        {
          "internalType": "uint256",
          "name": "_round",
          "type": "uint256"
        }
      ],
      "name": "getTranscoderEarningsPoolForRound",
      "outputs": [
        {
          "internalType": "uint256",
          "name": "totalStake",
          "type": "uint256"
        },
        {
          "internalType": "uint256",
          "name": "transcoderRewardCut",
          "type": "uint256"
        },
        {
          "internalType": "uint256",
          "name": "transcoderFeeShare",
          "type": "uint256"
        },
        {
          "internalType": "uint256",
          "name": "cumulativeRewardFactor",
          "type": "uint256"
        },
        {
          "internalType": "uint256",
          "name": "cumulativeFeeFactor",
          "type": "uint256"
        }
      ],
      "stateMutability": "view",
      "type": "function"
    },
    {
      "inputs": [],
      "name": "getTranscoderPoolMaxSize",
      "outputs": [
        {
          "internalType": "uint256",
          "name": "",
          "type": "uint256"
        }
      ],
      "stateMutability": "view",
      "type": "function"
    },
    {
      "inputs": [],
      "name": "getTranscoderPoolSize",
      "outputs": [
        {
          "internalType": "uint256",
          "name": "",
          "type": "uint256"
        }
      ],
      "stateMutability": "view",
      "type": "function"
    },
    {
      "inputs": [
        {
          "internalType": "address",
          "name": "_transcoder",
          "type": "address"
        }
      ],
      "name": "isActiveTranscoder",
      "outputs": [
        {
          "internalType": "bool",
          "name": "",
          "type": "bool"
        }
      ],
      "stateMutability": "view",
      "type": "function"
    },
    {
      "inputs": [
        {
          "internalType": "address",
          "name": "_transcoder",
          "type": "address"
        }
      ],
      "name": "isRegisteredTranscoder",
      "outputs": [
        {
          "internalType": "bool",
          "name": "",
          "type": "bool"
        }
      ],
      "stateMutability": "view",
      "type": "function"
    },
    {
      "inputs": [
        {
          "internalType": "address",
          "name": "_delegator",
          "type": "address"
        },
        {
          "internalType": "uint256",
          "name": "_unbondingLockId",
          "type": "uint256"
        }
      ],
      "name": "isValidUnbondingLock",
      "outputs": [
        {
          "internalType": "bool",
          "name": "",
          "type": "bool"
        }
      ],
      "stateMutability": "view",
      "type": "function"
    },
    {
      "inputs": [],
      "name": "nextRoundTotalActiveStake",
      "outputs": [
        {
          "internalType": "uint256",
          "name": "",
          "type": "uint256"
        }
      ],
      "stateMutability": "view",
      "type": "function"
    },
    {
      "inputs": [],
      "name": "nextRoundTreasuryRewardCutRate",
      "outputs": [
        {
          "internalType": "uint256",
          "name": "",
          "type": "uint256"
        }
      ],
      "stateMutability": "view",
      "type": "function"
    },
    {
      "inputs": [
        {
          "internalType": "address",
          "name": "_delegator",
          "type": "address"
        },
        {
          "internalType": "uint256",
          "name": "_endRound",
          "type": "uint256"
        }
      ],
      "name": "pendingFees",
      "outputs": [
        {
          "internalType": "uint256",
          "name": "",
          "type": "uint256"
        }
      ],
      "stateMutability": "view",
      "type": "function"
    },
    {
      "inputs": [
        {
          "internalType": "address",
          "name": "_delegator",
          "type": "address"
        },
        {
          "internalType": "uint256",
          "name": "_endRound",
          "type": "uint256"
        }
      ],
      "name": "pendingStake",
      "outputs": [
        {
          "internalType": "uint256",
          "name": "",
          "type": "uint256"
        }
      ],
      "stateMutability": "view",
      "type": "function"
    },
    {
      "inputs": [
        {
          "internalType": "uint256",
          "name": "_unbondingLockId",
          "type": "uint256"
        }
      ],
      "name": "rebond",
      "outputs": [],
      "stateMutability": "nonpayable",
      "type": "function"
    },
    {
      "inputs": [
        {
          "internalType": "address",
          "name": "_to",
          "type": "address"
        },
        {
          "internalType": "uint256",
          "name": "_unbondingLockId",
          "type": "uint256"
        }
      ],
      "name": "rebondFromUnbonded",
      "outputs": [],
      "stateMutability": "nonpayable",
      "type": "function"
    },
    {
      "inputs": [
        {
          "internalType": "address",
          "name": "_to",
          "type": "address"
        },
        {
          "internalType": "uint256",
          "name": "_unbondingLockId",
          "type": "uint256"
        },
        {
          "internalType": "address",
          "name": "_newPosPrev",
          "type": "address"
        },
        {
          "internalType": "address",
          "name": "_newPosNext",
          "type": "address"
        }
      ],
      "name": "rebondFromUnbondedWithHint",
      "outputs": [],
      "stateMutability": "nonpayable",
      "type": "function"
    },
    {
      "inputs": [
        {
          "internalType": "uint256",
          "name": "_unbondingLockId",
          "type": "uint256"
        },
        {
          "internalType": "address",
          "name": "_newPosPrev",
          "type": "address"
        },
        {
          "internalType": "address",
          "name": "_newPosNext",
          "type": "address"
        }
      ],
      "name": "rebondWithHint",
      "outputs": [],
      "stateMutability": "nonpayable",
      "type": "function"
    },
    {
      "inputs": [],
      "name": "reward",
      "outputs": [],
      "stateMutability": "nonpayable",
      "type": "function"
    },
    {
      "inputs": [
        {
          "internalType": "address",
          "name": "_newPosPrev",
          "type": "address"
        },
        {
          "internalType": "address",
          "name": "_newPosNext",
          "type": "address"
        }
      ],
      "name": "rewardWithHint",
      "outputs": [],
      "stateMutability": "nonpayable",
      "type": "function"
    },
    {
      "inputs": [
        {
          "internalType": "address",
          "name": "_controller",
          "type": "address"
        }
      ],
      "name": "setController",
      "outputs": [],
      "stateMutability": "nonpayable",
      "type": "function"
    },
    {
      "inputs": [],
      "name": "setCurrentRoundTotalActiveStake",
      "outputs": [],
      "stateMutability": "nonpayable",
      "type": "function"
    },
    {
      "inputs": [
        {
          "internalType": "uint256",
          "name": "_numActiveTranscoders",
          "type": "uint256"
        }
      ],
      "name": "setNumActiveTranscoders",
      "outputs": [],
      "stateMutability": "nonpayable",
      "type": "function"
    },
    {
      "inputs": [
        {
          "internalType": "uint256",
          "name": "_ceiling",
          "type": "uint256"
        }
      ],
      "name": "setTreasuryBalanceCeiling",
      "outputs": [],
      "stateMutability": "nonpayable",
      "type": "function"
    },
    {
      "inputs": [
        {
          "internalType": "uint256",
          "name": "_cutRate",
          "type": "uint256"
        }
      ],
      "name": "setTreasuryRewardCutRate",
      "outputs": [],
      "stateMutability": "nonpayable",
      "type": "function"
    },
    {
      "inputs": [
        {
          "internalType": "uint64",
          "name": "_unbondingPeriod",
          "type": "uint64"
        }
      ],
      "name": "setUnbondingPeriod",
      "outputs": [],
      "stateMutability": "nonpayable",
      "type": "function"
    },
    {
      "inputs": [
        {
          "internalType": "address",
          "name": "_transcoder",
          "type": "address"
        },
        {
          "internalType": "address",
          "name": "_finder",
          "type": "address"
        },
        {
          "internalType": "uint256",
          "name": "_slashAmount",
          "type": "uint256"
        },
        {
          "internalType": "uint256",
          "name": "_finderFee",
          "type": "uint256"
        }
      ],
      "name": "slashTranscoder",
      "outputs": [],
      "stateMutability": "nonpayable",
      "type": "function"
    },
    {
      "inputs": [],
      "name": "targetContractId",
      "outputs": [
        {
          "internalType": "bytes32",
          "name": "",
          "type": "bytes32"
        }
      ],
      "stateMutability": "view",
      "type": "function"
    },
    {
      "inputs": [
        {
          "internalType": "uint256",
          "name": "_rewardCut",
          "type": "uint256"
        },
        {
          "internalType": "uint256",
          "name": "_feeShare",
          "type": "uint256"
        }
      ],
      "name": "transcoder",
      "outputs": [],
      "stateMutability": "nonpayable",
      "type": "function"
    },
    {
      "inputs": [
        {
          "internalType": "address",
          "name": "_transcoder",
          "type": "address"
        }
      ],
      "name": "transcoderStatus",
      "outputs": [
        {
          "internalType": "enum BondingManager.TranscoderStatus",
          "name": "",
          "type": "uint8"
        }
      ],
      "stateMutability": "view",
      "type": "function"
    },
    {
      "inputs": [
        {
          "internalType": "address",
          "name": "_transcoder",
          "type": "address"
        }
      ],
      "name": "transcoderTotalStake",
      "outputs": [
        {
          "internalType": "uint256",
          "name": "",
          "type": "uint256"
        }
      ],
      "stateMutability": "view",
      "type": "function"
    },
    {
      "inputs": [
        {
          "internalType": "uint256",
          "name": "_rewardCut",
          "type": "uint256"
        },
        {
          "internalType": "uint256",
          "name": "_feeShare",
          "type": "uint256"
        },
        {
          "internalType": "address",
          "name": "_newPosPrev",
          "type": "address"
        },
        {
          "internalType": "address",
          "name": "_newPosNext",
          "type": "address"
        }
      ],
      "name": "transcoderWithHint",
      "outputs": [],
      "stateMutability": "nonpayable",
      "type": "function"
    },
    {
      "inputs": [
        {
          "internalType": "address",
          "name": "_delegator",
          "type": "address"
        },
        {
          "internalType": "uint256",
          "name": "_amount",
          "type": "uint256"
        },
        {
          "internalType": "address",
          "name": "_oldDelegateNewPosPrev",
          "type": "address"
        },
        {
          "internalType": "address",
          "name": "_oldDelegateNewPosNext",
          "type": "address"
        },
        {
          "internalType": "address",
          "name": "_newDelegateNewPosPrev",
          "type": "address"
        },
        {
          "internalType": "address",
          "name": "_newDelegateNewPosNext",
          "type": "address"
        }
      ],
      "name": "transferBond",
      "outputs": [],
      "stateMutability": "nonpayable",
      "type": "function"
    },
    {
      "inputs": [],
      "name": "treasuryBalanceCeiling",
      "outputs": [
        {
          "internalType": "uint256",
          "name": "",
          "type": "uint256"
        }
      ],
      "stateMutability": "view",
      "type": "function"
    },
    {
      "inputs": [],
      "name": "treasuryRewardCutRate",
      "outputs": [
        {
          "internalType": "uint256",
          "name": "",
          "type": "uint256"
        }
      ],
      "stateMutability": "view",
      "type": "function"
    },
    {
      "inputs": [
        {
          "internalType": "uint256",
          "name": "_amount",
          "type": "uint256"
        }
      ],
      "name": "unbond",
      "outputs": [],
      "stateMutability": "nonpayable",
      "type": "function"
    },
    {
      "inputs": [
        {
          "internalType": "uint256",
          "name": "_amount",
          "type": "uint256"
        },
        {
          "internalType": "address",
          "name": "_newPosPrev",
          "type": "address"
        },
        {
          "internalType": "address",
          "name": "_newPosNext",
          "type": "address"
        }
      ],
      "name": "unbondWithHint",
      "outputs": [],
      "stateMutability": "nonpayable",
      "type": "function"
    },
    {
      "inputs": [],
      "name": "unbondingPeriod",
      "outputs": [
        {
          "internalType": "uint64",
          "name": "",
          "type": "uint64"
        }
      ],
      "stateMutability": "view",
      "type": "function"
    },
    {
      "inputs": [
        {
          "internalType": "address",
          "name": "_transcoder",
          "type": "address"
        },
        {
          "internalType": "uint256",
          "name": "_fees",
          "type": "uint256"
        },
        {
          "internalType": "uint256",
          "name": "_round",
          "type": "uint256"
        }
      ],
      "name": "updateTranscoderWithFees",
      "outputs": [],
      "stateMutability": "nonpayable",
      "type": "function"
    },
    {
      "inputs": [
        {
          "internalType": "address payable",
          "name": "_recipient",
          "type": "address"
        },
        {
          "internalType": "uint256",
          "name": "_amount",
          "type": "uint256"
        }
      ],
      "name": "withdrawFees",
      "outputs": [],
      "stateMutability": "nonpayable",
      "type": "function"
    },
    {
      "inputs": [
        {
          "internalType": "uint256",
          "name": "_unbondingLockId",
          "type": "uint256"
        }
      ],
      "name": "withdrawStake",
      "outputs": [],
      "stateMutability": "nonpayable",
      "type": "function"
    }
  ],
  "transactionHash": "0xffc2003d022d11f772873b60445c6b1a242305dd4c3ef9e9ea8323627ab5fe7e",
  "args": [
    "0xD8E8328501E9645d16Cf49539efC04f734606ee4"
  ],
  "numDeployments": 9,
  "solcInputHash": "7ecca35a4ebb76de8fe36f44cdd991c9",
  "bytecode": "0x60806040523480156200001157600080fd5b50604051620056cc380380620056cc83398101604081905262000034916200005a565b600080546001600160a01b0319166001600160a01b03929092169190911790556200008c565b6000602082840312156200006d57600080fd5b81516001600160a01b03811681146200008557600080fd5b9392505050565b615630806200009c6000396000f3fe608060405234801561001057600080fd5b50600436106102f15760003560e01c80635dce99481161019d5780639d0b2c7a116100e9578063cf33a0d5116100a2578063ee4e804a1161007c578063ee4e804a1461083d578063f10d1de114610850578063f595f1cc14610863578063f77c47911461087657600080fd5b8063cf33a0d514610804578063d52bd62b14610817578063eaffb3f91461082a57600080fd5b80639d0b2c7a146107115780639ef9df9414610724578063a576623114610737578063a64ad59514610740578063ad3b1b47146107de578063b78d27dc146107f157600080fd5b80637fc4606f1161015657806388a6c7491161013057806388a6c749146106c35780638b2f1652146106cb57806392eefe9b146106eb5780639500ed9b146106fe57600080fd5b80637fc4606f1461069457806381871056146106a757806384a16bbc146106ba57600080fd5b80635dce994814610574578063673a456b1461062657806368ba170c146106395780636bd9add41461064c5780636cf6d6751461065f578063713f22161461068c57600080fd5b80632a4e0d551161025c5780634196ee751161021557806351720b41116101ef57806351720b4114610552578063558f8f441461055b5780635a2a75a9146105645780635c50c3561461056c57600080fd5b80634196ee751461052d57806343d3461a14610536578063465501d31461054957600080fd5b80632a4e0d55146104745780633550aa101461048a5780633a080e931461049d5780633aeb512c146104b057806340e6f271146104c3578063412f83b6146104d657600080fd5b806322bf9d7c116102ae57806322bf9d7c14610381578063235c96031461039457806324454fc4146103bf57806324b1babf1461043b57806325d5971f1461044e57806327de9e321461046157600080fd5b80630584a373146102f6578063062e98b81461030b578063088023741461031e5780630fd02fc1146103465780631544fc6714610359578063228cb73314610379575b600080fd5b6103096103043660046150d3565b610889565b005b610309610319366004615126565b6109eb565b61033161032c36600461519f565b610cc9565b60405190151581526020015b60405180910390f35b6103316103543660046151bc565b610d7b565b61036c61036736600461519f565b610dac565b60405161033d91906151fe565b610309610e68565b61030961038f366004615218565b610e75565b6103a76103a236600461519f565b61127c565b6040516001600160a01b03909116815260200161033d565b6104136103cd3660046151bc565b6001600160a01b03909116600090815260046020818152604080842094845260039485019091529091208054600182015460028301549483015492909301549094929392565b604080519586526020860194909452928401919091526060830152608082015260a00161033d565b61030961044936600461525e565b611317565b61030961045c36600461525e565b611363565b61030961046f36600461525e565b6115ad565b61047c6115bc565b60405190815260200161033d565b610309610498366004615277565b611648565b6103096104ab3660046151bc565b611a7c565b6103096104be3660046152a6565b611a89565b6103096104d136600461525e565b611deb565b6105186104e43660046151bc565b6001600160a01b03919091166000908152600360209081526040808320938352600790930190522080546001909101549091565b6040805192835260208301919091520161033d565b61047c60055481565b6103096105443660046152db565b611e4a565b61047c60065481565b61047c60015481565b61047c600c5481565b61047c611e57565b60055461047c565b6105dc61058236600461519f565b6001600160a01b031660009081526004602081905260409091208054600182015460028301549383015460058401546006850154600786015460088701546009880154600a90980154969995989794969395929491939092565b604080519a8b5260208b0199909952978901969096526060880194909452608087019290925260a086015260c085015260e08401526101008301526101208201526101400161033d565b61030961063436600461525e565b611e92565b61033161064736600461519f565b611f48565b61030961065a3660046152fd565b611f80565b6002546106739067ffffffffffffffff1681565b60405167ffffffffffffffff909116815260200161033d565b610309611f8f565b6103096106a2366004615338565b6120e6565b6103096106b536600461537a565b61216e565b61047c600e5481565b6103a76125ef565b6106de6106d936600461519f565b612675565b60405161033d91906153b3565b6103096106f936600461519f565b612695565b61030961070c366004615338565b6126eb565b61047c61071f3660046151bc565b612ab5565b61047c61073236600461519f565b612b48565b61047c600d5481565b61079b61074e36600461519f565b6001600160a01b0390811660009081526003602081905260409091208054600182015460028301549383015460048401546005850154600690950154939792969590951694909390929091565b6040805197885260208801969096526001600160a01b03909416948601949094526060850191909152608084015260a083019190915260c082015260e00161033d565b6103096107ec3660046151bc565b612b67565b6103096107ff3660046153c7565b612d2b565b61030961081236600461525e565b612d3b565b61030961082536600461519f565b612d4c565b61030961083836600461525e565b612d7a565b61030961084b3660046153ec565b612d86565b61030961085e366004615479565b6132df565b61047c6108713660046151bc565b613346565b6000546103a7906001600160a01b031681565b6108916133d9565b61089961349d565b336108a381613561565b60026108ae33610dac565b60028111156108bf576108bf6151e8565b146109115760405162461bcd60e51b815260206004820152601760248201527f63616c6c6572206d75737420626520756e626f6e64656400000000000000000060448201526064015b60405180910390fd5b600061091b61360d565b6001600160a01b0316638a19c8bc6040518163ffffffff1660e01b815260040160206040518083038186803b15801561095357600080fd5b505afa158015610967573d6000803e3d6000fd5b505050506040513d601f19601f8201168201806040525081019061098b91906154a3565b90506109978682613686565b6109a2816001613706565b3360008181526003602052604090206004810192909255600290910180546001600160a01b0319166001600160a01b0389161790556109e390868686613712565b505050505050565b6109f36133d9565b6109fb61349d565b610a048661389f565b610a0d33613561565b336000908152600360205260408082206001600160a01b038981168452919092206002830154909116610a418888886126eb565b6006830154600090610a54906001613a1a565b905060008460070160008381526020019081526020016000206001015490508460070160008381526020019081526020016000206000808201600090556001820160009055505060008460060154905060405180604001604052808c8152602001838152508560070160008381526020019081526020016000206000820151816000015560208201518160010155905050610afd6001866006015461370690919063ffffffff16565b600686015560408051848152602081018390529081018c90526001600160a01b038d169033907ff136b986590e86cf1abd7b6600186a7a1178ad3cbbdf0f3312e79f6214a2a5679060600160405180910390a36000610b5a61360d565b6001600160a01b0316638a19c8bc6040518163ffffffff1660e01b815260040160206040518083038186803b158015610b9257600080fd5b505afa158015610ba6573d6000803e3d6000fd5b505050506040513d601f19601f82011682018060405250810190610bca91906154a3565b600587015490915081811015610be557610be58e8383613a26565b60028701546001600160a01b0316158015610bff57508654155b15610c7a578d6001600160a01b0316866001600160a01b03161415610c365760405162461bcd60e51b8152600401610908906154bc565b6001600160a01b038e16610c5c5760405162461bcd60e51b8152600401610908906154bc565b6002870180546001600160a01b0319166001600160a01b0388161790555b6002610c858f610dac565b6002811115610c9657610c966151e8565b1415610cad57610ca7826001613706565b60048801555b610cb98e848c8c613712565b5050505050505050505050505050565b6001600160a01b038116600090815260046020526040812081610cea61360d565b6001600160a01b0316638a19c8bc6040518163ffffffff1660e01b815260040160206040518083038186803b158015610d2257600080fd5b505afa158015610d36573d6000803e3d6000fd5b505050506040513d601f19601f82011682018060405250810190610d5a91906154a3565b905080826005015411158015610d735750816006015481105b949350505050565b6001600160a01b03919091166000908152600360209081526040808320938352600790930190522060010154151590565b6001600160a01b03811660009081526003602052604081208054610dd35750600292915050565b610ddb61360d565b6001600160a01b0316638a19c8bc6040518163ffffffff1660e01b815260040160206040518083038186803b158015610e1357600080fd5b505afa158015610e27573d6000803e3d6000fd5b505050506040513d601f19601f82011682018060405250810190610e4b91906154a3565b81600401541115610e5f5750600092915050565b50600192915050565b610e7360008061216e565b565b610e7d6133d9565b610e85613b5c565b83610e8f81613561565b6001600160a01b03851660009081526003602052604090208054869190156111fe576001600160a01b038716600090815260036020526040812054610ed49087613c57565b60405163b0138c4760e01b8152600760048201526001600160a01b038a16602482015290915073C45f6918F7Bcac7aBc8fe05302b3cDF39776cdeb9063b0138c479060440160206040518083038186803b158015610f3157600080fd5b505af4158015610f45573d6000803e3d6000fd5b505050506040513d601f19601f82011682018060405250810190610f6991906154e7565b15610f7757610f7788613c70565b8154610f839082613a1a565b82556001610f9089610dac565b6002811115610fa157610fa16151e8565b1415610ff45760028201546001600160a01b031660009081526003602081905260409091200154610fd29082613a1a565b60028301546001600160a01b0316600090815260036020819052604090912001555b806001600160a01b038816156111435760006110108388613c57565b905061101a613da1565b60405163e7a49c2b60e01b81526001600160a01b038b8116600483015260248201849052919091169063e7a49c2b90604401600060405180830381600087803b15801561106657600080fd5b505af115801561107a573d6000803e3d6000fd5b50505050611086613da1565b6001600160a01b031663c7ee98c261109e8484613a1a565b6040518263ffffffff1660e01b81526004016110bc91815260200190565b600060405180830381600087803b1580156110d657600080fd5b505af11580156110ea573d6000803e3d6000fd5b5050604080516001600160a01b038d8116825260208201889052918101859052908d1692507ff4b71fed8e2c9a8c67c388bc6d35ad20b9368a24eed6d565459f2b277b6c0c22915060600160405180910390a2506111f7565b61114b613da1565b6001600160a01b031663c7ee98c2826040518263ffffffff1660e01b815260040161117891815260200190565b600060405180830381600087803b15801561119257600080fd5b505af11580156111a6573d6000803e3d6000fd5b5050604080516000808252602082018790528183015290516001600160a01b038d1693507ff4b71fed8e2c9a8c67c388bc6d35ad20b9368a24eed6d565459f2b277b6c0c2292509081900360600190a25b505061124d565b604080516001600160a01b038881168252600060208301819052828401529151918916917ff4b71fed8e2c9a8c67c388bc6d35ad20b9368a24eed6d565459f2b277b6c0c229181900360600190a25b506001600160a01b038116600090815260036020908152604080832060049092529091206109e3918391613df2565b60405163e189dedb60e01b8152600760048201526001600160a01b038216602482015260009073C45f6918F7Bcac7aBc8fe05302b3cDF39776cdeb9063e189dedb9060440160206040518083038186803b1580156112d957600080fd5b505af41580156112ed573d6000803e3d6000fd5b505050506040513d601f19601f820116820180604052508101906113119190615509565b92915050565b61131f6133d9565b61132761349d565b3361133133613561565b6001600160a01b0381166000908152600360209081526040808320600490925290912061135f918391613df2565b5050565b61136b6133d9565b61137361349d565b33600081815260036020908152604080832085845260078101909252909120909161139e9084610d7b565b6113e65760405162461bcd60e51b81526020600482015260196024820152781a5b9d985b1a59081d5b989bdb991a5b99c81b1bd8dac81251603a1b6044820152606401610908565b6113ee61360d565b6001600160a01b0316638a19c8bc6040518163ffffffff1660e01b815260040160206040518083038186803b15801561142657600080fd5b505afa15801561143a573d6000803e3d6000fd5b505050506040513d601f19601f8201168201806040525081019061145e91906154a3565b816001015411156114d75760405162461bcd60e51b815260206004820152603b60248201527f776974686472617720726f756e64206d757374206265206265666f7265206f7260448201527f20657175616c20746f207468652063757272656e7420726f756e6400000000006064820152608401610908565b80546001808301546000868152600786016020526040812081815590920191909155611501613da1565b60405163e7a49c2b60e01b8152336004820152602481018490526001600160a01b03919091169063e7a49c2b90604401600060405180830381600087803b15801561154b57600080fd5b505af115801561155f573d6000803e3d6000fd5b505060408051888152602081018690529081018490523392507f1340f1a8f3d456a649e1a12071dfa15655e3d09252131d0f980c3b405cc8dd2e915060600160405180910390a25050505050565b6115b9816000806126eb565b50565b604051631665d9cb60e31b81526007600482015260009073C45f6918F7Bcac7aBc8fe05302b3cDF39776cdeb9063b32ece58906024015b60206040518083038186803b15801561160b57600080fd5b505af415801561161f573d6000803e3d6000fd5b505050506040513d601f19601f8201168201806040525081019061164391906154a3565b905090565b6116506133d9565b61165861349d565b61166061360d565b6001600160a01b0316636841f2536040518163ffffffff1660e01b815260040160206040518083038186803b15801561169857600080fd5b505afa1580156116ac573d6000803e3d6000fd5b505050506040513d601f19601f820116820180604052508101906116d091906154e7565b156117435760405162461bcd60e51b815260206004820152603760248201527f63616e277420757064617465207472616e73636f64657220706172616d732c2060448201527f63757272656e7420726f756e64206973206c6f636b65640000000000000000006064820152608401610908565b61175084620f4240101590565b61179c5760405162461bcd60e51b815260206004820152601c60248201527f696e76616c6964207265776172644375742070657263656e74616765000000006044820152606401610908565b6117a983620f4240101590565b6117f55760405162461bcd60e51b815260206004820152601b60248201527f696e76616c69642066656553686172652070657263656e7461676500000000006044820152606401610908565b6117fe33611f48565b61184a5760405162461bcd60e51b815260206004820152601d60248201527f7472616e73636f646572206d75737420626520726567697374657265640000006044820152606401610908565b3360009081526004602052604081209061186261360d565b6001600160a01b0316638a19c8bc6040518163ffffffff1660e01b815260040160206040518083038186803b15801561189a57600080fd5b505afa1580156118ae573d6000803e3d6000fd5b505050506040513d601f19601f820116820180604052508101906118d291906154a3565b90506118dd33610cc9565b15806118e95750815481145b6119735760405162461bcd60e51b815260206004820152604f60248201527f63616c6c65722063616e277420626520616374697665206f72206d757374206860448201527f61766520616c72656164792063616c6c65642072657761726420666f7220746860648201526e194818dd5c9c995b9d081c9bdd5b99608a1b608482015260a401610908565b600182018690556002820185905560405163b0138c4760e01b81526007600482015233602482015273C45f6918F7Bcac7aBc8fe05302b3cDF39776cdeb9063b0138c479060440160206040518083038186803b1580156119d257600080fd5b505af41580156119e6573d6000803e3d6000fd5b505050506040513d601f19601f82011682018060405250810190611a0a91906154e7565b611a39573360008181526003602081905260409091200154611a399190611a32846001613706565b8787613f1e565b604080518781526020810187905233917f7346854431dbb3eb8e373c604abf89e90f4865b8447e1e2834d7b3e4677bf544910160405180910390a2505050505050565b61135f8282600080610889565b611a916133d9565b611a99614241565b611aa283611f48565b611aee5760405162461bcd60e51b815260206004820152601d60248201527f7472616e73636f646572206d75737420626520726567697374657265640000006044820152606401610908565b6000611af861360d565b6001600160a01b0316638a19c8bc6040518163ffffffff1660e01b815260040160206040518083038186803b158015611b3057600080fd5b505afa158015611b44573d6000803e3d6000fd5b505050506040513d601f19601f82011682018060405250810190611b6891906154a3565b6001600160a01b03851660009081526004602090815260408083208054600782015486865260038301909452918420949550939092611bb185611bac886001613a1a565b61433c565b905083861115611bfb5760018581015460028088015492850191909155830155600485015486811015611bf257600081815260038701602052604090205483555b85600801549350505b81546060820151158015611c0e57508685145b15611d7b576000611c1d613da1565b90506000611d18611d0f836001600160a01b0316632de22cdb6040518163ffffffff1660e01b815260040160206040518083038186803b158015611c6057600080fd5b505afa158015611c74573d6000803e3d6000fd5b505050506040513d601f19601f82011682018060405250810190611c9891906154a3565b846001600160a01b0316639ae6309a6040518163ffffffff1660e01b815260040160206040518083038186803b158015611cd157600080fd5b505afa158015611ce5573d6000803e3d6000fd5b505050506040513d601f19601f82011682018060405250810190611d0991906154a3565b90613706565b846005546143e1565b90506000611d2882600c54614407565b9050611d348282613a1a565b91506000611d46838860010154613c57565b90506000611d548483613a1a565b6003890154909150611d709087611d6b8482613706565b6143e1565b606088015250505050505b6000611d8b8a8560020154613c57565b90506000611d998b83613a1a565b90506000611da88388866143e1565b9050611dc582611d09838c6009015461370690919063ffffffff16565b60098a0155611dd5868685614423565b50505050600a9094019490945550505050505050565b611df361449e565b600e8190556040516000805160206155db83398151915290611e3f90602080825260169082015275747265617375727942616c616e63654365696c696e6760501b604082015260600190565b60405180910390a150565b61135f8282600080611648565b6040516339ade16560e11b81526007600482015260009073C45f6918F7Bcac7aBc8fe05302b3cDF39776cdeb9063735bc2ca906024016115f3565b611e9a61449e565b60405163a176adaf60e01b8152600760048201526024810182905273C45f6918F7Bcac7aBc8fe05302b3cDF39776cdeb9063a176adaf9060440160006040518083038186803b158015611eec57600080fd5b505af4158015611f00573d6000803e3d6000fd5b505050506000805160206155db833981519152604051611e3f906020808252601490820152736e756d4163746976655472616e73636f6465727360601b604082015260600190565b6001600160a01b0380821660008181526003602052604081206002810154919390929116148015611f795750805415155b9392505050565b6109e386338787878787612d86565b611f97614582565b600654600555600c54600d5414611ffd57600d54600c556040516000805160206155db83398151915290611ff49060208082526015908201527474726561737572795265776172644375745261746560581b604082015260600190565b60405180910390a15b61200561467d565b6001600160a01b031663ef105c9160055461201e61360d565b6001600160a01b0316638a19c8bc6040518163ffffffff1660e01b815260040160206040518083038186803b15801561205657600080fd5b505afa15801561206a573d6000803e3d6000fd5b505050506040513d601f19601f8201168201806040525081019061208e91906154a3565b6040516001600160e01b031960e085901b16815260048101929092526024820152604401600060405180830381600087803b1580156120cc57600080fd5b505af11580156120e0573d6000803e3d6000fd5b50505050565b6120ee6133d9565b6120f661349d565b3361210081613561565b600261210b33610dac565b600281111561211c5761211c6151e8565b14156121625760405162461bcd60e51b815260206004820152601560248201527418d85b1b195c881b5d5cdd08189948189bdb991959605a1b6044820152606401610908565b6120e033858585613712565b6121766133d9565b61217e61349d565b33600061218961360d565b6001600160a01b0316638a19c8bc6040518163ffffffff1660e01b815260040160206040518083038186803b1580156121c157600080fd5b505afa1580156121d5573d6000803e3d6000fd5b505050506040513d601f19601f820116820180604052508101906121f991906154a3565b905061220433610cc9565b61225c5760405162461bcd60e51b815260206004820152602360248201527f63616c6c6572206d75737420626520616e20616374697665207472616e73636f6044820152623232b960e91b6064820152608401610908565b336000908152600460205260409020548114156122da5760405162461bcd60e51b815260206004820152603660248201527f63616c6c65722068617320616c72656164792063616c6c65642072657761726460448201527508199bdc881d1a194818dd5c9c995b9d081c9bdd5b9960521b6064820152608401610908565b336000908152600460209081526040808320848452600381019092529091206001808301546002808501549284019190915582015560048201548381101561233057600081815260038401602052604090205482555b600e54156123f65760006123426146ce565b6001600160a01b03166370a0823161235861471f565b6040516001600160e01b031960e084901b1681526001600160a01b03909116600482015260240160206040518083038186803b15801561239757600080fd5b505afa1580156123ab573d6000803e3d6000fd5b505050506040513d601f19601f820116820180604052508101906123cf91906154a3565b9050600e5481101580156123e557506000600d54115b156123f4576123f46000614770565b505b6000612400613da1565b8354600554604051637dbedad560e01b81529293506000926001600160a01b03851692637dbedad59261243e92600401918252602082015260400190565b602060405180830381600087803b15801561245857600080fd5b505af115801561246c573d6000803e3d6000fd5b505050506040513d601f19601f8201168201806040525081019061249091906154a3565b905060006124a082600c54614407565b9050801561255e5760006124b261471f565b60405163e7a49c2b60e01b81526001600160a01b038083166004830152602482018590529192509085169063e7a49c2b90604401600060405180830381600087803b15801561250057600080fd5b505af1158015612514573d6000803e3d6000fd5b5050604080516001600160a01b0385168152602081018690523393507f40e200718fe552021167687e5491d09f5931275b6f88f14a462650f0effb523792500160405180910390a2505b600061256a8383613a1a565b905061257933828a8e8e614834565b87875560405181815233907f619caafabdd75649b302ba8419e48cccf64f37f1983ac4727cfb38b57703ffc99060200160405180910390a2505050506001600160a01b038516600090815260036020908152604080832060049092529091206125ea95508694509092509050613df2565b505050565b604051632ebb2fed60e01b81526007600482015260009073C45f6918F7Bcac7aBc8fe05302b3cDF39776cdeb90632ebb2fed9060240160206040518083038186803b15801561263d57600080fd5b505af4158015612651573d6000803e3d6000fd5b505050506040513d601f19601f820116820180604052508101906116439190615509565b600061268082611f48565b1561268d57506001919050565b506000919050565b61269d6148f6565b600080546001600160a01b0319166001600160a01b0383169081179091556040519081527f4ff638452bbf33c012645d18ae6f05515ff5f2d1dfb0cece8cbf018c60903f7090602001611e3f565b6126f36133d9565b6126fb61349d565b3361270581613561565b33600161271133610dac565b6002811115612722576127226151e8565b146127675760405162461bcd60e51b815260206004820152601560248201527418d85b1b195c881b5d5cdd08189948189bdb991959605a1b6044820152606401610908565b336000908152600360205260409020856127cf5760405162461bcd60e51b8152602060048201526024808201527f756e626f6e6420616d6f756e74206d75737420626520677265617465722074686044820152630616e20360e41b6064820152608401610908565b805486111561282c5760405162461bcd60e51b8152602060048201526024808201527f616d6f756e742069732067726561746572207468616e20626f6e64656420616d6044820152631bdd5b9d60e21b6064820152608401610908565b60028101546001600160a01b0316600061284461360d565b6001600160a01b0316638a19c8bc6040518163ffffffff1660e01b815260040160206040518083038186803b15801561287c57600080fd5b505afa158015612890573d6000803e3d6000fd5b505050506040513d601f19601f820116820180604052508101906128b491906154a3565b6002549091506000906128d290839067ffffffffffffffff16613706565b60068501546040805180820182528c81526020808201858152600085815260078b0190925292902090518155905160019182015591925090612915908290613706565b60068601558454612926908b613a1a565b8086556129e3576002850180546001600160a01b0319169055600060048087019190915560405163b0138c4760e01b815260079181019190915233602482015273C45f6918F7Bcac7aBc8fe05302b3cDF39776cdeb9063b0138c479060440160206040518083038186803b15801561299d57600080fd5b505af41580156129b1573d6000803e3d6000fd5b505050506040513d601f19601f820116820180604052508101906129d591906154e7565b156129e3576129e333613c70565b6129ef848b8b8b614950565b6001600160a01b0384163314612a2d576001600160a01b03841660009081526003602090815260408083206004909252909120612a2d918691613df2565b60408051828152602081018c905290810183905233906001600160a01b038616907f2d5d98d189bee5496a08db2a5948cb7e5e786f09d17d0c3f228eb41776c24a069060600160405180910390a35050506001600160a01b03831660009081526003602090815260408083206004909252909120612aae9350849250613df2565b5050505050565b600080612ac061360d565b6001600160a01b0316638a19c8bc6040518163ffffffff1660e01b815260040160206040518083038186803b158015612af857600080fd5b505afa158015612b0c573d6000803e3d6000fd5b505050506040513d601f19601f82011682018060405250810190612b3091906154a3565b90506000612b3e8583614b8d565b5095945050505050565b6001600160a01b03166000908152600360208190526040909120015490565b612b6f6133d9565b612b7761349d565b33612b8181613561565b336001600160a01b038416612bcc5760405162461bcd60e51b81526020600482015260116024820152701a5b9d985b1a59081c9958da5c1a595b9d607a1b6044820152606401610908565b3360009081526003602052604090206001015483811015612c2f5760405162461bcd60e51b815260206004820152601d60248201527f696e73756666696369656e74206665657320746f2077697468647261770000006044820152606401610908565b612c398185613a1a565b33600090815260036020526040902060010155612c54613da1565b6040516320283da960e01b81526001600160a01b0387811660048301526024820187905291909116906320283da990604401600060405180830381600087803b158015612ca057600080fd5b505af1158015612cb4573d6000803e3d6000fd5b5050604080516001600160a01b0389168152602081018890523393507f4f1b51dd7a2fcb861aa2670f668be66835c4ee12b4bbbf037e4d0018f39819e492500160405180910390a2506001600160a01b038116600090815260036020908152604080832060049092529091206120e0918391613df2565b61135f8282600080600080611f80565b612d4361449e565b6115b981614770565b6001600160a01b038116600090815260036020908152604080832060049092529091206115b9918391613df2565b6115b9816000806120e6565b612d8e6133d9565b612d9661349d565b612d9f8661389f565b612da886613561565b6001600160a01b038616600090815260036020526040812090612dc961360d565b6001600160a01b0316638a19c8bc6040518163ffffffff1660e01b815260040160206040518083038186803b158015612e0157600080fd5b505afa158015612e15573d6000803e3d6000fd5b505050506040513d601f19601f82011682018060405250810190612e3991906154a3565b600283015483549192508a916001600160a01b03918216918b163314801590612e7b5750612e65614c52565b6001600160a01b0316336001600160a01b031614155b15612f83576001600160a01b038b16612ea65760405162461bcd60e51b8152600401610908906154bc565b6002612eb18c610dac565b6002811115612ec257612ec26151e8565b1415612f22578a6001600160a01b03168a6001600160a01b03161415612f1d5760405162461bcd60e51b815260206004820152601060248201526f494e56414c49445f44454c454741544560801b6044820152606401610908565b612f83565b896001600160a01b0316826001600160a01b031614612f835760405162461bcd60e51b815260206004820152601760248201527f494e56414c49445f44454c45474154455f4348414e47450000000000000000006044820152606401610908565b6002612f8e8c610dac565b6002811115612f9f57612f9f6151e8565b1415612fba57612fb0846001613706565b60048601556130b3565b600081118015612fdc5750896001600160a01b0316826001600160a01b031614155b156130b357612fea8b611f48565b1561305d5760405162461bcd60e51b815260206004820152603d60248201527f72656769737465726564207472616e73636f646572732063616e27742064656c60448201527f656761746520746f7761726473206f74686572206164647265737365730000006064820152608401610908565b613068846001613706565b60048601556130778382613706565b925061308582828b8b614950565b6001600160a01b038216600090815260036020908152604080832060049092529091206130b3918491613df2565b6130bd8a85613686565b6000831161311e5760405162461bcd60e51b815260206004820152602860248201527f64656c65676174696f6e20616d6f756e74206d75737420626520677265617465604482015267072207468616e20360c41b6064820152608401610908565b6002850180546001600160a01b0319166001600160a01b038c16179055613145818d613706565b85556131538a848989614ca3565b8a6001600160a01b03168a6001600160a01b03161461319a576001600160a01b038a166000908152600360209081526040808320600490925290912061319a918c91613df2565b8b15613248576131a86146ce565b6001600160a01b03166323b872dd336131bf613da1565b6040516001600160e01b031960e085901b1681526001600160a01b03928316600482015291166024820152604481018f9052606401602060405180830381600087803b15801561320e57600080fd5b505af1158015613222573d6000803e3d6000fd5b505050506040513d601f19601f8201168201806040525081019061324691906154e7565b505b8a6001600160a01b0316826001600160a01b03168b6001600160a01b03167fe5917769f276ddca9f2ee7c6b0b33e1d1e1b61008010ce622c632dd20d168a238f89600001546040516132a4929190918252602082015260400190565b60405180910390a46001600160a01b038b1660009081526004602052604090206132d1908c908790613df2565b505050505050505050505050565b6132e761449e565b6002805467ffffffffffffffff831667ffffffffffffffff199091161790556040516000805160206155db83398151915290611e3f906020808252600f908201526e1d5b989bdb991a5b99d4195c9a5bd9608a1b604082015260600190565b60008061335161360d565b6001600160a01b0316638a19c8bc6040518163ffffffff1660e01b815260040160206040518083038186803b15801561338957600080fd5b505afa15801561339d573d6000803e3d6000fd5b505050506040513d601f19601f820116820180604052508101906133c191906154a3565b905060006133cf8583614b8d565b9695505050505050565b60008054906101000a90046001600160a01b03166001600160a01b0316635c975abb6040518163ffffffff1660e01b815260040160206040518083038186803b15801561342557600080fd5b505afa158015613439573d6000803e3d6000fd5b505050506040513d601f19601f8201168201806040525081019061345d91906154e7565b15610e735760405162461bcd60e51b815260206004820152601060248201526f1cde5cdd195b481a5cc81c185d5cd95960821b6044820152606401610908565b6134a561360d565b6001600160a01b031663219bc76c6040518163ffffffff1660e01b815260040160206040518083038186803b1580156134dd57600080fd5b505afa1580156134f1573d6000803e3d6000fd5b505050506040513d601f19601f8201168201806040525081019061351591906154e7565b610e735760405162461bcd60e51b815260206004820181905260248201527f63757272656e7420726f756e64206973206e6f7420696e697469616c697a65646044820152606401610908565b600061356b61360d565b6001600160a01b0316638a19c8bc6040518163ffffffff1660e01b815260040160206040518083038186803b1580156135a357600080fd5b505afa1580156135b7573d6000803e3d6000fd5b505050506040513d601f19601f820116820180604052508101906135db91906154a3565b6001600160a01b038316600090815260036020526040902060050154909150818110156125ea576125ea838383613a26565b60008054604051631c2d8fb360e31b81527fe8438ea868df48e3fc21f2f087b993c9b1837dc0f6135064161ce7d7a1701fe860048201526001600160a01b039091169063e16c7d98906024015b60206040518083038186803b15801561367257600080fd5b505afa158015612651573d6000803e3d6000fd5b6001600160a01b038216600090815260046020908152604080832084845260038082019093529220908101546136d6578154838110156136d4576136ca8382614ed3565b6060015160038301555b505b60048101546120e057600a82015483811015612aae576136f68382614ed3565b6080015160048301555050505050565b6000611f79828461553c565b6001600160a01b0384166000908152600360209081526040808320868452600781019092529091208591906137478387610d7b565b61378f5760405162461bcd60e51b81526020600482015260196024820152781a5b9d985b1a59081d5b989bdb991a5b99c81b1bd8dac81251603a1b6044820152606401610908565b8054825461379d9082613706565b8355600087815260078401602052604081208181556001015560028301546001600160a01b03166137d081838989614ca3565b886001600160a01b0316816001600160a01b031614613817576001600160a01b03811660009081526003602090815260408083206004909252909120613817918391613df2565b886001600160a01b0316816001600160a01b03167f9f5b64cc71e1e26ff178caaa7877a04d8ce66fde989251870e80e6fbee690c178a85604051613865929190918252602082015260400190565b60405180910390a3505050506001600160a01b03811660009081526003602090815260408083206004909252909120612aae918391613df2565b336001600160a01b03821614806138ce57506138b9614c52565b6001600160a01b0316336001600160a01b0316145b806138f2575060026138df82610dac565b60028111156138f0576138f06151e8565b145b156138fa5750565b6001600160a01b038082166000908152600360205260409020600281015490911661392481610cc9565b61392d57505050565b600061393761360d565b6001600160a01b0316638a19c8bc6040518163ffffffff1660e01b815260040160206040518083038186803b15801561396f57600080fd5b505afa158015613983573d6000803e3d6000fd5b505050506040513d601f19601f820116820180604052508101906139a791906154a3565b6001600160a01b03831660009081526004602052604090208054919250908214806139d55750818460050154145b612aae5760405162461bcd60e51b8152602060048201526016602482015275494c4c4547414c5f434c41494d5f4541524e494e475360501b6044820152606401610908565b6000611f798284615554565b6001600160a01b038316600090815260036020526040812090613a4a836001613706565b82546001840154600285015492935090916001600160a01b031615613ace57613a738787614b8d565b600286015491935091506001600160a01b0316613a908188613686565b60028501546001600160a01b0389811691161415613acc576001600160a01b038116600090815260046020526040812060098101829055600801555b505b600284015484546001600160a01b03808a169216907fd7eab0765b772ea6ea859d5633baf737502198012e930f257f90013d9b21109490613b10908690613a1a565b6001880154613b20908690613a1a565b6040805192835260208301919091528101879052606081018a905260800160405180910390a36005840195909555825550600101919091555050565b600054604051631c2d8fb360e31b81527f121833d5ee4fda5e1a4034c2b7be8155c158142541dea26f39122c796649233f60048201526001600160a01b039091169063e16c7d989060240160206040518083038186803b158015613bbf57600080fd5b505afa158015613bd3573d6000803e3d6000fd5b505050506040513d601f19601f82011682018060405250810190613bf79190615509565b6001600160a01b0316336001600160a01b031614610e735760405162461bcd60e51b815260206004820152601760248201527f63616c6c6572206d7573742062652056657269666965720000000000000000006044820152606401610908565b6000611f79620f4240613c6a8585614f36565b90614f42565b604051635d35e00760e01b8152600760048201526001600160a01b038216602482015273C45f6918F7Bcac7aBc8fe05302b3cDF39776cdeb90635d35e0079060440160006040518083038186803b158015613cca57600080fd5b505af4158015613cde573d6000803e3d6000fd5b50505050613cf7613cee82612b48565b60065490613a1a565b6006556000613d416001613d0961360d565b6001600160a01b0316638a19c8bc6040518163ffffffff1660e01b815260040160206040518083038186803b158015611cd157600080fd5b6001600160a01b0383166000818152600460205260409081902060060183905551919250907ffee3e693fc72d0a0a673805f3e606c551f4c677b9072444b90dd2d0406bc995c90613d959084815260200190565b60405180910390a25050565b60008054604051631c2d8fb360e31b81527f6e58ad548d72b425ea94c15f453bf26caddb061d82b2551db7fdd3cefe0e994060048201526001600160a01b039091169063e16c7d989060240161365a565b6000613dfc61360d565b6001600160a01b0316638a19c8bc6040518163ffffffff1660e01b815260040160206040518083038186803b158015613e3457600080fd5b505afa158015613e48573d6000803e3d6000fd5b505050506040513d601f19601f82011682018060405250810190613e6c91906154a3565b613e7790600161553c565b9050613e8161467d565b8354600285015460038601546005870154865460405163e35c3e4360e01b81526001600160a01b038b811660048301526024820189905260448201969096529385166064850152608484019290925260a483015260c482015291169063e35c3e439060e401600060405180830381600087803b158015613f0057600080fd5b505af1158015613f14573d6000803e3d6000fd5b5050505050505050565b6006546040516304aa129960e41b81526007600482015273C45f6918F7Bcac7aBc8fe05302b3cDF39776cdeb90634aa129909060240160206040518083038186803b158015613f6c57600080fd5b505af4158015613f80573d6000803e3d6000fd5b505050506040513d601f19601f82011682018060405250810190613fa491906154e7565b1561412f57604051633972059360e11b81526007600482015260009073C45f6918F7Bcac7aBc8fe05302b3cDF39776cdeb906372e40b269060240160206040518083038186803b158015613ff757600080fd5b505af415801561400b573d6000803e3d6000fd5b505050506040513d601f19601f8201168201806040525081019061402f9190615509565b9050600061403c82612b48565b905080871161404d57505050612aae565b604051635d35e00760e01b8152600760048201526001600160a01b038316602482015273C45f6918F7Bcac7aBc8fe05302b3cDF39776cdeb90635d35e0079060440160006040518083038186803b1580156140a757600080fd5b505af41580156140bb573d6000803e3d6000fd5b5050506001600160a01b0383166000908152600460205260409020600601879055506140e78382613a1a565b9250816001600160a01b03167ffee3e693fc72d0a0a673805f3e606c551f4c677b9072444b90dd2d0406bc995c8760405161412491815260200190565b60405180910390a250505b6040516327dd54d360e11b815273C45f6918F7Bcac7aBc8fe05302b3cDF39776cdeb90634fbaa9a69061416f906007908a908a908990899060040161556b565b60006040518083038186803b15801561418757600080fd5b505af415801561419b573d6000803e3d6000fd5b505050506141b2858261370690919063ffffffff16565b6001600160a01b03871660009081526004602081815260408084209283018990556005830189905560001960068401558884526003830190915290912087905590915060068290556040518581526001600160a01b038816907f65d72d782835d64c3287844a829608d5abdc7e864cc9affe96d910ab3db665e99060200160405180910390a250505050505050565b600054604051631c2d8fb360e31b81527fbd1aa3e8d2464256d7fd3dcf645c16418d5d8c51d971f1ad7d57e7b1b5eee23960048201526001600160a01b039091169063e16c7d989060240160206040518083038186803b1580156142a457600080fd5b505afa1580156142b8573d6000803e3d6000fd5b505050506040513d601f19601f820116820180604052508101906142dc9190615509565b6001600160a01b0316336001600160a01b031614610e735760405162461bcd60e51b815260206004820152601b60248201527f63616c6c6572206d757374206265205469636b657442726f6b657200000000006044820152606401610908565b61436e6040518060a0016040528060008152602001600081526020016000815260200160008152602001600081525090565b6143788383614ed3565b835460608201519192509015801561438f57508281105b156143a95761439e8482614ed3565b606090810151908301525b600a84015460808301511580156143bf57508381105b156143d9576143ce8582614ed3565b608090810151908401525b505092915050565b6000610d736b033b2e3c9fd0803ce8000000613c6a6144008686614f4e565b8790614f36565b6000611f796b033b2e3c9fd0803ce8000000613c6a8585614f36565b608082015160608301516000906144445761443f600180614f4e565b61444a565b83606001515b90508460040154600014156144815761447261446b828588600001546143e1565b8390613706565b85600401819055505050505050565b614472614493828588600001546143e1565b600487015490613706565b60008054906101000a90046001600160a01b03166001600160a01b0316638da5cb5b6040518163ffffffff1660e01b815260040160206040518083038186803b1580156144ea57600080fd5b505afa1580156144fe573d6000803e3d6000fd5b505050506040513d601f19601f820116820180604052508101906145229190615509565b6001600160a01b0316336001600160a01b031614610e735760405162461bcd60e51b815260206004820152601f60248201527f63616c6c6572206d75737420626520436f6e74726f6c6c6572206f776e6572006044820152606401610908565b600054604051631c2d8fb360e31b81527fe8438ea868df48e3fc21f2f087b993c9b1837dc0f6135064161ce7d7a1701fe860048201526001600160a01b039091169063e16c7d989060240160206040518083038186803b1580156145e557600080fd5b505afa1580156145f9573d6000803e3d6000fd5b505050506040513d601f19601f8201168201806040525081019061461d9190615509565b6001600160a01b0316336001600160a01b031614610e735760405162461bcd60e51b815260206004820152601c60248201527f63616c6c6572206d75737420626520526f756e64734d616e61676572000000006044820152606401610908565b60008054604051631c2d8fb360e31b81527f2a1b465fbcae519904f0fb11f93e73dfbeb47ec54530ec444279610af8cf06b260048201526001600160a01b039091169063e16c7d989060240161365a565b60008054604051631c2d8fb360e31b81527f3443e257065fe41dd0e4d1f5a1b73a22a62e300962b57f30cddf41d0f8273ba760048201526001600160a01b039091169063e16c7d989060240161365a565b60008054604051631c2d8fb360e31b81527f6efca2866b731ee4984990bacad4cde10f1ef764fb54a5206bdfd291695b1a9b60048201526001600160a01b039091169063e16c7d989060240161365a565b614786816b033b2e3c9fd0803ce8000000101590565b6147e15760405162461bcd60e51b815260206004820152602660248201527f5f6375745261746520697320696e76616c696420707265636973652070657263604482015265656e7461676560d01b6064820152608401610908565b600d8190556040516000805160206155db83398151915290611e3f906020808252601e908201527f6e657874526f756e645472656173757279526577617264437574526174650000604082015260600190565b6001600160a01b038516600090815260046020908152604080832086845260038101909252822081549192909161486c908490614ed3565b905082600801548360070181905550600061488b888460010154613c57565b905060006148998983613a1a565b905060006148b082876007015487600001546143e1565b90506148cd83611d0983896008015461370690919063ffffffff16565b60088701556148dd858584614f6a565b6148e98b8b8a8a614ca3565b5050505050505050505050565b6000546001600160a01b03163314610e735760405162461bcd60e51b815260206004820152601960248201527f63616c6c6572206d75737420626520436f6e74726f6c6c6572000000000000006044820152606401610908565b6001600160a01b03841660009081526004602052604081209061497286612b48565b905060006149808287613a1a565b60405163b0138c4760e01b8152600760048201526001600160a01b038916602482015290915073C45f6918F7Bcac7aBc8fe05302b3cDF39776cdeb9063b0138c479060440160206040518083038186803b1580156149dd57600080fd5b505af41580156149f1573d6000803e3d6000fd5b505050506040513d601f19601f82011682018060405250810190614a1591906154e7565b15614b65576000614a2461360d565b6001600160a01b0316638a19c8bc6040518163ffffffff1660e01b815260040160206040518083038186803b158015614a5c57600080fd5b505afa158015614a70573d6000803e3d6000fd5b505050506040513d601f19601f82011682018060405250810190614a9491906154a3565b90506000614aa3826001613706565b604051631c11bf7f60e11b815290915073C45f6918F7Bcac7aBc8fe05302b3cDF39776cdeb906338237efe90614ae6906007908d9088908d908d9060040161556b565b60006040518083038186803b158015614afe57600080fd5b505af4158015614b12573d6000803e3d6000fd5b5050600654614b249250905089613a1a565b6006556004850154821115614b4757600082815260038601602052604090208490555b60048501819055600081815260038601602052604090208390555b50505b6001600160a01b03909616600090815260036020819052604090912001959095555050505050565b6001600160a01b03808316600090815260036020908152604080832060028101549094168352600490915281206001808401548454600586015490959194919392614bd89190613706565b60028401549091506001600160a01b039081169088168114878311614c1457614c0e84614c06856001613a1a565b8a8a8a614fb8565b90975095505b8015614c46576008840154614c2a908890613706565b9650614c4384600901548761370690919063ffffffff16565b95505b50505050509250929050565b60008054604051631c2d8fb360e31b81527f74b6d21e0d4650f622c903126d418c1a52bcc99ea7acb0db0809fc0eeae6c7c360048201526001600160a01b039091169063e16c7d989060240161365a565b6001600160a01b038416600090815260046020526040812090614cc586612b48565b90506000614cd38287613706565b9050614cde87611f48565b15614b65576000614ced61360d565b6001600160a01b0316638a19c8bc6040518163ffffffff1660e01b815260040160206040518083038186803b158015614d2557600080fd5b505afa158015614d39573d6000803e3d6000fd5b505050506040513d601f19601f82011682018060405250810190614d5d91906154a3565b90506000614d6c826001613706565b60405163b0138c4760e01b8152600760048201526001600160a01b038b16602482015290915073C45f6918F7Bcac7aBc8fe05302b3cDF39776cdeb9063b0138c479060440160206040518083038186803b158015614dc957600080fd5b505af4158015614ddd573d6000803e3d6000fd5b505050506040513d601f19601f82011682018060405250810190614e0191906154e7565b15614ec657604051631c11bf7f60e11b815273C45f6918F7Bcac7aBc8fe05302b3cDF39776cdeb906338237efe90614e46906007908d9088908d908d9060040161556b565b60006040518083038186803b158015614e5e57600080fd5b505af4158015614e72573d6000803e3d6000fd5b5050600654614e849250905089613706565b6006556004850154821115614ea757600082815260038601602052604090208490555b6000818152600386016020526040902083905560048501819055614b62565b614b628984838a8a613f1e565b614f056040518060a0016040528060008152602001600081526020016000815260200160008152602001600081525090565b6000828152600393840160208181526040832095860154606085015293909152909152600490910154608082015290565b6000611f798284615599565b6000611f7982846155b8565b6000611f7982613c6a856b033b2e3c9fd0803ce8000000614f36565b6000826060015160001415614f8957614f84600180614f4e565b614f8f565b82606001515b9050614faa614fa3828487600001546143e1565b8290613706565b846003018190555050505050565b6000806000614fc78888614ed3565b90506000614fd5898861433c565b9050614fe382828888614ff3565b9350935050509550959350505050565b60008061500186868661501a565b915061500f86868686615067565b905094509492505050565b600083606001516000141561503a57615034600180614f4e565b60608501525b60608301516150545761504e600180614f4e565b60608401525b610d7382846060015186606001516143e1565b600084606001516000141561508757615081600180614f4e565b60608601525b60006150b2846150a888608001518860800151613a1a90919063ffffffff16565b88606001516143e1565b90506133cf8382613706565b6001600160a01b03811681146115b957600080fd5b600080600080608085870312156150e957600080fd5b84356150f4816150be565b935060208501359250604085013561510b816150be565b9150606085013561511b816150be565b939692955090935050565b60008060008060008060c0878903121561513f57600080fd5b863561514a816150be565b9550602087013594506040870135615161816150be565b93506060870135615171816150be565b92506080870135615181816150be565b915060a0870135615191816150be565b809150509295509295509295565b6000602082840312156151b157600080fd5b8135611f79816150be565b600080604083850312156151cf57600080fd5b82356151da816150be565b946020939093013593505050565b634e487b7160e01b600052602160045260246000fd5b6020810160038310615212576152126151e8565b91905290565b6000806000806080858703121561522e57600080fd5b8435615239816150be565b93506020850135615249816150be565b93969395505050506040820135916060013590565b60006020828403121561527057600080fd5b5035919050565b6000806000806080858703121561528d57600080fd5b8435935060208501359250604085013561510b816150be565b6000806000606084860312156152bb57600080fd5b83356152c6816150be565b95602085013595506040909401359392505050565b600080604083850312156152ee57600080fd5b50508035926020909101359150565b60008060008060008060c0878903121561531657600080fd5b863595506020870135615328816150be565b94506040870135615161816150be565b60008060006060848603121561534d57600080fd5b83359250602084013561535f816150be565b9150604084013561536f816150be565b809150509250925092565b6000806040838503121561538d57600080fd5b8235615398816150be565b915060208301356153a8816150be565b809150509250929050565b6020810160028310615212576152126151e8565b600080604083850312156153da57600080fd5b8235915060208301356153a8816150be565b600080600080600080600060e0888a03121561540757600080fd5b873596506020880135615419816150be565b95506040880135615429816150be565b94506060880135615439816150be565b93506080880135615449816150be565b925060a0880135615459816150be565b915060c0880135615469816150be565b8091505092959891949750929550565b60006020828403121561548b57600080fd5b813567ffffffffffffffff81168114611f7957600080fd5b6000602082840312156154b557600080fd5b5051919050565b60208082526011908201527024a72b20a624a22fa222a622a3a0aa27a960791b604082015260600190565b6000602082840312156154f957600080fd5b81518015158114611f7957600080fd5b60006020828403121561551b57600080fd5b8151611f79816150be565b634e487b7160e01b600052601160045260246000fd5b6000821982111561554f5761554f615526565b500190565b60008282101561556657615566615526565b500390565b9485526001600160a01b03938416602086015260408501929092528216606084015216608082015260a00190565b60008160001904831182151516156155b3576155b3615526565b500290565b6000826155d557634e487b7160e01b600052601260045260246000fd5b50049056fe9f5033568d78ae30f29f01e944f97b2216493bd19d1b46d429673acff3dcd674a2646970667358221220426d90506f0ea5cbd0ac055f98f03a1852bb28a2a88c2a2266d33ace98fd554364736f6c63430008090033",
  "deployedBytecode": "0x608060405234801561001057600080fd5b50600436106102f15760003560e01c80635dce99481161019d5780639d0b2c7a116100e9578063cf33a0d5116100a2578063ee4e804a1161007c578063ee4e804a1461083d578063f10d1de114610850578063f595f1cc14610863578063f77c47911461087657600080fd5b8063cf33a0d514610804578063d52bd62b14610817578063eaffb3f91461082a57600080fd5b80639d0b2c7a146107115780639ef9df9414610724578063a576623114610737578063a64ad59514610740578063ad3b1b47146107de578063b78d27dc146107f157600080fd5b80637fc4606f1161015657806388a6c7491161013057806388a6c749146106c35780638b2f1652146106cb57806392eefe9b146106eb5780639500ed9b146106fe57600080fd5b80637fc4606f1461069457806381871056146106a757806384a16bbc146106ba57600080fd5b80635dce994814610574578063673a456b1461062657806368ba170c146106395780636bd9add41461064c5780636cf6d6751461065f578063713f22161461068c57600080fd5b80632a4e0d551161025c5780634196ee751161021557806351720b41116101ef57806351720b4114610552578063558f8f441461055b5780635a2a75a9146105645780635c50c3561461056c57600080fd5b80634196ee751461052d57806343d3461a14610536578063465501d31461054957600080fd5b80632a4e0d55146104745780633550aa101461048a5780633a080e931461049d5780633aeb512c146104b057806340e6f271146104c3578063412f83b6146104d657600080fd5b806322bf9d7c116102ae57806322bf9d7c14610381578063235c96031461039457806324454fc4146103bf57806324b1babf1461043b57806325d5971f1461044e57806327de9e321461046157600080fd5b80630584a373146102f6578063062e98b81461030b578063088023741461031e5780630fd02fc1146103465780631544fc6714610359578063228cb73314610379575b600080fd5b6103096103043660046150d3565b610889565b005b610309610319366004615126565b6109eb565b61033161032c36600461519f565b610cc9565b60405190151581526020015b60405180910390f35b6103316103543660046151bc565b610d7b565b61036c61036736600461519f565b610dac565b60405161033d91906151fe565b610309610e68565b61030961038f366004615218565b610e75565b6103a76103a236600461519f565b61127c565b6040516001600160a01b03909116815260200161033d565b6104136103cd3660046151bc565b6001600160a01b03909116600090815260046020818152604080842094845260039485019091529091208054600182015460028301549483015492909301549094929392565b604080519586526020860194909452928401919091526060830152608082015260a00161033d565b61030961044936600461525e565b611317565b61030961045c36600461525e565b611363565b61030961046f36600461525e565b6115ad565b61047c6115bc565b60405190815260200161033d565b610309610498366004615277565b611648565b6103096104ab3660046151bc565b611a7c565b6103096104be3660046152a6565b611a89565b6103096104d136600461525e565b611deb565b6105186104e43660046151bc565b6001600160a01b03919091166000908152600360209081526040808320938352600790930190522080546001909101549091565b6040805192835260208301919091520161033d565b61047c60055481565b6103096105443660046152db565b611e4a565b61047c60065481565b61047c60015481565b61047c600c5481565b61047c611e57565b60055461047c565b6105dc61058236600461519f565b6001600160a01b031660009081526004602081905260409091208054600182015460028301549383015460058401546006850154600786015460088701546009880154600a90980154969995989794969395929491939092565b604080519a8b5260208b0199909952978901969096526060880194909452608087019290925260a086015260c085015260e08401526101008301526101208201526101400161033d565b61030961063436600461525e565b611e92565b61033161064736600461519f565b611f48565b61030961065a3660046152fd565b611f80565b6002546106739067ffffffffffffffff1681565b60405167ffffffffffffffff909116815260200161033d565b610309611f8f565b6103096106a2366004615338565b6120e6565b6103096106b536600461537a565b61216e565b61047c600e5481565b6103a76125ef565b6106de6106d936600461519f565b612675565b60405161033d91906153b3565b6103096106f936600461519f565b612695565b61030961070c366004615338565b6126eb565b61047c61071f3660046151bc565b612ab5565b61047c61073236600461519f565b612b48565b61047c600d5481565b61079b61074e36600461519f565b6001600160a01b0390811660009081526003602081905260409091208054600182015460028301549383015460048401546005850154600690950154939792969590951694909390929091565b6040805197885260208801969096526001600160a01b03909416948601949094526060850191909152608084015260a083019190915260c082015260e00161033d565b6103096107ec3660046151bc565b612b67565b6103096107ff3660046153c7565b612d2b565b61030961081236600461525e565b612d3b565b61030961082536600461519f565b612d4c565b61030961083836600461525e565b612d7a565b61030961084b3660046153ec565b612d86565b61030961085e366004615479565b6132df565b61047c6108713660046151bc565b613346565b6000546103a7906001600160a01b031681565b6108916133d9565b61089961349d565b336108a381613561565b60026108ae33610dac565b60028111156108bf576108bf6151e8565b146109115760405162461bcd60e51b815260206004820152601760248201527f63616c6c6572206d75737420626520756e626f6e64656400000000000000000060448201526064015b60405180910390fd5b600061091b61360d565b6001600160a01b0316638a19c8bc6040518163ffffffff1660e01b815260040160206040518083038186803b15801561095357600080fd5b505afa158015610967573d6000803e3d6000fd5b505050506040513d601f19601f8201168201806040525081019061098b91906154a3565b90506109978682613686565b6109a2816001613706565b3360008181526003602052604090206004810192909255600290910180546001600160a01b0319166001600160a01b0389161790556109e390868686613712565b505050505050565b6109f36133d9565b6109fb61349d565b610a048661389f565b610a0d33613561565b336000908152600360205260408082206001600160a01b038981168452919092206002830154909116610a418888886126eb565b6006830154600090610a54906001613a1a565b905060008460070160008381526020019081526020016000206001015490508460070160008381526020019081526020016000206000808201600090556001820160009055505060008460060154905060405180604001604052808c8152602001838152508560070160008381526020019081526020016000206000820151816000015560208201518160010155905050610afd6001866006015461370690919063ffffffff16565b600686015560408051848152602081018390529081018c90526001600160a01b038d169033907ff136b986590e86cf1abd7b6600186a7a1178ad3cbbdf0f3312e79f6214a2a5679060600160405180910390a36000610b5a61360d565b6001600160a01b0316638a19c8bc6040518163ffffffff1660e01b815260040160206040518083038186803b158015610b9257600080fd5b505afa158015610ba6573d6000803e3d6000fd5b505050506040513d601f19601f82011682018060405250810190610bca91906154a3565b600587015490915081811015610be557610be58e8383613a26565b60028701546001600160a01b0316158015610bff57508654155b15610c7a578d6001600160a01b0316866001600160a01b03161415610c365760405162461bcd60e51b8152600401610908906154bc565b6001600160a01b038e16610c5c5760405162461bcd60e51b8152600401610908906154bc565b6002870180546001600160a01b0319166001600160a01b0388161790555b6002610c858f610dac565b6002811115610c9657610c966151e8565b1415610cad57610ca7826001613706565b60048801555b610cb98e848c8c613712565b5050505050505050505050505050565b6001600160a01b038116600090815260046020526040812081610cea61360d565b6001600160a01b0316638a19c8bc6040518163ffffffff1660e01b815260040160206040518083038186803b158015610d2257600080fd5b505afa158015610d36573d6000803e3d6000fd5b505050506040513d601f19601f82011682018060405250810190610d5a91906154a3565b905080826005015411158015610d735750816006015481105b949350505050565b6001600160a01b03919091166000908152600360209081526040808320938352600790930190522060010154151590565b6001600160a01b03811660009081526003602052604081208054610dd35750600292915050565b610ddb61360d565b6001600160a01b0316638a19c8bc6040518163ffffffff1660e01b815260040160206040518083038186803b158015610e1357600080fd5b505afa158015610e27573d6000803e3d6000fd5b505050506040513d601f19601f82011682018060405250810190610e4b91906154a3565b81600401541115610e5f5750600092915050565b50600192915050565b610e7360008061216e565b565b610e7d6133d9565b610e85613b5c565b83610e8f81613561565b6001600160a01b03851660009081526003602052604090208054869190156111fe576001600160a01b038716600090815260036020526040812054610ed49087613c57565b60405163b0138c4760e01b8152600760048201526001600160a01b038a16602482015290915073__$d23c89be677d40ab24c636937040b6165f$__9063b0138c479060440160206040518083038186803b158015610f3157600080fd5b505af4158015610f45573d6000803e3d6000fd5b505050506040513d601f19601f82011682018060405250810190610f6991906154e7565b15610f7757610f7788613c70565b8154610f839082613a1a565b82556001610f9089610dac565b6002811115610fa157610fa16151e8565b1415610ff45760028201546001600160a01b031660009081526003602081905260409091200154610fd29082613a1a565b60028301546001600160a01b0316600090815260036020819052604090912001555b806001600160a01b038816156111435760006110108388613c57565b905061101a613da1565b60405163e7a49c2b60e01b81526001600160a01b038b8116600483015260248201849052919091169063e7a49c2b90604401600060405180830381600087803b15801561106657600080fd5b505af115801561107a573d6000803e3d6000fd5b50505050611086613da1565b6001600160a01b031663c7ee98c261109e8484613a1a565b6040518263ffffffff1660e01b81526004016110bc91815260200190565b600060405180830381600087803b1580156110d657600080fd5b505af11580156110ea573d6000803e3d6000fd5b5050604080516001600160a01b038d8116825260208201889052918101859052908d1692507ff4b71fed8e2c9a8c67c388bc6d35ad20b9368a24eed6d565459f2b277b6c0c22915060600160405180910390a2506111f7565b61114b613da1565b6001600160a01b031663c7ee98c2826040518263ffffffff1660e01b815260040161117891815260200190565b600060405180830381600087803b15801561119257600080fd5b505af11580156111a6573d6000803e3d6000fd5b5050604080516000808252602082018790528183015290516001600160a01b038d1693507ff4b71fed8e2c9a8c67c388bc6d35ad20b9368a24eed6d565459f2b277b6c0c2292509081900360600190a25b505061124d565b604080516001600160a01b038881168252600060208301819052828401529151918916917ff4b71fed8e2c9a8c67c388bc6d35ad20b9368a24eed6d565459f2b277b6c0c229181900360600190a25b506001600160a01b038116600090815260036020908152604080832060049092529091206109e3918391613df2565b60405163e189dedb60e01b8152600760048201526001600160a01b038216602482015260009073__$d23c89be677d40ab24c636937040b6165f$__9063e189dedb9060440160206040518083038186803b1580156112d957600080fd5b505af41580156112ed573d6000803e3d6000fd5b505050506040513d601f19601f820116820180604052508101906113119190615509565b92915050565b61131f6133d9565b61132761349d565b3361133133613561565b6001600160a01b0381166000908152600360209081526040808320600490925290912061135f918391613df2565b5050565b61136b6133d9565b61137361349d565b33600081815260036020908152604080832085845260078101909252909120909161139e9084610d7b565b6113e65760405162461bcd60e51b81526020600482015260196024820152781a5b9d985b1a59081d5b989bdb991a5b99c81b1bd8dac81251603a1b6044820152606401610908565b6113ee61360d565b6001600160a01b0316638a19c8bc6040518163ffffffff1660e01b815260040160206040518083038186803b15801561142657600080fd5b505afa15801561143a573d6000803e3d6000fd5b505050506040513d601f19601f8201168201806040525081019061145e91906154a3565b816001015411156114d75760405162461bcd60e51b815260206004820152603b60248201527f776974686472617720726f756e64206d757374206265206265666f7265206f7260448201527f20657175616c20746f207468652063757272656e7420726f756e6400000000006064820152608401610908565b80546001808301546000868152600786016020526040812081815590920191909155611501613da1565b60405163e7a49c2b60e01b8152336004820152602481018490526001600160a01b03919091169063e7a49c2b90604401600060405180830381600087803b15801561154b57600080fd5b505af115801561155f573d6000803e3d6000fd5b505060408051888152602081018690529081018490523392507f1340f1a8f3d456a649e1a12071dfa15655e3d09252131d0f980c3b405cc8dd2e915060600160405180910390a25050505050565b6115b9816000806126eb565b50565b604051631665d9cb60e31b81526007600482015260009073__$d23c89be677d40ab24c636937040b6165f$__9063b32ece58906024015b60206040518083038186803b15801561160b57600080fd5b505af415801561161f573d6000803e3d6000fd5b505050506040513d601f19601f8201168201806040525081019061164391906154a3565b905090565b6116506133d9565b61165861349d565b61166061360d565b6001600160a01b0316636841f2536040518163ffffffff1660e01b815260040160206040518083038186803b15801561169857600080fd5b505afa1580156116ac573d6000803e3d6000fd5b505050506040513d601f19601f820116820180604052508101906116d091906154e7565b156117435760405162461bcd60e51b815260206004820152603760248201527f63616e277420757064617465207472616e73636f64657220706172616d732c2060448201527f63757272656e7420726f756e64206973206c6f636b65640000000000000000006064820152608401610908565b61175084620f4240101590565b61179c5760405162461bcd60e51b815260206004820152601c60248201527f696e76616c6964207265776172644375742070657263656e74616765000000006044820152606401610908565b6117a983620f4240101590565b6117f55760405162461bcd60e51b815260206004820152601b60248201527f696e76616c69642066656553686172652070657263656e7461676500000000006044820152606401610908565b6117fe33611f48565b61184a5760405162461bcd60e51b815260206004820152601d60248201527f7472616e73636f646572206d75737420626520726567697374657265640000006044820152606401610908565b3360009081526004602052604081209061186261360d565b6001600160a01b0316638a19c8bc6040518163ffffffff1660e01b815260040160206040518083038186803b15801561189a57600080fd5b505afa1580156118ae573d6000803e3d6000fd5b505050506040513d601f19601f820116820180604052508101906118d291906154a3565b90506118dd33610cc9565b15806118e95750815481145b6119735760405162461bcd60e51b815260206004820152604f60248201527f63616c6c65722063616e277420626520616374697665206f72206d757374206860448201527f61766520616c72656164792063616c6c65642072657761726420666f7220746860648201526e194818dd5c9c995b9d081c9bdd5b99608a1b608482015260a401610908565b600182018690556002820185905560405163b0138c4760e01b81526007600482015233602482015273__$d23c89be677d40ab24c636937040b6165f$__9063b0138c479060440160206040518083038186803b1580156119d257600080fd5b505af41580156119e6573d6000803e3d6000fd5b505050506040513d601f19601f82011682018060405250810190611a0a91906154e7565b611a39573360008181526003602081905260409091200154611a399190611a32846001613706565b8787613f1e565b604080518781526020810187905233917f7346854431dbb3eb8e373c604abf89e90f4865b8447e1e2834d7b3e4677bf544910160405180910390a2505050505050565b61135f8282600080610889565b611a916133d9565b611a99614241565b611aa283611f48565b611aee5760405162461bcd60e51b815260206004820152601d60248201527f7472616e73636f646572206d75737420626520726567697374657265640000006044820152606401610908565b6000611af861360d565b6001600160a01b0316638a19c8bc6040518163ffffffff1660e01b815260040160206040518083038186803b158015611b3057600080fd5b505afa158015611b44573d6000803e3d6000fd5b505050506040513d601f19601f82011682018060405250810190611b6891906154a3565b6001600160a01b03851660009081526004602090815260408083208054600782015486865260038301909452918420949550939092611bb185611bac886001613a1a565b61433c565b905083861115611bfb5760018581015460028088015492850191909155830155600485015486811015611bf257600081815260038701602052604090205483555b85600801549350505b81546060820151158015611c0e57508685145b15611d7b576000611c1d613da1565b90506000611d18611d0f836001600160a01b0316632de22cdb6040518163ffffffff1660e01b815260040160206040518083038186803b158015611c6057600080fd5b505afa158015611c74573d6000803e3d6000fd5b505050506040513d601f19601f82011682018060405250810190611c9891906154a3565b846001600160a01b0316639ae6309a6040518163ffffffff1660e01b815260040160206040518083038186803b158015611cd157600080fd5b505afa158015611ce5573d6000803e3d6000fd5b505050506040513d601f19601f82011682018060405250810190611d0991906154a3565b90613706565b846005546143e1565b90506000611d2882600c54614407565b9050611d348282613a1a565b91506000611d46838860010154613c57565b90506000611d548483613a1a565b6003890154909150611d709087611d6b8482613706565b6143e1565b606088015250505050505b6000611d8b8a8560020154613c57565b90506000611d998b83613a1a565b90506000611da88388866143e1565b9050611dc582611d09838c6009015461370690919063ffffffff16565b60098a0155611dd5868685614423565b50505050600a9094019490945550505050505050565b611df361449e565b600e8190556040516000805160206155db83398151915290611e3f90602080825260169082015275747265617375727942616c616e63654365696c696e6760501b604082015260600190565b60405180910390a150565b61135f8282600080611648565b6040516339ade16560e11b81526007600482015260009073__$d23c89be677d40ab24c636937040b6165f$__9063735bc2ca906024016115f3565b611e9a61449e565b60405163a176adaf60e01b8152600760048201526024810182905273__$d23c89be677d40ab24c636937040b6165f$__9063a176adaf9060440160006040518083038186803b158015611eec57600080fd5b505af4158015611f00573d6000803e3d6000fd5b505050506000805160206155db833981519152604051611e3f906020808252601490820152736e756d4163746976655472616e73636f6465727360601b604082015260600190565b6001600160a01b0380821660008181526003602052604081206002810154919390929116148015611f795750805415155b9392505050565b6109e386338787878787612d86565b611f97614582565b600654600555600c54600d5414611ffd57600d54600c556040516000805160206155db83398151915290611ff49060208082526015908201527474726561737572795265776172644375745261746560581b604082015260600190565b60405180910390a15b61200561467d565b6001600160a01b031663ef105c9160055461201e61360d565b6001600160a01b0316638a19c8bc6040518163ffffffff1660e01b815260040160206040518083038186803b15801561205657600080fd5b505afa15801561206a573d6000803e3d6000fd5b505050506040513d601f19601f8201168201806040525081019061208e91906154a3565b6040516001600160e01b031960e085901b16815260048101929092526024820152604401600060405180830381600087803b1580156120cc57600080fd5b505af11580156120e0573d6000803e3d6000fd5b50505050565b6120ee6133d9565b6120f661349d565b3361210081613561565b600261210b33610dac565b600281111561211c5761211c6151e8565b14156121625760405162461bcd60e51b815260206004820152601560248201527418d85b1b195c881b5d5cdd08189948189bdb991959605a1b6044820152606401610908565b6120e033858585613712565b6121766133d9565b61217e61349d565b33600061218961360d565b6001600160a01b0316638a19c8bc6040518163ffffffff1660e01b815260040160206040518083038186803b1580156121c157600080fd5b505afa1580156121d5573d6000803e3d6000fd5b505050506040513d601f19601f820116820180604052508101906121f991906154a3565b905061220433610cc9565b61225c5760405162461bcd60e51b815260206004820152602360248201527f63616c6c6572206d75737420626520616e20616374697665207472616e73636f6044820152623232b960e91b6064820152608401610908565b336000908152600460205260409020548114156122da5760405162461bcd60e51b815260206004820152603660248201527f63616c6c65722068617320616c72656164792063616c6c65642072657761726460448201527508199bdc881d1a194818dd5c9c995b9d081c9bdd5b9960521b6064820152608401610908565b336000908152600460209081526040808320848452600381019092529091206001808301546002808501549284019190915582015560048201548381101561233057600081815260038401602052604090205482555b600e54156123f65760006123426146ce565b6001600160a01b03166370a0823161235861471f565b6040516001600160e01b031960e084901b1681526001600160a01b03909116600482015260240160206040518083038186803b15801561239757600080fd5b505afa1580156123ab573d6000803e3d6000fd5b505050506040513d601f19601f820116820180604052508101906123cf91906154a3565b9050600e5481101580156123e557506000600d54115b156123f4576123f46000614770565b505b6000612400613da1565b8354600554604051637dbedad560e01b81529293506000926001600160a01b03851692637dbedad59261243e92600401918252602082015260400190565b602060405180830381600087803b15801561245857600080fd5b505af115801561246c573d6000803e3d6000fd5b505050506040513d601f19601f8201168201806040525081019061249091906154a3565b905060006124a082600c54614407565b9050801561255e5760006124b261471f565b60405163e7a49c2b60e01b81526001600160a01b038083166004830152602482018590529192509085169063e7a49c2b90604401600060405180830381600087803b15801561250057600080fd5b505af1158015612514573d6000803e3d6000fd5b5050604080516001600160a01b0385168152602081018690523393507f40e200718fe552021167687e5491d09f5931275b6f88f14a462650f0effb523792500160405180910390a2505b600061256a8383613a1a565b905061257933828a8e8e614834565b87875560405181815233907f619caafabdd75649b302ba8419e48cccf64f37f1983ac4727cfb38b57703ffc99060200160405180910390a2505050506001600160a01b038516600090815260036020908152604080832060049092529091206125ea95508694509092509050613df2565b505050565b604051632ebb2fed60e01b81526007600482015260009073__$d23c89be677d40ab24c636937040b6165f$__90632ebb2fed9060240160206040518083038186803b15801561263d57600080fd5b505af4158015612651573d6000803e3d6000fd5b505050506040513d601f19601f820116820180604052508101906116439190615509565b600061268082611f48565b1561268d57506001919050565b506000919050565b61269d6148f6565b600080546001600160a01b0319166001600160a01b0383169081179091556040519081527f4ff638452bbf33c012645d18ae6f05515ff5f2d1dfb0cece8cbf018c60903f7090602001611e3f565b6126f36133d9565b6126fb61349d565b3361270581613561565b33600161271133610dac565b6002811115612722576127226151e8565b146127675760405162461bcd60e51b815260206004820152601560248201527418d85b1b195c881b5d5cdd08189948189bdb991959605a1b6044820152606401610908565b336000908152600360205260409020856127cf5760405162461bcd60e51b8152602060048201526024808201527f756e626f6e6420616d6f756e74206d75737420626520677265617465722074686044820152630616e20360e41b6064820152608401610908565b805486111561282c5760405162461bcd60e51b8152602060048201526024808201527f616d6f756e742069732067726561746572207468616e20626f6e64656420616d6044820152631bdd5b9d60e21b6064820152608401610908565b60028101546001600160a01b0316600061284461360d565b6001600160a01b0316638a19c8bc6040518163ffffffff1660e01b815260040160206040518083038186803b15801561287c57600080fd5b505afa158015612890573d6000803e3d6000fd5b505050506040513d601f19601f820116820180604052508101906128b491906154a3565b6002549091506000906128d290839067ffffffffffffffff16613706565b60068501546040805180820182528c81526020808201858152600085815260078b0190925292902090518155905160019182015591925090612915908290613706565b60068601558454612926908b613a1a565b8086556129e3576002850180546001600160a01b0319169055600060048087019190915560405163b0138c4760e01b815260079181019190915233602482015273__$d23c89be677d40ab24c636937040b6165f$__9063b0138c479060440160206040518083038186803b15801561299d57600080fd5b505af41580156129b1573d6000803e3d6000fd5b505050506040513d601f19601f820116820180604052508101906129d591906154e7565b156129e3576129e333613c70565b6129ef848b8b8b614950565b6001600160a01b0384163314612a2d576001600160a01b03841660009081526003602090815260408083206004909252909120612a2d918691613df2565b60408051828152602081018c905290810183905233906001600160a01b038616907f2d5d98d189bee5496a08db2a5948cb7e5e786f09d17d0c3f228eb41776c24a069060600160405180910390a35050506001600160a01b03831660009081526003602090815260408083206004909252909120612aae9350849250613df2565b5050505050565b600080612ac061360d565b6001600160a01b0316638a19c8bc6040518163ffffffff1660e01b815260040160206040518083038186803b158015612af857600080fd5b505afa158015612b0c573d6000803e3d6000fd5b505050506040513d601f19601f82011682018060405250810190612b3091906154a3565b90506000612b3e8583614b8d565b5095945050505050565b6001600160a01b03166000908152600360208190526040909120015490565b612b6f6133d9565b612b7761349d565b33612b8181613561565b336001600160a01b038416612bcc5760405162461bcd60e51b81526020600482015260116024820152701a5b9d985b1a59081c9958da5c1a595b9d607a1b6044820152606401610908565b3360009081526003602052604090206001015483811015612c2f5760405162461bcd60e51b815260206004820152601d60248201527f696e73756666696369656e74206665657320746f2077697468647261770000006044820152606401610908565b612c398185613a1a565b33600090815260036020526040902060010155612c54613da1565b6040516320283da960e01b81526001600160a01b0387811660048301526024820187905291909116906320283da990604401600060405180830381600087803b158015612ca057600080fd5b505af1158015612cb4573d6000803e3d6000fd5b5050604080516001600160a01b0389168152602081018890523393507f4f1b51dd7a2fcb861aa2670f668be66835c4ee12b4bbbf037e4d0018f39819e492500160405180910390a2506001600160a01b038116600090815260036020908152604080832060049092529091206120e0918391613df2565b61135f8282600080600080611f80565b612d4361449e565b6115b981614770565b6001600160a01b038116600090815260036020908152604080832060049092529091206115b9918391613df2565b6115b9816000806120e6565b612d8e6133d9565b612d9661349d565b612d9f8661389f565b612da886613561565b6001600160a01b038616600090815260036020526040812090612dc961360d565b6001600160a01b0316638a19c8bc6040518163ffffffff1660e01b815260040160206040518083038186803b158015612e0157600080fd5b505afa158015612e15573d6000803e3d6000fd5b505050506040513d601f19601f82011682018060405250810190612e3991906154a3565b600283015483549192508a916001600160a01b03918216918b163314801590612e7b5750612e65614c52565b6001600160a01b0316336001600160a01b031614155b15612f83576001600160a01b038b16612ea65760405162461bcd60e51b8152600401610908906154bc565b6002612eb18c610dac565b6002811115612ec257612ec26151e8565b1415612f22578a6001600160a01b03168a6001600160a01b03161415612f1d5760405162461bcd60e51b815260206004820152601060248201526f494e56414c49445f44454c454741544560801b6044820152606401610908565b612f83565b896001600160a01b0316826001600160a01b031614612f835760405162461bcd60e51b815260206004820152601760248201527f494e56414c49445f44454c45474154455f4348414e47450000000000000000006044820152606401610908565b6002612f8e8c610dac565b6002811115612f9f57612f9f6151e8565b1415612fba57612fb0846001613706565b60048601556130b3565b600081118015612fdc5750896001600160a01b0316826001600160a01b031614155b156130b357612fea8b611f48565b1561305d5760405162461bcd60e51b815260206004820152603d60248201527f72656769737465726564207472616e73636f646572732063616e27742064656c60448201527f656761746520746f7761726473206f74686572206164647265737365730000006064820152608401610908565b613068846001613706565b60048601556130778382613706565b925061308582828b8b614950565b6001600160a01b038216600090815260036020908152604080832060049092529091206130b3918491613df2565b6130bd8a85613686565b6000831161311e5760405162461bcd60e51b815260206004820152602860248201527f64656c65676174696f6e20616d6f756e74206d75737420626520677265617465604482015267072207468616e20360c41b6064820152608401610908565b6002850180546001600160a01b0319166001600160a01b038c16179055613145818d613706565b85556131538a848989614ca3565b8a6001600160a01b03168a6001600160a01b03161461319a576001600160a01b038a166000908152600360209081526040808320600490925290912061319a918c91613df2565b8b15613248576131a86146ce565b6001600160a01b03166323b872dd336131bf613da1565b6040516001600160e01b031960e085901b1681526001600160a01b03928316600482015291166024820152604481018f9052606401602060405180830381600087803b15801561320e57600080fd5b505af1158015613222573d6000803e3d6000fd5b505050506040513d601f19601f8201168201806040525081019061324691906154e7565b505b8a6001600160a01b0316826001600160a01b03168b6001600160a01b03167fe5917769f276ddca9f2ee7c6b0b33e1d1e1b61008010ce622c632dd20d168a238f89600001546040516132a4929190918252602082015260400190565b60405180910390a46001600160a01b038b1660009081526004602052604090206132d1908c908790613df2565b505050505050505050505050565b6132e761449e565b6002805467ffffffffffffffff831667ffffffffffffffff199091161790556040516000805160206155db83398151915290611e3f906020808252600f908201526e1d5b989bdb991a5b99d4195c9a5bd9608a1b604082015260600190565b60008061335161360d565b6001600160a01b0316638a19c8bc6040518163ffffffff1660e01b815260040160206040518083038186803b15801561338957600080fd5b505afa15801561339d573d6000803e3d6000fd5b505050506040513d601f19601f820116820180604052508101906133c191906154a3565b905060006133cf8583614b8d565b9695505050505050565b60008054906101000a90046001600160a01b03166001600160a01b0316635c975abb6040518163ffffffff1660e01b815260040160206040518083038186803b15801561342557600080fd5b505afa158015613439573d6000803e3d6000fd5b505050506040513d601f19601f8201168201806040525081019061345d91906154e7565b15610e735760405162461bcd60e51b815260206004820152601060248201526f1cde5cdd195b481a5cc81c185d5cd95960821b6044820152606401610908565b6134a561360d565b6001600160a01b031663219bc76c6040518163ffffffff1660e01b815260040160206040518083038186803b1580156134dd57600080fd5b505afa1580156134f1573d6000803e3d6000fd5b505050506040513d601f19601f8201168201806040525081019061351591906154e7565b610e735760405162461bcd60e51b815260206004820181905260248201527f63757272656e7420726f756e64206973206e6f7420696e697469616c697a65646044820152606401610908565b600061356b61360d565b6001600160a01b0316638a19c8bc6040518163ffffffff1660e01b815260040160206040518083038186803b1580156135a357600080fd5b505afa1580156135b7573d6000803e3d6000fd5b505050506040513d601f19601f820116820180604052508101906135db91906154a3565b6001600160a01b038316600090815260036020526040902060050154909150818110156125ea576125ea838383613a26565b60008054604051631c2d8fb360e31b81527fe8438ea868df48e3fc21f2f087b993c9b1837dc0f6135064161ce7d7a1701fe860048201526001600160a01b039091169063e16c7d98906024015b60206040518083038186803b15801561367257600080fd5b505afa158015612651573d6000803e3d6000fd5b6001600160a01b038216600090815260046020908152604080832084845260038082019093529220908101546136d6578154838110156136d4576136ca8382614ed3565b6060015160038301555b505b60048101546120e057600a82015483811015612aae576136f68382614ed3565b6080015160048301555050505050565b6000611f79828461553c565b6001600160a01b0384166000908152600360209081526040808320868452600781019092529091208591906137478387610d7b565b61378f5760405162461bcd60e51b81526020600482015260196024820152781a5b9d985b1a59081d5b989bdb991a5b99c81b1bd8dac81251603a1b6044820152606401610908565b8054825461379d9082613706565b8355600087815260078401602052604081208181556001015560028301546001600160a01b03166137d081838989614ca3565b886001600160a01b0316816001600160a01b031614613817576001600160a01b03811660009081526003602090815260408083206004909252909120613817918391613df2565b886001600160a01b0316816001600160a01b03167f9f5b64cc71e1e26ff178caaa7877a04d8ce66fde989251870e80e6fbee690c178a85604051613865929190918252602082015260400190565b60405180910390a3505050506001600160a01b03811660009081526003602090815260408083206004909252909120612aae918391613df2565b336001600160a01b03821614806138ce57506138b9614c52565b6001600160a01b0316336001600160a01b0316145b806138f2575060026138df82610dac565b60028111156138f0576138f06151e8565b145b156138fa5750565b6001600160a01b038082166000908152600360205260409020600281015490911661392481610cc9565b61392d57505050565b600061393761360d565b6001600160a01b0316638a19c8bc6040518163ffffffff1660e01b815260040160206040518083038186803b15801561396f57600080fd5b505afa158015613983573d6000803e3d6000fd5b505050506040513d601f19601f820116820180604052508101906139a791906154a3565b6001600160a01b03831660009081526004602052604090208054919250908214806139d55750818460050154145b612aae5760405162461bcd60e51b8152602060048201526016602482015275494c4c4547414c5f434c41494d5f4541524e494e475360501b6044820152606401610908565b6000611f798284615554565b6001600160a01b038316600090815260036020526040812090613a4a836001613706565b82546001840154600285015492935090916001600160a01b031615613ace57613a738787614b8d565b600286015491935091506001600160a01b0316613a908188613686565b60028501546001600160a01b0389811691161415613acc576001600160a01b038116600090815260046020526040812060098101829055600801555b505b600284015484546001600160a01b03808a169216907fd7eab0765b772ea6ea859d5633baf737502198012e930f257f90013d9b21109490613b10908690613a1a565b6001880154613b20908690613a1a565b6040805192835260208301919091528101879052606081018a905260800160405180910390a36005840195909555825550600101919091555050565b600054604051631c2d8fb360e31b81527f121833d5ee4fda5e1a4034c2b7be8155c158142541dea26f39122c796649233f60048201526001600160a01b039091169063e16c7d989060240160206040518083038186803b158015613bbf57600080fd5b505afa158015613bd3573d6000803e3d6000fd5b505050506040513d601f19601f82011682018060405250810190613bf79190615509565b6001600160a01b0316336001600160a01b031614610e735760405162461bcd60e51b815260206004820152601760248201527f63616c6c6572206d7573742062652056657269666965720000000000000000006044820152606401610908565b6000611f79620f4240613c6a8585614f36565b90614f42565b604051635d35e00760e01b8152600760048201526001600160a01b038216602482015273__$d23c89be677d40ab24c636937040b6165f$__90635d35e0079060440160006040518083038186803b158015613cca57600080fd5b505af4158015613cde573d6000803e3d6000fd5b50505050613cf7613cee82612b48565b60065490613a1a565b6006556000613d416001613d0961360d565b6001600160a01b0316638a19c8bc6040518163ffffffff1660e01b815260040160206040518083038186803b158015611cd157600080fd5b6001600160a01b0383166000818152600460205260409081902060060183905551919250907ffee3e693fc72d0a0a673805f3e606c551f4c677b9072444b90dd2d0406bc995c90613d959084815260200190565b60405180910390a25050565b60008054604051631c2d8fb360e31b81527f6e58ad548d72b425ea94c15f453bf26caddb061d82b2551db7fdd3cefe0e994060048201526001600160a01b039091169063e16c7d989060240161365a565b6000613dfc61360d565b6001600160a01b0316638a19c8bc6040518163ffffffff1660e01b815260040160206040518083038186803b158015613e3457600080fd5b505afa158015613e48573d6000803e3d6000fd5b505050506040513d601f19601f82011682018060405250810190613e6c91906154a3565b613e7790600161553c565b9050613e8161467d565b8354600285015460038601546005870154865460405163e35c3e4360e01b81526001600160a01b038b811660048301526024820189905260448201969096529385166064850152608484019290925260a483015260c482015291169063e35c3e439060e401600060405180830381600087803b158015613f0057600080fd5b505af1158015613f14573d6000803e3d6000fd5b5050505050505050565b6006546040516304aa129960e41b81526007600482015273__$d23c89be677d40ab24c636937040b6165f$__90634aa129909060240160206040518083038186803b158015613f6c57600080fd5b505af4158015613f80573d6000803e3d6000fd5b505050506040513d601f19601f82011682018060405250810190613fa491906154e7565b1561412f57604051633972059360e11b81526007600482015260009073__$d23c89be677d40ab24c636937040b6165f$__906372e40b269060240160206040518083038186803b158015613ff757600080fd5b505af415801561400b573d6000803e3d6000fd5b505050506040513d601f19601f8201168201806040525081019061402f9190615509565b9050600061403c82612b48565b905080871161404d57505050612aae565b604051635d35e00760e01b8152600760048201526001600160a01b038316602482015273__$d23c89be677d40ab24c636937040b6165f$__90635d35e0079060440160006040518083038186803b1580156140a757600080fd5b505af41580156140bb573d6000803e3d6000fd5b5050506001600160a01b0383166000908152600460205260409020600601879055506140e78382613a1a565b9250816001600160a01b03167ffee3e693fc72d0a0a673805f3e606c551f4c677b9072444b90dd2d0406bc995c8760405161412491815260200190565b60405180910390a250505b6040516327dd54d360e11b815273__$d23c89be677d40ab24c636937040b6165f$__90634fbaa9a69061416f906007908a908a908990899060040161556b565b60006040518083038186803b15801561418757600080fd5b505af415801561419b573d6000803e3d6000fd5b505050506141b2858261370690919063ffffffff16565b6001600160a01b03871660009081526004602081815260408084209283018990556005830189905560001960068401558884526003830190915290912087905590915060068290556040518581526001600160a01b038816907f65d72d782835d64c3287844a829608d5abdc7e864cc9affe96d910ab3db665e99060200160405180910390a250505050505050565b600054604051631c2d8fb360e31b81527fbd1aa3e8d2464256d7fd3dcf645c16418d5d8c51d971f1ad7d57e7b1b5eee23960048201526001600160a01b039091169063e16c7d989060240160206040518083038186803b1580156142a457600080fd5b505afa1580156142b8573d6000803e3d6000fd5b505050506040513d601f19601f820116820180604052508101906142dc9190615509565b6001600160a01b0316336001600160a01b031614610e735760405162461bcd60e51b815260206004820152601b60248201527f63616c6c6572206d757374206265205469636b657442726f6b657200000000006044820152606401610908565b61436e6040518060a0016040528060008152602001600081526020016000815260200160008152602001600081525090565b6143788383614ed3565b835460608201519192509015801561438f57508281105b156143a95761439e8482614ed3565b606090810151908301525b600a84015460808301511580156143bf57508381105b156143d9576143ce8582614ed3565b608090810151908401525b505092915050565b6000610d736b033b2e3c9fd0803ce8000000613c6a6144008686614f4e565b8790614f36565b6000611f796b033b2e3c9fd0803ce8000000613c6a8585614f36565b608082015160608301516000906144445761443f600180614f4e565b61444a565b83606001515b90508460040154600014156144815761447261446b828588600001546143e1565b8390613706565b85600401819055505050505050565b614472614493828588600001546143e1565b600487015490613706565b60008054906101000a90046001600160a01b03166001600160a01b0316638da5cb5b6040518163ffffffff1660e01b815260040160206040518083038186803b1580156144ea57600080fd5b505afa1580156144fe573d6000803e3d6000fd5b505050506040513d601f19601f820116820180604052508101906145229190615509565b6001600160a01b0316336001600160a01b031614610e735760405162461bcd60e51b815260206004820152601f60248201527f63616c6c6572206d75737420626520436f6e74726f6c6c6572206f776e6572006044820152606401610908565b600054604051631c2d8fb360e31b81527fe8438ea868df48e3fc21f2f087b993c9b1837dc0f6135064161ce7d7a1701fe860048201526001600160a01b039091169063e16c7d989060240160206040518083038186803b1580156145e557600080fd5b505afa1580156145f9573d6000803e3d6000fd5b505050506040513d601f19601f8201168201806040525081019061461d9190615509565b6001600160a01b0316336001600160a01b031614610e735760405162461bcd60e51b815260206004820152601c60248201527f63616c6c6572206d75737420626520526f756e64734d616e61676572000000006044820152606401610908565b60008054604051631c2d8fb360e31b81527f2a1b465fbcae519904f0fb11f93e73dfbeb47ec54530ec444279610af8cf06b260048201526001600160a01b039091169063e16c7d989060240161365a565b60008054604051631c2d8fb360e31b81527f3443e257065fe41dd0e4d1f5a1b73a22a62e300962b57f30cddf41d0f8273ba760048201526001600160a01b039091169063e16c7d989060240161365a565b60008054604051631c2d8fb360e31b81527f6efca2866b731ee4984990bacad4cde10f1ef764fb54a5206bdfd291695b1a9b60048201526001600160a01b039091169063e16c7d989060240161365a565b614786816b033b2e3c9fd0803ce8000000101590565b6147e15760405162461bcd60e51b815260206004820152602660248201527f5f6375745261746520697320696e76616c696420707265636973652070657263604482015265656e7461676560d01b6064820152608401610908565b600d8190556040516000805160206155db83398151915290611e3f906020808252601e908201527f6e657874526f756e645472656173757279526577617264437574526174650000604082015260600190565b6001600160a01b038516600090815260046020908152604080832086845260038101909252822081549192909161486c908490614ed3565b905082600801548360070181905550600061488b888460010154613c57565b905060006148998983613a1a565b905060006148b082876007015487600001546143e1565b90506148cd83611d0983896008015461370690919063ffffffff16565b60088701556148dd858584614f6a565b6148e98b8b8a8a614ca3565b5050505050505050505050565b6000546001600160a01b03163314610e735760405162461bcd60e51b815260206004820152601960248201527f63616c6c6572206d75737420626520436f6e74726f6c6c6572000000000000006044820152606401610908565b6001600160a01b03841660009081526004602052604081209061497286612b48565b905060006149808287613a1a565b60405163b0138c4760e01b8152600760048201526001600160a01b038916602482015290915073__$d23c89be677d40ab24c636937040b6165f$__9063b0138c479060440160206040518083038186803b1580156149dd57600080fd5b505af41580156149f1573d6000803e3d6000fd5b505050506040513d601f19601f82011682018060405250810190614a1591906154e7565b15614b65576000614a2461360d565b6001600160a01b0316638a19c8bc6040518163ffffffff1660e01b815260040160206040518083038186803b158015614a5c57600080fd5b505afa158015614a70573d6000803e3d6000fd5b505050506040513d601f19601f82011682018060405250810190614a9491906154a3565b90506000614aa3826001613706565b604051631c11bf7f60e11b815290915073__$d23c89be677d40ab24c636937040b6165f$__906338237efe90614ae6906007908d9088908d908d9060040161556b565b60006040518083038186803b158015614afe57600080fd5b505af4158015614b12573d6000803e3d6000fd5b5050600654614b249250905089613a1a565b6006556004850154821115614b4757600082815260038601602052604090208490555b60048501819055600081815260038601602052604090208390555b50505b6001600160a01b03909616600090815260036020819052604090912001959095555050505050565b6001600160a01b03808316600090815260036020908152604080832060028101549094168352600490915281206001808401548454600586015490959194919392614bd89190613706565b60028401549091506001600160a01b039081169088168114878311614c1457614c0e84614c06856001613a1a565b8a8a8a614fb8565b90975095505b8015614c46576008840154614c2a908890613706565b9650614c4384600901548761370690919063ffffffff16565b95505b50505050509250929050565b60008054604051631c2d8fb360e31b81527f74b6d21e0d4650f622c903126d418c1a52bcc99ea7acb0db0809fc0eeae6c7c360048201526001600160a01b039091169063e16c7d989060240161365a565b6001600160a01b038416600090815260046020526040812090614cc586612b48565b90506000614cd38287613706565b9050614cde87611f48565b15614b65576000614ced61360d565b6001600160a01b0316638a19c8bc6040518163ffffffff1660e01b815260040160206040518083038186803b158015614d2557600080fd5b505afa158015614d39573d6000803e3d6000fd5b505050506040513d601f19601f82011682018060405250810190614d5d91906154a3565b90506000614d6c826001613706565b60405163b0138c4760e01b8152600760048201526001600160a01b038b16602482015290915073__$d23c89be677d40ab24c636937040b6165f$__9063b0138c479060440160206040518083038186803b158015614dc957600080fd5b505af4158015614ddd573d6000803e3d6000fd5b505050506040513d601f19601f82011682018060405250810190614e0191906154e7565b15614ec657604051631c11bf7f60e11b815273__$d23c89be677d40ab24c636937040b6165f$__906338237efe90614e46906007908d9088908d908d9060040161556b565b60006040518083038186803b158015614e5e57600080fd5b505af4158015614e72573d6000803e3d6000fd5b5050600654614e849250905089613706565b6006556004850154821115614ea757600082815260038601602052604090208490555b6000818152600386016020526040902083905560048501819055614b62565b614b628984838a8a613f1e565b614f056040518060a0016040528060008152602001600081526020016000815260200160008152602001600081525090565b6000828152600393840160208181526040832095860154606085015293909152909152600490910154608082015290565b6000611f798284615599565b6000611f7982846155b8565b6000611f7982613c6a856b033b2e3c9fd0803ce8000000614f36565b6000826060015160001415614f8957614f84600180614f4e565b614f8f565b82606001515b9050614faa614fa3828487600001546143e1565b8290613706565b846003018190555050505050565b6000806000614fc78888614ed3565b90506000614fd5898861433c565b9050614fe382828888614ff3565b9350935050509550959350505050565b60008061500186868661501a565b915061500f86868686615067565b905094509492505050565b600083606001516000141561503a57615034600180614f4e565b60608501525b60608301516150545761504e600180614f4e565b60608401525b610d7382846060015186606001516143e1565b600084606001516000141561508757615081600180614f4e565b60608601525b60006150b2846150a888608001518860800151613a1a90919063ffffffff16565b88606001516143e1565b90506133cf8382613706565b6001600160a01b03811681146115b957600080fd5b600080600080608085870312156150e957600080fd5b84356150f4816150be565b935060208501359250604085013561510b816150be565b9150606085013561511b816150be565b939692955090935050565b60008060008060008060c0878903121561513f57600080fd5b863561514a816150be565b9550602087013594506040870135615161816150be565b93506060870135615171816150be565b92506080870135615181816150be565b915060a0870135615191816150be565b809150509295509295509295565b6000602082840312156151b157600080fd5b8135611f79816150be565b600080604083850312156151cf57600080fd5b82356151da816150be565b946020939093013593505050565b634e487b7160e01b600052602160045260246000fd5b6020810160038310615212576152126151e8565b91905290565b6000806000806080858703121561522e57600080fd5b8435615239816150be565b93506020850135615249816150be565b93969395505050506040820135916060013590565b60006020828403121561527057600080fd5b5035919050565b6000806000806080858703121561528d57600080fd5b8435935060208501359250604085013561510b816150be565b6000806000606084860312156152bb57600080fd5b83356152c6816150be565b95602085013595506040909401359392505050565b600080604083850312156152ee57600080fd5b50508035926020909101359150565b60008060008060008060c0878903121561531657600080fd5b863595506020870135615328816150be565b94506040870135615161816150be565b60008060006060848603121561534d57600080fd5b83359250602084013561535f816150be565b9150604084013561536f816150be565b809150509250925092565b6000806040838503121561538d57600080fd5b8235615398816150be565b915060208301356153a8816150be565b809150509250929050565b6020810160028310615212576152126151e8565b600080604083850312156153da57600080fd5b8235915060208301356153a8816150be565b600080600080600080600060e0888a03121561540757600080fd5b873596506020880135615419816150be565b95506040880135615429816150be565b94506060880135615439816150be565b93506080880135615449816150be565b925060a0880135615459816150be565b915060c0880135615469816150be565b8091505092959891949750929550565b60006020828403121561548b57600080fd5b813567ffffffffffffffff81168114611f7957600080fd5b6000602082840312156154b557600080fd5b5051919050565b60208082526011908201527024a72b20a624a22fa222a622a3a0aa27a960791b604082015260600190565b6000602082840312156154f957600080fd5b81518015158114611f7957600080fd5b60006020828403121561551b57600080fd5b8151611f79816150be565b634e487b7160e01b600052601160045260246000fd5b6000821982111561554f5761554f615526565b500190565b60008282101561556657615566615526565b500390565b9485526001600160a01b03938416602086015260408501929092528216606084015216608082015260a00190565b60008160001904831182151516156155b3576155b3615526565b500290565b6000826155d557634e487b7160e01b600052601260045260246000fd5b50049056fe9f5033568d78ae30f29f01e944f97b2216493bd19d1b46d429673acff3dcd674a2646970667358221220426d90506f0ea5cbd0ac055f98f03a1852bb28a2a88c2a2266d33ace98fd554364736f6c63430008090033",
  "libraries": {
    "SortedDoublyLL": "0xC45f6918F7Bcac7aBc8fe05302b3cDF39776cdeb"
  },
  "devdoc": {
    "kind": "dev",
    "methods": {
      "bond(uint256,address)": {
        "params": {
          "_amount": "The amount of tokens to stake",
          "_to": "The address of the transcoder to stake towards"
        }
      },
      "bondForWithHint(uint256,address,address,address,address,address,address)": {
        "details": "If the caller is decreasing the stake of its old delegate in the transcoder pool, the caller can provide an optional hint for the insertion position of the old delegate via the `_oldDelegateNewPosPrev` and `_oldDelegateNewPosNext` params. If the caller is delegating to a delegate that is in the transcoder pool, the caller can provide an optional hint for the insertion position of the delegate via the `_currDelegateNewPosPrev` and `_currDelegateNewPosNext` params. In both cases, a linear search will be executed starting at the hint to find the correct position. In the best case, the hint is the correct position so no search is executed. See SortedDoublyLL.sol for details on list hints",
        "params": {
          "_amount": "The amount of tokens to stake.",
          "_currDelegateNewPosNext": "The address of the next transcoder in the pool for the current delegate",
          "_currDelegateNewPosPrev": "The address of the previous transcoder in the pool for the current delegate",
          "_oldDelegateNewPosNext": "The address of the next transcoder in the pool for the old delegate",
          "_oldDelegateNewPosPrev": "The address of the previous transcoder in the pool for the old delegate",
          "_owner": "The address of the owner of the bond",
          "_to": "The address of the transcoder to stake towards"
        }
      },
      "bondWithHint(uint256,address,address,address,address,address)": {
        "details": "If the caller is decreasing the stake of its old delegate in the transcoder pool, the caller can provide an optional hint for the insertion position of the old delegate via the `_oldDelegateNewPosPrev` and `_oldDelegateNewPosNext` params. If the caller is delegating to a delegate that is in the transcoder pool, the caller can provide an optional hint for the insertion position of the delegate via the `_currDelegateNewPosPrev` and `_currDelegateNewPosNext` params. In both cases, a linear search will be executed starting at the hint to find the correct position. In the best case, the hint is the correct position so no search is executed. See SortedDoublyLL.sol for details on list hints",
        "params": {
          "_amount": "The amount of tokens to stake.",
          "_currDelegateNewPosNext": "The address of the next transcoder in the pool for the current delegate",
          "_currDelegateNewPosPrev": "The address of the previous transcoder in the pool for the current delegate",
          "_oldDelegateNewPosNext": "The address of the next transcoder in the pool for the old delegate",
          "_oldDelegateNewPosPrev": "The address of the previous transcoder in the pool for the old delegate",
          "_to": "The address of the transcoder to stake towards"
        }
      },
      "checkpointBondingState(address)": {
        "details": "This is to allow checkpointing an account that has an inconsistent checkpoint with its current state.",
        "params": {
          "_account": "The account to make the checkpoint for"
        }
      },
      "claimEarnings(uint256)": {
        "params": {
          "_endRound": "Unused, but used to represented the last round for which to claim token pools shares for a delegator. Currently, the earnings are always claimed until the current round instead."
        }
      },
      "constructor": {
        "details": "This constructor will not initialize any state variables besides `controller`. The following setter functions should be used to initialize state variables post-deployment: - setUnbondingPeriod() - setNumActiveTranscoders()",
        "params": {
          "_controller": "Address of Controller that this contract will be registered with"
        }
      },
      "delegatorStatus(address)": {
        "params": {
          "_delegator": "Address of delegator"
        },
        "returns": {
          "_0": "bonded, unbonded or pending delegator status"
        }
      },
      "getDelegator(address)": {
        "params": {
          "_delegator": "Address of delegator"
        },
        "returns": {
          "bondedAmount": "total amount bonded by '_delegator'",
          "delegateAddress": "address '_delegator' has bonded to",
          "delegatedAmount": "total amount delegated to '_delegator'",
          "fees": "amount of fees collected by '_delegator'",
          "lastClaimRound": "round for which '_delegator' has last claimed earnings",
          "nextUnbondingLockId": "ID for the next unbonding lock created for '_delegator'",
          "startRound": "round in which bond for '_delegator' became effective"
        }
      },
      "getDelegatorUnbondingLock(address,uint256)": {
        "params": {
          "_delegator": "Address of delegator",
          "_unbondingLockId": "ID of unbonding lock"
        },
        "returns": {
          "amount": "of stake locked up by unbonding lock",
          "withdrawRound": "round in which 'amount' becomes available for withdrawal"
        }
      },
      "getFirstTranscoderInPool()": {
        "returns": {
          "_0": "address for transcoder with highest stake in transcoder pool"
        }
      },
      "getNextTranscoderInPool(address)": {
        "params": {
          "_transcoder": "Address of a transcoder in the pool"
        },
        "returns": {
          "_0": "address for the transcoder after '_transcoder' in transcoder pool"
        }
      },
      "getTotalBonded()": {
        "returns": {
          "_0": "total active stake for the current round"
        }
      },
      "getTranscoder(address)": {
        "params": {
          "_transcoder": "Address of transcoder"
        },
        "returns": {
          "activationRound": "Round in which transcoder became active",
          "activeCumulativeRewards": "Transcoder's cumulative rewards that are currently active",
          "cumulativeFees": "Transcoder's cumulative fees (earned via its active staked rewards and its fee share)",
          "cumulativeRewards": "Transcoder's cumulative rewards (earned via its active staked rewards and its reward cut)",
          "deactivationRound": "Round in which transcoder will no longer be active",
          "feeShare": "Transcoder's fee share",
          "lastActiveStakeUpdateRound": "Round in which transcoder's stake was last updated while active",
          "lastFeeRound": "Latest round that the transcoder received fees",
          "lastRewardRound": "Trancoder's last reward round",
          "rewardCut": "Transcoder's reward cut"
        }
      },
      "getTranscoderEarningsPoolForRound(address,uint256)": {
        "params": {
          "_round": "Round number",
          "_transcoder": "Address of transcoder"
        },
        "returns": {
          "cumulativeFeeFactor": "The cumulative fee factor for delegator fees calculation (only used after LIP-36)",
          "cumulativeRewardFactor": "The cumulative reward factor for delegator rewards calculation (only used after LIP-36)",
          "totalStake": "Transcoder's total stake in '_round'",
          "transcoderFeeShare": "Transcoder's fee share for '_round'",
          "transcoderRewardCut": "Transcoder's reward cut for '_round'"
        }
      },
      "getTranscoderPoolMaxSize()": {
        "returns": {
          "_0": "transcoder pool max size"
        }
      },
      "getTranscoderPoolSize()": {
        "returns": {
          "_0": "transcoder pool current size"
        }
      },
      "isActiveTranscoder(address)": {
        "params": {
          "_transcoder": "Transcoder address"
        },
        "returns": {
          "_0": "true if transcoder is active"
        }
      },
      "isRegisteredTranscoder(address)": {
        "params": {
          "_transcoder": "Transcoder address"
        },
        "returns": {
          "_0": "true if transcoder is self-bonded"
        }
      },
      "isValidUnbondingLock(address,uint256)": {
        "params": {
          "_delegator": "Address of delegator",
          "_unbondingLockId": "ID of unbonding lock"
        },
        "returns": {
          "_0": "true if unbondingLock for ID has a non-zero withdraw round"
        }
      },
      "pendingFees(address,uint256)": {
        "params": {
          "_delegator": "Address of delegator",
          "_endRound": "Unused, but used to represent the last round to compute pending fees from. Currently, the pending fees are always calculated for the current round instead."
        },
        "returns": {
          "_0": "Pending fees for '_delegator' since last claiming fees"
        }
      },
      "pendingStake(address,uint256)": {
        "params": {
          "_delegator": "Address of delegator",
          "_endRound": "Unused, but used to represent the last round to compute pending stake from. Currently, the pending stake is always calculated for the current round instead."
        },
        "returns": {
          "_0": "Pending bonded stake for '_delegator' since last claiming rewards"
        }
      },
      "rebond(uint256)": {
        "params": {
          "_unbondingLockId": "ID of unbonding lock to rebond with"
        }
      },
      "rebondFromUnbonded(address,uint256)": {
        "params": {
          "_to": "Address of delegate",
          "_unbondingLockId": "ID of unbonding lock to rebond with"
        }
      },
      "rebondFromUnbondedWithHint(address,uint256,address,address)": {
        "details": "If the delegate joins the transcoder pool, the caller can provide an optional hint for the delegate's insertion position in the pool via the `_newPosPrev` and `_newPosNext` params. A linear search will be executed starting at the hint to find the correct position. In the best case, the hint is the correct position so no search is executed. See SortedDoublyLL.sol for details on list hints",
        "params": {
          "_newPosNext": "Address of next transcoder in pool if the delegate joins the pool",
          "_newPosPrev": "Address of previous transcoder in pool if the delegate joins the pool",
          "_to": "Address of delegate",
          "_unbondingLockId": "ID of unbonding lock to rebond with"
        }
      },
      "rebondWithHint(uint256,address,address)": {
        "details": "If the delegate is in the transcoder pool, the caller can provide an optional hint for the delegate's insertion position in the pool via the `_newPosPrev` and `_newPosNext` params. A linear search will be executed starting at the hint to find the correct position. In the best case, the hint is the correct position so no search is executed. See SortedDoublyLL.sol details on list hints",
        "params": {
          "_newPosNext": "Address of next transcoder in pool if the delegate is in the pool",
          "_newPosPrev": "Address of previous transcoder in pool if the delegate is in the pool",
          "_unbondingLockId": "ID of unbonding lock to rebond with"
        }
      },
      "rewardWithHint(address,address)": {
        "details": "If the caller is in the transcoder pool, the caller can provide an optional hint for its insertion position in the pool via the `_newPosPrev` and `_newPosNext` params. A linear search will be executed starting at the hint to find the correct position. In the best case, the hint is the correct position so no search is executed. See SortedDoublyLL.sol for details on list hints",
        "params": {
          "_newPosNext": "Address of next transcoder in pool if the caller is in the pool",
          "_newPosPrev": "Address of previous transcoder in pool if the caller is in the pool"
        }
      },
      "setController(address)": {
        "params": {
          "_controller": "Controller contract address"
        }
      },
      "setNumActiveTranscoders(uint256)": {
        "params": {
          "_numActiveTranscoders": "Number of active transcoders"
        }
      },
      "setTreasuryBalanceCeiling(uint256)": {
        "params": {
          "_ceiling": "Balance at which treasury reward contributions should halt. Specified in LPT fractional units (18-digit precision)."
        }
      },
      "setTreasuryRewardCutRate(uint256)": {
        "params": {
          "_cutRate": "Percentage of newly minted rewards to route to the treasury. Must be a valid PreciseMathUtils percentage (<100% specified with 27-digits precision)."
        }
      },
      "setUnbondingPeriod(uint64)": {
        "params": {
          "_unbondingPeriod": "Rounds between unbonding and possible withdrawal"
        }
      },
      "slashTranscoder(address,address,uint256,uint256)": {
        "details": "This function is not currently used today as the Verifier role is set to the null address (0x000...). It still remains a key part of the protocol's security model and could be enabled via governance by configuring the Verifier role. The function would also require compatibility updates to align with the latest BondingManager logical accounting, so the protocol governance would make sure to only enable it after such updates have been made. Until then, this function and its side-effects are out of scope of any audits made in this code.",
        "params": {
          "_finder": "Finder that proved a transcoder violated a slashing condition. Null address if there is no finder",
          "_finderFee": "Percentage of penalty awarded to finder. Zero if there is no finder",
          "_slashAmount": "Percentage of transcoder bond to be slashed",
          "_transcoder": "Transcoder address"
        }
      },
      "transcoder(uint256,uint256)": {
        "details": "Percentages are represented as numerators of fractions over MathUtils.PERC_DIVISOR",
        "params": {
          "_feeShare": "% of fees paid to delegators by a transcoder",
          "_rewardCut": "% of reward paid to transcoder by a delegator"
        }
      },
      "transcoderStatus(address)": {
        "params": {
          "_transcoder": "Address of transcoder"
        },
        "returns": {
          "_0": "registered or not registered transcoder status"
        }
      },
      "transcoderTotalStake(address)": {
        "params": {
          "_transcoder": "Address of transcoder"
        },
        "returns": {
          "_0": "total bonded stake for a delegator"
        }
      },
      "transcoderWithHint(uint256,uint256,address,address)": {
        "details": "Percentages are represented as numerators of fractions over MathUtils.PERC_DIVISOR. If the caller is going to be added to the pool, the caller can provide an optional hint for the insertion position in the pool via the `_newPosPrev` and `_newPosNext` params. A linear search will be executed starting at the hint to find the correct position - in the best case, the hint is the correct position so no search is executed. See SortedDoublyLL.sol for details on list hints",
        "params": {
          "_feeShare": "% of fees paid to delegators by a transcoder",
          "_newPosNext": "Address of next transcoder in pool if the caller joins the pool",
          "_newPosPrev": "Address of previous transcoder in pool if the caller joins the pool",
          "_rewardCut": "% of reward paid to transcoder by a delegator"
        }
      },
      "transferBond(address,uint256,address,address,address,address)": {
        "details": "If the original delegate is in the transcoder pool, the caller can provide an optional hint for the insertion position of the delegate via the `_oldDelegateNewPosPrev` and `_oldDelegateNewPosNext` params. If the target delegate is in the transcoder pool, the caller can provide an optional hint for the insertion position of the delegate via the `_newDelegateNewPosPrev` and `_newDelegateNewPosNext` params. In both cases, a linear search will be executed starting at the hint to find the correct position. In the best case, the hint is the correct position so no search is executed. See SortedDoublyLL.sol for details on list hints",
        "params": {
          "_amount": "Portion of the bond to transfer to receiver",
          "_delegator": "Receiver of the bond",
          "_newDelegateNewPosNext": "Address of next transcoder in pool if the delegate is in the pool",
          "_newDelegateNewPosPrev": "Address of previous transcoder in pool if the delegate is in the pool",
          "_oldDelegateNewPosNext": "Address of next transcoder in pool if the delegate remains in the pool",
          "_oldDelegateNewPosPrev": "Address of previous transcoder in pool if the delegate remains in the pool"
        }
      },
      "unbond(uint256)": {
        "params": {
          "_amount": "Amount of tokens to unbond"
        }
      },
      "unbondWithHint(uint256,address,address)": {
        "details": "If the caller remains in the transcoder pool, the caller can provide an optional hint for its insertion position in the pool via the `_newPosPrev` and `_newPosNext` params. A linear search will be executed starting at the hint to find the correct position. In the best case, the hint is the correct position so no search is executed. See SortedDoublyLL.sol details on list hints",
        "params": {
          "_amount": "Amount of tokens to unbond",
          "_newPosNext": "Address of next transcoder in pool if the caller remains in the pool",
          "_newPosPrev": "Address of previous transcoder in pool if the caller remains in the pool"
        }
      },
      "updateTranscoderWithFees(address,uint256,uint256)": {
        "params": {
          "_fees": "Fees to be added to the fee pool",
          "_transcoder": "Transcoder address"
        }
      },
      "withdrawStake(uint256)": {
        "params": {
          "_unbondingLockId": "ID of unbonding lock to withdraw with"
        }
      }
    },
    "title": "BondingManager",
    "version": 1
  },
  "userdoc": {
    "kind": "user",
    "methods": {
      "bond(uint256,address)": {
        "notice": "Delegate stake towards a specific address"
      },
      "bondForWithHint(uint256,address,address,address,address,address,address)": {
        "notice": "Delegates stake \"on behalf of\" another address towards a specific address and updates the transcoder pool using optional list hints if needed"
      },
      "bondWithHint(uint256,address,address,address,address,address)": {
        "notice": "Delegates stake towards a specific address and updates the transcoder pool using optional list hints if needed"
      },
      "checkpointBondingState(address)": {
        "notice": "Checkpoints the bonding state for a given account."
      },
      "claimEarnings(uint256)": {
        "notice": "Claim token pools shares for a delegator from its lastClaimRound through the end round"
      },
      "constructor": {
        "notice": "BondingManager constructor. Only invokes constructor of base Manager contract with provided Controller address"
      },
      "delegatorStatus(address)": {
        "notice": "Computes delegator status"
      },
      "getDelegator(address)": {
        "notice": "Return delegator info"
      },
      "getDelegatorUnbondingLock(address,uint256)": {
        "notice": "Return delegator's unbonding lock info"
      },
      "getFirstTranscoderInPool()": {
        "notice": "Returns transcoder with most stake in pool"
      },
      "getNextTranscoderInPool(address)": {
        "notice": "Returns next transcoder in pool for a given transcoder"
      },
      "getTotalBonded()": {
        "notice": "Return total bonded tokens"
      },
      "getTranscoder(address)": {
        "notice": "Return transcoder information"
      },
      "getTranscoderEarningsPoolForRound(address,uint256)": {
        "notice": "Return transcoder's earnings pool for a given round"
      },
      "getTranscoderPoolMaxSize()": {
        "notice": "Returns max size of transcoder pool"
      },
      "getTranscoderPoolSize()": {
        "notice": "Returns size of transcoder pool"
      },
      "isActiveTranscoder(address)": {
        "notice": "Return whether a transcoder is active for the current round"
      },
      "isRegisteredTranscoder(address)": {
        "notice": "Return whether a transcoder is registered"
      },
      "isValidUnbondingLock(address,uint256)": {
        "notice": "Return whether an unbonding lock for a delegator is valid"
      },
      "pendingFees(address,uint256)": {
        "notice": "Returns pending fees for a delegator from its lastClaimRound through an end round"
      },
      "pendingStake(address,uint256)": {
        "notice": "Returns pending bonded stake for a delegator from its lastClaimRound through an end round"
      },
      "rebond(uint256)": {
        "notice": "Rebond tokens for an unbonding lock to a delegator's current delegate while a delegator is in the Bonded or Pending status"
      },
      "rebondFromUnbonded(address,uint256)": {
        "notice": "Rebond tokens for an unbonding lock to a delegate while a delegator is in the Unbonded status"
      },
      "rebondFromUnbondedWithHint(address,uint256,address,address)": {
        "notice": "Rebond tokens for an unbonding lock to a delegate while a delegator is in the Unbonded status and updates the transcoder pool using an optional list hint if needed"
      },
      "rebondWithHint(uint256,address,address)": {
        "notice": "Rebond tokens for an unbonding lock to a delegator's current delegate while a delegator is in the Bonded or Pending status and updates the transcoder pool using an optional list hint if needed"
      },
      "reward()": {
        "notice": "Mint token rewards for an active transcoder and its delegators"
      },
      "rewardWithHint(address,address)": {
        "notice": "Mint token rewards for an active transcoder and its delegators and update the transcoder pool using an optional list hint if needed"
      },
      "setController(address)": {
        "notice": "Set controller. Only callable by current controller"
      },
      "setCurrentRoundTotalActiveStake()": {
        "notice": "Called during round initialization to set the total active stake for the round. Only callable by the RoundsManager"
      },
      "setNumActiveTranscoders(uint256)": {
        "notice": "Set maximum number of active transcoders. Only callable by Controller owner"
      },
      "setTreasuryBalanceCeiling(uint256)": {
        "notice": "Set treasury balance ceiling. Only callable by Controller owner"
      },
      "setTreasuryRewardCutRate(uint256)": {
        "notice": "Set treasury reward cut rate. Only callable by Controller owner. Notice that the change will only be effective on the next round."
      },
      "setUnbondingPeriod(uint64)": {
        "notice": "Set unbonding period. Only callable by Controller owner"
      },
      "slashTranscoder(address,address,uint256,uint256)": {
        "notice": "Slash a transcoder. Only callable by the Verifier."
      },
      "transcoder(uint256,uint256)": {
        "notice": "Sets commission rates as a transcoder and if the caller is not in the transcoder pool tries to add it"
      },
      "transcoderStatus(address)": {
        "notice": "Computes transcoder status"
      },
      "transcoderTotalStake(address)": {
        "notice": "Returns total bonded stake for a transcoder"
      },
      "transcoderWithHint(uint256,uint256,address,address)": {
        "notice": "Sets commission rates as a transcoder and if the caller is not in the transcoder pool tries to add it using an optional list hint"
      },
      "transferBond(address,uint256,address,address,address,address)": {
        "notice": "Transfers ownership of a bond to a new delegator using optional hints if needed If the receiver is already bonded to a different delegate than the bond owner then the stake goes to the receiver's delegate otherwise the receiver's delegate is set as the owner's delegate"
      },
      "unbond(uint256)": {
        "notice": "Unbond an amount of the delegator's bonded stake"
      },
      "unbondWithHint(uint256,address,address)": {
        "notice": "Unbond an amount of the delegator's bonded stake and updates the transcoder pool using an optional list hint if needed"
      },
      "updateTranscoderWithFees(address,uint256,uint256)": {
        "notice": "Update transcoder's fee pool. Only callable by the TicketBroker"
      },
      "withdrawFees(address,uint256)": {
        "notice": "Withdraws fees to the caller"
      },
      "withdrawStake(uint256)": {
        "notice": "Withdraws tokens for an unbonding lock that has existed through an unbonding period"
      }
    },
    "notice": "Manages bonding, transcoder and rewards/fee accounting related operations of the Livepeer protocol",
    "version": 1
  },
  "storageLayout": {
    "storage": [
      {
        "astId": 18792,
        "contract": "contracts/bonding/BondingManager.sol:BondingManager",
        "label": "controller",
        "offset": 0,
        "slot": "0",
        "type": "t_contract(IController)18767"
      },
      {
        "astId": 18974,
        "contract": "contracts/bonding/BondingManager.sol:BondingManager",
        "label": "targetContractId",
        "offset": 0,
        "slot": "1",
        "type": "t_bytes32"
      },
      {
        "astId": 19085,
        "contract": "contracts/bonding/BondingManager.sol:BondingManager",
        "label": "unbondingPeriod",
        "offset": 0,
        "slot": "2",
        "type": "t_uint64"
      },
      {
        "astId": 19148,
        "contract": "contracts/bonding/BondingManager.sol:BondingManager",
        "label": "delegators",
        "offset": 0,
        "slot": "3",
        "type": "t_mapping(t_address,t_struct(Delegator)19134_storage)"
      },
      {
        "astId": 19153,
        "contract": "contracts/bonding/BondingManager.sol:BondingManager",
        "label": "transcoders",
        "offset": 0,
        "slot": "4",
        "type": "t_mapping(t_address,t_struct(Transcoder)19111_storage)"
      },
      {
        "astId": 19155,
        "contract": "contracts/bonding/BondingManager.sol:BondingManager",
        "label": "currentRoundTotalActiveStake",
        "offset": 0,
        "slot": "5",
        "type": "t_uint256"
      },
      {
        "astId": 19157,
        "contract": "contracts/bonding/BondingManager.sol:BondingManager",
        "label": "nextRoundTotalActiveStake",
        "offset": 0,
        "slot": "6",
        "type": "t_uint256"
      },
      {
        "astId": 19160,
        "contract": "contracts/bonding/BondingManager.sol:BondingManager",
        "label": "transcoderPool",
        "offset": 0,
        "slot": "7",
        "type": "t_struct(Data)25400_storage"
      },
      {
        "astId": 19162,
        "contract": "contracts/bonding/BondingManager.sol:BondingManager",
        "label": "treasuryRewardCutRate",
        "offset": 0,
        "slot": "12",
        "type": "t_uint256"
      },
      {
        "astId": 19164,
        "contract": "contracts/bonding/BondingManager.sol:BondingManager",
        "label": "nextRoundTreasuryRewardCutRate",
        "offset": 0,
        "slot": "13",
        "type": "t_uint256"
      },
      {
        "astId": 19166,
        "contract": "contracts/bonding/BondingManager.sol:BondingManager",
        "label": "treasuryBalanceCeiling",
        "offset": 0,
        "slot": "14",
        "type": "t_uint256"
      }
    ],
    "types": {
      "t_address": {
        "encoding": "inplace",
        "label": "address",
        "numberOfBytes": "20"
      },
      "t_bytes32": {
        "encoding": "inplace",
        "label": "bytes32",
        "numberOfBytes": "32"
      },
      "t_contract(IController)18767": {
        "encoding": "inplace",
        "label": "contract IController",
        "numberOfBytes": "20"
      },
      "t_mapping(t_address,t_struct(Delegator)19134_storage)": {
        "encoding": "mapping",
        "key": "t_address",
        "label": "mapping(address => struct BondingManager.Delegator)",
        "numberOfBytes": "32",
        "value": "t_struct(Delegator)19134_storage"
      },
      "t_mapping(t_address,t_struct(Node)25386_storage)": {
        "encoding": "mapping",
        "key": "t_address",
        "label": "mapping(address => struct SortedDoublyLL.Node)",
        "numberOfBytes": "32",
        "value": "t_struct(Node)25386_storage"
      },
      "t_mapping(t_address,t_struct(Transcoder)19111_storage)": {
        "encoding": "mapping",
        "key": "t_address",
        "label": "mapping(address => struct BondingManager.Transcoder)",
        "numberOfBytes": "32",
        "value": "t_struct(Transcoder)19111_storage"
      },
      "t_mapping(t_uint256,t_struct(Data)24366_storage)": {
        "encoding": "mapping",
        "key": "t_uint256",
        "label": "mapping(uint256 => struct EarningsPool.Data)",
        "numberOfBytes": "32",
        "value": "t_struct(Data)24366_storage"
      },
      "t_mapping(t_uint256,t_struct(UnbondingLock)19143_storage)": {
        "encoding": "mapping",
        "key": "t_uint256",
        "label": "mapping(uint256 => struct BondingManager.UnbondingLock)",
        "numberOfBytes": "32",
        "value": "t_struct(UnbondingLock)19143_storage"
      },
      "t_struct(Data)24366_storage": {
        "encoding": "inplace",
        "label": "struct EarningsPool.Data",
        "members": [
          {
            "astId": 24357,
            "contract": "contracts/bonding/BondingManager.sol:BondingManager",
            "label": "totalStake",
            "offset": 0,
            "slot": "0",
            "type": "t_uint256"
          },
          {
            "astId": 24359,
            "contract": "contracts/bonding/BondingManager.sol:BondingManager",
            "label": "transcoderRewardCut",
            "offset": 0,
            "slot": "1",
            "type": "t_uint256"
          },
          {
            "astId": 24361,
            "contract": "contracts/bonding/BondingManager.sol:BondingManager",
            "label": "transcoderFeeShare",
            "offset": 0,
            "slot": "2",
            "type": "t_uint256"
          },
          {
            "astId": 24363,
            "contract": "contracts/bonding/BondingManager.sol:BondingManager",
            "label": "cumulativeRewardFactor",
            "offset": 0,
            "slot": "3",
            "type": "t_uint256"
          },
          {
            "astId": 24365,
            "contract": "contracts/bonding/BondingManager.sol:BondingManager",
            "label": "cumulativeFeeFactor",
            "offset": 0,
            "slot": "4",
            "type": "t_uint256"
          }
        ],
        "numberOfBytes": "160"
      },
      "t_struct(Data)25400_storage": {
        "encoding": "inplace",
        "label": "struct SortedDoublyLL.Data",
        "members": [
          {
            "astId": 25388,
            "contract": "contracts/bonding/BondingManager.sol:BondingManager",
            "label": "head",
            "offset": 0,
            "slot": "0",
            "type": "t_address"
          },
          {
            "astId": 25390,
            "contract": "contracts/bonding/BondingManager.sol:BondingManager",
            "label": "tail",
            "offset": 0,
            "slot": "1",
            "type": "t_address"
          },
          {
            "astId": 25392,
            "contract": "contracts/bonding/BondingManager.sol:BondingManager",
            "label": "maxSize",
            "offset": 0,
            "slot": "2",
            "type": "t_uint256"
          },
          {
            "astId": 25394,
            "contract": "contracts/bonding/BondingManager.sol:BondingManager",
            "label": "size",
            "offset": 0,
            "slot": "3",
            "type": "t_uint256"
          },
          {
            "astId": 25399,
            "contract": "contracts/bonding/BondingManager.sol:BondingManager",
            "label": "nodes",
            "offset": 0,
            "slot": "4",
            "type": "t_mapping(t_address,t_struct(Node)25386_storage)"
          }
        ],
        "numberOfBytes": "160"
      },
      "t_struct(Delegator)19134_storage": {
        "encoding": "inplace",
        "label": "struct BondingManager.Delegator",
        "members": [
          {
            "astId": 19116,
            "contract": "contracts/bonding/BondingManager.sol:BondingManager",
            "label": "bondedAmount",
            "offset": 0,
            "slot": "0",
            "type": "t_uint256"
          },
          {
            "astId": 19118,
            "contract": "contracts/bonding/BondingManager.sol:BondingManager",
            "label": "fees",
            "offset": 0,
            "slot": "1",
            "type": "t_uint256"
          },
          {
            "astId": 19120,
            "contract": "contracts/bonding/BondingManager.sol:BondingManager",
            "label": "delegateAddress",
            "offset": 0,
            "slot": "2",
            "type": "t_address"
          },
          {
            "astId": 19122,
            "contract": "contracts/bonding/BondingManager.sol:BondingManager",
            "label": "delegatedAmount",
            "offset": 0,
            "slot": "3",
            "type": "t_uint256"
          },
          {
            "astId": 19124,
            "contract": "contracts/bonding/BondingManager.sol:BondingManager",
            "label": "startRound",
            "offset": 0,
            "slot": "4",
            "type": "t_uint256"
          },
          {
            "astId": 19126,
            "contract": "contracts/bonding/BondingManager.sol:BondingManager",
            "label": "lastClaimRound",
            "offset": 0,
            "slot": "5",
            "type": "t_uint256"
          },
          {
            "astId": 19128,
            "contract": "contracts/bonding/BondingManager.sol:BondingManager",
            "label": "nextUnbondingLockId",
            "offset": 0,
            "slot": "6",
            "type": "t_uint256"
          },
          {
            "astId": 19133,
            "contract": "contracts/bonding/BondingManager.sol:BondingManager",
            "label": "unbondingLocks",
            "offset": 0,
            "slot": "7",
            "type": "t_mapping(t_uint256,t_struct(UnbondingLock)19143_storage)"
          }
        ],
        "numberOfBytes": "256"
      },
      "t_struct(Node)25386_storage": {
        "encoding": "inplace",
        "label": "struct SortedDoublyLL.Node",
        "members": [
          {
            "astId": 25381,
            "contract": "contracts/bonding/BondingManager.sol:BondingManager",
            "label": "key",
            "offset": 0,
            "slot": "0",
            "type": "t_uint256"
          },
          {
            "astId": 25383,
            "contract": "contracts/bonding/BondingManager.sol:BondingManager",
            "label": "nextId",
            "offset": 0,
            "slot": "1",
            "type": "t_address"
          },
          {
            "astId": 25385,
            "contract": "contracts/bonding/BondingManager.sol:BondingManager",
            "label": "prevId",
            "offset": 0,
            "slot": "2",
            "type": "t_address"
          }
        ],
        "numberOfBytes": "96"
      },
      "t_struct(Transcoder)19111_storage": {
        "encoding": "inplace",
        "label": "struct BondingManager.Transcoder",
        "members": [
          {
            "astId": 19087,
            "contract": "contracts/bonding/BondingManager.sol:BondingManager",
            "label": "lastRewardRound",
            "offset": 0,
            "slot": "0",
            "type": "t_uint256"
          },
          {
            "astId": 19089,
            "contract": "contracts/bonding/BondingManager.sol:BondingManager",
            "label": "rewardCut",
            "offset": 0,
            "slot": "1",
            "type": "t_uint256"
          },
          {
            "astId": 19091,
            "contract": "contracts/bonding/BondingManager.sol:BondingManager",
            "label": "feeShare",
            "offset": 0,
            "slot": "2",
            "type": "t_uint256"
          },
          {
            "astId": 19096,
            "contract": "contracts/bonding/BondingManager.sol:BondingManager",
            "label": "earningsPoolPerRound",
            "offset": 0,
            "slot": "3",
            "type": "t_mapping(t_uint256,t_struct(Data)24366_storage)"
          },
          {
            "astId": 19098,
            "contract": "contracts/bonding/BondingManager.sol:BondingManager",
            "label": "lastActiveStakeUpdateRound",
            "offset": 0,
            "slot": "4",
            "type": "t_uint256"
          },
          {
            "astId": 19100,
            "contract": "contracts/bonding/BondingManager.sol:BondingManager",
            "label": "activationRound",
            "offset": 0,
            "slot": "5",
            "type": "t_uint256"
          },
          {
            "astId": 19102,
            "contract": "contracts/bonding/BondingManager.sol:BondingManager",
            "label": "deactivationRound",
            "offset": 0,
            "slot": "6",
            "type": "t_uint256"
          },
          {
            "astId": 19104,
            "contract": "contracts/bonding/BondingManager.sol:BondingManager",
            "label": "activeCumulativeRewards",
            "offset": 0,
            "slot": "7",
            "type": "t_uint256"
          },
          {
            "astId": 19106,
            "contract": "contracts/bonding/BondingManager.sol:BondingManager",
            "label": "cumulativeRewards",
            "offset": 0,
            "slot": "8",
            "type": "t_uint256"
          },
          {
            "astId": 19108,
            "contract": "contracts/bonding/BondingManager.sol:BondingManager",
            "label": "cumulativeFees",
            "offset": 0,
            "slot": "9",
            "type": "t_uint256"
          },
          {
            "astId": 19110,
            "contract": "contracts/bonding/BondingManager.sol:BondingManager",
            "label": "lastFeeRound",
            "offset": 0,
            "slot": "10",
            "type": "t_uint256"
          }
        ],
        "numberOfBytes": "352"
      },
      "t_struct(UnbondingLock)19143_storage": {
        "encoding": "inplace",
        "label": "struct BondingManager.UnbondingLock",
        "members": [
          {
            "astId": 19140,
            "contract": "contracts/bonding/BondingManager.sol:BondingManager",
            "label": "amount",
            "offset": 0,
            "slot": "0",
            "type": "t_uint256"
          },
          {
            "astId": 19142,
            "contract": "contracts/bonding/BondingManager.sol:BondingManager",
            "label": "withdrawRound",
            "offset": 0,
            "slot": "1",
            "type": "t_uint256"
          }
        ],
        "numberOfBytes": "64"
      },
      "t_uint256": {
        "encoding": "inplace",
        "label": "uint256",
        "numberOfBytes": "32"
      },
      "t_uint64": {
        "encoding": "inplace",
        "label": "uint64",
        "numberOfBytes": "8"
      }
    }
  }
}