{
  "address": "0x557093B1Ab53412166beAd939f34244170b6525B",
  "abi": [
    {
      "inputs": [
        {
          "internalType": "address",
          "name": "_controller",
          "type": "address"
        }
      ],
      "stateMutability": "nonpayable",
      "type": "constructor"
    },
    {
      "anonymous": false,
      "inputs": [
        {
          "indexed": true,
          "internalType": "address",
          "name": "newDelegate",
          "type": "address"
        },
        {
          "indexed": true,
          "internalType": "address",
          "name": "oldDelegate",
          "type": "address"
        },
        {
          "indexed": true,
          "internalType": "address",
          "name": "delegator",
          "type": "address"
        },
        {
          "indexed": false,
          "internalType": "uint256",
          "name": "additionalAmount",
          "type": "uint256"
        },
        {
          "indexed": false,
          "internalType": "uint256",
          "name": "bondedAmount",
          "type": "uint256"
        }
      ],
      "name": "Bond",
      "type": "event"
    },
    {
      "anonymous": false,
      "inputs": [
        {
          "indexed": true,
          "internalType": "address",
          "name": "delegate",
          "type": "address"
        },
        {
          "indexed": true,
          "internalType": "address",
          "name": "delegator",
          "type": "address"
        },
        {
          "indexed": false,
          "internalType": "uint256",
          "name": "rewards",
          "type": "uint256"
        },
        {
          "indexed": false,
          "internalType": "uint256",
          "name": "fees",
          "type": "uint256"
        },
        {
          "indexed": false,
          "internalType": "uint256",
          "name": "startRound",
          "type": "uint256"
        },
        {
          "indexed": false,
          "internalType": "uint256",
          "name": "endRound",
          "type": "uint256"
        }
      ],
      "name": "EarningsClaimed",
      "type": "event"
    },
    {
      "anonymous": false,
      "inputs": [
        {
          "indexed": false,
          "internalType": "string",
          "name": "param",
          "type": "string"
        }
      ],
      "name": "ParameterUpdate",
      "type": "event"
    },
    {
      "anonymous": false,
      "inputs": [
        {
          "indexed": true,
          "internalType": "address",
          "name": "delegate",
          "type": "address"
        },
        {
          "indexed": true,
          "internalType": "address",
          "name": "delegator",
          "type": "address"
        },
        {
          "indexed": false,
          "internalType": "uint256",
          "name": "unbondingLockId",
          "type": "uint256"
        },
        {
          "indexed": false,
          "internalType": "uint256",
          "name": "amount",
          "type": "uint256"
        }
      ],
      "name": "Rebond",
      "type": "event"
    },
    {
      "anonymous": false,
      "inputs": [
        {
          "indexed": true,
          "internalType": "address",
          "name": "transcoder",
          "type": "address"
        },
        {
          "indexed": false,
          "internalType": "uint256",
          "name": "amount",
          "type": "uint256"
        }
      ],
      "name": "Reward",
      "type": "event"
    },
    {
      "anonymous": false,
      "inputs": [
        {
          "indexed": false,
          "internalType": "address",
          "name": "controller",
          "type": "address"
        }
      ],
      "name": "SetController",
      "type": "event"
    },
    {
      "anonymous": false,
      "inputs": [
        {
          "indexed": true,
          "internalType": "address",
          "name": "transcoder",
          "type": "address"
        },
        {
          "indexed": false,
          "internalType": "uint256",
          "name": "activationRound",
          "type": "uint256"
        }
      ],
      "name": "TranscoderActivated",
      "type": "event"
    },
    {
      "anonymous": false,
      "inputs": [
        {
          "indexed": true,
          "internalType": "address",
          "name": "transcoder",
          "type": "address"
        },
        {
          "indexed": false,
          "internalType": "uint256",
          "name": "deactivationRound",
          "type": "uint256"
        }
      ],
      "name": "TranscoderDeactivated",
      "type": "event"
    },
    {
      "anonymous": false,
      "inputs": [
        {
          "indexed": true,
          "internalType": "address",
          "name": "transcoder",
          "type": "address"
        },
        {
          "indexed": false,
          "internalType": "address",
          "name": "finder",
          "type": "address"
        },
        {
          "indexed": false,
          "internalType": "uint256",
          "name": "penalty",
          "type": "uint256"
        },
        {
          "indexed": false,
          "internalType": "uint256",
          "name": "finderReward",
          "type": "uint256"
        }
      ],
      "name": "TranscoderSlashed",
      "type": "event"
    },
    {
      "anonymous": false,
      "inputs": [
        {
          "indexed": true,
          "internalType": "address",
          "name": "transcoder",
          "type": "address"
        },
        {
          "indexed": false,
          "internalType": "uint256",
          "name": "rewardCut",
          "type": "uint256"
        },
        {
          "indexed": false,
          "internalType": "uint256",
          "name": "feeShare",
          "type": "uint256"
        }
      ],
      "name": "TranscoderUpdate",
      "type": "event"
    },
    {
      "anonymous": false,
      "inputs": [
        {
          "indexed": true,
          "internalType": "address",
          "name": "oldDelegator",
          "type": "address"
        },
        {
          "indexed": true,
          "internalType": "address",
          "name": "newDelegator",
          "type": "address"
        },
        {
          "indexed": false,
          "internalType": "uint256",
          "name": "oldUnbondingLockId",
          "type": "uint256"
        },
        {
          "indexed": false,
          "internalType": "uint256",
          "name": "newUnbondingLockId",
          "type": "uint256"
        },
        {
          "indexed": false,
          "internalType": "uint256",
          "name": "amount",
          "type": "uint256"
        }
      ],
      "name": "TransferBond",
      "type": "event"
    },
    {
      "anonymous": false,
      "inputs": [
        {
          "indexed": true,
          "internalType": "address",
          "name": "transcoder",
          "type": "address"
        },
        {
          "indexed": false,
          "internalType": "address",
          "name": "treasury",
          "type": "address"
        },
        {
          "indexed": false,
          "internalType": "uint256",
          "name": "amount",
          "type": "uint256"
        }
      ],
      "name": "TreasuryReward",
      "type": "event"
    },
    {
      "anonymous": false,
      "inputs": [
        {
          "indexed": true,
          "internalType": "address",
          "name": "delegate",
          "type": "address"
        },
        {
          "indexed": true,
          "internalType": "address",
          "name": "delegator",
          "type": "address"
        },
        {
          "indexed": false,
          "internalType": "uint256",
          "name": "unbondingLockId",
          "type": "uint256"
        },
        {
          "indexed": false,
          "internalType": "uint256",
          "name": "amount",
          "type": "uint256"
        },
        {
          "indexed": false,
          "internalType": "uint256",
          "name": "withdrawRound",
          "type": "uint256"
        }
      ],
      "name": "Unbond",
      "type": "event"
    },
    {
      "anonymous": false,
      "inputs": [
        {
          "indexed": true,
          "internalType": "address",
          "name": "delegator",
          "type": "address"
        },
        {
          "indexed": false,
          "internalType": "address",
          "name": "recipient",
          "type": "address"
        },
        {
          "indexed": false,
          "internalType": "uint256",
          "name": "amount",
          "type": "uint256"
        }
      ],
      "name": "WithdrawFees",
      "type": "event"
    },
    {
      "anonymous": false,
      "inputs": [
        {
          "indexed": true,
          "internalType": "address",
          "name": "delegator",
          "type": "address"
        },
        {
          "indexed": false,
          "internalType": "uint256",
          "name": "unbondingLockId",
          "type": "uint256"
        },
        {
          "indexed": false,
          "internalType": "uint256",
          "name": "amount",
          "type": "uint256"
        },
        {
          "indexed": false,
          "internalType": "uint256",
          "name": "withdrawRound",
          "type": "uint256"
        }
      ],
      "name": "WithdrawStake",
      "type": "event"
    },
    {
      "inputs": [
        {
          "internalType": "uint256",
          "name": "_amount",
          "type": "uint256"
        },
        {
          "internalType": "address",
          "name": "_to",
          "type": "address"
        }
      ],
      "name": "bond",
      "outputs": [],
      "stateMutability": "nonpayable",
      "type": "function"
    },
    {
      "inputs": [
        {
          "internalType": "uint256",
          "name": "_amount",
          "type": "uint256"
        },
        {
          "internalType": "address",
          "name": "_owner",
          "type": "address"
        },
        {
          "internalType": "address",
          "name": "_to",
          "type": "address"
        },
        {
          "internalType": "address",
          "name": "_oldDelegateNewPosPrev",
          "type": "address"
        },
        {
          "internalType": "address",
          "name": "_oldDelegateNewPosNext",
          "type": "address"
        },
        {
          "internalType": "address",
          "name": "_currDelegateNewPosPrev",
          "type": "address"
        },
        {
          "internalType": "address",
          "name": "_currDelegateNewPosNext",
          "type": "address"
        }
      ],
      "name": "bondForWithHint",
      "outputs": [],
      "stateMutability": "nonpayable",
      "type": "function"
    },
    {
      "inputs": [
        {
          "internalType": "uint256",
          "name": "_amount",
          "type": "uint256"
        },
        {
          "internalType": "address",
          "name": "_to",
          "type": "address"
        },
        {
          "internalType": "address",
          "name": "_oldDelegateNewPosPrev",
          "type": "address"
        },
        {
          "internalType": "address",
          "name": "_oldDelegateNewPosNext",
          "type": "address"
        },
        {
          "internalType": "address",
          "name": "_currDelegateNewPosPrev",
          "type": "address"
        },
        {
          "internalType": "address",
          "name": "_currDelegateNewPosNext",
          "type": "address"
        }
      ],
      "name": "bondWithHint",
      "outputs": [],
      "stateMutability": "nonpayable",
      "type": "function"
    },
    {
      "inputs": [
        {
          "internalType": "address",
          "name": "_account",
          "type": "address"
        }
      ],
      "name": "checkpointBondingState",
      "outputs": [],
      "stateMutability": "nonpayable",
      "type": "function"
    },
    {
      "inputs": [
        {
          "internalType": "uint256",
          "name": "_endRound",
          "type": "uint256"
        }
      ],
      "name": "claimEarnings",
      "outputs": [],
      "stateMutability": "nonpayable",
      "type": "function"
    },
    {
      "inputs": [],
      "name": "controller",
      "outputs": [
        {
          "internalType": "contract IController",
          "name": "",
          "type": "address"
        }
      ],
      "stateMutability": "view",
      "type": "function"
    },
    {
      "inputs": [],
      "name": "currentRoundTotalActiveStake",
      "outputs": [
        {
          "internalType": "uint256",
          "name": "",
          "type": "uint256"
        }
      ],
      "stateMutability": "view",
      "type": "function"
    },
    {
      "inputs": [
        {
          "internalType": "address",
          "name": "_delegator",
          "type": "address"
        }
      ],
      "name": "delegatorStatus",
      "outputs": [
        {
          "internalType": "enum BondingManager.DelegatorStatus",
          "name": "",
          "type": "uint8"
        }
      ],
      "stateMutability": "view",
      "type": "function"
    },
    {
      "inputs": [
        {
          "internalType": "address",
          "name": "_delegator",
          "type": "address"
        }
      ],
      "name": "getDelegator",
      "outputs": [
        {
          "internalType": "uint256",
          "name": "bondedAmount",
          "type": "uint256"
        },
        {
          "internalType": "uint256",
          "name": "fees",
          "type": "uint256"
        },
        {
          "internalType": "address",
          "name": "delegateAddress",
          "type": "address"
        },
        {
          "internalType": "uint256",
          "name": "delegatedAmount",
          "type": "uint256"
        },
        {
          "internalType": "uint256",
          "name": "startRound",
          "type": "uint256"
        },
        {
          "internalType": "uint256",
          "name": "lastClaimRound",
          "type": "uint256"
        },
        {
          "internalType": "uint256",
          "name": "nextUnbondingLockId",
          "type": "uint256"
        }
      ],
      "stateMutability": "view",
      "type": "function"
    },
    {
      "inputs": [
        {
          "internalType": "address",
          "name": "_delegator",
          "type": "address"
        },
        {
          "internalType": "uint256",
          "name": "_unbondingLockId",
          "type": "uint256"
        }
      ],
      "name": "getDelegatorUnbondingLock",
      "outputs": [
        {
          "internalType": "uint256",
          "name": "amount",
          "type": "uint256"
        },
        {
          "internalType": "uint256",
          "name": "withdrawRound",
          "type": "uint256"
        }
      ],
      "stateMutability": "view",
      "type": "function"
    },
    {
      "inputs": [],
      "name": "getFirstTranscoderInPool",
      "outputs": [
        {
          "internalType": "address",
          "name": "",
          "type": "address"
        }
      ],
      "stateMutability": "view",
      "type": "function"
    },
    {
      "inputs": [
        {
          "internalType": "address",
          "name": "_transcoder",
          "type": "address"
        }
      ],
      "name": "getNextTranscoderInPool",
      "outputs": [
        {
          "internalType": "address",
          "name": "",
          "type": "address"
        }
      ],
      "stateMutability": "view",
      "type": "function"
    },
    {
      "inputs": [],
      "name": "getTotalBonded",
      "outputs": [
        {
          "internalType": "uint256",
          "name": "",
          "type": "uint256"
        }
      ],
      "stateMutability": "view",
      "type": "function"
    },
    {
      "inputs": [
        {
          "internalType": "address",
          "name": "_transcoder",
          "type": "address"
        }
      ],
      "name": "getTranscoder",
      "outputs": [
        {
          "internalType": "uint256",
          "name": "lastRewardRound",
          "type": "uint256"
        },
        {
          "internalType": "uint256",
          "name": "rewardCut",
          "type": "uint256"
        },
        {
          "internalType": "uint256",
          "name": "feeShare",
          "type": "uint256"
        },
        {
          "internalType": "uint256",
          "name": "lastActiveStakeUpdateRound",
          "type": "uint256"
        },
        {
          "internalType": "uint256",
          "name": "activationRound",
          "type": "uint256"
        },
        {
          "internalType": "uint256",
          "name": "deactivationRound",
          "type": "uint256"
        },
        {
          "internalType": "uint256",
          "name": "activeCumulativeRewards",
          "type": "uint256"
        },
        {
          "internalType": "uint256",
          "name": "cumulativeRewards",
          "type": "uint256"
        },
        {
          "internalType": "uint256",
          "name": "cumulativeFees",
          "type": "uint256"
        },
        {
          "internalType": "uint256",
          "name": "lastFeeRound",
          "type": "uint256"
        }
      ],
      "stateMutability": "view",
      "type": "function"
    },
    {
      "inputs": [
        {
          "internalType": "address",
          "name": "_transcoder",
          "type": "address"
        },
        {
          "internalType": "uint256",
          "name": "_round",
          "type": "uint256"
        }
      ],
      "name": "getTranscoderEarningsPoolForRound",
      "outputs": [
        {
          "internalType": "uint256",
          "name": "totalStake",
          "type": "uint256"
        },
        {
          "internalType": "uint256",
          "name": "transcoderRewardCut",
          "type": "uint256"
        },
        {
          "internalType": "uint256",
          "name": "transcoderFeeShare",
          "type": "uint256"
        },
        {
          "internalType": "uint256",
          "name": "cumulativeRewardFactor",
          "type": "uint256"
        },
        {
          "internalType": "uint256",
          "name": "cumulativeFeeFactor",
          "type": "uint256"
        }
      ],
      "stateMutability": "view",
      "type": "function"
    },
    {
      "inputs": [],
      "name": "getTranscoderPoolMaxSize",
      "outputs": [
        {
          "internalType": "uint256",
          "name": "",
          "type": "uint256"
        }
      ],
      "stateMutability": "view",
      "type": "function"
    },
    {
      "inputs": [],
      "name": "getTranscoderPoolSize",
      "outputs": [
        {
          "internalType": "uint256",
          "name": "",
          "type": "uint256"
        }
      ],
      "stateMutability": "view",
      "type": "function"
    },
    {
      "inputs": [
        {
          "internalType": "address",
          "name": "_transcoder",
          "type": "address"
        }
      ],
      "name": "isActiveTranscoder",
      "outputs": [
        {
          "internalType": "bool",
          "name": "",
          "type": "bool"
        }
      ],
      "stateMutability": "view",
      "type": "function"
    },
    {
      "inputs": [
        {
          "internalType": "address",
          "name": "_transcoder",
          "type": "address"
        }
      ],
      "name": "isRegisteredTranscoder",
      "outputs": [
        {
          "internalType": "bool",
          "name": "",
          "type": "bool"
        }
      ],
      "stateMutability": "view",
      "type": "function"
    },
    {
      "inputs": [
        {
          "internalType": "address",
          "name": "_delegator",
          "type": "address"
        },
        {
          "internalType": "uint256",
          "name": "_unbondingLockId",
          "type": "uint256"
        }
      ],
      "name": "isValidUnbondingLock",
      "outputs": [
        {
          "internalType": "bool",
          "name": "",
          "type": "bool"
        }
      ],
      "stateMutability": "view",
      "type": "function"
    },
    {
      "inputs": [],
      "name": "nextRoundTotalActiveStake",
      "outputs": [
        {
          "internalType": "uint256",
          "name": "",
          "type": "uint256"
        }
      ],
      "stateMutability": "view",
      "type": "function"
    },
    {
      "inputs": [],
      "name": "nextRoundTreasuryRewardCutRate",
      "outputs": [
        {
          "internalType": "uint256",
          "name": "",
          "type": "uint256"
        }
      ],
      "stateMutability": "view",
      "type": "function"
    },
    {
      "inputs": [
        {
          "internalType": "address",
          "name": "_delegator",
          "type": "address"
        },
        {
          "internalType": "uint256",
          "name": "_endRound",
          "type": "uint256"
        }
      ],
      "name": "pendingFees",
      "outputs": [
        {
          "internalType": "uint256",
          "name": "",
          "type": "uint256"
        }
      ],
      "stateMutability": "view",
      "type": "function"
    },
    {
      "inputs": [
        {
          "internalType": "address",
          "name": "_delegator",
          "type": "address"
        },
        {
          "internalType": "uint256",
          "name": "_endRound",
          "type": "uint256"
        }
      ],
      "name": "pendingStake",
      "outputs": [
        {
          "internalType": "uint256",
          "name": "",
          "type": "uint256"
        }
      ],
      "stateMutability": "view",
      "type": "function"
    },
    {
      "inputs": [
        {
          "internalType": "uint256",
          "name": "_unbondingLockId",
          "type": "uint256"
        }
      ],
      "name": "rebond",
      "outputs": [],
      "stateMutability": "nonpayable",
      "type": "function"
    },
    {
      "inputs": [
        {
          "internalType": "address",
          "name": "_to",
          "type": "address"
        },
        {
          "internalType": "uint256",
          "name": "_unbondingLockId",
          "type": "uint256"
        }
      ],
      "name": "rebondFromUnbonded",
      "outputs": [],
      "stateMutability": "nonpayable",
      "type": "function"
    },
    {
      "inputs": [
        {
          "internalType": "address",
          "name": "_to",
          "type": "address"
        },
        {
          "internalType": "uint256",
          "name": "_unbondingLockId",
          "type": "uint256"
        },
        {
          "internalType": "address",
          "name": "_newPosPrev",
          "type": "address"
        },
        {
          "internalType": "address",
          "name": "_newPosNext",
          "type": "address"
        }
      ],
      "name": "rebondFromUnbondedWithHint",
      "outputs": [],
      "stateMutability": "nonpayable",
      "type": "function"
    },
    {
      "inputs": [
        {
          "internalType": "uint256",
          "name": "_unbondingLockId",
          "type": "uint256"
        },
        {
          "internalType": "address",
          "name": "_newPosPrev",
          "type": "address"
        },
        {
          "internalType": "address",
          "name": "_newPosNext",
          "type": "address"
        }
      ],
      "name": "rebondWithHint",
      "outputs": [],
      "stateMutability": "nonpayable",
      "type": "function"
    },
    {
      "inputs": [],
      "name": "reward",
      "outputs": [],
      "stateMutability": "nonpayable",
      "type": "function"
    },
    {
      "inputs": [
        {
          "internalType": "address",
          "name": "_newPosPrev",
          "type": "address"
        },
        {
          "internalType": "address",
          "name": "_newPosNext",
          "type": "address"
        }
      ],
      "name": "rewardWithHint",
      "outputs": [],
      "stateMutability": "nonpayable",
      "type": "function"
    },
    {
      "inputs": [
        {
          "internalType": "address",
          "name": "_controller",
          "type": "address"
        }
      ],
      "name": "setController",
      "outputs": [],
      "stateMutability": "nonpayable",
      "type": "function"
    },
    {
      "inputs": [],
      "name": "setCurrentRoundTotalActiveStake",
      "outputs": [],
      "stateMutability": "nonpayable",
      "type": "function"
    },
    {
      "inputs": [
        {
          "internalType": "uint256",
          "name": "_numActiveTranscoders",
          "type": "uint256"
        }
      ],
      "name": "setNumActiveTranscoders",
      "outputs": [],
      "stateMutability": "nonpayable",
      "type": "function"
    },
    {
      "inputs": [
        {
          "internalType": "uint256",
          "name": "_ceiling",
          "type": "uint256"
        }
      ],
      "name": "setTreasuryBalanceCeiling",
      "outputs": [],
      "stateMutability": "nonpayable",
      "type": "function"
    },
    {
      "inputs": [
        {
          "internalType": "uint256",
          "name": "_cutRate",
          "type": "uint256"
        }
      ],
      "name": "setTreasuryRewardCutRate",
      "outputs": [],
      "stateMutability": "nonpayable",
      "type": "function"
    },
    {
      "inputs": [
        {
          "internalType": "uint64",
          "name": "_unbondingPeriod",
          "type": "uint64"
        }
      ],
      "name": "setUnbondingPeriod",
      "outputs": [],
      "stateMutability": "nonpayable",
      "type": "function"
    },
    {
      "inputs": [
        {
          "internalType": "address",
          "name": "_transcoder",
          "type": "address"
        },
        {
          "internalType": "address",
          "name": "_finder",
          "type": "address"
        },
        {
          "internalType": "uint256",
          "name": "_slashAmount",
          "type": "uint256"
        },
        {
          "internalType": "uint256",
          "name": "_finderFee",
          "type": "uint256"
        }
      ],
      "name": "slashTranscoder",
      "outputs": [],
      "stateMutability": "nonpayable",
      "type": "function"
    },
    {
      "inputs": [],
      "name": "targetContractId",
      "outputs": [
        {
          "internalType": "bytes32",
          "name": "",
          "type": "bytes32"
        }
      ],
      "stateMutability": "view",
      "type": "function"
    },
    {
      "inputs": [
        {
          "internalType": "uint256",
          "name": "_rewardCut",
          "type": "uint256"
        },
        {
          "internalType": "uint256",
          "name": "_feeShare",
          "type": "uint256"
        }
      ],
      "name": "transcoder",
      "outputs": [],
      "stateMutability": "nonpayable",
      "type": "function"
    },
    {
      "inputs": [
        {
          "internalType": "address",
          "name": "_transcoder",
          "type": "address"
        }
      ],
      "name": "transcoderStatus",
      "outputs": [
        {
          "internalType": "enum BondingManager.TranscoderStatus",
          "name": "",
          "type": "uint8"
        }
      ],
      "stateMutability": "view",
      "type": "function"
    },
    {
      "inputs": [
        {
          "internalType": "address",
          "name": "_transcoder",
          "type": "address"
        }
      ],
      "name": "transcoderTotalStake",
      "outputs": [
        {
          "internalType": "uint256",
          "name": "",
          "type": "uint256"
        }
      ],
      "stateMutability": "view",
      "type": "function"
    },
    {
      "inputs": [
        {
          "internalType": "uint256",
          "name": "_rewardCut",
          "type": "uint256"
        },
        {
          "internalType": "uint256",
          "name": "_feeShare",
          "type": "uint256"
        },
        {
          "internalType": "address",
          "name": "_newPosPrev",
          "type": "address"
        },
        {
          "internalType": "address",
          "name": "_newPosNext",
          "type": "address"
        }
      ],
      "name": "transcoderWithHint",
      "outputs": [],
      "stateMutability": "nonpayable",
      "type": "function"
    },
    {
      "inputs": [
        {
          "internalType": "address",
          "name": "_delegator",
          "type": "address"
        },
        {
          "internalType": "uint256",
          "name": "_amount",
          "type": "uint256"
        },
        {
          "internalType": "address",
          "name": "_oldDelegateNewPosPrev",
          "type": "address"
        },
        {
          "internalType": "address",
          "name": "_oldDelegateNewPosNext",
          "type": "address"
        },
        {
          "internalType": "address",
          "name": "_newDelegateNewPosPrev",
          "type": "address"
        },
        {
          "internalType": "address",
          "name": "_newDelegateNewPosNext",
          "type": "address"
        }
      ],
      "name": "transferBond",
      "outputs": [],
      "stateMutability": "nonpayable",
      "type": "function"
    },
    {
      "inputs": [],
      "name": "treasuryBalanceCeiling",
      "outputs": [
        {
          "internalType": "uint256",
          "name": "",
          "type": "uint256"
        }
      ],
      "stateMutability": "view",
      "type": "function"
    },
    {
      "inputs": [],
      "name": "treasuryRewardCutRate",
      "outputs": [
        {
          "internalType": "uint256",
          "name": "",
          "type": "uint256"
        }
      ],
      "stateMutability": "view",
      "type": "function"
    },
    {
      "inputs": [
        {
          "internalType": "uint256",
          "name": "_amount",
          "type": "uint256"
        }
      ],
      "name": "unbond",
      "outputs": [],
      "stateMutability": "nonpayable",
      "type": "function"
    },
    {
      "inputs": [
        {
          "internalType": "uint256",
          "name": "_amount",
          "type": "uint256"
        },
        {
          "internalType": "address",
          "name": "_newPosPrev",
          "type": "address"
        },
        {
          "internalType": "address",
          "name": "_newPosNext",
          "type": "address"
        }
      ],
      "name": "unbondWithHint",
      "outputs": [],
      "stateMutability": "nonpayable",
      "type": "function"
    },
    {
      "inputs": [],
      "name": "unbondingPeriod",
      "outputs": [
        {
          "internalType": "uint64",
          "name": "",
          "type": "uint64"
        }
      ],
      "stateMutability": "view",
      "type": "function"
    },
    {
      "inputs": [
        {
          "internalType": "address",
          "name": "_transcoder",
          "type": "address"
        },
        {
          "internalType": "uint256",
          "name": "_fees",
          "type": "uint256"
        },
        {
          "internalType": "uint256",
          "name": "_round",
          "type": "uint256"
        }
      ],
      "name": "updateTranscoderWithFees",
      "outputs": [],
      "stateMutability": "nonpayable",
      "type": "function"
    },
    {
      "inputs": [
        {
          "internalType": "address payable",
          "name": "_recipient",
          "type": "address"
        },
        {
          "internalType": "uint256",
          "name": "_amount",
          "type": "uint256"
        }
      ],
      "name": "withdrawFees",
      "outputs": [],
      "stateMutability": "nonpayable",
      "type": "function"
    },
    {
      "inputs": [
        {
          "internalType": "uint256",
          "name": "_unbondingLockId",
          "type": "uint256"
        }
      ],
      "name": "withdrawStake",
      "outputs": [],
      "stateMutability": "nonpayable",
      "type": "function"
    }
  ],
  "transactionHash": "0xda739f211a37d8e1d5dd3df7f5137201d75408a146889ffdff68c64a94899539",
  "args": [
    "0xD8E8328501E9645d16Cf49539efC04f734606ee4"
  ],
  "numDeployments": 8,
  "solcInputHash": "4453767352a742839dd2030ae7070f8c",
  "bytecode": "0x60806040523480156200001157600080fd5b506040516200553f3803806200553f83398101604081905262000034916200005a565b600080546001600160a01b0319166001600160a01b03929092169190911790556200008c565b6000602082840312156200006d57600080fd5b81516001600160a01b03811681146200008557600080fd5b9392505050565b6154a3806200009c6000396000f3fe608060405234801561001057600080fd5b50600436106102f15760003560e01c80635dce99481161019d5780639d0b2c7a116100e9578063cf33a0d5116100a2578063ee4e804a1161007c578063ee4e804a1461083d578063f10d1de114610850578063f595f1cc14610863578063f77c47911461087657600080fd5b8063cf33a0d514610804578063d52bd62b14610817578063eaffb3f91461082a57600080fd5b80639d0b2c7a146107115780639ef9df9414610724578063a576623114610737578063a64ad59514610740578063ad3b1b47146107de578063b78d27dc146107f157600080fd5b80637fc4606f1161015657806388a6c7491161013057806388a6c749146106c35780638b2f1652146106cb57806392eefe9b146106eb5780639500ed9b146106fe57600080fd5b80637fc4606f1461069457806381871056146106a757806384a16bbc146106ba57600080fd5b80635dce994814610574578063673a456b1461062657806368ba170c146106395780636bd9add41461064c5780636cf6d6751461065f578063713f22161461068c57600080fd5b80632a4e0d551161025c5780634196ee751161021557806351720b41116101ef57806351720b4114610552578063558f8f441461055b5780635a2a75a9146105645780635c50c3561461056c57600080fd5b80634196ee751461052d57806343d3461a14610536578063465501d31461054957600080fd5b80632a4e0d55146104745780633550aa101461048a5780633a080e931461049d5780633aeb512c146104b057806340e6f271146104c3578063412f83b6146104d657600080fd5b806322bf9d7c116102ae57806322bf9d7c14610381578063235c96031461039457806324454fc4146103bf57806324b1babf1461043b57806325d5971f1461044e57806327de9e321461046157600080fd5b80630584a373146102f6578063062e98b81461030b578063088023741461031e5780630fd02fc1146103465780631544fc6714610359578063228cb73314610379575b600080fd5b610309610304366004614f46565b610889565b005b610309610319366004614f99565b6109eb565b61033161032c366004615012565b610cc0565b60405190151581526020015b60405180910390f35b61033161035436600461502f565b610d72565b61036c610367366004615012565b610da3565b60405161033d9190615071565b610309610e5f565b61030961038f36600461508b565b610e6c565b6103a76103a2366004615012565b611273565b6040516001600160a01b03909116815260200161033d565b6104136103cd36600461502f565b6001600160a01b03909116600090815260046020818152604080842094845260039485019091529091208054600182015460028301549483015492909301549094929392565b604080519586526020860194909452928401919091526060830152608082015260a00161033d565b6103096104493660046150d1565b61130e565b61030961045c3660046150d1565b61135a565b61030961046f3660046150d1565b6115a4565b61047c6115b3565b60405190815260200161033d565b6103096104983660046150ea565b61163f565b6103096104ab36600461502f565b611a73565b6103096104be366004615119565b611a80565b6103096104d13660046150d1565b611de2565b6105186104e436600461502f565b6001600160a01b03919091166000908152600360209081526040808320938352600790930190522080546001909101549091565b6040805192835260208301919091520161033d565b61047c60055481565b61030961054436600461514e565b611e41565b61047c60065481565b61047c60015481565b61047c600c5481565b61047c611e4e565b60055461047c565b6105dc610582366004615012565b6001600160a01b031660009081526004602081905260409091208054600182015460028301549383015460058401546006850154600786015460088701546009880154600a90980154969995989794969395929491939092565b604080519a8b5260208b0199909952978901969096526060880194909452608087019290925260a086015260c085015260e08401526101008301526101208201526101400161033d565b6103096106343660046150d1565b611e89565b610331610647366004615012565b611f3f565b61030961065a366004615170565b611f77565b6002546106739067ffffffffffffffff1681565b60405167ffffffffffffffff909116815260200161033d565b610309611f86565b6103096106a23660046151ab565b6120dd565b6103096106b53660046151ed565b612165565b61047c600e5481565b6103a76125e6565b6106de6106d9366004615012565b61266c565b60405161033d9190615226565b6103096106f9366004615012565b61268c565b61030961070c3660046151ab565b6126e2565b61047c61071f36600461502f565b612aac565b61047c610732366004615012565b612b3f565b61047c600d5481565b61079b61074e366004615012565b6001600160a01b0390811660009081526003602081905260409091208054600182015460028301549383015460048401546005850154600690950154939792969590951694909390929091565b6040805197885260208801969096526001600160a01b03909416948601949094526060850191909152608084015260a083019190915260c082015260e00161033d565b6103096107ec36600461502f565b612b5e565b6103096107ff36600461523a565b612d22565b6103096108123660046150d1565b612d32565b610309610825366004615012565b612d43565b6103096108383660046150d1565b612d71565b61030961084b36600461525f565b612d7d565b61030961085e3660046152ec565b6132cd565b61047c61087136600461502f565b613334565b6000546103a7906001600160a01b031681565b6108916133c7565b61089961348b565b336108a38161354f565b60026108ae33610da3565b60028111156108bf576108bf61505b565b146109115760405162461bcd60e51b815260206004820152601760248201527f63616c6c6572206d75737420626520756e626f6e64656400000000000000000060448201526064015b60405180910390fd5b600061091b6135fb565b6001600160a01b0316638a19c8bc6040518163ffffffff1660e01b815260040160206040518083038186803b15801561095357600080fd5b505afa158015610967573d6000803e3d6000fd5b505050506040513d601f19601f8201168201806040525081019061098b9190615316565b90506109978682613674565b6109a28160016136f4565b3360008181526003602052604090206004810192909255600290910180546001600160a01b0319166001600160a01b0389161790556109e390868686613700565b505050505050565b6109f36133c7565b6109fb61348b565b610a043361354f565b336000908152600360205260408082206001600160a01b038981168452919092206002830154909116610a388888886126e2565b6006830154600090610a4b90600161388d565b905060008460070160008381526020019081526020016000206001015490508460070160008381526020019081526020016000206000808201600090556001820160009055505060008460060154905060405180604001604052808c8152602001838152508560070160008381526020019081526020016000206000820151816000015560208201518160010155905050610af4600186600601546136f490919063ffffffff16565b600686015560408051848152602081018390529081018c90526001600160a01b038d169033907ff136b986590e86cf1abd7b6600186a7a1178ad3cbbdf0f3312e79f6214a2a5679060600160405180910390a36000610b516135fb565b6001600160a01b0316638a19c8bc6040518163ffffffff1660e01b815260040160206040518083038186803b158015610b8957600080fd5b505afa158015610b9d573d6000803e3d6000fd5b505050506040513d601f19601f82011682018060405250810190610bc19190615316565b600587015490915081811015610bdc57610bdc8e8383613899565b60028701546001600160a01b0316158015610bf657508654155b15610c71578d6001600160a01b0316866001600160a01b03161415610c2d5760405162461bcd60e51b81526004016109089061532f565b6001600160a01b038e16610c535760405162461bcd60e51b81526004016109089061532f565b6002870180546001600160a01b0319166001600160a01b0388161790555b6002610c7c8f610da3565b6002811115610c8d57610c8d61505b565b1415610ca457610c9e8260016136f4565b60048801555b610cb08e848c8c613700565b5050505050505050505050505050565b6001600160a01b038116600090815260046020526040812081610ce16135fb565b6001600160a01b0316638a19c8bc6040518163ffffffff1660e01b815260040160206040518083038186803b158015610d1957600080fd5b505afa158015610d2d573d6000803e3d6000fd5b505050506040513d601f19601f82011682018060405250810190610d519190615316565b905080826005015411158015610d6a5750816006015481105b949350505050565b6001600160a01b03919091166000908152600360209081526040808320938352600790930190522060010154151590565b6001600160a01b03811660009081526003602052604081208054610dca5750600292915050565b610dd26135fb565b6001600160a01b0316638a19c8bc6040518163ffffffff1660e01b815260040160206040518083038186803b158015610e0a57600080fd5b505afa158015610e1e573d6000803e3d6000fd5b505050506040513d601f19601f82011682018060405250810190610e429190615316565b81600401541115610e565750600092915050565b50600192915050565b610e6a600080612165565b565b610e746133c7565b610e7c6139cf565b83610e868161354f565b6001600160a01b03851660009081526003602052604090208054869190156111f5576001600160a01b038716600090815260036020526040812054610ecb9087613aca565b60405163b0138c4760e01b8152600760048201526001600160a01b038a16602482015290915073C45f6918F7Bcac7aBc8fe05302b3cDF39776cdeb9063b0138c479060440160206040518083038186803b158015610f2857600080fd5b505af4158015610f3c573d6000803e3d6000fd5b505050506040513d601f19601f82011682018060405250810190610f60919061535a565b15610f6e57610f6e88613ae3565b8154610f7a908261388d565b82556001610f8789610da3565b6002811115610f9857610f9861505b565b1415610feb5760028201546001600160a01b031660009081526003602081905260409091200154610fc9908261388d565b60028301546001600160a01b0316600090815260036020819052604090912001555b806001600160a01b0388161561113a5760006110078388613aca565b9050611011613c14565b60405163e7a49c2b60e01b81526001600160a01b038b8116600483015260248201849052919091169063e7a49c2b90604401600060405180830381600087803b15801561105d57600080fd5b505af1158015611071573d6000803e3d6000fd5b5050505061107d613c14565b6001600160a01b031663c7ee98c2611095848461388d565b6040518263ffffffff1660e01b81526004016110b391815260200190565b600060405180830381600087803b1580156110cd57600080fd5b505af11580156110e1573d6000803e3d6000fd5b5050604080516001600160a01b038d8116825260208201889052918101859052908d1692507ff4b71fed8e2c9a8c67c388bc6d35ad20b9368a24eed6d565459f2b277b6c0c22915060600160405180910390a2506111ee565b611142613c14565b6001600160a01b031663c7ee98c2826040518263ffffffff1660e01b815260040161116f91815260200190565b600060405180830381600087803b15801561118957600080fd5b505af115801561119d573d6000803e3d6000fd5b5050604080516000808252602082018790528183015290516001600160a01b038d1693507ff4b71fed8e2c9a8c67c388bc6d35ad20b9368a24eed6d565459f2b277b6c0c2292509081900360600190a25b5050611244565b604080516001600160a01b038881168252600060208301819052828401529151918916917ff4b71fed8e2c9a8c67c388bc6d35ad20b9368a24eed6d565459f2b277b6c0c229181900360600190a25b506001600160a01b038116600090815260036020908152604080832060049092529091206109e3918391613c65565b60405163e189dedb60e01b8152600760048201526001600160a01b038216602482015260009073C45f6918F7Bcac7aBc8fe05302b3cDF39776cdeb9063e189dedb9060440160206040518083038186803b1580156112d057600080fd5b505af41580156112e4573d6000803e3d6000fd5b505050506040513d601f19601f82011682018060405250810190611308919061537c565b92915050565b6113166133c7565b61131e61348b565b336113283361354f565b6001600160a01b03811660009081526003602090815260408083206004909252909120611356918391613c65565b5050565b6113626133c7565b61136a61348b565b3360008181526003602090815260408083208584526007810190925290912090916113959084610d72565b6113dd5760405162461bcd60e51b81526020600482015260196024820152781a5b9d985b1a59081d5b989bdb991a5b99c81b1bd8dac81251603a1b6044820152606401610908565b6113e56135fb565b6001600160a01b0316638a19c8bc6040518163ffffffff1660e01b815260040160206040518083038186803b15801561141d57600080fd5b505afa158015611431573d6000803e3d6000fd5b505050506040513d601f19601f820116820180604052508101906114559190615316565b816001015411156114ce5760405162461bcd60e51b815260206004820152603b60248201527f776974686472617720726f756e64206d757374206265206265666f7265206f7260448201527f20657175616c20746f207468652063757272656e7420726f756e6400000000006064820152608401610908565b805460018083015460008681526007860160205260408120818155909201919091556114f8613c14565b60405163e7a49c2b60e01b8152336004820152602481018490526001600160a01b03919091169063e7a49c2b90604401600060405180830381600087803b15801561154257600080fd5b505af1158015611556573d6000803e3d6000fd5b505060408051888152602081018690529081018490523392507f1340f1a8f3d456a649e1a12071dfa15655e3d09252131d0f980c3b405cc8dd2e915060600160405180910390a25050505050565b6115b0816000806126e2565b50565b604051631665d9cb60e31b81526007600482015260009073C45f6918F7Bcac7aBc8fe05302b3cDF39776cdeb9063b32ece58906024015b60206040518083038186803b15801561160257600080fd5b505af4158015611616573d6000803e3d6000fd5b505050506040513d601f19601f8201168201806040525081019061163a9190615316565b905090565b6116476133c7565b61164f61348b565b6116576135fb565b6001600160a01b0316636841f2536040518163ffffffff1660e01b815260040160206040518083038186803b15801561168f57600080fd5b505afa1580156116a3573d6000803e3d6000fd5b505050506040513d601f19601f820116820180604052508101906116c7919061535a565b1561173a5760405162461bcd60e51b815260206004820152603760248201527f63616e277420757064617465207472616e73636f64657220706172616d732c2060448201527f63757272656e7420726f756e64206973206c6f636b65640000000000000000006064820152608401610908565b61174784620f4240101590565b6117935760405162461bcd60e51b815260206004820152601c60248201527f696e76616c6964207265776172644375742070657263656e74616765000000006044820152606401610908565b6117a083620f4240101590565b6117ec5760405162461bcd60e51b815260206004820152601b60248201527f696e76616c69642066656553686172652070657263656e7461676500000000006044820152606401610908565b6117f533611f3f565b6118415760405162461bcd60e51b815260206004820152601d60248201527f7472616e73636f646572206d75737420626520726567697374657265640000006044820152606401610908565b336000908152600460205260408120906118596135fb565b6001600160a01b0316638a19c8bc6040518163ffffffff1660e01b815260040160206040518083038186803b15801561189157600080fd5b505afa1580156118a5573d6000803e3d6000fd5b505050506040513d601f19601f820116820180604052508101906118c99190615316565b90506118d433610cc0565b15806118e05750815481145b61196a5760405162461bcd60e51b815260206004820152604f60248201527f63616c6c65722063616e277420626520616374697665206f72206d757374206860448201527f61766520616c72656164792063616c6c65642072657761726420666f7220746860648201526e194818dd5c9c995b9d081c9bdd5b99608a1b608482015260a401610908565b600182018690556002820185905560405163b0138c4760e01b81526007600482015233602482015273C45f6918F7Bcac7aBc8fe05302b3cDF39776cdeb9063b0138c479060440160206040518083038186803b1580156119c957600080fd5b505af41580156119dd573d6000803e3d6000fd5b505050506040513d601f19601f82011682018060405250810190611a01919061535a565b611a30573360008181526003602081905260409091200154611a309190611a298460016136f4565b8787613d91565b604080518781526020810187905233917f7346854431dbb3eb8e373c604abf89e90f4865b8447e1e2834d7b3e4677bf544910160405180910390a2505050505050565b6113568282600080610889565b611a886133c7565b611a906140b4565b611a9983611f3f565b611ae55760405162461bcd60e51b815260206004820152601d60248201527f7472616e73636f646572206d75737420626520726567697374657265640000006044820152606401610908565b6000611aef6135fb565b6001600160a01b0316638a19c8bc6040518163ffffffff1660e01b815260040160206040518083038186803b158015611b2757600080fd5b505afa158015611b3b573d6000803e3d6000fd5b505050506040513d601f19601f82011682018060405250810190611b5f9190615316565b6001600160a01b03851660009081526004602090815260408083208054600782015486865260038301909452918420949550939092611ba885611ba388600161388d565b6141af565b905083861115611bf25760018581015460028088015492850191909155830155600485015486811015611be957600081815260038701602052604090205483555b85600801549350505b81546060820151158015611c0557508685145b15611d72576000611c14613c14565b90506000611d0f611d06836001600160a01b0316632de22cdb6040518163ffffffff1660e01b815260040160206040518083038186803b158015611c5757600080fd5b505afa158015611c6b573d6000803e3d6000fd5b505050506040513d601f19601f82011682018060405250810190611c8f9190615316565b846001600160a01b0316639ae6309a6040518163ffffffff1660e01b815260040160206040518083038186803b158015611cc857600080fd5b505afa158015611cdc573d6000803e3d6000fd5b505050506040513d601f19601f82011682018060405250810190611d009190615316565b906136f4565b84600554614254565b90506000611d1f82600c5461427a565b9050611d2b828261388d565b91506000611d3d838860010154613aca565b90506000611d4b848361388d565b6003890154909150611d679087611d6284826136f4565b614254565b606088015250505050505b6000611d828a8560020154613aca565b90506000611d908b8361388d565b90506000611d9f838886614254565b9050611dbc82611d00838c600901546136f490919063ffffffff16565b60098a0155611dcc868685614296565b50505050600a9094019490945550505050505050565b611dea614311565b600e81905560405160008051602061544e83398151915290611e3690602080825260169082015275747265617375727942616c616e63654365696c696e6760501b604082015260600190565b60405180910390a150565b611356828260008061163f565b6040516339ade16560e11b81526007600482015260009073C45f6918F7Bcac7aBc8fe05302b3cDF39776cdeb9063735bc2ca906024016115ea565b611e91614311565b60405163a176adaf60e01b8152600760048201526024810182905273C45f6918F7Bcac7aBc8fe05302b3cDF39776cdeb9063a176adaf9060440160006040518083038186803b158015611ee357600080fd5b505af4158015611ef7573d6000803e3d6000fd5b5050505060008051602061544e833981519152604051611e36906020808252601490820152736e756d4163746976655472616e73636f6465727360601b604082015260600190565b6001600160a01b0380821660008181526003602052604081206002810154919390929116148015611f705750805415155b9392505050565b6109e386338787878787612d7d565b611f8e6143f5565b600654600555600c54600d5414611ff457600d54600c5560405160008051602061544e83398151915290611feb9060208082526015908201527474726561737572795265776172644375745261746560581b604082015260600190565b60405180910390a15b611ffc6144f0565b6001600160a01b031663ef105c916005546120156135fb565b6001600160a01b0316638a19c8bc6040518163ffffffff1660e01b815260040160206040518083038186803b15801561204d57600080fd5b505afa158015612061573d6000803e3d6000fd5b505050506040513d601f19601f820116820180604052508101906120859190615316565b6040516001600160e01b031960e085901b16815260048101929092526024820152604401600060405180830381600087803b1580156120c357600080fd5b505af11580156120d7573d6000803e3d6000fd5b50505050565b6120e56133c7565b6120ed61348b565b336120f78161354f565b600261210233610da3565b60028111156121135761211361505b565b14156121595760405162461bcd60e51b815260206004820152601560248201527418d85b1b195c881b5d5cdd08189948189bdb991959605a1b6044820152606401610908565b6120d733858585613700565b61216d6133c7565b61217561348b565b3360006121806135fb565b6001600160a01b0316638a19c8bc6040518163ffffffff1660e01b815260040160206040518083038186803b1580156121b857600080fd5b505afa1580156121cc573d6000803e3d6000fd5b505050506040513d601f19601f820116820180604052508101906121f09190615316565b90506121fb33610cc0565b6122535760405162461bcd60e51b815260206004820152602360248201527f63616c6c6572206d75737420626520616e20616374697665207472616e73636f6044820152623232b960e91b6064820152608401610908565b336000908152600460205260409020548114156122d15760405162461bcd60e51b815260206004820152603660248201527f63616c6c65722068617320616c72656164792063616c6c65642072657761726460448201527508199bdc881d1a194818dd5c9c995b9d081c9bdd5b9960521b6064820152608401610908565b336000908152600460209081526040808320848452600381019092529091206001808301546002808501549284019190915582015560048201548381101561232757600081815260038401602052604090205482555b600e54156123ed576000612339614541565b6001600160a01b03166370a0823161234f614592565b6040516001600160e01b031960e084901b1681526001600160a01b03909116600482015260240160206040518083038186803b15801561238e57600080fd5b505afa1580156123a2573d6000803e3d6000fd5b505050506040513d601f19601f820116820180604052508101906123c69190615316565b9050600e5481101580156123dc57506000600d54115b156123eb576123eb60006145e3565b505b60006123f7613c14565b8354600554604051637dbedad560e01b81529293506000926001600160a01b03851692637dbedad59261243592600401918252602082015260400190565b602060405180830381600087803b15801561244f57600080fd5b505af1158015612463573d6000803e3d6000fd5b505050506040513d601f19601f820116820180604052508101906124879190615316565b9050600061249782600c5461427a565b905080156125555760006124a9614592565b60405163e7a49c2b60e01b81526001600160a01b038083166004830152602482018590529192509085169063e7a49c2b90604401600060405180830381600087803b1580156124f757600080fd5b505af115801561250b573d6000803e3d6000fd5b5050604080516001600160a01b0385168152602081018690523393507f40e200718fe552021167687e5491d09f5931275b6f88f14a462650f0effb523792500160405180910390a2505b6000612561838361388d565b905061257033828a8e8e6146a7565b87875560405181815233907f619caafabdd75649b302ba8419e48cccf64f37f1983ac4727cfb38b57703ffc99060200160405180910390a2505050506001600160a01b038516600090815260036020908152604080832060049092529091206125e195508694509092509050613c65565b505050565b604051632ebb2fed60e01b81526007600482015260009073C45f6918F7Bcac7aBc8fe05302b3cDF39776cdeb90632ebb2fed9060240160206040518083038186803b15801561263457600080fd5b505af4158015612648573d6000803e3d6000fd5b505050506040513d601f19601f8201168201806040525081019061163a919061537c565b600061267782611f3f565b1561268457506001919050565b506000919050565b612694614769565b600080546001600160a01b0319166001600160a01b0383169081179091556040519081527f4ff638452bbf33c012645d18ae6f05515ff5f2d1dfb0cece8cbf018c60903f7090602001611e36565b6126ea6133c7565b6126f261348b565b336126fc8161354f565b33600161270833610da3565b60028111156127195761271961505b565b1461275e5760405162461bcd60e51b815260206004820152601560248201527418d85b1b195c881b5d5cdd08189948189bdb991959605a1b6044820152606401610908565b336000908152600360205260409020856127c65760405162461bcd60e51b8152602060048201526024808201527f756e626f6e6420616d6f756e74206d75737420626520677265617465722074686044820152630616e20360e41b6064820152608401610908565b80548611156128235760405162461bcd60e51b8152602060048201526024808201527f616d6f756e742069732067726561746572207468616e20626f6e64656420616d6044820152631bdd5b9d60e21b6064820152608401610908565b60028101546001600160a01b0316600061283b6135fb565b6001600160a01b0316638a19c8bc6040518163ffffffff1660e01b815260040160206040518083038186803b15801561287357600080fd5b505afa158015612887573d6000803e3d6000fd5b505050506040513d601f19601f820116820180604052508101906128ab9190615316565b6002549091506000906128c990839067ffffffffffffffff166136f4565b60068501546040805180820182528c81526020808201858152600085815260078b019092529290209051815590516001918201559192509061290c9082906136f4565b6006860155845461291d908b61388d565b8086556129da576002850180546001600160a01b0319169055600060048087019190915560405163b0138c4760e01b815260079181019190915233602482015273C45f6918F7Bcac7aBc8fe05302b3cDF39776cdeb9063b0138c479060440160206040518083038186803b15801561299457600080fd5b505af41580156129a8573d6000803e3d6000fd5b505050506040513d601f19601f820116820180604052508101906129cc919061535a565b156129da576129da33613ae3565b6129e6848b8b8b6147c3565b6001600160a01b0384163314612a24576001600160a01b03841660009081526003602090815260408083206004909252909120612a24918691613c65565b60408051828152602081018c905290810183905233906001600160a01b038616907f2d5d98d189bee5496a08db2a5948cb7e5e786f09d17d0c3f228eb41776c24a069060600160405180910390a35050506001600160a01b03831660009081526003602090815260408083206004909252909120612aa59350849250613c65565b5050505050565b600080612ab76135fb565b6001600160a01b0316638a19c8bc6040518163ffffffff1660e01b815260040160206040518083038186803b158015612aef57600080fd5b505afa158015612b03573d6000803e3d6000fd5b505050506040513d601f19601f82011682018060405250810190612b279190615316565b90506000612b358583614a00565b5095945050505050565b6001600160a01b03166000908152600360208190526040909120015490565b612b666133c7565b612b6e61348b565b33612b788161354f565b336001600160a01b038416612bc35760405162461bcd60e51b81526020600482015260116024820152701a5b9d985b1a59081c9958da5c1a595b9d607a1b6044820152606401610908565b3360009081526003602052604090206001015483811015612c265760405162461bcd60e51b815260206004820152601d60248201527f696e73756666696369656e74206665657320746f2077697468647261770000006044820152606401610908565b612c30818561388d565b33600090815260036020526040902060010155612c4b613c14565b6040516320283da960e01b81526001600160a01b0387811660048301526024820187905291909116906320283da990604401600060405180830381600087803b158015612c9757600080fd5b505af1158015612cab573d6000803e3d6000fd5b5050604080516001600160a01b0389168152602081018890523393507f4f1b51dd7a2fcb861aa2670f668be66835c4ee12b4bbbf037e4d0018f39819e492500160405180910390a2506001600160a01b038116600090815260036020908152604080832060049092529091206120d7918391613c65565b6113568282600080600080611f77565b612d3a614311565b6115b0816145e3565b6001600160a01b038116600090815260036020908152604080832060049092529091206115b0918391613c65565b6115b0816000806120dd565b612d856133c7565b612d8d61348b565b612d968661354f565b6001600160a01b038616600090815260036020526040812090612db76135fb565b6001600160a01b0316638a19c8bc6040518163ffffffff1660e01b815260040160206040518083038186803b158015612def57600080fd5b505afa158015612e03573d6000803e3d6000fd5b505050506040513d601f19601f82011682018060405250810190612e279190615316565b600283015483549192508a916001600160a01b03918216918b163314801590612e695750612e53614ac5565b6001600160a01b0316336001600160a01b031614155b15612f71576001600160a01b038b16612e945760405162461bcd60e51b81526004016109089061532f565b6002612e9f8c610da3565b6002811115612eb057612eb061505b565b1415612f10578a6001600160a01b03168a6001600160a01b03161415612f0b5760405162461bcd60e51b815260206004820152601060248201526f494e56414c49445f44454c454741544560801b6044820152606401610908565b612f71565b896001600160a01b0316826001600160a01b031614612f715760405162461bcd60e51b815260206004820152601760248201527f494e56414c49445f44454c45474154455f4348414e47450000000000000000006044820152606401610908565b6002612f7c8c610da3565b6002811115612f8d57612f8d61505b565b1415612fa857612f9e8460016136f4565b60048601556130a1565b600081118015612fca5750896001600160a01b0316826001600160a01b031614155b156130a157612fd88b611f3f565b1561304b5760405162461bcd60e51b815260206004820152603d60248201527f72656769737465726564207472616e73636f646572732063616e27742064656c60448201527f656761746520746f7761726473206f74686572206164647265737365730000006064820152608401610908565b6130568460016136f4565b600486015561306583826136f4565b925061307382828b8b6147c3565b6001600160a01b038216600090815260036020908152604080832060049092529091206130a1918491613c65565b6130ab8a85613674565b6000831161310c5760405162461bcd60e51b815260206004820152602860248201527f64656c65676174696f6e20616d6f756e74206d75737420626520677265617465604482015267072207468616e20360c41b6064820152608401610908565b6002850180546001600160a01b0319166001600160a01b038c16179055613133818d6136f4565b85556131418a848989614b16565b8a6001600160a01b03168a6001600160a01b031614613188576001600160a01b038a1660009081526003602090815260408083206004909252909120613188918c91613c65565b8b1561323657613196614541565b6001600160a01b03166323b872dd336131ad613c14565b6040516001600160e01b031960e085901b1681526001600160a01b03928316600482015291166024820152604481018f9052606401602060405180830381600087803b1580156131fc57600080fd5b505af1158015613210573d6000803e3d6000fd5b505050506040513d601f19601f82011682018060405250810190613234919061535a565b505b8a6001600160a01b0316826001600160a01b03168b6001600160a01b03167fe5917769f276ddca9f2ee7c6b0b33e1d1e1b61008010ce622c632dd20d168a238f8960000154604051613292929190918252602082015260400190565b60405180910390a46001600160a01b038b1660009081526004602052604090206132bf908c908790613c65565b505050505050505050505050565b6132d5614311565b6002805467ffffffffffffffff831667ffffffffffffffff1990911617905560405160008051602061544e83398151915290611e36906020808252600f908201526e1d5b989bdb991a5b99d4195c9a5bd9608a1b604082015260600190565b60008061333f6135fb565b6001600160a01b0316638a19c8bc6040518163ffffffff1660e01b815260040160206040518083038186803b15801561337757600080fd5b505afa15801561338b573d6000803e3d6000fd5b505050506040513d601f19601f820116820180604052508101906133af9190615316565b905060006133bd8583614a00565b9695505050505050565b60008054906101000a90046001600160a01b03166001600160a01b0316635c975abb6040518163ffffffff1660e01b815260040160206040518083038186803b15801561341357600080fd5b505afa158015613427573d6000803e3d6000fd5b505050506040513d601f19601f8201168201806040525081019061344b919061535a565b15610e6a5760405162461bcd60e51b815260206004820152601060248201526f1cde5cdd195b481a5cc81c185d5cd95960821b6044820152606401610908565b6134936135fb565b6001600160a01b031663219bc76c6040518163ffffffff1660e01b815260040160206040518083038186803b1580156134cb57600080fd5b505afa1580156134df573d6000803e3d6000fd5b505050506040513d601f19601f82011682018060405250810190613503919061535a565b610e6a5760405162461bcd60e51b815260206004820181905260248201527f63757272656e7420726f756e64206973206e6f7420696e697469616c697a65646044820152606401610908565b60006135596135fb565b6001600160a01b0316638a19c8bc6040518163ffffffff1660e01b815260040160206040518083038186803b15801561359157600080fd5b505afa1580156135a5573d6000803e3d6000fd5b505050506040513d601f19601f820116820180604052508101906135c99190615316565b6001600160a01b038316600090815260036020526040902060050154909150818110156125e1576125e1838383613899565b60008054604051631c2d8fb360e31b81527fe8438ea868df48e3fc21f2f087b993c9b1837dc0f6135064161ce7d7a1701fe860048201526001600160a01b039091169063e16c7d98906024015b60206040518083038186803b15801561366057600080fd5b505afa158015612648573d6000803e3d6000fd5b6001600160a01b038216600090815260046020908152604080832084845260038082019093529220908101546136c4578154838110156136c2576136b88382614d46565b6060015160038301555b505b60048101546120d757600a82015483811015612aa5576136e48382614d46565b6080015160048301555050505050565b6000611f7082846153af565b6001600160a01b0384166000908152600360209081526040808320868452600781019092529091208591906137358387610d72565b61377d5760405162461bcd60e51b81526020600482015260196024820152781a5b9d985b1a59081d5b989bdb991a5b99c81b1bd8dac81251603a1b6044820152606401610908565b8054825461378b90826136f4565b8355600087815260078401602052604081208181556001015560028301546001600160a01b03166137be81838989614b16565b886001600160a01b0316816001600160a01b031614613805576001600160a01b03811660009081526003602090815260408083206004909252909120613805918391613c65565b886001600160a01b0316816001600160a01b03167f9f5b64cc71e1e26ff178caaa7877a04d8ce66fde989251870e80e6fbee690c178a85604051613853929190918252602082015260400190565b60405180910390a3505050506001600160a01b03811660009081526003602090815260408083206004909252909120612aa5918391613c65565b6000611f7082846153c7565b6001600160a01b0383166000908152600360205260408120906138bd8360016136f4565b82546001840154600285015492935090916001600160a01b031615613941576138e68787614a00565b600286015491935091506001600160a01b03166139038188613674565b60028501546001600160a01b038981169116141561393f576001600160a01b038116600090815260046020526040812060098101829055600801555b505b600284015484546001600160a01b03808a169216907fd7eab0765b772ea6ea859d5633baf737502198012e930f257f90013d9b2110949061398390869061388d565b600188015461399390869061388d565b6040805192835260208301919091528101879052606081018a905260800160405180910390a36005840195909555825550600101919091555050565b600054604051631c2d8fb360e31b81527f121833d5ee4fda5e1a4034c2b7be8155c158142541dea26f39122c796649233f60048201526001600160a01b039091169063e16c7d989060240160206040518083038186803b158015613a3257600080fd5b505afa158015613a46573d6000803e3d6000fd5b505050506040513d601f19601f82011682018060405250810190613a6a919061537c565b6001600160a01b0316336001600160a01b031614610e6a5760405162461bcd60e51b815260206004820152601760248201527f63616c6c6572206d7573742062652056657269666965720000000000000000006044820152606401610908565b6000611f70620f4240613add8585614da9565b90614db5565b604051635d35e00760e01b8152600760048201526001600160a01b038216602482015273C45f6918F7Bcac7aBc8fe05302b3cDF39776cdeb90635d35e0079060440160006040518083038186803b158015613b3d57600080fd5b505af4158015613b51573d6000803e3d6000fd5b50505050613b6a613b6182612b3f565b6006549061388d565b6006556000613bb46001613b7c6135fb565b6001600160a01b0316638a19c8bc6040518163ffffffff1660e01b815260040160206040518083038186803b158015611cc857600080fd5b6001600160a01b0383166000818152600460205260409081902060060183905551919250907ffee3e693fc72d0a0a673805f3e606c551f4c677b9072444b90dd2d0406bc995c90613c089084815260200190565b60405180910390a25050565b60008054604051631c2d8fb360e31b81527f6e58ad548d72b425ea94c15f453bf26caddb061d82b2551db7fdd3cefe0e994060048201526001600160a01b039091169063e16c7d9890602401613648565b6000613c6f6135fb565b6001600160a01b0316638a19c8bc6040518163ffffffff1660e01b815260040160206040518083038186803b158015613ca757600080fd5b505afa158015613cbb573d6000803e3d6000fd5b505050506040513d601f19601f82011682018060405250810190613cdf9190615316565b613cea9060016153af565b9050613cf46144f0565b8354600285015460038601546005870154865460405163e35c3e4360e01b81526001600160a01b038b811660048301526024820189905260448201969096529385166064850152608484019290925260a483015260c482015291169063e35c3e439060e401600060405180830381600087803b158015613d7357600080fd5b505af1158015613d87573d6000803e3d6000fd5b5050505050505050565b6006546040516304aa129960e41b81526007600482015273C45f6918F7Bcac7aBc8fe05302b3cDF39776cdeb90634aa129909060240160206040518083038186803b158015613ddf57600080fd5b505af4158015613df3573d6000803e3d6000fd5b505050506040513d601f19601f82011682018060405250810190613e17919061535a565b15613fa257604051633972059360e11b81526007600482015260009073C45f6918F7Bcac7aBc8fe05302b3cDF39776cdeb906372e40b269060240160206040518083038186803b158015613e6a57600080fd5b505af4158015613e7e573d6000803e3d6000fd5b505050506040513d601f19601f82011682018060405250810190613ea2919061537c565b90506000613eaf82612b3f565b9050808711613ec057505050612aa5565b604051635d35e00760e01b8152600760048201526001600160a01b038316602482015273C45f6918F7Bcac7aBc8fe05302b3cDF39776cdeb90635d35e0079060440160006040518083038186803b158015613f1a57600080fd5b505af4158015613f2e573d6000803e3d6000fd5b5050506001600160a01b038316600090815260046020526040902060060187905550613f5a838261388d565b9250816001600160a01b03167ffee3e693fc72d0a0a673805f3e606c551f4c677b9072444b90dd2d0406bc995c87604051613f9791815260200190565b60405180910390a250505b6040516327dd54d360e11b815273C45f6918F7Bcac7aBc8fe05302b3cDF39776cdeb90634fbaa9a690613fe2906007908a908a90899089906004016153de565b60006040518083038186803b158015613ffa57600080fd5b505af415801561400e573d6000803e3d6000fd5b5050505061402585826136f490919063ffffffff16565b6001600160a01b03871660009081526004602081815260408084209283018990556005830189905560001960068401558884526003830190915290912087905590915060068290556040518581526001600160a01b038816907f65d72d782835d64c3287844a829608d5abdc7e864cc9affe96d910ab3db665e99060200160405180910390a250505050505050565b600054604051631c2d8fb360e31b81527fbd1aa3e8d2464256d7fd3dcf645c16418d5d8c51d971f1ad7d57e7b1b5eee23960048201526001600160a01b039091169063e16c7d989060240160206040518083038186803b15801561411757600080fd5b505afa15801561412b573d6000803e3d6000fd5b505050506040513d601f19601f8201168201806040525081019061414f919061537c565b6001600160a01b0316336001600160a01b031614610e6a5760405162461bcd60e51b815260206004820152601b60248201527f63616c6c6572206d757374206265205469636b657442726f6b657200000000006044820152606401610908565b6141e16040518060a0016040528060008152602001600081526020016000815260200160008152602001600081525090565b6141eb8383614d46565b835460608201519192509015801561420257508281105b1561421c576142118482614d46565b606090810151908301525b600a840154608083015115801561423257508381105b1561424c576142418582614d46565b608090810151908401525b505092915050565b6000610d6a6b033b2e3c9fd0803ce8000000613add6142738686614dc1565b8790614da9565b6000611f706b033b2e3c9fd0803ce8000000613add8585614da9565b608082015160608301516000906142b7576142b2600180614dc1565b6142bd565b83606001515b90508460040154600014156142f4576142e56142de82858860000154614254565b83906136f4565b85600401819055505050505050565b6142e561430682858860000154614254565b6004870154906136f4565b60008054906101000a90046001600160a01b03166001600160a01b0316638da5cb5b6040518163ffffffff1660e01b815260040160206040518083038186803b15801561435d57600080fd5b505afa158015614371573d6000803e3d6000fd5b505050506040513d601f19601f82011682018060405250810190614395919061537c565b6001600160a01b0316336001600160a01b031614610e6a5760405162461bcd60e51b815260206004820152601f60248201527f63616c6c6572206d75737420626520436f6e74726f6c6c6572206f776e6572006044820152606401610908565b600054604051631c2d8fb360e31b81527fe8438ea868df48e3fc21f2f087b993c9b1837dc0f6135064161ce7d7a1701fe860048201526001600160a01b039091169063e16c7d989060240160206040518083038186803b15801561445857600080fd5b505afa15801561446c573d6000803e3d6000fd5b505050506040513d601f19601f82011682018060405250810190614490919061537c565b6001600160a01b0316336001600160a01b031614610e6a5760405162461bcd60e51b815260206004820152601c60248201527f63616c6c6572206d75737420626520526f756e64734d616e61676572000000006044820152606401610908565b60008054604051631c2d8fb360e31b81527f2a1b465fbcae519904f0fb11f93e73dfbeb47ec54530ec444279610af8cf06b260048201526001600160a01b039091169063e16c7d9890602401613648565b60008054604051631c2d8fb360e31b81527f3443e257065fe41dd0e4d1f5a1b73a22a62e300962b57f30cddf41d0f8273ba760048201526001600160a01b039091169063e16c7d9890602401613648565b60008054604051631c2d8fb360e31b81527f6efca2866b731ee4984990bacad4cde10f1ef764fb54a5206bdfd291695b1a9b60048201526001600160a01b039091169063e16c7d9890602401613648565b6145f9816b033b2e3c9fd0803ce8000000101590565b6146545760405162461bcd60e51b815260206004820152602660248201527f5f6375745261746520697320696e76616c696420707265636973652070657263604482015265656e7461676560d01b6064820152608401610908565b600d81905560405160008051602061544e83398151915290611e36906020808252601e908201527f6e657874526f756e645472656173757279526577617264437574526174650000604082015260600190565b6001600160a01b03851660009081526004602090815260408083208684526003810190925282208154919290916146df908490614d46565b90508260080154836007018190555060006146fe888460010154613aca565b9050600061470c898361388d565b905060006147238287600701548760000154614254565b905061474083611d008389600801546136f490919063ffffffff16565b6008870155614750858584614ddd565b61475c8b8b8a8a614b16565b5050505050505050505050565b6000546001600160a01b03163314610e6a5760405162461bcd60e51b815260206004820152601960248201527f63616c6c6572206d75737420626520436f6e74726f6c6c6572000000000000006044820152606401610908565b6001600160a01b0384166000908152600460205260408120906147e586612b3f565b905060006147f3828761388d565b60405163b0138c4760e01b8152600760048201526001600160a01b038916602482015290915073C45f6918F7Bcac7aBc8fe05302b3cDF39776cdeb9063b0138c479060440160206040518083038186803b15801561485057600080fd5b505af4158015614864573d6000803e3d6000fd5b505050506040513d601f19601f82011682018060405250810190614888919061535a565b156149d85760006148976135fb565b6001600160a01b0316638a19c8bc6040518163ffffffff1660e01b815260040160206040518083038186803b1580156148cf57600080fd5b505afa1580156148e3573d6000803e3d6000fd5b505050506040513d601f19601f820116820180604052508101906149079190615316565b905060006149168260016136f4565b604051631c11bf7f60e11b815290915073C45f6918F7Bcac7aBc8fe05302b3cDF39776cdeb906338237efe90614959906007908d9088908d908d906004016153de565b60006040518083038186803b15801561497157600080fd5b505af4158015614985573d6000803e3d6000fd5b5050600654614997925090508961388d565b60065560048501548211156149ba57600082815260038601602052604090208490555b60048501819055600081815260038601602052604090208390555b50505b6001600160a01b03909616600090815260036020819052604090912001959095555050505050565b6001600160a01b03808316600090815260036020908152604080832060028101549094168352600490915281206001808401548454600586015490959194919392614a4b91906136f4565b60028401549091506001600160a01b039081169088168114878311614a8757614a8184614a7985600161388d565b8a8a8a614e2b565b90975095505b8015614ab9576008840154614a9d9088906136f4565b9650614ab68460090154876136f490919063ffffffff16565b95505b50505050509250929050565b60008054604051631c2d8fb360e31b81527f74b6d21e0d4650f622c903126d418c1a52bcc99ea7acb0db0809fc0eeae6c7c360048201526001600160a01b039091169063e16c7d9890602401613648565b6001600160a01b038416600090815260046020526040812090614b3886612b3f565b90506000614b4682876136f4565b9050614b5187611f3f565b156149d8576000614b606135fb565b6001600160a01b0316638a19c8bc6040518163ffffffff1660e01b815260040160206040518083038186803b158015614b9857600080fd5b505afa158015614bac573d6000803e3d6000fd5b505050506040513d601f19601f82011682018060405250810190614bd09190615316565b90506000614bdf8260016136f4565b60405163b0138c4760e01b8152600760048201526001600160a01b038b16602482015290915073C45f6918F7Bcac7aBc8fe05302b3cDF39776cdeb9063b0138c479060440160206040518083038186803b158015614c3c57600080fd5b505af4158015614c50573d6000803e3d6000fd5b505050506040513d601f19601f82011682018060405250810190614c74919061535a565b15614d3957604051631c11bf7f60e11b815273C45f6918F7Bcac7aBc8fe05302b3cDF39776cdeb906338237efe90614cb9906007908d9088908d908d906004016153de565b60006040518083038186803b158015614cd157600080fd5b505af4158015614ce5573d6000803e3d6000fd5b5050600654614cf792509050896136f4565b6006556004850154821115614d1a57600082815260038601602052604090208490555b60008181526003860160205260409020839055600485018190556149d5565b6149d58984838a8a613d91565b614d786040518060a0016040528060008152602001600081526020016000815260200160008152602001600081525090565b6000828152600393840160208181526040832095860154606085015293909152909152600490910154608082015290565b6000611f70828461540c565b6000611f70828461542b565b6000611f7082613add856b033b2e3c9fd0803ce8000000614da9565b6000826060015160001415614dfc57614df7600180614dc1565b614e02565b82606001515b9050614e1d614e1682848760000154614254565b82906136f4565b846003018190555050505050565b6000806000614e3a8888614d46565b90506000614e4889886141af565b9050614e5682828888614e66565b9350935050509550959350505050565b600080614e74868686614e8d565b9150614e8286868686614eda565b905094509492505050565b6000836060015160001415614ead57614ea7600180614dc1565b60608501525b6060830151614ec757614ec1600180614dc1565b60608401525b610d6a8284606001518660600151614254565b6000846060015160001415614efa57614ef4600180614dc1565b60608601525b6000614f2584614f1b8860800151886080015161388d90919063ffffffff16565b8860600151614254565b90506133bd83826136f4565b6001600160a01b03811681146115b057600080fd5b60008060008060808587031215614f5c57600080fd5b8435614f6781614f31565b9350602085013592506040850135614f7e81614f31565b91506060850135614f8e81614f31565b939692955090935050565b60008060008060008060c08789031215614fb257600080fd5b8635614fbd81614f31565b9550602087013594506040870135614fd481614f31565b93506060870135614fe481614f31565b92506080870135614ff481614f31565b915060a087013561500481614f31565b809150509295509295509295565b60006020828403121561502457600080fd5b8135611f7081614f31565b6000806040838503121561504257600080fd5b823561504d81614f31565b946020939093013593505050565b634e487b7160e01b600052602160045260246000fd5b60208101600383106150855761508561505b565b91905290565b600080600080608085870312156150a157600080fd5b84356150ac81614f31565b935060208501356150bc81614f31565b93969395505050506040820135916060013590565b6000602082840312156150e357600080fd5b5035919050565b6000806000806080858703121561510057600080fd5b84359350602085013592506040850135614f7e81614f31565b60008060006060848603121561512e57600080fd5b833561513981614f31565b95602085013595506040909401359392505050565b6000806040838503121561516157600080fd5b50508035926020909101359150565b60008060008060008060c0878903121561518957600080fd5b86359550602087013561519b81614f31565b94506040870135614fd481614f31565b6000806000606084860312156151c057600080fd5b8335925060208401356151d281614f31565b915060408401356151e281614f31565b809150509250925092565b6000806040838503121561520057600080fd5b823561520b81614f31565b9150602083013561521b81614f31565b809150509250929050565b60208101600283106150855761508561505b565b6000806040838503121561524d57600080fd5b82359150602083013561521b81614f31565b600080600080600080600060e0888a03121561527a57600080fd5b87359650602088013561528c81614f31565b9550604088013561529c81614f31565b945060608801356152ac81614f31565b935060808801356152bc81614f31565b925060a08801356152cc81614f31565b915060c08801356152dc81614f31565b8091505092959891949750929550565b6000602082840312156152fe57600080fd5b813567ffffffffffffffff81168114611f7057600080fd5b60006020828403121561532857600080fd5b5051919050565b60208082526011908201527024a72b20a624a22fa222a622a3a0aa27a960791b604082015260600190565b60006020828403121561536c57600080fd5b81518015158114611f7057600080fd5b60006020828403121561538e57600080fd5b8151611f7081614f31565b634e487b7160e01b600052601160045260246000fd5b600082198211156153c2576153c2615399565b500190565b6000828210156153d9576153d9615399565b500390565b9485526001600160a01b03938416602086015260408501929092528216606084015216608082015260a00190565b600081600019048311821515161561542657615426615399565b500290565b60008261544857634e487b7160e01b600052601260045260246000fd5b50049056fe9f5033568d78ae30f29f01e944f97b2216493bd19d1b46d429673acff3dcd674a2646970667358221220f8f1f36b2676f0fef37e56b09948c82c2826bb191090710ffde048be1737695b64736f6c63430008090033",
  "deployedBytecode": "0x608060405234801561001057600080fd5b50600436106102f15760003560e01c80635dce99481161019d5780639d0b2c7a116100e9578063cf33a0d5116100a2578063ee4e804a1161007c578063ee4e804a1461083d578063f10d1de114610850578063f595f1cc14610863578063f77c47911461087657600080fd5b8063cf33a0d514610804578063d52bd62b14610817578063eaffb3f91461082a57600080fd5b80639d0b2c7a146107115780639ef9df9414610724578063a576623114610737578063a64ad59514610740578063ad3b1b47146107de578063b78d27dc146107f157600080fd5b80637fc4606f1161015657806388a6c7491161013057806388a6c749146106c35780638b2f1652146106cb57806392eefe9b146106eb5780639500ed9b146106fe57600080fd5b80637fc4606f1461069457806381871056146106a757806384a16bbc146106ba57600080fd5b80635dce994814610574578063673a456b1461062657806368ba170c146106395780636bd9add41461064c5780636cf6d6751461065f578063713f22161461068c57600080fd5b80632a4e0d551161025c5780634196ee751161021557806351720b41116101ef57806351720b4114610552578063558f8f441461055b5780635a2a75a9146105645780635c50c3561461056c57600080fd5b80634196ee751461052d57806343d3461a14610536578063465501d31461054957600080fd5b80632a4e0d55146104745780633550aa101461048a5780633a080e931461049d5780633aeb512c146104b057806340e6f271146104c3578063412f83b6146104d657600080fd5b806322bf9d7c116102ae57806322bf9d7c14610381578063235c96031461039457806324454fc4146103bf57806324b1babf1461043b57806325d5971f1461044e57806327de9e321461046157600080fd5b80630584a373146102f6578063062e98b81461030b578063088023741461031e5780630fd02fc1146103465780631544fc6714610359578063228cb73314610379575b600080fd5b610309610304366004614f46565b610889565b005b610309610319366004614f99565b6109eb565b61033161032c366004615012565b610cc0565b60405190151581526020015b60405180910390f35b61033161035436600461502f565b610d72565b61036c610367366004615012565b610da3565b60405161033d9190615071565b610309610e5f565b61030961038f36600461508b565b610e6c565b6103a76103a2366004615012565b611273565b6040516001600160a01b03909116815260200161033d565b6104136103cd36600461502f565b6001600160a01b03909116600090815260046020818152604080842094845260039485019091529091208054600182015460028301549483015492909301549094929392565b604080519586526020860194909452928401919091526060830152608082015260a00161033d565b6103096104493660046150d1565b61130e565b61030961045c3660046150d1565b61135a565b61030961046f3660046150d1565b6115a4565b61047c6115b3565b60405190815260200161033d565b6103096104983660046150ea565b61163f565b6103096104ab36600461502f565b611a73565b6103096104be366004615119565b611a80565b6103096104d13660046150d1565b611de2565b6105186104e436600461502f565b6001600160a01b03919091166000908152600360209081526040808320938352600790930190522080546001909101549091565b6040805192835260208301919091520161033d565b61047c60055481565b61030961054436600461514e565b611e41565b61047c60065481565b61047c60015481565b61047c600c5481565b61047c611e4e565b60055461047c565b6105dc610582366004615012565b6001600160a01b031660009081526004602081905260409091208054600182015460028301549383015460058401546006850154600786015460088701546009880154600a90980154969995989794969395929491939092565b604080519a8b5260208b0199909952978901969096526060880194909452608087019290925260a086015260c085015260e08401526101008301526101208201526101400161033d565b6103096106343660046150d1565b611e89565b610331610647366004615012565b611f3f565b61030961065a366004615170565b611f77565b6002546106739067ffffffffffffffff1681565b60405167ffffffffffffffff909116815260200161033d565b610309611f86565b6103096106a23660046151ab565b6120dd565b6103096106b53660046151ed565b612165565b61047c600e5481565b6103a76125e6565b6106de6106d9366004615012565b61266c565b60405161033d9190615226565b6103096106f9366004615012565b61268c565b61030961070c3660046151ab565b6126e2565b61047c61071f36600461502f565b612aac565b61047c610732366004615012565b612b3f565b61047c600d5481565b61079b61074e366004615012565b6001600160a01b0390811660009081526003602081905260409091208054600182015460028301549383015460048401546005850154600690950154939792969590951694909390929091565b6040805197885260208801969096526001600160a01b03909416948601949094526060850191909152608084015260a083019190915260c082015260e00161033d565b6103096107ec36600461502f565b612b5e565b6103096107ff36600461523a565b612d22565b6103096108123660046150d1565b612d32565b610309610825366004615012565b612d43565b6103096108383660046150d1565b612d71565b61030961084b36600461525f565b612d7d565b61030961085e3660046152ec565b6132cd565b61047c61087136600461502f565b613334565b6000546103a7906001600160a01b031681565b6108916133c7565b61089961348b565b336108a38161354f565b60026108ae33610da3565b60028111156108bf576108bf61505b565b146109115760405162461bcd60e51b815260206004820152601760248201527f63616c6c6572206d75737420626520756e626f6e64656400000000000000000060448201526064015b60405180910390fd5b600061091b6135fb565b6001600160a01b0316638a19c8bc6040518163ffffffff1660e01b815260040160206040518083038186803b15801561095357600080fd5b505afa158015610967573d6000803e3d6000fd5b505050506040513d601f19601f8201168201806040525081019061098b9190615316565b90506109978682613674565b6109a28160016136f4565b3360008181526003602052604090206004810192909255600290910180546001600160a01b0319166001600160a01b0389161790556109e390868686613700565b505050505050565b6109f36133c7565b6109fb61348b565b610a043361354f565b336000908152600360205260408082206001600160a01b038981168452919092206002830154909116610a388888886126e2565b6006830154600090610a4b90600161388d565b905060008460070160008381526020019081526020016000206001015490508460070160008381526020019081526020016000206000808201600090556001820160009055505060008460060154905060405180604001604052808c8152602001838152508560070160008381526020019081526020016000206000820151816000015560208201518160010155905050610af4600186600601546136f490919063ffffffff16565b600686015560408051848152602081018390529081018c90526001600160a01b038d169033907ff136b986590e86cf1abd7b6600186a7a1178ad3cbbdf0f3312e79f6214a2a5679060600160405180910390a36000610b516135fb565b6001600160a01b0316638a19c8bc6040518163ffffffff1660e01b815260040160206040518083038186803b158015610b8957600080fd5b505afa158015610b9d573d6000803e3d6000fd5b505050506040513d601f19601f82011682018060405250810190610bc19190615316565b600587015490915081811015610bdc57610bdc8e8383613899565b60028701546001600160a01b0316158015610bf657508654155b15610c71578d6001600160a01b0316866001600160a01b03161415610c2d5760405162461bcd60e51b81526004016109089061532f565b6001600160a01b038e16610c535760405162461bcd60e51b81526004016109089061532f565b6002870180546001600160a01b0319166001600160a01b0388161790555b6002610c7c8f610da3565b6002811115610c8d57610c8d61505b565b1415610ca457610c9e8260016136f4565b60048801555b610cb08e848c8c613700565b5050505050505050505050505050565b6001600160a01b038116600090815260046020526040812081610ce16135fb565b6001600160a01b0316638a19c8bc6040518163ffffffff1660e01b815260040160206040518083038186803b158015610d1957600080fd5b505afa158015610d2d573d6000803e3d6000fd5b505050506040513d601f19601f82011682018060405250810190610d519190615316565b905080826005015411158015610d6a5750816006015481105b949350505050565b6001600160a01b03919091166000908152600360209081526040808320938352600790930190522060010154151590565b6001600160a01b03811660009081526003602052604081208054610dca5750600292915050565b610dd26135fb565b6001600160a01b0316638a19c8bc6040518163ffffffff1660e01b815260040160206040518083038186803b158015610e0a57600080fd5b505afa158015610e1e573d6000803e3d6000fd5b505050506040513d601f19601f82011682018060405250810190610e429190615316565b81600401541115610e565750600092915050565b50600192915050565b610e6a600080612165565b565b610e746133c7565b610e7c6139cf565b83610e868161354f565b6001600160a01b03851660009081526003602052604090208054869190156111f5576001600160a01b038716600090815260036020526040812054610ecb9087613aca565b60405163b0138c4760e01b8152600760048201526001600160a01b038a16602482015290915073__$d23c89be677d40ab24c636937040b6165f$__9063b0138c479060440160206040518083038186803b158015610f2857600080fd5b505af4158015610f3c573d6000803e3d6000fd5b505050506040513d601f19601f82011682018060405250810190610f60919061535a565b15610f6e57610f6e88613ae3565b8154610f7a908261388d565b82556001610f8789610da3565b6002811115610f9857610f9861505b565b1415610feb5760028201546001600160a01b031660009081526003602081905260409091200154610fc9908261388d565b60028301546001600160a01b0316600090815260036020819052604090912001555b806001600160a01b0388161561113a5760006110078388613aca565b9050611011613c14565b60405163e7a49c2b60e01b81526001600160a01b038b8116600483015260248201849052919091169063e7a49c2b90604401600060405180830381600087803b15801561105d57600080fd5b505af1158015611071573d6000803e3d6000fd5b5050505061107d613c14565b6001600160a01b031663c7ee98c2611095848461388d565b6040518263ffffffff1660e01b81526004016110b391815260200190565b600060405180830381600087803b1580156110cd57600080fd5b505af11580156110e1573d6000803e3d6000fd5b5050604080516001600160a01b038d8116825260208201889052918101859052908d1692507ff4b71fed8e2c9a8c67c388bc6d35ad20b9368a24eed6d565459f2b277b6c0c22915060600160405180910390a2506111ee565b611142613c14565b6001600160a01b031663c7ee98c2826040518263ffffffff1660e01b815260040161116f91815260200190565b600060405180830381600087803b15801561118957600080fd5b505af115801561119d573d6000803e3d6000fd5b5050604080516000808252602082018790528183015290516001600160a01b038d1693507ff4b71fed8e2c9a8c67c388bc6d35ad20b9368a24eed6d565459f2b277b6c0c2292509081900360600190a25b5050611244565b604080516001600160a01b038881168252600060208301819052828401529151918916917ff4b71fed8e2c9a8c67c388bc6d35ad20b9368a24eed6d565459f2b277b6c0c229181900360600190a25b506001600160a01b038116600090815260036020908152604080832060049092529091206109e3918391613c65565b60405163e189dedb60e01b8152600760048201526001600160a01b038216602482015260009073__$d23c89be677d40ab24c636937040b6165f$__9063e189dedb9060440160206040518083038186803b1580156112d057600080fd5b505af41580156112e4573d6000803e3d6000fd5b505050506040513d601f19601f82011682018060405250810190611308919061537c565b92915050565b6113166133c7565b61131e61348b565b336113283361354f565b6001600160a01b03811660009081526003602090815260408083206004909252909120611356918391613c65565b5050565b6113626133c7565b61136a61348b565b3360008181526003602090815260408083208584526007810190925290912090916113959084610d72565b6113dd5760405162461bcd60e51b81526020600482015260196024820152781a5b9d985b1a59081d5b989bdb991a5b99c81b1bd8dac81251603a1b6044820152606401610908565b6113e56135fb565b6001600160a01b0316638a19c8bc6040518163ffffffff1660e01b815260040160206040518083038186803b15801561141d57600080fd5b505afa158015611431573d6000803e3d6000fd5b505050506040513d601f19601f820116820180604052508101906114559190615316565b816001015411156114ce5760405162461bcd60e51b815260206004820152603b60248201527f776974686472617720726f756e64206d757374206265206265666f7265206f7260448201527f20657175616c20746f207468652063757272656e7420726f756e6400000000006064820152608401610908565b805460018083015460008681526007860160205260408120818155909201919091556114f8613c14565b60405163e7a49c2b60e01b8152336004820152602481018490526001600160a01b03919091169063e7a49c2b90604401600060405180830381600087803b15801561154257600080fd5b505af1158015611556573d6000803e3d6000fd5b505060408051888152602081018690529081018490523392507f1340f1a8f3d456a649e1a12071dfa15655e3d09252131d0f980c3b405cc8dd2e915060600160405180910390a25050505050565b6115b0816000806126e2565b50565b604051631665d9cb60e31b81526007600482015260009073__$d23c89be677d40ab24c636937040b6165f$__9063b32ece58906024015b60206040518083038186803b15801561160257600080fd5b505af4158015611616573d6000803e3d6000fd5b505050506040513d601f19601f8201168201806040525081019061163a9190615316565b905090565b6116476133c7565b61164f61348b565b6116576135fb565b6001600160a01b0316636841f2536040518163ffffffff1660e01b815260040160206040518083038186803b15801561168f57600080fd5b505afa1580156116a3573d6000803e3d6000fd5b505050506040513d601f19601f820116820180604052508101906116c7919061535a565b1561173a5760405162461bcd60e51b815260206004820152603760248201527f63616e277420757064617465207472616e73636f64657220706172616d732c2060448201527f63757272656e7420726f756e64206973206c6f636b65640000000000000000006064820152608401610908565b61174784620f4240101590565b6117935760405162461bcd60e51b815260206004820152601c60248201527f696e76616c6964207265776172644375742070657263656e74616765000000006044820152606401610908565b6117a083620f4240101590565b6117ec5760405162461bcd60e51b815260206004820152601b60248201527f696e76616c69642066656553686172652070657263656e7461676500000000006044820152606401610908565b6117f533611f3f565b6118415760405162461bcd60e51b815260206004820152601d60248201527f7472616e73636f646572206d75737420626520726567697374657265640000006044820152606401610908565b336000908152600460205260408120906118596135fb565b6001600160a01b0316638a19c8bc6040518163ffffffff1660e01b815260040160206040518083038186803b15801561189157600080fd5b505afa1580156118a5573d6000803e3d6000fd5b505050506040513d601f19601f820116820180604052508101906118c99190615316565b90506118d433610cc0565b15806118e05750815481145b61196a5760405162461bcd60e51b815260206004820152604f60248201527f63616c6c65722063616e277420626520616374697665206f72206d757374206860448201527f61766520616c72656164792063616c6c65642072657761726420666f7220746860648201526e194818dd5c9c995b9d081c9bdd5b99608a1b608482015260a401610908565b600182018690556002820185905560405163b0138c4760e01b81526007600482015233602482015273__$d23c89be677d40ab24c636937040b6165f$__9063b0138c479060440160206040518083038186803b1580156119c957600080fd5b505af41580156119dd573d6000803e3d6000fd5b505050506040513d601f19601f82011682018060405250810190611a01919061535a565b611a30573360008181526003602081905260409091200154611a309190611a298460016136f4565b8787613d91565b604080518781526020810187905233917f7346854431dbb3eb8e373c604abf89e90f4865b8447e1e2834d7b3e4677bf544910160405180910390a2505050505050565b6113568282600080610889565b611a886133c7565b611a906140b4565b611a9983611f3f565b611ae55760405162461bcd60e51b815260206004820152601d60248201527f7472616e73636f646572206d75737420626520726567697374657265640000006044820152606401610908565b6000611aef6135fb565b6001600160a01b0316638a19c8bc6040518163ffffffff1660e01b815260040160206040518083038186803b158015611b2757600080fd5b505afa158015611b3b573d6000803e3d6000fd5b505050506040513d601f19601f82011682018060405250810190611b5f9190615316565b6001600160a01b03851660009081526004602090815260408083208054600782015486865260038301909452918420949550939092611ba885611ba388600161388d565b6141af565b905083861115611bf25760018581015460028088015492850191909155830155600485015486811015611be957600081815260038701602052604090205483555b85600801549350505b81546060820151158015611c0557508685145b15611d72576000611c14613c14565b90506000611d0f611d06836001600160a01b0316632de22cdb6040518163ffffffff1660e01b815260040160206040518083038186803b158015611c5757600080fd5b505afa158015611c6b573d6000803e3d6000fd5b505050506040513d601f19601f82011682018060405250810190611c8f9190615316565b846001600160a01b0316639ae6309a6040518163ffffffff1660e01b815260040160206040518083038186803b158015611cc857600080fd5b505afa158015611cdc573d6000803e3d6000fd5b505050506040513d601f19601f82011682018060405250810190611d009190615316565b906136f4565b84600554614254565b90506000611d1f82600c5461427a565b9050611d2b828261388d565b91506000611d3d838860010154613aca565b90506000611d4b848361388d565b6003890154909150611d679087611d6284826136f4565b614254565b606088015250505050505b6000611d828a8560020154613aca565b90506000611d908b8361388d565b90506000611d9f838886614254565b9050611dbc82611d00838c600901546136f490919063ffffffff16565b60098a0155611dcc868685614296565b50505050600a9094019490945550505050505050565b611dea614311565b600e81905560405160008051602061544e83398151915290611e3690602080825260169082015275747265617375727942616c616e63654365696c696e6760501b604082015260600190565b60405180910390a150565b611356828260008061163f565b6040516339ade16560e11b81526007600482015260009073__$d23c89be677d40ab24c636937040b6165f$__9063735bc2ca906024016115ea565b611e91614311565b60405163a176adaf60e01b8152600760048201526024810182905273__$d23c89be677d40ab24c636937040b6165f$__9063a176adaf9060440160006040518083038186803b158015611ee357600080fd5b505af4158015611ef7573d6000803e3d6000fd5b5050505060008051602061544e833981519152604051611e36906020808252601490820152736e756d4163746976655472616e73636f6465727360601b604082015260600190565b6001600160a01b0380821660008181526003602052604081206002810154919390929116148015611f705750805415155b9392505050565b6109e386338787878787612d7d565b611f8e6143f5565b600654600555600c54600d5414611ff457600d54600c5560405160008051602061544e83398151915290611feb9060208082526015908201527474726561737572795265776172644375745261746560581b604082015260600190565b60405180910390a15b611ffc6144f0565b6001600160a01b031663ef105c916005546120156135fb565b6001600160a01b0316638a19c8bc6040518163ffffffff1660e01b815260040160206040518083038186803b15801561204d57600080fd5b505afa158015612061573d6000803e3d6000fd5b505050506040513d601f19601f820116820180604052508101906120859190615316565b6040516001600160e01b031960e085901b16815260048101929092526024820152604401600060405180830381600087803b1580156120c357600080fd5b505af11580156120d7573d6000803e3d6000fd5b50505050565b6120e56133c7565b6120ed61348b565b336120f78161354f565b600261210233610da3565b60028111156121135761211361505b565b14156121595760405162461bcd60e51b815260206004820152601560248201527418d85b1b195c881b5d5cdd08189948189bdb991959605a1b6044820152606401610908565b6120d733858585613700565b61216d6133c7565b61217561348b565b3360006121806135fb565b6001600160a01b0316638a19c8bc6040518163ffffffff1660e01b815260040160206040518083038186803b1580156121b857600080fd5b505afa1580156121cc573d6000803e3d6000fd5b505050506040513d601f19601f820116820180604052508101906121f09190615316565b90506121fb33610cc0565b6122535760405162461bcd60e51b815260206004820152602360248201527f63616c6c6572206d75737420626520616e20616374697665207472616e73636f6044820152623232b960e91b6064820152608401610908565b336000908152600460205260409020548114156122d15760405162461bcd60e51b815260206004820152603660248201527f63616c6c65722068617320616c72656164792063616c6c65642072657761726460448201527508199bdc881d1a194818dd5c9c995b9d081c9bdd5b9960521b6064820152608401610908565b336000908152600460209081526040808320848452600381019092529091206001808301546002808501549284019190915582015560048201548381101561232757600081815260038401602052604090205482555b600e54156123ed576000612339614541565b6001600160a01b03166370a0823161234f614592565b6040516001600160e01b031960e084901b1681526001600160a01b03909116600482015260240160206040518083038186803b15801561238e57600080fd5b505afa1580156123a2573d6000803e3d6000fd5b505050506040513d601f19601f820116820180604052508101906123c69190615316565b9050600e5481101580156123dc57506000600d54115b156123eb576123eb60006145e3565b505b60006123f7613c14565b8354600554604051637dbedad560e01b81529293506000926001600160a01b03851692637dbedad59261243592600401918252602082015260400190565b602060405180830381600087803b15801561244f57600080fd5b505af1158015612463573d6000803e3d6000fd5b505050506040513d601f19601f820116820180604052508101906124879190615316565b9050600061249782600c5461427a565b905080156125555760006124a9614592565b60405163e7a49c2b60e01b81526001600160a01b038083166004830152602482018590529192509085169063e7a49c2b90604401600060405180830381600087803b1580156124f757600080fd5b505af115801561250b573d6000803e3d6000fd5b5050604080516001600160a01b0385168152602081018690523393507f40e200718fe552021167687e5491d09f5931275b6f88f14a462650f0effb523792500160405180910390a2505b6000612561838361388d565b905061257033828a8e8e6146a7565b87875560405181815233907f619caafabdd75649b302ba8419e48cccf64f37f1983ac4727cfb38b57703ffc99060200160405180910390a2505050506001600160a01b038516600090815260036020908152604080832060049092529091206125e195508694509092509050613c65565b505050565b604051632ebb2fed60e01b81526007600482015260009073__$d23c89be677d40ab24c636937040b6165f$__90632ebb2fed9060240160206040518083038186803b15801561263457600080fd5b505af4158015612648573d6000803e3d6000fd5b505050506040513d601f19601f8201168201806040525081019061163a919061537c565b600061267782611f3f565b1561268457506001919050565b506000919050565b612694614769565b600080546001600160a01b0319166001600160a01b0383169081179091556040519081527f4ff638452bbf33c012645d18ae6f05515ff5f2d1dfb0cece8cbf018c60903f7090602001611e36565b6126ea6133c7565b6126f261348b565b336126fc8161354f565b33600161270833610da3565b60028111156127195761271961505b565b1461275e5760405162461bcd60e51b815260206004820152601560248201527418d85b1b195c881b5d5cdd08189948189bdb991959605a1b6044820152606401610908565b336000908152600360205260409020856127c65760405162461bcd60e51b8152602060048201526024808201527f756e626f6e6420616d6f756e74206d75737420626520677265617465722074686044820152630616e20360e41b6064820152608401610908565b80548611156128235760405162461bcd60e51b8152602060048201526024808201527f616d6f756e742069732067726561746572207468616e20626f6e64656420616d6044820152631bdd5b9d60e21b6064820152608401610908565b60028101546001600160a01b0316600061283b6135fb565b6001600160a01b0316638a19c8bc6040518163ffffffff1660e01b815260040160206040518083038186803b15801561287357600080fd5b505afa158015612887573d6000803e3d6000fd5b505050506040513d601f19601f820116820180604052508101906128ab9190615316565b6002549091506000906128c990839067ffffffffffffffff166136f4565b60068501546040805180820182528c81526020808201858152600085815260078b019092529290209051815590516001918201559192509061290c9082906136f4565b6006860155845461291d908b61388d565b8086556129da576002850180546001600160a01b0319169055600060048087019190915560405163b0138c4760e01b815260079181019190915233602482015273__$d23c89be677d40ab24c636937040b6165f$__9063b0138c479060440160206040518083038186803b15801561299457600080fd5b505af41580156129a8573d6000803e3d6000fd5b505050506040513d601f19601f820116820180604052508101906129cc919061535a565b156129da576129da33613ae3565b6129e6848b8b8b6147c3565b6001600160a01b0384163314612a24576001600160a01b03841660009081526003602090815260408083206004909252909120612a24918691613c65565b60408051828152602081018c905290810183905233906001600160a01b038616907f2d5d98d189bee5496a08db2a5948cb7e5e786f09d17d0c3f228eb41776c24a069060600160405180910390a35050506001600160a01b03831660009081526003602090815260408083206004909252909120612aa59350849250613c65565b5050505050565b600080612ab76135fb565b6001600160a01b0316638a19c8bc6040518163ffffffff1660e01b815260040160206040518083038186803b158015612aef57600080fd5b505afa158015612b03573d6000803e3d6000fd5b505050506040513d601f19601f82011682018060405250810190612b279190615316565b90506000612b358583614a00565b5095945050505050565b6001600160a01b03166000908152600360208190526040909120015490565b612b666133c7565b612b6e61348b565b33612b788161354f565b336001600160a01b038416612bc35760405162461bcd60e51b81526020600482015260116024820152701a5b9d985b1a59081c9958da5c1a595b9d607a1b6044820152606401610908565b3360009081526003602052604090206001015483811015612c265760405162461bcd60e51b815260206004820152601d60248201527f696e73756666696369656e74206665657320746f2077697468647261770000006044820152606401610908565b612c30818561388d565b33600090815260036020526040902060010155612c4b613c14565b6040516320283da960e01b81526001600160a01b0387811660048301526024820187905291909116906320283da990604401600060405180830381600087803b158015612c9757600080fd5b505af1158015612cab573d6000803e3d6000fd5b5050604080516001600160a01b0389168152602081018890523393507f4f1b51dd7a2fcb861aa2670f668be66835c4ee12b4bbbf037e4d0018f39819e492500160405180910390a2506001600160a01b038116600090815260036020908152604080832060049092529091206120d7918391613c65565b6113568282600080600080611f77565b612d3a614311565b6115b0816145e3565b6001600160a01b038116600090815260036020908152604080832060049092529091206115b0918391613c65565b6115b0816000806120dd565b612d856133c7565b612d8d61348b565b612d968661354f565b6001600160a01b038616600090815260036020526040812090612db76135fb565b6001600160a01b0316638a19c8bc6040518163ffffffff1660e01b815260040160206040518083038186803b158015612def57600080fd5b505afa158015612e03573d6000803e3d6000fd5b505050506040513d601f19601f82011682018060405250810190612e279190615316565b600283015483549192508a916001600160a01b03918216918b163314801590612e695750612e53614ac5565b6001600160a01b0316336001600160a01b031614155b15612f71576001600160a01b038b16612e945760405162461bcd60e51b81526004016109089061532f565b6002612e9f8c610da3565b6002811115612eb057612eb061505b565b1415612f10578a6001600160a01b03168a6001600160a01b03161415612f0b5760405162461bcd60e51b815260206004820152601060248201526f494e56414c49445f44454c454741544560801b6044820152606401610908565b612f71565b896001600160a01b0316826001600160a01b031614612f715760405162461bcd60e51b815260206004820152601760248201527f494e56414c49445f44454c45474154455f4348414e47450000000000000000006044820152606401610908565b6002612f7c8c610da3565b6002811115612f8d57612f8d61505b565b1415612fa857612f9e8460016136f4565b60048601556130a1565b600081118015612fca5750896001600160a01b0316826001600160a01b031614155b156130a157612fd88b611f3f565b1561304b5760405162461bcd60e51b815260206004820152603d60248201527f72656769737465726564207472616e73636f646572732063616e27742064656c60448201527f656761746520746f7761726473206f74686572206164647265737365730000006064820152608401610908565b6130568460016136f4565b600486015561306583826136f4565b925061307382828b8b6147c3565b6001600160a01b038216600090815260036020908152604080832060049092529091206130a1918491613c65565b6130ab8a85613674565b6000831161310c5760405162461bcd60e51b815260206004820152602860248201527f64656c65676174696f6e20616d6f756e74206d75737420626520677265617465604482015267072207468616e20360c41b6064820152608401610908565b6002850180546001600160a01b0319166001600160a01b038c16179055613133818d6136f4565b85556131418a848989614b16565b8a6001600160a01b03168a6001600160a01b031614613188576001600160a01b038a1660009081526003602090815260408083206004909252909120613188918c91613c65565b8b1561323657613196614541565b6001600160a01b03166323b872dd336131ad613c14565b6040516001600160e01b031960e085901b1681526001600160a01b03928316600482015291166024820152604481018f9052606401602060405180830381600087803b1580156131fc57600080fd5b505af1158015613210573d6000803e3d6000fd5b505050506040513d601f19601f82011682018060405250810190613234919061535a565b505b8a6001600160a01b0316826001600160a01b03168b6001600160a01b03167fe5917769f276ddca9f2ee7c6b0b33e1d1e1b61008010ce622c632dd20d168a238f8960000154604051613292929190918252602082015260400190565b60405180910390a46001600160a01b038b1660009081526004602052604090206132bf908c908790613c65565b505050505050505050505050565b6132d5614311565b6002805467ffffffffffffffff831667ffffffffffffffff1990911617905560405160008051602061544e83398151915290611e36906020808252600f908201526e1d5b989bdb991a5b99d4195c9a5bd9608a1b604082015260600190565b60008061333f6135fb565b6001600160a01b0316638a19c8bc6040518163ffffffff1660e01b815260040160206040518083038186803b15801561337757600080fd5b505afa15801561338b573d6000803e3d6000fd5b505050506040513d601f19601f820116820180604052508101906133af9190615316565b905060006133bd8583614a00565b9695505050505050565b60008054906101000a90046001600160a01b03166001600160a01b0316635c975abb6040518163ffffffff1660e01b815260040160206040518083038186803b15801561341357600080fd5b505afa158015613427573d6000803e3d6000fd5b505050506040513d601f19601f8201168201806040525081019061344b919061535a565b15610e6a5760405162461bcd60e51b815260206004820152601060248201526f1cde5cdd195b481a5cc81c185d5cd95960821b6044820152606401610908565b6134936135fb565b6001600160a01b031663219bc76c6040518163ffffffff1660e01b815260040160206040518083038186803b1580156134cb57600080fd5b505afa1580156134df573d6000803e3d6000fd5b505050506040513d601f19601f82011682018060405250810190613503919061535a565b610e6a5760405162461bcd60e51b815260206004820181905260248201527f63757272656e7420726f756e64206973206e6f7420696e697469616c697a65646044820152606401610908565b60006135596135fb565b6001600160a01b0316638a19c8bc6040518163ffffffff1660e01b815260040160206040518083038186803b15801561359157600080fd5b505afa1580156135a5573d6000803e3d6000fd5b505050506040513d601f19601f820116820180604052508101906135c99190615316565b6001600160a01b038316600090815260036020526040902060050154909150818110156125e1576125e1838383613899565b60008054604051631c2d8fb360e31b81527fe8438ea868df48e3fc21f2f087b993c9b1837dc0f6135064161ce7d7a1701fe860048201526001600160a01b039091169063e16c7d98906024015b60206040518083038186803b15801561366057600080fd5b505afa158015612648573d6000803e3d6000fd5b6001600160a01b038216600090815260046020908152604080832084845260038082019093529220908101546136c4578154838110156136c2576136b88382614d46565b6060015160038301555b505b60048101546120d757600a82015483811015612aa5576136e48382614d46565b6080015160048301555050505050565b6000611f7082846153af565b6001600160a01b0384166000908152600360209081526040808320868452600781019092529091208591906137358387610d72565b61377d5760405162461bcd60e51b81526020600482015260196024820152781a5b9d985b1a59081d5b989bdb991a5b99c81b1bd8dac81251603a1b6044820152606401610908565b8054825461378b90826136f4565b8355600087815260078401602052604081208181556001015560028301546001600160a01b03166137be81838989614b16565b886001600160a01b0316816001600160a01b031614613805576001600160a01b03811660009081526003602090815260408083206004909252909120613805918391613c65565b886001600160a01b0316816001600160a01b03167f9f5b64cc71e1e26ff178caaa7877a04d8ce66fde989251870e80e6fbee690c178a85604051613853929190918252602082015260400190565b60405180910390a3505050506001600160a01b03811660009081526003602090815260408083206004909252909120612aa5918391613c65565b6000611f7082846153c7565b6001600160a01b0383166000908152600360205260408120906138bd8360016136f4565b82546001840154600285015492935090916001600160a01b031615613941576138e68787614a00565b600286015491935091506001600160a01b03166139038188613674565b60028501546001600160a01b038981169116141561393f576001600160a01b038116600090815260046020526040812060098101829055600801555b505b600284015484546001600160a01b03808a169216907fd7eab0765b772ea6ea859d5633baf737502198012e930f257f90013d9b2110949061398390869061388d565b600188015461399390869061388d565b6040805192835260208301919091528101879052606081018a905260800160405180910390a36005840195909555825550600101919091555050565b600054604051631c2d8fb360e31b81527f121833d5ee4fda5e1a4034c2b7be8155c158142541dea26f39122c796649233f60048201526001600160a01b039091169063e16c7d989060240160206040518083038186803b158015613a3257600080fd5b505afa158015613a46573d6000803e3d6000fd5b505050506040513d601f19601f82011682018060405250810190613a6a919061537c565b6001600160a01b0316336001600160a01b031614610e6a5760405162461bcd60e51b815260206004820152601760248201527f63616c6c6572206d7573742062652056657269666965720000000000000000006044820152606401610908565b6000611f70620f4240613add8585614da9565b90614db5565b604051635d35e00760e01b8152600760048201526001600160a01b038216602482015273__$d23c89be677d40ab24c636937040b6165f$__90635d35e0079060440160006040518083038186803b158015613b3d57600080fd5b505af4158015613b51573d6000803e3d6000fd5b50505050613b6a613b6182612b3f565b6006549061388d565b6006556000613bb46001613b7c6135fb565b6001600160a01b0316638a19c8bc6040518163ffffffff1660e01b815260040160206040518083038186803b158015611cc857600080fd5b6001600160a01b0383166000818152600460205260409081902060060183905551919250907ffee3e693fc72d0a0a673805f3e606c551f4c677b9072444b90dd2d0406bc995c90613c089084815260200190565b60405180910390a25050565b60008054604051631c2d8fb360e31b81527f6e58ad548d72b425ea94c15f453bf26caddb061d82b2551db7fdd3cefe0e994060048201526001600160a01b039091169063e16c7d9890602401613648565b6000613c6f6135fb565b6001600160a01b0316638a19c8bc6040518163ffffffff1660e01b815260040160206040518083038186803b158015613ca757600080fd5b505afa158015613cbb573d6000803e3d6000fd5b505050506040513d601f19601f82011682018060405250810190613cdf9190615316565b613cea9060016153af565b9050613cf46144f0565b8354600285015460038601546005870154865460405163e35c3e4360e01b81526001600160a01b038b811660048301526024820189905260448201969096529385166064850152608484019290925260a483015260c482015291169063e35c3e439060e401600060405180830381600087803b158015613d7357600080fd5b505af1158015613d87573d6000803e3d6000fd5b5050505050505050565b6006546040516304aa129960e41b81526007600482015273__$d23c89be677d40ab24c636937040b6165f$__90634aa129909060240160206040518083038186803b158015613ddf57600080fd5b505af4158015613df3573d6000803e3d6000fd5b505050506040513d601f19601f82011682018060405250810190613e17919061535a565b15613fa257604051633972059360e11b81526007600482015260009073__$d23c89be677d40ab24c636937040b6165f$__906372e40b269060240160206040518083038186803b158015613e6a57600080fd5b505af4158015613e7e573d6000803e3d6000fd5b505050506040513d601f19601f82011682018060405250810190613ea2919061537c565b90506000613eaf82612b3f565b9050808711613ec057505050612aa5565b604051635d35e00760e01b8152600760048201526001600160a01b038316602482015273__$d23c89be677d40ab24c636937040b6165f$__90635d35e0079060440160006040518083038186803b158015613f1a57600080fd5b505af4158015613f2e573d6000803e3d6000fd5b5050506001600160a01b038316600090815260046020526040902060060187905550613f5a838261388d565b9250816001600160a01b03167ffee3e693fc72d0a0a673805f3e606c551f4c677b9072444b90dd2d0406bc995c87604051613f9791815260200190565b60405180910390a250505b6040516327dd54d360e11b815273__$d23c89be677d40ab24c636937040b6165f$__90634fbaa9a690613fe2906007908a908a90899089906004016153de565b60006040518083038186803b158015613ffa57600080fd5b505af415801561400e573d6000803e3d6000fd5b5050505061402585826136f490919063ffffffff16565b6001600160a01b03871660009081526004602081815260408084209283018990556005830189905560001960068401558884526003830190915290912087905590915060068290556040518581526001600160a01b038816907f65d72d782835d64c3287844a829608d5abdc7e864cc9affe96d910ab3db665e99060200160405180910390a250505050505050565b600054604051631c2d8fb360e31b81527fbd1aa3e8d2464256d7fd3dcf645c16418d5d8c51d971f1ad7d57e7b1b5eee23960048201526001600160a01b039091169063e16c7d989060240160206040518083038186803b15801561411757600080fd5b505afa15801561412b573d6000803e3d6000fd5b505050506040513d601f19601f8201168201806040525081019061414f919061537c565b6001600160a01b0316336001600160a01b031614610e6a5760405162461bcd60e51b815260206004820152601b60248201527f63616c6c6572206d757374206265205469636b657442726f6b657200000000006044820152606401610908565b6141e16040518060a0016040528060008152602001600081526020016000815260200160008152602001600081525090565b6141eb8383614d46565b835460608201519192509015801561420257508281105b1561421c576142118482614d46565b606090810151908301525b600a840154608083015115801561423257508381105b1561424c576142418582614d46565b608090810151908401525b505092915050565b6000610d6a6b033b2e3c9fd0803ce8000000613add6142738686614dc1565b8790614da9565b6000611f706b033b2e3c9fd0803ce8000000613add8585614da9565b608082015160608301516000906142b7576142b2600180614dc1565b6142bd565b83606001515b90508460040154600014156142f4576142e56142de82858860000154614254565b83906136f4565b85600401819055505050505050565b6142e561430682858860000154614254565b6004870154906136f4565b60008054906101000a90046001600160a01b03166001600160a01b0316638da5cb5b6040518163ffffffff1660e01b815260040160206040518083038186803b15801561435d57600080fd5b505afa158015614371573d6000803e3d6000fd5b505050506040513d601f19601f82011682018060405250810190614395919061537c565b6001600160a01b0316336001600160a01b031614610e6a5760405162461bcd60e51b815260206004820152601f60248201527f63616c6c6572206d75737420626520436f6e74726f6c6c6572206f776e6572006044820152606401610908565b600054604051631c2d8fb360e31b81527fe8438ea868df48e3fc21f2f087b993c9b1837dc0f6135064161ce7d7a1701fe860048201526001600160a01b039091169063e16c7d989060240160206040518083038186803b15801561445857600080fd5b505afa15801561446c573d6000803e3d6000fd5b505050506040513d601f19601f82011682018060405250810190614490919061537c565b6001600160a01b0316336001600160a01b031614610e6a5760405162461bcd60e51b815260206004820152601c60248201527f63616c6c6572206d75737420626520526f756e64734d616e61676572000000006044820152606401610908565b60008054604051631c2d8fb360e31b81527f2a1b465fbcae519904f0fb11f93e73dfbeb47ec54530ec444279610af8cf06b260048201526001600160a01b039091169063e16c7d9890602401613648565b60008054604051631c2d8fb360e31b81527f3443e257065fe41dd0e4d1f5a1b73a22a62e300962b57f30cddf41d0f8273ba760048201526001600160a01b039091169063e16c7d9890602401613648565b60008054604051631c2d8fb360e31b81527f6efca2866b731ee4984990bacad4cde10f1ef764fb54a5206bdfd291695b1a9b60048201526001600160a01b039091169063e16c7d9890602401613648565b6145f9816b033b2e3c9fd0803ce8000000101590565b6146545760405162461bcd60e51b815260206004820152602660248201527f5f6375745261746520697320696e76616c696420707265636973652070657263604482015265656e7461676560d01b6064820152608401610908565b600d81905560405160008051602061544e83398151915290611e36906020808252601e908201527f6e657874526f756e645472656173757279526577617264437574526174650000604082015260600190565b6001600160a01b03851660009081526004602090815260408083208684526003810190925282208154919290916146df908490614d46565b90508260080154836007018190555060006146fe888460010154613aca565b9050600061470c898361388d565b905060006147238287600701548760000154614254565b905061474083611d008389600801546136f490919063ffffffff16565b6008870155614750858584614ddd565b61475c8b8b8a8a614b16565b5050505050505050505050565b6000546001600160a01b03163314610e6a5760405162461bcd60e51b815260206004820152601960248201527f63616c6c6572206d75737420626520436f6e74726f6c6c6572000000000000006044820152606401610908565b6001600160a01b0384166000908152600460205260408120906147e586612b3f565b905060006147f3828761388d565b60405163b0138c4760e01b8152600760048201526001600160a01b038916602482015290915073__$d23c89be677d40ab24c636937040b6165f$__9063b0138c479060440160206040518083038186803b15801561485057600080fd5b505af4158015614864573d6000803e3d6000fd5b505050506040513d601f19601f82011682018060405250810190614888919061535a565b156149d85760006148976135fb565b6001600160a01b0316638a19c8bc6040518163ffffffff1660e01b815260040160206040518083038186803b1580156148cf57600080fd5b505afa1580156148e3573d6000803e3d6000fd5b505050506040513d601f19601f820116820180604052508101906149079190615316565b905060006149168260016136f4565b604051631c11bf7f60e11b815290915073__$d23c89be677d40ab24c636937040b6165f$__906338237efe90614959906007908d9088908d908d906004016153de565b60006040518083038186803b15801561497157600080fd5b505af4158015614985573d6000803e3d6000fd5b5050600654614997925090508961388d565b60065560048501548211156149ba57600082815260038601602052604090208490555b60048501819055600081815260038601602052604090208390555b50505b6001600160a01b03909616600090815260036020819052604090912001959095555050505050565b6001600160a01b03808316600090815260036020908152604080832060028101549094168352600490915281206001808401548454600586015490959194919392614a4b91906136f4565b60028401549091506001600160a01b039081169088168114878311614a8757614a8184614a7985600161388d565b8a8a8a614e2b565b90975095505b8015614ab9576008840154614a9d9088906136f4565b9650614ab68460090154876136f490919063ffffffff16565b95505b50505050509250929050565b60008054604051631c2d8fb360e31b81527f74b6d21e0d4650f622c903126d418c1a52bcc99ea7acb0db0809fc0eeae6c7c360048201526001600160a01b039091169063e16c7d9890602401613648565b6001600160a01b038416600090815260046020526040812090614b3886612b3f565b90506000614b4682876136f4565b9050614b5187611f3f565b156149d8576000614b606135fb565b6001600160a01b0316638a19c8bc6040518163ffffffff1660e01b815260040160206040518083038186803b158015614b9857600080fd5b505afa158015614bac573d6000803e3d6000fd5b505050506040513d601f19601f82011682018060405250810190614bd09190615316565b90506000614bdf8260016136f4565b60405163b0138c4760e01b8152600760048201526001600160a01b038b16602482015290915073__$d23c89be677d40ab24c636937040b6165f$__9063b0138c479060440160206040518083038186803b158015614c3c57600080fd5b505af4158015614c50573d6000803e3d6000fd5b505050506040513d601f19601f82011682018060405250810190614c74919061535a565b15614d3957604051631c11bf7f60e11b815273__$d23c89be677d40ab24c636937040b6165f$__906338237efe90614cb9906007908d9088908d908d906004016153de565b60006040518083038186803b158015614cd157600080fd5b505af4158015614ce5573d6000803e3d6000fd5b5050600654614cf792509050896136f4565b6006556004850154821115614d1a57600082815260038601602052604090208490555b60008181526003860160205260409020839055600485018190556149d5565b6149d58984838a8a613d91565b614d786040518060a0016040528060008152602001600081526020016000815260200160008152602001600081525090565b6000828152600393840160208181526040832095860154606085015293909152909152600490910154608082015290565b6000611f70828461540c565b6000611f70828461542b565b6000611f7082613add856b033b2e3c9fd0803ce8000000614da9565b6000826060015160001415614dfc57614df7600180614dc1565b614e02565b82606001515b9050614e1d614e1682848760000154614254565b82906136f4565b846003018190555050505050565b6000806000614e3a8888614d46565b90506000614e4889886141af565b9050614e5682828888614e66565b9350935050509550959350505050565b600080614e74868686614e8d565b9150614e8286868686614eda565b905094509492505050565b6000836060015160001415614ead57614ea7600180614dc1565b60608501525b6060830151614ec757614ec1600180614dc1565b60608401525b610d6a8284606001518660600151614254565b6000846060015160001415614efa57614ef4600180614dc1565b60608601525b6000614f2584614f1b8860800151886080015161388d90919063ffffffff16565b8860600151614254565b90506133bd83826136f4565b6001600160a01b03811681146115b057600080fd5b60008060008060808587031215614f5c57600080fd5b8435614f6781614f31565b9350602085013592506040850135614f7e81614f31565b91506060850135614f8e81614f31565b939692955090935050565b60008060008060008060c08789031215614fb257600080fd5b8635614fbd81614f31565b9550602087013594506040870135614fd481614f31565b93506060870135614fe481614f31565b92506080870135614ff481614f31565b915060a087013561500481614f31565b809150509295509295509295565b60006020828403121561502457600080fd5b8135611f7081614f31565b6000806040838503121561504257600080fd5b823561504d81614f31565b946020939093013593505050565b634e487b7160e01b600052602160045260246000fd5b60208101600383106150855761508561505b565b91905290565b600080600080608085870312156150a157600080fd5b84356150ac81614f31565b935060208501356150bc81614f31565b93969395505050506040820135916060013590565b6000602082840312156150e357600080fd5b5035919050565b6000806000806080858703121561510057600080fd5b84359350602085013592506040850135614f7e81614f31565b60008060006060848603121561512e57600080fd5b833561513981614f31565b95602085013595506040909401359392505050565b6000806040838503121561516157600080fd5b50508035926020909101359150565b60008060008060008060c0878903121561518957600080fd5b86359550602087013561519b81614f31565b94506040870135614fd481614f31565b6000806000606084860312156151c057600080fd5b8335925060208401356151d281614f31565b915060408401356151e281614f31565b809150509250925092565b6000806040838503121561520057600080fd5b823561520b81614f31565b9150602083013561521b81614f31565b809150509250929050565b60208101600283106150855761508561505b565b6000806040838503121561524d57600080fd5b82359150602083013561521b81614f31565b600080600080600080600060e0888a03121561527a57600080fd5b87359650602088013561528c81614f31565b9550604088013561529c81614f31565b945060608801356152ac81614f31565b935060808801356152bc81614f31565b925060a08801356152cc81614f31565b915060c08801356152dc81614f31565b8091505092959891949750929550565b6000602082840312156152fe57600080fd5b813567ffffffffffffffff81168114611f7057600080fd5b60006020828403121561532857600080fd5b5051919050565b60208082526011908201527024a72b20a624a22fa222a622a3a0aa27a960791b604082015260600190565b60006020828403121561536c57600080fd5b81518015158114611f7057600080fd5b60006020828403121561538e57600080fd5b8151611f7081614f31565b634e487b7160e01b600052601160045260246000fd5b600082198211156153c2576153c2615399565b500190565b6000828210156153d9576153d9615399565b500390565b9485526001600160a01b03938416602086015260408501929092528216606084015216608082015260a00190565b600081600019048311821515161561542657615426615399565b500290565b60008261544857634e487b7160e01b600052601260045260246000fd5b50049056fe9f5033568d78ae30f29f01e944f97b2216493bd19d1b46d429673acff3dcd674a2646970667358221220f8f1f36b2676f0fef37e56b09948c82c2826bb191090710ffde048be1737695b64736f6c63430008090033",
  "libraries": {
    "SortedDoublyLL": "0xC45f6918F7Bcac7aBc8fe05302b3cDF39776cdeb"
  },
  "devdoc": {
    "kind": "dev",
    "methods": {
      "bond(uint256,address)": {
        "params": {
          "_amount": "The amount of tokens to stake",
          "_to": "The address of the transcoder to stake towards"
        }
      },
      "bondForWithHint(uint256,address,address,address,address,address,address)": {
        "details": "If the caller is decreasing the stake of its old delegate in the transcoder pool, the caller can provide an optional hint for the insertion position of the old delegate via the `_oldDelegateNewPosPrev` and `_oldDelegateNewPosNext` params. If the caller is delegating to a delegate that is in the transcoder pool, the caller can provide an optional hint for the insertion position of the delegate via the `_currDelegateNewPosPrev` and `_currDelegateNewPosNext` params. In both cases, a linear search will be executed starting at the hint to find the correct position. In the best case, the hint is the correct position so no search is executed. See SortedDoublyLL.sol for details on list hints",
        "params": {
          "_amount": "The amount of tokens to stake.",
          "_currDelegateNewPosNext": "The address of the next transcoder in the pool for the current delegate",
          "_currDelegateNewPosPrev": "The address of the previous transcoder in the pool for the current delegate",
          "_oldDelegateNewPosNext": "The address of the next transcoder in the pool for the old delegate",
          "_oldDelegateNewPosPrev": "The address of the previous transcoder in the pool for the old delegate",
          "_owner": "The address of the owner of the bond",
          "_to": "The address of the transcoder to stake towards"
        }
      },
      "bondWithHint(uint256,address,address,address,address,address)": {
        "details": "If the caller is decreasing the stake of its old delegate in the transcoder pool, the caller can provide an optional hint for the insertion position of the old delegate via the `_oldDelegateNewPosPrev` and `_oldDelegateNewPosNext` params. If the caller is delegating to a delegate that is in the transcoder pool, the caller can provide an optional hint for the insertion position of the delegate via the `_currDelegateNewPosPrev` and `_currDelegateNewPosNext` params. In both cases, a linear search will be executed starting at the hint to find the correct position. In the best case, the hint is the correct position so no search is executed. See SortedDoublyLL.sol for details on list hints",
        "params": {
          "_amount": "The amount of tokens to stake.",
          "_currDelegateNewPosNext": "The address of the next transcoder in the pool for the current delegate",
          "_currDelegateNewPosPrev": "The address of the previous transcoder in the pool for the current delegate",
          "_oldDelegateNewPosNext": "The address of the next transcoder in the pool for the old delegate",
          "_oldDelegateNewPosPrev": "The address of the previous transcoder in the pool for the old delegate",
          "_to": "The address of the transcoder to stake towards"
        }
      },
      "checkpointBondingState(address)": {
        "details": "This is to allow checkpointing an account that has an inconsistent checkpoint with its current state.",
        "params": {
          "_account": "The account to make the checkpoint for"
        }
      },
      "claimEarnings(uint256)": {
        "params": {
          "_endRound": "Unused, but used to represented the last round for which to claim token pools shares for a delegator. Currently, the earnings are always claimed until the current round instead."
        }
      },
      "constructor": {
        "details": "This constructor will not initialize any state variables besides `controller`. The following setter functions should be used to initialize state variables post-deployment: - setUnbondingPeriod() - setNumActiveTranscoders()",
        "params": {
          "_controller": "Address of Controller that this contract will be registered with"
        }
      },
      "delegatorStatus(address)": {
        "params": {
          "_delegator": "Address of delegator"
        },
        "returns": {
          "_0": "bonded, unbonded or pending delegator status"
        }
      },
      "getDelegator(address)": {
        "params": {
          "_delegator": "Address of delegator"
        },
        "returns": {
          "bondedAmount": "total amount bonded by '_delegator'",
          "delegateAddress": "address '_delegator' has bonded to",
          "delegatedAmount": "total amount delegated to '_delegator'",
          "fees": "amount of fees collected by '_delegator'",
          "lastClaimRound": "round for which '_delegator' has last claimed earnings",
          "nextUnbondingLockId": "ID for the next unbonding lock created for '_delegator'",
          "startRound": "round in which bond for '_delegator' became effective"
        }
      },
      "getDelegatorUnbondingLock(address,uint256)": {
        "params": {
          "_delegator": "Address of delegator",
          "_unbondingLockId": "ID of unbonding lock"
        },
        "returns": {
          "amount": "of stake locked up by unbonding lock",
          "withdrawRound": "round in which 'amount' becomes available for withdrawal"
        }
      },
      "getFirstTranscoderInPool()": {
        "returns": {
          "_0": "address for transcoder with highest stake in transcoder pool"
        }
      },
      "getNextTranscoderInPool(address)": {
        "params": {
          "_transcoder": "Address of a transcoder in the pool"
        },
        "returns": {
          "_0": "address for the transcoder after '_transcoder' in transcoder pool"
        }
      },
      "getTotalBonded()": {
        "returns": {
          "_0": "total active stake for the current round"
        }
      },
      "getTranscoder(address)": {
        "params": {
          "_transcoder": "Address of transcoder"
        },
        "returns": {
          "activationRound": "Round in which transcoder became active",
          "activeCumulativeRewards": "Transcoder's cumulative rewards that are currently active",
          "cumulativeFees": "Transcoder's cumulative fees (earned via its active staked rewards and its fee share)",
          "cumulativeRewards": "Transcoder's cumulative rewards (earned via its active staked rewards and its reward cut)",
          "deactivationRound": "Round in which transcoder will no longer be active",
          "feeShare": "Transcoder's fee share",
          "lastActiveStakeUpdateRound": "Round in which transcoder's stake was last updated while active",
          "lastFeeRound": "Latest round that the transcoder received fees",
          "lastRewardRound": "Trancoder's last reward round",
          "rewardCut": "Transcoder's reward cut"
        }
      },
      "getTranscoderEarningsPoolForRound(address,uint256)": {
        "params": {
          "_round": "Round number",
          "_transcoder": "Address of transcoder"
        },
        "returns": {
          "cumulativeFeeFactor": "The cumulative fee factor for delegator fees calculation (only used after LIP-36)",
          "cumulativeRewardFactor": "The cumulative reward factor for delegator rewards calculation (only used after LIP-36)",
          "totalStake": "Transcoder's total stake in '_round'",
          "transcoderFeeShare": "Transcoder's fee share for '_round'",
          "transcoderRewardCut": "Transcoder's reward cut for '_round'"
        }
      },
      "getTranscoderPoolMaxSize()": {
        "returns": {
          "_0": "transcoder pool max size"
        }
      },
      "getTranscoderPoolSize()": {
        "returns": {
          "_0": "transcoder pool current size"
        }
      },
      "isActiveTranscoder(address)": {
        "params": {
          "_transcoder": "Transcoder address"
        },
        "returns": {
          "_0": "true if transcoder is active"
        }
      },
      "isRegisteredTranscoder(address)": {
        "params": {
          "_transcoder": "Transcoder address"
        },
        "returns": {
          "_0": "true if transcoder is self-bonded"
        }
      },
      "isValidUnbondingLock(address,uint256)": {
        "params": {
          "_delegator": "Address of delegator",
          "_unbondingLockId": "ID of unbonding lock"
        },
        "returns": {
          "_0": "true if unbondingLock for ID has a non-zero withdraw round"
        }
      },
      "pendingFees(address,uint256)": {
        "params": {
          "_delegator": "Address of delegator",
          "_endRound": "Unused, but used to represent the last round to compute pending fees from. Currently, the pending fees are always calculated for the current round instead."
        },
        "returns": {
          "_0": "Pending fees for '_delegator' since last claiming fees"
        }
      },
      "pendingStake(address,uint256)": {
        "params": {
          "_delegator": "Address of delegator",
          "_endRound": "Unused, but used to represent the last round to compute pending stake from. Currently, the pending stake is always calculated for the current round instead."
        },
        "returns": {
          "_0": "Pending bonded stake for '_delegator' since last claiming rewards"
        }
      },
      "rebond(uint256)": {
        "params": {
          "_unbondingLockId": "ID of unbonding lock to rebond with"
        }
      },
      "rebondFromUnbonded(address,uint256)": {
        "params": {
          "_to": "Address of delegate",
          "_unbondingLockId": "ID of unbonding lock to rebond with"
        }
      },
      "rebondFromUnbondedWithHint(address,uint256,address,address)": {
        "details": "If the delegate joins the transcoder pool, the caller can provide an optional hint for the delegate's insertion position in the pool via the `_newPosPrev` and `_newPosNext` params. A linear search will be executed starting at the hint to find the correct position. In the best case, the hint is the correct position so no search is executed. See SortedDoublyLL.sol for details on list hints",
        "params": {
          "_newPosNext": "Address of next transcoder in pool if the delegate joins the pool",
          "_newPosPrev": "Address of previous transcoder in pool if the delegate joins the pool",
          "_to": "Address of delegate",
          "_unbondingLockId": "ID of unbonding lock to rebond with"
        }
      },
      "rebondWithHint(uint256,address,address)": {
        "details": "If the delegate is in the transcoder pool, the caller can provide an optional hint for the delegate's insertion position in the pool via the `_newPosPrev` and `_newPosNext` params. A linear search will be executed starting at the hint to find the correct position. In the best case, the hint is the correct position so no search is executed. See SortedDoublyLL.sol details on list hints",
        "params": {
          "_newPosNext": "Address of next transcoder in pool if the delegate is in the pool",
          "_newPosPrev": "Address of previous transcoder in pool if the delegate is in the pool",
          "_unbondingLockId": "ID of unbonding lock to rebond with"
        }
      },
      "rewardWithHint(address,address)": {
        "details": "If the caller is in the transcoder pool, the caller can provide an optional hint for its insertion position in the pool via the `_newPosPrev` and `_newPosNext` params. A linear search will be executed starting at the hint to find the correct position. In the best case, the hint is the correct position so no search is executed. See SortedDoublyLL.sol for details on list hints",
        "params": {
          "_newPosNext": "Address of next transcoder in pool if the caller is in the pool",
          "_newPosPrev": "Address of previous transcoder in pool if the caller is in the pool"
        }
      },
      "setController(address)": {
        "params": {
          "_controller": "Controller contract address"
        }
      },
      "setNumActiveTranscoders(uint256)": {
        "params": {
          "_numActiveTranscoders": "Number of active transcoders"
        }
      },
      "setTreasuryBalanceCeiling(uint256)": {
        "params": {
          "_ceiling": "Balance at which treasury reward contributions should halt. Specified in LPT fractional units (18-digit precision)."
        }
      },
      "setTreasuryRewardCutRate(uint256)": {
        "params": {
          "_cutRate": "Percentage of newly minted rewards to route to the treasury. Must be a valid PreciseMathUtils percentage (<100% specified with 27-digits precision)."
        }
      },
      "setUnbondingPeriod(uint64)": {
        "params": {
          "_unbondingPeriod": "Rounds between unbonding and possible withdrawal"
        }
      },
      "slashTranscoder(address,address,uint256,uint256)": {
        "details": "This function is not currently used today as the Verifier role is set to the null address (0x000...). It still remains a key part of the protocol's security model and could be enabled via governance by configuring the Verifier role. The function would also require compatibility updates to align with the latest BondingManager logical accounting, so the protocol governance would make sure to only enable it after such updates have been made. Until then, this function and its side-effects are out of scope of any audits made in this code.",
        "params": {
          "_finder": "Finder that proved a transcoder violated a slashing condition. Null address if there is no finder",
          "_finderFee": "Percentage of penalty awarded to finder. Zero if there is no finder",
          "_slashAmount": "Percentage of transcoder bond to be slashed",
          "_transcoder": "Transcoder address"
        }
      },
      "transcoder(uint256,uint256)": {
        "details": "Percentages are represented as numerators of fractions over MathUtils.PERC_DIVISOR",
        "params": {
          "_feeShare": "% of fees paid to delegators by a transcoder",
          "_rewardCut": "% of reward paid to transcoder by a delegator"
        }
      },
      "transcoderStatus(address)": {
        "params": {
          "_transcoder": "Address of transcoder"
        },
        "returns": {
          "_0": "registered or not registered transcoder status"
        }
      },
      "transcoderTotalStake(address)": {
        "params": {
          "_transcoder": "Address of transcoder"
        },
        "returns": {
          "_0": "total bonded stake for a delegator"
        }
      },
      "transcoderWithHint(uint256,uint256,address,address)": {
        "details": "Percentages are represented as numerators of fractions over MathUtils.PERC_DIVISOR. If the caller is going to be added to the pool, the caller can provide an optional hint for the insertion position in the pool via the `_newPosPrev` and `_newPosNext` params. A linear search will be executed starting at the hint to find the correct position - in the best case, the hint is the correct position so no search is executed. See SortedDoublyLL.sol for details on list hints",
        "params": {
          "_feeShare": "% of fees paid to delegators by a transcoder",
          "_newPosNext": "Address of next transcoder in pool if the caller joins the pool",
          "_newPosPrev": "Address of previous transcoder in pool if the caller joins the pool",
          "_rewardCut": "% of reward paid to transcoder by a delegator"
        }
      },
      "transferBond(address,uint256,address,address,address,address)": {
        "details": "If the original delegate is in the transcoder pool, the caller can provide an optional hint for the insertion position of the delegate via the `_oldDelegateNewPosPrev` and `_oldDelegateNewPosNext` params. If the target delegate is in the transcoder pool, the caller can provide an optional hint for the insertion position of the delegate via the `_newDelegateNewPosPrev` and `_newDelegateNewPosNext` params. In both cases, a linear search will be executed starting at the hint to find the correct position. In the best case, the hint is the correct position so no search is executed. See SortedDoublyLL.sol for details on list hints",
        "params": {
          "_amount": "Portion of the bond to transfer to receiver",
          "_delegator": "Receiver of the bond",
          "_newDelegateNewPosNext": "Address of next transcoder in pool if the delegate is in the pool",
          "_newDelegateNewPosPrev": "Address of previous transcoder in pool if the delegate is in the pool",
          "_oldDelegateNewPosNext": "Address of next transcoder in pool if the delegate remains in the pool",
          "_oldDelegateNewPosPrev": "Address of previous transcoder in pool if the delegate remains in the pool"
        }
      },
      "unbond(uint256)": {
        "params": {
          "_amount": "Amount of tokens to unbond"
        }
      },
      "unbondWithHint(uint256,address,address)": {
        "details": "If the caller remains in the transcoder pool, the caller can provide an optional hint for its insertion position in the pool via the `_newPosPrev` and `_newPosNext` params. A linear search will be executed starting at the hint to find the correct position. In the best case, the hint is the correct position so no search is executed. See SortedDoublyLL.sol details on list hints",
        "params": {
          "_amount": "Amount of tokens to unbond",
          "_newPosNext": "Address of next transcoder in pool if the caller remains in the pool",
          "_newPosPrev": "Address of previous transcoder in pool if the caller remains in the pool"
        }
      },
      "updateTranscoderWithFees(address,uint256,uint256)": {
        "params": {
          "_fees": "Fees to be added to the fee pool",
          "_transcoder": "Transcoder address"
        }
      },
      "withdrawStake(uint256)": {
        "params": {
          "_unbondingLockId": "ID of unbonding lock to withdraw with"
        }
      }
    },
    "title": "BondingManager",
    "version": 1
  },
  "userdoc": {
    "kind": "user",
    "methods": {
      "bond(uint256,address)": {
        "notice": "Delegate stake towards a specific address"
      },
      "bondForWithHint(uint256,address,address,address,address,address,address)": {
        "notice": "Delegates stake \"on behalf of\" another address towards a specific address and updates the transcoder pool using optional list hints if needed"
      },
      "bondWithHint(uint256,address,address,address,address,address)": {
        "notice": "Delegates stake towards a specific address and updates the transcoder pool using optional list hints if needed"
      },
      "checkpointBondingState(address)": {
        "notice": "Checkpoints the bonding state for a given account."
      },
      "claimEarnings(uint256)": {
        "notice": "Claim token pools shares for a delegator from its lastClaimRound through the end round"
      },
      "constructor": {
        "notice": "BondingManager constructor. Only invokes constructor of base Manager contract with provided Controller address"
      },
      "delegatorStatus(address)": {
        "notice": "Computes delegator status"
      },
      "getDelegator(address)": {
        "notice": "Return delegator info"
      },
      "getDelegatorUnbondingLock(address,uint256)": {
        "notice": "Return delegator's unbonding lock info"
      },
      "getFirstTranscoderInPool()": {
        "notice": "Returns transcoder with most stake in pool"
      },
      "getNextTranscoderInPool(address)": {
        "notice": "Returns next transcoder in pool for a given transcoder"
      },
      "getTotalBonded()": {
        "notice": "Return total bonded tokens"
      },
      "getTranscoder(address)": {
        "notice": "Return transcoder information"
      },
      "getTranscoderEarningsPoolForRound(address,uint256)": {
        "notice": "Return transcoder's earnings pool for a given round"
      },
      "getTranscoderPoolMaxSize()": {
        "notice": "Returns max size of transcoder pool"
      },
      "getTranscoderPoolSize()": {
        "notice": "Returns size of transcoder pool"
      },
      "isActiveTranscoder(address)": {
        "notice": "Return whether a transcoder is active for the current round"
      },
      "isRegisteredTranscoder(address)": {
        "notice": "Return whether a transcoder is registered"
      },
      "isValidUnbondingLock(address,uint256)": {
        "notice": "Return whether an unbonding lock for a delegator is valid"
      },
      "pendingFees(address,uint256)": {
        "notice": "Returns pending fees for a delegator from its lastClaimRound through an end round"
      },
      "pendingStake(address,uint256)": {
        "notice": "Returns pending bonded stake for a delegator from its lastClaimRound through an end round"
      },
      "rebond(uint256)": {
        "notice": "Rebond tokens for an unbonding lock to a delegator's current delegate while a delegator is in the Bonded or Pending status"
      },
      "rebondFromUnbonded(address,uint256)": {
        "notice": "Rebond tokens for an unbonding lock to a delegate while a delegator is in the Unbonded status"
      },
      "rebondFromUnbondedWithHint(address,uint256,address,address)": {
        "notice": "Rebond tokens for an unbonding lock to a delegate while a delegator is in the Unbonded status and updates the transcoder pool using an optional list hint if needed"
      },
      "rebondWithHint(uint256,address,address)": {
        "notice": "Rebond tokens for an unbonding lock to a delegator's current delegate while a delegator is in the Bonded or Pending status and updates the transcoder pool using an optional list hint if needed"
      },
      "reward()": {
        "notice": "Mint token rewards for an active transcoder and its delegators"
      },
      "rewardWithHint(address,address)": {
        "notice": "Mint token rewards for an active transcoder and its delegators and update the transcoder pool using an optional list hint if needed"
      },
      "setController(address)": {
        "notice": "Set controller. Only callable by current controller"
      },
      "setCurrentRoundTotalActiveStake()": {
        "notice": "Called during round initialization to set the total active stake for the round. Only callable by the RoundsManager"
      },
      "setNumActiveTranscoders(uint256)": {
        "notice": "Set maximum number of active transcoders. Only callable by Controller owner"
      },
      "setTreasuryBalanceCeiling(uint256)": {
        "notice": "Set treasury balance ceiling. Only callable by Controller owner"
      },
      "setTreasuryRewardCutRate(uint256)": {
        "notice": "Set treasury reward cut rate. Only callable by Controller owner. Notice that the change will only be effective on the next round."
      },
      "setUnbondingPeriod(uint64)": {
        "notice": "Set unbonding period. Only callable by Controller owner"
      },
      "slashTranscoder(address,address,uint256,uint256)": {
        "notice": "Slash a transcoder. Only callable by the Verifier."
      },
      "transcoder(uint256,uint256)": {
        "notice": "Sets commission rates as a transcoder and if the caller is not in the transcoder pool tries to add it"
      },
      "transcoderStatus(address)": {
        "notice": "Computes transcoder status"
      },
      "transcoderTotalStake(address)": {
        "notice": "Returns total bonded stake for a transcoder"
      },
      "transcoderWithHint(uint256,uint256,address,address)": {
        "notice": "Sets commission rates as a transcoder and if the caller is not in the transcoder pool tries to add it using an optional list hint"
      },
      "transferBond(address,uint256,address,address,address,address)": {
        "notice": "Transfers ownership of a bond to a new delegator using optional hints if needed If the receiver is already bonded to a different delegate than the bond owner then the stake goes to the receiver's delegate otherwise the receiver's delegate is set as the owner's delegate"
      },
      "unbond(uint256)": {
        "notice": "Unbond an amount of the delegator's bonded stake"
      },
      "unbondWithHint(uint256,address,address)": {
        "notice": "Unbond an amount of the delegator's bonded stake and updates the transcoder pool using an optional list hint if needed"
      },
      "updateTranscoderWithFees(address,uint256,uint256)": {
        "notice": "Update transcoder's fee pool. Only callable by the TicketBroker"
      },
      "withdrawFees(address,uint256)": {
        "notice": "Withdraws fees to the caller"
      },
      "withdrawStake(uint256)": {
        "notice": "Withdraws tokens for an unbonding lock that has existed through an unbonding period"
      }
    },
    "notice": "Manages bonding, transcoder and rewards/fee accounting related operations of the Livepeer protocol",
    "version": 1
  },
  "storageLayout": {
    "storage": [
      {
        "astId": 18792,
        "contract": "contracts/bonding/BondingManager.sol:BondingManager",
        "label": "controller",
        "offset": 0,
        "slot": "0",
        "type": "t_contract(IController)18767"
      },
      {
        "astId": 18974,
        "contract": "contracts/bonding/BondingManager.sol:BondingManager",
        "label": "targetContractId",
        "offset": 0,
        "slot": "1",
        "type": "t_bytes32"
      },
      {
        "astId": 19085,
        "contract": "contracts/bonding/BondingManager.sol:BondingManager",
        "label": "unbondingPeriod",
        "offset": 0,
        "slot": "2",
        "type": "t_uint64"
      },
      {
        "astId": 19148,
        "contract": "contracts/bonding/BondingManager.sol:BondingManager",
        "label": "delegators",
        "offset": 0,
        "slot": "3",
        "type": "t_mapping(t_address,t_struct(Delegator)19134_storage)"
      },
      {
        "astId": 19153,
        "contract": "contracts/bonding/BondingManager.sol:BondingManager",
        "label": "transcoders",
        "offset": 0,
        "slot": "4",
        "type": "t_mapping(t_address,t_struct(Transcoder)19111_storage)"
      },
      {
        "astId": 19155,
        "contract": "contracts/bonding/BondingManager.sol:BondingManager",
        "label": "currentRoundTotalActiveStake",
        "offset": 0,
        "slot": "5",
        "type": "t_uint256"
      },
      {
        "astId": 19157,
        "contract": "contracts/bonding/BondingManager.sol:BondingManager",
        "label": "nextRoundTotalActiveStake",
        "offset": 0,
        "slot": "6",
        "type": "t_uint256"
      },
      {
        "astId": 19160,
        "contract": "contracts/bonding/BondingManager.sol:BondingManager",
        "label": "transcoderPool",
        "offset": 0,
        "slot": "7",
        "type": "t_struct(Data)25319_storage"
      },
      {
        "astId": 19162,
        "contract": "contracts/bonding/BondingManager.sol:BondingManager",
        "label": "treasuryRewardCutRate",
        "offset": 0,
        "slot": "12",
        "type": "t_uint256"
      },
      {
        "astId": 19164,
        "contract": "contracts/bonding/BondingManager.sol:BondingManager",
        "label": "nextRoundTreasuryRewardCutRate",
        "offset": 0,
        "slot": "13",
        "type": "t_uint256"
      },
      {
        "astId": 19166,
        "contract": "contracts/bonding/BondingManager.sol:BondingManager",
        "label": "treasuryBalanceCeiling",
        "offset": 0,
        "slot": "14",
        "type": "t_uint256"
      }
    ],
    "types": {
      "t_address": {
        "encoding": "inplace",
        "label": "address",
        "numberOfBytes": "20"
      },
      "t_bytes32": {
        "encoding": "inplace",
        "label": "bytes32",
        "numberOfBytes": "32"
      },
      "t_contract(IController)18767": {
        "encoding": "inplace",
        "label": "contract IController",
        "numberOfBytes": "20"
      },
      "t_mapping(t_address,t_struct(Delegator)19134_storage)": {
        "encoding": "mapping",
        "key": "t_address",
        "label": "mapping(address => struct BondingManager.Delegator)",
        "numberOfBytes": "32",
        "value": "t_struct(Delegator)19134_storage"
      },
      "t_mapping(t_address,t_struct(Node)25305_storage)": {
        "encoding": "mapping",
        "key": "t_address",
        "label": "mapping(address => struct SortedDoublyLL.Node)",
        "numberOfBytes": "32",
        "value": "t_struct(Node)25305_storage"
      },
      "t_mapping(t_address,t_struct(Transcoder)19111_storage)": {
        "encoding": "mapping",
        "key": "t_address",
        "label": "mapping(address => struct BondingManager.Transcoder)",
        "numberOfBytes": "32",
        "value": "t_struct(Transcoder)19111_storage"
      },
      "t_mapping(t_uint256,t_struct(Data)24285_storage)": {
        "encoding": "mapping",
        "key": "t_uint256",
        "label": "mapping(uint256 => struct EarningsPool.Data)",
        "numberOfBytes": "32",
        "value": "t_struct(Data)24285_storage"
      },
      "t_mapping(t_uint256,t_struct(UnbondingLock)19143_storage)": {
        "encoding": "mapping",
        "key": "t_uint256",
        "label": "mapping(uint256 => struct BondingManager.UnbondingLock)",
        "numberOfBytes": "32",
        "value": "t_struct(UnbondingLock)19143_storage"
      },
      "t_struct(Data)24285_storage": {
        "encoding": "inplace",
        "label": "struct EarningsPool.Data",
        "members": [
          {
            "astId": 24276,
            "contract": "contracts/bonding/BondingManager.sol:BondingManager",
            "label": "totalStake",
            "offset": 0,
            "slot": "0",
            "type": "t_uint256"
          },
          {
            "astId": 24278,
            "contract": "contracts/bonding/BondingManager.sol:BondingManager",
            "label": "transcoderRewardCut",
            "offset": 0,
            "slot": "1",
            "type": "t_uint256"
          },
          {
            "astId": 24280,
            "contract": "contracts/bonding/BondingManager.sol:BondingManager",
            "label": "transcoderFeeShare",
            "offset": 0,
            "slot": "2",
            "type": "t_uint256"
          },
          {
            "astId": 24282,
            "contract": "contracts/bonding/BondingManager.sol:BondingManager",
            "label": "cumulativeRewardFactor",
            "offset": 0,
            "slot": "3",
            "type": "t_uint256"
          },
          {
            "astId": 24284,
            "contract": "contracts/bonding/BondingManager.sol:BondingManager",
            "label": "cumulativeFeeFactor",
            "offset": 0,
            "slot": "4",
            "type": "t_uint256"
          }
        ],
        "numberOfBytes": "160"
      },
      "t_struct(Data)25319_storage": {
        "encoding": "inplace",
        "label": "struct SortedDoublyLL.Data",
        "members": [
          {
            "astId": 25307,
            "contract": "contracts/bonding/BondingManager.sol:BondingManager",
            "label": "head",
            "offset": 0,
            "slot": "0",
            "type": "t_address"
          },
          {
            "astId": 25309,
            "contract": "contracts/bonding/BondingManager.sol:BondingManager",
            "label": "tail",
            "offset": 0,
            "slot": "1",
            "type": "t_address"
          },
          {
            "astId": 25311,
            "contract": "contracts/bonding/BondingManager.sol:BondingManager",
            "label": "maxSize",
            "offset": 0,
            "slot": "2",
            "type": "t_uint256"
          },
          {
            "astId": 25313,
            "contract": "contracts/bonding/BondingManager.sol:BondingManager",
            "label": "size",
            "offset": 0,
            "slot": "3",
            "type": "t_uint256"
          },
          {
            "astId": 25318,
            "contract": "contracts/bonding/BondingManager.sol:BondingManager",
            "label": "nodes",
            "offset": 0,
            "slot": "4",
            "type": "t_mapping(t_address,t_struct(Node)25305_storage)"
          }
        ],
        "numberOfBytes": "160"
      },
      "t_struct(Delegator)19134_storage": {
        "encoding": "inplace",
        "label": "struct BondingManager.Delegator",
        "members": [
          {
            "astId": 19116,
            "contract": "contracts/bonding/BondingManager.sol:BondingManager",
            "label": "bondedAmount",
            "offset": 0,
            "slot": "0",
            "type": "t_uint256"
          },
          {
            "astId": 19118,
            "contract": "contracts/bonding/BondingManager.sol:BondingManager",
            "label": "fees",
            "offset": 0,
            "slot": "1",
            "type": "t_uint256"
          },
          {
            "astId": 19120,
            "contract": "contracts/bonding/BondingManager.sol:BondingManager",
            "label": "delegateAddress",
            "offset": 0,
            "slot": "2",
            "type": "t_address"
          },
          {
            "astId": 19122,
            "contract": "contracts/bonding/BondingManager.sol:BondingManager",
            "label": "delegatedAmount",
            "offset": 0,
            "slot": "3",
            "type": "t_uint256"
          },
          {
            "astId": 19124,
            "contract": "contracts/bonding/BondingManager.sol:BondingManager",
            "label": "startRound",
            "offset": 0,
            "slot": "4",
            "type": "t_uint256"
          },
          {
            "astId": 19126,
            "contract": "contracts/bonding/BondingManager.sol:BondingManager",
            "label": "lastClaimRound",
            "offset": 0,
            "slot": "5",
            "type": "t_uint256"
          },
          {
            "astId": 19128,
            "contract": "contracts/bonding/BondingManager.sol:BondingManager",
            "label": "nextUnbondingLockId",
            "offset": 0,
            "slot": "6",
            "type": "t_uint256"
          },
          {
            "astId": 19133,
            "contract": "contracts/bonding/BondingManager.sol:BondingManager",
            "label": "unbondingLocks",
            "offset": 0,
            "slot": "7",
            "type": "t_mapping(t_uint256,t_struct(UnbondingLock)19143_storage)"
          }
        ],
        "numberOfBytes": "256"
      },
      "t_struct(Node)25305_storage": {
        "encoding": "inplace",
        "label": "struct SortedDoublyLL.Node",
        "members": [
          {
            "astId": 25300,
            "contract": "contracts/bonding/BondingManager.sol:BondingManager",
            "label": "key",
            "offset": 0,
            "slot": "0",
            "type": "t_uint256"
          },
          {
            "astId": 25302,
            "contract": "contracts/bonding/BondingManager.sol:BondingManager",
            "label": "nextId",
            "offset": 0,
            "slot": "1",
            "type": "t_address"
          },
          {
            "astId": 25304,
            "contract": "contracts/bonding/BondingManager.sol:BondingManager",
            "label": "prevId",
            "offset": 0,
            "slot": "2",
            "type": "t_address"
          }
        ],
        "numberOfBytes": "96"
      },
      "t_struct(Transcoder)19111_storage": {
        "encoding": "inplace",
        "label": "struct BondingManager.Transcoder",
        "members": [
          {
            "astId": 19087,
            "contract": "contracts/bonding/BondingManager.sol:BondingManager",
            "label": "lastRewardRound",
            "offset": 0,
            "slot": "0",
            "type": "t_uint256"
          },
          {
            "astId": 19089,
            "contract": "contracts/bonding/BondingManager.sol:BondingManager",
            "label": "rewardCut",
            "offset": 0,
            "slot": "1",
            "type": "t_uint256"
          },
          {
            "astId": 19091,
            "contract": "contracts/bonding/BondingManager.sol:BondingManager",
            "label": "feeShare",
            "offset": 0,
            "slot": "2",
            "type": "t_uint256"
          },
          {
            "astId": 19096,
            "contract": "contracts/bonding/BondingManager.sol:BondingManager",
            "label": "earningsPoolPerRound",
            "offset": 0,
            "slot": "3",
            "type": "t_mapping(t_uint256,t_struct(Data)24285_storage)"
          },
          {
            "astId": 19098,
            "contract": "contracts/bonding/BondingManager.sol:BondingManager",
            "label": "lastActiveStakeUpdateRound",
            "offset": 0,
            "slot": "4",
            "type": "t_uint256"
          },
          {
            "astId": 19100,
            "contract": "contracts/bonding/BondingManager.sol:BondingManager",
            "label": "activationRound",
            "offset": 0,
            "slot": "5",
            "type": "t_uint256"
          },
          {
            "astId": 19102,
            "contract": "contracts/bonding/BondingManager.sol:BondingManager",
            "label": "deactivationRound",
            "offset": 0,
            "slot": "6",
            "type": "t_uint256"
          },
          {
            "astId": 19104,
            "contract": "contracts/bonding/BondingManager.sol:BondingManager",
            "label": "activeCumulativeRewards",
            "offset": 0,
            "slot": "7",
            "type": "t_uint256"
          },
          {
            "astId": 19106,
            "contract": "contracts/bonding/BondingManager.sol:BondingManager",
            "label": "cumulativeRewards",
            "offset": 0,
            "slot": "8",
            "type": "t_uint256"
          },
          {
            "astId": 19108,
            "contract": "contracts/bonding/BondingManager.sol:BondingManager",
            "label": "cumulativeFees",
            "offset": 0,
            "slot": "9",
            "type": "t_uint256"
          },
          {
            "astId": 19110,
            "contract": "contracts/bonding/BondingManager.sol:BondingManager",
            "label": "lastFeeRound",
            "offset": 0,
            "slot": "10",
            "type": "t_uint256"
          }
        ],
        "numberOfBytes": "352"
      },
      "t_struct(UnbondingLock)19143_storage": {
        "encoding": "inplace",
        "label": "struct BondingManager.UnbondingLock",
        "members": [
          {
            "astId": 19140,
            "contract": "contracts/bonding/BondingManager.sol:BondingManager",
            "label": "amount",
            "offset": 0,
            "slot": "0",
            "type": "t_uint256"
          },
          {
            "astId": 19142,
            "contract": "contracts/bonding/BondingManager.sol:BondingManager",
            "label": "withdrawRound",
            "offset": 0,
            "slot": "1",
            "type": "t_uint256"
          }
        ],
        "numberOfBytes": "64"
      },
      "t_uint256": {
        "encoding": "inplace",
        "label": "uint256",
        "numberOfBytes": "32"
      },
      "t_uint64": {
        "encoding": "inplace",
        "label": "uint64",
        "numberOfBytes": "8"
      }
    }
  }
}