{
  "address": "0x35Bcf3c30594191d53231E4FF333E8A770453e40",
  "abi": [
    {
      "inputs": [
        {
          "internalType": "address",
          "name": "_controller",
          "type": "address"
        },
        {
          "internalType": "bytes32",
          "name": "_targetContractId",
          "type": "bytes32"
        }
      ],
      "stateMutability": "nonpayable",
      "type": "constructor"
    },
    {
      "anonymous": false,
      "inputs": [
        {
          "indexed": false,
          "internalType": "string",
          "name": "param",
          "type": "string"
        }
      ],
      "name": "ParameterUpdate",
      "type": "event"
    },
    {
      "anonymous": false,
      "inputs": [
        {
          "indexed": false,
          "internalType": "address",
          "name": "controller",
          "type": "address"
        }
      ],
      "name": "SetController",
      "type": "event"
    },
    {
      "stateMutability": "payable",
      "type": "fallback"
    },
    {
      "inputs": [],
      "name": "controller",
      "outputs": [
        {
          "internalType": "contract IController",
          "name": "",
          "type": "address"
        }
      ],
      "stateMutability": "view",
      "type": "function"
    },
    {
      "inputs": [
        {
          "internalType": "address",
          "name": "_controller",
          "type": "address"
        }
      ],
      "name": "setController",
      "outputs": [],
      "stateMutability": "nonpayable",
      "type": "function"
    },
    {
      "inputs": [],
      "name": "targetContractId",
      "outputs": [
        {
          "internalType": "bytes32",
          "name": "",
          "type": "bytes32"
        }
      ],
      "stateMutability": "view",
      "type": "function"
    },
    {
      "stateMutability": "payable",
      "type": "receive"
    }
  ],
  "transactionHash": "0x40ad1a638363b6b3b26dc3664972fd42f024568678e363cb8795b33924a15e9f",
  "args": [
    "0xD8E8328501E9645d16Cf49539efC04f734606ee4",
    "0xfc6f6f33d2bb065ac61cbdd4dbe4b7adf6f3e7e6c6a3d1fe297cbf9a187092e4"
  ],
  "numDeployments": 1,
  "solcInputHash": "fbb7c6c031c5ea66d51283bdfeec92b9",
  "bytecode": "0x608060405234801561001057600080fd5b506040516103d93803806103d983398101604081905261002f91610058565b600080546001600160a01b0319166001600160a01b039390931692909217909155600155610092565b6000806040838503121561006b57600080fd5b82516001600160a01b038116811461008257600080fd5b6020939093015192949293505050565b610338806100a16000396000f3fe6080604052600436106100385760003560e01c806351720b411461004f57806392eefe9b14610078578063f77c47911461009857610047565b36610047576100456100d0565b005b6100456100d0565b34801561005b57600080fd5b5061006560015481565b6040519081526020015b60405180910390f35b34801561008457600080fd5b506100456100933660046102c1565b6101f1565b3480156100a457600080fd5b506000546100b8906001600160a01b031681565b6040516001600160a01b03909116815260200161006f565b60008054600154604051631c2d8fb360e31b81526001600160a01b039092169163e16c7d98916101069160040190815260200190565b60206040518083038186803b15801561011e57600080fd5b505afa158015610132573d6000803e3d6000fd5b505050506040513d601f19601f8201168201806040525081019061015691906102e5565b90506001600160a01b0381166101be5760405162461bcd60e51b815260206004820152602260248201527f74617267657420636f6e7472616374206d757374206265207265676973746572604482015261195960f21b60648201526084015b60405180910390fd5b60408051368101825236600082376000803683865af4905081513d810183523d6000823e8180156101ed573d82f35b3d82fd5b6101f961024d565b600080546001600160a01b0319166001600160a01b0383169081179091556040519081527f4ff638452bbf33c012645d18ae6f05515ff5f2d1dfb0cece8cbf018c60903f709060200160405180910390a150565b6000546001600160a01b031633146102a75760405162461bcd60e51b815260206004820152601960248201527f63616c6c6572206d75737420626520436f6e74726f6c6c65720000000000000060448201526064016101b5565b565b6001600160a01b03811681146102be57600080fd5b50565b6000602082840312156102d357600080fd5b81356102de816102a9565b9392505050565b6000602082840312156102f757600080fd5b81516102de816102a956fea2646970667358221220274e52a3b60c7dff1cad0833c349004759648080531c69a484b94b22224cfa1164736f6c63430008090033",
  "devdoc": {
    "details": "Both this proxy contract and its target contract MUST inherit from ManagerProxyTarget in order to guarantee that both contracts have the same storage layout. Differing storage layouts in a proxy contract and target contract can potentially break the delegate proxy upgradeability mechanism. Since this proxy contract inherits from ManagerProxyTarget which inherits from Manager, it implements the setController() function. The target contract will also implement setController() since it also inherits from ManagerProxyTarget. Thus, any transaction sent to the proxy that calls setController() will execute against the proxy instead of the target. As a result, developers should keep in mind that the proxy will always execute the same logic for setController() regardless of the setController() implementation on the target contract. Generally, developers should not add any additional functions to this proxy contract because any function implemented on the proxy will always be executed against the proxy and the call **will not** be forwarded to the target contract",
    "kind": "dev",
    "methods": {
      "constructor": {
        "params": {
          "_controller": "Address of Controller that this contract will be registered with",
          "_targetContractId": "contract ID of the target contract"
        }
      },
      "setController(address)": {
        "params": {
          "_controller": "Controller contract address"
        }
      }
    },
    "title": "ManagerProxy",
    "version": 1
  },
  "userdoc": {
    "kind": "user",
    "methods": {
      "constructor": {
        "notice": "ManagerProxy constructor. Invokes constructor of base Manager contract with provided Controller address. Also, sets the contract ID of the target contract that function calls will be executed on."
      },
      "setController(address)": {
        "notice": "Set controller. Only callable by current controller"
      }
    },
    "notice": "A proxy contract that uses delegatecall to execute function calls on a target contract using its own storage context. The target contract is a Manager contract that is registered with the Controller.",
    "version": 1
  },
  "storageLayout": {
    "storage": [
      {
        "astId": 2670,
        "contract": "contracts/ManagerProxy.sol:ManagerProxy",
        "label": "controller",
        "offset": 0,
        "slot": "0",
        "type": "t_contract(IController)2645"
      },
      {
        "astId": 2852,
        "contract": "contracts/ManagerProxy.sol:ManagerProxy",
        "label": "targetContractId",
        "offset": 0,
        "slot": "1",
        "type": "t_bytes32"
      }
    ],
    "types": {
      "t_bytes32": {
        "encoding": "inplace",
        "label": "bytes32",
        "numberOfBytes": "32"
      },
      "t_contract(IController)2645": {
        "encoding": "inplace",
        "label": "contract IController",
        "numberOfBytes": "20"
      }
    }
  }
}