{
  "address": "0x3757DB506ECd9CBE643660C0F5b70db5b321202C",
  "abi": [
    {
      "inputs": [
        {
          "internalType": "address",
          "name": "_controller",
          "type": "address"
        }
      ],
      "stateMutability": "nonpayable",
      "type": "constructor"
    },
    {
      "anonymous": false,
      "inputs": [
        {
          "indexed": true,
          "internalType": "address",
          "name": "newDelegate",
          "type": "address"
        },
        {
          "indexed": true,
          "internalType": "address",
          "name": "oldDelegate",
          "type": "address"
        },
        {
          "indexed": true,
          "internalType": "address",
          "name": "delegator",
          "type": "address"
        },
        {
          "indexed": false,
          "internalType": "uint256",
          "name": "additionalAmount",
          "type": "uint256"
        },
        {
          "indexed": false,
          "internalType": "uint256",
          "name": "bondedAmount",
          "type": "uint256"
        }
      ],
      "name": "Bond",
      "type": "event"
    },
    {
      "anonymous": false,
      "inputs": [
        {
          "indexed": true,
          "internalType": "address",
          "name": "delegate",
          "type": "address"
        },
        {
          "indexed": true,
          "internalType": "address",
          "name": "delegator",
          "type": "address"
        },
        {
          "indexed": false,
          "internalType": "uint256",
          "name": "rewards",
          "type": "uint256"
        },
        {
          "indexed": false,
          "internalType": "uint256",
          "name": "fees",
          "type": "uint256"
        },
        {
          "indexed": false,
          "internalType": "uint256",
          "name": "startRound",
          "type": "uint256"
        },
        {
          "indexed": false,
          "internalType": "uint256",
          "name": "endRound",
          "type": "uint256"
        }
      ],
      "name": "EarningsClaimed",
      "type": "event"
    },
    {
      "anonymous": false,
      "inputs": [
        {
          "indexed": false,
          "internalType": "string",
          "name": "param",
          "type": "string"
        }
      ],
      "name": "ParameterUpdate",
      "type": "event"
    },
    {
      "anonymous": false,
      "inputs": [
        {
          "indexed": true,
          "internalType": "address",
          "name": "delegate",
          "type": "address"
        },
        {
          "indexed": true,
          "internalType": "address",
          "name": "delegator",
          "type": "address"
        },
        {
          "indexed": false,
          "internalType": "uint256",
          "name": "unbondingLockId",
          "type": "uint256"
        },
        {
          "indexed": false,
          "internalType": "uint256",
          "name": "amount",
          "type": "uint256"
        }
      ],
      "name": "Rebond",
      "type": "event"
    },
    {
      "anonymous": false,
      "inputs": [
        {
          "indexed": true,
          "internalType": "address",
          "name": "transcoder",
          "type": "address"
        },
        {
          "indexed": false,
          "internalType": "uint256",
          "name": "amount",
          "type": "uint256"
        }
      ],
      "name": "Reward",
      "type": "event"
    },
    {
      "anonymous": false,
      "inputs": [
        {
          "indexed": false,
          "internalType": "address",
          "name": "controller",
          "type": "address"
        }
      ],
      "name": "SetController",
      "type": "event"
    },
    {
      "anonymous": false,
      "inputs": [
        {
          "indexed": true,
          "internalType": "address",
          "name": "transcoder",
          "type": "address"
        },
        {
          "indexed": false,
          "internalType": "uint256",
          "name": "activationRound",
          "type": "uint256"
        }
      ],
      "name": "TranscoderActivated",
      "type": "event"
    },
    {
      "anonymous": false,
      "inputs": [
        {
          "indexed": true,
          "internalType": "address",
          "name": "transcoder",
          "type": "address"
        },
        {
          "indexed": false,
          "internalType": "uint256",
          "name": "deactivationRound",
          "type": "uint256"
        }
      ],
      "name": "TranscoderDeactivated",
      "type": "event"
    },
    {
      "anonymous": false,
      "inputs": [
        {
          "indexed": true,
          "internalType": "address",
          "name": "transcoder",
          "type": "address"
        },
        {
          "indexed": false,
          "internalType": "address",
          "name": "finder",
          "type": "address"
        },
        {
          "indexed": false,
          "internalType": "uint256",
          "name": "penalty",
          "type": "uint256"
        },
        {
          "indexed": false,
          "internalType": "uint256",
          "name": "finderReward",
          "type": "uint256"
        }
      ],
      "name": "TranscoderSlashed",
      "type": "event"
    },
    {
      "anonymous": false,
      "inputs": [
        {
          "indexed": true,
          "internalType": "address",
          "name": "transcoder",
          "type": "address"
        },
        {
          "indexed": false,
          "internalType": "uint256",
          "name": "rewardCut",
          "type": "uint256"
        },
        {
          "indexed": false,
          "internalType": "uint256",
          "name": "feeShare",
          "type": "uint256"
        }
      ],
      "name": "TranscoderUpdate",
      "type": "event"
    },
    {
      "anonymous": false,
      "inputs": [
        {
          "indexed": true,
          "internalType": "address",
          "name": "oldDelegator",
          "type": "address"
        },
        {
          "indexed": true,
          "internalType": "address",
          "name": "newDelegator",
          "type": "address"
        },
        {
          "indexed": false,
          "internalType": "uint256",
          "name": "oldUnbondingLockId",
          "type": "uint256"
        },
        {
          "indexed": false,
          "internalType": "uint256",
          "name": "newUnbondingLockId",
          "type": "uint256"
        },
        {
          "indexed": false,
          "internalType": "uint256",
          "name": "amount",
          "type": "uint256"
        }
      ],
      "name": "TransferBond",
      "type": "event"
    },
    {
      "anonymous": false,
      "inputs": [
        {
          "indexed": true,
          "internalType": "address",
          "name": "delegate",
          "type": "address"
        },
        {
          "indexed": true,
          "internalType": "address",
          "name": "delegator",
          "type": "address"
        },
        {
          "indexed": false,
          "internalType": "uint256",
          "name": "unbondingLockId",
          "type": "uint256"
        },
        {
          "indexed": false,
          "internalType": "uint256",
          "name": "amount",
          "type": "uint256"
        },
        {
          "indexed": false,
          "internalType": "uint256",
          "name": "withdrawRound",
          "type": "uint256"
        }
      ],
      "name": "Unbond",
      "type": "event"
    },
    {
      "anonymous": false,
      "inputs": [
        {
          "indexed": true,
          "internalType": "address",
          "name": "delegator",
          "type": "address"
        },
        {
          "indexed": false,
          "internalType": "address",
          "name": "recipient",
          "type": "address"
        },
        {
          "indexed": false,
          "internalType": "uint256",
          "name": "amount",
          "type": "uint256"
        }
      ],
      "name": "WithdrawFees",
      "type": "event"
    },
    {
      "anonymous": false,
      "inputs": [
        {
          "indexed": true,
          "internalType": "address",
          "name": "delegator",
          "type": "address"
        },
        {
          "indexed": false,
          "internalType": "uint256",
          "name": "unbondingLockId",
          "type": "uint256"
        },
        {
          "indexed": false,
          "internalType": "uint256",
          "name": "amount",
          "type": "uint256"
        },
        {
          "indexed": false,
          "internalType": "uint256",
          "name": "withdrawRound",
          "type": "uint256"
        }
      ],
      "name": "WithdrawStake",
      "type": "event"
    },
    {
      "inputs": [
        {
          "internalType": "uint256",
          "name": "_amount",
          "type": "uint256"
        },
        {
          "internalType": "address",
          "name": "_to",
          "type": "address"
        }
      ],
      "name": "bond",
      "outputs": [],
      "stateMutability": "nonpayable",
      "type": "function"
    },
    {
      "inputs": [
        {
          "internalType": "uint256",
          "name": "_amount",
          "type": "uint256"
        },
        {
          "internalType": "address",
          "name": "_owner",
          "type": "address"
        },
        {
          "internalType": "address",
          "name": "_to",
          "type": "address"
        },
        {
          "internalType": "address",
          "name": "_oldDelegateNewPosPrev",
          "type": "address"
        },
        {
          "internalType": "address",
          "name": "_oldDelegateNewPosNext",
          "type": "address"
        },
        {
          "internalType": "address",
          "name": "_currDelegateNewPosPrev",
          "type": "address"
        },
        {
          "internalType": "address",
          "name": "_currDelegateNewPosNext",
          "type": "address"
        }
      ],
      "name": "bondForWithHint",
      "outputs": [],
      "stateMutability": "nonpayable",
      "type": "function"
    },
    {
      "inputs": [
        {
          "internalType": "uint256",
          "name": "_amount",
          "type": "uint256"
        },
        {
          "internalType": "address",
          "name": "_to",
          "type": "address"
        },
        {
          "internalType": "address",
          "name": "_oldDelegateNewPosPrev",
          "type": "address"
        },
        {
          "internalType": "address",
          "name": "_oldDelegateNewPosNext",
          "type": "address"
        },
        {
          "internalType": "address",
          "name": "_currDelegateNewPosPrev",
          "type": "address"
        },
        {
          "internalType": "address",
          "name": "_currDelegateNewPosNext",
          "type": "address"
        }
      ],
      "name": "bondWithHint",
      "outputs": [],
      "stateMutability": "nonpayable",
      "type": "function"
    },
    {
      "inputs": [
        {
          "internalType": "uint256",
          "name": "_endRound",
          "type": "uint256"
        }
      ],
      "name": "claimEarnings",
      "outputs": [],
      "stateMutability": "nonpayable",
      "type": "function"
    },
    {
      "inputs": [],
      "name": "controller",
      "outputs": [
        {
          "internalType": "contract IController",
          "name": "",
          "type": "address"
        }
      ],
      "stateMutability": "view",
      "type": "function"
    },
    {
      "inputs": [],
      "name": "currentRoundTotalActiveStake",
      "outputs": [
        {
          "internalType": "uint256",
          "name": "",
          "type": "uint256"
        }
      ],
      "stateMutability": "view",
      "type": "function"
    },
    {
      "inputs": [
        {
          "internalType": "address",
          "name": "_delegator",
          "type": "address"
        }
      ],
      "name": "delegatorStatus",
      "outputs": [
        {
          "internalType": "enum BondingManager.DelegatorStatus",
          "name": "",
          "type": "uint8"
        }
      ],
      "stateMutability": "view",
      "type": "function"
    },
    {
      "inputs": [
        {
          "internalType": "address",
          "name": "_delegator",
          "type": "address"
        }
      ],
      "name": "getDelegator",
      "outputs": [
        {
          "internalType": "uint256",
          "name": "bondedAmount",
          "type": "uint256"
        },
        {
          "internalType": "uint256",
          "name": "fees",
          "type": "uint256"
        },
        {
          "internalType": "address",
          "name": "delegateAddress",
          "type": "address"
        },
        {
          "internalType": "uint256",
          "name": "delegatedAmount",
          "type": "uint256"
        },
        {
          "internalType": "uint256",
          "name": "startRound",
          "type": "uint256"
        },
        {
          "internalType": "uint256",
          "name": "lastClaimRound",
          "type": "uint256"
        },
        {
          "internalType": "uint256",
          "name": "nextUnbondingLockId",
          "type": "uint256"
        }
      ],
      "stateMutability": "view",
      "type": "function"
    },
    {
      "inputs": [
        {
          "internalType": "address",
          "name": "_delegator",
          "type": "address"
        },
        {
          "internalType": "uint256",
          "name": "_unbondingLockId",
          "type": "uint256"
        }
      ],
      "name": "getDelegatorUnbondingLock",
      "outputs": [
        {
          "internalType": "uint256",
          "name": "amount",
          "type": "uint256"
        },
        {
          "internalType": "uint256",
          "name": "withdrawRound",
          "type": "uint256"
        }
      ],
      "stateMutability": "view",
      "type": "function"
    },
    {
      "inputs": [],
      "name": "getFirstTranscoderInPool",
      "outputs": [
        {
          "internalType": "address",
          "name": "",
          "type": "address"
        }
      ],
      "stateMutability": "view",
      "type": "function"
    },
    {
      "inputs": [
        {
          "internalType": "address",
          "name": "_transcoder",
          "type": "address"
        }
      ],
      "name": "getNextTranscoderInPool",
      "outputs": [
        {
          "internalType": "address",
          "name": "",
          "type": "address"
        }
      ],
      "stateMutability": "view",
      "type": "function"
    },
    {
      "inputs": [],
      "name": "getTotalBonded",
      "outputs": [
        {
          "internalType": "uint256",
          "name": "",
          "type": "uint256"
        }
      ],
      "stateMutability": "view",
      "type": "function"
    },
    {
      "inputs": [
        {
          "internalType": "address",
          "name": "_transcoder",
          "type": "address"
        }
      ],
      "name": "getTranscoder",
      "outputs": [
        {
          "internalType": "uint256",
          "name": "lastRewardRound",
          "type": "uint256"
        },
        {
          "internalType": "uint256",
          "name": "rewardCut",
          "type": "uint256"
        },
        {
          "internalType": "uint256",
          "name": "feeShare",
          "type": "uint256"
        },
        {
          "internalType": "uint256",
          "name": "lastActiveStakeUpdateRound",
          "type": "uint256"
        },
        {
          "internalType": "uint256",
          "name": "activationRound",
          "type": "uint256"
        },
        {
          "internalType": "uint256",
          "name": "deactivationRound",
          "type": "uint256"
        },
        {
          "internalType": "uint256",
          "name": "activeCumulativeRewards",
          "type": "uint256"
        },
        {
          "internalType": "uint256",
          "name": "cumulativeRewards",
          "type": "uint256"
        },
        {
          "internalType": "uint256",
          "name": "cumulativeFees",
          "type": "uint256"
        },
        {
          "internalType": "uint256",
          "name": "lastFeeRound",
          "type": "uint256"
        }
      ],
      "stateMutability": "view",
      "type": "function"
    },
    {
      "inputs": [
        {
          "internalType": "address",
          "name": "_transcoder",
          "type": "address"
        },
        {
          "internalType": "uint256",
          "name": "_round",
          "type": "uint256"
        }
      ],
      "name": "getTranscoderEarningsPoolForRound",
      "outputs": [
        {
          "internalType": "uint256",
          "name": "totalStake",
          "type": "uint256"
        },
        {
          "internalType": "uint256",
          "name": "transcoderRewardCut",
          "type": "uint256"
        },
        {
          "internalType": "uint256",
          "name": "transcoderFeeShare",
          "type": "uint256"
        },
        {
          "internalType": "uint256",
          "name": "cumulativeRewardFactor",
          "type": "uint256"
        },
        {
          "internalType": "uint256",
          "name": "cumulativeFeeFactor",
          "type": "uint256"
        }
      ],
      "stateMutability": "view",
      "type": "function"
    },
    {
      "inputs": [],
      "name": "getTranscoderPoolMaxSize",
      "outputs": [
        {
          "internalType": "uint256",
          "name": "",
          "type": "uint256"
        }
      ],
      "stateMutability": "view",
      "type": "function"
    },
    {
      "inputs": [],
      "name": "getTranscoderPoolSize",
      "outputs": [
        {
          "internalType": "uint256",
          "name": "",
          "type": "uint256"
        }
      ],
      "stateMutability": "view",
      "type": "function"
    },
    {
      "inputs": [
        {
          "internalType": "address",
          "name": "_transcoder",
          "type": "address"
        }
      ],
      "name": "isActiveTranscoder",
      "outputs": [
        {
          "internalType": "bool",
          "name": "",
          "type": "bool"
        }
      ],
      "stateMutability": "view",
      "type": "function"
    },
    {
      "inputs": [
        {
          "internalType": "address",
          "name": "_transcoder",
          "type": "address"
        }
      ],
      "name": "isRegisteredTranscoder",
      "outputs": [
        {
          "internalType": "bool",
          "name": "",
          "type": "bool"
        }
      ],
      "stateMutability": "view",
      "type": "function"
    },
    {
      "inputs": [
        {
          "internalType": "address",
          "name": "_delegator",
          "type": "address"
        },
        {
          "internalType": "uint256",
          "name": "_unbondingLockId",
          "type": "uint256"
        }
      ],
      "name": "isValidUnbondingLock",
      "outputs": [
        {
          "internalType": "bool",
          "name": "",
          "type": "bool"
        }
      ],
      "stateMutability": "view",
      "type": "function"
    },
    {
      "inputs": [],
      "name": "nextRoundTotalActiveStake",
      "outputs": [
        {
          "internalType": "uint256",
          "name": "",
          "type": "uint256"
        }
      ],
      "stateMutability": "view",
      "type": "function"
    },
    {
      "inputs": [
        {
          "internalType": "address",
          "name": "_delegator",
          "type": "address"
        },
        {
          "internalType": "uint256",
          "name": "_endRound",
          "type": "uint256"
        }
      ],
      "name": "pendingFees",
      "outputs": [
        {
          "internalType": "uint256",
          "name": "",
          "type": "uint256"
        }
      ],
      "stateMutability": "view",
      "type": "function"
    },
    {
      "inputs": [
        {
          "internalType": "address",
          "name": "_delegator",
          "type": "address"
        },
        {
          "internalType": "uint256",
          "name": "_endRound",
          "type": "uint256"
        }
      ],
      "name": "pendingStake",
      "outputs": [
        {
          "internalType": "uint256",
          "name": "",
          "type": "uint256"
        }
      ],
      "stateMutability": "view",
      "type": "function"
    },
    {
      "inputs": [
        {
          "internalType": "uint256",
          "name": "_unbondingLockId",
          "type": "uint256"
        }
      ],
      "name": "rebond",
      "outputs": [],
      "stateMutability": "nonpayable",
      "type": "function"
    },
    {
      "inputs": [
        {
          "internalType": "address",
          "name": "_to",
          "type": "address"
        },
        {
          "internalType": "uint256",
          "name": "_unbondingLockId",
          "type": "uint256"
        }
      ],
      "name": "rebondFromUnbonded",
      "outputs": [],
      "stateMutability": "nonpayable",
      "type": "function"
    },
    {
      "inputs": [
        {
          "internalType": "address",
          "name": "_to",
          "type": "address"
        },
        {
          "internalType": "uint256",
          "name": "_unbondingLockId",
          "type": "uint256"
        },
        {
          "internalType": "address",
          "name": "_newPosPrev",
          "type": "address"
        },
        {
          "internalType": "address",
          "name": "_newPosNext",
          "type": "address"
        }
      ],
      "name": "rebondFromUnbondedWithHint",
      "outputs": [],
      "stateMutability": "nonpayable",
      "type": "function"
    },
    {
      "inputs": [
        {
          "internalType": "uint256",
          "name": "_unbondingLockId",
          "type": "uint256"
        },
        {
          "internalType": "address",
          "name": "_newPosPrev",
          "type": "address"
        },
        {
          "internalType": "address",
          "name": "_newPosNext",
          "type": "address"
        }
      ],
      "name": "rebondWithHint",
      "outputs": [],
      "stateMutability": "nonpayable",
      "type": "function"
    },
    {
      "inputs": [],
      "name": "reward",
      "outputs": [],
      "stateMutability": "nonpayable",
      "type": "function"
    },
    {
      "inputs": [
        {
          "internalType": "address",
          "name": "_newPosPrev",
          "type": "address"
        },
        {
          "internalType": "address",
          "name": "_newPosNext",
          "type": "address"
        }
      ],
      "name": "rewardWithHint",
      "outputs": [],
      "stateMutability": "nonpayable",
      "type": "function"
    },
    {
      "inputs": [
        {
          "internalType": "address",
          "name": "_controller",
          "type": "address"
        }
      ],
      "name": "setController",
      "outputs": [],
      "stateMutability": "nonpayable",
      "type": "function"
    },
    {
      "inputs": [],
      "name": "setCurrentRoundTotalActiveStake",
      "outputs": [],
      "stateMutability": "nonpayable",
      "type": "function"
    },
    {
      "inputs": [
        {
          "internalType": "uint256",
          "name": "_numActiveTranscoders",
          "type": "uint256"
        }
      ],
      "name": "setNumActiveTranscoders",
      "outputs": [],
      "stateMutability": "nonpayable",
      "type": "function"
    },
    {
      "inputs": [
        {
          "internalType": "uint64",
          "name": "_unbondingPeriod",
          "type": "uint64"
        }
      ],
      "name": "setUnbondingPeriod",
      "outputs": [],
      "stateMutability": "nonpayable",
      "type": "function"
    },
    {
      "inputs": [
        {
          "internalType": "address",
          "name": "_transcoder",
          "type": "address"
        },
        {
          "internalType": "address",
          "name": "_finder",
          "type": "address"
        },
        {
          "internalType": "uint256",
          "name": "_slashAmount",
          "type": "uint256"
        },
        {
          "internalType": "uint256",
          "name": "_finderFee",
          "type": "uint256"
        }
      ],
      "name": "slashTranscoder",
      "outputs": [],
      "stateMutability": "nonpayable",
      "type": "function"
    },
    {
      "inputs": [],
      "name": "targetContractId",
      "outputs": [
        {
          "internalType": "bytes32",
          "name": "",
          "type": "bytes32"
        }
      ],
      "stateMutability": "view",
      "type": "function"
    },
    {
      "inputs": [
        {
          "internalType": "uint256",
          "name": "_rewardCut",
          "type": "uint256"
        },
        {
          "internalType": "uint256",
          "name": "_feeShare",
          "type": "uint256"
        }
      ],
      "name": "transcoder",
      "outputs": [],
      "stateMutability": "nonpayable",
      "type": "function"
    },
    {
      "inputs": [
        {
          "internalType": "address",
          "name": "_transcoder",
          "type": "address"
        }
      ],
      "name": "transcoderStatus",
      "outputs": [
        {
          "internalType": "enum BondingManager.TranscoderStatus",
          "name": "",
          "type": "uint8"
        }
      ],
      "stateMutability": "view",
      "type": "function"
    },
    {
      "inputs": [
        {
          "internalType": "address",
          "name": "_transcoder",
          "type": "address"
        }
      ],
      "name": "transcoderTotalStake",
      "outputs": [
        {
          "internalType": "uint256",
          "name": "",
          "type": "uint256"
        }
      ],
      "stateMutability": "view",
      "type": "function"
    },
    {
      "inputs": [
        {
          "internalType": "uint256",
          "name": "_rewardCut",
          "type": "uint256"
        },
        {
          "internalType": "uint256",
          "name": "_feeShare",
          "type": "uint256"
        },
        {
          "internalType": "address",
          "name": "_newPosPrev",
          "type": "address"
        },
        {
          "internalType": "address",
          "name": "_newPosNext",
          "type": "address"
        }
      ],
      "name": "transcoderWithHint",
      "outputs": [],
      "stateMutability": "nonpayable",
      "type": "function"
    },
    {
      "inputs": [
        {
          "internalType": "address",
          "name": "_delegator",
          "type": "address"
        },
        {
          "internalType": "uint256",
          "name": "_amount",
          "type": "uint256"
        },
        {
          "internalType": "address",
          "name": "_oldDelegateNewPosPrev",
          "type": "address"
        },
        {
          "internalType": "address",
          "name": "_oldDelegateNewPosNext",
          "type": "address"
        },
        {
          "internalType": "address",
          "name": "_newDelegateNewPosPrev",
          "type": "address"
        },
        {
          "internalType": "address",
          "name": "_newDelegateNewPosNext",
          "type": "address"
        }
      ],
      "name": "transferBond",
      "outputs": [],
      "stateMutability": "nonpayable",
      "type": "function"
    },
    {
      "inputs": [
        {
          "internalType": "uint256",
          "name": "_amount",
          "type": "uint256"
        }
      ],
      "name": "unbond",
      "outputs": [],
      "stateMutability": "nonpayable",
      "type": "function"
    },
    {
      "inputs": [
        {
          "internalType": "uint256",
          "name": "_amount",
          "type": "uint256"
        },
        {
          "internalType": "address",
          "name": "_newPosPrev",
          "type": "address"
        },
        {
          "internalType": "address",
          "name": "_newPosNext",
          "type": "address"
        }
      ],
      "name": "unbondWithHint",
      "outputs": [],
      "stateMutability": "nonpayable",
      "type": "function"
    },
    {
      "inputs": [],
      "name": "unbondingPeriod",
      "outputs": [
        {
          "internalType": "uint64",
          "name": "",
          "type": "uint64"
        }
      ],
      "stateMutability": "view",
      "type": "function"
    },
    {
      "inputs": [
        {
          "internalType": "address",
          "name": "_transcoder",
          "type": "address"
        },
        {
          "internalType": "uint256",
          "name": "_fees",
          "type": "uint256"
        },
        {
          "internalType": "uint256",
          "name": "_round",
          "type": "uint256"
        }
      ],
      "name": "updateTranscoderWithFees",
      "outputs": [],
      "stateMutability": "nonpayable",
      "type": "function"
    },
    {
      "inputs": [
        {
          "internalType": "address payable",
          "name": "_recipient",
          "type": "address"
        },
        {
          "internalType": "uint256",
          "name": "_amount",
          "type": "uint256"
        }
      ],
      "name": "withdrawFees",
      "outputs": [],
      "stateMutability": "nonpayable",
      "type": "function"
    },
    {
      "inputs": [
        {
          "internalType": "uint256",
          "name": "_unbondingLockId",
          "type": "uint256"
        }
      ],
      "name": "withdrawStake",
      "outputs": [],
      "stateMutability": "nonpayable",
      "type": "function"
    }
  ],
  "transactionHash": "0x9fa315b88ca626d035a29b7a3ba4db5996bdd711490b24e37ccd64a74a194ec5",
  "args": [
    "0xD8E8328501E9645d16Cf49539efC04f734606ee4"
  ],
  "numDeployments": 3,
  "solcInputHash": "3ff5221b290e455902c32c32981b5340",
  "bytecode": "0x60806040523480156200001157600080fd5b50604051620049753803806200497583398101604081905262000034916200005a565b600080546001600160a01b0319166001600160a01b03929092169190911790556200008c565b6000602082840312156200006d57600080fd5b81516001600160a01b03811681146200008557600080fd5b9392505050565b6148d9806200009c6000396000f3fe608060405234801561001057600080fd5b506004361061027f5760003560e01c80635c50c3561161015c57806392eefe9b116100ce578063b78d27dc11610087578063b78d27dc14610751578063eaffb3f914610764578063ee4e804a14610777578063f10d1de11461078a578063f595f1cc1461079d578063f77c4791146107b057600080fd5b806392eefe9b146106545780639500ed9b146106675780639d0b2c7a1461067a5780639ef9df941461068d578063a64ad595146106a0578063ad3b1b471461073e57600080fd5b80636cf6d675116101205780636cf6d675146105d1578063713f2216146105fe5780637fc4606f14610606578063818710561461061957806388a6c7491461062c5780638b2f16521461063457600080fd5b80635c50c356146104de5780635dce9948146104e6578063673a456b1461059857806368ba170c146105ab5780636bd9add4146105be57600080fd5b806327de9e32116101f5578063412f83b6116101b9578063412f83b6146104515780634196ee75146104a857806343d3461a146104b1578063465501d3146104c457806351720b41146104cd5780635a2a75a9146104d657600080fd5b806327de9e32146103ef5780632a4e0d55146104025780633550aa10146104185780633a080e931461042b5780633aeb512c1461043e57600080fd5b8063228cb73311610247578063228cb7331461030757806322bf9d7c1461030f578063235c96031461032257806324454fc41461034d57806324b1babf146103c957806325d5971f146103dc57600080fd5b80630584a37314610284578063062e98b81461029957806308802374146102ac5780630fd02fc1146102d45780631544fc67146102e7575b600080fd5b6102976102923660046143c7565b6107c3565b005b6102976102a736600461441a565b610913565b6102bf6102ba366004614493565b610b8e565b60405190151581526020015b60405180910390f35b6102bf6102e23660046144b0565b610c40565b6102fa6102f5366004614493565b610c71565b6040516102cb91906144f2565b610297610d2d565b61029761031d36600461450c565b610d3a565b610335610330366004614493565b611111565b6040516001600160a01b0390911681526020016102cb565b6103a161035b3660046144b0565b6001600160a01b03909116600090815260046020818152604080842094845260039485019091529091208054600182015460028301549483015492909301549094929392565b604080519586526020860194909452928401919091526060830152608082015260a0016102cb565b6102976103d7366004614552565b6111ac565b6102976103ea366004614552565b6111c7565b6102976103fd366004614552565b611407565b61040a611413565b6040519081526020016102cb565b61029761042636600461456b565b61149f565b6102976104393660046144b0565b6118d3565b61029761044c36600461459a565b6118e4565b61049361045f3660046144b0565b6001600160a01b03919091166000908152600360209081526040808320938352600790930190522080546001909101549091565b604080519283526020830191909152016102cb565b61040a60055481565b6102976104bf3660046145cf565b611beb565b61040a60065481565b61040a60015481565b61040a611bf8565b60055461040a565b61054e6104f4366004614493565b6001600160a01b031660009081526004602081905260409091208054600182015460028301549383015460058401546006850154600786015460088701546009880154600a90980154969995989794969395929491939092565b604080519a8b5260208b0199909952978901969096526060880194909452608087019290925260a086015260c085015260e0840152610100830152610120820152610140016102cb565b6102976105a6366004614552565b611c33565b6102bf6105b9366004614493565b611d06565b6102976105cc3660046145f1565b611d3e565b6002546105e59067ffffffffffffffff1681565b60405167ffffffffffffffff90911681526020016102cb565b610297611d55565b61029761061436600461462c565b611d65565b61029761062736600461466e565b611df0565b610335612093565b610647610642366004614493565b612119565b6040516102cb91906146a7565b610297610662366004614493565b612139565b61029761067536600461462c565b61218f565b61040a6106883660046144b0565b6124e8565b61040a61069b366004614493565b61257b565b6106fb6106ae366004614493565b6001600160a01b0390811660009081526003602081905260409091208054600182015460028301549383015460048401546005850154600690950154939792969590951694909390929091565b6040805197885260208801969096526001600160a01b03909416948601949094526060850191909152608084015260a083019190915260c082015260e0016102cb565b61029761074c3660046144b0565b61259a565b61029761075f3660046146bb565b612731565b610297610772366004614552565b612741565b6102976107853660046146e0565b61274d565b61029761079836600461476d565b612b30565b61040a6107ab3660046144b0565b612ba9565b600054610335906001600160a01b031681565b6107cb612c3c565b6107d3612d00565b6107db612dc4565b60026107e633610c71565b60028111156107f7576107f76144dc565b146108495760405162461bcd60e51b815260206004820152601760248201527f63616c6c6572206d75737420626520756e626f6e64656400000000000000000060448201526064015b60405180910390fd5b6108cc6001610856612e67565b6001600160a01b0316638a19c8bc6040518163ffffffff1660e01b815260040160206040518083038186803b15801561088e57600080fd5b505afa1580156108a2573d6000803e3d6000fd5b505050506040513d601f19601f820116820180604052508101906108c69190614797565b90612ee0565b3360008181526003602052604090206004810192909255600290910180546001600160a01b0319166001600160a01b03871617905561090d90848484612eec565b50505050565b61091b612c3c565b610923612d00565b61092b612dc4565b33600090815260036020526040902060028101546001600160a01b031661095387878761218f565b6001600160a01b0388166000908152600360205260408120600684015490919061097e906001612ffc565b905060008460070160008381526020019081526020016000206001015490508460070160008381526020019081526020016000206000808201600090556001820160009055505060008360060154905060405180604001604052808c8152602001838152508460070160008381526020019081526020016000206000820151816000015560208201518160010155905050610a2760018560060154612ee090919063ffffffff16565b600685015560408051848152602081018390529081018c90526001600160a01b038d169033907ff136b986590e86cf1abd7b6600186a7a1178ad3cbbdf0f3312e79f6214a2a5679060600160405180910390a36000610a84612e67565b6001600160a01b0316638a19c8bc6040518163ffffffff1660e01b815260040160206040518083038186803b158015610abc57600080fd5b505afa158015610ad0573d6000803e3d6000fd5b505050506040513d601f19601f82011682018060405250810190610af49190614797565b600586015490915081811015610b0f57610b0f8e8383613008565b60028601546001600160a01b0316610b3f576002860180546001600160a01b0319166001600160a01b0389161790555b6002610b4a8f610c71565b6002811115610b5b57610b5b6144dc565b1415610b7257610b6c826001612ee0565b60048701555b610b7e8e848c8c612eec565b5050505050505050505050505050565b6001600160a01b038116600090815260046020526040812081610baf612e67565b6001600160a01b0316638a19c8bc6040518163ffffffff1660e01b815260040160206040518083038186803b158015610be757600080fd5b505afa158015610bfb573d6000803e3d6000fd5b505050506040513d601f19601f82011682018060405250810190610c1f9190614797565b905080826005015411158015610c385750816006015481105b949350505050565b6001600160a01b03919091166000908152600360209081526040808320938352600790930190522060010154151590565b6001600160a01b03811660009081526003602052604081208054610c985750600292915050565b610ca0612e67565b6001600160a01b0316638a19c8bc6040518163ffffffff1660e01b815260040160206040518083038186803b158015610cd857600080fd5b505afa158015610cec573d6000803e3d6000fd5b505050506040513d601f19601f82011682018060405250810190610d109190614797565b81600401541115610d245750600092915050565b50600192915050565b610d38600080611df0565b565b610d42612c3c565b610d4a613194565b6001600160a01b03841660009081526003602052604090208054156110b6576001600160a01b038516600090815260036020526040812054610d8c908561328f565b60405163b0138c4760e01b8152600760048201526001600160a01b038816602482015290915073C45f6918F7Bcac7aBc8fe05302b3cDF39776cdeb9063b0138c479060440160206040518083038186803b158015610de957600080fd5b505af4158015610dfd573d6000803e3d6000fd5b505050506040513d601f19601f82011682018060405250810190610e2191906147b0565b15610e2f57610e2f866132a8565b8154610e3b9082612ffc565b82556001610e4887610c71565b6002811115610e5957610e596144dc565b1415610eac5760028201546001600160a01b031660009081526003602081905260409091200154610e8a9082612ffc565b60028301546001600160a01b0316600090815260036020819052604090912001555b806001600160a01b03861615610ffb576000610ec8838661328f565b9050610ed26133a1565b60405163e7a49c2b60e01b81526001600160a01b03898116600483015260248201849052919091169063e7a49c2b90604401600060405180830381600087803b158015610f1e57600080fd5b505af1158015610f32573d6000803e3d6000fd5b50505050610f3e6133a1565b6001600160a01b031663c7ee98c2610f568484612ffc565b6040518263ffffffff1660e01b8152600401610f7491815260200190565b600060405180830381600087803b158015610f8e57600080fd5b505af1158015610fa2573d6000803e3d6000fd5b5050604080516001600160a01b038b8116825260208201889052918101859052908b1692507ff4b71fed8e2c9a8c67c388bc6d35ad20b9368a24eed6d565459f2b277b6c0c22915060600160405180910390a2506110af565b6110036133a1565b6001600160a01b031663c7ee98c2826040518263ffffffff1660e01b815260040161103091815260200190565b600060405180830381600087803b15801561104a57600080fd5b505af115801561105e573d6000803e3d6000fd5b5050604080516000808252602082018790528183015290516001600160a01b038b1693507ff4b71fed8e2c9a8c67c388bc6d35ad20b9368a24eed6d565459f2b277b6c0c2292509081900360600190a25b505061110a565b604080516001600160a01b03868116825260006020830181905292820192909252908616907ff4b71fed8e2c9a8c67c388bc6d35ad20b9368a24eed6d565459f2b277b6c0c22906060015b60405180910390a25b5050505050565b60405163e189dedb60e01b8152600760048201526001600160a01b038216602482015260009073C45f6918F7Bcac7aBc8fe05302b3cDF39776cdeb9063e189dedb9060440160206040518083038186803b15801561116e57600080fd5b505af4158015611182573d6000803e3d6000fd5b505050506040513d601f19601f820116820180604052508101906111a691906147d2565b92915050565b6111b4612c3c565b6111bc612d00565b6111c4612dc4565b50565b6111cf612c3c565b6111d7612d00565b3360008181526003602090815260408083208584526007810190925290912090916112029084610c40565b61124a5760405162461bcd60e51b81526020600482015260196024820152781a5b9d985b1a59081d5b989bdb991a5b99c81b1bd8dac81251603a1b6044820152606401610840565b611252612e67565b6001600160a01b0316638a19c8bc6040518163ffffffff1660e01b815260040160206040518083038186803b15801561128a57600080fd5b505afa15801561129e573d6000803e3d6000fd5b505050506040513d601f19601f820116820180604052508101906112c29190614797565b8160010154111561133b5760405162461bcd60e51b815260206004820152603b60248201527f776974686472617720726f756e64206d757374206265206265666f7265206f7260448201527f20657175616c20746f207468652063757272656e7420726f756e6400000000006064820152608401610840565b805460018083015460008681526007860160205260408120818155909201919091556113656133a1565b60405163e7a49c2b60e01b8152336004820152602481018490526001600160a01b03919091169063e7a49c2b90604401600060405180830381600087803b1580156113af57600080fd5b505af11580156113c3573d6000803e3d6000fd5b505060408051888152602081018690529081018490523392507f1340f1a8f3d456a649e1a12071dfa15655e3d09252131d0f980c3b405cc8dd2e9150606001611101565b6111c48160008061218f565b604051631665d9cb60e31b81526007600482015260009073C45f6918F7Bcac7aBc8fe05302b3cDF39776cdeb9063b32ece58906024015b60206040518083038186803b15801561146257600080fd5b505af4158015611476573d6000803e3d6000fd5b505050506040513d601f19601f8201168201806040525081019061149a9190614797565b905090565b6114a7612c3c565b6114af612d00565b6114b7612e67565b6001600160a01b0316636841f2536040518163ffffffff1660e01b815260040160206040518083038186803b1580156114ef57600080fd5b505afa158015611503573d6000803e3d6000fd5b505050506040513d601f19601f8201168201806040525081019061152791906147b0565b1561159a5760405162461bcd60e51b815260206004820152603760248201527f63616e277420757064617465207472616e73636f64657220706172616d732c2060448201527f63757272656e7420726f756e64206973206c6f636b65640000000000000000006064820152608401610840565b6115a784620f4240101590565b6115f35760405162461bcd60e51b815260206004820152601c60248201527f696e76616c6964207265776172644375742070657263656e74616765000000006044820152606401610840565b61160083620f4240101590565b61164c5760405162461bcd60e51b815260206004820152601b60248201527f696e76616c69642066656553686172652070657263656e7461676500000000006044820152606401610840565b61165533611d06565b6116a15760405162461bcd60e51b815260206004820152601d60248201527f7472616e73636f646572206d75737420626520726567697374657265640000006044820152606401610840565b336000908152600460205260408120906116b9612e67565b6001600160a01b0316638a19c8bc6040518163ffffffff1660e01b815260040160206040518083038186803b1580156116f157600080fd5b505afa158015611705573d6000803e3d6000fd5b505050506040513d601f19601f820116820180604052508101906117299190614797565b905061173433610b8e565b15806117405750815481145b6117ca5760405162461bcd60e51b815260206004820152604f60248201527f63616c6c65722063616e277420626520616374697665206f72206d757374206860448201527f61766520616c72656164792063616c6c65642072657761726420666f7220746860648201526e194818dd5c9c995b9d081c9bdd5b99608a1b608482015260a401610840565b600182018690556002820185905560405163b0138c4760e01b81526007600482015233602482015273C45f6918F7Bcac7aBc8fe05302b3cDF39776cdeb9063b0138c479060440160206040518083038186803b15801561182957600080fd5b505af415801561183d573d6000803e3d6000fd5b505050506040513d601f19601f8201168201806040525081019061186191906147b0565b6118905733600081815260036020819052604090912001546118909190611889846001612ee0565b87876133f2565b604080518781526020810187905233917f7346854431dbb3eb8e373c604abf89e90f4865b8447e1e2834d7b3e4677bf544910160405180910390a2505050505050565b6118e082826000806107c3565b5050565b6118ec612c3c565b6118f4613709565b6118fd83611d06565b6119495760405162461bcd60e51b815260206004820152601d60248201527f7472616e73636f646572206d75737420626520726567697374657265640000006044820152606401610840565b6000611953612e67565b6001600160a01b0316638a19c8bc6040518163ffffffff1660e01b815260040160206040518083038186803b15801561198b57600080fd5b505afa15801561199f573d6000803e3d6000fd5b505050506040513d601f19601f820116820180604052508101906119c39190614797565b6001600160a01b03851660009081526004602090815260408083208054600782015486865260038301909452918420949550939092611a0c85611a07886001612ffc565b613804565b905083861115611a565760018581015460028088015492850191909155830155600485015486811015611a4d57600081815260038701602052604090205483555b85600801549350505b81546060820151158015611a6957508685145b15611b7b576000611a786133a1565b90506000611b35611b2c836001600160a01b0316632de22cdb6040518163ffffffff1660e01b815260040160206040518083038186803b158015611abb57600080fd5b505afa158015611acf573d6000803e3d6000fd5b505050506040513d601f19601f82011682018060405250810190611af39190614797565b846001600160a01b0316639ae6309a6040518163ffffffff1660e01b815260040160206040518083038186803b15801561088e57600080fd5b846005546138a9565b90506000611b4782876001015461328f565b90506000611b558383612ffc565b6003880154909150611b719086611b6c8482612ee0565b6138a9565b6060870152505050505b6000611b8b8a856002015461328f565b90506000611b998b83612ffc565b90506000611ba88388866138a9565b9050611bc5826108c6838c60090154612ee090919063ffffffff16565b60098a0155611bd58686856138cf565b50505050600a9094019490945550505050505050565b6118e0828260008061149f565b6040516339ade16560e11b81526007600482015260009073C45f6918F7Bcac7aBc8fe05302b3cDF39776cdeb9063735bc2ca9060240161144a565b611c3b61394a565b60405163a176adaf60e01b8152600760048201526024810182905273C45f6918F7Bcac7aBc8fe05302b3cDF39776cdeb9063a176adaf9060440160006040518083038186803b158015611c8d57600080fd5b505af4158015611ca1573d6000803e3d6000fd5b505050507f9f5033568d78ae30f29f01e944f97b2216493bd19d1b46d429673acff3dcd674604051611cfb906020808252601490820152736e756d4163746976655472616e73636f6465727360601b604082015260600190565b60405180910390a150565b6001600160a01b0380821660008181526003602052604081206002810154919390929116148015611d375750805415155b9392505050565b611d4d8633878787878761274d565b505050505050565b611d5d613a2e565b600654600555565b611d6d612c3c565b611d75612d00565b611d7d612dc4565b6002611d8833610c71565b6002811115611d9957611d996144dc565b1415611ddf5760405162461bcd60e51b815260206004820152601560248201527418d85b1b195c881b5d5cdd08189948189bdb991959605a1b6044820152606401610840565b611deb33848484612eec565b505050565b611df8612c3c565b611e00612d00565b6000611e0a612e67565b6001600160a01b0316638a19c8bc6040518163ffffffff1660e01b815260040160206040518083038186803b158015611e4257600080fd5b505afa158015611e56573d6000803e3d6000fd5b505050506040513d601f19601f82011682018060405250810190611e7a9190614797565b9050611e8533610b8e565b611edd5760405162461bcd60e51b815260206004820152602360248201527f63616c6c6572206d75737420626520616e20616374697665207472616e73636f6044820152623232b960e91b6064820152608401610840565b33600090815260046020526040902054811415611f5b5760405162461bcd60e51b815260206004820152603660248201527f63616c6c65722068617320616c72656164792063616c6c65642072657761726460448201527508199bdc881d1a194818dd5c9c995b9d081c9bdd5b9960521b6064820152608401610840565b3360009081526004602090815260408083208484526003810190925290912060018083015460028085015492840191909155820155600482015483811015611fb157600081815260038401602052604090205482555b6000611fbb6133a1565b8354600554604051637dbedad560e01b8152600481019290925260248201526001600160a01b039190911690637dbedad590604401602060405180830381600087803b15801561200a57600080fd5b505af115801561201e573d6000803e3d6000fd5b505050506040513d601f19601f820116820180604052508101906120429190614797565b90506120513382878a8a613b29565b84845560405181815233907f619caafabdd75649b302ba8419e48cccf64f37f1983ac4727cfb38b57703ffc9906020015b60405180910390a250505050505050565b604051632ebb2fed60e01b81526007600482015260009073C45f6918F7Bcac7aBc8fe05302b3cDF39776cdeb90632ebb2fed9060240160206040518083038186803b1580156120e157600080fd5b505af41580156120f5573d6000803e3d6000fd5b505050506040513d601f19601f8201168201806040525081019061149a91906147d2565b600061212482611d06565b1561213157506001919050565b506000919050565b612141613beb565b600080546001600160a01b0319166001600160a01b0383169081179091556040519081527f4ff638452bbf33c012645d18ae6f05515ff5f2d1dfb0cece8cbf018c60903f7090602001611cfb565b612197612c3c565b61219f612d00565b6121a7612dc4565b60016121b233610c71565b60028111156121c3576121c36144dc565b146122085760405162461bcd60e51b815260206004820152601560248201527418d85b1b195c881b5d5cdd08189948189bdb991959605a1b6044820152606401610840565b336000908152600360205260409020836122705760405162461bcd60e51b8152602060048201526024808201527f756e626f6e6420616d6f756e74206d75737420626520677265617465722074686044820152630616e20360e41b6064820152608401610840565b80548411156122cd5760405162461bcd60e51b8152602060048201526024808201527f616d6f756e742069732067726561746572207468616e20626f6e64656420616d6044820152631bdd5b9d60e21b6064820152608401610840565b60028101546001600160a01b031660006122e5612e67565b6001600160a01b0316638a19c8bc6040518163ffffffff1660e01b815260040160206040518083038186803b15801561231d57600080fd5b505afa158015612331573d6000803e3d6000fd5b505050506040513d601f19601f820116820180604052508101906123559190614797565b60025490915060009061237390839067ffffffffffffffff16612ee0565b60068501546040805180820182528a81526020808201858152600085815260078b01909252929020905181559051600191820155919250906123b6908290612ee0565b600686015584546123c79089612ffc565b808655612484576002850180546001600160a01b0319169055600060048087019190915560405163b0138c4760e01b815260079181019190915233602482015273C45f6918F7Bcac7aBc8fe05302b3cDF39776cdeb9063b0138c479060440160206040518083038186803b15801561243e57600080fd5b505af4158015612452573d6000803e3d6000fd5b505050506040513d601f19601f8201168201806040525081019061247691906147b0565b1561248457612484336132a8565b61249084898989613c45565b60408051828152602081018a905290810183905233906001600160a01b038616907f2d5d98d189bee5496a08db2a5948cb7e5e786f09d17d0c3f228eb41776c24a069060600160405180910390a35050505050505050565b6000806124f3612e67565b6001600160a01b0316638a19c8bc6040518163ffffffff1660e01b815260040160206040518083038186803b15801561252b57600080fd5b505afa15801561253f573d6000803e3d6000fd5b505050506040513d601f19601f820116820180604052508101906125639190614797565b905060006125718583613ea8565b5095945050505050565b6001600160a01b03166000908152600360208190526040909120015490565b6125a2612c3c565b6125aa612d00565b6125b2612dc4565b6001600160a01b0382166125fc5760405162461bcd60e51b81526020600482015260116024820152701a5b9d985b1a59081c9958da5c1a595b9d607a1b6044820152606401610840565b336000908152600360205260409020600101548181101561265f5760405162461bcd60e51b815260206004820152601d60248201527f696e73756666696369656e74206665657320746f2077697468647261770000006044820152606401610840565b6126698183612ffc565b336000908152600360205260409020600101556126846133a1565b6040516320283da960e01b81526001600160a01b0385811660048301526024820185905291909116906320283da990604401600060405180830381600087803b1580156126d057600080fd5b505af11580156126e4573d6000803e3d6000fd5b5050604080516001600160a01b0387168152602081018690523393507f4f1b51dd7a2fcb861aa2670f668be66835c4ee12b4bbbf037e4d0018f39819e492500160405180910390a2505050565b6118e08282600080600080611d3e565b6111c481600080611d65565b612755612c3c565b61275d612d00565b612765612dc4565b6001600160a01b038616600090815260036020526040812090612786612e67565b6001600160a01b0316638a19c8bc6040518163ffffffff1660e01b815260040160206040518083038186803b1580156127be57600080fd5b505afa1580156127d2573d6000803e3d6000fd5b505050506040513d601f19601f820116820180604052508101906127f69190614797565b60028084015484549293508b926001600160a01b03909116916128188c610c71565b6002811115612829576128296144dc565b14156128445761283a846001612ee0565b600486015561290f565b6000811180156128665750896001600160a01b0316826001600160a01b031614155b1561290f576128748b611d06565b156128e75760405162461bcd60e51b815260206004820152603d60248201527f72656769737465726564207472616e73636f646572732063616e27742064656c60448201527f656761746520746f7761726473206f74686572206164647265737365730000006064820152608401610840565b6128f2846001612ee0565b60048601556129018382612ee0565b925061290f82828b8b613c45565b6001600160a01b038a16600090815260046020908152604080832087845260038082019093529220908101546129575761294d828360000154613f6d565b6060015160038201555b60048101546129785761296e8283600a0154613f6d565b6080015160048201555b5050600083116129db5760405162461bcd60e51b815260206004820152602860248201527f64656c65676174696f6e20616d6f756e74206d75737420626520677265617465604482015267072207468616e20360c41b6064820152608401610840565b6002850180546001600160a01b0319166001600160a01b038c16179055612a02818d612ee0565b8555612a108a848989613fd0565b8b15612abe57612a1e61422e565b6001600160a01b03166323b872dd33612a356133a1565b6040516001600160e01b031960e085901b1681526001600160a01b03928316600482015291166024820152604481018f9052606401602060405180830381600087803b158015612a8457600080fd5b505af1158015612a98573d6000803e3d6000fd5b505050506040513d601f19601f82011682018060405250810190612abc91906147b0565b505b8a6001600160a01b0316826001600160a01b03168b6001600160a01b03167fe5917769f276ddca9f2ee7c6b0b33e1d1e1b61008010ce622c632dd20d168a238f8960000154604051612b1a929190918252602082015260400190565b60405180910390a4505050505050505050505050565b612b3861394a565b6002805467ffffffffffffffff831667ffffffffffffffff199091161790556040517f9f5033568d78ae30f29f01e944f97b2216493bd19d1b46d429673acff3dcd67490611cfb906020808252600f908201526e1d5b989bdb991a5b99d4195c9a5bd9608a1b604082015260600190565b600080612bb4612e67565b6001600160a01b0316638a19c8bc6040518163ffffffff1660e01b815260040160206040518083038186803b158015612bec57600080fd5b505afa158015612c00573d6000803e3d6000fd5b505050506040513d601f19601f82011682018060405250810190612c249190614797565b90506000612c328583613ea8565b9695505050505050565b60008054906101000a90046001600160a01b03166001600160a01b0316635c975abb6040518163ffffffff1660e01b815260040160206040518083038186803b158015612c8857600080fd5b505afa158015612c9c573d6000803e3d6000fd5b505050506040513d601f19601f82011682018060405250810190612cc091906147b0565b15610d385760405162461bcd60e51b815260206004820152601060248201526f1cde5cdd195b481a5cc81c185d5cd95960821b6044820152606401610840565b612d08612e67565b6001600160a01b031663219bc76c6040518163ffffffff1660e01b815260040160206040518083038186803b158015612d4057600080fd5b505afa158015612d54573d6000803e3d6000fd5b505050506040513d601f19601f82011682018060405250810190612d7891906147b0565b610d385760405162461bcd60e51b815260206004820181905260248201527f63757272656e7420726f756e64206973206e6f7420696e697469616c697a65646044820152606401610840565b6000612dce612e67565b6001600160a01b0316638a19c8bc6040518163ffffffff1660e01b815260040160206040518083038186803b158015612e0657600080fd5b505afa158015612e1a573d6000803e3d6000fd5b505050506040513d601f19601f82011682018060405250810190612e3e9190614797565b33600090815260036020526040902060050154909150818110156118e0576118e0338383613008565b60008054604051631c2d8fb360e31b81527fe8438ea868df48e3fc21f2f087b993c9b1837dc0f6135064161ce7d7a1701fe860048201526001600160a01b039091169063e16c7d98906024015b60206040518083038186803b158015612ecc57600080fd5b505afa1580156120f5573d6000803e3d6000fd5b6000611d378284614805565b6001600160a01b038416600090815260036020908152604080832086845260078101909252909120612f1e8686610c40565b612f665760405162461bcd60e51b81526020600482015260196024820152781a5b9d985b1a59081d5b989bdb991a5b99c81b1bd8dac81251603a1b6044820152606401610840565b80548254612f749082612ee0565b835560008681526007840160205260408120818155600101556002830154612fa7906001600160a01b0316828787613fd0565b600283015460408051888152602081018490526001600160a01b038a81169316917f9f5b64cc71e1e26ff178caaa7877a04d8ce66fde989251870e80e6fbee690c17910160405180910390a350505050505050565b6000611d37828461481d565b6001600160a01b03831660009081526003602052604081209061302c836001612ee0565b82546001840154600285015492935090916001600160a01b031615613106576130558787613ea8565b60028601546001600160a01b031660009081526004602090815260408083208b84526003808201909352922090810154939550919350916130b0578154888110156130ae576130a48382613f6d565b6060015160038301555b505b60048101546130dc57600a820154888110156130da576130d08382613f6d565b6080015160048301555b505b60028601546001600160a01b038a8116911614156131035760006009830181905560088301555b50505b600284015484546001600160a01b03808a169216907fd7eab0765b772ea6ea859d5633baf737502198012e930f257f90013d9b21109490613148908690612ffc565b6001880154613158908690612ffc565b6040805192835260208301919091528101879052606081018a905260800160405180910390a36005840195909555825550600101919091555050565b600054604051631c2d8fb360e31b81527f121833d5ee4fda5e1a4034c2b7be8155c158142541dea26f39122c796649233f60048201526001600160a01b039091169063e16c7d989060240160206040518083038186803b1580156131f757600080fd5b505afa15801561320b573d6000803e3d6000fd5b505050506040513d601f19601f8201168201806040525081019061322f91906147d2565b6001600160a01b0316336001600160a01b031614610d385760405162461bcd60e51b815260206004820152601760248201527f63616c6c6572206d7573742062652056657269666965720000000000000000006044820152606401610840565b6000611d37620f42406132a2858561427f565b9061428b565b604051635d35e00760e01b8152600760048201526001600160a01b038216602482015273C45f6918F7Bcac7aBc8fe05302b3cDF39776cdeb90635d35e0079060440160006040518083038186803b15801561330257600080fd5b505af4158015613316573d6000803e3d6000fd5b5050505061332f6133268261257b565b60065490612ffc565b60065560006133416001610856612e67565b6001600160a01b0383166000818152600460205260409081902060060183905551919250907ffee3e693fc72d0a0a673805f3e606c551f4c677b9072444b90dd2d0406bc995c906133959084815260200190565b60405180910390a25050565b60008054604051631c2d8fb360e31b81527f6e58ad548d72b425ea94c15f453bf26caddb061d82b2551db7fdd3cefe0e994060048201526001600160a01b039091169063e16c7d9890602401612eb4565b6006546040516304aa129960e41b81526007600482015273C45f6918F7Bcac7aBc8fe05302b3cDF39776cdeb90634aa129909060240160206040518083038186803b15801561344057600080fd5b505af4158015613454573d6000803e3d6000fd5b505050506040513d601f19601f8201168201806040525081019061347891906147b0565b1561360357604051633972059360e11b81526007600482015260009073C45f6918F7Bcac7aBc8fe05302b3cDF39776cdeb906372e40b269060240160206040518083038186803b1580156134cb57600080fd5b505af41580156134df573d6000803e3d6000fd5b505050506040513d601f19601f8201168201806040525081019061350391906147d2565b905060006135108261257b565b90508087116135215750505061110a565b604051635d35e00760e01b8152600760048201526001600160a01b038316602482015273C45f6918F7Bcac7aBc8fe05302b3cDF39776cdeb90635d35e0079060440160006040518083038186803b15801561357b57600080fd5b505af415801561358f573d6000803e3d6000fd5b5050506001600160a01b0383166000908152600460205260409020600601879055506135bb8382612ffc565b9250816001600160a01b03167ffee3e693fc72d0a0a673805f3e606c551f4c677b9072444b90dd2d0406bc995c876040516135f891815260200190565b60405180910390a250505b6040516327dd54d360e11b815273C45f6918F7Bcac7aBc8fe05302b3cDF39776cdeb90634fbaa9a690613643906007908a908a9089908990600401614834565b60006040518083038186803b15801561365b57600080fd5b505af415801561366f573d6000803e3d6000fd5b505050506136868582612ee090919063ffffffff16565b6001600160a01b03871660009081526004602081815260408084209283018990556005830189905560001960068401558884526003830190915290912087905590915060068290556040518581526001600160a01b038816907f65d72d782835d64c3287844a829608d5abdc7e864cc9affe96d910ab3db665e990602001612082565b600054604051631c2d8fb360e31b81527fbd1aa3e8d2464256d7fd3dcf645c16418d5d8c51d971f1ad7d57e7b1b5eee23960048201526001600160a01b039091169063e16c7d989060240160206040518083038186803b15801561376c57600080fd5b505afa158015613780573d6000803e3d6000fd5b505050506040513d601f19601f820116820180604052508101906137a491906147d2565b6001600160a01b0316336001600160a01b031614610d385760405162461bcd60e51b815260206004820152601b60248201527f63616c6c6572206d757374206265205469636b657442726f6b657200000000006044820152606401610840565b6138366040518060a0016040528060008152602001600081526020016000815260200160008152602001600081525090565b6138408383613f6d565b835460608201519192509015801561385757508281105b15613871576138668482613f6d565b606090810151908301525b600a840154608083015115801561388757508381105b156138a1576138968582613f6d565b608090810151908401525b505092915050565b6000610c386b033b2e3c9fd0803ce80000006132a26138c88686614297565b879061427f565b608082015160608301516000906138f0576138eb600180614297565b6138f6565b83606001515b905084600401546000141561392d5761391e613917828588600001546138a9565b8390612ee0565b85600401819055505050505050565b61391e61393f828588600001546138a9565b600487015490612ee0565b60008054906101000a90046001600160a01b03166001600160a01b0316638da5cb5b6040518163ffffffff1660e01b815260040160206040518083038186803b15801561399657600080fd5b505afa1580156139aa573d6000803e3d6000fd5b505050506040513d601f19601f820116820180604052508101906139ce91906147d2565b6001600160a01b0316336001600160a01b031614610d385760405162461bcd60e51b815260206004820152601f60248201527f63616c6c6572206d75737420626520436f6e74726f6c6c6572206f776e6572006044820152606401610840565b600054604051631c2d8fb360e31b81527fe8438ea868df48e3fc21f2f087b993c9b1837dc0f6135064161ce7d7a1701fe860048201526001600160a01b039091169063e16c7d989060240160206040518083038186803b158015613a9157600080fd5b505afa158015613aa5573d6000803e3d6000fd5b505050506040513d601f19601f82011682018060405250810190613ac991906147d2565b6001600160a01b0316336001600160a01b031614610d385760405162461bcd60e51b815260206004820152601c60248201527f63616c6c6572206d75737420626520526f756e64734d616e61676572000000006044820152606401610840565b6001600160a01b0385166000908152600460209081526040808320868452600381019092528220815491929091613b61908490613f6d565b9050826008015483600701819055506000613b8088846001015461328f565b90506000613b8e8983612ffc565b90506000613ba582876007015487600001546138a9565b9050613bc2836108c6838960080154612ee090919063ffffffff16565b6008870155613bd28585846142b3565b613bde8b8b8a8a613fd0565b5050505050505050505050565b6000546001600160a01b03163314610d385760405162461bcd60e51b815260206004820152601960248201527f63616c6c6572206d75737420626520436f6e74726f6c6c6572000000000000006044820152606401610840565b60405163b0138c4760e01b8152600760048201526001600160a01b038516602482015273C45f6918F7Bcac7aBc8fe05302b3cDF39776cdeb9063b0138c479060440160206040518083038186803b158015613c9f57600080fd5b505af4158015613cb3573d6000803e3d6000fd5b505050506040513d601f19601f82011682018060405250810190613cd791906147b0565b15613e5b576000613ce78561257b565b90506000613cf58286612ffc565b90506000613d01612e67565b6001600160a01b0316638a19c8bc6040518163ffffffff1660e01b815260040160206040518083038186803b158015613d3957600080fd5b505afa158015613d4d573d6000803e3d6000fd5b505050506040513d601f19601f82011682018060405250810190613d719190614797565b90506000613d80826001612ee0565b604051631c11bf7f60e11b815290915073C45f6918F7Bcac7aBc8fe05302b3cDF39776cdeb906338237efe90613dc3906007908c9088908c908c90600401614834565b60006040518083038186803b158015613ddb57600080fd5b505af4158015613def573d6000803e3d6000fd5b5050600654613e019250905088612ffc565b6006556001600160a01b038816600090815260046020819052604090912090810154831115613e3e57600083815260038201602052604090208590555b600481018290556000918252600301602052604090209190915550505b6001600160a01b03841660009081526003602081905260409091200154613e829084612ffc565b6001600160a01b0390941660009081526003602081905260409091200193909355505050565b6001600160a01b03808316600090815260036020908152604080832060028101549094168352600490915281206001808401548454600586015490959194919392613ef39190612ee0565b60028401549091506001600160a01b039081169088168114878311613f2f57613f2984613f21856001612ffc565b8a8a8a614301565b90975095505b8015613f61576008840154613f45908890612ee0565b9650613f5e846009015487612ee090919063ffffffff16565b95505b50505050509250929050565b613f9f6040518060a0016040528060008152602001600081526020016000815260200160008152602001600081525090565b6000828152600393840160208181526040832095860154606085015293909152909152600490910154608082015290565b613fd984611d06565b15614207576000613fe98561257b565b90506000613ff78286612ee0565b90506000614003612e67565b6001600160a01b0316638a19c8bc6040518163ffffffff1660e01b815260040160206040518083038186803b15801561403b57600080fd5b505afa15801561404f573d6000803e3d6000fd5b505050506040513d601f19601f820116820180604052508101906140739190614797565b90506000614082826001612ee0565b60405163b0138c4760e01b8152600760048201526001600160a01b038a16602482015290915073C45f6918F7Bcac7aBc8fe05302b3cDF39776cdeb9063b0138c479060440160206040518083038186803b1580156140df57600080fd5b505af41580156140f3573d6000803e3d6000fd5b505050506040513d601f19601f8201168201806040525081019061411791906147b0565b156141f557604051631c11bf7f60e11b815273C45f6918F7Bcac7aBc8fe05302b3cDF39776cdeb906338237efe9061415c906007908c9088908c908c90600401614834565b60006040518083038186803b15801561417457600080fd5b505af4158015614188573d6000803e3d6000fd5b505060065461419a9250905088612ee0565b6006556001600160a01b0388166000908152600460208190526040909120908101548311156141d757600083815260038201602052604090208590555b60008281526003820160205260409020849055600401819055614202565b61420288848389896133f2565b505050505b6001600160a01b03841660009081526003602081905260409091200154613e829084612ee0565b60008054604051631c2d8fb360e31b81527f3443e257065fe41dd0e4d1f5a1b73a22a62e300962b57f30cddf41d0f8273ba760048201526001600160a01b039091169063e16c7d9890602401612eb4565b6000611d378284614862565b6000611d378284614881565b6000611d37826132a2856b033b2e3c9fd0803ce800000061427f565b60008260600151600014156142d2576142cd600180614297565b6142d8565b82606001515b90506142f36142ec828487600001546138a9565b8290612ee0565b846003018190555050505050565b60008060006143108888613f6d565b90508060600151600014156143305761432a600180614297565b60608201525b600061433c8988613804565b905080606001516000141561435c57614356600180614297565b60608201525b61438f6143888761437e85608001518560800151612ffc90919063ffffffff16565b85606001516138a9565b8690612ee0565b92506143a486826060015184606001516138a9565b935050509550959350505050565b6001600160a01b03811681146111c457600080fd5b600080600080608085870312156143dd57600080fd5b84356143e8816143b2565b93506020850135925060408501356143ff816143b2565b9150606085013561440f816143b2565b939692955090935050565b60008060008060008060c0878903121561443357600080fd5b863561443e816143b2565b9550602087013594506040870135614455816143b2565b93506060870135614465816143b2565b92506080870135614475816143b2565b915060a0870135614485816143b2565b809150509295509295509295565b6000602082840312156144a557600080fd5b8135611d37816143b2565b600080604083850312156144c357600080fd5b82356144ce816143b2565b946020939093013593505050565b634e487b7160e01b600052602160045260246000fd5b6020810160038310614506576145066144dc565b91905290565b6000806000806080858703121561452257600080fd5b843561452d816143b2565b9350602085013561453d816143b2565b93969395505050506040820135916060013590565b60006020828403121561456457600080fd5b5035919050565b6000806000806080858703121561458157600080fd5b843593506020850135925060408501356143ff816143b2565b6000806000606084860312156145af57600080fd5b83356145ba816143b2565b95602085013595506040909401359392505050565b600080604083850312156145e257600080fd5b50508035926020909101359150565b60008060008060008060c0878903121561460a57600080fd5b86359550602087013561461c816143b2565b94506040870135614455816143b2565b60008060006060848603121561464157600080fd5b833592506020840135614653816143b2565b91506040840135614663816143b2565b809150509250925092565b6000806040838503121561468157600080fd5b823561468c816143b2565b9150602083013561469c816143b2565b809150509250929050565b6020810160028310614506576145066144dc565b600080604083850312156146ce57600080fd5b82359150602083013561469c816143b2565b600080600080600080600060e0888a0312156146fb57600080fd5b87359650602088013561470d816143b2565b9550604088013561471d816143b2565b9450606088013561472d816143b2565b9350608088013561473d816143b2565b925060a088013561474d816143b2565b915060c088013561475d816143b2565b8091505092959891949750929550565b60006020828403121561477f57600080fd5b813567ffffffffffffffff81168114611d3757600080fd5b6000602082840312156147a957600080fd5b5051919050565b6000602082840312156147c257600080fd5b81518015158114611d3757600080fd5b6000602082840312156147e457600080fd5b8151611d37816143b2565b634e487b7160e01b600052601160045260246000fd5b60008219821115614818576148186147ef565b500190565b60008282101561482f5761482f6147ef565b500390565b9485526001600160a01b03938416602086015260408501929092528216606084015216608082015260a00190565b600081600019048311821515161561487c5761487c6147ef565b500290565b60008261489e57634e487b7160e01b600052601260045260246000fd5b50049056fea264697066735822122084ef728ebfb0333127dbaf5c1958d15f6c7667ad0536c0afa147b43b535ef28b64736f6c63430008090033",
  "deployedBytecode": "0x608060405234801561001057600080fd5b506004361061027f5760003560e01c80635c50c3561161015c57806392eefe9b116100ce578063b78d27dc11610087578063b78d27dc14610751578063eaffb3f914610764578063ee4e804a14610777578063f10d1de11461078a578063f595f1cc1461079d578063f77c4791146107b057600080fd5b806392eefe9b146106545780639500ed9b146106675780639d0b2c7a1461067a5780639ef9df941461068d578063a64ad595146106a0578063ad3b1b471461073e57600080fd5b80636cf6d675116101205780636cf6d675146105d1578063713f2216146105fe5780637fc4606f14610606578063818710561461061957806388a6c7491461062c5780638b2f16521461063457600080fd5b80635c50c356146104de5780635dce9948146104e6578063673a456b1461059857806368ba170c146105ab5780636bd9add4146105be57600080fd5b806327de9e32116101f5578063412f83b6116101b9578063412f83b6146104515780634196ee75146104a857806343d3461a146104b1578063465501d3146104c457806351720b41146104cd5780635a2a75a9146104d657600080fd5b806327de9e32146103ef5780632a4e0d55146104025780633550aa10146104185780633a080e931461042b5780633aeb512c1461043e57600080fd5b8063228cb73311610247578063228cb7331461030757806322bf9d7c1461030f578063235c96031461032257806324454fc41461034d57806324b1babf146103c957806325d5971f146103dc57600080fd5b80630584a37314610284578063062e98b81461029957806308802374146102ac5780630fd02fc1146102d45780631544fc67146102e7575b600080fd5b6102976102923660046143c7565b6107c3565b005b6102976102a736600461441a565b610913565b6102bf6102ba366004614493565b610b8e565b60405190151581526020015b60405180910390f35b6102bf6102e23660046144b0565b610c40565b6102fa6102f5366004614493565b610c71565b6040516102cb91906144f2565b610297610d2d565b61029761031d36600461450c565b610d3a565b610335610330366004614493565b611111565b6040516001600160a01b0390911681526020016102cb565b6103a161035b3660046144b0565b6001600160a01b03909116600090815260046020818152604080842094845260039485019091529091208054600182015460028301549483015492909301549094929392565b604080519586526020860194909452928401919091526060830152608082015260a0016102cb565b6102976103d7366004614552565b6111ac565b6102976103ea366004614552565b6111c7565b6102976103fd366004614552565b611407565b61040a611413565b6040519081526020016102cb565b61029761042636600461456b565b61149f565b6102976104393660046144b0565b6118d3565b61029761044c36600461459a565b6118e4565b61049361045f3660046144b0565b6001600160a01b03919091166000908152600360209081526040808320938352600790930190522080546001909101549091565b604080519283526020830191909152016102cb565b61040a60055481565b6102976104bf3660046145cf565b611beb565b61040a60065481565b61040a60015481565b61040a611bf8565b60055461040a565b61054e6104f4366004614493565b6001600160a01b031660009081526004602081905260409091208054600182015460028301549383015460058401546006850154600786015460088701546009880154600a90980154969995989794969395929491939092565b604080519a8b5260208b0199909952978901969096526060880194909452608087019290925260a086015260c085015260e0840152610100830152610120820152610140016102cb565b6102976105a6366004614552565b611c33565b6102bf6105b9366004614493565b611d06565b6102976105cc3660046145f1565b611d3e565b6002546105e59067ffffffffffffffff1681565b60405167ffffffffffffffff90911681526020016102cb565b610297611d55565b61029761061436600461462c565b611d65565b61029761062736600461466e565b611df0565b610335612093565b610647610642366004614493565b612119565b6040516102cb91906146a7565b610297610662366004614493565b612139565b61029761067536600461462c565b61218f565b61040a6106883660046144b0565b6124e8565b61040a61069b366004614493565b61257b565b6106fb6106ae366004614493565b6001600160a01b0390811660009081526003602081905260409091208054600182015460028301549383015460048401546005850154600690950154939792969590951694909390929091565b6040805197885260208801969096526001600160a01b03909416948601949094526060850191909152608084015260a083019190915260c082015260e0016102cb565b61029761074c3660046144b0565b61259a565b61029761075f3660046146bb565b612731565b610297610772366004614552565b612741565b6102976107853660046146e0565b61274d565b61029761079836600461476d565b612b30565b61040a6107ab3660046144b0565b612ba9565b600054610335906001600160a01b031681565b6107cb612c3c565b6107d3612d00565b6107db612dc4565b60026107e633610c71565b60028111156107f7576107f76144dc565b146108495760405162461bcd60e51b815260206004820152601760248201527f63616c6c6572206d75737420626520756e626f6e64656400000000000000000060448201526064015b60405180910390fd5b6108cc6001610856612e67565b6001600160a01b0316638a19c8bc6040518163ffffffff1660e01b815260040160206040518083038186803b15801561088e57600080fd5b505afa1580156108a2573d6000803e3d6000fd5b505050506040513d601f19601f820116820180604052508101906108c69190614797565b90612ee0565b3360008181526003602052604090206004810192909255600290910180546001600160a01b0319166001600160a01b03871617905561090d90848484612eec565b50505050565b61091b612c3c565b610923612d00565b61092b612dc4565b33600090815260036020526040902060028101546001600160a01b031661095387878761218f565b6001600160a01b0388166000908152600360205260408120600684015490919061097e906001612ffc565b905060008460070160008381526020019081526020016000206001015490508460070160008381526020019081526020016000206000808201600090556001820160009055505060008360060154905060405180604001604052808c8152602001838152508460070160008381526020019081526020016000206000820151816000015560208201518160010155905050610a2760018560060154612ee090919063ffffffff16565b600685015560408051848152602081018390529081018c90526001600160a01b038d169033907ff136b986590e86cf1abd7b6600186a7a1178ad3cbbdf0f3312e79f6214a2a5679060600160405180910390a36000610a84612e67565b6001600160a01b0316638a19c8bc6040518163ffffffff1660e01b815260040160206040518083038186803b158015610abc57600080fd5b505afa158015610ad0573d6000803e3d6000fd5b505050506040513d601f19601f82011682018060405250810190610af49190614797565b600586015490915081811015610b0f57610b0f8e8383613008565b60028601546001600160a01b0316610b3f576002860180546001600160a01b0319166001600160a01b0389161790555b6002610b4a8f610c71565b6002811115610b5b57610b5b6144dc565b1415610b7257610b6c826001612ee0565b60048701555b610b7e8e848c8c612eec565b5050505050505050505050505050565b6001600160a01b038116600090815260046020526040812081610baf612e67565b6001600160a01b0316638a19c8bc6040518163ffffffff1660e01b815260040160206040518083038186803b158015610be757600080fd5b505afa158015610bfb573d6000803e3d6000fd5b505050506040513d601f19601f82011682018060405250810190610c1f9190614797565b905080826005015411158015610c385750816006015481105b949350505050565b6001600160a01b03919091166000908152600360209081526040808320938352600790930190522060010154151590565b6001600160a01b03811660009081526003602052604081208054610c985750600292915050565b610ca0612e67565b6001600160a01b0316638a19c8bc6040518163ffffffff1660e01b815260040160206040518083038186803b158015610cd857600080fd5b505afa158015610cec573d6000803e3d6000fd5b505050506040513d601f19601f82011682018060405250810190610d109190614797565b81600401541115610d245750600092915050565b50600192915050565b610d38600080611df0565b565b610d42612c3c565b610d4a613194565b6001600160a01b03841660009081526003602052604090208054156110b6576001600160a01b038516600090815260036020526040812054610d8c908561328f565b60405163b0138c4760e01b8152600760048201526001600160a01b038816602482015290915073__$d23c89be677d40ab24c636937040b6165f$__9063b0138c479060440160206040518083038186803b158015610de957600080fd5b505af4158015610dfd573d6000803e3d6000fd5b505050506040513d601f19601f82011682018060405250810190610e2191906147b0565b15610e2f57610e2f866132a8565b8154610e3b9082612ffc565b82556001610e4887610c71565b6002811115610e5957610e596144dc565b1415610eac5760028201546001600160a01b031660009081526003602081905260409091200154610e8a9082612ffc565b60028301546001600160a01b0316600090815260036020819052604090912001555b806001600160a01b03861615610ffb576000610ec8838661328f565b9050610ed26133a1565b60405163e7a49c2b60e01b81526001600160a01b03898116600483015260248201849052919091169063e7a49c2b90604401600060405180830381600087803b158015610f1e57600080fd5b505af1158015610f32573d6000803e3d6000fd5b50505050610f3e6133a1565b6001600160a01b031663c7ee98c2610f568484612ffc565b6040518263ffffffff1660e01b8152600401610f7491815260200190565b600060405180830381600087803b158015610f8e57600080fd5b505af1158015610fa2573d6000803e3d6000fd5b5050604080516001600160a01b038b8116825260208201889052918101859052908b1692507ff4b71fed8e2c9a8c67c388bc6d35ad20b9368a24eed6d565459f2b277b6c0c22915060600160405180910390a2506110af565b6110036133a1565b6001600160a01b031663c7ee98c2826040518263ffffffff1660e01b815260040161103091815260200190565b600060405180830381600087803b15801561104a57600080fd5b505af115801561105e573d6000803e3d6000fd5b5050604080516000808252602082018790528183015290516001600160a01b038b1693507ff4b71fed8e2c9a8c67c388bc6d35ad20b9368a24eed6d565459f2b277b6c0c2292509081900360600190a25b505061110a565b604080516001600160a01b03868116825260006020830181905292820192909252908616907ff4b71fed8e2c9a8c67c388bc6d35ad20b9368a24eed6d565459f2b277b6c0c22906060015b60405180910390a25b5050505050565b60405163e189dedb60e01b8152600760048201526001600160a01b038216602482015260009073__$d23c89be677d40ab24c636937040b6165f$__9063e189dedb9060440160206040518083038186803b15801561116e57600080fd5b505af4158015611182573d6000803e3d6000fd5b505050506040513d601f19601f820116820180604052508101906111a691906147d2565b92915050565b6111b4612c3c565b6111bc612d00565b6111c4612dc4565b50565b6111cf612c3c565b6111d7612d00565b3360008181526003602090815260408083208584526007810190925290912090916112029084610c40565b61124a5760405162461bcd60e51b81526020600482015260196024820152781a5b9d985b1a59081d5b989bdb991a5b99c81b1bd8dac81251603a1b6044820152606401610840565b611252612e67565b6001600160a01b0316638a19c8bc6040518163ffffffff1660e01b815260040160206040518083038186803b15801561128a57600080fd5b505afa15801561129e573d6000803e3d6000fd5b505050506040513d601f19601f820116820180604052508101906112c29190614797565b8160010154111561133b5760405162461bcd60e51b815260206004820152603b60248201527f776974686472617720726f756e64206d757374206265206265666f7265206f7260448201527f20657175616c20746f207468652063757272656e7420726f756e6400000000006064820152608401610840565b805460018083015460008681526007860160205260408120818155909201919091556113656133a1565b60405163e7a49c2b60e01b8152336004820152602481018490526001600160a01b03919091169063e7a49c2b90604401600060405180830381600087803b1580156113af57600080fd5b505af11580156113c3573d6000803e3d6000fd5b505060408051888152602081018690529081018490523392507f1340f1a8f3d456a649e1a12071dfa15655e3d09252131d0f980c3b405cc8dd2e9150606001611101565b6111c48160008061218f565b604051631665d9cb60e31b81526007600482015260009073__$d23c89be677d40ab24c636937040b6165f$__9063b32ece58906024015b60206040518083038186803b15801561146257600080fd5b505af4158015611476573d6000803e3d6000fd5b505050506040513d601f19601f8201168201806040525081019061149a9190614797565b905090565b6114a7612c3c565b6114af612d00565b6114b7612e67565b6001600160a01b0316636841f2536040518163ffffffff1660e01b815260040160206040518083038186803b1580156114ef57600080fd5b505afa158015611503573d6000803e3d6000fd5b505050506040513d601f19601f8201168201806040525081019061152791906147b0565b1561159a5760405162461bcd60e51b815260206004820152603760248201527f63616e277420757064617465207472616e73636f64657220706172616d732c2060448201527f63757272656e7420726f756e64206973206c6f636b65640000000000000000006064820152608401610840565b6115a784620f4240101590565b6115f35760405162461bcd60e51b815260206004820152601c60248201527f696e76616c6964207265776172644375742070657263656e74616765000000006044820152606401610840565b61160083620f4240101590565b61164c5760405162461bcd60e51b815260206004820152601b60248201527f696e76616c69642066656553686172652070657263656e7461676500000000006044820152606401610840565b61165533611d06565b6116a15760405162461bcd60e51b815260206004820152601d60248201527f7472616e73636f646572206d75737420626520726567697374657265640000006044820152606401610840565b336000908152600460205260408120906116b9612e67565b6001600160a01b0316638a19c8bc6040518163ffffffff1660e01b815260040160206040518083038186803b1580156116f157600080fd5b505afa158015611705573d6000803e3d6000fd5b505050506040513d601f19601f820116820180604052508101906117299190614797565b905061173433610b8e565b15806117405750815481145b6117ca5760405162461bcd60e51b815260206004820152604f60248201527f63616c6c65722063616e277420626520616374697665206f72206d757374206860448201527f61766520616c72656164792063616c6c65642072657761726420666f7220746860648201526e194818dd5c9c995b9d081c9bdd5b99608a1b608482015260a401610840565b600182018690556002820185905560405163b0138c4760e01b81526007600482015233602482015273__$d23c89be677d40ab24c636937040b6165f$__9063b0138c479060440160206040518083038186803b15801561182957600080fd5b505af415801561183d573d6000803e3d6000fd5b505050506040513d601f19601f8201168201806040525081019061186191906147b0565b6118905733600081815260036020819052604090912001546118909190611889846001612ee0565b87876133f2565b604080518781526020810187905233917f7346854431dbb3eb8e373c604abf89e90f4865b8447e1e2834d7b3e4677bf544910160405180910390a2505050505050565b6118e082826000806107c3565b5050565b6118ec612c3c565b6118f4613709565b6118fd83611d06565b6119495760405162461bcd60e51b815260206004820152601d60248201527f7472616e73636f646572206d75737420626520726567697374657265640000006044820152606401610840565b6000611953612e67565b6001600160a01b0316638a19c8bc6040518163ffffffff1660e01b815260040160206040518083038186803b15801561198b57600080fd5b505afa15801561199f573d6000803e3d6000fd5b505050506040513d601f19601f820116820180604052508101906119c39190614797565b6001600160a01b03851660009081526004602090815260408083208054600782015486865260038301909452918420949550939092611a0c85611a07886001612ffc565b613804565b905083861115611a565760018581015460028088015492850191909155830155600485015486811015611a4d57600081815260038701602052604090205483555b85600801549350505b81546060820151158015611a6957508685145b15611b7b576000611a786133a1565b90506000611b35611b2c836001600160a01b0316632de22cdb6040518163ffffffff1660e01b815260040160206040518083038186803b158015611abb57600080fd5b505afa158015611acf573d6000803e3d6000fd5b505050506040513d601f19601f82011682018060405250810190611af39190614797565b846001600160a01b0316639ae6309a6040518163ffffffff1660e01b815260040160206040518083038186803b15801561088e57600080fd5b846005546138a9565b90506000611b4782876001015461328f565b90506000611b558383612ffc565b6003880154909150611b719086611b6c8482612ee0565b6138a9565b6060870152505050505b6000611b8b8a856002015461328f565b90506000611b998b83612ffc565b90506000611ba88388866138a9565b9050611bc5826108c6838c60090154612ee090919063ffffffff16565b60098a0155611bd58686856138cf565b50505050600a9094019490945550505050505050565b6118e0828260008061149f565b6040516339ade16560e11b81526007600482015260009073__$d23c89be677d40ab24c636937040b6165f$__9063735bc2ca9060240161144a565b611c3b61394a565b60405163a176adaf60e01b8152600760048201526024810182905273__$d23c89be677d40ab24c636937040b6165f$__9063a176adaf9060440160006040518083038186803b158015611c8d57600080fd5b505af4158015611ca1573d6000803e3d6000fd5b505050507f9f5033568d78ae30f29f01e944f97b2216493bd19d1b46d429673acff3dcd674604051611cfb906020808252601490820152736e756d4163746976655472616e73636f6465727360601b604082015260600190565b60405180910390a150565b6001600160a01b0380821660008181526003602052604081206002810154919390929116148015611d375750805415155b9392505050565b611d4d8633878787878761274d565b505050505050565b611d5d613a2e565b600654600555565b611d6d612c3c565b611d75612d00565b611d7d612dc4565b6002611d8833610c71565b6002811115611d9957611d996144dc565b1415611ddf5760405162461bcd60e51b815260206004820152601560248201527418d85b1b195c881b5d5cdd08189948189bdb991959605a1b6044820152606401610840565b611deb33848484612eec565b505050565b611df8612c3c565b611e00612d00565b6000611e0a612e67565b6001600160a01b0316638a19c8bc6040518163ffffffff1660e01b815260040160206040518083038186803b158015611e4257600080fd5b505afa158015611e56573d6000803e3d6000fd5b505050506040513d601f19601f82011682018060405250810190611e7a9190614797565b9050611e8533610b8e565b611edd5760405162461bcd60e51b815260206004820152602360248201527f63616c6c6572206d75737420626520616e20616374697665207472616e73636f6044820152623232b960e91b6064820152608401610840565b33600090815260046020526040902054811415611f5b5760405162461bcd60e51b815260206004820152603660248201527f63616c6c65722068617320616c72656164792063616c6c65642072657761726460448201527508199bdc881d1a194818dd5c9c995b9d081c9bdd5b9960521b6064820152608401610840565b3360009081526004602090815260408083208484526003810190925290912060018083015460028085015492840191909155820155600482015483811015611fb157600081815260038401602052604090205482555b6000611fbb6133a1565b8354600554604051637dbedad560e01b8152600481019290925260248201526001600160a01b039190911690637dbedad590604401602060405180830381600087803b15801561200a57600080fd5b505af115801561201e573d6000803e3d6000fd5b505050506040513d601f19601f820116820180604052508101906120429190614797565b90506120513382878a8a613b29565b84845560405181815233907f619caafabdd75649b302ba8419e48cccf64f37f1983ac4727cfb38b57703ffc9906020015b60405180910390a250505050505050565b604051632ebb2fed60e01b81526007600482015260009073__$d23c89be677d40ab24c636937040b6165f$__90632ebb2fed9060240160206040518083038186803b1580156120e157600080fd5b505af41580156120f5573d6000803e3d6000fd5b505050506040513d601f19601f8201168201806040525081019061149a91906147d2565b600061212482611d06565b1561213157506001919050565b506000919050565b612141613beb565b600080546001600160a01b0319166001600160a01b0383169081179091556040519081527f4ff638452bbf33c012645d18ae6f05515ff5f2d1dfb0cece8cbf018c60903f7090602001611cfb565b612197612c3c565b61219f612d00565b6121a7612dc4565b60016121b233610c71565b60028111156121c3576121c36144dc565b146122085760405162461bcd60e51b815260206004820152601560248201527418d85b1b195c881b5d5cdd08189948189bdb991959605a1b6044820152606401610840565b336000908152600360205260409020836122705760405162461bcd60e51b8152602060048201526024808201527f756e626f6e6420616d6f756e74206d75737420626520677265617465722074686044820152630616e20360e41b6064820152608401610840565b80548411156122cd5760405162461bcd60e51b8152602060048201526024808201527f616d6f756e742069732067726561746572207468616e20626f6e64656420616d6044820152631bdd5b9d60e21b6064820152608401610840565b60028101546001600160a01b031660006122e5612e67565b6001600160a01b0316638a19c8bc6040518163ffffffff1660e01b815260040160206040518083038186803b15801561231d57600080fd5b505afa158015612331573d6000803e3d6000fd5b505050506040513d601f19601f820116820180604052508101906123559190614797565b60025490915060009061237390839067ffffffffffffffff16612ee0565b60068501546040805180820182528a81526020808201858152600085815260078b01909252929020905181559051600191820155919250906123b6908290612ee0565b600686015584546123c79089612ffc565b808655612484576002850180546001600160a01b0319169055600060048087019190915560405163b0138c4760e01b815260079181019190915233602482015273__$d23c89be677d40ab24c636937040b6165f$__9063b0138c479060440160206040518083038186803b15801561243e57600080fd5b505af4158015612452573d6000803e3d6000fd5b505050506040513d601f19601f8201168201806040525081019061247691906147b0565b1561248457612484336132a8565b61249084898989613c45565b60408051828152602081018a905290810183905233906001600160a01b038616907f2d5d98d189bee5496a08db2a5948cb7e5e786f09d17d0c3f228eb41776c24a069060600160405180910390a35050505050505050565b6000806124f3612e67565b6001600160a01b0316638a19c8bc6040518163ffffffff1660e01b815260040160206040518083038186803b15801561252b57600080fd5b505afa15801561253f573d6000803e3d6000fd5b505050506040513d601f19601f820116820180604052508101906125639190614797565b905060006125718583613ea8565b5095945050505050565b6001600160a01b03166000908152600360208190526040909120015490565b6125a2612c3c565b6125aa612d00565b6125b2612dc4565b6001600160a01b0382166125fc5760405162461bcd60e51b81526020600482015260116024820152701a5b9d985b1a59081c9958da5c1a595b9d607a1b6044820152606401610840565b336000908152600360205260409020600101548181101561265f5760405162461bcd60e51b815260206004820152601d60248201527f696e73756666696369656e74206665657320746f2077697468647261770000006044820152606401610840565b6126698183612ffc565b336000908152600360205260409020600101556126846133a1565b6040516320283da960e01b81526001600160a01b0385811660048301526024820185905291909116906320283da990604401600060405180830381600087803b1580156126d057600080fd5b505af11580156126e4573d6000803e3d6000fd5b5050604080516001600160a01b0387168152602081018690523393507f4f1b51dd7a2fcb861aa2670f668be66835c4ee12b4bbbf037e4d0018f39819e492500160405180910390a2505050565b6118e08282600080600080611d3e565b6111c481600080611d65565b612755612c3c565b61275d612d00565b612765612dc4565b6001600160a01b038616600090815260036020526040812090612786612e67565b6001600160a01b0316638a19c8bc6040518163ffffffff1660e01b815260040160206040518083038186803b1580156127be57600080fd5b505afa1580156127d2573d6000803e3d6000fd5b505050506040513d601f19601f820116820180604052508101906127f69190614797565b60028084015484549293508b926001600160a01b03909116916128188c610c71565b6002811115612829576128296144dc565b14156128445761283a846001612ee0565b600486015561290f565b6000811180156128665750896001600160a01b0316826001600160a01b031614155b1561290f576128748b611d06565b156128e75760405162461bcd60e51b815260206004820152603d60248201527f72656769737465726564207472616e73636f646572732063616e27742064656c60448201527f656761746520746f7761726473206f74686572206164647265737365730000006064820152608401610840565b6128f2846001612ee0565b60048601556129018382612ee0565b925061290f82828b8b613c45565b6001600160a01b038a16600090815260046020908152604080832087845260038082019093529220908101546129575761294d828360000154613f6d565b6060015160038201555b60048101546129785761296e8283600a0154613f6d565b6080015160048201555b5050600083116129db5760405162461bcd60e51b815260206004820152602860248201527f64656c65676174696f6e20616d6f756e74206d75737420626520677265617465604482015267072207468616e20360c41b6064820152608401610840565b6002850180546001600160a01b0319166001600160a01b038c16179055612a02818d612ee0565b8555612a108a848989613fd0565b8b15612abe57612a1e61422e565b6001600160a01b03166323b872dd33612a356133a1565b6040516001600160e01b031960e085901b1681526001600160a01b03928316600482015291166024820152604481018f9052606401602060405180830381600087803b158015612a8457600080fd5b505af1158015612a98573d6000803e3d6000fd5b505050506040513d601f19601f82011682018060405250810190612abc91906147b0565b505b8a6001600160a01b0316826001600160a01b03168b6001600160a01b03167fe5917769f276ddca9f2ee7c6b0b33e1d1e1b61008010ce622c632dd20d168a238f8960000154604051612b1a929190918252602082015260400190565b60405180910390a4505050505050505050505050565b612b3861394a565b6002805467ffffffffffffffff831667ffffffffffffffff199091161790556040517f9f5033568d78ae30f29f01e944f97b2216493bd19d1b46d429673acff3dcd67490611cfb906020808252600f908201526e1d5b989bdb991a5b99d4195c9a5bd9608a1b604082015260600190565b600080612bb4612e67565b6001600160a01b0316638a19c8bc6040518163ffffffff1660e01b815260040160206040518083038186803b158015612bec57600080fd5b505afa158015612c00573d6000803e3d6000fd5b505050506040513d601f19601f82011682018060405250810190612c249190614797565b90506000612c328583613ea8565b9695505050505050565b60008054906101000a90046001600160a01b03166001600160a01b0316635c975abb6040518163ffffffff1660e01b815260040160206040518083038186803b158015612c8857600080fd5b505afa158015612c9c573d6000803e3d6000fd5b505050506040513d601f19601f82011682018060405250810190612cc091906147b0565b15610d385760405162461bcd60e51b815260206004820152601060248201526f1cde5cdd195b481a5cc81c185d5cd95960821b6044820152606401610840565b612d08612e67565b6001600160a01b031663219bc76c6040518163ffffffff1660e01b815260040160206040518083038186803b158015612d4057600080fd5b505afa158015612d54573d6000803e3d6000fd5b505050506040513d601f19601f82011682018060405250810190612d7891906147b0565b610d385760405162461bcd60e51b815260206004820181905260248201527f63757272656e7420726f756e64206973206e6f7420696e697469616c697a65646044820152606401610840565b6000612dce612e67565b6001600160a01b0316638a19c8bc6040518163ffffffff1660e01b815260040160206040518083038186803b158015612e0657600080fd5b505afa158015612e1a573d6000803e3d6000fd5b505050506040513d601f19601f82011682018060405250810190612e3e9190614797565b33600090815260036020526040902060050154909150818110156118e0576118e0338383613008565b60008054604051631c2d8fb360e31b81527fe8438ea868df48e3fc21f2f087b993c9b1837dc0f6135064161ce7d7a1701fe860048201526001600160a01b039091169063e16c7d98906024015b60206040518083038186803b158015612ecc57600080fd5b505afa1580156120f5573d6000803e3d6000fd5b6000611d378284614805565b6001600160a01b038416600090815260036020908152604080832086845260078101909252909120612f1e8686610c40565b612f665760405162461bcd60e51b81526020600482015260196024820152781a5b9d985b1a59081d5b989bdb991a5b99c81b1bd8dac81251603a1b6044820152606401610840565b80548254612f749082612ee0565b835560008681526007840160205260408120818155600101556002830154612fa7906001600160a01b0316828787613fd0565b600283015460408051888152602081018490526001600160a01b038a81169316917f9f5b64cc71e1e26ff178caaa7877a04d8ce66fde989251870e80e6fbee690c17910160405180910390a350505050505050565b6000611d37828461481d565b6001600160a01b03831660009081526003602052604081209061302c836001612ee0565b82546001840154600285015492935090916001600160a01b031615613106576130558787613ea8565b60028601546001600160a01b031660009081526004602090815260408083208b84526003808201909352922090810154939550919350916130b0578154888110156130ae576130a48382613f6d565b6060015160038301555b505b60048101546130dc57600a820154888110156130da576130d08382613f6d565b6080015160048301555b505b60028601546001600160a01b038a8116911614156131035760006009830181905560088301555b50505b600284015484546001600160a01b03808a169216907fd7eab0765b772ea6ea859d5633baf737502198012e930f257f90013d9b21109490613148908690612ffc565b6001880154613158908690612ffc565b6040805192835260208301919091528101879052606081018a905260800160405180910390a36005840195909555825550600101919091555050565b600054604051631c2d8fb360e31b81527f121833d5ee4fda5e1a4034c2b7be8155c158142541dea26f39122c796649233f60048201526001600160a01b039091169063e16c7d989060240160206040518083038186803b1580156131f757600080fd5b505afa15801561320b573d6000803e3d6000fd5b505050506040513d601f19601f8201168201806040525081019061322f91906147d2565b6001600160a01b0316336001600160a01b031614610d385760405162461bcd60e51b815260206004820152601760248201527f63616c6c6572206d7573742062652056657269666965720000000000000000006044820152606401610840565b6000611d37620f42406132a2858561427f565b9061428b565b604051635d35e00760e01b8152600760048201526001600160a01b038216602482015273__$d23c89be677d40ab24c636937040b6165f$__90635d35e0079060440160006040518083038186803b15801561330257600080fd5b505af4158015613316573d6000803e3d6000fd5b5050505061332f6133268261257b565b60065490612ffc565b60065560006133416001610856612e67565b6001600160a01b0383166000818152600460205260409081902060060183905551919250907ffee3e693fc72d0a0a673805f3e606c551f4c677b9072444b90dd2d0406bc995c906133959084815260200190565b60405180910390a25050565b60008054604051631c2d8fb360e31b81527f6e58ad548d72b425ea94c15f453bf26caddb061d82b2551db7fdd3cefe0e994060048201526001600160a01b039091169063e16c7d9890602401612eb4565b6006546040516304aa129960e41b81526007600482015273__$d23c89be677d40ab24c636937040b6165f$__90634aa129909060240160206040518083038186803b15801561344057600080fd5b505af4158015613454573d6000803e3d6000fd5b505050506040513d601f19601f8201168201806040525081019061347891906147b0565b1561360357604051633972059360e11b81526007600482015260009073__$d23c89be677d40ab24c636937040b6165f$__906372e40b269060240160206040518083038186803b1580156134cb57600080fd5b505af41580156134df573d6000803e3d6000fd5b505050506040513d601f19601f8201168201806040525081019061350391906147d2565b905060006135108261257b565b90508087116135215750505061110a565b604051635d35e00760e01b8152600760048201526001600160a01b038316602482015273__$d23c89be677d40ab24c636937040b6165f$__90635d35e0079060440160006040518083038186803b15801561357b57600080fd5b505af415801561358f573d6000803e3d6000fd5b5050506001600160a01b0383166000908152600460205260409020600601879055506135bb8382612ffc565b9250816001600160a01b03167ffee3e693fc72d0a0a673805f3e606c551f4c677b9072444b90dd2d0406bc995c876040516135f891815260200190565b60405180910390a250505b6040516327dd54d360e11b815273__$d23c89be677d40ab24c636937040b6165f$__90634fbaa9a690613643906007908a908a9089908990600401614834565b60006040518083038186803b15801561365b57600080fd5b505af415801561366f573d6000803e3d6000fd5b505050506136868582612ee090919063ffffffff16565b6001600160a01b03871660009081526004602081815260408084209283018990556005830189905560001960068401558884526003830190915290912087905590915060068290556040518581526001600160a01b038816907f65d72d782835d64c3287844a829608d5abdc7e864cc9affe96d910ab3db665e990602001612082565b600054604051631c2d8fb360e31b81527fbd1aa3e8d2464256d7fd3dcf645c16418d5d8c51d971f1ad7d57e7b1b5eee23960048201526001600160a01b039091169063e16c7d989060240160206040518083038186803b15801561376c57600080fd5b505afa158015613780573d6000803e3d6000fd5b505050506040513d601f19601f820116820180604052508101906137a491906147d2565b6001600160a01b0316336001600160a01b031614610d385760405162461bcd60e51b815260206004820152601b60248201527f63616c6c6572206d757374206265205469636b657442726f6b657200000000006044820152606401610840565b6138366040518060a0016040528060008152602001600081526020016000815260200160008152602001600081525090565b6138408383613f6d565b835460608201519192509015801561385757508281105b15613871576138668482613f6d565b606090810151908301525b600a840154608083015115801561388757508381105b156138a1576138968582613f6d565b608090810151908401525b505092915050565b6000610c386b033b2e3c9fd0803ce80000006132a26138c88686614297565b879061427f565b608082015160608301516000906138f0576138eb600180614297565b6138f6565b83606001515b905084600401546000141561392d5761391e613917828588600001546138a9565b8390612ee0565b85600401819055505050505050565b61391e61393f828588600001546138a9565b600487015490612ee0565b60008054906101000a90046001600160a01b03166001600160a01b0316638da5cb5b6040518163ffffffff1660e01b815260040160206040518083038186803b15801561399657600080fd5b505afa1580156139aa573d6000803e3d6000fd5b505050506040513d601f19601f820116820180604052508101906139ce91906147d2565b6001600160a01b0316336001600160a01b031614610d385760405162461bcd60e51b815260206004820152601f60248201527f63616c6c6572206d75737420626520436f6e74726f6c6c6572206f776e6572006044820152606401610840565b600054604051631c2d8fb360e31b81527fe8438ea868df48e3fc21f2f087b993c9b1837dc0f6135064161ce7d7a1701fe860048201526001600160a01b039091169063e16c7d989060240160206040518083038186803b158015613a9157600080fd5b505afa158015613aa5573d6000803e3d6000fd5b505050506040513d601f19601f82011682018060405250810190613ac991906147d2565b6001600160a01b0316336001600160a01b031614610d385760405162461bcd60e51b815260206004820152601c60248201527f63616c6c6572206d75737420626520526f756e64734d616e61676572000000006044820152606401610840565b6001600160a01b0385166000908152600460209081526040808320868452600381019092528220815491929091613b61908490613f6d565b9050826008015483600701819055506000613b8088846001015461328f565b90506000613b8e8983612ffc565b90506000613ba582876007015487600001546138a9565b9050613bc2836108c6838960080154612ee090919063ffffffff16565b6008870155613bd28585846142b3565b613bde8b8b8a8a613fd0565b5050505050505050505050565b6000546001600160a01b03163314610d385760405162461bcd60e51b815260206004820152601960248201527f63616c6c6572206d75737420626520436f6e74726f6c6c6572000000000000006044820152606401610840565b60405163b0138c4760e01b8152600760048201526001600160a01b038516602482015273__$d23c89be677d40ab24c636937040b6165f$__9063b0138c479060440160206040518083038186803b158015613c9f57600080fd5b505af4158015613cb3573d6000803e3d6000fd5b505050506040513d601f19601f82011682018060405250810190613cd791906147b0565b15613e5b576000613ce78561257b565b90506000613cf58286612ffc565b90506000613d01612e67565b6001600160a01b0316638a19c8bc6040518163ffffffff1660e01b815260040160206040518083038186803b158015613d3957600080fd5b505afa158015613d4d573d6000803e3d6000fd5b505050506040513d601f19601f82011682018060405250810190613d719190614797565b90506000613d80826001612ee0565b604051631c11bf7f60e11b815290915073__$d23c89be677d40ab24c636937040b6165f$__906338237efe90613dc3906007908c9088908c908c90600401614834565b60006040518083038186803b158015613ddb57600080fd5b505af4158015613def573d6000803e3d6000fd5b5050600654613e019250905088612ffc565b6006556001600160a01b038816600090815260046020819052604090912090810154831115613e3e57600083815260038201602052604090208590555b600481018290556000918252600301602052604090209190915550505b6001600160a01b03841660009081526003602081905260409091200154613e829084612ffc565b6001600160a01b0390941660009081526003602081905260409091200193909355505050565b6001600160a01b03808316600090815260036020908152604080832060028101549094168352600490915281206001808401548454600586015490959194919392613ef39190612ee0565b60028401549091506001600160a01b039081169088168114878311613f2f57613f2984613f21856001612ffc565b8a8a8a614301565b90975095505b8015613f61576008840154613f45908890612ee0565b9650613f5e846009015487612ee090919063ffffffff16565b95505b50505050509250929050565b613f9f6040518060a0016040528060008152602001600081526020016000815260200160008152602001600081525090565b6000828152600393840160208181526040832095860154606085015293909152909152600490910154608082015290565b613fd984611d06565b15614207576000613fe98561257b565b90506000613ff78286612ee0565b90506000614003612e67565b6001600160a01b0316638a19c8bc6040518163ffffffff1660e01b815260040160206040518083038186803b15801561403b57600080fd5b505afa15801561404f573d6000803e3d6000fd5b505050506040513d601f19601f820116820180604052508101906140739190614797565b90506000614082826001612ee0565b60405163b0138c4760e01b8152600760048201526001600160a01b038a16602482015290915073__$d23c89be677d40ab24c636937040b6165f$__9063b0138c479060440160206040518083038186803b1580156140df57600080fd5b505af41580156140f3573d6000803e3d6000fd5b505050506040513d601f19601f8201168201806040525081019061411791906147b0565b156141f557604051631c11bf7f60e11b815273__$d23c89be677d40ab24c636937040b6165f$__906338237efe9061415c906007908c9088908c908c90600401614834565b60006040518083038186803b15801561417457600080fd5b505af4158015614188573d6000803e3d6000fd5b505060065461419a9250905088612ee0565b6006556001600160a01b0388166000908152600460208190526040909120908101548311156141d757600083815260038201602052604090208590555b60008281526003820160205260409020849055600401819055614202565b61420288848389896133f2565b505050505b6001600160a01b03841660009081526003602081905260409091200154613e829084612ee0565b60008054604051631c2d8fb360e31b81527f3443e257065fe41dd0e4d1f5a1b73a22a62e300962b57f30cddf41d0f8273ba760048201526001600160a01b039091169063e16c7d9890602401612eb4565b6000611d378284614862565b6000611d378284614881565b6000611d37826132a2856b033b2e3c9fd0803ce800000061427f565b60008260600151600014156142d2576142cd600180614297565b6142d8565b82606001515b90506142f36142ec828487600001546138a9565b8290612ee0565b846003018190555050505050565b60008060006143108888613f6d565b90508060600151600014156143305761432a600180614297565b60608201525b600061433c8988613804565b905080606001516000141561435c57614356600180614297565b60608201525b61438f6143888761437e85608001518560800151612ffc90919063ffffffff16565b85606001516138a9565b8690612ee0565b92506143a486826060015184606001516138a9565b935050509550959350505050565b6001600160a01b03811681146111c457600080fd5b600080600080608085870312156143dd57600080fd5b84356143e8816143b2565b93506020850135925060408501356143ff816143b2565b9150606085013561440f816143b2565b939692955090935050565b60008060008060008060c0878903121561443357600080fd5b863561443e816143b2565b9550602087013594506040870135614455816143b2565b93506060870135614465816143b2565b92506080870135614475816143b2565b915060a0870135614485816143b2565b809150509295509295509295565b6000602082840312156144a557600080fd5b8135611d37816143b2565b600080604083850312156144c357600080fd5b82356144ce816143b2565b946020939093013593505050565b634e487b7160e01b600052602160045260246000fd5b6020810160038310614506576145066144dc565b91905290565b6000806000806080858703121561452257600080fd5b843561452d816143b2565b9350602085013561453d816143b2565b93969395505050506040820135916060013590565b60006020828403121561456457600080fd5b5035919050565b6000806000806080858703121561458157600080fd5b843593506020850135925060408501356143ff816143b2565b6000806000606084860312156145af57600080fd5b83356145ba816143b2565b95602085013595506040909401359392505050565b600080604083850312156145e257600080fd5b50508035926020909101359150565b60008060008060008060c0878903121561460a57600080fd5b86359550602087013561461c816143b2565b94506040870135614455816143b2565b60008060006060848603121561464157600080fd5b833592506020840135614653816143b2565b91506040840135614663816143b2565b809150509250925092565b6000806040838503121561468157600080fd5b823561468c816143b2565b9150602083013561469c816143b2565b809150509250929050565b6020810160028310614506576145066144dc565b600080604083850312156146ce57600080fd5b82359150602083013561469c816143b2565b600080600080600080600060e0888a0312156146fb57600080fd5b87359650602088013561470d816143b2565b9550604088013561471d816143b2565b9450606088013561472d816143b2565b9350608088013561473d816143b2565b925060a088013561474d816143b2565b915060c088013561475d816143b2565b8091505092959891949750929550565b60006020828403121561477f57600080fd5b813567ffffffffffffffff81168114611d3757600080fd5b6000602082840312156147a957600080fd5b5051919050565b6000602082840312156147c257600080fd5b81518015158114611d3757600080fd5b6000602082840312156147e457600080fd5b8151611d37816143b2565b634e487b7160e01b600052601160045260246000fd5b60008219821115614818576148186147ef565b500190565b60008282101561482f5761482f6147ef565b500390565b9485526001600160a01b03938416602086015260408501929092528216606084015216608082015260a00190565b600081600019048311821515161561487c5761487c6147ef565b500290565b60008261489e57634e487b7160e01b600052601260045260246000fd5b50049056fea264697066735822122084ef728ebfb0333127dbaf5c1958d15f6c7667ad0536c0afa147b43b535ef28b64736f6c63430008090033",
  "libraries": {
    "SortedDoublyLL": "0xC45f6918F7Bcac7aBc8fe05302b3cDF39776cdeb"
  },
  "devdoc": {
    "kind": "dev",
    "methods": {
      "bond(uint256,address)": {
        "params": {
          "_amount": "The amount of tokens to stake",
          "_to": "The address of the transcoder to stake towards"
        }
      },
      "bondForWithHint(uint256,address,address,address,address,address,address)": {
        "details": "If the caller is decreasing the stake of its old delegate in the transcoder pool, the caller can provide an optional hint for the insertion position of the old delegate via the `_oldDelegateNewPosPrev` and `_oldDelegateNewPosNext` params. If the caller is delegating to a delegate that is in the transcoder pool, the caller can provide an optional hint for the insertion position of the delegate via the `_currDelegateNewPosPrev` and `_currDelegateNewPosNext` params. In both cases, a linear search will be executed starting at the hint to find the correct position. In the best case, the hint is the correct position so no search is executed. See SortedDoublyLL.sol for details on list hints",
        "params": {
          "_amount": "The amount of tokens to stake.",
          "_currDelegateNewPosNext": "The address of the next transcoder in the pool for the current delegate",
          "_currDelegateNewPosPrev": "The address of the previous transcoder in the pool for the current delegate",
          "_oldDelegateNewPosNext": "The address of the next transcoder in the pool for the old delegate",
          "_oldDelegateNewPosPrev": "The address of the previous transcoder in the pool for the old delegate",
          "_owner": "The address of the owner of the bond",
          "_to": "The address of the transcoder to stake towards"
        }
      },
      "bondWithHint(uint256,address,address,address,address,address)": {
        "details": "If the caller is decreasing the stake of its old delegate in the transcoder pool, the caller can provide an optional hint for the insertion position of the old delegate via the `_oldDelegateNewPosPrev` and `_oldDelegateNewPosNext` params. If the caller is delegating to a delegate that is in the transcoder pool, the caller can provide an optional hint for the insertion position of the delegate via the `_currDelegateNewPosPrev` and `_currDelegateNewPosNext` params. In both cases, a linear search will be executed starting at the hint to find the correct position. In the best case, the hint is the correct position so no search is executed. See SortedDoublyLL.sol for details on list hints",
        "params": {
          "_amount": "The amount of tokens to stake.",
          "_currDelegateNewPosNext": "The address of the next transcoder in the pool for the current delegate",
          "_currDelegateNewPosPrev": "The address of the previous transcoder in the pool for the current delegate",
          "_oldDelegateNewPosNext": "The address of the next transcoder in the pool for the old delegate",
          "_oldDelegateNewPosPrev": "The address of the previous transcoder in the pool for the old delegate",
          "_to": "The address of the transcoder to stake towards"
        }
      },
      "claimEarnings(uint256)": {
        "params": {
          "_endRound": "The last round for which to claim token pools shares for a delegator"
        }
      },
      "constructor": {
        "details": "This constructor will not initialize any state variables besides `controller`. The following setter functions should be used to initialize state variables post-deployment: - setUnbondingPeriod() - setNumActiveTranscoders() - setMaxEarningsClaimsRounds()",
        "params": {
          "_controller": "Address of Controller that this contract will be registered with"
        }
      },
      "delegatorStatus(address)": {
        "params": {
          "_delegator": "Address of delegator"
        },
        "returns": {
          "_0": "bonded, unbonded or pending delegator status"
        }
      },
      "getDelegator(address)": {
        "params": {
          "_delegator": "Address of delegator"
        },
        "returns": {
          "bondedAmount": "total amount bonded by '_delegator'",
          "delegateAddress": "address '_delegator' has bonded to",
          "delegatedAmount": "total amount delegated to '_delegator'",
          "fees": "amount of fees collected by '_delegator'",
          "lastClaimRound": "round for which '_delegator' has last claimed earnings",
          "nextUnbondingLockId": "ID for the next unbonding lock created for '_delegator'",
          "startRound": "round in which bond for '_delegator' became effective"
        }
      },
      "getDelegatorUnbondingLock(address,uint256)": {
        "params": {
          "_delegator": "Address of delegator",
          "_unbondingLockId": "ID of unbonding lock"
        },
        "returns": {
          "amount": "of stake locked up by unbonding lock",
          "withdrawRound": "round in which 'amount' becomes available for withdrawal"
        }
      },
      "getFirstTranscoderInPool()": {
        "returns": {
          "_0": "address for transcoder with highest stake in transcoder pool"
        }
      },
      "getNextTranscoderInPool(address)": {
        "params": {
          "_transcoder": "Address of a transcoder in the pool"
        },
        "returns": {
          "_0": "address for the transcoder after '_transcoder' in transcoder pool"
        }
      },
      "getTotalBonded()": {
        "returns": {
          "_0": "total active stake for the current round"
        }
      },
      "getTranscoder(address)": {
        "params": {
          "_transcoder": "Address of transcoder"
        },
        "returns": {
          "activationRound": "Round in which transcoder became active",
          "activeCumulativeRewards": "Transcoder's cumulative rewards that are currently active",
          "cumulativeFees": "Transcoder's cumulative fees (earned via its active staked rewards and its fee share)",
          "cumulativeRewards": "Transcoder's cumulative rewards (earned via its active staked rewards and its reward cut)",
          "deactivationRound": "Round in which transcoder will no longer be active",
          "feeShare": "Transcoder's fee share",
          "lastActiveStakeUpdateRound": "Round in which transcoder's stake was last updated while active",
          "lastFeeRound": "Latest round that the transcoder received fees",
          "lastRewardRound": "Trancoder's last reward round",
          "rewardCut": "Transcoder's reward cut"
        }
      },
      "getTranscoderEarningsPoolForRound(address,uint256)": {
        "params": {
          "_round": "Round number",
          "_transcoder": "Address of transcoder"
        },
        "returns": {
          "cumulativeFeeFactor": "The cumulative fee factor for delegator fees calculation (only used after LIP-36)",
          "cumulativeRewardFactor": "The cumulative reward factor for delegator rewards calculation (only used after LIP-36)",
          "totalStake": "Transcoder's total stake in '_round'",
          "transcoderFeeShare": "Transcoder's fee share for '_round'",
          "transcoderRewardCut": "Transcoder's reward cut for '_round'"
        }
      },
      "getTranscoderPoolMaxSize()": {
        "returns": {
          "_0": "transcoder pool max size"
        }
      },
      "getTranscoderPoolSize()": {
        "returns": {
          "_0": "transcoder pool current size"
        }
      },
      "isActiveTranscoder(address)": {
        "params": {
          "_transcoder": "Transcoder address"
        },
        "returns": {
          "_0": "true if transcoder is active"
        }
      },
      "isRegisteredTranscoder(address)": {
        "params": {
          "_transcoder": "Transcoder address"
        },
        "returns": {
          "_0": "true if transcoder is self-bonded"
        }
      },
      "isValidUnbondingLock(address,uint256)": {
        "params": {
          "_delegator": "Address of delegator",
          "_unbondingLockId": "ID of unbonding lock"
        },
        "returns": {
          "_0": "true if unbondingLock for ID has a non-zero withdraw round"
        }
      },
      "pendingFees(address,uint256)": {
        "params": {
          "_delegator": "Address of delegator",
          "_endRound": "The last round to compute pending fees from"
        },
        "returns": {
          "_0": "Pending fees for '_delegator' since last claiming fees"
        }
      },
      "pendingStake(address,uint256)": {
        "params": {
          "_delegator": "Address of delegator",
          "_endRound": "The last round to compute pending stake from"
        },
        "returns": {
          "_0": "Pending bonded stake for '_delegator' since last claiming rewards"
        }
      },
      "rebond(uint256)": {
        "params": {
          "_unbondingLockId": "ID of unbonding lock to rebond with"
        }
      },
      "rebondFromUnbonded(address,uint256)": {
        "params": {
          "_to": "Address of delegate",
          "_unbondingLockId": "ID of unbonding lock to rebond with"
        }
      },
      "rebondFromUnbondedWithHint(address,uint256,address,address)": {
        "details": "If the delegate joins the transcoder pool, the caller can provide an optional hint for the delegate's insertion position in the pool via the `_newPosPrev` and `_newPosNext` params. A linear search will be executed starting at the hint to find the correct position. In the best case, the hint is the correct position so no search is executed. See SortedDoublyLL.sol for details on list hints",
        "params": {
          "_newPosNext": "Address of next transcoder in pool if the delegate joins the pool",
          "_newPosPrev": "Address of previous transcoder in pool if the delegate joins the pool",
          "_to": "Address of delegate",
          "_unbondingLockId": "ID of unbonding lock to rebond with"
        }
      },
      "rebondWithHint(uint256,address,address)": {
        "details": "If the delegate is in the transcoder pool, the caller can provide an optional hint for the delegate's insertion position in the pool via the `_newPosPrev` and `_newPosNext` params. A linear search will be executed starting at the hint to find the correct position. In the best case, the hint is the correct position so no search is executed. See SortedDoublyLL.sol details on list hints",
        "params": {
          "_newPosNext": "Address of next transcoder in pool if the delegate is in the pool",
          "_newPosPrev": "Address of previous transcoder in pool if the delegate is in the pool",
          "_unbondingLockId": "ID of unbonding lock to rebond with"
        }
      },
      "rewardWithHint(address,address)": {
        "details": "If the caller is in the transcoder pool, the caller can provide an optional hint for its insertion position in the pool via the `_newPosPrev` and `_newPosNext` params. A linear search will be executed starting at the hint to find the correct position. In the best case, the hint is the correct position so no search is executed. See SortedDoublyLL.sol for details on list hints",
        "params": {
          "_newPosNext": "Address of next transcoder in pool if the caller is in the pool",
          "_newPosPrev": "Address of previous transcoder in pool if the caller is in the pool"
        }
      },
      "setController(address)": {
        "params": {
          "_controller": "Controller contract address"
        }
      },
      "setNumActiveTranscoders(uint256)": {
        "params": {
          "_numActiveTranscoders": "Number of active transcoders"
        }
      },
      "setUnbondingPeriod(uint64)": {
        "params": {
          "_unbondingPeriod": "Rounds between unbonding and possible withdrawal"
        }
      },
      "slashTranscoder(address,address,uint256,uint256)": {
        "params": {
          "_finder": "Finder that proved a transcoder violated a slashing condition. Null address if there is no finder",
          "_finderFee": "Percentage of penalty awarded to finder. Zero if there is no finder",
          "_slashAmount": "Percentage of transcoder bond to be slashed",
          "_transcoder": "Transcoder address"
        }
      },
      "transcoder(uint256,uint256)": {
        "details": "Percentages are represented as numerators of fractions over MathUtils.PERC_DIVISOR",
        "params": {
          "_feeShare": "% of fees paid to delegators by a transcoder",
          "_rewardCut": "% of reward paid to transcoder by a delegator"
        }
      },
      "transcoderStatus(address)": {
        "params": {
          "_transcoder": "Address of transcoder"
        },
        "returns": {
          "_0": "registered or not registered transcoder status"
        }
      },
      "transcoderTotalStake(address)": {
        "params": {
          "_transcoder": "Address of transcoder"
        },
        "returns": {
          "_0": "total bonded stake for a delegator"
        }
      },
      "transcoderWithHint(uint256,uint256,address,address)": {
        "details": "Percentages are represented as numerators of fractions over MathUtils.PERC_DIVISOR. If the caller is going to be added to the pool, the caller can provide an optional hint for the insertion position in the pool via the `_newPosPrev` and `_newPosNext` params. A linear search will be executed starting at the hint to find the correct position - in the best case, the hint is the correct position so no search is executed. See SortedDoublyLL.sol for details on list hints",
        "params": {
          "_feeShare": "% of fees paid to delegators by a transcoder",
          "_newPosNext": "Address of next transcoder in pool if the caller joins the pool",
          "_newPosPrev": "Address of previous transcoder in pool if the caller joins the pool",
          "_rewardCut": "% of reward paid to transcoder by a delegator"
        }
      },
      "transferBond(address,uint256,address,address,address,address)": {
        "details": "If the original delegate is in the transcoder pool, the caller can provide an optional hint for the insertion position of the delegate via the `_oldDelegateNewPosPrev` and `_oldDelegateNewPosNext` params. If the target delegate is in the transcoder pool, the caller can provide an optional hint for the insertion position of the delegate via the `_newDelegateNewPosPrev` and `_newDelegateNewPosNext` params. In both cases, a linear search will be executed starting at the hint to find the correct position. In the best case, the hint is the correct position so no search is executed. See SortedDoublyLL.sol for details on list hints",
        "params": {
          "_amount": "Portion of the bond to transfer to receiver",
          "_delegator": "Receiver of the bond",
          "_newDelegateNewPosNext": "Address of next transcoder in pool if the delegate is in the pool",
          "_newDelegateNewPosPrev": "Address of previous transcoder in pool if the delegate is in the pool",
          "_oldDelegateNewPosNext": "Address of next transcoder in pool if the delegate remains in the pool",
          "_oldDelegateNewPosPrev": "Address of previous transcoder in pool if the delegate remains in the pool"
        }
      },
      "unbond(uint256)": {
        "params": {
          "_amount": "Amount of tokens to unbond"
        }
      },
      "unbondWithHint(uint256,address,address)": {
        "details": "If the caller remains in the transcoder pool, the caller can provide an optional hint for its insertion position in the pool via the `_newPosPrev` and `_newPosNext` params. A linear search will be executed starting at the hint to find the correct position. In the best case, the hint is the correct position so no search is executed. See SortedDoublyLL.sol details on list hints",
        "params": {
          "_amount": "Amount of tokens to unbond",
          "_newPosNext": "Address of next transcoder in pool if the caller remains in the pool",
          "_newPosPrev": "Address of previous transcoder in pool if the caller remains in the pool"
        }
      },
      "updateTranscoderWithFees(address,uint256,uint256)": {
        "params": {
          "_fees": "Fees to be added to the fee pool",
          "_transcoder": "Transcoder address"
        }
      },
      "withdrawStake(uint256)": {
        "params": {
          "_unbondingLockId": "ID of unbonding lock to withdraw with"
        }
      }
    },
    "title": "BondingManager",
    "version": 1
  },
  "userdoc": {
    "kind": "user",
    "methods": {
      "bond(uint256,address)": {
        "notice": "Delegate stake towards a specific address"
      },
      "bondForWithHint(uint256,address,address,address,address,address,address)": {
        "notice": "Delegates stake \"on behalf of\" another address towards a specific address and updates the transcoder pool using optional list hints if needed"
      },
      "bondWithHint(uint256,address,address,address,address,address)": {
        "notice": "Delegates stake towards a specific address and updates the transcoder pool using optional list hints if needed"
      },
      "claimEarnings(uint256)": {
        "notice": "Claim token pools shares for a delegator from its lastClaimRound through the end round"
      },
      "constructor": {
        "notice": "BondingManager constructor. Only invokes constructor of base Manager contract with provided Controller address"
      },
      "delegatorStatus(address)": {
        "notice": "Computes delegator status"
      },
      "getDelegator(address)": {
        "notice": "Return delegator info"
      },
      "getDelegatorUnbondingLock(address,uint256)": {
        "notice": "Return delegator's unbonding lock info"
      },
      "getFirstTranscoderInPool()": {
        "notice": "Returns transcoder with most stake in pool"
      },
      "getNextTranscoderInPool(address)": {
        "notice": "Returns next transcoder in pool for a given transcoder"
      },
      "getTotalBonded()": {
        "notice": "Return total bonded tokens"
      },
      "getTranscoder(address)": {
        "notice": "Return transcoder information"
      },
      "getTranscoderEarningsPoolForRound(address,uint256)": {
        "notice": "Return transcoder's earnings pool for a given round"
      },
      "getTranscoderPoolMaxSize()": {
        "notice": "Returns max size of transcoder pool"
      },
      "getTranscoderPoolSize()": {
        "notice": "Returns size of transcoder pool"
      },
      "isActiveTranscoder(address)": {
        "notice": "Return whether a transcoder is active for the current round"
      },
      "isRegisteredTranscoder(address)": {
        "notice": "Return whether a transcoder is registered"
      },
      "isValidUnbondingLock(address,uint256)": {
        "notice": "Return whether an unbonding lock for a delegator is valid"
      },
      "pendingFees(address,uint256)": {
        "notice": "Returns pending fees for a delegator from its lastClaimRound through an end round"
      },
      "pendingStake(address,uint256)": {
        "notice": "Returns pending bonded stake for a delegator from its lastClaimRound through an end round"
      },
      "rebond(uint256)": {
        "notice": "Rebond tokens for an unbonding lock to a delegator's current delegate while a delegator is in the Bonded or Pending status"
      },
      "rebondFromUnbonded(address,uint256)": {
        "notice": "Rebond tokens for an unbonding lock to a delegate while a delegator is in the Unbonded status"
      },
      "rebondFromUnbondedWithHint(address,uint256,address,address)": {
        "notice": "Rebond tokens for an unbonding lock to a delegate while a delegator is in the Unbonded status and updates the transcoder pool using an optional list hint if needed"
      },
      "rebondWithHint(uint256,address,address)": {
        "notice": "Rebond tokens for an unbonding lock to a delegator's current delegate while a delegator is in the Bonded or Pending status and updates the transcoder pool using an optional list hint if needed"
      },
      "reward()": {
        "notice": "Mint token rewards for an active transcoder and its delegators"
      },
      "rewardWithHint(address,address)": {
        "notice": "Mint token rewards for an active transcoder and its delegators and update the transcoder pool using an optional list hint if needed"
      },
      "setController(address)": {
        "notice": "Set controller. Only callable by current controller"
      },
      "setCurrentRoundTotalActiveStake()": {
        "notice": "Called during round initialization to set the total active stake for the round. Only callable by the RoundsManager"
      },
      "setNumActiveTranscoders(uint256)": {
        "notice": "Set maximum number of active transcoders. Only callable by Controller owner"
      },
      "setUnbondingPeriod(uint64)": {
        "notice": "Set unbonding period. Only callable by Controller owner"
      },
      "slashTranscoder(address,address,uint256,uint256)": {
        "notice": "Slash a transcoder. Only callable by the Verifier"
      },
      "transcoder(uint256,uint256)": {
        "notice": "Sets commission rates as a transcoder and if the caller is not in the transcoder pool tries to add it"
      },
      "transcoderStatus(address)": {
        "notice": "Computes transcoder status"
      },
      "transcoderTotalStake(address)": {
        "notice": "Returns total bonded stake for a transcoder"
      },
      "transcoderWithHint(uint256,uint256,address,address)": {
        "notice": "Sets commission rates as a transcoder and if the caller is not in the transcoder pool tries to add it using an optional list hint"
      },
      "transferBond(address,uint256,address,address,address,address)": {
        "notice": "Transfers ownership of a bond to a new delegator using optional hints if needed If the receiver is already bonded to a different delegate than the bond owner then the stake goes to the receiver's delegate otherwise the receiver's delegate is set as the owner's delegate"
      },
      "unbond(uint256)": {
        "notice": "Unbond an amount of the delegator's bonded stake"
      },
      "unbondWithHint(uint256,address,address)": {
        "notice": "Unbond an amount of the delegator's bonded stake and updates the transcoder pool using an optional list hint if needed"
      },
      "updateTranscoderWithFees(address,uint256,uint256)": {
        "notice": "Update transcoder's fee pool. Only callable by the TicketBroker"
      },
      "withdrawFees(address,uint256)": {
        "notice": "Withdraws fees to the caller"
      },
      "withdrawStake(uint256)": {
        "notice": "Withdraws tokens for an unbonding lock that has existed through an unbonding period"
      }
    },
    "notice": "Manages bonding, transcoder and rewards/fee accounting related operations of the Livepeer protocol",
    "version": 1
  },
  "storageLayout": {
    "storage": [
      {
        "astId": 2670,
        "contract": "contracts/bonding/BondingManager.sol:BondingManager",
        "label": "controller",
        "offset": 0,
        "slot": "0",
        "type": "t_contract(IController)2645"
      },
      {
        "astId": 2852,
        "contract": "contracts/bonding/BondingManager.sol:BondingManager",
        "label": "targetContractId",
        "offset": 0,
        "slot": "1",
        "type": "t_bytes32"
      },
      {
        "astId": 2962,
        "contract": "contracts/bonding/BondingManager.sol:BondingManager",
        "label": "unbondingPeriod",
        "offset": 0,
        "slot": "2",
        "type": "t_uint64"
      },
      {
        "astId": 3025,
        "contract": "contracts/bonding/BondingManager.sol:BondingManager",
        "label": "delegators",
        "offset": 0,
        "slot": "3",
        "type": "t_mapping(t_address,t_struct(Delegator)3011_storage)"
      },
      {
        "astId": 3030,
        "contract": "contracts/bonding/BondingManager.sol:BondingManager",
        "label": "transcoders",
        "offset": 0,
        "slot": "4",
        "type": "t_mapping(t_address,t_struct(Transcoder)2988_storage)"
      },
      {
        "astId": 3032,
        "contract": "contracts/bonding/BondingManager.sol:BondingManager",
        "label": "currentRoundTotalActiveStake",
        "offset": 0,
        "slot": "5",
        "type": "t_uint256"
      },
      {
        "astId": 3034,
        "contract": "contracts/bonding/BondingManager.sol:BondingManager",
        "label": "nextRoundTotalActiveStake",
        "offset": 0,
        "slot": "6",
        "type": "t_uint256"
      },
      {
        "astId": 3037,
        "contract": "contracts/bonding/BondingManager.sol:BondingManager",
        "label": "transcoderPool",
        "offset": 0,
        "slot": "7",
        "type": "t_struct(Data)7357_storage"
      }
    ],
    "types": {
      "t_address": {
        "encoding": "inplace",
        "label": "address",
        "numberOfBytes": "20"
      },
      "t_bytes32": {
        "encoding": "inplace",
        "label": "bytes32",
        "numberOfBytes": "32"
      },
      "t_contract(IController)2645": {
        "encoding": "inplace",
        "label": "contract IController",
        "numberOfBytes": "20"
      },
      "t_mapping(t_address,t_struct(Delegator)3011_storage)": {
        "encoding": "mapping",
        "key": "t_address",
        "label": "mapping(address => struct BondingManager.Delegator)",
        "numberOfBytes": "32",
        "value": "t_struct(Delegator)3011_storage"
      },
      "t_mapping(t_address,t_struct(Node)7343_storage)": {
        "encoding": "mapping",
        "key": "t_address",
        "label": "mapping(address => struct SortedDoublyLL.Node)",
        "numberOfBytes": "32",
        "value": "t_struct(Node)7343_storage"
      },
      "t_mapping(t_address,t_struct(Transcoder)2988_storage)": {
        "encoding": "mapping",
        "key": "t_address",
        "label": "mapping(address => struct BondingManager.Transcoder)",
        "numberOfBytes": "32",
        "value": "t_struct(Transcoder)2988_storage"
      },
      "t_mapping(t_uint256,t_struct(Data)6607_storage)": {
        "encoding": "mapping",
        "key": "t_uint256",
        "label": "mapping(uint256 => struct EarningsPool.Data)",
        "numberOfBytes": "32",
        "value": "t_struct(Data)6607_storage"
      },
      "t_mapping(t_uint256,t_struct(UnbondingLock)3020_storage)": {
        "encoding": "mapping",
        "key": "t_uint256",
        "label": "mapping(uint256 => struct BondingManager.UnbondingLock)",
        "numberOfBytes": "32",
        "value": "t_struct(UnbondingLock)3020_storage"
      },
      "t_struct(Data)6607_storage": {
        "encoding": "inplace",
        "label": "struct EarningsPool.Data",
        "members": [
          {
            "astId": 6598,
            "contract": "contracts/bonding/BondingManager.sol:BondingManager",
            "label": "totalStake",
            "offset": 0,
            "slot": "0",
            "type": "t_uint256"
          },
          {
            "astId": 6600,
            "contract": "contracts/bonding/BondingManager.sol:BondingManager",
            "label": "transcoderRewardCut",
            "offset": 0,
            "slot": "1",
            "type": "t_uint256"
          },
          {
            "astId": 6602,
            "contract": "contracts/bonding/BondingManager.sol:BondingManager",
            "label": "transcoderFeeShare",
            "offset": 0,
            "slot": "2",
            "type": "t_uint256"
          },
          {
            "astId": 6604,
            "contract": "contracts/bonding/BondingManager.sol:BondingManager",
            "label": "cumulativeRewardFactor",
            "offset": 0,
            "slot": "3",
            "type": "t_uint256"
          },
          {
            "astId": 6606,
            "contract": "contracts/bonding/BondingManager.sol:BondingManager",
            "label": "cumulativeFeeFactor",
            "offset": 0,
            "slot": "4",
            "type": "t_uint256"
          }
        ],
        "numberOfBytes": "160"
      },
      "t_struct(Data)7357_storage": {
        "encoding": "inplace",
        "label": "struct SortedDoublyLL.Data",
        "members": [
          {
            "astId": 7345,
            "contract": "contracts/bonding/BondingManager.sol:BondingManager",
            "label": "head",
            "offset": 0,
            "slot": "0",
            "type": "t_address"
          },
          {
            "astId": 7347,
            "contract": "contracts/bonding/BondingManager.sol:BondingManager",
            "label": "tail",
            "offset": 0,
            "slot": "1",
            "type": "t_address"
          },
          {
            "astId": 7349,
            "contract": "contracts/bonding/BondingManager.sol:BondingManager",
            "label": "maxSize",
            "offset": 0,
            "slot": "2",
            "type": "t_uint256"
          },
          {
            "astId": 7351,
            "contract": "contracts/bonding/BondingManager.sol:BondingManager",
            "label": "size",
            "offset": 0,
            "slot": "3",
            "type": "t_uint256"
          },
          {
            "astId": 7356,
            "contract": "contracts/bonding/BondingManager.sol:BondingManager",
            "label": "nodes",
            "offset": 0,
            "slot": "4",
            "type": "t_mapping(t_address,t_struct(Node)7343_storage)"
          }
        ],
        "numberOfBytes": "160"
      },
      "t_struct(Delegator)3011_storage": {
        "encoding": "inplace",
        "label": "struct BondingManager.Delegator",
        "members": [
          {
            "astId": 2993,
            "contract": "contracts/bonding/BondingManager.sol:BondingManager",
            "label": "bondedAmount",
            "offset": 0,
            "slot": "0",
            "type": "t_uint256"
          },
          {
            "astId": 2995,
            "contract": "contracts/bonding/BondingManager.sol:BondingManager",
            "label": "fees",
            "offset": 0,
            "slot": "1",
            "type": "t_uint256"
          },
          {
            "astId": 2997,
            "contract": "contracts/bonding/BondingManager.sol:BondingManager",
            "label": "delegateAddress",
            "offset": 0,
            "slot": "2",
            "type": "t_address"
          },
          {
            "astId": 2999,
            "contract": "contracts/bonding/BondingManager.sol:BondingManager",
            "label": "delegatedAmount",
            "offset": 0,
            "slot": "3",
            "type": "t_uint256"
          },
          {
            "astId": 3001,
            "contract": "contracts/bonding/BondingManager.sol:BondingManager",
            "label": "startRound",
            "offset": 0,
            "slot": "4",
            "type": "t_uint256"
          },
          {
            "astId": 3003,
            "contract": "contracts/bonding/BondingManager.sol:BondingManager",
            "label": "lastClaimRound",
            "offset": 0,
            "slot": "5",
            "type": "t_uint256"
          },
          {
            "astId": 3005,
            "contract": "contracts/bonding/BondingManager.sol:BondingManager",
            "label": "nextUnbondingLockId",
            "offset": 0,
            "slot": "6",
            "type": "t_uint256"
          },
          {
            "astId": 3010,
            "contract": "contracts/bonding/BondingManager.sol:BondingManager",
            "label": "unbondingLocks",
            "offset": 0,
            "slot": "7",
            "type": "t_mapping(t_uint256,t_struct(UnbondingLock)3020_storage)"
          }
        ],
        "numberOfBytes": "256"
      },
      "t_struct(Node)7343_storage": {
        "encoding": "inplace",
        "label": "struct SortedDoublyLL.Node",
        "members": [
          {
            "astId": 7338,
            "contract": "contracts/bonding/BondingManager.sol:BondingManager",
            "label": "key",
            "offset": 0,
            "slot": "0",
            "type": "t_uint256"
          },
          {
            "astId": 7340,
            "contract": "contracts/bonding/BondingManager.sol:BondingManager",
            "label": "nextId",
            "offset": 0,
            "slot": "1",
            "type": "t_address"
          },
          {
            "astId": 7342,
            "contract": "contracts/bonding/BondingManager.sol:BondingManager",
            "label": "prevId",
            "offset": 0,
            "slot": "2",
            "type": "t_address"
          }
        ],
        "numberOfBytes": "96"
      },
      "t_struct(Transcoder)2988_storage": {
        "encoding": "inplace",
        "label": "struct BondingManager.Transcoder",
        "members": [
          {
            "astId": 2964,
            "contract": "contracts/bonding/BondingManager.sol:BondingManager",
            "label": "lastRewardRound",
            "offset": 0,
            "slot": "0",
            "type": "t_uint256"
          },
          {
            "astId": 2966,
            "contract": "contracts/bonding/BondingManager.sol:BondingManager",
            "label": "rewardCut",
            "offset": 0,
            "slot": "1",
            "type": "t_uint256"
          },
          {
            "astId": 2968,
            "contract": "contracts/bonding/BondingManager.sol:BondingManager",
            "label": "feeShare",
            "offset": 0,
            "slot": "2",
            "type": "t_uint256"
          },
          {
            "astId": 2973,
            "contract": "contracts/bonding/BondingManager.sol:BondingManager",
            "label": "earningsPoolPerRound",
            "offset": 0,
            "slot": "3",
            "type": "t_mapping(t_uint256,t_struct(Data)6607_storage)"
          },
          {
            "astId": 2975,
            "contract": "contracts/bonding/BondingManager.sol:BondingManager",
            "label": "lastActiveStakeUpdateRound",
            "offset": 0,
            "slot": "4",
            "type": "t_uint256"
          },
          {
            "astId": 2977,
            "contract": "contracts/bonding/BondingManager.sol:BondingManager",
            "label": "activationRound",
            "offset": 0,
            "slot": "5",
            "type": "t_uint256"
          },
          {
            "astId": 2979,
            "contract": "contracts/bonding/BondingManager.sol:BondingManager",
            "label": "deactivationRound",
            "offset": 0,
            "slot": "6",
            "type": "t_uint256"
          },
          {
            "astId": 2981,
            "contract": "contracts/bonding/BondingManager.sol:BondingManager",
            "label": "activeCumulativeRewards",
            "offset": 0,
            "slot": "7",
            "type": "t_uint256"
          },
          {
            "astId": 2983,
            "contract": "contracts/bonding/BondingManager.sol:BondingManager",
            "label": "cumulativeRewards",
            "offset": 0,
            "slot": "8",
            "type": "t_uint256"
          },
          {
            "astId": 2985,
            "contract": "contracts/bonding/BondingManager.sol:BondingManager",
            "label": "cumulativeFees",
            "offset": 0,
            "slot": "9",
            "type": "t_uint256"
          },
          {
            "astId": 2987,
            "contract": "contracts/bonding/BondingManager.sol:BondingManager",
            "label": "lastFeeRound",
            "offset": 0,
            "slot": "10",
            "type": "t_uint256"
          }
        ],
        "numberOfBytes": "352"
      },
      "t_struct(UnbondingLock)3020_storage": {
        "encoding": "inplace",
        "label": "struct BondingManager.UnbondingLock",
        "members": [
          {
            "astId": 3017,
            "contract": "contracts/bonding/BondingManager.sol:BondingManager",
            "label": "amount",
            "offset": 0,
            "slot": "0",
            "type": "t_uint256"
          },
          {
            "astId": 3019,
            "contract": "contracts/bonding/BondingManager.sol:BondingManager",
            "label": "withdrawRound",
            "offset": 0,
            "slot": "1",
            "type": "t_uint256"
          }
        ],
        "numberOfBytes": "64"
      },
      "t_uint256": {
        "encoding": "inplace",
        "label": "uint256",
        "numberOfBytes": "32"
      },
      "t_uint64": {
        "encoding": "inplace",
        "label": "uint64",
        "numberOfBytes": "8"
      }
    }
  }
}