{
  "address": "0x4969dcCF5186e1c49411638fc8A2a020Fdab752E",
  "abi": [
    {
      "inputs": [
        {
          "internalType": "address",
          "name": "_controller",
          "type": "address"
        },
        {
          "internalType": "uint256",
          "name": "_inflation",
          "type": "uint256"
        },
        {
          "internalType": "uint256",
          "name": "_inflationChange",
          "type": "uint256"
        },
        {
          "internalType": "uint256",
          "name": "_targetBondingRate",
          "type": "uint256"
        }
      ],
      "stateMutability": "nonpayable",
      "type": "constructor"
    },
    {
      "anonymous": false,
      "inputs": [
        {
          "indexed": false,
          "internalType": "string",
          "name": "param",
          "type": "string"
        }
      ],
      "name": "ParameterUpdate",
      "type": "event"
    },
    {
      "anonymous": false,
      "inputs": [
        {
          "indexed": false,
          "internalType": "address",
          "name": "controller",
          "type": "address"
        }
      ],
      "name": "SetController",
      "type": "event"
    },
    {
      "anonymous": false,
      "inputs": [
        {
          "indexed": false,
          "internalType": "uint256",
          "name": "currentMintableTokens",
          "type": "uint256"
        },
        {
          "indexed": false,
          "internalType": "uint256",
          "name": "currentInflation",
          "type": "uint256"
        }
      ],
      "name": "SetCurrentRewardTokens",
      "type": "event"
    },
    {
      "inputs": [],
      "name": "controller",
      "outputs": [
        {
          "internalType": "contract IController",
          "name": "",
          "type": "address"
        }
      ],
      "stateMutability": "view",
      "type": "function"
    },
    {
      "inputs": [
        {
          "internalType": "uint256",
          "name": "_fracNum",
          "type": "uint256"
        },
        {
          "internalType": "uint256",
          "name": "_fracDenom",
          "type": "uint256"
        }
      ],
      "name": "createReward",
      "outputs": [
        {
          "internalType": "uint256",
          "name": "",
          "type": "uint256"
        }
      ],
      "stateMutability": "nonpayable",
      "type": "function"
    },
    {
      "inputs": [],
      "name": "currentMintableTokens",
      "outputs": [
        {
          "internalType": "uint256",
          "name": "",
          "type": "uint256"
        }
      ],
      "stateMutability": "view",
      "type": "function"
    },
    {
      "inputs": [],
      "name": "currentMintedTokens",
      "outputs": [
        {
          "internalType": "uint256",
          "name": "",
          "type": "uint256"
        }
      ],
      "stateMutability": "view",
      "type": "function"
    },
    {
      "inputs": [],
      "name": "depositETH",
      "outputs": [
        {
          "internalType": "bool",
          "name": "",
          "type": "bool"
        }
      ],
      "stateMutability": "payable",
      "type": "function"
    },
    {
      "inputs": [],
      "name": "getController",
      "outputs": [
        {
          "internalType": "contract IController",
          "name": "",
          "type": "address"
        }
      ],
      "stateMutability": "view",
      "type": "function"
    },
    {
      "inputs": [],
      "name": "getGlobalTotalSupply",
      "outputs": [
        {
          "internalType": "uint256",
          "name": "",
          "type": "uint256"
        }
      ],
      "stateMutability": "view",
      "type": "function"
    },
    {
      "inputs": [],
      "name": "inflation",
      "outputs": [
        {
          "internalType": "uint256",
          "name": "",
          "type": "uint256"
        }
      ],
      "stateMutability": "view",
      "type": "function"
    },
    {
      "inputs": [],
      "name": "inflationChange",
      "outputs": [
        {
          "internalType": "uint256",
          "name": "",
          "type": "uint256"
        }
      ],
      "stateMutability": "view",
      "type": "function"
    },
    {
      "inputs": [
        {
          "internalType": "contract IMinter",
          "name": "_newMinter",
          "type": "address"
        }
      ],
      "name": "migrateToNewMinter",
      "outputs": [],
      "stateMutability": "nonpayable",
      "type": "function"
    },
    {
      "inputs": [
        {
          "internalType": "address",
          "name": "_controller",
          "type": "address"
        }
      ],
      "name": "setController",
      "outputs": [],
      "stateMutability": "nonpayable",
      "type": "function"
    },
    {
      "inputs": [],
      "name": "setCurrentRewardTokens",
      "outputs": [],
      "stateMutability": "nonpayable",
      "type": "function"
    },
    {
      "inputs": [
        {
          "internalType": "uint256",
          "name": "_inflationChange",
          "type": "uint256"
        }
      ],
      "name": "setInflationChange",
      "outputs": [],
      "stateMutability": "nonpayable",
      "type": "function"
    },
    {
      "inputs": [
        {
          "internalType": "uint256",
          "name": "_targetBondingRate",
          "type": "uint256"
        }
      ],
      "name": "setTargetBondingRate",
      "outputs": [],
      "stateMutability": "nonpayable",
      "type": "function"
    },
    {
      "inputs": [],
      "name": "targetBondingRate",
      "outputs": [
        {
          "internalType": "uint256",
          "name": "",
          "type": "uint256"
        }
      ],
      "stateMutability": "view",
      "type": "function"
    },
    {
      "inputs": [
        {
          "internalType": "uint256",
          "name": "_amount",
          "type": "uint256"
        }
      ],
      "name": "trustedBurnTokens",
      "outputs": [],
      "stateMutability": "nonpayable",
      "type": "function"
    },
    {
      "inputs": [
        {
          "internalType": "address",
          "name": "_to",
          "type": "address"
        },
        {
          "internalType": "uint256",
          "name": "_amount",
          "type": "uint256"
        }
      ],
      "name": "trustedTransferTokens",
      "outputs": [],
      "stateMutability": "nonpayable",
      "type": "function"
    },
    {
      "inputs": [
        {
          "internalType": "address payable",
          "name": "_to",
          "type": "address"
        },
        {
          "internalType": "uint256",
          "name": "_amount",
          "type": "uint256"
        }
      ],
      "name": "trustedWithdrawETH",
      "outputs": [],
      "stateMutability": "nonpayable",
      "type": "function"
    }
  ],
  "transactionHash": "0xf2b38131c217f8f7383517dcb8acfbf463a5514400a5c8be837a0e6e3623e35a",
  "args": [
    "0xD8E8328501E9645d16Cf49539efC04f734606ee4",
    218500,
    500,
    500000000
  ],
  "numDeployments": 2,
  "solcInputHash": "fbb7c6c031c5ea66d51283bdfeec92b9",
  "bytecode": "0x60806040523480156200001157600080fd5b5060405162001cf038038062001cf08339810160408190526200003491620001bd565b600080546001600160a01b0319166001600160a01b0386161790556200006683620001b3602090811b6200141e17901c565b620000b85760405162461bcd60e51b815260206004820181905260248201527f5f696e666c6174696f6e20697320696e76616c69642070657263656e7461676560448201526064015b60405180910390fd5b620000ce82620001b360201b6200141e1760201c565b6200012b5760405162461bcd60e51b815260206004820152602660248201527f5f696e666c6174696f6e4368616e676520697320696e76616c69642070657263604482015265656e7461676560d01b6064820152608401620000af565b6200014181620001b360201b6200141e1760201c565b620001a05760405162461bcd60e51b815260206004820152602860248201527f5f746172676574426f6e64696e675261746520697320696e76616c69642070656044820152677263656e7461676560c01b6064820152608401620000af565b600192909255600255600355506200020a565b633b9aca00101590565b60008060008060808587031215620001d457600080fd5b84516001600160a01b0381168114620001ec57600080fd5b60208601516040870151606090970151919890975090945092505050565b611ad6806200021a6000396000f3fe6080604052600436106101095760003560e01c806392eefe9b11610095578063c7ee98c211610064578063c7ee98c214610298578063e7a49c2b146102b8578063ece2064c146102d8578063f6326fb3146102ed578063f77c47911461030557600080fd5b806392eefe9b146102365780639ae6309a14610256578063a7c835141461026c578063be0522e01461028257600080fd5b80633018205f116100dc5780633018205f146101995780635507442d146101cb57806377bde142146101e05780637dbedad514610200578063821b771f1461022057600080fd5b8063010e3c1c1461010e57806318d217ad1461013057806320283da9146101505780632de22cdb14610170575b600080fd5b34801561011a57600080fd5b5061012e6101293660046118cf565b610325565b005b34801561013c57600080fd5b5061012e61014b366004611900565b6103fd565b34801561015c57600080fd5b5061012e61016b36600461191d565b610835565b34801561017c57600080fd5b5061018660055481565b6040519081526020015b60405180910390f35b3480156101a557600080fd5b506000546001600160a01b03165b6040516001600160a01b039091168152602001610190565b3480156101d757600080fd5b50610186610a27565b3480156101ec57600080fd5b5061012e6101fb3660046118cf565b610b27565b34801561020c57600080fd5b5061018661021b366004611949565b610bf3565b34801561022c57600080fd5b5061018660035481565b34801561024257600080fd5b5061012e610251366004611900565b610db0565b34801561026257600080fd5b5061018660045481565b34801561027857600080fd5b5061018660025481565b34801561028e57600080fd5b5061018660015481565b3480156102a457600080fd5b5061012e6102b33660046118cf565b610e06565b3480156102c457600080fd5b5061012e6102d336600461191d565b610f31565b3480156102e457600080fd5b5061012e61107e565b6102f561125a565b6040519015158152602001610190565b34801561031157600080fd5b506000546101b3906001600160a01b031681565b61032d611428565b61033b81633b9aca00101590565b61039b5760405162461bcd60e51b815260206004820152602660248201527f5f696e666c6174696f6e4368616e676520697320696e76616c69642070657263604482015265656e7461676560d01b60648201526084015b60405180910390fd5b60028190556040517f9f5033568d78ae30f29f01e944f97b2216493bd19d1b46d429673acff3dcd674906103f2906020808252600f908201526e696e666c6174696f6e4368616e676560881b604082015260600190565b60405180910390a150565b610405611428565b6001600160a01b03811630141561046a5760405162461bcd60e51b815260206004820152602360248201527f6e6577204d696e7465722063616e6e6f742062652063757272656e74204d696e6044820152623a32b960e91b6064820152608401610392565b6001600160a01b0381166104ca5760405162461bcd60e51b815260206004820152602160248201527f6e6577204d696e7465722063616e6e6f74206265206e756c6c206164647265736044820152607360f81b6064820152608401610392565b6000816001600160a01b0316633018205f6040518163ffffffff1660e01b815260040160206040518083038186803b15801561050557600080fd5b505afa158015610519573d6000803e3d6000fd5b505050506040513d601f19601f8201168201806040525081019061053d919061196b565b6000549091506001600160a01b038083169116146105b65760405162461bcd60e51b815260206004820152603060248201527f6e6577204d696e74657220436f6e74726f6c6c6572206d75737420626520637560448201526f393932b73a1021b7b73a3937b63632b960811b6064820152608401610392565b604051631c2d8fb360e31b81527f6e58ad548d72b425ea94c15f453bf26caddb061d82b2551db7fdd3cefe0e9940600482015230906001600160a01b0383169063e16c7d989060240160206040518083038186803b15801561061757600080fd5b505afa15801561062b573d6000803e3d6000fd5b505050506040513d601f19601f8201168201806040525081019061064f919061196b565b6001600160a01b0316146106a55760405162461bcd60e51b815260206004820152601d60248201527f6e6577204d696e746572206d75737420626520726567697374657265640000006044820152606401610392565b6106ad61150e565b6001600160a01b031663a9059cbb836106c461150e565b6040516370a0823160e01b81523060048201526001600160a01b0391909116906370a082319060240160206040518083038186803b15801561070557600080fd5b505afa158015610719573d6000803e3d6000fd5b505050506040513d601f19601f8201168201806040525081019061073d9190611988565b6040516001600160e01b031960e085901b1681526001600160a01b0390921660048301526024820152604401602060405180830381600087803b15801561078357600080fd5b505af1158015610797573d6000803e3d6000fd5b505050506040513d601f19601f820116820180604052508101906107bb91906119a1565b50816001600160a01b031663f6326fb3476040518263ffffffff1660e01b81526004016020604051808303818588803b1580156107f757600080fd5b505af115801561080b573d6000803e3d6000fd5b50505050506040513d601f19601f8201168201806040525081019061083091906119a1565b505050565b600054604051631c2d8fb360e31b8152600080516020611a8183398151915260048201526001600160a01b039091169063e16c7d989060240160206040518083038186803b15801561088657600080fd5b505afa15801561089a573d6000803e3d6000fd5b505050506040513d601f19601f820116820180604052508101906108be919061196b565b6001600160a01b0316336001600160a01b031614806109885750600054604051631c2d8fb360e31b81527f3d7456535a3155a46f15a2313c3915bd07137ffdc56464f4fc9a82bae7215c2d60048201526001600160a01b039091169063e16c7d989060240160206040518083038186803b15801561093b57600080fd5b505afa15801561094f573d6000803e3d6000fd5b505050506040513d601f19601f82011682018060405250810190610973919061196b565b6001600160a01b0316336001600160a01b0316145b6109e95760405162461bcd60e51b815260206004820152602c60248201527f6d73672e73656e646572206e6f7420426f6e64696e674d616e61676572206f7260448201526b102537b139a6b0b730b3b2b960a11b6064820152608401610392565b6109f16115ab565b6040516001600160a01b0383169082156108fc029083906000818181858888f19350505050158015610830573d6000803e3d6000fd5b6000610b22610a3461166f565b6001600160a01b031663fb1c5ee96040518163ffffffff1660e01b815260040160206040518083038186803b158015610a6c57600080fd5b505afa158015610a80573d6000803e3d6000fd5b505050506040513d601f19601f82011682018060405250810190610aa49190611988565b610aac61150e565b6001600160a01b03166318160ddd6040518163ffffffff1660e01b815260040160206040518083038186803b158015610ae457600080fd5b505afa158015610af8573d6000803e3d6000fd5b505050506040513d601f19601f82011682018060405250810190610b1c9190611988565b906116c0565b905090565b610b2f611428565b610b3d81633b9aca00101590565b610b9a5760405162461bcd60e51b815260206004820152602860248201527f5f746172676574426f6e64696e675261746520697320696e76616c69642070656044820152677263656e7461676560c01b6064820152608401610392565b60038190556040517f9f5033568d78ae30f29f01e944f97b2216493bd19d1b46d429673acff3dcd674906103f290602080825260119082015270746172676574426f6e64696e675261746560781b604082015260600190565b60008054604051631c2d8fb360e31b8152600080516020611a8183398151915260048201526001600160a01b039091169063e16c7d989060240160206040518083038186803b158015610c4557600080fd5b505afa158015610c59573d6000803e3d6000fd5b505050506040513d601f19601f82011682018060405250810190610c7d919061196b565b6001600160a01b0316336001600160a01b031614610cad5760405162461bcd60e51b8152600401610392906119c3565b610cb56115ab565b6000610cc460045485856116d3565b600554909150610cd490826116c0565b60058190556004541015610d3e5760405162461bcd60e51b815260206004820152602b60248201527f6d696e74656420746f6b656e732063616e6e6f7420657863656564206d696e7460448201526a61626c6520746f6b656e7360a81b6064820152608401610392565b610d4661150e565b6040516340c10f1960e01b8152306004820152602481018390526001600160a01b0391909116906340c10f1990604401600060405180830381600087803b158015610d9057600080fd5b505af1158015610da4573d6000803e3d6000fd5b50929695505050505050565b610db86116ff565b600080546001600160a01b0319166001600160a01b0383169081179091556040519081527f4ff638452bbf33c012645d18ae6f05515ff5f2d1dfb0cece8cbf018c60903f70906020016103f2565b600054604051631c2d8fb360e31b8152600080516020611a8183398151915260048201526001600160a01b039091169063e16c7d989060240160206040518083038186803b158015610e5757600080fd5b505afa158015610e6b573d6000803e3d6000fd5b505050506040513d601f19601f82011682018060405250810190610e8f919061196b565b6001600160a01b0316336001600160a01b031614610ebf5760405162461bcd60e51b8152600401610392906119c3565b610ec76115ab565b610ecf61150e565b6001600160a01b03166342966c68826040518263ffffffff1660e01b8152600401610efc91815260200190565b600060405180830381600087803b158015610f1657600080fd5b505af1158015610f2a573d6000803e3d6000fd5b5050505050565b600054604051631c2d8fb360e31b8152600080516020611a8183398151915260048201526001600160a01b039091169063e16c7d989060240160206040518083038186803b158015610f8257600080fd5b505afa158015610f96573d6000803e3d6000fd5b505050506040513d601f19601f82011682018060405250810190610fba919061196b565b6001600160a01b0316336001600160a01b031614610fea5760405162461bcd60e51b8152600401610392906119c3565b610ff26115ab565b610ffa61150e565b60405163a9059cbb60e01b81526001600160a01b03848116600483015260248201849052919091169063a9059cbb90604401602060405180830381600087803b15801561104657600080fd5b505af115801561105a573d6000803e3d6000fd5b505050506040513d601f19601f8201168201806040525081019061083091906119a1565b600054604051631c2d8fb360e31b81527fe8438ea868df48e3fc21f2f087b993c9b1837dc0f6135064161ce7d7a1701fe860048201526001600160a01b039091169063e16c7d989060240160206040518083038186803b1580156110e157600080fd5b505afa1580156110f5573d6000803e3d6000fd5b505050506040513d601f19601f82011682018060405250810190611119919061196b565b6001600160a01b0316336001600160a01b0316146111795760405162461bcd60e51b815260206004820152601c60248201527f6d73672e73656e646572206e6f7420526f756e64734d616e61676572000000006044820152606401610392565b6111816115ab565b611189611759565b61120c61119461150e565b6001600160a01b03166318160ddd6040518163ffffffff1660e01b815260040160206040518083038186803b1580156111cc57600080fd5b505afa1580156111e0573d6000803e3d6000fd5b505050506040513d601f19601f820116820180604052508101906112049190611988565b600154611848565b600481905560006005556001546040517f39567a366345edf17f50c1967a31b597745186c4632f34c4f8ebe06b6890784d9261125092908252602082015260400190565b60405180910390a1565b60008054604051631c2d8fb360e31b81527f6e58ad548d72b425ea94c15f453bf26caddb061d82b2551db7fdd3cefe0e994060048201526001600160a01b039091169063e16c7d989060240160206040518083038186803b1580156112be57600080fd5b505afa1580156112d2573d6000803e3d6000fd5b505050506040513d601f19601f820116820180604052508101906112f6919061196b565b6001600160a01b0316336001600160a01b031614806113c05750600054604051631c2d8fb360e31b81527f3d7456535a3155a46f15a2313c3915bd07137ffdc56464f4fc9a82bae7215c2d60048201526001600160a01b039091169063e16c7d989060240160206040518083038186803b15801561137357600080fd5b505afa158015611387573d6000803e3d6000fd5b505050506040513d601f19601f820116820180604052508101906113ab919061196b565b6001600160a01b0316336001600160a01b0316145b6114185760405162461bcd60e51b8152602060048201526024808201527f6d73672e73656e646572206e6f74204d696e746572206f72204a6f62734d616e60448201526330b3b2b960e11b6064820152608401610392565b50600190565b633b9aca00101590565b60008054906101000a90046001600160a01b03166001600160a01b0316638da5cb5b6040518163ffffffff1660e01b815260040160206040518083038186803b15801561147457600080fd5b505afa158015611488573d6000803e3d6000fd5b505050506040513d601f19601f820116820180604052508101906114ac919061196b565b6001600160a01b0316336001600160a01b03161461150c5760405162461bcd60e51b815260206004820152601f60248201527f63616c6c6572206d75737420626520436f6e74726f6c6c6572206f776e6572006044820152606401610392565b565b60008054604051631c2d8fb360e31b81527f3443e257065fe41dd0e4d1f5a1b73a22a62e300962b57f30cddf41d0f8273ba760048201526001600160a01b039091169063e16c7d98906024015b60206040518083038186803b15801561157357600080fd5b505afa158015611587573d6000803e3d6000fd5b505050506040513d601f19601f82011682018060405250810190610b22919061196b565b60008054906101000a90046001600160a01b03166001600160a01b0316635c975abb6040518163ffffffff1660e01b815260040160206040518083038186803b1580156115f757600080fd5b505afa15801561160b573d6000803e3d6000fd5b505050506040513d601f19601f8201168201806040525081019061162f91906119a1565b1561150c5760405162461bcd60e51b815260206004820152601060248201526f1cde5cdd195b481a5cc81c185d5cd95960821b6044820152606401610392565b60008054604051631c2d8fb360e31b81527f8ecfba413a4e4715a264d70a55d3a35bf60b2954c56759310202f3928162320060048201526001600160a01b039091169063e16c7d989060240161155b565b60006116cc8284611a10565b9392505050565b60006116f7633b9aca006116f16116ea868661185c565b879061186c565b90611878565b949350505050565b6000546001600160a01b0316331461150c5760405162461bcd60e51b815260206004820152601960248201527f63616c6c6572206d75737420626520436f6e74726f6c6c6572000000000000006044820152606401610392565b600080611764610a27565b905080156117f6576000611776611884565b6001600160a01b0316635c50c3566040518163ffffffff1660e01b815260040160206040518083038186803b1580156117ae57600080fd5b505afa1580156117c2573d6000803e3d6000fd5b505050506040513d601f19601f820116820180604052508101906117e69190611988565b90506117f2818361185c565b9250505b6003548210156118165760025460015461180f916116c0565b6001555050565b6003548211156118445760015460025411156118355760006001555050565b60025460015461180f916118c3565b5050565b60006116cc633b9aca006116f1858561186c565b60006116cc826116f185633b9aca005b60006116cc8284611a28565b60006116cc8284611a47565b60008054604051631c2d8fb360e31b8152600080516020611a8183398151915260048201526001600160a01b039091169063e16c7d989060240161155b565b60006116cc8284611a69565b6000602082840312156118e157600080fd5b5035919050565b6001600160a01b03811681146118fd57600080fd5b50565b60006020828403121561191257600080fd5b81356116cc816118e8565b6000806040838503121561193057600080fd5b823561193b816118e8565b946020939093013593505050565b6000806040838503121561195c57600080fd5b50508035926020909101359150565b60006020828403121561197d57600080fd5b81516116cc816118e8565b60006020828403121561199a57600080fd5b5051919050565b6000602082840312156119b357600080fd5b815180151581146116cc57600080fd5b6020808252601d908201527f6d73672e73656e646572206e6f7420426f6e64696e674d616e61676572000000604082015260600190565b634e487b7160e01b600052601160045260246000fd5b60008219821115611a2357611a236119fa565b500190565b6000816000190483118215151615611a4257611a426119fa565b500290565b600082611a6457634e487b7160e01b600052601260045260246000fd5b500490565b600082821015611a7b57611a7b6119fa565b50039056fe2517d59a36a86548e38734e8ab416f42afff4bca78706a66ad65750dae7f9e37a26469706673582212202e3baeab6bb6914fd08096fa924d612d54f6254c33fc8fc55a993d189b6be21b64736f6c63430008090033",
  "devdoc": {
    "details": "Manages inflation rate and the minting of new tokens for each round of the Livepeer protocol",
    "kind": "dev",
    "methods": {
      "constructor": {
        "params": {
          "_inflation": "Base inflation rate as a percentage of current total token supply",
          "_inflationChange": "Change in inflation rate each round (increase or decrease) if target bonding rate is not achieved",
          "_targetBondingRate": "Target bonding rate as a percentage of total bonded tokens / total token supply"
        }
      },
      "createReward(uint256,uint256)": {
        "params": {
          "_fracDenom": "Denominator of fraction (total active stake)",
          "_fracNum": "Numerator of fraction (active transcoder's stake)"
        }
      },
      "getController()": {
        "details": "Returns Controller interface"
      },
      "getGlobalTotalSupply()": {
        "returns": {
          "_0": "Global LPT total supply"
        }
      },
      "migrateToNewMinter(address)": {
        "details": "Only callable by Controller owner",
        "params": {
          "_newMinter": "Address of new Minter"
        }
      },
      "setController(address)": {
        "params": {
          "_controller": "Controller contract address"
        }
      },
      "setInflationChange(uint256)": {
        "params": {
          "_inflationChange": "Inflation change as a percentage of total token supply"
        }
      },
      "setTargetBondingRate(uint256)": {
        "params": {
          "_targetBondingRate": "Target bonding rate as a percentage of total bonded tokens / total token supply"
        }
      },
      "trustedBurnTokens(uint256)": {
        "params": {
          "_amount": "Amount of tokens to burn"
        }
      },
      "trustedTransferTokens(address,uint256)": {
        "params": {
          "_amount": "Amount of tokens",
          "_to": "Recipient address"
        }
      },
      "trustedWithdrawETH(address,uint256)": {
        "params": {
          "_amount": "Amount of ETH",
          "_to": "Recipient address"
        }
      }
    },
    "title": "Minter",
    "version": 1
  },
  "userdoc": {
    "kind": "user",
    "methods": {
      "constructor": {
        "notice": "Minter constructor"
      },
      "createReward(uint256,uint256)": {
        "notice": "Create reward based on a fractional portion of the mintable tokens for the current round"
      },
      "depositETH()": {
        "notice": "Deposit ETH to this contract. Only callable by the currently registered Minter or JobsManager"
      },
      "getGlobalTotalSupply()": {
        "notice": "Calculate and return global LPT total supply"
      },
      "migrateToNewMinter(address)": {
        "notice": "Migrate to a new Minter by transferring the current Minter's LPT + ETH balance to the new Minter"
      },
      "setController(address)": {
        "notice": "Set controller. Only callable by current controller"
      },
      "setCurrentRewardTokens()": {
        "notice": "Set inflation and mintable tokens for the round. Only callable by the RoundsManager"
      },
      "setInflationChange(uint256)": {
        "notice": "Set inflationChange. Only callable by Controller owner"
      },
      "setTargetBondingRate(uint256)": {
        "notice": "Set targetBondingRate. Only callable by Controller owner"
      },
      "trustedBurnTokens(uint256)": {
        "notice": "Burn tokens. Only callable by BondingManager - always trusts BondingManager"
      },
      "trustedTransferTokens(address,uint256)": {
        "notice": "Transfer tokens to a receipient. Only callable by BondingManager - always trusts BondingManager"
      },
      "trustedWithdrawETH(address,uint256)": {
        "notice": "Withdraw ETH to a recipient. Only callable by BondingManager or TicketBroker - always trusts these two contracts"
      }
    },
    "version": 1
  },
  "storageLayout": {
    "storage": [
      {
        "astId": 2670,
        "contract": "contracts/token/Minter.sol:Minter",
        "label": "controller",
        "offset": 0,
        "slot": "0",
        "type": "t_contract(IController)2645"
      },
      {
        "astId": 25052,
        "contract": "contracts/token/Minter.sol:Minter",
        "label": "inflation",
        "offset": 0,
        "slot": "1",
        "type": "t_uint256"
      },
      {
        "astId": 25054,
        "contract": "contracts/token/Minter.sol:Minter",
        "label": "inflationChange",
        "offset": 0,
        "slot": "2",
        "type": "t_uint256"
      },
      {
        "astId": 25056,
        "contract": "contracts/token/Minter.sol:Minter",
        "label": "targetBondingRate",
        "offset": 0,
        "slot": "3",
        "type": "t_uint256"
      },
      {
        "astId": 25058,
        "contract": "contracts/token/Minter.sol:Minter",
        "label": "currentMintableTokens",
        "offset": 0,
        "slot": "4",
        "type": "t_uint256"
      },
      {
        "astId": 25060,
        "contract": "contracts/token/Minter.sol:Minter",
        "label": "currentMintedTokens",
        "offset": 0,
        "slot": "5",
        "type": "t_uint256"
      }
    ],
    "types": {
      "t_contract(IController)2645": {
        "encoding": "inplace",
        "label": "contract IController",
        "numberOfBytes": "20"
      },
      "t_uint256": {
        "encoding": "inplace",
        "label": "uint256",
        "numberOfBytes": "32"
      }
    }
  }
}