{
  "address": "0xF46b46107EB9DEA61a35BEd4eB24b27238543B58",
  "abi": [
    {
      "anonymous": false,
      "inputs": [
        {
          "indexed": true,
          "internalType": "bytes32",
          "name": "id",
          "type": "bytes32"
        },
        {
          "indexed": true,
          "internalType": "uint256",
          "name": "index",
          "type": "uint256"
        },
        {
          "indexed": false,
          "internalType": "address",
          "name": "target",
          "type": "address"
        },
        {
          "indexed": false,
          "internalType": "uint256",
          "name": "value",
          "type": "uint256"
        },
        {
          "indexed": false,
          "internalType": "bytes",
          "name": "data",
          "type": "bytes"
        }
      ],
      "name": "CallExecuted",
      "type": "event"
    },
    {
      "anonymous": false,
      "inputs": [
        {
          "indexed": true,
          "internalType": "bytes32",
          "name": "id",
          "type": "bytes32"
        },
        {
          "indexed": false,
          "internalType": "bytes32",
          "name": "salt",
          "type": "bytes32"
        }
      ],
      "name": "CallSalt",
      "type": "event"
    },
    {
      "anonymous": false,
      "inputs": [
        {
          "indexed": true,
          "internalType": "bytes32",
          "name": "id",
          "type": "bytes32"
        },
        {
          "indexed": true,
          "internalType": "uint256",
          "name": "index",
          "type": "uint256"
        },
        {
          "indexed": false,
          "internalType": "address",
          "name": "target",
          "type": "address"
        },
        {
          "indexed": false,
          "internalType": "uint256",
          "name": "value",
          "type": "uint256"
        },
        {
          "indexed": false,
          "internalType": "bytes",
          "name": "data",
          "type": "bytes"
        },
        {
          "indexed": false,
          "internalType": "bytes32",
          "name": "predecessor",
          "type": "bytes32"
        },
        {
          "indexed": false,
          "internalType": "uint256",
          "name": "delay",
          "type": "uint256"
        }
      ],
      "name": "CallScheduled",
      "type": "event"
    },
    {
      "anonymous": false,
      "inputs": [
        {
          "indexed": true,
          "internalType": "bytes32",
          "name": "id",
          "type": "bytes32"
        }
      ],
      "name": "Cancelled",
      "type": "event"
    },
    {
      "anonymous": false,
      "inputs": [
        {
          "indexed": false,
          "internalType": "uint8",
          "name": "version",
          "type": "uint8"
        }
      ],
      "name": "Initialized",
      "type": "event"
    },
    {
      "anonymous": false,
      "inputs": [
        {
          "indexed": false,
          "internalType": "uint256",
          "name": "oldDuration",
          "type": "uint256"
        },
        {
          "indexed": false,
          "internalType": "uint256",
          "name": "newDuration",
          "type": "uint256"
        }
      ],
      "name": "MinDelayChange",
      "type": "event"
    },
    {
      "anonymous": false,
      "inputs": [
        {
          "indexed": true,
          "internalType": "bytes32",
          "name": "role",
          "type": "bytes32"
        },
        {
          "indexed": true,
          "internalType": "bytes32",
          "name": "previousAdminRole",
          "type": "bytes32"
        },
        {
          "indexed": true,
          "internalType": "bytes32",
          "name": "newAdminRole",
          "type": "bytes32"
        }
      ],
      "name": "RoleAdminChanged",
      "type": "event"
    },
    {
      "anonymous": false,
      "inputs": [
        {
          "indexed": true,
          "internalType": "bytes32",
          "name": "role",
          "type": "bytes32"
        },
        {
          "indexed": true,
          "internalType": "address",
          "name": "account",
          "type": "address"
        },
        {
          "indexed": true,
          "internalType": "address",
          "name": "sender",
          "type": "address"
        }
      ],
      "name": "RoleGranted",
      "type": "event"
    },
    {
      "anonymous": false,
      "inputs": [
        {
          "indexed": true,
          "internalType": "bytes32",
          "name": "role",
          "type": "bytes32"
        },
        {
          "indexed": true,
          "internalType": "address",
          "name": "account",
          "type": "address"
        },
        {
          "indexed": true,
          "internalType": "address",
          "name": "sender",
          "type": "address"
        }
      ],
      "name": "RoleRevoked",
      "type": "event"
    },
    {
      "inputs": [],
      "name": "CANCELLER_ROLE",
      "outputs": [
        {
          "internalType": "bytes32",
          "name": "",
          "type": "bytes32"
        }
      ],
      "stateMutability": "view",
      "type": "function"
    },
    {
      "inputs": [],
      "name": "DEFAULT_ADMIN_ROLE",
      "outputs": [
        {
          "internalType": "bytes32",
          "name": "",
          "type": "bytes32"
        }
      ],
      "stateMutability": "view",
      "type": "function"
    },
    {
      "inputs": [],
      "name": "EXECUTOR_ROLE",
      "outputs": [
        {
          "internalType": "bytes32",
          "name": "",
          "type": "bytes32"
        }
      ],
      "stateMutability": "view",
      "type": "function"
    },
    {
      "inputs": [],
      "name": "PROPOSER_ROLE",
      "outputs": [
        {
          "internalType": "bytes32",
          "name": "",
          "type": "bytes32"
        }
      ],
      "stateMutability": "view",
      "type": "function"
    },
    {
      "inputs": [],
      "name": "TIMELOCK_ADMIN_ROLE",
      "outputs": [
        {
          "internalType": "bytes32",
          "name": "",
          "type": "bytes32"
        }
      ],
      "stateMutability": "view",
      "type": "function"
    },
    {
      "inputs": [
        {
          "internalType": "bytes32",
          "name": "id",
          "type": "bytes32"
        }
      ],
      "name": "cancel",
      "outputs": [],
      "stateMutability": "nonpayable",
      "type": "function"
    },
    {
      "inputs": [
        {
          "internalType": "address",
          "name": "target",
          "type": "address"
        },
        {
          "internalType": "uint256",
          "name": "value",
          "type": "uint256"
        },
        {
          "internalType": "bytes",
          "name": "payload",
          "type": "bytes"
        },
        {
          "internalType": "bytes32",
          "name": "predecessor",
          "type": "bytes32"
        },
        {
          "internalType": "bytes32",
          "name": "salt",
          "type": "bytes32"
        }
      ],
      "name": "execute",
      "outputs": [],
      "stateMutability": "payable",
      "type": "function"
    },
    {
      "inputs": [
        {
          "internalType": "address[]",
          "name": "targets",
          "type": "address[]"
        },
        {
          "internalType": "uint256[]",
          "name": "values",
          "type": "uint256[]"
        },
        {
          "internalType": "bytes[]",
          "name": "payloads",
          "type": "bytes[]"
        },
        {
          "internalType": "bytes32",
          "name": "predecessor",
          "type": "bytes32"
        },
        {
          "internalType": "bytes32",
          "name": "salt",
          "type": "bytes32"
        }
      ],
      "name": "executeBatch",
      "outputs": [],
      "stateMutability": "payable",
      "type": "function"
    },
    {
      "inputs": [],
      "name": "getMinDelay",
      "outputs": [
        {
          "internalType": "uint256",
          "name": "",
          "type": "uint256"
        }
      ],
      "stateMutability": "view",
      "type": "function"
    },
    {
      "inputs": [
        {
          "internalType": "bytes32",
          "name": "role",
          "type": "bytes32"
        }
      ],
      "name": "getRoleAdmin",
      "outputs": [
        {
          "internalType": "bytes32",
          "name": "",
          "type": "bytes32"
        }
      ],
      "stateMutability": "view",
      "type": "function"
    },
    {
      "inputs": [
        {
          "internalType": "bytes32",
          "name": "id",
          "type": "bytes32"
        }
      ],
      "name": "getTimestamp",
      "outputs": [
        {
          "internalType": "uint256",
          "name": "",
          "type": "uint256"
        }
      ],
      "stateMutability": "view",
      "type": "function"
    },
    {
      "inputs": [
        {
          "internalType": "bytes32",
          "name": "role",
          "type": "bytes32"
        },
        {
          "internalType": "address",
          "name": "account",
          "type": "address"
        }
      ],
      "name": "grantRole",
      "outputs": [],
      "stateMutability": "nonpayable",
      "type": "function"
    },
    {
      "inputs": [
        {
          "internalType": "bytes32",
          "name": "role",
          "type": "bytes32"
        },
        {
          "internalType": "address",
          "name": "account",
          "type": "address"
        }
      ],
      "name": "hasRole",
      "outputs": [
        {
          "internalType": "bool",
          "name": "",
          "type": "bool"
        }
      ],
      "stateMutability": "view",
      "type": "function"
    },
    {
      "inputs": [
        {
          "internalType": "address",
          "name": "target",
          "type": "address"
        },
        {
          "internalType": "uint256",
          "name": "value",
          "type": "uint256"
        },
        {
          "internalType": "bytes",
          "name": "data",
          "type": "bytes"
        },
        {
          "internalType": "bytes32",
          "name": "predecessor",
          "type": "bytes32"
        },
        {
          "internalType": "bytes32",
          "name": "salt",
          "type": "bytes32"
        }
      ],
      "name": "hashOperation",
      "outputs": [
        {
          "internalType": "bytes32",
          "name": "",
          "type": "bytes32"
        }
      ],
      "stateMutability": "pure",
      "type": "function"
    },
    {
      "inputs": [
        {
          "internalType": "address[]",
          "name": "targets",
          "type": "address[]"
        },
        {
          "internalType": "uint256[]",
          "name": "values",
          "type": "uint256[]"
        },
        {
          "internalType": "bytes[]",
          "name": "payloads",
          "type": "bytes[]"
        },
        {
          "internalType": "bytes32",
          "name": "predecessor",
          "type": "bytes32"
        },
        {
          "internalType": "bytes32",
          "name": "salt",
          "type": "bytes32"
        }
      ],
      "name": "hashOperationBatch",
      "outputs": [
        {
          "internalType": "bytes32",
          "name": "",
          "type": "bytes32"
        }
      ],
      "stateMutability": "pure",
      "type": "function"
    },
    {
      "inputs": [
        {
          "internalType": "uint256",
          "name": "minDelay",
          "type": "uint256"
        },
        {
          "internalType": "address[]",
          "name": "proposers",
          "type": "address[]"
        },
        {
          "internalType": "address[]",
          "name": "executors",
          "type": "address[]"
        },
        {
          "internalType": "address",
          "name": "admin",
          "type": "address"
        }
      ],
      "name": "initialize",
      "outputs": [],
      "stateMutability": "nonpayable",
      "type": "function"
    },
    {
      "inputs": [
        {
          "internalType": "bytes32",
          "name": "id",
          "type": "bytes32"
        }
      ],
      "name": "isOperation",
      "outputs": [
        {
          "internalType": "bool",
          "name": "",
          "type": "bool"
        }
      ],
      "stateMutability": "view",
      "type": "function"
    },
    {
      "inputs": [
        {
          "internalType": "bytes32",
          "name": "id",
          "type": "bytes32"
        }
      ],
      "name": "isOperationDone",
      "outputs": [
        {
          "internalType": "bool",
          "name": "",
          "type": "bool"
        }
      ],
      "stateMutability": "view",
      "type": "function"
    },
    {
      "inputs": [
        {
          "internalType": "bytes32",
          "name": "id",
          "type": "bytes32"
        }
      ],
      "name": "isOperationPending",
      "outputs": [
        {
          "internalType": "bool",
          "name": "",
          "type": "bool"
        }
      ],
      "stateMutability": "view",
      "type": "function"
    },
    {
      "inputs": [
        {
          "internalType": "bytes32",
          "name": "id",
          "type": "bytes32"
        }
      ],
      "name": "isOperationReady",
      "outputs": [
        {
          "internalType": "bool",
          "name": "",
          "type": "bool"
        }
      ],
      "stateMutability": "view",
      "type": "function"
    },
    {
      "inputs": [
        {
          "internalType": "address",
          "name": "",
          "type": "address"
        },
        {
          "internalType": "address",
          "name": "",
          "type": "address"
        },
        {
          "internalType": "uint256[]",
          "name": "",
          "type": "uint256[]"
        },
        {
          "internalType": "uint256[]",
          "name": "",
          "type": "uint256[]"
        },
        {
          "internalType": "bytes",
          "name": "",
          "type": "bytes"
        }
      ],
      "name": "onERC1155BatchReceived",
      "outputs": [
        {
          "internalType": "bytes4",
          "name": "",
          "type": "bytes4"
        }
      ],
      "stateMutability": "nonpayable",
      "type": "function"
    },
    {
      "inputs": [
        {
          "internalType": "address",
          "name": "",
          "type": "address"
        },
        {
          "internalType": "address",
          "name": "",
          "type": "address"
        },
        {
          "internalType": "uint256",
          "name": "",
          "type": "uint256"
        },
        {
          "internalType": "uint256",
          "name": "",
          "type": "uint256"
        },
        {
          "internalType": "bytes",
          "name": "",
          "type": "bytes"
        }
      ],
      "name": "onERC1155Received",
      "outputs": [
        {
          "internalType": "bytes4",
          "name": "",
          "type": "bytes4"
        }
      ],
      "stateMutability": "nonpayable",
      "type": "function"
    },
    {
      "inputs": [
        {
          "internalType": "address",
          "name": "",
          "type": "address"
        },
        {
          "internalType": "address",
          "name": "",
          "type": "address"
        },
        {
          "internalType": "uint256",
          "name": "",
          "type": "uint256"
        },
        {
          "internalType": "bytes",
          "name": "",
          "type": "bytes"
        }
      ],
      "name": "onERC721Received",
      "outputs": [
        {
          "internalType": "bytes4",
          "name": "",
          "type": "bytes4"
        }
      ],
      "stateMutability": "nonpayable",
      "type": "function"
    },
    {
      "inputs": [
        {
          "internalType": "bytes32",
          "name": "role",
          "type": "bytes32"
        },
        {
          "internalType": "address",
          "name": "account",
          "type": "address"
        }
      ],
      "name": "renounceRole",
      "outputs": [],
      "stateMutability": "nonpayable",
      "type": "function"
    },
    {
      "inputs": [
        {
          "internalType": "bytes32",
          "name": "role",
          "type": "bytes32"
        },
        {
          "internalType": "address",
          "name": "account",
          "type": "address"
        }
      ],
      "name": "revokeRole",
      "outputs": [],
      "stateMutability": "nonpayable",
      "type": "function"
    },
    {
      "inputs": [
        {
          "internalType": "address",
          "name": "target",
          "type": "address"
        },
        {
          "internalType": "uint256",
          "name": "value",
          "type": "uint256"
        },
        {
          "internalType": "bytes",
          "name": "data",
          "type": "bytes"
        },
        {
          "internalType": "bytes32",
          "name": "predecessor",
          "type": "bytes32"
        },
        {
          "internalType": "bytes32",
          "name": "salt",
          "type": "bytes32"
        },
        {
          "internalType": "uint256",
          "name": "delay",
          "type": "uint256"
        }
      ],
      "name": "schedule",
      "outputs": [],
      "stateMutability": "nonpayable",
      "type": "function"
    },
    {
      "inputs": [
        {
          "internalType": "address[]",
          "name": "targets",
          "type": "address[]"
        },
        {
          "internalType": "uint256[]",
          "name": "values",
          "type": "uint256[]"
        },
        {
          "internalType": "bytes[]",
          "name": "payloads",
          "type": "bytes[]"
        },
        {
          "internalType": "bytes32",
          "name": "predecessor",
          "type": "bytes32"
        },
        {
          "internalType": "bytes32",
          "name": "salt",
          "type": "bytes32"
        },
        {
          "internalType": "uint256",
          "name": "delay",
          "type": "uint256"
        }
      ],
      "name": "scheduleBatch",
      "outputs": [],
      "stateMutability": "nonpayable",
      "type": "function"
    },
    {
      "inputs": [
        {
          "internalType": "bytes4",
          "name": "interfaceId",
          "type": "bytes4"
        }
      ],
      "name": "supportsInterface",
      "outputs": [
        {
          "internalType": "bool",
          "name": "",
          "type": "bool"
        }
      ],
      "stateMutability": "view",
      "type": "function"
    },
    {
      "inputs": [
        {
          "internalType": "uint256",
          "name": "newDelay",
          "type": "uint256"
        }
      ],
      "name": "updateDelay",
      "outputs": [],
      "stateMutability": "nonpayable",
      "type": "function"
    },
    {
      "stateMutability": "payable",
      "type": "receive"
    }
  ],
  "transactionHash": "0x0d7db5453b363358484d0fa82b192e2fdde98f12ec23d4e88fbb9f2abb7d943d",
  "args": [],
  "numDeployments": 1,
  "solcInputHash": "efa0341620bfdb86748c0cbab0d9b23f",
  "bytecode": "0x608060405234801561001057600080fd5b50612314806100206000396000f3fe6080604052600436106101c65760003560e01c80638065657f116100f7578063bc197c8111610095578063d547741f11610064578063d547741f14610564578063e38335e514610584578063f23a6e6114610597578063f27a0c92146105c357600080fd5b8063bc197c81146104cb578063c4c4c7b3146104f7578063c4d252f514610517578063d45c44351461053757600080fd5b806391d14854116100d157806391d1485414610454578063a217fddf14610474578063b08e51c014610489578063b1c5f427146104ab57600080fd5b80638065657f146103f25780638f2a0bb0146104125780638f61f4f51461043257600080fd5b8063248a9ca31161016457806331d507501161013e57806331d507501461037257806336568abe14610392578063584b153e146103b257806364d62353146103d257600080fd5b8063248a9ca3146102f25780632ab0f529146103225780632f2ff15d1461035257600080fd5b80630d3cf6fc116101a05780630d3cf6fc14610259578063134008d31461027b57806313bc9f201461028e578063150b7a02146102ae57600080fd5b806301d5062a146101d257806301ffc9a7146101f457806307bd02651461022957600080fd5b366101cd57005b600080fd5b3480156101de57600080fd5b506101f26101ed366004611758565b6105d8565b005b34801561020057600080fd5b5061021461020f3660046117cc565b61069c565b60405190151581526020015b60405180910390f35b34801561023557600080fd5b5061024b60008051602061229f83398151915281565b604051908152602001610220565b34801561026557600080fd5b5061024b60008051602061225f83398151915281565b6101f26102893660046117f6565b6106c7565b34801561029a57600080fd5b506102146102a9366004611861565b61076a565b3480156102ba57600080fd5b506102d96102c936600461192f565b630a85bd0160e11b949350505050565b6040516001600160e01b03199091168152602001610220565b3480156102fe57600080fd5b5061024b61030d366004611861565b60009081526065602052604090206001015490565b34801561032e57600080fd5b5061021461033d366004611861565b60009081526097602052604090205460011490565b34801561035e57600080fd5b506101f261036d366004611996565b610790565b34801561037e57600080fd5b5061021461038d366004611861565b6107ba565b34801561039e57600080fd5b506101f26103ad366004611996565b6107d3565b3480156103be57600080fd5b506102146103cd366004611861565b610856565b3480156103de57600080fd5b506101f26103ed366004611861565b61086d565b3480156103fe57600080fd5b5061024b61040d3660046117f6565b610911565b34801561041e57600080fd5b506101f261042d366004611a06565b610950565b34801561043e57600080fd5b5061024b60008051602061227f83398151915281565b34801561046057600080fd5b5061021461046f366004611996565b610ad1565b34801561048057600080fd5b5061024b600081565b34801561049557600080fd5b5061024b6000805160206122bf83398151915281565b3480156104b757600080fd5b5061024b6104c6366004611ab7565b610afc565b3480156104d757600080fd5b506102d96104e6366004611bed565b63bc197c8160e01b95945050505050565b34801561050357600080fd5b506101f2610512366004611cf8565b610b41565b34801561052357600080fd5b506101f2610532366004611861565b610c5a565b34801561054357600080fd5b5061024b610552366004611861565b60009081526097602052604090205490565b34801561057057600080fd5b506101f261057f366004611996565b610d1d565b6101f2610592366004611ab7565b610d42565b3480156105a357600080fd5b506102d96105b2366004611d75565b63f23a6e6160e01b95945050505050565b3480156105cf57600080fd5b5060985461024b565b60008051602061227f8339815191526105f081610eba565b6000610600898989898989610911565b905061060c8184610ec7565b6000817f4cf4410cc57040e44862ef0f45f3dd5a5e02db8eb8add648d4b0e236f1d07dca8b8b8b8b8b8a60405161064896959493929190611e02565b60405180910390a3831561069157807f20fda5fd27a1ea7bf5b9567f143ac5470bb059374a27e8f67cb44f946f6d03878560405161068891815260200190565b60405180910390a25b505050505050505050565b60006001600160e01b03198216630271189760e51b14806106c157506106c182610fb6565b92915050565b60008051602061229f8339815191526106e1816000610ad1565b6106ef576106ef8133610feb565b60006106ff888888888888610911565b905061070b8185611044565b610717888888886110df565b6000817fc2617efa69bab66782fa219543714338489c4e9e178271560a91b82c3f612b588a8a8a8a60405161074f9493929190611e3f565b60405180910390a3610760816111ab565b5050505050505050565b6000818152609760205260408120546001811180156107895750428111155b9392505050565b6000828152606560205260409020600101546107ab81610eba565b6107b583836111e4565b505050565b60008181526097602052604081205481905b1192915050565b6001600160a01b03811633146108485760405162461bcd60e51b815260206004820152602f60248201527f416363657373436f6e74726f6c3a2063616e206f6e6c792072656e6f756e636560448201526e103937b632b9903337b91039b2b63360891b60648201526084015b60405180910390fd5b610852828261126a565b5050565b6000818152609760205260408120546001906107cc565b3330146108d05760405162461bcd60e51b815260206004820152602b60248201527f54696d656c6f636b436f6e74726f6c6c65723a2063616c6c6572206d7573742060448201526a62652074696d656c6f636b60a81b606482015260840161083f565b60985460408051918252602082018390527f11c24f4ead16507c69ac467fbd5e4eed5fb5c699626d2cc6d66421df253886d5910160405180910390a1609855565b600086868686868660405160200161092e96959493929190611e02565b6040516020818303038152906040528051906020012090509695505050505050565b60008051602061227f83398151915261096881610eba565b8887146109875760405162461bcd60e51b815260040161083f90611e71565b8885146109a65760405162461bcd60e51b815260040161083f90611e71565b60006109b88b8b8b8b8b8b8b8b610afc565b90506109c48184610ec7565b60005b8a811015610a825780827f4cf4410cc57040e44862ef0f45f3dd5a5e02db8eb8add648d4b0e236f1d07dca8e8e85818110610a0457610a04611eb4565b9050602002016020810190610a199190611eca565b8d8d86818110610a2b57610a2b611eb4565b905060200201358c8c87818110610a4457610a44611eb4565b9050602002810190610a569190611ee5565b8c8b604051610a6a96959493929190611e02565b60405180910390a3610a7b81611f41565b90506109c7565b508315610ac457807f20fda5fd27a1ea7bf5b9567f143ac5470bb059374a27e8f67cb44f946f6d038785604051610abb91815260200190565b60405180910390a25b5050505050505050505050565b60009182526065602090815260408084206001600160a01b0393909316845291905290205460ff1690565b60008888888888888888604051602001610b1d989796959493929190611fec565b60405160208183030381529060405280519060200120905098975050505050505050565b600054610100900460ff1615808015610b615750600054600160ff909116105b80610b7b5750303b158015610b7b575060005460ff166001145b610bde5760405162461bcd60e51b815260206004820152602e60248201527f496e697469616c697a61626c653a20636f6e747261637420697320616c72656160448201526d191e481a5b9a5d1a585b1a5e995960921b606482015260840161083f565b6000805460ff191660011790558015610c01576000805461ff0019166101001790555b610c0d858585856112d1565b8015610c53576000805461ff0019169055604051600181527f7f26b83ff96e1f2b6a682f133852f6798a09c465da95921460cefb38474024989060200160405180910390a15b5050505050565b6000805160206122bf833981519152610c7281610eba565b610c7b82610856565b610ce15760405162461bcd60e51b815260206004820152603160248201527f54696d656c6f636b436f6e74726f6c6c65723a206f7065726174696f6e2063616044820152701b9b9bdd0818994818d85b98d95b1b1959607a1b606482015260840161083f565b6000828152609760205260408082208290555183917fbaa1eb22f2a492ba1a5fea61b8df4d27c6c8b5f3971e63bb58fa14ff72eedb7091a25050565b600082815260656020526040902060010154610d3881610eba565b6107b5838361126a565b60008051602061229f833981519152610d5c816000610ad1565b610d6a57610d6a8133610feb565b878614610d895760405162461bcd60e51b815260040161083f90611e71565b878414610da85760405162461bcd60e51b815260040161083f90611e71565b6000610dba8a8a8a8a8a8a8a8a610afc565b9050610dc68185611044565b60005b89811015610ea45760008b8b83818110610de557610de5611eb4565b9050602002016020810190610dfa9190611eca565b905060008a8a84818110610e1057610e10611eb4565b9050602002013590503660008a8a86818110610e2e57610e2e611eb4565b9050602002810190610e409190611ee5565b91509150610e50848484846110df565b84867fc2617efa69bab66782fa219543714338489c4e9e178271560a91b82c3f612b5886868686604051610e879493929190611e3f565b60405180910390a35050505080610e9d90611f41565b9050610dc9565b50610eae816111ab565b50505050505050505050565b610ec48133610feb565b50565b610ed0826107ba565b15610f355760405162461bcd60e51b815260206004820152602f60248201527f54696d656c6f636b436f6e74726f6c6c65723a206f7065726174696f6e20616c60448201526e1c9958591e481cd8da19591d5b1959608a1b606482015260840161083f565b609854811015610f965760405162461bcd60e51b815260206004820152602660248201527f54696d656c6f636b436f6e74726f6c6c65723a20696e73756666696369656e746044820152652064656c617960d01b606482015260840161083f565b610fa08142612097565b6000928352609760205260409092209190915550565b60006001600160e01b03198216637965db0b60e01b14806106c157506301ffc9a760e01b6001600160e01b03198316146106c1565b610ff58282610ad1565b610852576110028161130a565b61100d83602061131c565b60405160200161101e9291906120db565b60408051601f198184030181529082905262461bcd60e51b825261083f91600401612150565b61104d8261076a565b6110695760405162461bcd60e51b815260040161083f90612183565b80158061108457506000818152609760205260409020546001145b6108525760405162461bcd60e51b815260206004820152602660248201527f54696d656c6f636b436f6e74726f6c6c65723a206d697373696e6720646570656044820152656e64656e637960d01b606482015260840161083f565b6000846001600160a01b03168484846040516110fc9291906121cd565b60006040518083038185875af1925050503d8060008114611139576040519150601f19603f3d011682016040523d82523d6000602084013e61113e565b606091505b5050905080610c535760405162461bcd60e51b815260206004820152603360248201527f54696d656c6f636b436f6e74726f6c6c65723a20756e6465726c79696e6720746044820152721c985b9cd858dd1a5bdb881c995d995c9d1959606a1b606482015260840161083f565b6111b48161076a565b6111d05760405162461bcd60e51b815260040161083f90612183565b600090815260976020526040902060019055565b6111ee8282610ad1565b6108525760008281526065602090815260408083206001600160a01b03851684529091529020805460ff191660011790556112263390565b6001600160a01b0316816001600160a01b0316837f2f8788117e7eff1d82e926ec794901d17c78024a50270940304540a733656f0d60405160405180910390a45050565b6112748282610ad1565b156108525760008281526065602090815260408083206001600160a01b0385168085529252808320805460ff1916905551339285917ff6391f5c32d9c69d2a47ea670b442974b53935d1edc7fd64eb21e047a839171b9190a45050565b600054610100900460ff166112f85760405162461bcd60e51b815260040161083f906121dd565b611304848484846114b7565b50505050565b60606106c16001600160a01b03831660145b6060600061132b836002612228565b611336906002612097565b6001600160401b0381111561134d5761134d61187a565b6040519080825280601f01601f191660200182016040528015611377576020820181803683370190505b509050600360fc1b8160008151811061139257611392611eb4565b60200101906001600160f81b031916908160001a905350600f60fb1b816001815181106113c1576113c1611eb4565b60200101906001600160f81b031916908160001a90535060006113e5846002612228565b6113f0906001612097565b90505b6001811115611468576f181899199a1a9b1b9c1cb0b131b232b360811b85600f166010811061142457611424611eb4565b1a60f81b82828151811061143a5761143a611eb4565b60200101906001600160f81b031916908160001a90535060049490941c9361146181612247565b90506113f3565b5083156107895760405162461bcd60e51b815260206004820181905260248201527f537472696e67733a20686578206c656e67746820696e73756666696369656e74604482015260640161083f565b600054610100900460ff166114de5760405162461bcd60e51b815260040161083f906121dd565b6114f660008051602061225f8339815191528061169f565b61151c60008051602061227f83398151915260008051602061225f83398151915261169f565b61154260008051602061229f83398151915260008051602061225f83398151915261169f565b6115686000805160206122bf83398151915260008051602061225f83398151915261169f565b61158060008051602061225f833981519152306116ea565b6001600160a01b038116156115a7576115a760008051602061225f833981519152826116ea565b60005b8351811015611618576115e460008051602061227f8339815191528583815181106115d7576115d7611eb4565b60200260200101516116ea565b6116086000805160206122bf8339815191528583815181106115d7576115d7611eb4565b61161181611f41565b90506115aa565b5060005b82518110156116595761164960008051602061229f8339815191528483815181106115d7576115d7611eb4565b61165281611f41565b905061161c565b5060988490556040805160008152602081018690527f11c24f4ead16507c69ac467fbd5e4eed5fb5c699626d2cc6d66421df253886d5910160405180910390a150505050565b600082815260656020526040808220600101805490849055905190918391839186917fbd79b86ffe0ab8e8776151514217cd7cacd52c909f66475c3af44e129f0b00ff9190a4505050565b61085282826111e4565b80356001600160a01b038116811461170b57600080fd5b919050565b60008083601f84011261172257600080fd5b5081356001600160401b0381111561173957600080fd5b60208301915083602082850101111561175157600080fd5b9250929050565b600080600080600080600060c0888a03121561177357600080fd5b61177c886116f4565b96506020880135955060408801356001600160401b0381111561179e57600080fd5b6117aa8a828b01611710565b989b979a50986060810135976080820135975060a09091013595509350505050565b6000602082840312156117de57600080fd5b81356001600160e01b03198116811461078957600080fd5b60008060008060008060a0878903121561180f57600080fd5b611818876116f4565b95506020870135945060408701356001600160401b0381111561183a57600080fd5b61184689828a01611710565b979a9699509760608101359660809091013595509350505050565b60006020828403121561187357600080fd5b5035919050565b634e487b7160e01b600052604160045260246000fd5b604051601f8201601f191681016001600160401b03811182821017156118b8576118b861187a565b604052919050565b600082601f8301126118d157600080fd5b81356001600160401b038111156118ea576118ea61187a565b6118fd601f8201601f1916602001611890565b81815284602083860101111561191257600080fd5b816020850160208301376000918101602001919091529392505050565b6000806000806080858703121561194557600080fd5b61194e856116f4565b935061195c602086016116f4565b92506040850135915060608501356001600160401b0381111561197e57600080fd5b61198a878288016118c0565b91505092959194509250565b600080604083850312156119a957600080fd5b823591506119b9602084016116f4565b90509250929050565b60008083601f8401126119d457600080fd5b5081356001600160401b038111156119eb57600080fd5b6020830191508360208260051b850101111561175157600080fd5b600080600080600080600080600060c08a8c031215611a2457600080fd5b89356001600160401b0380821115611a3b57600080fd5b611a478d838e016119c2565b909b50995060208c0135915080821115611a6057600080fd5b611a6c8d838e016119c2565b909950975060408c0135915080821115611a8557600080fd5b50611a928c828d016119c2565b9a9d999c50979a969997986060880135976080810135975060a0013595509350505050565b60008060008060008060008060a0898b031215611ad357600080fd5b88356001600160401b0380821115611aea57600080fd5b611af68c838d016119c2565b909a50985060208b0135915080821115611b0f57600080fd5b611b1b8c838d016119c2565b909850965060408b0135915080821115611b3457600080fd5b50611b418b828c016119c2565b999c989b509699959896976060870135966080013595509350505050565b60006001600160401b03821115611b7857611b7861187a565b5060051b60200190565b600082601f830112611b9357600080fd5b81356020611ba8611ba383611b5f565b611890565b82815260059290921b84018101918181019086841115611bc757600080fd5b8286015b84811015611be25780358352918301918301611bcb565b509695505050505050565b600080600080600060a08688031215611c0557600080fd5b611c0e866116f4565b9450611c1c602087016116f4565b935060408601356001600160401b0380821115611c3857600080fd5b611c4489838a01611b82565b94506060880135915080821115611c5a57600080fd5b611c6689838a01611b82565b93506080880135915080821115611c7c57600080fd5b50611c89888289016118c0565b9150509295509295909350565b600082601f830112611ca757600080fd5b81356020611cb7611ba383611b5f565b82815260059290921b84018101918181019086841115611cd657600080fd5b8286015b84811015611be257611ceb816116f4565b8352918301918301611cda565b60008060008060808587031215611d0e57600080fd5b8435935060208501356001600160401b0380821115611d2c57600080fd5b611d3888838901611c96565b94506040870135915080821115611d4e57600080fd5b50611d5b87828801611c96565b925050611d6a606086016116f4565b905092959194509250565b600080600080600060a08688031215611d8d57600080fd5b611d96866116f4565b9450611da4602087016116f4565b9350604086013592506060860135915060808601356001600160401b03811115611dcd57600080fd5b611c89888289016118c0565b81835281816020850137506000828201602090810191909152601f909101601f19169091010190565b60018060a01b038716815285602082015260a060408201526000611e2a60a083018688611dd9565b60608301949094525060800152949350505050565b60018060a01b0385168152836020820152606060408201526000611e67606083018486611dd9565b9695505050505050565b60208082526023908201527f54696d656c6f636b436f6e74726f6c6c65723a206c656e677468206d69736d616040820152620e8c6d60eb1b606082015260800190565b634e487b7160e01b600052603260045260246000fd5b600060208284031215611edc57600080fd5b610789826116f4565b6000808335601e19843603018112611efc57600080fd5b8301803591506001600160401b03821115611f1657600080fd5b60200191503681900382131561175157600080fd5b634e487b7160e01b600052601160045260246000fd5b6000600019821415611f5557611f55611f2b565b5060010190565b81835260006020808501808196508560051b810191508460005b87811015611fdf5782840389528135601e19883603018112611f9757600080fd5b870180356001600160401b03811115611faf57600080fd5b803603891315611fbe57600080fd5b611fcb8682898501611dd9565b9a87019a9550505090840190600101611f76565b5091979650505050505050565b60a0808252810188905260008960c08301825b8b81101561202d576001600160a01b03612018846116f4565b16825260209283019290910190600101611fff565b5083810360208501528881526001600160fb1b0389111561204d57600080fd5b8860051b9150818a60208301378181019150506020810160008152602084830301604085015261207e81888a611f5c565b6060850196909652505050608001529695505050505050565b600082198211156120aa576120aa611f2b565b500190565b60005b838110156120ca5781810151838201526020016120b2565b838111156113045750506000910152565b7f416363657373436f6e74726f6c3a206163636f756e74200000000000000000008152600083516121138160178501602088016120af565b7001034b99036b4b9b9b4b733903937b6329607d1b60179184019182015283516121448160288401602088016120af565b01602801949350505050565b602081526000825180602084015261216f8160408501602087016120af565b601f01601f19169190910160400192915050565b6020808252602a908201527f54696d656c6f636b436f6e74726f6c6c65723a206f7065726174696f6e206973604082015269206e6f7420726561647960b01b606082015260800190565b8183823760009101908152919050565b6020808252602b908201527f496e697469616c697a61626c653a20636f6e7472616374206973206e6f74206960408201526a6e697469616c697a696e6760a81b606082015260800190565b600081600019048311821515161561224257612242611f2b565b500290565b60008161225657612256611f2b565b50600019019056fe5f58e3a2316349923ce3780f8d587db2d72378aed66a8261c916544fa6846ca5b09aa5aeb3702cfd50b6b62bc4532604938f21248a27a1d5ca736082b6819cc1d8aa0f3194971a2a116679f7c2090f6939c8d4e01a2a8d7e41d55e5351469e63fd643c72710c63c0180259aba6b2d05451e3591a24e58b62239378085726f783a26469706673582212206afc7776db2ad601e0d6deb0b7a16e5138b46834d2a05301f5de435da383b1b764736f6c63430008090033",
  "devdoc": {
    "details": "This was only really needed because TimelockControllerUpgradeable does not expose a public initializer, so we need to inherit and expose the initialization function here. Even though this contract is upgradeable to fit with the rest of the contracts that expect upgradeable instances, it is not used with a proxy, so we don't need to disable initializers in the constructor.",
    "kind": "dev",
    "methods": {
      "cancel(bytes32)": {
        "details": "Cancel an operation. Requirements: - the caller must have the 'canceller' role."
      },
      "execute(address,uint256,bytes,bytes32,bytes32)": {
        "details": "Execute an (ready) operation containing a single transaction. Emits a {CallExecuted} event. Requirements: - the caller must have the 'executor' role."
      },
      "executeBatch(address[],uint256[],bytes[],bytes32,bytes32)": {
        "details": "Execute an (ready) operation containing a batch of transactions. Emits one {CallExecuted} event per transaction in the batch. Requirements: - the caller must have the 'executor' role."
      },
      "getMinDelay()": {
        "details": "Returns the minimum delay for an operation to become valid. This value can be changed by executing an operation that calls `updateDelay`."
      },
      "getRoleAdmin(bytes32)": {
        "details": "Returns the admin role that controls `role`. See {grantRole} and {revokeRole}. To change a role's admin, use {_setRoleAdmin}."
      },
      "getTimestamp(bytes32)": {
        "details": "Returns the timestamp at which an operation becomes ready (0 for unset operations, 1 for done operations)."
      },
      "grantRole(bytes32,address)": {
        "details": "Grants `role` to `account`. If `account` had not been already granted `role`, emits a {RoleGranted} event. Requirements: - the caller must have ``role``'s admin role. May emit a {RoleGranted} event."
      },
      "hasRole(bytes32,address)": {
        "details": "Returns `true` if `account` has been granted `role`."
      },
      "hashOperation(address,uint256,bytes,bytes32,bytes32)": {
        "details": "Returns the identifier of an operation containing a single transaction."
      },
      "hashOperationBatch(address[],uint256[],bytes[],bytes32,bytes32)": {
        "details": "Returns the identifier of an operation containing a batch of transactions."
      },
      "isOperation(bytes32)": {
        "details": "Returns whether an id correspond to a registered operation. This includes both Pending, Ready and Done operations."
      },
      "isOperationDone(bytes32)": {
        "details": "Returns whether an operation is done or not."
      },
      "isOperationPending(bytes32)": {
        "details": "Returns whether an operation is pending or not. Note that a \"pending\" operation may also be \"ready\"."
      },
      "isOperationReady(bytes32)": {
        "details": "Returns whether an operation is ready for execution. Note that a \"ready\" operation is also \"pending\"."
      },
      "onERC1155BatchReceived(address,address,uint256[],uint256[],bytes)": {
        "details": "See {IERC1155Receiver-onERC1155BatchReceived}."
      },
      "onERC1155Received(address,address,uint256,uint256,bytes)": {
        "details": "See {IERC1155Receiver-onERC1155Received}."
      },
      "onERC721Received(address,address,uint256,bytes)": {
        "details": "See {IERC721Receiver-onERC721Received}."
      },
      "renounceRole(bytes32,address)": {
        "details": "Revokes `role` from the calling account. Roles are often managed via {grantRole} and {revokeRole}: this function's purpose is to provide a mechanism for accounts to lose their privileges if they are compromised (such as when a trusted device is misplaced). If the calling account had been revoked `role`, emits a {RoleRevoked} event. Requirements: - the caller must be `account`. May emit a {RoleRevoked} event."
      },
      "revokeRole(bytes32,address)": {
        "details": "Revokes `role` from `account`. If `account` had been granted `role`, emits a {RoleRevoked} event. Requirements: - the caller must have ``role``'s admin role. May emit a {RoleRevoked} event."
      },
      "schedule(address,uint256,bytes,bytes32,bytes32,uint256)": {
        "details": "Schedule an operation containing a single transaction. Emits {CallSalt} if salt is nonzero, and {CallScheduled}. Requirements: - the caller must have the 'proposer' role."
      },
      "scheduleBatch(address[],uint256[],bytes[],bytes32,bytes32,uint256)": {
        "details": "Schedule an operation containing a batch of transactions. Emits {CallSalt} if salt is nonzero, and one {CallScheduled} event per transaction in the batch. Requirements: - the caller must have the 'proposer' role."
      },
      "supportsInterface(bytes4)": {
        "details": "See {IERC165-supportsInterface}."
      },
      "updateDelay(uint256)": {
        "details": "Changes the minimum timelock duration for future operations. Emits a {MinDelayChange} event. Requirements: - the caller must be the timelock itself. This can only be achieved by scheduling and later executing an operation where the timelock is the target and the data is the ABI-encoded call to this function."
      }
    },
    "title": "Treasury",
    "version": 1
  },
  "userdoc": {
    "kind": "user",
    "methods": {},
    "notice": "Holder of the treasury and executor of proposals for the LivepeerGovernor.",
    "version": 1
  },
  "storageLayout": {
    "storage": [
      {
        "astId": 4644,
        "contract": "contracts/treasury/Treasury.sol:Treasury",
        "label": "_initialized",
        "offset": 0,
        "slot": "0",
        "type": "t_uint8"
      },
      {
        "astId": 4647,
        "contract": "contracts/treasury/Treasury.sol:Treasury",
        "label": "_initializing",
        "offset": 1,
        "slot": "0",
        "type": "t_bool"
      },
      {
        "astId": 9041,
        "contract": "contracts/treasury/Treasury.sol:Treasury",
        "label": "__gap",
        "offset": 0,
        "slot": "1",
        "type": "t_array(t_uint256)50_storage"
      },
      {
        "astId": 10148,
        "contract": "contracts/treasury/Treasury.sol:Treasury",
        "label": "__gap",
        "offset": 0,
        "slot": "51",
        "type": "t_array(t_uint256)50_storage"
      },
      {
        "astId": 39,
        "contract": "contracts/treasury/Treasury.sol:Treasury",
        "label": "_roles",
        "offset": 0,
        "slot": "101",
        "type": "t_mapping(t_bytes32,t_struct(RoleData)34_storage)"
      },
      {
        "astId": 334,
        "contract": "contracts/treasury/Treasury.sol:Treasury",
        "label": "__gap",
        "offset": 0,
        "slot": "102",
        "type": "t_array(t_uint256)49_storage"
      },
      {
        "astId": 2549,
        "contract": "contracts/treasury/Treasury.sol:Treasury",
        "label": "_timestamps",
        "offset": 0,
        "slot": "151",
        "type": "t_mapping(t_bytes32,t_uint256)"
      },
      {
        "astId": 2551,
        "contract": "contracts/treasury/Treasury.sol:Treasury",
        "label": "_minDelay",
        "offset": 0,
        "slot": "152",
        "type": "t_uint256"
      },
      {
        "astId": 3482,
        "contract": "contracts/treasury/Treasury.sol:Treasury",
        "label": "__gap",
        "offset": 0,
        "slot": "153",
        "type": "t_array(t_uint256)48_storage"
      }
    ],
    "types": {
      "t_address": {
        "encoding": "inplace",
        "label": "address",
        "numberOfBytes": "20"
      },
      "t_array(t_uint256)48_storage": {
        "base": "t_uint256",
        "encoding": "inplace",
        "label": "uint256[48]",
        "numberOfBytes": "1536"
      },
      "t_array(t_uint256)49_storage": {
        "base": "t_uint256",
        "encoding": "inplace",
        "label": "uint256[49]",
        "numberOfBytes": "1568"
      },
      "t_array(t_uint256)50_storage": {
        "base": "t_uint256",
        "encoding": "inplace",
        "label": "uint256[50]",
        "numberOfBytes": "1600"
      },
      "t_bool": {
        "encoding": "inplace",
        "label": "bool",
        "numberOfBytes": "1"
      },
      "t_bytes32": {
        "encoding": "inplace",
        "label": "bytes32",
        "numberOfBytes": "32"
      },
      "t_mapping(t_address,t_bool)": {
        "encoding": "mapping",
        "key": "t_address",
        "label": "mapping(address => bool)",
        "numberOfBytes": "32",
        "value": "t_bool"
      },
      "t_mapping(t_bytes32,t_struct(RoleData)34_storage)": {
        "encoding": "mapping",
        "key": "t_bytes32",
        "label": "mapping(bytes32 => struct AccessControlUpgradeable.RoleData)",
        "numberOfBytes": "32",
        "value": "t_struct(RoleData)34_storage"
      },
      "t_mapping(t_bytes32,t_uint256)": {
        "encoding": "mapping",
        "key": "t_bytes32",
        "label": "mapping(bytes32 => uint256)",
        "numberOfBytes": "32",
        "value": "t_uint256"
      },
      "t_struct(RoleData)34_storage": {
        "encoding": "inplace",
        "label": "struct AccessControlUpgradeable.RoleData",
        "members": [
          {
            "astId": 31,
            "contract": "contracts/treasury/Treasury.sol:Treasury",
            "label": "members",
            "offset": 0,
            "slot": "0",
            "type": "t_mapping(t_address,t_bool)"
          },
          {
            "astId": 33,
            "contract": "contracts/treasury/Treasury.sol:Treasury",
            "label": "adminRole",
            "offset": 0,
            "slot": "1",
            "type": "t_bytes32"
          }
        ],
        "numberOfBytes": "64"
      },
      "t_uint256": {
        "encoding": "inplace",
        "label": "uint256",
        "numberOfBytes": "32"
      },
      "t_uint8": {
        "encoding": "inplace",
        "label": "uint8",
        "numberOfBytes": "1"
      }
    }
  }
}