{
  "address": "0x6F51155f20c322A579A8996740973A7446F7BD55",
  "abi": [
    {
      "inputs": [
        {
          "internalType": "address",
          "name": "_controller",
          "type": "address"
        }
      ],
      "stateMutability": "nonpayable",
      "type": "constructor"
    },
    {
      "inputs": [
        {
          "internalType": "uint256",
          "name": "newValue",
          "type": "uint256"
        },
        {
          "internalType": "uint256",
          "name": "lastValue",
          "type": "uint256"
        }
      ],
      "name": "DecreasingValues",
      "type": "error"
    },
    {
      "inputs": [
        {
          "internalType": "uint256",
          "name": "lastClaimRound",
          "type": "uint256"
        },
        {
          "internalType": "uint256",
          "name": "maxAllowed",
          "type": "uint256"
        }
      ],
      "name": "FutureLastClaimRound",
      "type": "error"
    },
    {
      "inputs": [
        {
          "internalType": "uint256",
          "name": "queryRound",
          "type": "uint256"
        },
        {
          "internalType": "uint256",
          "name": "maxAllowed",
          "type": "uint256"
        }
      ],
      "name": "FutureLookup",
      "type": "error"
    },
    {
      "inputs": [
        {
          "internalType": "uint256",
          "name": "checkpointRound",
          "type": "uint256"
        },
        {
          "internalType": "uint256",
          "name": "maxAllowedRound",
          "type": "uint256"
        }
      ],
      "name": "FutureTotalStakeCheckpoint",
      "type": "error"
    },
    {
      "inputs": [
        {
          "internalType": "address",
          "name": "caller",
          "type": "address"
        },
        {
          "internalType": "address",
          "name": "required",
          "type": "address"
        }
      ],
      "name": "InvalidCaller",
      "type": "error"
    },
    {
      "inputs": [
        {
          "internalType": "uint256",
          "name": "checkpointRound",
          "type": "uint256"
        },
        {
          "internalType": "uint256",
          "name": "requiredRound",
          "type": "uint256"
        }
      ],
      "name": "InvalidStartRound",
      "type": "error"
    },
    {
      "inputs": [
        {
          "internalType": "address",
          "name": "transcoder",
          "type": "address"
        },
        {
          "internalType": "uint256",
          "name": "round",
          "type": "uint256"
        }
      ],
      "name": "MissingEarningsPool",
      "type": "error"
    },
    {
      "inputs": [
        {
          "internalType": "string",
          "name": "bondingManagerFunction",
          "type": "string"
        }
      ],
      "name": "MustCallBondingManager",
      "type": "error"
    },
    {
      "anonymous": false,
      "inputs": [
        {
          "indexed": true,
          "internalType": "address",
          "name": "delegator",
          "type": "address"
        },
        {
          "indexed": true,
          "internalType": "address",
          "name": "fromDelegate",
          "type": "address"
        },
        {
          "indexed": true,
          "internalType": "address",
          "name": "toDelegate",
          "type": "address"
        }
      ],
      "name": "DelegateChanged",
      "type": "event"
    },
    {
      "anonymous": false,
      "inputs": [
        {
          "indexed": true,
          "internalType": "address",
          "name": "delegate",
          "type": "address"
        },
        {
          "indexed": false,
          "internalType": "uint256",
          "name": "previousBalance",
          "type": "uint256"
        },
        {
          "indexed": false,
          "internalType": "uint256",
          "name": "newBalance",
          "type": "uint256"
        }
      ],
      "name": "DelegateVotesChanged",
      "type": "event"
    },
    {
      "anonymous": false,
      "inputs": [
        {
          "indexed": true,
          "internalType": "address",
          "name": "delegate",
          "type": "address"
        },
        {
          "indexed": false,
          "internalType": "uint256",
          "name": "previousBalance",
          "type": "uint256"
        },
        {
          "indexed": false,
          "internalType": "uint256",
          "name": "newBalance",
          "type": "uint256"
        }
      ],
      "name": "DelegatorVotesChanged",
      "type": "event"
    },
    {
      "anonymous": false,
      "inputs": [
        {
          "indexed": false,
          "internalType": "string",
          "name": "param",
          "type": "string"
        }
      ],
      "name": "ParameterUpdate",
      "type": "event"
    },
    {
      "anonymous": false,
      "inputs": [
        {
          "indexed": false,
          "internalType": "address",
          "name": "controller",
          "type": "address"
        }
      ],
      "name": "SetController",
      "type": "event"
    },
    {
      "inputs": [],
      "name": "CLOCK_MODE",
      "outputs": [
        {
          "internalType": "string",
          "name": "",
          "type": "string"
        }
      ],
      "stateMutability": "pure",
      "type": "function"
    },
    {
      "inputs": [
        {
          "internalType": "address",
          "name": "_account",
          "type": "address"
        },
        {
          "internalType": "uint256",
          "name": "_startRound",
          "type": "uint256"
        },
        {
          "internalType": "uint256",
          "name": "_bondedAmount",
          "type": "uint256"
        },
        {
          "internalType": "address",
          "name": "_delegateAddress",
          "type": "address"
        },
        {
          "internalType": "uint256",
          "name": "_delegatedAmount",
          "type": "uint256"
        },
        {
          "internalType": "uint256",
          "name": "_lastClaimRound",
          "type": "uint256"
        },
        {
          "internalType": "uint256",
          "name": "_lastRewardRound",
          "type": "uint256"
        }
      ],
      "name": "checkpointBondingState",
      "outputs": [],
      "stateMutability": "nonpayable",
      "type": "function"
    },
    {
      "inputs": [
        {
          "internalType": "uint256",
          "name": "_totalStake",
          "type": "uint256"
        },
        {
          "internalType": "uint256",
          "name": "_round",
          "type": "uint256"
        }
      ],
      "name": "checkpointTotalActiveStake",
      "outputs": [],
      "stateMutability": "nonpayable",
      "type": "function"
    },
    {
      "inputs": [],
      "name": "clock",
      "outputs": [
        {
          "internalType": "uint48",
          "name": "",
          "type": "uint48"
        }
      ],
      "stateMutability": "view",
      "type": "function"
    },
    {
      "inputs": [],
      "name": "controller",
      "outputs": [
        {
          "internalType": "contract IController",
          "name": "",
          "type": "address"
        }
      ],
      "stateMutability": "view",
      "type": "function"
    },
    {
      "inputs": [],
      "name": "decimals",
      "outputs": [
        {
          "internalType": "uint8",
          "name": "",
          "type": "uint8"
        }
      ],
      "stateMutability": "view",
      "type": "function"
    },
    {
      "inputs": [
        {
          "internalType": "address",
          "name": "",
          "type": "address"
        }
      ],
      "name": "delegate",
      "outputs": [],
      "stateMutability": "pure",
      "type": "function"
    },
    {
      "inputs": [
        {
          "internalType": "address",
          "name": "",
          "type": "address"
        },
        {
          "internalType": "uint256",
          "name": "",
          "type": "uint256"
        },
        {
          "internalType": "uint256",
          "name": "",
          "type": "uint256"
        },
        {
          "internalType": "uint8",
          "name": "",
          "type": "uint8"
        },
        {
          "internalType": "bytes32",
          "name": "",
          "type": "bytes32"
        },
        {
          "internalType": "bytes32",
          "name": "",
          "type": "bytes32"
        }
      ],
      "name": "delegateBySig",
      "outputs": [],
      "stateMutability": "pure",
      "type": "function"
    },
    {
      "inputs": [
        {
          "internalType": "address",
          "name": "_account",
          "type": "address"
        },
        {
          "internalType": "uint256",
          "name": "_round",
          "type": "uint256"
        }
      ],
      "name": "delegatedAt",
      "outputs": [
        {
          "internalType": "address",
          "name": "",
          "type": "address"
        }
      ],
      "stateMutability": "view",
      "type": "function"
    },
    {
      "inputs": [
        {
          "internalType": "address",
          "name": "_account",
          "type": "address"
        }
      ],
      "name": "delegates",
      "outputs": [
        {
          "internalType": "address",
          "name": "",
          "type": "address"
        }
      ],
      "stateMutability": "view",
      "type": "function"
    },
    {
      "inputs": [
        {
          "internalType": "address",
          "name": "_account",
          "type": "address"
        },
        {
          "internalType": "uint256",
          "name": "_round",
          "type": "uint256"
        }
      ],
      "name": "getBondingStateAt",
      "outputs": [
        {
          "internalType": "uint256",
          "name": "amount",
          "type": "uint256"
        },
        {
          "internalType": "address",
          "name": "delegateAddress",
          "type": "address"
        }
      ],
      "stateMutability": "view",
      "type": "function"
    },
    {
      "inputs": [
        {
          "internalType": "uint256",
          "name": "_round",
          "type": "uint256"
        }
      ],
      "name": "getPastTotalSupply",
      "outputs": [
        {
          "internalType": "uint256",
          "name": "",
          "type": "uint256"
        }
      ],
      "stateMutability": "view",
      "type": "function"
    },
    {
      "inputs": [
        {
          "internalType": "address",
          "name": "_account",
          "type": "address"
        },
        {
          "internalType": "uint256",
          "name": "_round",
          "type": "uint256"
        }
      ],
      "name": "getPastVotes",
      "outputs": [
        {
          "internalType": "uint256",
          "name": "",
          "type": "uint256"
        }
      ],
      "stateMutability": "view",
      "type": "function"
    },
    {
      "inputs": [
        {
          "internalType": "uint256",
          "name": "_round",
          "type": "uint256"
        }
      ],
      "name": "getTotalActiveStakeAt",
      "outputs": [
        {
          "internalType": "uint256",
          "name": "",
          "type": "uint256"
        }
      ],
      "stateMutability": "view",
      "type": "function"
    },
    {
      "inputs": [
        {
          "internalType": "address",
          "name": "_account",
          "type": "address"
        }
      ],
      "name": "getVotes",
      "outputs": [
        {
          "internalType": "uint256",
          "name": "",
          "type": "uint256"
        }
      ],
      "stateMutability": "view",
      "type": "function"
    },
    {
      "inputs": [
        {
          "internalType": "address",
          "name": "_account",
          "type": "address"
        }
      ],
      "name": "hasCheckpoint",
      "outputs": [
        {
          "internalType": "bool",
          "name": "",
          "type": "bool"
        }
      ],
      "stateMutability": "view",
      "type": "function"
    },
    {
      "inputs": [],
      "name": "name",
      "outputs": [
        {
          "internalType": "string",
          "name": "",
          "type": "string"
        }
      ],
      "stateMutability": "view",
      "type": "function"
    },
    {
      "inputs": [
        {
          "internalType": "address",
          "name": "_controller",
          "type": "address"
        }
      ],
      "name": "setController",
      "outputs": [],
      "stateMutability": "nonpayable",
      "type": "function"
    },
    {
      "inputs": [],
      "name": "symbol",
      "outputs": [
        {
          "internalType": "string",
          "name": "",
          "type": "string"
        }
      ],
      "stateMutability": "view",
      "type": "function"
    },
    {
      "inputs": [],
      "name": "targetContractId",
      "outputs": [
        {
          "internalType": "bytes32",
          "name": "",
          "type": "bytes32"
        }
      ],
      "stateMutability": "view",
      "type": "function"
    }
  ],
  "transactionHash": "0x3e1e140ca4f41f7d1af4afee0a4adf394604d01ab103c1b6a798a6aec7399b16",
  "args": [
    "0x53Ea65f3E8B06d07DC1008276c5e4aa15126502B"
  ],
  "numDeployments": 2,
  "solcInputHash": "ff38c7bd49c32e9630f78a6ad5ac9666",
  "bytecode": "0x608060405234801561001057600080fd5b5060405161191138038061191183398101604081905261002f91610054565b600080546001600160a01b0319166001600160a01b0392909216919091179055610084565b60006020828403121561006657600080fd5b81516001600160a01b038116811461007d57600080fd5b9392505050565b61187e806100936000396000f3fe608060405234801561001057600080fd5b506004361061012c5760003560e01c806395d89b41116100ad578063d3df973311610071578063d3df9733146102e1578063e35c3e4314610311578063ef105c9114610324578063f77c479114610337578063f92e135b1461034a57600080fd5b806395d89b41146102655780639ab24eb01461026d578063b782c2bd14610280578063c3cda52014610293578063c656a01e146102a657600080fd5b8063587cde1e116100f4578063587cde1e146101e05780635c19a95c1461020b5780638e539e8c1461022057806391ddadf41461023357806392eefe9b1461025257600080fd5b806306fdde0314610131578063313ce5671461016d5780633a46b1a8146101875780634bf5d7e9146101a857806351720b41146101d7575b600080fd5b60408051808201909152600e81526d4c69766570656572205374616b6560901b60208201525b6040516101649190611477565b60405180910390f35b61017561035d565b60405160ff9091168152602001610164565b61019a6101953660046114c2565b6103dc565b604051908152602001610164565b6040805180820190915260138152721b5bd9194f5b1a5d995c19595c97dc9bdd5b99606a1b6020820152610157565b61019a60015481565b6101f36101ee3660046114ee565b6103f9565b6040516001600160a01b039091168152602001610164565b61021e6102193660046114ee565b610414565b005b61019a61022e36600461150b565b61044f565b61023b61045f565b60405165ffffffffffff9091168152602001610164565b61021e6102603660046114ee565b6104e1565b61015761053d565b61019a61027b3660046114ee565b6105bb565b61019a61028e36600461150b565b6105d6565b61021e6102a1366004611533565b610734565b6102d16102b43660046114ee565b6001600160a01b0316600090815260026020526040902054151590565b6040519015158152602001610164565b6102f46102ef3660046114c2565b610767565b604080519283526001600160a01b03909116602083015201610164565b61021e61031f36600461158f565b6107c7565b61021e6103323660046115f4565b610a03565b6000546101f3906001600160a01b031681565b6101f36103583660046114c2565b610a75565b6000610367610a87565b6001600160a01b031663313ce5676040518163ffffffff1660e01b815260040160206040518083038186803b15801561039f57600080fd5b505afa1580156103b3573d6000803e3d6000fd5b505050506040513d601f19601f820116820180604052508101906103d79190611616565b905090565b6000806103ee846102ef856001611649565b509150505b92915050565b60006103f38261040761045f565b65ffffffffffff16610a75565b60405163866cb42d60e01b815260040161044690602080825260049082015263189bdb9960e21b604082015260600190565b60405180910390fd5b60006103f361028e836001611649565b60006103d761046c610b24565b6001600160a01b0316638a19c8bc6040518163ffffffff1660e01b815260040160206040518083038186803b1580156104a457600080fd5b505afa1580156104b8573d6000803e3d6000fd5b505050506040513d601f19601f820116820180604052508101906104dc9190611661565b610b75565b6104e9610be0565b600080546001600160a01b0319166001600160a01b0383169081179091556040519081527f4ff638452bbf33c012645d18ae6f05515ff5f2d1dfb0cece8cbf018c60903f709060200160405180910390a150565b6060610547610a87565b6001600160a01b03166395d89b416040518163ffffffff1660e01b815260040160006040518083038186803b15801561057f57600080fd5b505afa158015610593573d6000803e3d6000fd5b505050506040513d6000823e601f3d908101601f191682016040526103d79190810190611690565b60006103f3826105c961045f565b65ffffffffffff166103dc565b60006105e061045f565b6105eb90600161173d565b65ffffffffffff16821115610638578161060361045f565b61060e90600161173d565b604051637f07449b60e01b8152600481019290925265ffffffffffff166024820152604401610446565b60008281526004602052604090205480156106535792915050565b600360006106618286610c3c565b90508061067357506000949350505050565b81548110156106b357600082828154811061069057610690611767565b600091825260208083209091015482526004905260409020549695505050505050565b6106bb610cdb565b6001600160a01b031663465501d36040518163ffffffff1660e01b815260040160206040518083038186803b1580156106f357600080fd5b505afa158015610707573d6000803e3d6000fd5b505050506040513d601f19601f8201168201806040525081019061072b9190611661565b95945050505050565b60405163866cb42d60e01b81526020600482015260076024820152663137b7322337b960c91b6044820152606401610446565b60008060006107768585610d2c565b600181015481546001600160a01b039182169450919250861683149061079f57600093506107be565b80156107b157816002015493506107be565b6107bb8286610df2565b93505b50509250929050565b6107cf610e70565b6107d761045f565b6107e290600161173d565b65ffffffffffff16861461082e57856107f961045f565b61080490600161173d565b60405163b986b59960e01b8152600481019290925265ffffffffffff166024820152604401610446565b858210610863578161084160018861177d565b6040516308384c5960e11b815260048101929092526024820152604401610446565b61089e6040518060a001604052806000815260200160006001600160a01b031681526020016000815260200160008152602001600081525090565b6001600160a01b0388166000908152600260205260409020541561090b576108c68888610d2c565b6040805160a0810182528254815260018301546001600160a01b0316602082015260028301549181019190915260038201546060820152600490910154608082015290505b6000600260008a6001600160a01b03166001600160a01b03168152602001908152602001600020905060006040518060a00160405280898152602001886001600160a01b03168152602001878152602001868152602001858152509050808260010160008b81526020019081526020016000206000820151816000015560208201518160010160006101000a8154816001600160a01b0302191690836001600160a01b031602179055506040820151816002015560608201518160030155608082015181600401559050506109ec8983600001610ec590919063ffffffff16565b6109f78a8483610f60565b50505050505050505050565b610a0b610e70565b610a1361045f565b65ffffffffffff16811115610a555780610a2b61045f565b604051637bc69a8f60e11b8152600481019290925265ffffffffffff166024820152604401610446565b6000818152600460205260409020829055610a71600382610ec5565b5050565b60008061072b846102ef856001611649565b60008054604051631c2d8fb360e31b81527f3443e257065fe41dd0e4d1f5a1b73a22a62e300962b57f30cddf41d0f8273ba760048201526001600160a01b039091169063e16c7d98906024015b60206040518083038186803b158015610aec57600080fd5b505afa158015610b00573d6000803e3d6000fd5b505050506040513d601f19601f820116820180604052508101906103d79190611794565b60008054604051631c2d8fb360e31b81527fe8438ea868df48e3fc21f2f087b993c9b1837dc0f6135064161ce7d7a1701fe860048201526001600160a01b039091169063e16c7d9890602401610ad4565b600065ffffffffffff821115610bdc5760405162461bcd60e51b815260206004820152602660248201527f53616665436173743a2076616c756520646f65736e27742066697420696e203460448201526538206269747360d01b6064820152608401610446565b5090565b6000546001600160a01b03163314610c3a5760405162461bcd60e51b815260206004820152601960248201527f63616c6c6572206d75737420626520436f6e74726f6c6c6572000000000000006044820152606401610446565b565b8154600090610c4d575060006103f3565b82546000905b80821015610c97576000610c6783836110e1565b905084610c748783611103565b541115610c8357809150610c91565b610c8e816001611649565b92505b50610c53565b600082118015610cba575083610cb786610cb260018661177d565b611103565b54145b15610cd357610cca60018361177d565b925050506103f3565b5090506103f3565b60008054604051631c2d8fb360e31b81527f2517d59a36a86548e38734e8ab416f42afff4bca78706a66ad65750dae7f9e3760048201526001600160a01b039091169063e16c7d9890602401610ad4565b6000610d3661045f565b610d4190600161173d565b65ffffffffffff16821115610d59578161060361045f565b6001600160a01b038316600090815260026020908152604080832085845260018101909252909120805415610d915791506103f39050565b6000610d9d8386611118565b8354909150811415610db3575091506103f39050565b6000836000018281548110610dca57610dca611767565b6000918252602080832090910154825260019095019094525050604090912091505092915050565b600182015460038301546000918291610e14916001600160a01b0316906111ce565b60018501549091506000908190610e34906001600160a01b0316866112a6565b915091508560030154821015610e51575050835491506103f39050565b6000610e64848389600001546000611341565b50979650505050505050565b610e78610cdb565b6001600160a01b0316336001600160a01b031614610c3a5733610e99610cdb565b6040516302d9d9c960e31b81526001600160a01b03928316600482015291166024820152604401610446565b8154610ee35781546001810183556000928352602090922090910155565b81546000908390610ef69060019061177d565b81548110610f0657610f06611767565b9060005260206000200154905080821015610f3e576040516328ffde6160e01b81526004810183905260248101829052604401610446565b808214610f5b578254600181018455600084815260209020018290555b505050565b602080830151908201516001600160a01b0380831690821614610fc857806001600160a01b0316826001600160a01b0316866001600160a01b03167f3134e8a2e6d97e929a7e54011ea5485d7d196dd5f0ba4d4ef95803e8e3fc257f60405160405180910390a45b6001600160a01b0385811682821681149184161481156110315760408087015186820151825191825260208201526001600160a01b038916917fdec2bacdd2f05b59de34da9b523dff8be42e5e38e818c82fdb0bae774387a724910160405180910390a2611080565b8015611080576040808701518151908152600060208201526001600160a01b038916917fdec2bacdd2f05b59de34da9b523dff8be42e5e38e818c82fdb0bae774387a724910160405180910390a25b84518651146110d857855185516040516001600160a01b038a16927ff94a8b61475e2d24d0d739caf5475aacd0f93141192d582dabe94a96ddafe27a926110cf92918252602082015260400190565b60405180910390a25b50505050505050565b60006110f060028484186117b1565b6110fc90848416611649565b9392505050565b6000828152602081208201805b949350505050565b81546000908061112c5760009150506103f3565b828461113960018461177d565b8154811061114957611149611767565b90600052602060002001541161116c5761116460018261177d565b9150506103f3565b60006111788585610c3c565b9050818110611189576111896117d3565b8385828154811061119c5761119c611767565b906000526020600020015414156111b65791506103f39050565b806111c3575090506103f3565b61072b60018261177d565b6112006040518060a0016040528060008152602001600081526020016000815260200160008152602001600081525090565b611208610cdb565b60405163091153f160e21b81526001600160a01b0385811660048301526024820185905291909116906324454fc49060440160a06040518083038186803b15801561125257600080fd5b505afa158015611266573d6000803e3d6000fd5b505050506040513d601f19601f8201168201806040525081019061128a91906117e9565b6080860152606085015260408401526020830152815292915050565b60006112da6040518060a0016040528060008152602001600081526020016000815260200160008152602001600081525090565b60006112e68585610d2c565b6004810154935090508215611339576112ff85846111ce565b915081606001516000141561133957604051634956ad3960e11b81526001600160a01b038616600482015260248101849052604401610446565b509250929050565b6000808560600151600014156113625761135c6001806113cf565b60608701525b606085015161137c576113766001806113cf565b60608601525b6113af6113a88561139e896080015189608001516113f190919063ffffffff16565b89606001516113fd565b8490611423565b90506113c484866060015188606001516113fd565b915094509492505050565b60006110fc826113eb856b033b2e3c9fd0803ce800000061142f565b9061143b565b60006110fc828461177d565b60006111106b033b2e3c9fd0803ce80000006113eb61141c86866113cf565b879061142f565b60006110fc8284611649565b60006110fc8284611829565b60006110fc82846117b1565b60005b8381101561146257818101518382015260200161144a565b83811115611471576000848401525b50505050565b6020815260008251806020840152611496816040850160208701611447565b601f01601f19169190910160400192915050565b6001600160a01b03811681146114bf57600080fd5b50565b600080604083850312156114d557600080fd5b82356114e0816114aa565b946020939093013593505050565b60006020828403121561150057600080fd5b81356110fc816114aa565b60006020828403121561151d57600080fd5b5035919050565b60ff811681146114bf57600080fd5b60008060008060008060c0878903121561154c57600080fd5b8635611557816114aa565b95506020870135945060408701359350606087013561157581611524565b9598949750929560808101359460a0909101359350915050565b600080600080600080600060e0888a0312156115aa57600080fd5b87356115b5816114aa565b9650602088013595506040880135945060608801356115d3816114aa565b9699959850939660808101359560a0820135955060c0909101359350915050565b6000806040838503121561160757600080fd5b50508035926020909101359150565b60006020828403121561162857600080fd5b81516110fc81611524565b634e487b7160e01b600052601160045260246000fd5b6000821982111561165c5761165c611633565b500190565b60006020828403121561167357600080fd5b5051919050565b634e487b7160e01b600052604160045260246000fd5b6000602082840312156116a257600080fd5b815167ffffffffffffffff808211156116ba57600080fd5b818401915084601f8301126116ce57600080fd5b8151818111156116e0576116e061167a565b604051601f8201601f19908116603f011681019083821181831017156117085761170861167a565b8160405282815287602084870101111561172157600080fd5b611732836020830160208801611447565b979650505050505050565b600065ffffffffffff80831681851680830382111561175e5761175e611633565b01949350505050565b634e487b7160e01b600052603260045260246000fd5b60008282101561178f5761178f611633565b500390565b6000602082840312156117a657600080fd5b81516110fc816114aa565b6000826117ce57634e487b7160e01b600052601260045260246000fd5b500490565b634e487b7160e01b600052600160045260246000fd5b600080600080600060a0868803121561180157600080fd5b5050835160208501516040860151606087015160809097015192989197509594509092509050565b600081600019048311821515161561184357611843611633565b50029056fea264697066735822122019abd13af003b355422255961d2fbbcfa04bebb44a97791528672e136c286f8364736f6c63430008090033",
  "devdoc": {
    "details": "Checkpointing logic for BondingManager state for historical stake calculations.",
    "kind": "dev",
    "methods": {
      "checkpointBondingState(address,uint256,uint256,address,uint256,uint256,uint256)": {
        "details": "Since we checkpoint \"delegator\" and \"transcoder\" states, this is called both for the delegator and for the transcoder when any change is made to the bonds, including when rewards are calculated or claimed.",
        "params": {
          "_account": "The account whose bonding state changed",
          "_bondedAmount": "From {BondingManager-Delegator-bondedAmount}",
          "_delegateAddress": "From {BondingManager-Delegator-delegateAddress}",
          "_delegatedAmount": "From {BondingManager-Transcoder-delegatedAmount}",
          "_lastClaimRound": "From {BondingManager-Delegator-lastClaimRound}",
          "_lastRewardRound": "From {BondingManager-Transcoder-lastRewardRound}",
          "_startRound": "The round from which the bonding state will be active. This is normally the next round."
        }
      },
      "checkpointTotalActiveStake(uint256,uint256)": {
        "details": "This is called only from the {BondingManager-setCurrentRoundTotalActiveStake} function to set the total active stake in the current round.",
        "params": {
          "_round": "The round for which the total active stake is valid. This is normally the current round.",
          "_totalStake": "From {BondingManager-currentRoundTotalActiveStake}"
        }
      },
      "decimals()": {
        "details": "Returns the decimals places of the token."
      },
      "delegatedAt(address,uint256)": {
        "details": "This is an addition to the IERC5805 interface to support our custom vote counting logic that allows delegators to override their transcoders votes. See {GaovernorCountingOverridable-_handleVoteOverrides}.Keep in mind that since this function should return the delegate at the end of the _round (or timepoint in OZ terms), we need to fetch the bonding state at the next round instead. That because the bonding state reflects the active stake in the current round, which is the snapshotted stake from the end of the previous round."
      },
      "getBondingStateAt(address,uint256)": {
        "details": "In the case of delegators it is the amount they are delegating to a transcoder, while for transcoders this includes all the stake that has been delegated to them (including self-delegated).",
        "params": {
          "_account": "The account whose bonding state we want to get.",
          "_round": "The round for which we want to get the bonding state. Normally a proposal's vote start round."
        },
        "returns": {
          "amount": "The active stake of the account at the given round including any accrued rewards. In case of transcoders this also includes all the amount delegated towards them by other delegators.",
          "delegateAddress": "The address the account delegated to. Will be equal to _account in case of transcoders."
        }
      },
      "getPastTotalSupply(uint256)": {
        "details": "This value is the sum of all *active* stake, which is not necessarily the sum of all voting power. Bonded stake that is not part of the top 100 active transcoder set is still given voting power, but is not considered here.Keep in mind that since this function should return the votes at the end of the _round (or timepoint in OZ terms), we need to fetch the total active stake at the next round instead. That because the active stake in the current round is the snapshotted stake from the end of the previous round."
      },
      "getPastVotes(address,uint256)": {
        "details": "Keep in mind that since this function should return the votes at the end of the _round (or timepoint in OZ terms), we need to fetch the bonding state at the next round instead. That because the bonding state reflects the active stake in the current round, which is the snapshotted stake from the end of the previous round."
      },
      "getTotalActiveStakeAt(uint256)": {
        "details": "Gets the checkpointed total active stake at a given round.",
        "params": {
          "_round": "The round for which we want to get the total active stake."
        }
      },
      "hasCheckpoint(address)": {
        "details": "This is meant to be called by a checkpoint initialization script once we deploy the checkpointing logic for the first time, so we can efficiently initialize the checkpoint state for all accounts in the system."
      },
      "name()": {
        "details": "Returns the name of the token."
      },
      "setController(address)": {
        "params": {
          "_controller": "Controller contract address"
        }
      },
      "symbol()": {
        "details": "Returns the symbol of the token."
      }
    },
    "stateVariables": {
      "bondingCheckpoints": {
        "details": "Checkpoints by account (delegators and transcoders)."
      },
      "totalStakeCheckpoints": {
        "details": "Total active stake checkpoints."
      }
    },
    "title": "BondingVotes",
    "version": 1
  },
  "userdoc": {
    "kind": "user",
    "methods": {
      "CLOCK_MODE()": {
        "notice": "Machine-readable description of the clock as specified in EIP-6372."
      },
      "checkpointBondingState(address,uint256,uint256,address,uint256,uint256,uint256)": {
        "notice": "Called by the BondingManager when the bonding state of an account changes."
      },
      "checkpointTotalActiveStake(uint256,uint256)": {
        "notice": "Called by the BondingManager when the total active stake changes."
      },
      "clock()": {
        "notice": "Clock is set to match the current round, which is the checkpointing  method implemented here."
      },
      "delegate(address)": {
        "notice": "Delegation through BondingVotes is not supported."
      },
      "delegateBySig(address,uint256,uint256,uint8,bytes32,bytes32)": {
        "notice": "Delegation through BondingVotes is not supported."
      },
      "delegatedAt(address,uint256)": {
        "notice": "Returns the delegate that _account had chosen in a specific round in the past. See `delegates()` above for more details."
      },
      "delegates(address)": {
        "notice": "Returns the delegate that _account has chosen. This means the delegated transcoder address in case of delegators, and the account's own address for transcoders (self-delegated)."
      },
      "getBondingStateAt(address,uint256)": {
        "notice": "Gets the bonding state of an account at a given round."
      },
      "getPastTotalSupply(uint256)": {
        "notice": "Returns the total supply of votes available at a specific round in the past."
      },
      "getPastVotes(address,uint256)": {
        "notice": "Returns the amount of votes that `_account` had at a specific moment in the past. If the `clock()` is configured to use block numbers, this will return the value at the end of the corresponding block."
      },
      "getVotes(address)": {
        "notice": "Returns the current amount of votes that `_account` has."
      },
      "hasCheckpoint(address)": {
        "notice": "Returns whether an account already has any checkpoint."
      },
      "setController(address)": {
        "notice": "Set controller. Only callable by current controller"
      }
    },
    "version": 1
  },
  "storageLayout": {
    "storage": [
      {
        "astId": 18792,
        "contract": "contracts/bonding/BondingVotes.sol:BondingVotes",
        "label": "controller",
        "offset": 0,
        "slot": "0",
        "type": "t_contract(IController)18767"
      },
      {
        "astId": 18974,
        "contract": "contracts/bonding/BondingVotes.sol:BondingVotes",
        "label": "targetContractId",
        "offset": 0,
        "slot": "1",
        "type": "t_bytes32"
      },
      {
        "astId": 22918,
        "contract": "contracts/bonding/BondingVotes.sol:BondingVotes",
        "label": "bondingCheckpoints",
        "offset": 0,
        "slot": "2",
        "type": "t_mapping(t_address,t_struct(BondingCheckpointsByRound)22904_storage)"
      },
      {
        "astId": 22922,
        "contract": "contracts/bonding/BondingVotes.sol:BondingVotes",
        "label": "totalStakeCheckpoints",
        "offset": 0,
        "slot": "3",
        "type": "t_struct(TotalActiveStakeByRound)22912_storage"
      }
    ],
    "types": {
      "t_address": {
        "encoding": "inplace",
        "label": "address",
        "numberOfBytes": "20"
      },
      "t_array(t_uint256)dyn_storage": {
        "base": "t_uint256",
        "encoding": "dynamic_array",
        "label": "uint256[]",
        "numberOfBytes": "32"
      },
      "t_bytes32": {
        "encoding": "inplace",
        "label": "bytes32",
        "numberOfBytes": "32"
      },
      "t_contract(IController)18767": {
        "encoding": "inplace",
        "label": "contract IController",
        "numberOfBytes": "20"
      },
      "t_mapping(t_address,t_struct(BondingCheckpointsByRound)22904_storage)": {
        "encoding": "mapping",
        "key": "t_address",
        "label": "mapping(address => struct BondingVotes.BondingCheckpointsByRound)",
        "numberOfBytes": "32",
        "value": "t_struct(BondingCheckpointsByRound)22904_storage"
      },
      "t_mapping(t_uint256,t_struct(BondingCheckpoint)22895_storage)": {
        "encoding": "mapping",
        "key": "t_uint256",
        "label": "mapping(uint256 => struct BondingVotes.BondingCheckpoint)",
        "numberOfBytes": "32",
        "value": "t_struct(BondingCheckpoint)22895_storage"
      },
      "t_mapping(t_uint256,t_uint256)": {
        "encoding": "mapping",
        "key": "t_uint256",
        "label": "mapping(uint256 => uint256)",
        "numberOfBytes": "32",
        "value": "t_uint256"
      },
      "t_struct(BondingCheckpoint)22895_storage": {
        "encoding": "inplace",
        "label": "struct BondingVotes.BondingCheckpoint",
        "members": [
          {
            "astId": 22882,
            "contract": "contracts/bonding/BondingVotes.sol:BondingVotes",
            "label": "bondedAmount",
            "offset": 0,
            "slot": "0",
            "type": "t_uint256"
          },
          {
            "astId": 22885,
            "contract": "contracts/bonding/BondingVotes.sol:BondingVotes",
            "label": "delegateAddress",
            "offset": 0,
            "slot": "1",
            "type": "t_address"
          },
          {
            "astId": 22888,
            "contract": "contracts/bonding/BondingVotes.sol:BondingVotes",
            "label": "delegatedAmount",
            "offset": 0,
            "slot": "2",
            "type": "t_uint256"
          },
          {
            "astId": 22891,
            "contract": "contracts/bonding/BondingVotes.sol:BondingVotes",
            "label": "lastClaimRound",
            "offset": 0,
            "slot": "3",
            "type": "t_uint256"
          },
          {
            "astId": 22894,
            "contract": "contracts/bonding/BondingVotes.sol:BondingVotes",
            "label": "lastRewardRound",
            "offset": 0,
            "slot": "4",
            "type": "t_uint256"
          }
        ],
        "numberOfBytes": "160"
      },
      "t_struct(BondingCheckpointsByRound)22904_storage": {
        "encoding": "inplace",
        "label": "struct BondingVotes.BondingCheckpointsByRound",
        "members": [
          {
            "astId": 22898,
            "contract": "contracts/bonding/BondingVotes.sol:BondingVotes",
            "label": "startRounds",
            "offset": 0,
            "slot": "0",
            "type": "t_array(t_uint256)dyn_storage"
          },
          {
            "astId": 22903,
            "contract": "contracts/bonding/BondingVotes.sol:BondingVotes",
            "label": "data",
            "offset": 0,
            "slot": "1",
            "type": "t_mapping(t_uint256,t_struct(BondingCheckpoint)22895_storage)"
          }
        ],
        "numberOfBytes": "64"
      },
      "t_struct(TotalActiveStakeByRound)22912_storage": {
        "encoding": "inplace",
        "label": "struct BondingVotes.TotalActiveStakeByRound",
        "members": [
          {
            "astId": 22907,
            "contract": "contracts/bonding/BondingVotes.sol:BondingVotes",
            "label": "rounds",
            "offset": 0,
            "slot": "0",
            "type": "t_array(t_uint256)dyn_storage"
          },
          {
            "astId": 22911,
            "contract": "contracts/bonding/BondingVotes.sol:BondingVotes",
            "label": "data",
            "offset": 0,
            "slot": "1",
            "type": "t_mapping(t_uint256,t_uint256)"
          }
        ],
        "numberOfBytes": "64"
      },
      "t_uint256": {
        "encoding": "inplace",
        "label": "uint256",
        "numberOfBytes": "32"
      }
    }
  }
}