{
  "address": "0x9EAA9CCB09F4f687471bc0dDfa638cbEC6bFd397",
  "abi": [
    {
      "inputs": [],
      "name": "l1CirculatingSupply",
      "outputs": [
        {
          "internalType": "uint256",
          "name": "",
          "type": "uint256"
        }
      ],
      "stateMutability": "pure",
      "type": "function"
    }
  ],
  "transactionHash": "0x77a0ea641cfc3d2c4df6b160d365a3e38e74b7eb1db9e155bfbfaa4d778fb88b",
  "args": [],
  "numDeployments": 1,
  "solcInputHash": "48be6767cec16ab6dc64fbad1774557e",
  "bytecode": "0x6080604052348015600f57600080fd5b50607780601d6000396000f3fe6080604052348015600f57600080fd5b506004361060285760003560e01c8063fb1c5ee914602d575b600080fd5b600060405190815260200160405180910390f3fea26469706673582212200de1a51c77ebe24d521203e4b6c862890178d7f3ac997070135eae941d1069b564736f6c63430008090033",
  "devdoc": {
    "kind": "dev",
    "methods": {},
    "version": 1
  },
  "userdoc": {
    "kind": "user",
    "methods": {},
    "version": 1
  },
  "storageLayout": {
    "storage": [],
    "types": null
  }
}