{
  "address": "0xaFF7c861f6E7Fa9eD53ad2Db21f1273b1b9a4cc9",
  "abi": [
    {
      "inputs": [
        {
          "internalType": "address",
          "name": "_controller",
          "type": "address"
        }
      ],
      "stateMutability": "nonpayable",
      "type": "constructor"
    },
    {
      "anonymous": false,
      "inputs": [
        {
          "indexed": true,
          "internalType": "address",
          "name": "sender",
          "type": "address"
        },
        {
          "indexed": false,
          "internalType": "uint256",
          "name": "amount",
          "type": "uint256"
        }
      ],
      "name": "DepositFunded",
      "type": "event"
    },
    {
      "anonymous": false,
      "inputs": [
        {
          "indexed": false,
          "internalType": "string",
          "name": "param",
          "type": "string"
        }
      ],
      "name": "ParameterUpdate",
      "type": "event"
    },
    {
      "anonymous": false,
      "inputs": [
        {
          "indexed": true,
          "internalType": "address",
          "name": "reserveHolder",
          "type": "address"
        },
        {
          "indexed": false,
          "internalType": "address",
          "name": "claimant",
          "type": "address"
        },
        {
          "indexed": false,
          "internalType": "uint256",
          "name": "amount",
          "type": "uint256"
        }
      ],
      "name": "ReserveClaimed",
      "type": "event"
    },
    {
      "anonymous": false,
      "inputs": [
        {
          "indexed": true,
          "internalType": "address",
          "name": "reserveHolder",
          "type": "address"
        },
        {
          "indexed": false,
          "internalType": "uint256",
          "name": "amount",
          "type": "uint256"
        }
      ],
      "name": "ReserveFunded",
      "type": "event"
    },
    {
      "anonymous": false,
      "inputs": [
        {
          "indexed": false,
          "internalType": "address",
          "name": "controller",
          "type": "address"
        }
      ],
      "name": "SetController",
      "type": "event"
    },
    {
      "anonymous": false,
      "inputs": [
        {
          "indexed": true,
          "internalType": "address",
          "name": "sender",
          "type": "address"
        },
        {
          "indexed": false,
          "internalType": "uint256",
          "name": "startRound",
          "type": "uint256"
        },
        {
          "indexed": false,
          "internalType": "uint256",
          "name": "endRound",
          "type": "uint256"
        }
      ],
      "name": "Unlock",
      "type": "event"
    },
    {
      "anonymous": false,
      "inputs": [
        {
          "indexed": true,
          "internalType": "address",
          "name": "sender",
          "type": "address"
        }
      ],
      "name": "UnlockCancelled",
      "type": "event"
    },
    {
      "anonymous": false,
      "inputs": [
        {
          "indexed": true,
          "internalType": "address",
          "name": "sender",
          "type": "address"
        },
        {
          "indexed": true,
          "internalType": "address",
          "name": "recipient",
          "type": "address"
        },
        {
          "indexed": false,
          "internalType": "uint256",
          "name": "faceValue",
          "type": "uint256"
        },
        {
          "indexed": false,
          "internalType": "uint256",
          "name": "winProb",
          "type": "uint256"
        },
        {
          "indexed": false,
          "internalType": "uint256",
          "name": "senderNonce",
          "type": "uint256"
        },
        {
          "indexed": false,
          "internalType": "uint256",
          "name": "recipientRand",
          "type": "uint256"
        },
        {
          "indexed": false,
          "internalType": "bytes",
          "name": "auxData",
          "type": "bytes"
        }
      ],
      "name": "WinningTicketRedeemed",
      "type": "event"
    },
    {
      "anonymous": false,
      "inputs": [
        {
          "indexed": true,
          "internalType": "address",
          "name": "sender",
          "type": "address"
        },
        {
          "indexed": true,
          "internalType": "address",
          "name": "recipient",
          "type": "address"
        },
        {
          "indexed": false,
          "internalType": "uint256",
          "name": "amount",
          "type": "uint256"
        }
      ],
      "name": "WinningTicketTransfer",
      "type": "event"
    },
    {
      "anonymous": false,
      "inputs": [
        {
          "indexed": true,
          "internalType": "address",
          "name": "sender",
          "type": "address"
        },
        {
          "indexed": false,
          "internalType": "uint256",
          "name": "deposit",
          "type": "uint256"
        },
        {
          "indexed": false,
          "internalType": "uint256",
          "name": "reserve",
          "type": "uint256"
        }
      ],
      "name": "Withdrawal",
      "type": "event"
    },
    {
      "inputs": [
        {
          "components": [
            {
              "internalType": "address",
              "name": "recipient",
              "type": "address"
            },
            {
              "internalType": "address",
              "name": "sender",
              "type": "address"
            },
            {
              "internalType": "uint256",
              "name": "faceValue",
              "type": "uint256"
            },
            {
              "internalType": "uint256",
              "name": "winProb",
              "type": "uint256"
            },
            {
              "internalType": "uint256",
              "name": "senderNonce",
              "type": "uint256"
            },
            {
              "internalType": "bytes32",
              "name": "recipientRandHash",
              "type": "bytes32"
            },
            {
              "internalType": "bytes",
              "name": "auxData",
              "type": "bytes"
            }
          ],
          "internalType": "struct MTicketBrokerCore.Ticket[]",
          "name": "_tickets",
          "type": "tuple[]"
        },
        {
          "internalType": "bytes[]",
          "name": "_sigs",
          "type": "bytes[]"
        },
        {
          "internalType": "uint256[]",
          "name": "_recipientRands",
          "type": "uint256[]"
        }
      ],
      "name": "batchRedeemWinningTickets",
      "outputs": [],
      "stateMutability": "nonpayable",
      "type": "function"
    },
    {
      "inputs": [],
      "name": "cancelUnlock",
      "outputs": [],
      "stateMutability": "nonpayable",
      "type": "function"
    },
    {
      "inputs": [
        {
          "internalType": "address",
          "name": "_reserveHolder",
          "type": "address"
        },
        {
          "internalType": "address",
          "name": "_claimant",
          "type": "address"
        }
      ],
      "name": "claimableReserve",
      "outputs": [
        {
          "internalType": "uint256",
          "name": "",
          "type": "uint256"
        }
      ],
      "stateMutability": "view",
      "type": "function"
    },
    {
      "inputs": [
        {
          "internalType": "address",
          "name": "_reserveHolder",
          "type": "address"
        },
        {
          "internalType": "address",
          "name": "_claimant",
          "type": "address"
        }
      ],
      "name": "claimedReserve",
      "outputs": [
        {
          "internalType": "uint256",
          "name": "",
          "type": "uint256"
        }
      ],
      "stateMutability": "view",
      "type": "function"
    },
    {
      "inputs": [],
      "name": "controller",
      "outputs": [
        {
          "internalType": "contract IController",
          "name": "",
          "type": "address"
        }
      ],
      "stateMutability": "view",
      "type": "function"
    },
    {
      "inputs": [],
      "name": "fundDeposit",
      "outputs": [],
      "stateMutability": "payable",
      "type": "function"
    },
    {
      "inputs": [
        {
          "internalType": "uint256",
          "name": "_depositAmount",
          "type": "uint256"
        },
        {
          "internalType": "uint256",
          "name": "_reserveAmount",
          "type": "uint256"
        }
      ],
      "name": "fundDepositAndReserve",
      "outputs": [],
      "stateMutability": "payable",
      "type": "function"
    },
    {
      "inputs": [
        {
          "internalType": "address",
          "name": "_addr",
          "type": "address"
        },
        {
          "internalType": "uint256",
          "name": "_depositAmount",
          "type": "uint256"
        },
        {
          "internalType": "uint256",
          "name": "_reserveAmount",
          "type": "uint256"
        }
      ],
      "name": "fundDepositAndReserveFor",
      "outputs": [],
      "stateMutability": "payable",
      "type": "function"
    },
    {
      "inputs": [],
      "name": "fundReserve",
      "outputs": [],
      "stateMutability": "payable",
      "type": "function"
    },
    {
      "inputs": [
        {
          "internalType": "address",
          "name": "_reserveHolder",
          "type": "address"
        }
      ],
      "name": "getReserveInfo",
      "outputs": [
        {
          "components": [
            {
              "internalType": "uint256",
              "name": "fundsRemaining",
              "type": "uint256"
            },
            {
              "internalType": "uint256",
              "name": "claimedInCurrentRound",
              "type": "uint256"
            }
          ],
          "internalType": "struct MReserve.ReserveInfo",
          "name": "info",
          "type": "tuple"
        }
      ],
      "stateMutability": "view",
      "type": "function"
    },
    {
      "inputs": [
        {
          "internalType": "address",
          "name": "_sender",
          "type": "address"
        }
      ],
      "name": "getSenderInfo",
      "outputs": [
        {
          "components": [
            {
              "internalType": "uint256",
              "name": "deposit",
              "type": "uint256"
            },
            {
              "internalType": "uint256",
              "name": "withdrawRound",
              "type": "uint256"
            }
          ],
          "internalType": "struct MixinTicketBrokerCore.Sender",
          "name": "sender",
          "type": "tuple"
        },
        {
          "components": [
            {
              "internalType": "uint256",
              "name": "fundsRemaining",
              "type": "uint256"
            },
            {
              "internalType": "uint256",
              "name": "claimedInCurrentRound",
              "type": "uint256"
            }
          ],
          "internalType": "struct MReserve.ReserveInfo",
          "name": "reserve",
          "type": "tuple"
        }
      ],
      "stateMutability": "view",
      "type": "function"
    },
    {
      "inputs": [
        {
          "components": [
            {
              "internalType": "address",
              "name": "recipient",
              "type": "address"
            },
            {
              "internalType": "address",
              "name": "sender",
              "type": "address"
            },
            {
              "internalType": "uint256",
              "name": "faceValue",
              "type": "uint256"
            },
            {
              "internalType": "uint256",
              "name": "winProb",
              "type": "uint256"
            },
            {
              "internalType": "uint256",
              "name": "senderNonce",
              "type": "uint256"
            },
            {
              "internalType": "bytes32",
              "name": "recipientRandHash",
              "type": "bytes32"
            },
            {
              "internalType": "bytes",
              "name": "auxData",
              "type": "bytes"
            }
          ],
          "internalType": "struct MTicketBrokerCore.Ticket",
          "name": "_ticket",
          "type": "tuple"
        }
      ],
      "name": "getTicketHash",
      "outputs": [
        {
          "internalType": "bytes32",
          "name": "",
          "type": "bytes32"
        }
      ],
      "stateMutability": "pure",
      "type": "function"
    },
    {
      "inputs": [
        {
          "internalType": "address",
          "name": "_sender",
          "type": "address"
        }
      ],
      "name": "isUnlockInProgress",
      "outputs": [
        {
          "internalType": "bool",
          "name": "",
          "type": "bool"
        }
      ],
      "stateMutability": "view",
      "type": "function"
    },
    {
      "inputs": [
        {
          "components": [
            {
              "internalType": "address",
              "name": "recipient",
              "type": "address"
            },
            {
              "internalType": "address",
              "name": "sender",
              "type": "address"
            },
            {
              "internalType": "uint256",
              "name": "faceValue",
              "type": "uint256"
            },
            {
              "internalType": "uint256",
              "name": "winProb",
              "type": "uint256"
            },
            {
              "internalType": "uint256",
              "name": "senderNonce",
              "type": "uint256"
            },
            {
              "internalType": "bytes32",
              "name": "recipientRandHash",
              "type": "bytes32"
            },
            {
              "internalType": "bytes",
              "name": "auxData",
              "type": "bytes"
            }
          ],
          "internalType": "struct MTicketBrokerCore.Ticket",
          "name": "_ticket",
          "type": "tuple"
        },
        {
          "internalType": "bytes",
          "name": "_sig",
          "type": "bytes"
        },
        {
          "internalType": "uint256",
          "name": "_recipientRand",
          "type": "uint256"
        }
      ],
      "name": "redeemWinningTicket",
      "outputs": [],
      "stateMutability": "nonpayable",
      "type": "function"
    },
    {
      "inputs": [
        {
          "internalType": "address",
          "name": "_controller",
          "type": "address"
        }
      ],
      "name": "setController",
      "outputs": [],
      "stateMutability": "nonpayable",
      "type": "function"
    },
    {
      "inputs": [
        {
          "internalType": "uint256",
          "name": "_ticketValidityPeriod",
          "type": "uint256"
        }
      ],
      "name": "setTicketValidityPeriod",
      "outputs": [],
      "stateMutability": "nonpayable",
      "type": "function"
    },
    {
      "inputs": [
        {
          "internalType": "uint256",
          "name": "_unlockPeriod",
          "type": "uint256"
        }
      ],
      "name": "setUnlockPeriod",
      "outputs": [],
      "stateMutability": "nonpayable",
      "type": "function"
    },
    {
      "inputs": [],
      "name": "targetContractId",
      "outputs": [
        {
          "internalType": "bytes32",
          "name": "",
          "type": "bytes32"
        }
      ],
      "stateMutability": "view",
      "type": "function"
    },
    {
      "inputs": [],
      "name": "ticketValidityPeriod",
      "outputs": [
        {
          "internalType": "uint256",
          "name": "",
          "type": "uint256"
        }
      ],
      "stateMutability": "view",
      "type": "function"
    },
    {
      "inputs": [],
      "name": "unlock",
      "outputs": [],
      "stateMutability": "nonpayable",
      "type": "function"
    },
    {
      "inputs": [],
      "name": "unlockPeriod",
      "outputs": [
        {
          "internalType": "uint256",
          "name": "",
          "type": "uint256"
        }
      ],
      "stateMutability": "view",
      "type": "function"
    },
    {
      "inputs": [
        {
          "internalType": "bytes32",
          "name": "",
          "type": "bytes32"
        }
      ],
      "name": "usedTickets",
      "outputs": [
        {
          "internalType": "bool",
          "name": "",
          "type": "bool"
        }
      ],
      "stateMutability": "view",
      "type": "function"
    },
    {
      "inputs": [],
      "name": "withdraw",
      "outputs": [],
      "stateMutability": "nonpayable",
      "type": "function"
    }
  ],
  "transactionHash": "0xffba466bfb338e459778c32365cd5f37fe6acbcd2218af8e9aa8030d2d55c91e",
  "args": [
    "0x53Ea65f3E8B06d07DC1008276c5e4aa15126502B"
  ],
  "numDeployments": 1,
  "solcInputHash": "8d767bf23267fd0b4e34029f9fbd8e3a",
  "bytecode": "0x60806040523480156200001157600080fd5b5060405162002eab38038062002eab83398101604081905262000034916200005a565b600080546001600160a01b0319166001600160a01b03929092169190911790556200008c565b6000602082840312156200006d57600080fd5b81516001600160a01b03811681146200008557600080fd5b9392505050565b612e0f806200009c6000396000f3fe6080604052600436106101405760003560e01c806381779f38116100b6578063c2c4c2c81161006f578063c2c4c2c814610329578063c92978081461033e578063d01b808e1461035e578063e1a589da1461037e578063ec8b3cb6146103ac578063f77c4791146103cc57600080fd5b806381779f381461028b578063856a2cf8146102ab57806392eefe9b146102c1578063989f789c146102e1578063a69df4b5146102f4578063b03fa8641461030957600080fd5b8063511f407311610108578063511f4073146101f557806351720b411461020857806359a515ba1461021e5780635b6333eb1461024e5780636caa736b1461027b5780636f9c3c8f1461028357600080fd5b8063121cdcc21461014557806320d3a0b41461017a5780633ccfd60b1461019e5780633d0ddf84146101b55780634ac826da146101d5575b600080fd5b34801561015157600080fd5b506101656101603660046125bb565b610404565b60405190151581526020015b60405180910390f35b34801561018657600080fd5b5061019060045481565b604051908152602001610171565b3480156101aa57600080fd5b506101b3610440565b005b3480156101c157600080fd5b506101b36101d03660046125d8565b6105c6565b3480156101e157600080fd5b506101906101f03660046125f1565b61062d565b6101b361020336600461262a565b6106ef565b34801561021457600080fd5b5061019060015481565b34801561022a57600080fd5b506101656102393660046125d8565b60056020526000908152604090205460ff1681565b34801561025a57600080fd5b5061026e6102693660046125bb565b6106fe565b604051610171919061264c565b6101b36107cc565b6101b3610862565b34801561029757600080fd5b506101906102a63660046125f1565b6108bd565b3480156102b757600080fd5b5061019060065481565b3480156102cd57600080fd5b506101b36102dc3660046125bb565b610ad2565b6101b36102ef366004612663565b610b28565b34801561030057600080fd5b506101b3610cb7565b34801561031557600080fd5b5061019061032436600461280a565b610e4b565b34801561033557600080fd5b506101b3610e9d565b34801561034a57600080fd5b506101b36103593660046125d8565b610ec3565b34801561036a57600080fd5b506101b3610379366004612956565b610f8b565b34801561038a57600080fd5b5061039e6103993660046125bb565b6110d2565b604051610171929190612a4e565b3480156103b857600080fd5b506101b36103c7366004612a74565b611133565b3480156103d857600080fd5b506000546103ec906001600160a01b031681565b6040516001600160a01b039091168152602001610171565b6001600160a01b0381166000908152600360209081526040808320815180830190925280548252600101549181018290529015155b9392505050565b610448611445565b33600090815260036020908152604080832080546002909352922054811515806104725750600081115b6104975760405162461bcd60e51b815260040161048e90612ae1565b60405180910390fd5b6040805180820190915283548152600184015460209091018190526104fe5760405162461bcd60e51b815260206004820152601d60248201527f6e6f20756e6c6f636b207265717565737420696e2070726f6772657373000000604482015260640161048e565b60408051808201909152835481526001840154602082015261051f9061150b565b156105605760405162461bcd60e51b81526020600482015260116024820152701858d8dbdd5b9d081a5cc81b1bd8dad959607a1b604482015260640161048e565b60008084553381526002602052604081205561058533610580848461159f565b6115ab565b604080518381526020810183905233917fdf273cb619d95419a9cd0ec88123a0538c85064229baa6363788f743fff90deb91015b60405180910390a2505050565b6105ce61161b565b60048190556040517f9f5033568d78ae30f29f01e944f97b2216493bd19d1b46d429673acff3dcd67490610622906020808252600c908201526b1d5b9b1bd8dad4195c9a5bd960a21b604082015260600190565b60405180910390a150565b6001600160a01b03821660009081526002602052604081208161064e6116ff565b6001600160a01b0316638a19c8bc6040518163ffffffff1660e01b815260040160206040518083038186803b15801561068657600080fd5b505afa15801561069a573d6000803e3d6000fd5b505050506040513d601f19601f820116820180604052508101906106be9190612b24565b60009081526002909201602090815260408084206001600160a01b0387168552909152909120549150505b92915050565b6106fa338383610b28565b5050565b604080518082018252600080825260208083018290526001600160a01b0385168083526002808352948320805485529083529390529091600101906107416116ff565b6001600160a01b0316638a19c8bc6040518163ffffffff1660e01b815260040160206040518083038186803b15801561077957600080fd5b505afa15801561078d573d6000803e3d6000fd5b505050506040513d601f19601f820116820180604052508101906107b19190612b24565b81526020808201929092526040016000205490820152919050565b6107d4611445565b33600081815260036020526040902080543491906107f2908361159f565b80825560408051808201909152908152600182015460209091018190521561081e5761081e81846117a1565b61082734611846565b826001600160a01b03167f5159e237d952190e68d5215430f305831be7c9c8776d1377c76679ae4773413f836040516105b991815260200190565b61086a611445565b336000818152600360205260409020349061088583836118c1565b604080518082019091528154815260018201546020909101819052156108af576108af81846117a1565b6108b834611846565b505050565b6001600160a01b0382166000908152600260205260408120816108de6116ff565b6001600160a01b0316638a19c8bc6040518163ffffffff1660e01b815260040160206040518083038186803b15801561091657600080fd5b505afa15801561092a573d6000803e3d6000fd5b505050506040513d601f19601f8201168201806040525081019061094e9190612b24565b9050610958611933565b60405163022008dd60e21b81526001600160a01b038681166004830152919091169063088023749060240160206040518083038186803b15801561099b57600080fd5b505afa1580156109af573d6000803e3d6000fd5b505050506040513d601f19601f820116820180604052508101906109d39190612b3d565b6109e2576000925050506106e9565b60006109ec611933565b6001600160a01b0316632a4e0d556040518163ffffffff1660e01b815260040160206040518083038186803b158015610a2457600080fd5b505afa158015610a38573d6000803e3d6000fd5b505050506040513d601f19601f82011682018060405250810190610a5c9190612b24565b905080610a6f57600093505050506106e9565b60008281526001840160205260408120548454610a8b9161159f565b600084815260028601602090815260408083206001600160a01b038b168452909152902054909150610ac790610ac18385611984565b90611990565b979650505050505050565b610ada61199c565b600080546001600160a01b0319166001600160a01b0383169081179091556040519081527f4ff638452bbf33c012645d18ae6f05515ff5f2d1dfb0cece8cbf018c60903f7090602001610622565b610b30611445565b8181610b3c828261159f565b3414610bba5760405162461bcd60e51b815260206004820152604160248201527f6d73672e76616c756520646f6573206e6f7420657175616c2073756d206f662060448201527f6465706f73697420616d6f756e7420616e64207265736572766520616d6f756e6064820152601d60fa1b608482015260a40161048e565b6001600160a01b0385166000908152600360205260409020805486918691610be2908361159f565b808255604080518082019091529081526001820154602090910181905215610c0e57610c0e81846117a1565b6001600160a01b038816600090815260036020526040902088908790610c3483836118c1565b60408051808201909152815481526001820154602090910181905215610c5e57610c5e81846117a1565b610c6734611846565b505050826001600160a01b03167f5159e237d952190e68d5215430f305831be7c9c8776d1377c76679ae4773413f83604051610ca591815260200190565b60405180910390a25050505050505050565b610cbf611445565b3360009081526003602052604090208054151580610cea575033600090815260026020526040812054115b610d065760405162461bcd60e51b815260040161048e90612ae1565b60408051808201909152815481526001820154602090910181905215610d6e5760405162461bcd60e51b815260206004820152601860248201527f756e6c6f636b20616c726561647920696e697469617465640000000000000000604482015260640161048e565b6000610d786116ff565b6001600160a01b0316638a19c8bc6040518163ffffffff1660e01b815260040160206040518083038186803b158015610db057600080fd5b505afa158015610dc4573d6000803e3d6000fd5b505050506040513d601f19601f82011682018060405250810190610de89190612b24565b9050610dff6004548261159f90919063ffffffff16565b6001830181905560405133917ff7870c5b224cbc19873599e46ccfc7103934650509b1af0c3ce90138377c200491610e3f91858252602082015260400190565b60405180910390a25050565b80516020808301516040808501516060860151608087015160a088015160c08901519451600098610e80989097969101612b8b565b604051602081830303815290604052805190602001209050919050565b610ea5611445565b33600081815260036020526040902090610ec09082906117a1565b50565b610ecb61161b565b60008111610f2f5760405162461bcd60e51b815260206004820152602b60248201527f7469636b657456616c6964697479506572696f64206d7573742062652067726560448201526a061746572207468616e20360ac1b606482015260840161048e565b60068190556040517f9f5033568d78ae30f29f01e944f97b2216493bd19d1b46d429673acff3dcd67490610622906020808252601490820152731d1a58dad95d15985b1a591a5d1e54195c9a5bd960621b604082015260600190565b610f93611445565b610f9b6116ff565b6001600160a01b031663219bc76c6040518163ffffffff1660e01b815260040160206040518083038186803b158015610fd357600080fd5b505afa158015610fe7573d6000803e3d6000fd5b505050506040513d601f19601f8201168201806040525081019061100b9190612b3d565b6110575760405162461bcd60e51b815260206004820181905260248201527f63757272656e7420726f756e64206973206e6f7420696e697469616c697a6564604482015260640161048e565b60005b83518110156110cc576110b984828151811061107857611078612bed565b602002602001015184838151811061109257611092612bed565b60200260200101518484815181106110ac576110ac612bed565b60200260200101516119f6565b50806110c481612c19565b91505061105a565b50505050565b60408051808201825260008082526020918201819052825180840184528181528083018290526001600160a01b03851682526003835290839020835180850190945280548452600101549183019190915261112c836106fe565b9050915091565b61113b611445565b6111436116ff565b6001600160a01b031663219bc76c6040518163ffffffff1660e01b815260040160206040518083038186803b15801561117b57600080fd5b505afa15801561118f573d6000803e3d6000fd5b505050506040513d601f19601f820116820180604052508101906111b39190612b3d565b6111ff5760405162461bcd60e51b815260206004820181905260248201527f63757272656e7420726f756e64206973206e6f7420696e697469616c697a6564604482015260640161048e565b600061120a84610e4b565b905061121884828585611a97565b6020808501516001600160a01b03166000908152600382526040908190208151808301909252805482526001810154928201929092526112579061150b565b6112985760405162461bcd60e51b81526020600482015260126024820152711cd95b99195c881a5cc81d5b9b1bd8dad95960721b604482015260640161048e565b80541515806112c9575060006112c786602001516001600160a01b031660009081526002602052604090205490565b115b6112e55760405162461bcd60e51b815260040161048e90612ae1565b600082815260056020526040808220805460ff19166001179055825490870151111561134e5761134361133b8760200151886000015161133686600001548b6040015161199090919063ffffffff16565b611ce6565b83549061159f565b600083559050611363565b50604085015181546113609082611990565b82555b80156113d25761137c8660000151828860c00151611e7e565b85600001516001600160a01b031686602001516001600160a01b03167f8b87351a208c06e3ceee59d80725fd77a23b4129e1b51ca231fc89b40712649c836040516113c991815260200190565b60405180910390a35b85600001516001600160a01b031686602001516001600160a01b03167fc389eb51ed006dbf2528507f010efdf5225ea596e1e1741d74f550dab1925ee7886040015189606001518a60800151898c60c00151604051611435959493929190612c60565b60405180910390a3505050505050565b60008054906101000a90046001600160a01b03166001600160a01b0316635c975abb6040518163ffffffff1660e01b815260040160206040518083038186803b15801561149157600080fd5b505afa1580156114a5573d6000803e3d6000fd5b505050506040513d601f19601f820116820180604052508101906114c99190612b3d565b156115095760405162461bcd60e51b815260206004820152601060248201526f1cde5cdd195b481a5cc81c185d5cd95960821b604482015260640161048e565b565b60008160200151600014806106e9575081602001516115286116ff565b6001600160a01b0316638a19c8bc6040518163ffffffff1660e01b815260040160206040518083038186803b15801561156057600080fd5b505afa158015611574573d6000803e3d6000fd5b505050506040513d601f19601f820116820180604052508101906115989190612b24565b1092915050565b60006104398284612c8b565b6115b3611f05565b6040516320283da960e01b81526001600160a01b0384811660048301526024820184905291909116906320283da990604401600060405180830381600087803b1580156115ff57600080fd5b505af1158015611613573d6000803e3d6000fd5b505050505050565b60008054906101000a90046001600160a01b03166001600160a01b0316638da5cb5b6040518163ffffffff1660e01b815260040160206040518083038186803b15801561166757600080fd5b505afa15801561167b573d6000803e3d6000fd5b505050506040513d601f19601f8201168201806040525081019061169f9190612ca3565b6001600160a01b0316336001600160a01b0316146115095760405162461bcd60e51b815260206004820152601f60248201527f63616c6c6572206d75737420626520436f6e74726f6c6c6572206f776e657200604482015260640161048e565b60008054604051631c2d8fb360e31b81527fe8438ea868df48e3fc21f2f087b993c9b1837dc0f6135064161ce7d7a1701fe860048201526001600160a01b039091169063e16c7d98906024015b60206040518083038186803b15801561176457600080fd5b505afa158015611778573d6000803e3d6000fd5b505050506040513d601f19601f8201168201806040525081019061179c9190612ca3565b905090565b6040805180820190915282548152600183015460209091018190526118085760405162461bcd60e51b815260206004820152601d60248201527f6e6f20756e6c6f636b207265717565737420696e2070726f6772657373000000604482015260640161048e565b6000600183018190556040516001600160a01b038316917ffa044b7b93a40365dc68049797c2eb06918523d694e5d56e406cac3eb35578e591a25050565b61184e611f05565b6001600160a01b031663f6326fb3826040518263ffffffff1660e01b81526004016020604051808303818588803b15801561188857600080fd5b505af115801561189c573d6000803e3d6000fd5b50505050506040513d601f19601f820116820180604052508101906106fa9190612b3d565b6001600160a01b0382166000908152600260205260409020546118e4908261159f565b6001600160a01b038316600081815260026020526040908190209290925590517fb52b99b9e83551fcbd069b559cc3e823e2a1a3bad8ece46561ea77524394c85090610e3f9084815260200190565b60008054604051631c2d8fb360e31b81527f2517d59a36a86548e38734e8ab416f42afff4bca78706a66ad65750dae7f9e3760048201526001600160a01b039091169063e16c7d989060240161174c565b60006104398284612cc0565b60006104398284612ce2565b6000546001600160a01b031633146115095760405162461bcd60e51b815260206004820152601960248201527f63616c6c6572206d75737420626520436f6e74726f6c6c657200000000000000604482015260640161048e565b600080848484604051602401611a0e93929190612cf9565b60408051601f198184030181529181526020820180516001600160e01b03166376459e5b60e11b179052519091503090611a49908390612d85565b6000604051808303816000865af19150503d8060008114611a86576040519150601f19603f3d011682016040523d82523d6000602084013e611a8b565b606091505b50909695505050505050565b83516001600160a01b0316611aee5760405162461bcd60e51b815260206004820181905260248201527f7469636b657420726563697069656e74206973206e756c6c2061646472657373604482015260640161048e565b60208401516001600160a01b0316611b485760405162461bcd60e51b815260206004820152601d60248201527f7469636b65742073656e646572206973206e756c6c2061646472657373000000604482015260640161048e565b611b558460c00151611f56565b60a08401516040805160208101849052016040516020818303038152906040528051906020012014611be05760405162461bcd60e51b815260206004820152602e60248201527f726563697069656e7452616e6420646f6573206e6f74206d617463682072656360448201526d0d2e0d2cadce8a4c2dcc890c2e6d60931b606482015260840161048e565b60008381526005602052604090205460ff1615611c305760405162461bcd60e51b815260206004820152600e60248201526d1d1a58dad95d081a5cc81d5cd95960921b604482015260640161048e565b611c3f846020015183856121a3565b611c965760405162461bcd60e51b815260206004820152602260248201527f696e76616c6964207369676e6174757265206f766572207469636b65742068616044820152610e6d60f31b606482015260840161048e565b611ca582828660600151612262565b6110cc5760405162461bcd60e51b81526020600482015260126024820152713a34b1b5b2ba103234b2103737ba103bb4b760711b604482015260640161048e565b600080611cf385856108bd565b90506000818411611d045783611d06565b815b90508015611e75576000611d186116ff565b6001600160a01b0316638a19c8bc6040518163ffffffff1660e01b815260040160206040518083038186803b158015611d5057600080fd5b505afa158015611d64573d6000803e3d6000fd5b505050506040513d601f19601f82011682018060405250810190611d889190612b24565b6001600160a01b0388166000908152600260209081526040808320848452600181019092529091205491925090611dbf908461159f565b60008381526001830160209081526040808320939093556002840181528282206001600160a01b038b16835290522054611df9908461159f565b600083815260028301602090815260408083206001600160a01b038c1684529091529020558054611e2a9084611990565b8155604080516001600160a01b038981168252602082018690528a16917f5c2b394723f408a40a60335e24b71829642e35f350cebe2036a96a66e895ea98910160405180910390a250505b95945050505050565b6000611e8982612299565b509050611e94611933565b604051630ebad44b60e21b81526001600160a01b03868116600483015260248201869052604482018490529190911690633aeb512c90606401600060405180830381600087803b158015611ee757600080fd5b505af1158015611efb573d6000803e3d6000fd5b5050505050505050565b60008054604051631c2d8fb360e31b81527f6e58ad548d72b425ea94c15f453bf26caddb061d82b2551db7fdd3cefe0e994060048201526001600160a01b039091169063e16c7d989060240161174c565b600080611f6283612299565b915091506000611f706116ff565b6001600160a01b0316633aa4add4846040518263ffffffff1660e01b8152600401611f9d91815260200190565b60206040518083038186803b158015611fb557600080fd5b505afa158015611fc9573d6000803e3d6000fd5b505050506040513d601f19601f82011682018060405250810190611fed9190612b24565b9050806120545760405162461bcd60e51b815260206004820152602f60248201527f7469636b6574206372656174696f6e526f756e6420646f6573206e6f7420686160448201526e0ecca40c240c4d8dec6d640d0c2e6d608b1b606482015260840161048e565b8082146120c95760405162461bcd60e51b815260206004820152603760248201527f7469636b6574206372656174696f6e526f756e64426c6f636b4861736820696e60448201527f76616c696420666f72206372656174696f6e526f756e64000000000000000000606482015260840161048e565b60006120d36116ff565b6001600160a01b0316638a19c8bc6040518163ffffffff1660e01b815260040160206040518083038186803b15801561210b57600080fd5b505afa15801561211f573d6000803e3d6000fd5b505050506040513d601f19601f820116820180604052508101906121439190612b24565b90508061215b6006548661159f90919063ffffffff16565b1161219c5760405162461bcd60e51b81526020600482015260116024820152701d1a58dad95d081a5cc8195e1c1a5c9959607a1b604482015260640161048e565b5050505050565b600082516041146121f65760405162461bcd60e51b815260206004820152601860248201527f494e56414c49445f5349474e41545552455f4c454e4754480000000000000000604482015260640161048e565b7f19457468657265756d205369676e6564204d6573736167653a0a3332000000006000908152601c839052603c812061222f908561231a565b90506001600160a01b03811615801590611e755750806001600160a01b0316856001600160a01b03161495945050505050565b6000818484604051602001612278929190612da1565b60408051601f19818403018152919052805160209091012010949350505050565b60008082516040146123095760405162461bcd60e51b815260206004820152603360248201527f696e76616c6964206c656e67746820666f72207469636b657420617578446174604482015272613a206d75737420626520363420627974657360681b606482015260840161048e565b505060208101516040909101519091565b6000806000612329858561233e565b9150915061233681612384565b509392505050565b6000808251604114156123755760208301516040840151606085015160001a612369878285856124d2565b9450945050505061237d565b506000905060025b9250929050565b600081600481111561239857612398612dc3565b14156123a15750565b60018160048111156123b5576123b5612dc3565b14156124035760405162461bcd60e51b815260206004820152601860248201527f45434453413a20696e76616c6964207369676e61747572650000000000000000604482015260640161048e565b600281600481111561241757612417612dc3565b14156124655760405162461bcd60e51b815260206004820152601f60248201527f45434453413a20696e76616c6964207369676e6174757265206c656e67746800604482015260640161048e565b600381600481111561247957612479612dc3565b1415610ec05760405162461bcd60e51b815260206004820152602260248201527f45434453413a20696e76616c6964207369676e6174757265202773272076616c604482015261756560f01b606482015260840161048e565b6000807f7fffffffffffffffffffffffffffffff5d576e7357a4501ddfe92f46681b20a0831115612509575060009050600361258d565b6040805160008082526020820180845289905260ff881692820192909252606081018690526080810185905260019060a0016020604051602081039080840390855afa15801561255d573d6000803e3d6000fd5b5050604051601f1901519150506001600160a01b0381166125865760006001925092505061258d565b9150600090505b94509492505050565b6001600160a01b0381168114610ec057600080fd5b80356125b681612596565b919050565b6000602082840312156125cd57600080fd5b813561043981612596565b6000602082840312156125ea57600080fd5b5035919050565b6000806040838503121561260457600080fd5b823561260f81612596565b9150602083013561261f81612596565b809150509250929050565b6000806040838503121561263d57600080fd5b50508035926020909101359150565b8151815260208083015190820152604081016106e9565b60008060006060848603121561267857600080fd5b833561268381612596565b95602085013595506040909401359392505050565b634e487b7160e01b600052604160045260246000fd5b60405160e0810167ffffffffffffffff811182821017156126d1576126d1612698565b60405290565b604051601f8201601f1916810167ffffffffffffffff8111828210171561270057612700612698565b604052919050565b600082601f83011261271957600080fd5b813567ffffffffffffffff81111561273357612733612698565b612746601f8201601f19166020016126d7565b81815284602083860101111561275b57600080fd5b816020850160208301376000918101602001919091529392505050565b600060e0828403121561278a57600080fd5b6127926126ae565b905061279d826125ab565b81526127ab602083016125ab565b602082015260408201356040820152606082013560608201526080820135608082015260a082013560a082015260c082013567ffffffffffffffff8111156127f257600080fd5b6127fe84828501612708565b60c08301525092915050565b60006020828403121561281c57600080fd5b813567ffffffffffffffff81111561283357600080fd5b61283f84828501612778565b949350505050565b600067ffffffffffffffff82111561286157612861612698565b5060051b60200190565b600082601f83011261287c57600080fd5b8135602061289161288c83612847565b6126d7565b82815260059290921b840181019181810190868411156128b057600080fd5b8286015b848110156128f057803567ffffffffffffffff8111156128d45760008081fd5b6128e28986838b0101612708565b8452509183019183016128b4565b509695505050505050565b600082601f83011261290c57600080fd5b8135602061291c61288c83612847565b82815260059290921b8401810191818101908684111561293b57600080fd5b8286015b848110156128f0578035835291830191830161293f565b60008060006060848603121561296b57600080fd5b833567ffffffffffffffff8082111561298357600080fd5b818601915086601f83011261299757600080fd5b813560206129a761288c83612847565b82815260059290921b8401810191818101908a8411156129c657600080fd5b8286015b848110156129fe578035868111156129e25760008081fd5b6129f08d86838b0101612778565b8452509183019183016129ca565b5097505087013592505080821115612a1557600080fd5b612a218783880161286b565b93506040860135915080821115612a3757600080fd5b50612a44868287016128fb565b9150509250925092565b825181526020808401518183015282516040830152820151606082015260808101610439565b600080600060608486031215612a8957600080fd5b833567ffffffffffffffff80821115612aa157600080fd5b612aad87838801612778565b94506020860135915080821115612ac357600080fd5b50612ad086828701612708565b925050604084013590509250925092565b60208082526023908201527f73656e646572206465706f73697420616e64207265736572766520617265207a60408201526265726f60e81b606082015260800190565b600060208284031215612b3657600080fd5b5051919050565b600060208284031215612b4f57600080fd5b8151801515811461043957600080fd5b60005b83811015612b7a578181015183820152602001612b62565b838111156110cc5750506000910152565b60006bffffffffffffffffffffffff19808a60601b168352808960601b166014840152508660288301528560488301528460688301528360888301528251612bda8160a8850160208701612b5f565b9190910160a80198975050505050505050565b634e487b7160e01b600052603260045260246000fd5b634e487b7160e01b600052601160045260246000fd5b6000600019821415612c2d57612c2d612c03565b5060010190565b60008151808452612c4c816020860160208601612b5f565b601f01601f19169290920160200192915050565b85815284602082015283604082015282606082015260a060808201526000610ac760a0830184612c34565b60008219821115612c9e57612c9e612c03565b500190565b600060208284031215612cb557600080fd5b815161043981612596565b600082612cdd57634e487b7160e01b600052601260045260246000fd5b500490565b600082821015612cf457612cf4612c03565b500390565b60608152600060018060a01b0380865116606084015280602087015116608084015250604085015160a0830152606085015160c0830152608085015160e083015260a085015161010083015260c085015160e0610120840152612d60610140840182612c34565b90508281036020840152612d748186612c34565b915050826040830152949350505050565b60008251612d97818460208701612b5f565b9190910192915050565b60008351612db3818460208801612b5f565b9190910191825250602001919050565b634e487b7160e01b600052602160045260246000fdfea26469706673582212209a1aa94c06ce6739c3306b97275ddacdb00b3ca53df006b9b59381ecc0322dc764736f6c63430008090033",
  "devdoc": {
    "kind": "dev",
    "methods": {
      "batchRedeemWinningTickets((address,address,uint256,uint256,uint256,bytes32,bytes)[],bytes[],uint256[])": {
        "params": {
          "_recipientRands": "Array of preimages for the recipientRandHash included in each ticket (`_recipientRands[i]` corresponds to `_tickets[i]`)",
          "_sigs": "Array of sender signatures over the hash of tickets (`_sigs[i]` corresponds to `_tickets[i]`)",
          "_tickets": "Array of winning tickets to be redeemed in order to claim payment"
        }
      },
      "claimableReserve(address,address)": {
        "details": "Returns the amount of funds claimable by a claimant from a reserve in the current round",
        "params": {
          "_claimant": "Address of claimant",
          "_reserveHolder": "Address of reserve holder"
        },
        "returns": {
          "_0": "Amount of funds claimable by `_claimant` from the reserve for `_reserveHolder` in the current round"
        }
      },
      "claimedReserve(address,address)": {
        "details": "Returns the amount of funds claimed by a claimant from a reserve in the current round",
        "params": {
          "_claimant": "Address of claimant",
          "_reserveHolder": "Address of reserve holder"
        },
        "returns": {
          "_0": "Amount of funds claimed by `_claimant` from the reserve for `_reserveHolder` in the current round"
        }
      },
      "constructor": {
        "details": "This constructor will not initialize any state variables besides `controller`. The following setter functions should be used to initialize state variables post-deployment: - setUnlockPeriod() - setTicketValidityPeriod()",
        "params": {
          "_controller": "Address of Controller that this contract will be registered with"
        }
      },
      "fundDepositAndReserve(uint256,uint256)": {
        "params": {
          "_depositAmount": "Amount of ETH to add to the caller's deposit",
          "_reserveAmount": "Amount of ETH to add to the caller's reserve"
        }
      },
      "fundDepositAndReserveFor(address,uint256,uint256)": {
        "params": {
          "_depositAmount": "Amount of ETH to add to the address' deposit",
          "_reserveAmount": "Amount of ETH to add to the address' reserve"
        }
      },
      "getReserveInfo(address)": {
        "details": "Returns info about a reserve",
        "params": {
          "_reserveHolder": "Address of reserve holder"
        },
        "returns": {
          "info": "Info about the reserve for `_reserveHolder`"
        }
      },
      "getSenderInfo(address)": {
        "params": {
          "_sender": "Address of sender"
        },
        "returns": {
          "reserve": "Info about the reserve for `_sender`",
          "sender": "Info about the sender for `_sender`"
        }
      },
      "getTicketHash((address,address,uint256,uint256,uint256,bytes32,bytes))": {
        "details": "Returns the hash of a ticket",
        "params": {
          "_ticket": "Ticket to be hashed"
        },
        "returns": {
          "_0": "keccak256 hash of `_ticket`"
        }
      },
      "isUnlockInProgress(address)": {
        "params": {
          "_sender": "Address of sender"
        },
        "returns": {
          "_0": "Boolean indicating whether `_sender` has an unlock in progress"
        }
      },
      "redeemWinningTicket((address,address,uint256,uint256,uint256,bytes32,bytes),bytes,uint256)": {
        "params": {
          "_recipientRand": "The preimage for the recipientRandHash included in `_ticket`",
          "_sig": "Sender's signature over the hash of `_ticket`",
          "_ticket": "Winning ticket to be redeemed in order to claim payment"
        }
      },
      "setController(address)": {
        "params": {
          "_controller": "Controller contract address"
        }
      },
      "setTicketValidityPeriod(uint256)": {
        "params": {
          "_ticketValidityPeriod": "Value for ticketValidityPeriod"
        }
      },
      "setUnlockPeriod(uint256)": {
        "params": {
          "_unlockPeriod": "Value for unlockPeriod"
        }
      }
    },
    "version": 1
  },
  "userdoc": {
    "kind": "user",
    "methods": {
      "batchRedeemWinningTickets((address,address,uint256,uint256,uint256,bytes32,bytes)[],bytes[],uint256[])": {
        "notice": "Redeems multiple winning tickets. The function will redeem all of the provided tickets and handle any failures gracefully without reverting the entire function"
      },
      "cancelUnlock()": {
        "notice": "Cancels the unlock period for the caller"
      },
      "constructor": {
        "notice": "TicketBroker constructor. Only invokes constructor of base Manager contract with provided Controller address"
      },
      "fundDeposit()": {
        "notice": "Adds ETH to the caller's deposit"
      },
      "fundDepositAndReserve(uint256,uint256)": {
        "notice": "Adds ETH to the caller's deposit and reserve"
      },
      "fundDepositAndReserveFor(address,uint256,uint256)": {
        "notice": "Adds ETH to the address' deposit and reserve"
      },
      "fundReserve()": {
        "notice": "Adds ETH to the caller's reserve"
      },
      "getSenderInfo(address)": {
        "notice": "Returns info about a sender"
      },
      "isUnlockInProgress(address)": {
        "notice": "Returns whether a sender is currently in the unlock period"
      },
      "redeemWinningTicket((address,address,uint256,uint256,uint256,bytes32,bytes),bytes,uint256)": {
        "notice": "Redeems a winning ticket that has been signed by a sender and reveals the recipient recipientRand that corresponds to the recipientRandHash included in the ticket"
      },
      "setController(address)": {
        "notice": "Set controller. Only callable by current controller"
      },
      "setTicketValidityPeriod(uint256)": {
        "notice": "Sets ticketValidityPeriod value. Only callable by the Controller owner"
      },
      "setUnlockPeriod(uint256)": {
        "notice": "Sets unlockPeriod value. Only callable by the Controller owner"
      },
      "unlock()": {
        "notice": "Initiates the unlock period for the caller"
      },
      "withdraw()": {
        "notice": "Withdraws all ETH from the caller's deposit and reserve"
      }
    },
    "version": 1
  },
  "storageLayout": {
    "storage": [
      {
        "astId": 18792,
        "contract": "contracts/pm/TicketBroker.sol:TicketBroker",
        "label": "controller",
        "offset": 0,
        "slot": "0",
        "type": "t_contract(IController)18767"
      },
      {
        "astId": 18974,
        "contract": "contracts/pm/TicketBroker.sol:TicketBroker",
        "label": "targetContractId",
        "offset": 0,
        "slot": "1",
        "type": "t_bytes32"
      },
      {
        "astId": 26212,
        "contract": "contracts/pm/TicketBroker.sol:TicketBroker",
        "label": "reserves",
        "offset": 0,
        "slot": "2",
        "type": "t_mapping(t_address,t_struct(Reserve)26207_storage)"
      },
      {
        "astId": 26536,
        "contract": "contracts/pm/TicketBroker.sol:TicketBroker",
        "label": "senders",
        "offset": 0,
        "slot": "3",
        "type": "t_mapping(t_address,t_struct(Sender)26531_storage)"
      },
      {
        "astId": 26538,
        "contract": "contracts/pm/TicketBroker.sol:TicketBroker",
        "label": "unlockPeriod",
        "offset": 0,
        "slot": "4",
        "type": "t_uint256"
      },
      {
        "astId": 26542,
        "contract": "contracts/pm/TicketBroker.sol:TicketBroker",
        "label": "usedTickets",
        "offset": 0,
        "slot": "5",
        "type": "t_mapping(t_bytes32,t_bool)"
      },
      {
        "astId": 27339,
        "contract": "contracts/pm/TicketBroker.sol:TicketBroker",
        "label": "ticketValidityPeriod",
        "offset": 0,
        "slot": "6",
        "type": "t_uint256"
      }
    ],
    "types": {
      "t_address": {
        "encoding": "inplace",
        "label": "address",
        "numberOfBytes": "20"
      },
      "t_bool": {
        "encoding": "inplace",
        "label": "bool",
        "numberOfBytes": "1"
      },
      "t_bytes32": {
        "encoding": "inplace",
        "label": "bytes32",
        "numberOfBytes": "32"
      },
      "t_contract(IController)18767": {
        "encoding": "inplace",
        "label": "contract IController",
        "numberOfBytes": "20"
      },
      "t_mapping(t_address,t_struct(Reserve)26207_storage)": {
        "encoding": "mapping",
        "key": "t_address",
        "label": "mapping(address => struct MixinReserve.Reserve)",
        "numberOfBytes": "32",
        "value": "t_struct(Reserve)26207_storage"
      },
      "t_mapping(t_address,t_struct(Sender)26531_storage)": {
        "encoding": "mapping",
        "key": "t_address",
        "label": "mapping(address => struct MixinTicketBrokerCore.Sender)",
        "numberOfBytes": "32",
        "value": "t_struct(Sender)26531_storage"
      },
      "t_mapping(t_address,t_uint256)": {
        "encoding": "mapping",
        "key": "t_address",
        "label": "mapping(address => uint256)",
        "numberOfBytes": "32",
        "value": "t_uint256"
      },
      "t_mapping(t_bytes32,t_bool)": {
        "encoding": "mapping",
        "key": "t_bytes32",
        "label": "mapping(bytes32 => bool)",
        "numberOfBytes": "32",
        "value": "t_bool"
      },
      "t_mapping(t_uint256,t_mapping(t_address,t_uint256))": {
        "encoding": "mapping",
        "key": "t_uint256",
        "label": "mapping(uint256 => mapping(address => uint256))",
        "numberOfBytes": "32",
        "value": "t_mapping(t_address,t_uint256)"
      },
      "t_mapping(t_uint256,t_uint256)": {
        "encoding": "mapping",
        "key": "t_uint256",
        "label": "mapping(uint256 => uint256)",
        "numberOfBytes": "32",
        "value": "t_uint256"
      },
      "t_struct(Reserve)26207_storage": {
        "encoding": "inplace",
        "label": "struct MixinReserve.Reserve",
        "members": [
          {
            "astId": 26196,
            "contract": "contracts/pm/TicketBroker.sol:TicketBroker",
            "label": "funds",
            "offset": 0,
            "slot": "0",
            "type": "t_uint256"
          },
          {
            "astId": 26200,
            "contract": "contracts/pm/TicketBroker.sol:TicketBroker",
            "label": "claimedForRound",
            "offset": 0,
            "slot": "1",
            "type": "t_mapping(t_uint256,t_uint256)"
          },
          {
            "astId": 26206,
            "contract": "contracts/pm/TicketBroker.sol:TicketBroker",
            "label": "claimedByAddress",
            "offset": 0,
            "slot": "2",
            "type": "t_mapping(t_uint256,t_mapping(t_address,t_uint256))"
          }
        ],
        "numberOfBytes": "96"
      },
      "t_struct(Sender)26531_storage": {
        "encoding": "inplace",
        "label": "struct MixinTicketBrokerCore.Sender",
        "members": [
          {
            "astId": 26528,
            "contract": "contracts/pm/TicketBroker.sol:TicketBroker",
            "label": "deposit",
            "offset": 0,
            "slot": "0",
            "type": "t_uint256"
          },
          {
            "astId": 26530,
            "contract": "contracts/pm/TicketBroker.sol:TicketBroker",
            "label": "withdrawRound",
            "offset": 0,
            "slot": "1",
            "type": "t_uint256"
          }
        ],
        "numberOfBytes": "64"
      },
      "t_uint256": {
        "encoding": "inplace",
        "label": "uint256",
        "numberOfBytes": "32"
      }
    }
  }
}