{
  "address": "0x5f306F54D46FEd0253AD3E1389Ac51363D26C5Ca",
  "abi": [
    {
      "inputs": [
        {
          "internalType": "address",
          "name": "_token",
          "type": "address"
        },
        {
          "internalType": "uint256",
          "name": "_requestAmount",
          "type": "uint256"
        },
        {
          "internalType": "uint256",
          "name": "_requestWait",
          "type": "uint256"
        }
      ],
      "stateMutability": "nonpayable",
      "type": "constructor"
    },
    {
      "anonymous": false,
      "inputs": [
        {
          "indexed": true,
          "internalType": "address",
          "name": "previousOwner",
          "type": "address"
        },
        {
          "indexed": true,
          "internalType": "address",
          "name": "newOwner",
          "type": "address"
        }
      ],
      "name": "OwnershipTransferred",
      "type": "event"
    },
    {
      "anonymous": false,
      "inputs": [
        {
          "indexed": true,
          "internalType": "address",
          "name": "to",
          "type": "address"
        },
        {
          "indexed": false,
          "internalType": "uint256",
          "name": "amount",
          "type": "uint256"
        }
      ],
      "name": "Request",
      "type": "event"
    },
    {
      "inputs": [
        {
          "internalType": "address",
          "name": "_addr",
          "type": "address"
        }
      ],
      "name": "addToWhitelist",
      "outputs": [],
      "stateMutability": "nonpayable",
      "type": "function"
    },
    {
      "inputs": [
        {
          "internalType": "address",
          "name": "",
          "type": "address"
        }
      ],
      "name": "isWhitelisted",
      "outputs": [
        {
          "internalType": "bool",
          "name": "",
          "type": "bool"
        }
      ],
      "stateMutability": "view",
      "type": "function"
    },
    {
      "inputs": [
        {
          "internalType": "address",
          "name": "",
          "type": "address"
        }
      ],
      "name": "nextValidRequest",
      "outputs": [
        {
          "internalType": "uint256",
          "name": "",
          "type": "uint256"
        }
      ],
      "stateMutability": "view",
      "type": "function"
    },
    {
      "inputs": [],
      "name": "owner",
      "outputs": [
        {
          "internalType": "address",
          "name": "",
          "type": "address"
        }
      ],
      "stateMutability": "view",
      "type": "function"
    },
    {
      "inputs": [
        {
          "internalType": "address",
          "name": "_addr",
          "type": "address"
        }
      ],
      "name": "removeFromWhitelist",
      "outputs": [],
      "stateMutability": "nonpayable",
      "type": "function"
    },
    {
      "inputs": [],
      "name": "request",
      "outputs": [],
      "stateMutability": "nonpayable",
      "type": "function"
    },
    {
      "inputs": [],
      "name": "requestAmount",
      "outputs": [
        {
          "internalType": "uint256",
          "name": "",
          "type": "uint256"
        }
      ],
      "stateMutability": "view",
      "type": "function"
    },
    {
      "inputs": [],
      "name": "requestWait",
      "outputs": [
        {
          "internalType": "uint256",
          "name": "",
          "type": "uint256"
        }
      ],
      "stateMutability": "view",
      "type": "function"
    },
    {
      "inputs": [],
      "name": "token",
      "outputs": [
        {
          "internalType": "contract ILivepeerToken",
          "name": "",
          "type": "address"
        }
      ],
      "stateMutability": "view",
      "type": "function"
    },
    {
      "inputs": [
        {
          "internalType": "address",
          "name": "newOwner",
          "type": "address"
        }
      ],
      "name": "transferOwnership",
      "outputs": [],
      "stateMutability": "nonpayable",
      "type": "function"
    }
  ],
  "transactionHash": "0x0c25d329ce84700c6be7ec0e34036807aff4ee654f6c60da8cada74ff21f3604",
  "args": [
    "0x9E5403486780c37F6Fe9c47d17Af6151e27fE8a5",
    "10000000000000000000",
    1
  ],
  "numDeployments": 2,
  "solcInputHash": "38b657e341fe6dcb1b812a658e825f5e",
  "bytecode": "0x608060405234801561001057600080fd5b5060405161055e38038061055e83398101604081905261002f91610069565b60008054336001600160a01b031991821617909155600180549091166001600160a01b0394909416939093179092556002556003556100ac565b60008060006060848603121561007e57600080fd5b83516001600160a01b038116811461009557600080fd5b602085015160409095015190969495509392505050565b6104a3806100bb6000396000f3fe608060405234801561001057600080fd5b506004361061009e5760003560e01c80638da5cb5b116100665780638da5cb5b1461012f578063e43252d71461015a578063f2fde38b1461016d578063f52ec46c14610180578063fc0c546a1461018957600080fd5b80630d6c51b3146100a3578063207f5ce6146100bf578063338cdca1146100df5780633af32abf146100e95780638ab1d6811461011c575b600080fd5b6100ac60035481565b6040519081526020015b60405180910390f35b6100ac6100cd3660046103ce565b60046020526000908152604090205481565b6100e761019c565b005b61010c6100f73660046103ce565b60056020526000908152604090205460ff1681565b60405190151581526020016100b6565b6100e761012a3660046103ce565b6102d6565b600054610142906001600160a01b031681565b6040516001600160a01b0390911681526020016100b6565b6100e76101683660046103ce565b61030e565b6100e761017b3660046103ce565b610349565b6100ac60025481565b600154610142906001600160a01b031681565b3360009081526005602052604090205460ff16806101c95750336000908152600460205260409020544210155b6101d257600080fd5b3360009081526005602052604090205460ff16610213576003546101f890610e10610414565b6102029042610433565b336000908152600460205260409020555b60015460025460405163a9059cbb60e01b815233600482015260248101919091526001600160a01b039091169063a9059cbb90604401602060405180830381600087803b15801561026357600080fd5b505af1158015610277573d6000803e3d6000fd5b505050506040513d601f19601f8201168201806040525081019061029b919061044b565b5060025460405190815233907fe31c60e37ab1301f69f01b436a1d13486e6c16cc22c888a08c0e64a39230b6ac9060200160405180910390a2565b6000546001600160a01b031633146102ed57600080fd5b6001600160a01b03166000908152600560205260409020805460ff19169055565b6000546001600160a01b0316331461032557600080fd5b6001600160a01b03166000908152600560205260409020805460ff19166001179055565b6000546001600160a01b0316331461036057600080fd5b6001600160a01b03811661037357600080fd5b600080546040516001600160a01b03808516939216917f8be0079c531659141344cd1fd0a4f28419497f9722a3daafe3b4186f6b6457e091a3600080546001600160a01b0319166001600160a01b0392909216919091179055565b6000602082840312156103e057600080fd5b81356001600160a01b03811681146103f757600080fd5b9392505050565b634e487b7160e01b600052601160045260246000fd5b600081600019048311821515161561042e5761042e6103fe565b500290565b60008219821115610446576104466103fe565b500190565b60006020828403121561045d57600080fd5b815180151581146103f757600080fdfea26469706673582212205cdbe5299a305623b8b136d6247cb4e6c918e81e30e804edb819f957a135e68b64736f6c63430008090033",
  "devdoc": {
    "kind": "dev",
    "methods": {
      "addToWhitelist(address)": {
        "params": {
          "_addr": "Address to be whitelisted"
        }
      },
      "constructor": {
        "params": {
          "_requestAmount": "Amount of token sent to sender for a request",
          "_requestWait": "Amount of time a sender must wait between request (denominated in hours)",
          "_token": "Address of LivepeerToken"
        }
      },
      "removeFromWhitelist(address)": {
        "params": {
          "_addr": "Address to be removed from whitelist"
        }
      },
      "transferOwnership(address)": {
        "details": "Allows the current owner to transfer control of the contract to a newOwner.",
        "params": {
          "newOwner": "The address to transfer ownership to."
        }
      }
    },
    "title": "Faucet for the Livepeer Token",
    "version": 1
  },
  "userdoc": {
    "kind": "user",
    "methods": {
      "addToWhitelist(address)": {
        "notice": "Add an address to the whitelist"
      },
      "constructor": {
        "notice": "LivepeerTokenFacuet constructor"
      },
      "removeFromWhitelist(address)": {
        "notice": "Remove an address from the whitelist"
      },
      "request()": {
        "notice": "Request an amount of token to be sent to sender"
      }
    },
    "version": 1
  },
  "storageLayout": {
    "storage": [
      {
        "astId": 25871,
        "contract": "contracts/token/LivepeerTokenFaucet.sol:LivepeerTokenFaucet",
        "label": "owner",
        "offset": 0,
        "slot": "0",
        "type": "t_address"
      },
      {
        "astId": 25058,
        "contract": "contracts/token/LivepeerTokenFaucet.sol:LivepeerTokenFaucet",
        "label": "token",
        "offset": 0,
        "slot": "1",
        "type": "t_contract(ILivepeerToken)24860"
      },
      {
        "astId": 25060,
        "contract": "contracts/token/LivepeerTokenFaucet.sol:LivepeerTokenFaucet",
        "label": "requestAmount",
        "offset": 0,
        "slot": "2",
        "type": "t_uint256"
      },
      {
        "astId": 25062,
        "contract": "contracts/token/LivepeerTokenFaucet.sol:LivepeerTokenFaucet",
        "label": "requestWait",
        "offset": 0,
        "slot": "3",
        "type": "t_uint256"
      },
      {
        "astId": 25066,
        "contract": "contracts/token/LivepeerTokenFaucet.sol:LivepeerTokenFaucet",
        "label": "nextValidRequest",
        "offset": 0,
        "slot": "4",
        "type": "t_mapping(t_address,t_uint256)"
      },
      {
        "astId": 25070,
        "contract": "contracts/token/LivepeerTokenFaucet.sol:LivepeerTokenFaucet",
        "label": "isWhitelisted",
        "offset": 0,
        "slot": "5",
        "type": "t_mapping(t_address,t_bool)"
      }
    ],
    "types": {
      "t_address": {
        "encoding": "inplace",
        "label": "address",
        "numberOfBytes": "20"
      },
      "t_bool": {
        "encoding": "inplace",
        "label": "bool",
        "numberOfBytes": "1"
      },
      "t_contract(ILivepeerToken)24860": {
        "encoding": "inplace",
        "label": "contract ILivepeerToken",
        "numberOfBytes": "20"
      },
      "t_mapping(t_address,t_bool)": {
        "encoding": "mapping",
        "key": "t_address",
        "label": "mapping(address => bool)",
        "numberOfBytes": "32",
        "value": "t_bool"
      },
      "t_mapping(t_address,t_uint256)": {
        "encoding": "mapping",
        "key": "t_address",
        "label": "mapping(address => uint256)",
        "numberOfBytes": "32",
        "value": "t_uint256"
      },
      "t_uint256": {
        "encoding": "inplace",
        "label": "uint256",
        "numberOfBytes": "32"
      }
    }
  }
}