{
  "address": "0xBF07Ff45f14c9ff0571B9FBDc7e2B62D29931224",
  "abi": [
    {
      "constant": true,
      "inputs": [
        {
          "internalType": "uint256",
          "name": "",
          "type": "uint256"
        }
      ],
      "name": "activeTranscoderSetDEPRECATED",
      "outputs": [
        {
          "internalType": "uint256",
          "name": "totalStake",
          "type": "uint256"
        }
      ],
      "payable": false,
      "stateMutability": "view",
      "type": "function"
    },
    {
      "constant": true,
      "inputs": [],
      "name": "maxEarningsClaimsRounds",
      "outputs": [
        {
          "internalType": "uint256",
          "name": "",
          "type": "uint256"
        }
      ],
      "payable": false,
      "stateMutability": "view",
      "type": "function"
    },
    {
      "constant": false,
      "inputs": [
        {
          "internalType": "address",
          "name": "_to",
          "type": "address"
        },
        {
          "internalType": "uint256",
          "name": "_unbondingLockId",
          "type": "uint256"
        },
        {
          "internalType": "address",
          "name": "_newPosPrev",
          "type": "address"
        },
        {
          "internalType": "address",
          "name": "_newPosNext",
          "type": "address"
        }
      ],
      "name": "rebondFromUnbondedWithHint",
      "outputs": [],
      "payable": false,
      "stateMutability": "nonpayable",
      "type": "function"
    },
    {
      "constant": true,
      "inputs": [
        {
          "internalType": "address",
          "name": "_transcoder",
          "type": "address"
        }
      ],
      "name": "isActiveTranscoder",
      "outputs": [
        {
          "internalType": "bool",
          "name": "",
          "type": "bool"
        }
      ],
      "payable": false,
      "stateMutability": "view",
      "type": "function"
    },
    {
      "constant": true,
      "inputs": [
        {
          "internalType": "address",
          "name": "_delegator",
          "type": "address"
        },
        {
          "internalType": "uint256",
          "name": "_unbondingLockId",
          "type": "uint256"
        }
      ],
      "name": "isValidUnbondingLock",
      "outputs": [
        {
          "internalType": "bool",
          "name": "",
          "type": "bool"
        }
      ],
      "payable": false,
      "stateMutability": "view",
      "type": "function"
    },
    {
      "constant": true,
      "inputs": [
        {
          "internalType": "address",
          "name": "_delegator",
          "type": "address"
        }
      ],
      "name": "delegatorStatus",
      "outputs": [
        {
          "internalType": "enum BondingManager.DelegatorStatus",
          "name": "",
          "type": "uint8"
        }
      ],
      "payable": false,
      "stateMutability": "view",
      "type": "function"
    },
    {
      "constant": false,
      "inputs": [],
      "name": "reward",
      "outputs": [],
      "payable": false,
      "stateMutability": "nonpayable",
      "type": "function"
    },
    {
      "constant": false,
      "inputs": [
        {
          "internalType": "address",
          "name": "_transcoder",
          "type": "address"
        },
        {
          "internalType": "address",
          "name": "_finder",
          "type": "address"
        },
        {
          "internalType": "uint256",
          "name": "_slashAmount",
          "type": "uint256"
        },
        {
          "internalType": "uint256",
          "name": "_finderFee",
          "type": "uint256"
        }
      ],
      "name": "slashTranscoder",
      "outputs": [],
      "payable": false,
      "stateMutability": "nonpayable",
      "type": "function"
    },
    {
      "constant": true,
      "inputs": [
        {
          "internalType": "address",
          "name": "_transcoder",
          "type": "address"
        }
      ],
      "name": "getNextTranscoderInPool",
      "outputs": [
        {
          "internalType": "address",
          "name": "",
          "type": "address"
        }
      ],
      "payable": false,
      "stateMutability": "view",
      "type": "function"
    },
    {
      "constant": true,
      "inputs": [
        {
          "internalType": "address",
          "name": "_transcoder",
          "type": "address"
        },
        {
          "internalType": "uint256",
          "name": "_round",
          "type": "uint256"
        }
      ],
      "name": "getTranscoderEarningsPoolForRound",
      "outputs": [
        {
          "internalType": "uint256",
          "name": "rewardPool",
          "type": "uint256"
        },
        {
          "internalType": "uint256",
          "name": "feePool",
          "type": "uint256"
        },
        {
          "internalType": "uint256",
          "name": "totalStake",
          "type": "uint256"
        },
        {
          "internalType": "uint256",
          "name": "claimableStake",
          "type": "uint256"
        },
        {
          "internalType": "uint256",
          "name": "transcoderRewardCut",
          "type": "uint256"
        },
        {
          "internalType": "uint256",
          "name": "transcoderFeeShare",
          "type": "uint256"
        },
        {
          "internalType": "uint256",
          "name": "transcoderRewardPool",
          "type": "uint256"
        },
        {
          "internalType": "uint256",
          "name": "transcoderFeePool",
          "type": "uint256"
        },
        {
          "internalType": "bool",
          "name": "hasTranscoderRewardFeePool",
          "type": "bool"
        },
        {
          "internalType": "uint256",
          "name": "cumulativeRewardFactor",
          "type": "uint256"
        },
        {
          "internalType": "uint256",
          "name": "cumulativeFeeFactor",
          "type": "uint256"
        }
      ],
      "payable": false,
      "stateMutability": "view",
      "type": "function"
    },
    {
      "constant": false,
      "inputs": [
        {
          "internalType": "uint256",
          "name": "_endRound",
          "type": "uint256"
        }
      ],
      "name": "claimEarnings",
      "outputs": [],
      "payable": false,
      "stateMutability": "nonpayable",
      "type": "function"
    },
    {
      "constant": false,
      "inputs": [
        {
          "internalType": "uint256",
          "name": "_unbondingLockId",
          "type": "uint256"
        }
      ],
      "name": "withdrawStake",
      "outputs": [],
      "payable": false,
      "stateMutability": "nonpayable",
      "type": "function"
    },
    {
      "constant": false,
      "inputs": [
        {
          "internalType": "uint256",
          "name": "_amount",
          "type": "uint256"
        }
      ],
      "name": "unbond",
      "outputs": [],
      "payable": false,
      "stateMutability": "nonpayable",
      "type": "function"
    },
    {
      "constant": true,
      "inputs": [],
      "name": "getTranscoderPoolSize",
      "outputs": [
        {
          "internalType": "uint256",
          "name": "",
          "type": "uint256"
        }
      ],
      "payable": false,
      "stateMutability": "view",
      "type": "function"
    },
    {
      "constant": false,
      "inputs": [
        {
          "internalType": "uint256",
          "name": "_bondedAmount",
          "type": "uint256"
        }
      ],
      "name": "executeLIP77",
      "outputs": [],
      "payable": false,
      "stateMutability": "nonpayable",
      "type": "function"
    },
    {
      "constant": false,
      "inputs": [
        {
          "internalType": "uint256",
          "name": "_rewardCut",
          "type": "uint256"
        },
        {
          "internalType": "uint256",
          "name": "_feeShare",
          "type": "uint256"
        },
        {
          "internalType": "address",
          "name": "_newPosPrev",
          "type": "address"
        },
        {
          "internalType": "address",
          "name": "_newPosNext",
          "type": "address"
        }
      ],
      "name": "transcoderWithHint",
      "outputs": [],
      "payable": false,
      "stateMutability": "nonpayable",
      "type": "function"
    },
    {
      "constant": false,
      "inputs": [
        {
          "internalType": "address",
          "name": "_to",
          "type": "address"
        },
        {
          "internalType": "uint256",
          "name": "_unbondingLockId",
          "type": "uint256"
        }
      ],
      "name": "rebondFromUnbonded",
      "outputs": [],
      "payable": false,
      "stateMutability": "nonpayable",
      "type": "function"
    },
    {
      "constant": false,
      "inputs": [
        {
          "internalType": "address",
          "name": "_transcoder",
          "type": "address"
        },
        {
          "internalType": "uint256",
          "name": "_fees",
          "type": "uint256"
        },
        {
          "internalType": "uint256",
          "name": "_round",
          "type": "uint256"
        }
      ],
      "name": "updateTranscoderWithFees",
      "outputs": [],
      "payable": false,
      "stateMutability": "nonpayable",
      "type": "function"
    },
    {
      "constant": true,
      "inputs": [],
      "name": "numActiveTranscodersDEPRECATED",
      "outputs": [
        {
          "internalType": "uint256",
          "name": "",
          "type": "uint256"
        }
      ],
      "payable": false,
      "stateMutability": "view",
      "type": "function"
    },
    {
      "constant": true,
      "inputs": [
        {
          "internalType": "address",
          "name": "_delegator",
          "type": "address"
        },
        {
          "internalType": "uint256",
          "name": "_unbondingLockId",
          "type": "uint256"
        }
      ],
      "name": "getDelegatorUnbondingLock",
      "outputs": [
        {
          "internalType": "uint256",
          "name": "amount",
          "type": "uint256"
        },
        {
          "internalType": "uint256",
          "name": "withdrawRound",
          "type": "uint256"
        }
      ],
      "payable": false,
      "stateMutability": "view",
      "type": "function"
    },
    {
      "constant": true,
      "inputs": [],
      "name": "currentRoundTotalActiveStake",
      "outputs": [
        {
          "internalType": "uint256",
          "name": "",
          "type": "uint256"
        }
      ],
      "payable": false,
      "stateMutability": "view",
      "type": "function"
    },
    {
      "constant": false,
      "inputs": [
        {
          "internalType": "uint256",
          "name": "_rewardCut",
          "type": "uint256"
        },
        {
          "internalType": "uint256",
          "name": "_feeShare",
          "type": "uint256"
        }
      ],
      "name": "transcoder",
      "outputs": [],
      "payable": false,
      "stateMutability": "nonpayable",
      "type": "function"
    },
    {
      "constant": true,
      "inputs": [],
      "name": "nextRoundTotalActiveStake",
      "outputs": [
        {
          "internalType": "uint256",
          "name": "",
          "type": "uint256"
        }
      ],
      "payable": false,
      "stateMutability": "view",
      "type": "function"
    },
    {
      "constant": false,
      "inputs": [],
      "name": "withdrawFees",
      "outputs": [],
      "payable": false,
      "stateMutability": "nonpayable",
      "type": "function"
    },
    {
      "constant": true,
      "inputs": [],
      "name": "targetContractId",
      "outputs": [
        {
          "internalType": "bytes32",
          "name": "",
          "type": "bytes32"
        }
      ],
      "payable": false,
      "stateMutability": "view",
      "type": "function"
    },
    {
      "constant": true,
      "inputs": [],
      "name": "getTranscoderPoolMaxSize",
      "outputs": [
        {
          "internalType": "uint256",
          "name": "",
          "type": "uint256"
        }
      ],
      "payable": false,
      "stateMutability": "view",
      "type": "function"
    },
    {
      "constant": true,
      "inputs": [],
      "name": "getTotalBonded",
      "outputs": [
        {
          "internalType": "uint256",
          "name": "",
          "type": "uint256"
        }
      ],
      "payable": false,
      "stateMutability": "view",
      "type": "function"
    },
    {
      "constant": true,
      "inputs": [
        {
          "internalType": "address",
          "name": "_transcoder",
          "type": "address"
        }
      ],
      "name": "getTranscoder",
      "outputs": [
        {
          "internalType": "uint256",
          "name": "lastRewardRound",
          "type": "uint256"
        },
        {
          "internalType": "uint256",
          "name": "rewardCut",
          "type": "uint256"
        },
        {
          "internalType": "uint256",
          "name": "feeShare",
          "type": "uint256"
        },
        {
          "internalType": "uint256",
          "name": "lastActiveStakeUpdateRound",
          "type": "uint256"
        },
        {
          "internalType": "uint256",
          "name": "activationRound",
          "type": "uint256"
        },
        {
          "internalType": "uint256",
          "name": "deactivationRound",
          "type": "uint256"
        },
        {
          "internalType": "uint256",
          "name": "activeCumulativeRewards",
          "type": "uint256"
        },
        {
          "internalType": "uint256",
          "name": "cumulativeRewards",
          "type": "uint256"
        },
        {
          "internalType": "uint256",
          "name": "cumulativeFees",
          "type": "uint256"
        },
        {
          "internalType": "uint256",
          "name": "lastFeeRound",
          "type": "uint256"
        }
      ],
      "payable": false,
      "stateMutability": "view",
      "type": "function"
    },
    {
      "constant": false,
      "inputs": [
        {
          "internalType": "uint256",
          "name": "_numActiveTranscoders",
          "type": "uint256"
        }
      ],
      "name": "setNumActiveTranscoders",
      "outputs": [],
      "payable": false,
      "stateMutability": "nonpayable",
      "type": "function"
    },
    {
      "constant": true,
      "inputs": [
        {
          "internalType": "address",
          "name": "_transcoder",
          "type": "address"
        }
      ],
      "name": "isRegisteredTranscoder",
      "outputs": [
        {
          "internalType": "bool",
          "name": "",
          "type": "bool"
        }
      ],
      "payable": false,
      "stateMutability": "view",
      "type": "function"
    },
    {
      "constant": false,
      "inputs": [
        {
          "internalType": "uint256",
          "name": "_amount",
          "type": "uint256"
        },
        {
          "internalType": "address",
          "name": "_to",
          "type": "address"
        },
        {
          "internalType": "address",
          "name": "_oldDelegateNewPosPrev",
          "type": "address"
        },
        {
          "internalType": "address",
          "name": "_oldDelegateNewPosNext",
          "type": "address"
        },
        {
          "internalType": "address",
          "name": "_currDelegateNewPosPrev",
          "type": "address"
        },
        {
          "internalType": "address",
          "name": "_currDelegateNewPosNext",
          "type": "address"
        }
      ],
      "name": "bondWithHint",
      "outputs": [],
      "payable": false,
      "stateMutability": "nonpayable",
      "type": "function"
    },
    {
      "constant": true,
      "inputs": [],
      "name": "unbondingPeriod",
      "outputs": [
        {
          "internalType": "uint64",
          "name": "",
          "type": "uint64"
        }
      ],
      "payable": false,
      "stateMutability": "view",
      "type": "function"
    },
    {
      "constant": false,
      "inputs": [],
      "name": "setCurrentRoundTotalActiveStake",
      "outputs": [],
      "payable": false,
      "stateMutability": "nonpayable",
      "type": "function"
    },
    {
      "constant": false,
      "inputs": [
        {
          "internalType": "uint256",
          "name": "_maxEarningsClaimsRounds",
          "type": "uint256"
        }
      ],
      "name": "setMaxEarningsClaimsRounds",
      "outputs": [],
      "payable": false,
      "stateMutability": "nonpayable",
      "type": "function"
    },
    {
      "constant": false,
      "inputs": [
        {
          "internalType": "uint256",
          "name": "_unbondingLockId",
          "type": "uint256"
        },
        {
          "internalType": "address",
          "name": "_newPosPrev",
          "type": "address"
        },
        {
          "internalType": "address",
          "name": "_newPosNext",
          "type": "address"
        }
      ],
      "name": "rebondWithHint",
      "outputs": [],
      "payable": false,
      "stateMutability": "nonpayable",
      "type": "function"
    },
    {
      "constant": false,
      "inputs": [
        {
          "internalType": "address",
          "name": "_newPosPrev",
          "type": "address"
        },
        {
          "internalType": "address",
          "name": "_newPosNext",
          "type": "address"
        }
      ],
      "name": "rewardWithHint",
      "outputs": [],
      "payable": false,
      "stateMutability": "nonpayable",
      "type": "function"
    },
    {
      "constant": true,
      "inputs": [],
      "name": "getFirstTranscoderInPool",
      "outputs": [
        {
          "internalType": "address",
          "name": "",
          "type": "address"
        }
      ],
      "payable": false,
      "stateMutability": "view",
      "type": "function"
    },
    {
      "constant": true,
      "inputs": [
        {
          "internalType": "address",
          "name": "_transcoder",
          "type": "address"
        }
      ],
      "name": "transcoderStatus",
      "outputs": [
        {
          "internalType": "enum BondingManager.TranscoderStatus",
          "name": "",
          "type": "uint8"
        }
      ],
      "payable": false,
      "stateMutability": "view",
      "type": "function"
    },
    {
      "constant": false,
      "inputs": [
        {
          "internalType": "address",
          "name": "_controller",
          "type": "address"
        }
      ],
      "name": "setController",
      "outputs": [],
      "payable": false,
      "stateMutability": "nonpayable",
      "type": "function"
    },
    {
      "constant": false,
      "inputs": [
        {
          "internalType": "uint256",
          "name": "_amount",
          "type": "uint256"
        },
        {
          "internalType": "address",
          "name": "_newPosPrev",
          "type": "address"
        },
        {
          "internalType": "address",
          "name": "_newPosNext",
          "type": "address"
        }
      ],
      "name": "unbondWithHint",
      "outputs": [],
      "payable": false,
      "stateMutability": "nonpayable",
      "type": "function"
    },
    {
      "constant": true,
      "inputs": [
        {
          "internalType": "address",
          "name": "_delegator",
          "type": "address"
        },
        {
          "internalType": "uint256",
          "name": "_endRound",
          "type": "uint256"
        }
      ],
      "name": "pendingStake",
      "outputs": [
        {
          "internalType": "uint256",
          "name": "",
          "type": "uint256"
        }
      ],
      "payable": false,
      "stateMutability": "view",
      "type": "function"
    },
    {
      "constant": true,
      "inputs": [
        {
          "internalType": "address",
          "name": "_transcoder",
          "type": "address"
        }
      ],
      "name": "transcoderTotalStake",
      "outputs": [
        {
          "internalType": "uint256",
          "name": "",
          "type": "uint256"
        }
      ],
      "payable": false,
      "stateMutability": "view",
      "type": "function"
    },
    {
      "constant": true,
      "inputs": [
        {
          "internalType": "address",
          "name": "_delegator",
          "type": "address"
        }
      ],
      "name": "getDelegator",
      "outputs": [
        {
          "internalType": "uint256",
          "name": "bondedAmount",
          "type": "uint256"
        },
        {
          "internalType": "uint256",
          "name": "fees",
          "type": "uint256"
        },
        {
          "internalType": "address",
          "name": "delegateAddress",
          "type": "address"
        },
        {
          "internalType": "uint256",
          "name": "delegatedAmount",
          "type": "uint256"
        },
        {
          "internalType": "uint256",
          "name": "startRound",
          "type": "uint256"
        },
        {
          "internalType": "uint256",
          "name": "lastClaimRound",
          "type": "uint256"
        },
        {
          "internalType": "uint256",
          "name": "nextUnbondingLockId",
          "type": "uint256"
        }
      ],
      "payable": false,
      "stateMutability": "view",
      "type": "function"
    },
    {
      "constant": false,
      "inputs": [
        {
          "internalType": "uint256",
          "name": "_amount",
          "type": "uint256"
        },
        {
          "internalType": "address",
          "name": "_to",
          "type": "address"
        }
      ],
      "name": "bond",
      "outputs": [],
      "payable": false,
      "stateMutability": "nonpayable",
      "type": "function"
    },
    {
      "constant": false,
      "inputs": [
        {
          "internalType": "uint256",
          "name": "_pendingStake",
          "type": "uint256"
        },
        {
          "internalType": "uint256",
          "name": "_pendingFees",
          "type": "uint256"
        },
        {
          "internalType": "bytes32[]",
          "name": "_earningsProof",
          "type": "bytes32[]"
        },
        {
          "internalType": "bytes",
          "name": "_data",
          "type": "bytes"
        }
      ],
      "name": "claimSnapshotEarnings",
      "outputs": [],
      "payable": false,
      "stateMutability": "nonpayable",
      "type": "function"
    },
    {
      "constant": false,
      "inputs": [
        {
          "internalType": "uint256",
          "name": "_unbondingLockId",
          "type": "uint256"
        }
      ],
      "name": "rebond",
      "outputs": [],
      "payable": false,
      "stateMutability": "nonpayable",
      "type": "function"
    },
    {
      "constant": false,
      "inputs": [
        {
          "internalType": "uint64",
          "name": "_unbondingPeriod",
          "type": "uint64"
        }
      ],
      "name": "setUnbondingPeriod",
      "outputs": [],
      "payable": false,
      "stateMutability": "nonpayable",
      "type": "function"
    },
    {
      "constant": true,
      "inputs": [
        {
          "internalType": "address",
          "name": "_delegator",
          "type": "address"
        },
        {
          "internalType": "uint256",
          "name": "_endRound",
          "type": "uint256"
        }
      ],
      "name": "pendingFees",
      "outputs": [
        {
          "internalType": "uint256",
          "name": "",
          "type": "uint256"
        }
      ],
      "payable": false,
      "stateMutability": "view",
      "type": "function"
    },
    {
      "constant": true,
      "inputs": [],
      "name": "controller",
      "outputs": [
        {
          "internalType": "contract IController",
          "name": "",
          "type": "address"
        }
      ],
      "payable": false,
      "stateMutability": "view",
      "type": "function"
    },
    {
      "inputs": [
        {
          "internalType": "address",
          "name": "_controller",
          "type": "address"
        }
      ],
      "payable": false,
      "stateMutability": "nonpayable",
      "type": "constructor"
    },
    {
      "anonymous": false,
      "inputs": [
        {
          "indexed": true,
          "internalType": "address",
          "name": "transcoder",
          "type": "address"
        },
        {
          "indexed": false,
          "internalType": "uint256",
          "name": "rewardCut",
          "type": "uint256"
        },
        {
          "indexed": false,
          "internalType": "uint256",
          "name": "feeShare",
          "type": "uint256"
        }
      ],
      "name": "TranscoderUpdate",
      "type": "event"
    },
    {
      "anonymous": false,
      "inputs": [
        {
          "indexed": true,
          "internalType": "address",
          "name": "transcoder",
          "type": "address"
        },
        {
          "indexed": false,
          "internalType": "uint256",
          "name": "activationRound",
          "type": "uint256"
        }
      ],
      "name": "TranscoderActivated",
      "type": "event"
    },
    {
      "anonymous": false,
      "inputs": [
        {
          "indexed": true,
          "internalType": "address",
          "name": "transcoder",
          "type": "address"
        },
        {
          "indexed": false,
          "internalType": "uint256",
          "name": "deactivationRound",
          "type": "uint256"
        }
      ],
      "name": "TranscoderDeactivated",
      "type": "event"
    },
    {
      "anonymous": false,
      "inputs": [
        {
          "indexed": true,
          "internalType": "address",
          "name": "transcoder",
          "type": "address"
        },
        {
          "indexed": false,
          "internalType": "address",
          "name": "finder",
          "type": "address"
        },
        {
          "indexed": false,
          "internalType": "uint256",
          "name": "penalty",
          "type": "uint256"
        },
        {
          "indexed": false,
          "internalType": "uint256",
          "name": "finderReward",
          "type": "uint256"
        }
      ],
      "name": "TranscoderSlashed",
      "type": "event"
    },
    {
      "anonymous": false,
      "inputs": [
        {
          "indexed": true,
          "internalType": "address",
          "name": "transcoder",
          "type": "address"
        },
        {
          "indexed": false,
          "internalType": "uint256",
          "name": "amount",
          "type": "uint256"
        }
      ],
      "name": "Reward",
      "type": "event"
    },
    {
      "anonymous": false,
      "inputs": [
        {
          "indexed": true,
          "internalType": "address",
          "name": "newDelegate",
          "type": "address"
        },
        {
          "indexed": true,
          "internalType": "address",
          "name": "oldDelegate",
          "type": "address"
        },
        {
          "indexed": true,
          "internalType": "address",
          "name": "delegator",
          "type": "address"
        },
        {
          "indexed": false,
          "internalType": "uint256",
          "name": "additionalAmount",
          "type": "uint256"
        },
        {
          "indexed": false,
          "internalType": "uint256",
          "name": "bondedAmount",
          "type": "uint256"
        }
      ],
      "name": "Bond",
      "type": "event"
    },
    {
      "anonymous": false,
      "inputs": [
        {
          "indexed": true,
          "internalType": "address",
          "name": "delegate",
          "type": "address"
        },
        {
          "indexed": true,
          "internalType": "address",
          "name": "delegator",
          "type": "address"
        },
        {
          "indexed": false,
          "internalType": "uint256",
          "name": "unbondingLockId",
          "type": "uint256"
        },
        {
          "indexed": false,
          "internalType": "uint256",
          "name": "amount",
          "type": "uint256"
        },
        {
          "indexed": false,
          "internalType": "uint256",
          "name": "withdrawRound",
          "type": "uint256"
        }
      ],
      "name": "Unbond",
      "type": "event"
    },
    {
      "anonymous": false,
      "inputs": [
        {
          "indexed": true,
          "internalType": "address",
          "name": "delegate",
          "type": "address"
        },
        {
          "indexed": true,
          "internalType": "address",
          "name": "delegator",
          "type": "address"
        },
        {
          "indexed": false,
          "internalType": "uint256",
          "name": "unbondingLockId",
          "type": "uint256"
        },
        {
          "indexed": false,
          "internalType": "uint256",
          "name": "amount",
          "type": "uint256"
        }
      ],
      "name": "Rebond",
      "type": "event"
    },
    {
      "anonymous": false,
      "inputs": [
        {
          "indexed": true,
          "internalType": "address",
          "name": "delegator",
          "type": "address"
        },
        {
          "indexed": false,
          "internalType": "uint256",
          "name": "unbondingLockId",
          "type": "uint256"
        },
        {
          "indexed": false,
          "internalType": "uint256",
          "name": "amount",
          "type": "uint256"
        },
        {
          "indexed": false,
          "internalType": "uint256",
          "name": "withdrawRound",
          "type": "uint256"
        }
      ],
      "name": "WithdrawStake",
      "type": "event"
    },
    {
      "anonymous": false,
      "inputs": [
        {
          "indexed": true,
          "internalType": "address",
          "name": "delegator",
          "type": "address"
        }
      ],
      "name": "WithdrawFees",
      "type": "event"
    },
    {
      "anonymous": false,
      "inputs": [
        {
          "indexed": true,
          "internalType": "address",
          "name": "delegate",
          "type": "address"
        },
        {
          "indexed": true,
          "internalType": "address",
          "name": "delegator",
          "type": "address"
        },
        {
          "indexed": false,
          "internalType": "uint256",
          "name": "rewards",
          "type": "uint256"
        },
        {
          "indexed": false,
          "internalType": "uint256",
          "name": "fees",
          "type": "uint256"
        },
        {
          "indexed": false,
          "internalType": "uint256",
          "name": "startRound",
          "type": "uint256"
        },
        {
          "indexed": false,
          "internalType": "uint256",
          "name": "endRound",
          "type": "uint256"
        }
      ],
      "name": "EarningsClaimed",
      "type": "event"
    },
    {
      "anonymous": false,
      "inputs": [
        {
          "indexed": false,
          "internalType": "address",
          "name": "controller",
          "type": "address"
        }
      ],
      "name": "SetController",
      "type": "event"
    },
    {
      "anonymous": false,
      "inputs": [
        {
          "indexed": false,
          "internalType": "string",
          "name": "param",
          "type": "string"
        }
      ],
      "name": "ParameterUpdate",
      "type": "event"
    }
  ],
  "transactionHash": "0xb9d9343f82c6be27b47f3caeaf8ced6a3116a68c342770ea5dad20e274a096d0",
  "args": [
    "0x1621165617F8D4b6D8c8C03Fce246CfF00450621"
  ],
  "solcInputHash": "ebcc0ae727048c8076751259a562c240",
  "bytecode": "0x60806040523480156200001157600080fd5b5060405162005e0538038062005e05833981810160405260208110156200003757600080fd5b5051600080546001600160a01b039092166001600160a01b0319909216919091179055615d9b806200006a6000396000f3fe608060405234801561001057600080fd5b50600436106102bb5760003560e01c806351720b411161018257806388a6c749116100e9578063a64ad595116100a2578063eaffb3f91161007c578063eaffb3f914610aa0578063f10d1de114610abd578063f595f1cc14610ae4578063f77c479114610b10576102bb565b8063a64ad59514610940578063b78d27dc146109a6578063c6d63d8c146109d2576102bb565b806388a6c749146108565780638b2f16521461085e57806392eefe9b146108945780639500ed9b146108ba5780639d0b2c7a146108ee5780639ef9df941461091a576102bb565b80636bd9add41161013b5780636bd9add41461075c5780636cf6d675146107aa578063713f2216146107cf57806372d9f13d146107d75780637fc4606f146107f45780638187105614610828576102bb565b806351720b411461068b5780635a2a75a9146106935780635c50c3561461069b5780635dce9948146106a3578063673a456b1461071957806368ba170c14610736576102bb565b806327de9e32116102265780633c725cbb116101df5780633c725cbb14610603578063412f83b61461060b5780634196ee751461065057806343d3461a14610658578063465501d31461067b578063476343ee14610683576102bb565b806327de9e32146105295780632a4e0d551461054657806334aba2141461054e5780633550aa101461056b5780633a080e93146105a55780633aeb512c146105d1576102bb565b8063228cb73311610278578063228cb733146103e557806322bf9d7c146103ed578063235c96031461042957806324454fc41461046b57806324b1babf146104ef57806325d5971f1461050c576102bb565b8063014ee259146102c0578063038424c3146102ef5780630584a373146102f757806308802374146103355780630fd02fc11461036f5780631544fc671461039b575b600080fd5b6102dd600480360360208110156102d657600080fd5b5035610b18565b60408051918252519081900360200190f35b6102dd610b2d565b6103336004803603608081101561030d57600080fd5b506001600160a01b03813581169160208101359160408201358116916060013516610b33565b005b61035b6004803603602081101561034b57600080fd5b50356001600160a01b0316610c77565b604080519115158252519081900360200190f35b61035b6004803603604081101561038557600080fd5b506001600160a01b038135169060200135610d20565b6103c1600480360360208110156103b157600080fd5b50356001600160a01b0316610d53565b604051808260028111156103d157fe5b60ff16815260200191505060405180910390f35b610333610e06565b6103336004803603608081101561040357600080fd5b506001600160a01b03813581169160208101359091169060408101359060600135610e13565b61044f6004803603602081101561043f57600080fd5b50356001600160a01b03166111f9565b604080516001600160a01b039092168252519081900360200190f35b6104976004803603604081101561048157600080fd5b506001600160a01b038135169060200135611290565b604080519b8c5260208c019a909a528a8a019890985260608a0196909652608089019490945260a088019290925260c087015260e0860152151561010085015261012084015261014083015251908190036101600190f35b6103336004803603602081101561050557600080fd5b5035611304565b6103336004803603602081101561052257600080fd5b503561149e565b6103336004803603602081101561053f57600080fd5b50356116bf565b6102dd6116ce565b6103336004803603602081101561056457600080fd5b5035611753565b6103336004803603608081101561058157600080fd5b508035906020810135906001600160a01b0360408201358116916060013516611876565b610333600480360360408110156105bb57600080fd5b506001600160a01b038135169060200135611c12565b610333600480360360608110156105e757600080fd5b506001600160a01b038135169060208101359060400135611c1f565b6102dd612007565b6106376004803603604081101561062157600080fd5b506001600160a01b03813516906020013561200d565b6040805192835260208301919091528051918290030190f35b6102dd612043565b6103336004803603604081101561066e57600080fd5b5080359060200135612049565b6102dd612056565b61033361205c565b6102dd61218f565b6102dd612195565b6102dd6121e9565b6106c9600480360360208110156106b957600080fd5b50356001600160a01b03166121ef565b604080519a8b5260208b0199909952898901979097526060890195909552608088019390935260a087019190915260c086015260e085015261010084015261012083015251908190036101400190f35b6103336004803603602081101561072f57600080fd5b503561224a565b61035b6004803603602081101561074c57600080fd5b50356001600160a01b031661231e565b610333600480360360c081101561077257600080fd5b508035906001600160a01b03602082013581169160408101358216916060820135811691608081013582169160a09091013516612356565b6107b26126ef565b6040805167ffffffffffffffff9092168252519081900360200190f35b6103336126ff565b610333600480360360208110156107ed57600080fd5b503561270f565b6103336004803603606081101561080a57600080fd5b508035906001600160a01b036020820135811691604001351661277f565b6103336004803603604081101561083e57600080fd5b506001600160a01b0381358116916020013516612809565b61044f612a61565b6108846004803603602081101561087457600080fd5b50356001600160a01b0316612ab5565b604051808260018111156103d157fe5b610333600480360360208110156108aa57600080fd5b50356001600160a01b0316612ad5565b610333600480360360608110156108d057600080fd5b508035906001600160a01b0360208201358116916040013516612b31565b6102dd6004803603604081101561090457600080fd5b506001600160a01b038135169060200135612e4e565b6102dd6004803603602081101561093057600080fd5b50356001600160a01b0316612f54565b6109666004803603602081101561095657600080fd5b50356001600160a01b0316612f72565b6040805197885260208801969096526001600160a01b03909416868601526060860192909252608085015260a084015260c0830152519081900360e00190f35b610333600480360360408110156109bc57600080fd5b50803590602001356001600160a01b0316612fbe565b610333600480360360808110156109e857600080fd5b813591602081013591810190606081016040820135640100000000811115610a0f57600080fd5b820183602082011115610a2157600080fd5b80359060200191846020830284011164010000000083111715610a4357600080fd5b919390929091602081019035640100000000811115610a6157600080fd5b820183602082011115610a7357600080fd5b80359060200191846001830284011164010000000083111715610a9557600080fd5b509092509050612fce565b61033360048036036020811015610ab657600080fd5b503561344d565b61033360048036036020811015610ad357600080fd5b503567ffffffffffffffff16613459565b6102dd60048036036040811015610afa57600080fd5b506001600160a01b0381351690602001356134d4565b61044f6135da565b600d6020526000908152604090206002015481565b60045481565b610b3b6135e9565b610b436136a7565b610b4b613764565b6002610b5633610d53565b6002811115610b6157fe5b14610bb3576040805162461bcd60e51b815260206004820152601760248201527f63616c6c6572206d75737420626520756e626f6e646564000000000000000000604482015290519081900360640190fd5b610c306001610bc06137fb565b6001600160a01b0316638a19c8bc6040518163ffffffff1660e01b815260040160206040518083038186803b158015610bf857600080fd5b505afa158015610c0c573d6000803e3d6000fd5b505050506040513d6020811015610c2257600080fd5b50519063ffffffff61387816565b3360008181526005602052604090206004810192909255600290910180546001600160a01b0319166001600160a01b038716179055610c71908484846138d2565b50505050565b6001600160a01b038116600090815260066020526040812081610c986137fb565b6001600160a01b0316638a19c8bc6040518163ffffffff1660e01b815260040160206040518083038186803b158015610cd057600080fd5b505afa158015610ce4573d6000803e3d6000fd5b505050506040513d6020811015610cfa57600080fd5b505160098301549091508110801590610d16575081600a015481105b925050505b919050565b6001600160a01b038216600090815260056020908152604080832084845260080190915290206001015415155b92915050565b6001600160a01b03811660009081526005602052604081208054610d7b576002915050610d1b565b610d836137fb565b6001600160a01b0316638a19c8bc6040518163ffffffff1660e01b815260040160206040518083038186803b158015610dbb57600080fd5b505afa158015610dcf573d6000803e3d6000fd5b505050506040513d6020811015610de557600080fd5b505160048201541115610dfc576000915050610d1b565b6001915050610d1b565b610e11600080612809565b565b610e1b6135e9565b610e236139ec565b6001600160a01b03841660009081526005602052604090208054156111a3576001600160a01b038516600090815260056020526040812054610e659085613ad7565b6040805163b0138c4760e01b8152601060048201526001600160a01b038916602482015290519192507339A640D0E4eE2F81231aF4a960b503410201C91b9163b0138c4791604480820192602092909190829003018186803b158015610eca57600080fd5b505af4158015610ede573d6000803e3d6000fd5b505050506040513d6020811015610ef457600080fd5b505115610f0457610f0486613afc565b8154610f16908263ffffffff613bff16565b82556001610f2387610d53565b6002811115610f2e57fe5b1415610f855760028201546001600160a01b0316600090815260056020526040902060030154610f64908263ffffffff613bff16565b60028301546001600160a01b03166000908152600560205260409020600301555b806001600160a01b038616156110ea576000610fa18386613ad7565b9050610fab613c5c565b6001600160a01b031663e7a49c2b88836040518363ffffffff1660e01b815260040180836001600160a01b03166001600160a01b0316815260200182815260200192505050600060405180830381600087803b15801561100a57600080fd5b505af115801561101e573d6000803e3d6000fd5b5050505061102a613c5c565b6001600160a01b031663c7ee98c2611048848463ffffffff613bff16565b6040518263ffffffff1660e01b815260040180828152602001915050600060405180830381600087803b15801561107e57600080fd5b505af1158015611092573d6000803e3d6000fd5b5050604080516001600160a01b038b81168252602082018890528183018690529151918c1693507ff4b71fed8e2c9a8c67c388bc6d35ad20b9368a24eed6d565459f2b277b6c0c22925081900360600190a25061119c565b6110f2613c5c565b6001600160a01b031663c7ee98c2826040518263ffffffff1660e01b815260040180828152602001915050600060405180830381600087803b15801561113757600080fd5b505af115801561114b573d6000803e3d6000fd5b5050604080516000808252602082018790528183015290516001600160a01b038b1693507ff4b71fed8e2c9a8c67c388bc6d35ad20b9368a24eed6d565459f2b277b6c0c2292509081900360600190a25b50506111f2565b604080516001600160a01b038681168252600060208301819052828401529151918716917ff4b71fed8e2c9a8c67c388bc6d35ad20b9368a24eed6d565459f2b277b6c0c229181900360600190a25b5050505050565b6040805163e189dedb60e01b8152601060048201526001600160a01b038316602482015290516000917339A640D0E4eE2F81231aF4a960b503410201C91b9163e189dedb91604480820192602092909190829003018186803b15801561125e57600080fd5b505af4158015611272573d6000803e3d6000fd5b505050506040513d602081101561128857600080fd5b505192915050565b6001600160a01b0390911660009081526006602081815260408084209484526007948501909152909120805460018201546002830154600384015460048501546005860154968601549786015460088701546009880154600a90980154969a95999498939792969395919360ff9091169291565b61130c6135e9565b6113146136a7565b336000908152600560205260409020600601548181106113655760405162461bcd60e51b8152600401808060200182810382526028815260200180615d3f6028913960400191505060405180910390fd5b61136d6137fb565b6001600160a01b0316638a19c8bc6040518163ffffffff1660e01b815260040160206040518083038186803b1580156113a557600080fd5b505afa1580156113b9573d6000803e3d6000fd5b505050506040513d60208110156113cf57600080fd5b505182148061145457506113e16137fb565b6001600160a01b0316631e6d4c2260246040518263ffffffff1660e01b81526004018082815260200191505060206040518083038186803b15801561142557600080fd5b505afa158015611439573d6000803e3d6000fd5b505050506040513d602081101561144f57600080fd5b505182105b61148f5760405162461bcd60e51b815260040180806020018281038252604f815260200180615b2c604f913960600191505060405180910390fd5b61149a338383613cbe565b5050565b6114a66135e9565b6114ae6136a7565b3360008181526005602090815260408083208584526008810190925290912090916114d99084610d20565b611526576040805162461bcd60e51b81526020600482015260196024820152781a5b9d985b1a59081d5b989bdb991a5b99c81b1bd8dac81251603a1b604482015290519081900360640190fd5b61152e6137fb565b6001600160a01b0316638a19c8bc6040518163ffffffff1660e01b815260040160206040518083038186803b15801561156657600080fd5b505afa15801561157a573d6000803e3d6000fd5b505050506040513d602081101561159057600080fd5b5051600182015411156115d45760405162461bcd60e51b815260040180806020018281038252603b815260200180615c6d603b913960400191505060405180910390fd5b805460018083015460008681526008860160205260408120818155909201919091556115fe613c5c565b6001600160a01b031663e7a49c2b33846040518363ffffffff1660e01b815260040180836001600160a01b03166001600160a01b0316815260200182815260200192505050600060405180830381600087803b15801561165d57600080fd5b505af1158015611671573d6000803e3d6000fd5b5050604080518881526020810186905280820185905290513393507f1340f1a8f3d456a649e1a12071dfa15655e3d09252131d0f980c3b405cc8dd2e92509081900360600190a25050505050565b6116cb81600080612b31565b50565b600060107339A640D0E4eE2F81231aF4a960b503410201C91b63b32ece5890916040518263ffffffff1660e01b81526004018082815260200191505060206040518083038186803b15801561172257600080fd5b505af4158015611736573d6000803e3d6000fd5b505050506040513d602081101561174c57600080fd5b5051905090565b61175b613f65565b60155460ff16156117b3576040805162461bcd60e51b815260206004820152601760248201527f4c49502d373720616c7265616479206578656375746564000000000000000000604482015290519081900360640190fd5b6015805460ff1916600117905573b47d8f87c0113827d44ad0bc32d53823c477a89d6000818152600560209081527f90d2cbc514b210f73704f31701c8c1b7de44d98c858af1c59cb215bf4d9a8c8e8490557f90d2cbc514b210f73704f31701c8c1b7de44d98c858af1c59cb215bf4d9a8c90546040805193845291830185905281516001600160a01b03919091169392849283927fe5917769f276ddca9f2ee7c6b0b33e1d1e1b61008010ce622c632dd20d168a239281900390910190a45050565b61187e6135e9565b6118866136a7565b61188e6137fb565b6001600160a01b0316636841f2536040518163ffffffff1660e01b815260040160206040518083038186803b1580156118c657600080fd5b505afa1580156118da573d6000803e3d6000fd5b505050506040513d60208110156118f057600080fd5b50511561192e5760405162461bcd60e51b8152600401808060200182810382526037815260200180615d086037913960400191505060405180910390fd5b6119378461403a565b611988576040805162461bcd60e51b815260206004820152601c60248201527f696e76616c6964207265776172644375742070657263656e7461676500000000604482015290519081900360640190fd5b6119918361403a565b6119e2576040805162461bcd60e51b815260206004820152601b60248201527f696e76616c69642066656553686172652070657263656e746167650000000000604482015290519081900360640190fd5b6119eb3361231e565b611a3c576040805162461bcd60e51b815260206004820152601d60248201527f7472616e73636f646572206d7573742062652072656769737465726564000000604482015290519081900360640190fd5b33600090815260066020526040812090611a546137fb565b6001600160a01b0316638a19c8bc6040518163ffffffff1660e01b815260040160206040518083038186803b158015611a8c57600080fd5b505afa158015611aa0573d6000803e3d6000fd5b505050506040513d6020811015611ab657600080fd5b50519050611ac333610c77565b1580611acf5750815481145b611b0a5760405162461bcd60e51b815260040180806020018281038252604f815260200180615b7b604f913960600191505060405180910390fd5b60018201869055600282018590556040805163b0138c4760e01b81526010600482015233602482015290517339A640D0E4eE2F81231aF4a960b503410201C91b9163b0138c47916044808301926020929190829003018186803b158015611b7057600080fd5b505af4158015611b84573d6000803e3d6000fd5b505050506040513d6020811015611b9a57600080fd5b5051611bd05733600081815260056020526040902060030154611bd09190611bc984600163ffffffff61387816565b8787614043565b6040805187815260208101879052815133927f7346854431dbb3eb8e373c604abf89e90f4865b8447e1e2834d7b3e4677bf544928290030190a2505050505050565b61149a8282600080610b33565b611c276135e9565b611c2f614394565b611c388361231e565b611c89576040805162461bcd60e51b815260206004820152601d60248201527f7472616e73636f646572206d7573742062652072656769737465726564000000604482015290519081900360640190fd5b6000611c936137fb565b6001600160a01b0316638a19c8bc6040518163ffffffff1660e01b815260040160206040518083038186803b158015611ccb57600080fd5b505afa158015611cdf573d6000803e3d6000fd5b505050506040513d6020811015611cf557600080fd5b50516001600160a01b03851660009081526006602090815260408083208054600b82015486865260078301909452919093209394509192611d34615aab565b611d4e85611d4988600163ffffffff613bff16565b614483565b905083861115611dae5760018501546002860154611d7391849163ffffffff61450216565b600885015486811015611da5576000818152600787016020526040902060020154611da590849063ffffffff61451216565b85600c01549350505b6002820154610120820151158015611dc557508685145b15611edf576000611dd4613c5c565b90506000611e8c611e83836001600160a01b0316632de22cdb6040518163ffffffff1660e01b815260040160206040518083038186803b158015611e1757600080fd5b505afa158015611e2b573d6000803e3d6000fd5b505050506040513d6020811015611e4157600080fd5b505160408051634d73184d60e11b815290516001600160a01b03871691639ae6309a916004808301926020929190829003018186803b158015610bf857600080fd5b84600e5461451a565b90506000611e9e828760040154613ad7565b90506000611eb2838363ffffffff613bff16565b6009880154909150611ed49086611ecf848263ffffffff61387816565b61451a565b610120870152505050505b610120820151158015611f685750611ef56137fb565b6001600160a01b0316631e6d4c2260476040518263ffffffff1660e01b81526004018082815260200191505060206040518083038186803b158015611f3957600080fd5b505afa158015611f4d573d6000803e3d6000fd5b505050506040513d6020811015611f6357600080fd5b505187105b15611f7f57611f7860018061454e565b6101208301525b6000611f8f8a8560050154613ad7565b90506000611fa38b8363ffffffff613bff16565b90506000611fb283888661451a565b9050611fdb82611fcf838c600d015461387890919063ffffffff16565b9063ffffffff61387816565b600d8a0155611ff186868563ffffffff61456716565b50505050600e9094019490945550505050505050565b60035481565b6001600160a01b0382166000908152600560209081526040808320848452600801909152902080546001909101545b9250929050565b600e5481565b61149a8282600080611876565b600f5481565b6120646135e9565b61206c6136a7565b612074613764565b33600090815260056020526040902060010154806120cf576040805162461bcd60e51b81526020600482015260136024820152726e6f206665657320746f20776974686472617760681b604482015290519081900360640190fd5b336000908152600560205260408120600101556120ea613c5c565b6001600160a01b03166320283da933836040518363ffffffff1660e01b815260040180836001600160a01b03166001600160a01b0316815260200182815260200192505050600060405180830381600087803b15801561214957600080fd5b505af115801561215d573d6000803e3d6000fd5b50506040513392507fd3719f04262b628e1d01a6ed24707f542cda51f144b5271149c7d0419436d00c9150600090a250565b60015481565b600060107339A640D0E4eE2F81231aF4a960b503410201C91b63735bc2ca90916040518263ffffffff1660e01b81526004018082815260200191505060206040518083038186803b15801561172257600080fd5b600e5490565b6001600160a01b0316600090815260066020526040902080546001820154600283015460088401546009850154600a860154600b870154600c880154600d890154600e90990154979996989597949693959294919390929190565b612252613f65565b6040805163a176adaf60e01b8152601060048201526024810183905290517339A640D0E4eE2F81231aF4a960b503410201C91b9163a176adaf916044808301926000929190829003018186803b1580156122ab57600080fd5b505af41580156122bf573d6000803e3d6000fd5b5050604080516020808252601490820152736e756d4163746976655472616e73636f6465727360601b8183015290517f9f5033568d78ae30f29f01e944f97b2216493bd19d1b46d429673acff3dcd6749350908190036060019150a150565b6001600160a01b038082166000818152600560205260408120600281015491939092911614801561234f5750805415155b9392505050565b61235e6135e9565b6123666136a7565b61236e613764565b336000908152600560205260408120906123866137fb565b6001600160a01b0316638a19c8bc6040518163ffffffff1660e01b815260040160206040518083038186803b1580156123be57600080fd5b505afa1580156123d2573d6000803e3d6000fd5b505050506040513d60208110156123e857600080fd5b505160028084015491925089916001600160a01b03169061240833610d53565b600281111561241357fe5b14156124345761242a83600163ffffffff61387816565b60048501556124e3565b6001600160a01b0381161580159061245e5750886001600160a01b0316816001600160a01b031614155b156124e35761246c3361231e565b156124a85760405162461bcd60e51b815260040180806020018281038252603d815260200180615ca8603d913960400191505060405180910390fd5b6124b983600163ffffffff61387816565b600485015583546124d190839063ffffffff61387816565b91506124e38185600001548a8a6145fb565b6001600160a01b038916600090815260066020908152604080832086845260078101909252909120600981015461252d5761252282836000015461489e565b610120015160098201555b600a81015461254f576125448283600e015461489e565b6101400151600a8201555b6000841161258e5760405162461bcd60e51b8152600401808060200182810382526028815260200180615c456028913960400191505060405180910390fd5b6002860180546001600160a01b0319166001600160a01b038d1617905585546125b7908d613878565b86556125c58b858a8a614b4f565b8b15612680576125d3614deb565b6001600160a01b03166323b872dd336125ea613c5c565b8f6040518463ffffffff1660e01b815260040180846001600160a01b03166001600160a01b03168152602001836001600160a01b03166001600160a01b031681526020018281526020019350505050602060405180830381600087803b15801561265357600080fd5b505af1158015612667573d6000803e3d6000fd5b505050506040513d602081101561267d57600080fd5b50505b336001600160a01b0316836001600160a01b03168c6001600160a01b03167fe5917769f276ddca9f2ee7c6b0b33e1d1e1b61008010ce622c632dd20d168a238f8a60000154604051808381526020018281526020019250505060405180910390a4505050505050505050505050565b60025467ffffffffffffffff1681565b612707614e54565b600f54600e55565b612717613f65565b60048190556040805160208082526017908201527f6d61784561726e696e6773436c61696d73526f756e64730000000000000000008183015290517f9f5033568d78ae30f29f01e944f97b2216493bd19d1b46d429673acff3dcd6749181900360600190a150565b6127876135e9565b61278f6136a7565b612797613764565b60026127a233610d53565b60028111156127ad57fe5b14156127f8576040805162461bcd60e51b815260206004820152601560248201527418d85b1b195c881b5d5cdd08189948189bdb991959605a1b604482015290519081900360640190fd5b612804338484846138d2565b505050565b6128116135e9565b6128196136a7565b60006128236137fb565b6001600160a01b0316638a19c8bc6040518163ffffffff1660e01b815260040160206040518083038186803b15801561285b57600080fd5b505afa15801561286f573d6000803e3d6000fd5b505050506040513d602081101561288557600080fd5b5051905061289233610c77565b6128cd5760405162461bcd60e51b8152600401808060200182810382526023815260200180615ce56023913960400191505060405180910390fd5b3360009081526006602052604090205481141561291b5760405162461bcd60e51b8152600401808060200182810382526036815260200180615bee6036913960400191505060405180910390fd5b336000908152600660209081526040808320848452600781019092529091206001820154600283015461295591839163ffffffff61450216565b60088201548381101561298757600081815260078401602052604090206002015461298790839063ffffffff61451216565b6000612991613c5c565b6001600160a01b0316637dbedad58460020154600e546040518363ffffffff1660e01b81526004018083815260200182815260200192505050602060405180830381600087803b1580156129e457600080fd5b505af11580156129f8573d6000803e3d6000fd5b505050506040513d6020811015612a0e57600080fd5b50519050612a1f3382878a8a614f44565b84845560408051828152905133917f619caafabdd75649b302ba8419e48cccf64f37f1983ac4727cfb38b57703ffc9919081900360200190a250505050505050565b600060107339A640D0E4eE2F81231aF4a960b503410201C91b632ebb2fed90916040518263ffffffff1660e01b81526004018082815260200191505060206040518083038186803b15801561172257600080fd5b6000612ac08261231e565b15612acd57506001610d1b565b506000919050565b612add6150ba565b600080546001600160a01b0383166001600160a01b0319909116811790915560408051918252517f4ff638452bbf33c012645d18ae6f05515ff5f2d1dfb0cece8cbf018c60903f709181900360200190a150565b612b396135e9565b612b416136a7565b612b49613764565b6001612b5433610d53565b6002811115612b5f57fe5b14612ba9576040805162461bcd60e51b815260206004820152601560248201527418d85b1b195c881b5d5cdd08189948189bdb991959605a1b604482015290519081900360640190fd5b33600090815260056020526040902083612bf45760405162461bcd60e51b8152600401808060200182810382526024815260200180615b086024913960400191505060405180910390fd5b8054841115612c345760405162461bcd60e51b8152600401808060200182810382526024815260200180615bca6024913960400191505060405180910390fd5b60028101546001600160a01b03166000612c4c6137fb565b6001600160a01b0316638a19c8bc6040518163ffffffff1660e01b815260040160206040518083038186803b158015612c8457600080fd5b505afa158015612c98573d6000803e3d6000fd5b505050506040513d6020811015612cae57600080fd5b5051600254909150600090612cd490839067ffffffffffffffff1663ffffffff61387816565b60078501546040805180820182528a81526020808201858152600085815260088b0190925292902090518155905160019182015591925090612d1d90829063ffffffff61387816565b60078601558454612d34908963ffffffff613bff16565b808655612deb576002850180546001600160a01b031916905560006004808701919091556040805163b0138c4760e01b8152601092810192909252336024830152517339A640D0E4eE2F81231aF4a960b503410201C91b9163b0138c47916044808301926020929190829003018186803b158015612db157600080fd5b505af4158015612dc5573d6000803e3d6000fd5b505050506040513d6020811015612ddb57600080fd5b505115612deb57612deb33613afc565b612df7848989896145fb565b60408051828152602081018a9052808201849052905133916001600160a01b038716917f2d5d98d189bee5496a08db2a5948cb7e5e786f09d17d0c3f228eb41776c24a069181900360600190a35050505050505050565b600081612e596137fb565b6001600160a01b0316631e6d4c2260246040518263ffffffff1660e01b81526004018082815260200191505060206040518083038186803b158015612e9d57600080fd5b505afa158015612eb1573d6000803e3d6000fd5b505050506040513d6020811015612ec757600080fd5b50518110612f3e57612ed76137fb565b6001600160a01b0316638a19c8bc6040518163ffffffff1660e01b815260040160206040518083038186803b158015612f0f57600080fd5b505afa158015612f23573d6000803e3d6000fd5b505050506040513d6020811015612f3957600080fd5b505190505b6000612f4a8583615119565b5095945050505050565b6001600160a01b031660009081526005602052604090206003015490565b6001600160a01b03908116600090815260056020526040902080546001820154600283015460038401546004850154600686015460079096015494979396929092169490939192909190565b61149a8282600080600080612356565b612fd66135e9565b612fde6136a7565b33600090815260056020526040812090612ff66137fb565b6001600160a01b0316631e6d4c2260346040518263ffffffff1660e01b81526004018082815260200191505060206040518083038186803b15801561303a57600080fd5b505afa15801561304e573d6000803e3d6000fd5b505050506040513d602081101561306457600080fd5b505160068301549091508181106130c2576040805162461bcd60e51b815260206004820152601a60248201527f416c726561647920636c61696d656420666f72204c49502d3532000000000000604482015290519081900360640190fd5b60408051336020808301919091528183018c905260608083018c905283518084039091018152608083018085528151918301919091206000546d13595c9adb1954db985c1cda1bdd60921b909252845193849003608e018420631c2d8fb360e31b8552600485015293516001600160a01b03919091169263e16c7d98926024808301939192829003018186803b15801561315b57600080fd5b505afa15801561316f573d6000803e3d6000fd5b505050506040513d602081101561318557600080fd5b505160408051652624a8169a9960d11b81529051908190036006018120630280a0c760e21b82526004820181815260448301859052606060248401908152606484018c90526001600160a01b0390941693630a02831c938d928d928892608401856020860280828437600081840152601f19601f8201169050808301925050509550505050505060206040518083038186803b15801561322457600080fd5b505afa158015613238573d6000803e3d6000fd5b505050506040513d602081101561324e57600080fd5b50516132a1576040805162461bcd60e51b815260206004820152601760248201527f4d65726b6c652070726f6f6620697320696e76616c6964000000000000000000604482015290519081900360640190fd5b6002840154845433916001600160a01b0316907fd7eab0765b772ea6ea859d5633baf737502198012e930f257f90013d9b211094906132e7908e9063ffffffff613bff16565b60018801546132fd908e9063ffffffff613bff16565b61330e87600163ffffffff61387816565b6040805193845260208401929092528282015260608201889052519081900360800190a3600684018390558984556001840189905584156134415760006060306001600160a01b031688886040518083838082843760405192019450600093509091505080830381855af49150503d80600081146133a8576040519150601f19603f3d011682016040523d82523d6000602084013e6133ad565b606091505b509150915081819061343d5760405162461bcd60e51b81526004018080602001828103825283818151815260200191508051906020019080838360005b838110156134025781810151838201526020016133ea565b50505050905090810190601f16801561342f5780820380516001836020036101000a031916815260200191505b509250505060405180910390fd5b5050505b50505050505050505050565b6116cb8160008061277f565b613461613f65565b6002805467ffffffffffffffff191667ffffffffffffffff8316179055604080516020808252600f908201526e1d5b989bdb991a5b99d4195c9a5bd9608a1b8183015290517f9f5033568d78ae30f29f01e944f97b2216493bd19d1b46d429673acff3dcd674916060908290030190a150565b6000816134df6137fb565b6001600160a01b0316631e6d4c2260246040518263ffffffff1660e01b81526004018082815260200191505060206040518083038186803b15801561352357600080fd5b505afa158015613537573d6000803e3d6000fd5b505050506040513d602081101561354d57600080fd5b505181106135c45761355d6137fb565b6001600160a01b0316638a19c8bc6040518163ffffffff1660e01b815260040160206040518083038186803b15801561359557600080fd5b505afa1580156135a9573d6000803e3d6000fd5b505050506040513d60208110156135bf57600080fd5b505190505b60006135d08583615119565b9695505050505050565b6000546001600160a01b031681565b6000809054906101000a90046001600160a01b03166001600160a01b0316635c975abb6040518163ffffffff1660e01b815260040160206040518083038186803b15801561363657600080fd5b505afa15801561364a573d6000803e3d6000fd5b505050506040513d602081101561366057600080fd5b505115610e11576040805162461bcd60e51b815260206004820152601060248201526f1cde5cdd195b481a5cc81c185d5cd95960821b604482015290519081900360640190fd5b6136af6137fb565b6001600160a01b031663219bc76c6040518163ffffffff1660e01b815260040160206040518083038186803b1580156136e757600080fd5b505afa1580156136fb573d6000803e3d6000fd5b505050506040513d602081101561371157600080fd5b5051610e11576040805162461bcd60e51b815260206004820181905260248201527f63757272656e7420726f756e64206973206e6f7420696e697469616c697a6564604482015290519081900360640190fd5b600061376e6137fb565b6001600160a01b0316638a19c8bc6040518163ffffffff1660e01b815260040160206040518083038186803b1580156137a657600080fd5b505afa1580156137ba573d6000803e3d6000fd5b505050506040513d60208110156137d057600080fd5b5051336000908152600560205260409020600601549091508181101561149a5761149a338383613cbe565b60008054604080516c2937bab73239a6b0b730b3b2b960991b8152815190819003600d018120631c2d8fb360e31b8252600482015290516001600160a01b039092169163e16c7d9891602480820192602092909190829003018186803b15801561386457600080fd5b505afa158015611736573d6000803e3d6000fd5b60008282018381101561234f576040805162461bcd60e51b815260206004820152601b60248201527f536166654d6174683a206164646974696f6e206f766572666c6f770000000000604482015290519081900360640190fd5b6001600160a01b0384166000908152600560209081526040808320868452600881019092529091206139048686610d20565b613951576040805162461bcd60e51b81526020600482015260196024820152781a5b9d985b1a59081d5b989bdb991a5b99c81b1bd8dac81251603a1b604482015290519081900360640190fd5b80548254613965908263ffffffff61387816565b835560008681526008840160205260408120818155600101556002830154613998906001600160a01b0316828787614b4f565b6002830154604080518881526020810184905281516001600160a01b03808c169416927f9f5b64cc71e1e26ff178caaa7877a04d8ce66fde989251870e80e6fbee690c17928290030190a350505050505050565b60005460408051672b32b934b334b2b960c11b81528151908190036008018120631c2d8fb360e31b8252600482015290516001600160a01b039092169163e16c7d9891602480820192602092909190829003018186803b158015613a4f57600080fd5b505afa158015613a63573d6000803e3d6000fd5b505050506040513d6020811015613a7957600080fd5b50516001600160a01b03163314610e11576040805162461bcd60e51b815260206004820152601760248201527f63616c6c6572206d757374206265205665726966696572000000000000000000604482015290519081900360640190fd5b600061234f620f4240613af0858563ffffffff61533216565b9063ffffffff61538b16565b60408051635d35e00760e01b8152601060048201526001600160a01b038316602482015290517339A640D0E4eE2F81231aF4a960b503410201C91b91635d35e007916044808301926000929190829003018186803b158015613b5d57600080fd5b505af4158015613b71573d6000803e3d6000fd5b50505050613b90613b8182612f54565b600f549063ffffffff613bff16565b600f556000613ba26001610bc06137fb565b6001600160a01b038316600081815260066020908152604091829020600a018490558151848152915193945091927ffee3e693fc72d0a0a673805f3e606c551f4c677b9072444b90dd2d0406bc995c929181900390910190a25050565b600082821115613c56576040805162461bcd60e51b815260206004820152601e60248201527f536166654d6174683a207375627472616374696f6e206f766572666c6f770000604482015290519081900360640190fd5b50900390565b60008054604080516526b4b73a32b960d11b81528151908190036006018120631c2d8fb360e31b8252600482015290516001600160a01b039092169163e16c7d9891602480820192602092909190829003018186803b15801561386457600080fd5b6001600160a01b038316600090815260056020526040812090613ce883600163ffffffff61387816565b82546001840154919250906000613cfd6137fb565b6001600160a01b0316631e6d4c2260246040518263ffffffff1660e01b81526004018082815260200191505060206040518083038186803b158015613d4157600080fd5b505afa158015613d55573d6000803e3d6000fd5b505050506040513d6020811015613d6b57600080fd5b505160028601549091506001600160a01b031615613eca57808411613e0757600081881115613d9a5781613d9c565b875b600454909150613db2828963ffffffff613bff16565b1115613e05576040805162461bcd60e51b815260206004820181905260248201527f746f6f206d616e7920726f756e647320746f20636c61696d207468726f756768604482015290519081900360640190fd5b505b613e118888615119565b9093509150808710613eca5760028501546001600160a01b031660009081526006602090815260408083208a8452600781019092529091206009810154613e7357815489811015613e7157613e66838261489e565b610120015160098301555b505b600a810154613ea057600e82015489811015613e9e57613e93838261489e565b6101400151600a8301555b505b60028701546001600160a01b038b811691161415613ec7576000600d8301819055600c8301555b50505b600285015485546001600160a01b03808b169216907fd7eab0765b772ea6ea859d5633baf737502198012e930f257f90013d9b21109490613f1290879063ffffffff613bff16565b6001890154613f2890879063ffffffff613bff16565b604080519283526020830191909152818101899052606082018c9052519081900360800190a3506006840195909555825550600101919091555050565b6000809054906101000a90046001600160a01b03166001600160a01b0316638da5cb5b6040518163ffffffff1660e01b815260040160206040518083038186803b158015613fb257600080fd5b505afa158015613fc6573d6000803e3d6000fd5b505050506040513d6020811015613fdc57600080fd5b50516001600160a01b03163314610e11576040805162461bcd60e51b815260206004820152601f60248201527f63616c6c6572206d75737420626520436f6e74726f6c6c6572206f776e657200604482015290519081900360640190fd5b620f4240101590565b600f54604080516304aa129960e41b81526010600482015290517339A640D0E4eE2F81231aF4a960b503410201C91b91634aa12990916024808301926020929190829003018186803b15801561409857600080fd5b505af41580156140ac573d6000803e3d6000fd5b505050506040513d60208110156140c257600080fd5b50511561425257600060107339A640D0E4eE2F81231aF4a960b503410201C91b6372e40b2690916040518263ffffffff1660e01b81526004018082815260200191505060206040518083038186803b15801561411d57600080fd5b505af4158015614131573d6000803e3d6000fd5b505050506040513d602081101561414757600080fd5b50519050600061415682612f54565b9050808711614167575050506111f2565b60408051635d35e00760e01b8152601060048201526001600160a01b038416602482015290517339A640D0E4eE2F81231aF4a960b503410201C91b91635d35e007916044808301926000929190829003018186803b1580156141c857600080fd5b505af41580156141dc573d6000803e3d6000fd5b5050506001600160a01b0383166000908152600660205260409020600a018790555061420e838263ffffffff613bff16565b6040805188815290519194506001600160a01b038416917ffee3e693fc72d0a0a673805f3e606c551f4c677b9072444b90dd2d0406bc995c9181900360200190a250505b604080516327dd54d360e11b8152601060048201526001600160a01b0380891660248301526044820188905280861660648301528416608482015290517339A640D0E4eE2F81231aF4a960b503410201C91b91634fbaa9a69160a4808301926000929190829003018186803b1580156142ca57600080fd5b505af41580156142de573d6000803e3d6000fd5b505050506142f5858261387890919063ffffffff16565b6001600160a01b03871660009081526006602090815260408083206008810189905560098101899055600019600a8201558884526007810190925290912091925090614347908763ffffffff61451216565b600f8290556040805186815290516001600160a01b038916917f65d72d782835d64c3287844a829608d5abdc7e864cc9affe96d910ab3db665e9919081900360200190a250505050505050565b600054604080516b2a34b1b5b2ba213937b5b2b960a11b8152815190819003600c018120631c2d8fb360e31b8252600482015290516001600160a01b039092169163e16c7d9891602480820192602092909190829003018186803b1580156143fb57600080fd5b505afa15801561440f573d6000803e3d6000fd5b505050506040513d602081101561442557600080fd5b50516001600160a01b03163314610e11576040805162461bcd60e51b815260206004820152601b60248201527f63616c6c6572206d757374206265205469636b657442726f6b65720000000000604482015290519081900360640190fd5b61448b615aab565b614495838361489e565b8354610120820151919250901580156144ad57508281105b156144c8576144bc848261489e565b61012090810151908301525b600e8401546101408301511580156144df57508381105b156144fa576144ee858261489e565b61014090810151908401525b505092915050565b6004830191909155600590910155565b600290910155565b60006145466b033b2e3c9fd0803ce8000000613af061453986866153f5565b879063ffffffff61533216565b949350505050565b600061234f82613af085620f424063ffffffff61533216565b61014082015161012083015160009061458a576145856001806153f5565b614591565b8361012001515b905084600a0154600014156145cc576145bf6145b28285886002015461451a565b839063ffffffff61387816565b600a860155506128049050565b6145ef6145de8285886002015461451a565b600a8701549063ffffffff61387816565b600a8601555050505050565b6040805163b0138c4760e01b8152601060048201526001600160a01b038616602482015290517339A640D0E4eE2F81231aF4a960b503410201C91b9163b0138c47916044808301926020929190829003018186803b15801561465c57600080fd5b505af4158015614670573d6000803e3d6000fd5b505050506040513d602081101561468657600080fd5b50511561484d57600061469885612f54565b905060006146ac828663ffffffff613bff16565b905060006146b86137fb565b6001600160a01b0316638a19c8bc6040518163ffffffff1660e01b815260040160206040518083038186803b1580156146f057600080fd5b505afa158015614704573d6000803e3d6000fd5b505050506040513d602081101561471a57600080fd5b50519050600061473182600163ffffffff61387816565b60408051631c11bf7f60e11b8152601060048201526001600160a01b03808c16602483015260448201879052808a1660648301528816608482015290519192507339A640D0E4eE2F81231aF4a960b503410201C91b916338237efe9160a480820192600092909190829003018186803b1580156147ad57600080fd5b505af41580156147c1573d6000803e3d6000fd5b5050600f546147d9925090508863ffffffff613bff16565b600f556001600160a01b038816600090815260066020526040902060088101548311156148205760008381526007820160205260409020614820908663ffffffff61451216565b6008810182905560008281526007820160205260409020614847908563ffffffff61451216565b50505050505b6001600160a01b038416600090815260056020526040902060030154614879908463ffffffff613bff16565b6001600160a01b03909416600090815260056020526040902060030193909355505050565b6148a6615aab565b6000828152600784016020818152604083206009810154610120860152858452919052600a01546101408301526148db6137fb565b6001600160a01b0316631e6d4c2260476040518263ffffffff1660e01b81526004018082815260200191505060206040518083038186803b15801561491f57600080fd5b505afa158015614933573d6000803e3d6000fd5b505050506040513d602081101561494957600080fd5b50519050806149566137fb565b6001600160a01b0316638a19c8bc6040518163ffffffff1660e01b815260040160206040518083038186803b15801561498e57600080fd5b505afa1580156149a2573d6000803e3d6000fd5b505050506040513d60208110156149b857600080fd5b505110614b485780831015614a16576101208201516149e690683635c9adc5dea0000063ffffffff61533216565b610120830152610140820151614a0b90683635c9adc5dea0000063ffffffff61533216565b610140830152614b48565b614a216001806153f5565b8261012001511015614a5357610120820151614a4c90683635c9adc5dea0000063ffffffff61533216565b6101208301525b614a5b6137fb565b6001600160a01b0316631e6d4c22604e6040518263ffffffff1660e01b81526004018082815260200191505060206040518083038186803b158015614a9f57600080fd5b505afa158015614ab3573d6000803e3d6000fd5b505050506040513d6020811015614ac957600080fd5b50518311614b4857614adc60018061454e565b8261014001511015614b0757610140820151614a0b90683635c9adc5dea0000063ffffffff61533216565b6d04ee2d6d415b85acef81000000008261014001511115614b4857610140820151614b4190683635c9adc5dea0000063ffffffff61538b16565b6101408301525b5092915050565b614b588461231e565b15614dbf576000614b6885612f54565b90506000614b7c828663ffffffff61387816565b90506000614b886137fb565b6001600160a01b0316638a19c8bc6040518163ffffffff1660e01b815260040160206040518083038186803b158015614bc057600080fd5b505afa158015614bd4573d6000803e3d6000fd5b505050506040513d6020811015614bea57600080fd5b505190506000614c0182600163ffffffff61387816565b6040805163b0138c4760e01b8152601060048201526001600160a01b038b16602482015290519192507339A640D0E4eE2F81231aF4a960b503410201C91b9163b0138c4791604480820192602092909190829003018186803b158015614c6657600080fd5b505af4158015614c7a573d6000803e3d6000fd5b505050506040513d6020811015614c9057600080fd5b505115614dad5760408051631c11bf7f60e11b8152601060048201526001600160a01b03808b1660248301526044820186905280891660648301528716608482015290517339A640D0E4eE2F81231aF4a960b503410201C91b916338237efe9160a4808301926000929190829003018186803b158015614d0f57600080fd5b505af4158015614d23573d6000803e3d6000fd5b5050600f54614d3b925090508863ffffffff61387816565b600f556001600160a01b03881660009081526006602052604090206008810154831115614d825760008381526007820160205260409020614d82908663ffffffff61451216565b60008281526007820160205260409020614da2908563ffffffff61451216565b600801819055614dba565b614dba8884838989614043565b505050505b6001600160a01b038416600090815260056020526040902060030154614879908463ffffffff61387816565b60008054604080516c2634bb32b832b2b92a37b5b2b760991b8152815190819003600d018120631c2d8fb360e31b8252600482015290516001600160a01b039092169163e16c7d9891602480820192602092909190829003018186803b15801561386457600080fd5b600054604080516c2937bab73239a6b0b730b3b2b960991b8152815190819003600d018120631c2d8fb360e31b8252600482015290516001600160a01b039092169163e16c7d9891602480820192602092909190829003018186803b158015614ebc57600080fd5b505afa158015614ed0573d6000803e3d6000fd5b505050506040513d6020811015614ee657600080fd5b50516001600160a01b03163314610e11576040805162461bcd60e51b815260206004820152601c60248201527f63616c6c6572206d75737420626520526f756e64734d616e6167657200000000604482015290519081900360640190fd5b6001600160a01b038516600090815260066020908152604080832086845260078101909252909120614f74615aab565b614f8283846000015461489e565b9050806101200151600014801561500f5750614f9c6137fb565b6001600160a01b0316631e6d4c2260476040518263ffffffff1660e01b81526004018082815260200191505060206040518083038186803b158015614fe057600080fd5b505afa158015614ff4573d6000803e3d6000fd5b505050506040513d602081101561500a57600080fd5b505186105b156150265761501f60018061454e565b6101208201525b82600c015483600b01819055506000615043888460040154613ad7565b90506000615057898363ffffffff613bff16565b9050600061506e8287600b0154876002015461451a565b905061508b83611fcf8389600c015461387890919063ffffffff16565b600c8701556150a185858463ffffffff61541716565b6150ad8b8b8a8a614b4f565b5050505050505050505050565b6000546001600160a01b03163314610e11576040805162461bcd60e51b815260206004820152601960248201527f63616c6c6572206d75737420626520436f6e74726f6c6c657200000000000000604482015290519081900360640190fd5b6001600160a01b038083166000908152600560209081526040808320600281015490941680845260069092529091206001830154835493909290919080615163575061203c915050565b600683015460009061517c90600163ffffffff61387816565b90506001600160a01b038881169083161460006151976137fb565b6001600160a01b0316631e6d4c2260246040518263ffffffff1660e01b81526004018082815260200191505060206040518083038186803b1580156151db57600080fd5b505afa1580156151ef573d6000803e3d6000fd5b505050506040513d602081101561520557600080fd5b505190505b88831115801561521a5750808311155b156152bc576000838152600786016020526040902081841480156152435750600881015460ff16155b1561524e57506152bc565b6152578161546d565b156152a35761527d615270828b8663ffffffff61547616565b899063ffffffff61387816565b97506152a0615293828b8663ffffffff6154c016565b8a9063ffffffff61387816565b98505b6152b484600163ffffffff61387816565b93505061520a565b808910615325578883116152ed576152e7856152df85600163ffffffff613bff16565b8b8b8b6154ea565b90985096505b811561532557600c85015461530990899063ffffffff61387816565b975061532285600d01548861387890919063ffffffff16565b96505b5050505050509250929050565b60008261534157506000610d4d565b8282028284828161534e57fe5b041461234f5760405162461bcd60e51b8152600401808060200182810382526021815260200180615c246021913960400191505060405180910390fd5b60008082116153e1576040805162461bcd60e51b815260206004820152601a60248201527f536166654d6174683a206469766973696f6e206279207a65726f000000000000604482015290519081900360640190fd5b60008284816153ec57fe5b04949350505050565b600061234f82613af0856b033b2e3c9fd0803ce800000063ffffffff61533216565b600082610120015160001415615437576154326001806153f5565b61543e565b8261012001515b905061545f6154528284876002015461451a565b829063ffffffff61387816565b846009018190555050505050565b60030154151590565b60088301546000908190819060ff161561549f57615495868686615935565b90925090506154b0565b6154aa868686615983565b90925090505b6135d0828263ffffffff61387816565b60088301546000908190819060ff16156154df576154958686866159f3565b6154aa868686615a3b565b6000806154f5615aab565b6154ff888861489e565b8854600090815260078a016020526040812060090154919250901580159061552a5750610120820151155b600e8a0154600090815260078b0160205260408120600a015491925090158015906155585750610140830151155b905060006155646137fb565b6001600160a01b0316631e6d4c2260246040518263ffffffff1660e01b81526004018082815260200191505060206040518083038186803b1580156155a857600080fd5b505afa1580156155bc573d6000803e3d6000fd5b505050506040513d60208110156155d257600080fd5b5051905060015b606481111580156155ea57508a8111155b80156155fa575083806155fa5750825b1561569b5760006156118c8363ffffffff613bff16565b905082811015615621575061569b565b600081815260078e0160205260409020858015615642575060008160090154115b15615661576156518e8361489e565b6101209081015190880152600095505b8480156156725750600081600a0154115b15615691576156818e8361489e565b6101409081015190880152600094505b50506001016155d9565b506101208401516157b1576156ae6137fb565b6001600160a01b0316631e6d4c2260476040518263ffffffff1660e01b81526004018082815260200191505060206040518083038186803b1580156156f257600080fd5b505afa158015615706573d6000803e3d6000fd5b505050506040513d602081101561571c57600080fd5b50516157266137fb565b6001600160a01b0316638a19c8bc6040518163ffffffff1660e01b815260040160206040518083038186803b15801561575e57600080fd5b505afa158015615772573d6000803e3d6000fd5b505050506040513d602081101561578857600080fd5b50511061579f5761579a6001806153f5565b6157aa565b6157aa60018061454e565b6101208501525b6157b9615aab565b6157c38c8b614483565b9050806101200151600014156158de576157db6137fb565b6001600160a01b0316631e6d4c2260476040518263ffffffff1660e01b81526004018082815260200191505060206040518083038186803b15801561581f57600080fd5b505afa158015615833573d6000803e3d6000fd5b505050506040513d602081101561584957600080fd5b50516158536137fb565b6001600160a01b0316638a19c8bc6040518163ffffffff1660e01b815260040160206040518083038186803b15801561588b57600080fd5b505afa15801561589f573d6000803e3d6000fd5b505050506040513d60208110156158b557600080fd5b5051106158cc576158c76001806153f5565b6158d7565b6158d760018061454e565b6101208201525b61590d6152708a615902886101400151856101400151613bff90919063ffffffff16565b88610120015161451a565b95506159248982610120015187610120015161451a565b965050505050509550959350505050565b60008060008086600301541161594c57600061595f565b61595f8660010154868860030154615a95565b90508361596e57806000615975565b8086600701545b92509250505b935093915050565b6003830154600090819081908190156159d75760006159aa88600101548960050154613ad7565b60018901549091506159c2908263ffffffff613bff16565b92506159d381888a60030154615a95565b9150505b84156159e6579250905061597b565b92506000915061597b9050565b600080600080866003015411615a0a576000615a1d565b615a1d8660000154868860030154615a95565b905083615a2c57806000615975565b60069095015494959350505050565b6003830154600090819081908190156159d757615a6087600001548860040154613ad7565b8754909250615a8490615a79908463ffffffff613bff16565b878960030154615a95565b905084156159e6579250905061597b565b6000614546620f4240613af0614539868661454e565b60405180610160016040528060008152602001600081526020016000815260200160008152602001600081526020016000815260200160008152602001600081526020016000151581526020016000815260200160008152509056fe756e626f6e6420616d6f756e74206d7573742062652067726561746572207468616e2030656e6420726f756e64206d75737420626520657175616c20746f207468652063757272656e7420726f756e64206f72206265666f726520746865204c49502d3336207570677261646520726f756e6463616c6c65722063616e277420626520616374697665206f72206d757374206861766520616c72656164792063616c6c65642072657761726420666f72207468652063757272656e7420726f756e64616d6f756e742069732067726561746572207468616e20626f6e64656420616d6f756e7463616c6c65722068617320616c72656164792063616c6c65642072657761726420666f72207468652063757272656e7420726f756e64536166654d6174683a206d756c7469706c69636174696f6e206f766572666c6f7764656c65676174696f6e20616d6f756e74206d7573742062652067726561746572207468616e2030776974686472617720726f756e64206d757374206265206265666f7265206f7220657175616c20746f207468652063757272656e7420726f756e6472656769737465726564207472616e73636f646572732063616e27742064656c656761746520746f7761726473206f746865722061646472657373657363616c6c6572206d75737420626520616e20616374697665207472616e73636f64657263616e277420757064617465207472616e73636f64657220706172616d732c2063757272656e7420726f756e64206973206c6f636b6564656e6420726f756e64206d757374206265206166746572206c61737420636c61696d20726f756e64a265627a7a7231582006dffb9856fafca69cc2511008fd9feaddf7d130828c0e3e680de71e63af87bd64736f6c634300050b0032",
  "deployedBytecode": "0x608060405234801561001057600080fd5b50600436106102bb5760003560e01c806351720b411161018257806388a6c749116100e9578063a64ad595116100a2578063eaffb3f91161007c578063eaffb3f914610aa0578063f10d1de114610abd578063f595f1cc14610ae4578063f77c479114610b10576102bb565b8063a64ad59514610940578063b78d27dc146109a6578063c6d63d8c146109d2576102bb565b806388a6c749146108565780638b2f16521461085e57806392eefe9b146108945780639500ed9b146108ba5780639d0b2c7a146108ee5780639ef9df941461091a576102bb565b80636bd9add41161013b5780636bd9add41461075c5780636cf6d675146107aa578063713f2216146107cf57806372d9f13d146107d75780637fc4606f146107f45780638187105614610828576102bb565b806351720b411461068b5780635a2a75a9146106935780635c50c3561461069b5780635dce9948146106a3578063673a456b1461071957806368ba170c14610736576102bb565b806327de9e32116102265780633c725cbb116101df5780633c725cbb14610603578063412f83b61461060b5780634196ee751461065057806343d3461a14610658578063465501d31461067b578063476343ee14610683576102bb565b806327de9e32146105295780632a4e0d551461054657806334aba2141461054e5780633550aa101461056b5780633a080e93146105a55780633aeb512c146105d1576102bb565b8063228cb73311610278578063228cb733146103e557806322bf9d7c146103ed578063235c96031461042957806324454fc41461046b57806324b1babf146104ef57806325d5971f1461050c576102bb565b8063014ee259146102c0578063038424c3146102ef5780630584a373146102f757806308802374146103355780630fd02fc11461036f5780631544fc671461039b575b600080fd5b6102dd600480360360208110156102d657600080fd5b5035610b18565b60408051918252519081900360200190f35b6102dd610b2d565b6103336004803603608081101561030d57600080fd5b506001600160a01b03813581169160208101359160408201358116916060013516610b33565b005b61035b6004803603602081101561034b57600080fd5b50356001600160a01b0316610c77565b604080519115158252519081900360200190f35b61035b6004803603604081101561038557600080fd5b506001600160a01b038135169060200135610d20565b6103c1600480360360208110156103b157600080fd5b50356001600160a01b0316610d53565b604051808260028111156103d157fe5b60ff16815260200191505060405180910390f35b610333610e06565b6103336004803603608081101561040357600080fd5b506001600160a01b03813581169160208101359091169060408101359060600135610e13565b61044f6004803603602081101561043f57600080fd5b50356001600160a01b03166111f9565b604080516001600160a01b039092168252519081900360200190f35b6104976004803603604081101561048157600080fd5b506001600160a01b038135169060200135611290565b604080519b8c5260208c019a909a528a8a019890985260608a0196909652608089019490945260a088019290925260c087015260e0860152151561010085015261012084015261014083015251908190036101600190f35b6103336004803603602081101561050557600080fd5b5035611304565b6103336004803603602081101561052257600080fd5b503561149e565b6103336004803603602081101561053f57600080fd5b50356116bf565b6102dd6116ce565b6103336004803603602081101561056457600080fd5b5035611753565b6103336004803603608081101561058157600080fd5b508035906020810135906001600160a01b0360408201358116916060013516611876565b610333600480360360408110156105bb57600080fd5b506001600160a01b038135169060200135611c12565b610333600480360360608110156105e757600080fd5b506001600160a01b038135169060208101359060400135611c1f565b6102dd612007565b6106376004803603604081101561062157600080fd5b506001600160a01b03813516906020013561200d565b6040805192835260208301919091528051918290030190f35b6102dd612043565b6103336004803603604081101561066e57600080fd5b5080359060200135612049565b6102dd612056565b61033361205c565b6102dd61218f565b6102dd612195565b6102dd6121e9565b6106c9600480360360208110156106b957600080fd5b50356001600160a01b03166121ef565b604080519a8b5260208b0199909952898901979097526060890195909552608088019390935260a087019190915260c086015260e085015261010084015261012083015251908190036101400190f35b6103336004803603602081101561072f57600080fd5b503561224a565b61035b6004803603602081101561074c57600080fd5b50356001600160a01b031661231e565b610333600480360360c081101561077257600080fd5b508035906001600160a01b03602082013581169160408101358216916060820135811691608081013582169160a09091013516612356565b6107b26126ef565b6040805167ffffffffffffffff9092168252519081900360200190f35b6103336126ff565b610333600480360360208110156107ed57600080fd5b503561270f565b6103336004803603606081101561080a57600080fd5b508035906001600160a01b036020820135811691604001351661277f565b6103336004803603604081101561083e57600080fd5b506001600160a01b0381358116916020013516612809565b61044f612a61565b6108846004803603602081101561087457600080fd5b50356001600160a01b0316612ab5565b604051808260018111156103d157fe5b610333600480360360208110156108aa57600080fd5b50356001600160a01b0316612ad5565b610333600480360360608110156108d057600080fd5b508035906001600160a01b0360208201358116916040013516612b31565b6102dd6004803603604081101561090457600080fd5b506001600160a01b038135169060200135612e4e565b6102dd6004803603602081101561093057600080fd5b50356001600160a01b0316612f54565b6109666004803603602081101561095657600080fd5b50356001600160a01b0316612f72565b6040805197885260208801969096526001600160a01b03909416868601526060860192909252608085015260a084015260c0830152519081900360e00190f35b610333600480360360408110156109bc57600080fd5b50803590602001356001600160a01b0316612fbe565b610333600480360360808110156109e857600080fd5b813591602081013591810190606081016040820135640100000000811115610a0f57600080fd5b820183602082011115610a2157600080fd5b80359060200191846020830284011164010000000083111715610a4357600080fd5b919390929091602081019035640100000000811115610a6157600080fd5b820183602082011115610a7357600080fd5b80359060200191846001830284011164010000000083111715610a9557600080fd5b509092509050612fce565b61033360048036036020811015610ab657600080fd5b503561344d565b61033360048036036020811015610ad357600080fd5b503567ffffffffffffffff16613459565b6102dd60048036036040811015610afa57600080fd5b506001600160a01b0381351690602001356134d4565b61044f6135da565b600d6020526000908152604090206002015481565b60045481565b610b3b6135e9565b610b436136a7565b610b4b613764565b6002610b5633610d53565b6002811115610b6157fe5b14610bb3576040805162461bcd60e51b815260206004820152601760248201527f63616c6c6572206d75737420626520756e626f6e646564000000000000000000604482015290519081900360640190fd5b610c306001610bc06137fb565b6001600160a01b0316638a19c8bc6040518163ffffffff1660e01b815260040160206040518083038186803b158015610bf857600080fd5b505afa158015610c0c573d6000803e3d6000fd5b505050506040513d6020811015610c2257600080fd5b50519063ffffffff61387816565b3360008181526005602052604090206004810192909255600290910180546001600160a01b0319166001600160a01b038716179055610c71908484846138d2565b50505050565b6001600160a01b038116600090815260066020526040812081610c986137fb565b6001600160a01b0316638a19c8bc6040518163ffffffff1660e01b815260040160206040518083038186803b158015610cd057600080fd5b505afa158015610ce4573d6000803e3d6000fd5b505050506040513d6020811015610cfa57600080fd5b505160098301549091508110801590610d16575081600a015481105b925050505b919050565b6001600160a01b038216600090815260056020908152604080832084845260080190915290206001015415155b92915050565b6001600160a01b03811660009081526005602052604081208054610d7b576002915050610d1b565b610d836137fb565b6001600160a01b0316638a19c8bc6040518163ffffffff1660e01b815260040160206040518083038186803b158015610dbb57600080fd5b505afa158015610dcf573d6000803e3d6000fd5b505050506040513d6020811015610de557600080fd5b505160048201541115610dfc576000915050610d1b565b6001915050610d1b565b610e11600080612809565b565b610e1b6135e9565b610e236139ec565b6001600160a01b03841660009081526005602052604090208054156111a3576001600160a01b038516600090815260056020526040812054610e659085613ad7565b6040805163b0138c4760e01b8152601060048201526001600160a01b0389166024820152905191925073__$d23c89be677d40ab24c636937040b6165f$__9163b0138c4791604480820192602092909190829003018186803b158015610eca57600080fd5b505af4158015610ede573d6000803e3d6000fd5b505050506040513d6020811015610ef457600080fd5b505115610f0457610f0486613afc565b8154610f16908263ffffffff613bff16565b82556001610f2387610d53565b6002811115610f2e57fe5b1415610f855760028201546001600160a01b0316600090815260056020526040902060030154610f64908263ffffffff613bff16565b60028301546001600160a01b03166000908152600560205260409020600301555b806001600160a01b038616156110ea576000610fa18386613ad7565b9050610fab613c5c565b6001600160a01b031663e7a49c2b88836040518363ffffffff1660e01b815260040180836001600160a01b03166001600160a01b0316815260200182815260200192505050600060405180830381600087803b15801561100a57600080fd5b505af115801561101e573d6000803e3d6000fd5b5050505061102a613c5c565b6001600160a01b031663c7ee98c2611048848463ffffffff613bff16565b6040518263ffffffff1660e01b815260040180828152602001915050600060405180830381600087803b15801561107e57600080fd5b505af1158015611092573d6000803e3d6000fd5b5050604080516001600160a01b038b81168252602082018890528183018690529151918c1693507ff4b71fed8e2c9a8c67c388bc6d35ad20b9368a24eed6d565459f2b277b6c0c22925081900360600190a25061119c565b6110f2613c5c565b6001600160a01b031663c7ee98c2826040518263ffffffff1660e01b815260040180828152602001915050600060405180830381600087803b15801561113757600080fd5b505af115801561114b573d6000803e3d6000fd5b5050604080516000808252602082018790528183015290516001600160a01b038b1693507ff4b71fed8e2c9a8c67c388bc6d35ad20b9368a24eed6d565459f2b277b6c0c2292509081900360600190a25b50506111f2565b604080516001600160a01b038681168252600060208301819052828401529151918716917ff4b71fed8e2c9a8c67c388bc6d35ad20b9368a24eed6d565459f2b277b6c0c229181900360600190a25b5050505050565b6040805163e189dedb60e01b8152601060048201526001600160a01b0383166024820152905160009173__$d23c89be677d40ab24c636937040b6165f$__9163e189dedb91604480820192602092909190829003018186803b15801561125e57600080fd5b505af4158015611272573d6000803e3d6000fd5b505050506040513d602081101561128857600080fd5b505192915050565b6001600160a01b0390911660009081526006602081815260408084209484526007948501909152909120805460018201546002830154600384015460048501546005860154968601549786015460088701546009880154600a90980154969a95999498939792969395919360ff9091169291565b61130c6135e9565b6113146136a7565b336000908152600560205260409020600601548181106113655760405162461bcd60e51b8152600401808060200182810382526028815260200180615d3f6028913960400191505060405180910390fd5b61136d6137fb565b6001600160a01b0316638a19c8bc6040518163ffffffff1660e01b815260040160206040518083038186803b1580156113a557600080fd5b505afa1580156113b9573d6000803e3d6000fd5b505050506040513d60208110156113cf57600080fd5b505182148061145457506113e16137fb565b6001600160a01b0316631e6d4c2260246040518263ffffffff1660e01b81526004018082815260200191505060206040518083038186803b15801561142557600080fd5b505afa158015611439573d6000803e3d6000fd5b505050506040513d602081101561144f57600080fd5b505182105b61148f5760405162461bcd60e51b815260040180806020018281038252604f815260200180615b2c604f913960600191505060405180910390fd5b61149a338383613cbe565b5050565b6114a66135e9565b6114ae6136a7565b3360008181526005602090815260408083208584526008810190925290912090916114d99084610d20565b611526576040805162461bcd60e51b81526020600482015260196024820152781a5b9d985b1a59081d5b989bdb991a5b99c81b1bd8dac81251603a1b604482015290519081900360640190fd5b61152e6137fb565b6001600160a01b0316638a19c8bc6040518163ffffffff1660e01b815260040160206040518083038186803b15801561156657600080fd5b505afa15801561157a573d6000803e3d6000fd5b505050506040513d602081101561159057600080fd5b5051600182015411156115d45760405162461bcd60e51b815260040180806020018281038252603b815260200180615c6d603b913960400191505060405180910390fd5b805460018083015460008681526008860160205260408120818155909201919091556115fe613c5c565b6001600160a01b031663e7a49c2b33846040518363ffffffff1660e01b815260040180836001600160a01b03166001600160a01b0316815260200182815260200192505050600060405180830381600087803b15801561165d57600080fd5b505af1158015611671573d6000803e3d6000fd5b5050604080518881526020810186905280820185905290513393507f1340f1a8f3d456a649e1a12071dfa15655e3d09252131d0f980c3b405cc8dd2e92509081900360600190a25050505050565b6116cb81600080612b31565b50565b6000601073__$d23c89be677d40ab24c636937040b6165f$__63b32ece5890916040518263ffffffff1660e01b81526004018082815260200191505060206040518083038186803b15801561172257600080fd5b505af4158015611736573d6000803e3d6000fd5b505050506040513d602081101561174c57600080fd5b5051905090565b61175b613f65565b60155460ff16156117b3576040805162461bcd60e51b815260206004820152601760248201527f4c49502d373720616c7265616479206578656375746564000000000000000000604482015290519081900360640190fd5b6015805460ff1916600117905573b47d8f87c0113827d44ad0bc32d53823c477a89d6000818152600560209081527f90d2cbc514b210f73704f31701c8c1b7de44d98c858af1c59cb215bf4d9a8c8e8490557f90d2cbc514b210f73704f31701c8c1b7de44d98c858af1c59cb215bf4d9a8c90546040805193845291830185905281516001600160a01b03919091169392849283927fe5917769f276ddca9f2ee7c6b0b33e1d1e1b61008010ce622c632dd20d168a239281900390910190a45050565b61187e6135e9565b6118866136a7565b61188e6137fb565b6001600160a01b0316636841f2536040518163ffffffff1660e01b815260040160206040518083038186803b1580156118c657600080fd5b505afa1580156118da573d6000803e3d6000fd5b505050506040513d60208110156118f057600080fd5b50511561192e5760405162461bcd60e51b8152600401808060200182810382526037815260200180615d086037913960400191505060405180910390fd5b6119378461403a565b611988576040805162461bcd60e51b815260206004820152601c60248201527f696e76616c6964207265776172644375742070657263656e7461676500000000604482015290519081900360640190fd5b6119918361403a565b6119e2576040805162461bcd60e51b815260206004820152601b60248201527f696e76616c69642066656553686172652070657263656e746167650000000000604482015290519081900360640190fd5b6119eb3361231e565b611a3c576040805162461bcd60e51b815260206004820152601d60248201527f7472616e73636f646572206d7573742062652072656769737465726564000000604482015290519081900360640190fd5b33600090815260066020526040812090611a546137fb565b6001600160a01b0316638a19c8bc6040518163ffffffff1660e01b815260040160206040518083038186803b158015611a8c57600080fd5b505afa158015611aa0573d6000803e3d6000fd5b505050506040513d6020811015611ab657600080fd5b50519050611ac333610c77565b1580611acf5750815481145b611b0a5760405162461bcd60e51b815260040180806020018281038252604f815260200180615b7b604f913960600191505060405180910390fd5b60018201869055600282018590556040805163b0138c4760e01b815260106004820152336024820152905173__$d23c89be677d40ab24c636937040b6165f$__9163b0138c47916044808301926020929190829003018186803b158015611b7057600080fd5b505af4158015611b84573d6000803e3d6000fd5b505050506040513d6020811015611b9a57600080fd5b5051611bd05733600081815260056020526040902060030154611bd09190611bc984600163ffffffff61387816565b8787614043565b6040805187815260208101879052815133927f7346854431dbb3eb8e373c604abf89e90f4865b8447e1e2834d7b3e4677bf544928290030190a2505050505050565b61149a8282600080610b33565b611c276135e9565b611c2f614394565b611c388361231e565b611c89576040805162461bcd60e51b815260206004820152601d60248201527f7472616e73636f646572206d7573742062652072656769737465726564000000604482015290519081900360640190fd5b6000611c936137fb565b6001600160a01b0316638a19c8bc6040518163ffffffff1660e01b815260040160206040518083038186803b158015611ccb57600080fd5b505afa158015611cdf573d6000803e3d6000fd5b505050506040513d6020811015611cf557600080fd5b50516001600160a01b03851660009081526006602090815260408083208054600b82015486865260078301909452919093209394509192611d34615aab565b611d4e85611d4988600163ffffffff613bff16565b614483565b905083861115611dae5760018501546002860154611d7391849163ffffffff61450216565b600885015486811015611da5576000818152600787016020526040902060020154611da590849063ffffffff61451216565b85600c01549350505b6002820154610120820151158015611dc557508685145b15611edf576000611dd4613c5c565b90506000611e8c611e83836001600160a01b0316632de22cdb6040518163ffffffff1660e01b815260040160206040518083038186803b158015611e1757600080fd5b505afa158015611e2b573d6000803e3d6000fd5b505050506040513d6020811015611e4157600080fd5b505160408051634d73184d60e11b815290516001600160a01b03871691639ae6309a916004808301926020929190829003018186803b158015610bf857600080fd5b84600e5461451a565b90506000611e9e828760040154613ad7565b90506000611eb2838363ffffffff613bff16565b6009880154909150611ed49086611ecf848263ffffffff61387816565b61451a565b610120870152505050505b610120820151158015611f685750611ef56137fb565b6001600160a01b0316631e6d4c2260476040518263ffffffff1660e01b81526004018082815260200191505060206040518083038186803b158015611f3957600080fd5b505afa158015611f4d573d6000803e3d6000fd5b505050506040513d6020811015611f6357600080fd5b505187105b15611f7f57611f7860018061454e565b6101208301525b6000611f8f8a8560050154613ad7565b90506000611fa38b8363ffffffff613bff16565b90506000611fb283888661451a565b9050611fdb82611fcf838c600d015461387890919063ffffffff16565b9063ffffffff61387816565b600d8a0155611ff186868563ffffffff61456716565b50505050600e9094019490945550505050505050565b60035481565b6001600160a01b0382166000908152600560209081526040808320848452600801909152902080546001909101545b9250929050565b600e5481565b61149a8282600080611876565b600f5481565b6120646135e9565b61206c6136a7565b612074613764565b33600090815260056020526040902060010154806120cf576040805162461bcd60e51b81526020600482015260136024820152726e6f206665657320746f20776974686472617760681b604482015290519081900360640190fd5b336000908152600560205260408120600101556120ea613c5c565b6001600160a01b03166320283da933836040518363ffffffff1660e01b815260040180836001600160a01b03166001600160a01b0316815260200182815260200192505050600060405180830381600087803b15801561214957600080fd5b505af115801561215d573d6000803e3d6000fd5b50506040513392507fd3719f04262b628e1d01a6ed24707f542cda51f144b5271149c7d0419436d00c9150600090a250565b60015481565b6000601073__$d23c89be677d40ab24c636937040b6165f$__63735bc2ca90916040518263ffffffff1660e01b81526004018082815260200191505060206040518083038186803b15801561172257600080fd5b600e5490565b6001600160a01b0316600090815260066020526040902080546001820154600283015460088401546009850154600a860154600b870154600c880154600d890154600e90990154979996989597949693959294919390929190565b612252613f65565b6040805163a176adaf60e01b81526010600482015260248101839052905173__$d23c89be677d40ab24c636937040b6165f$__9163a176adaf916044808301926000929190829003018186803b1580156122ab57600080fd5b505af41580156122bf573d6000803e3d6000fd5b5050604080516020808252601490820152736e756d4163746976655472616e73636f6465727360601b8183015290517f9f5033568d78ae30f29f01e944f97b2216493bd19d1b46d429673acff3dcd6749350908190036060019150a150565b6001600160a01b038082166000818152600560205260408120600281015491939092911614801561234f5750805415155b9392505050565b61235e6135e9565b6123666136a7565b61236e613764565b336000908152600560205260408120906123866137fb565b6001600160a01b0316638a19c8bc6040518163ffffffff1660e01b815260040160206040518083038186803b1580156123be57600080fd5b505afa1580156123d2573d6000803e3d6000fd5b505050506040513d60208110156123e857600080fd5b505160028084015491925089916001600160a01b03169061240833610d53565b600281111561241357fe5b14156124345761242a83600163ffffffff61387816565b60048501556124e3565b6001600160a01b0381161580159061245e5750886001600160a01b0316816001600160a01b031614155b156124e35761246c3361231e565b156124a85760405162461bcd60e51b815260040180806020018281038252603d815260200180615ca8603d913960400191505060405180910390fd5b6124b983600163ffffffff61387816565b600485015583546124d190839063ffffffff61387816565b91506124e38185600001548a8a6145fb565b6001600160a01b038916600090815260066020908152604080832086845260078101909252909120600981015461252d5761252282836000015461489e565b610120015160098201555b600a81015461254f576125448283600e015461489e565b6101400151600a8201555b6000841161258e5760405162461bcd60e51b8152600401808060200182810382526028815260200180615c456028913960400191505060405180910390fd5b6002860180546001600160a01b0319166001600160a01b038d1617905585546125b7908d613878565b86556125c58b858a8a614b4f565b8b15612680576125d3614deb565b6001600160a01b03166323b872dd336125ea613c5c565b8f6040518463ffffffff1660e01b815260040180846001600160a01b03166001600160a01b03168152602001836001600160a01b03166001600160a01b031681526020018281526020019350505050602060405180830381600087803b15801561265357600080fd5b505af1158015612667573d6000803e3d6000fd5b505050506040513d602081101561267d57600080fd5b50505b336001600160a01b0316836001600160a01b03168c6001600160a01b03167fe5917769f276ddca9f2ee7c6b0b33e1d1e1b61008010ce622c632dd20d168a238f8a60000154604051808381526020018281526020019250505060405180910390a4505050505050505050505050565b60025467ffffffffffffffff1681565b612707614e54565b600f54600e55565b612717613f65565b60048190556040805160208082526017908201527f6d61784561726e696e6773436c61696d73526f756e64730000000000000000008183015290517f9f5033568d78ae30f29f01e944f97b2216493bd19d1b46d429673acff3dcd6749181900360600190a150565b6127876135e9565b61278f6136a7565b612797613764565b60026127a233610d53565b60028111156127ad57fe5b14156127f8576040805162461bcd60e51b815260206004820152601560248201527418d85b1b195c881b5d5cdd08189948189bdb991959605a1b604482015290519081900360640190fd5b612804338484846138d2565b505050565b6128116135e9565b6128196136a7565b60006128236137fb565b6001600160a01b0316638a19c8bc6040518163ffffffff1660e01b815260040160206040518083038186803b15801561285b57600080fd5b505afa15801561286f573d6000803e3d6000fd5b505050506040513d602081101561288557600080fd5b5051905061289233610c77565b6128cd5760405162461bcd60e51b8152600401808060200182810382526023815260200180615ce56023913960400191505060405180910390fd5b3360009081526006602052604090205481141561291b5760405162461bcd60e51b8152600401808060200182810382526036815260200180615bee6036913960400191505060405180910390fd5b336000908152600660209081526040808320848452600781019092529091206001820154600283015461295591839163ffffffff61450216565b60088201548381101561298757600081815260078401602052604090206002015461298790839063ffffffff61451216565b6000612991613c5c565b6001600160a01b0316637dbedad58460020154600e546040518363ffffffff1660e01b81526004018083815260200182815260200192505050602060405180830381600087803b1580156129e457600080fd5b505af11580156129f8573d6000803e3d6000fd5b505050506040513d6020811015612a0e57600080fd5b50519050612a1f3382878a8a614f44565b84845560408051828152905133917f619caafabdd75649b302ba8419e48cccf64f37f1983ac4727cfb38b57703ffc9919081900360200190a250505050505050565b6000601073__$d23c89be677d40ab24c636937040b6165f$__632ebb2fed90916040518263ffffffff1660e01b81526004018082815260200191505060206040518083038186803b15801561172257600080fd5b6000612ac08261231e565b15612acd57506001610d1b565b506000919050565b612add6150ba565b600080546001600160a01b0383166001600160a01b0319909116811790915560408051918252517f4ff638452bbf33c012645d18ae6f05515ff5f2d1dfb0cece8cbf018c60903f709181900360200190a150565b612b396135e9565b612b416136a7565b612b49613764565b6001612b5433610d53565b6002811115612b5f57fe5b14612ba9576040805162461bcd60e51b815260206004820152601560248201527418d85b1b195c881b5d5cdd08189948189bdb991959605a1b604482015290519081900360640190fd5b33600090815260056020526040902083612bf45760405162461bcd60e51b8152600401808060200182810382526024815260200180615b086024913960400191505060405180910390fd5b8054841115612c345760405162461bcd60e51b8152600401808060200182810382526024815260200180615bca6024913960400191505060405180910390fd5b60028101546001600160a01b03166000612c4c6137fb565b6001600160a01b0316638a19c8bc6040518163ffffffff1660e01b815260040160206040518083038186803b158015612c8457600080fd5b505afa158015612c98573d6000803e3d6000fd5b505050506040513d6020811015612cae57600080fd5b5051600254909150600090612cd490839067ffffffffffffffff1663ffffffff61387816565b60078501546040805180820182528a81526020808201858152600085815260088b0190925292902090518155905160019182015591925090612d1d90829063ffffffff61387816565b60078601558454612d34908963ffffffff613bff16565b808655612deb576002850180546001600160a01b031916905560006004808701919091556040805163b0138c4760e01b81526010928101929092523360248301525173__$d23c89be677d40ab24c636937040b6165f$__9163b0138c47916044808301926020929190829003018186803b158015612db157600080fd5b505af4158015612dc5573d6000803e3d6000fd5b505050506040513d6020811015612ddb57600080fd5b505115612deb57612deb33613afc565b612df7848989896145fb565b60408051828152602081018a9052808201849052905133916001600160a01b038716917f2d5d98d189bee5496a08db2a5948cb7e5e786f09d17d0c3f228eb41776c24a069181900360600190a35050505050505050565b600081612e596137fb565b6001600160a01b0316631e6d4c2260246040518263ffffffff1660e01b81526004018082815260200191505060206040518083038186803b158015612e9d57600080fd5b505afa158015612eb1573d6000803e3d6000fd5b505050506040513d6020811015612ec757600080fd5b50518110612f3e57612ed76137fb565b6001600160a01b0316638a19c8bc6040518163ffffffff1660e01b815260040160206040518083038186803b158015612f0f57600080fd5b505afa158015612f23573d6000803e3d6000fd5b505050506040513d6020811015612f3957600080fd5b505190505b6000612f4a8583615119565b5095945050505050565b6001600160a01b031660009081526005602052604090206003015490565b6001600160a01b03908116600090815260056020526040902080546001820154600283015460038401546004850154600686015460079096015494979396929092169490939192909190565b61149a8282600080600080612356565b612fd66135e9565b612fde6136a7565b33600090815260056020526040812090612ff66137fb565b6001600160a01b0316631e6d4c2260346040518263ffffffff1660e01b81526004018082815260200191505060206040518083038186803b15801561303a57600080fd5b505afa15801561304e573d6000803e3d6000fd5b505050506040513d602081101561306457600080fd5b505160068301549091508181106130c2576040805162461bcd60e51b815260206004820152601a60248201527f416c726561647920636c61696d656420666f72204c49502d3532000000000000604482015290519081900360640190fd5b60408051336020808301919091528183018c905260608083018c905283518084039091018152608083018085528151918301919091206000546d13595c9adb1954db985c1cda1bdd60921b909252845193849003608e018420631c2d8fb360e31b8552600485015293516001600160a01b03919091169263e16c7d98926024808301939192829003018186803b15801561315b57600080fd5b505afa15801561316f573d6000803e3d6000fd5b505050506040513d602081101561318557600080fd5b505160408051652624a8169a9960d11b81529051908190036006018120630280a0c760e21b82526004820181815260448301859052606060248401908152606484018c90526001600160a01b0390941693630a02831c938d928d928892608401856020860280828437600081840152601f19601f8201169050808301925050509550505050505060206040518083038186803b15801561322457600080fd5b505afa158015613238573d6000803e3d6000fd5b505050506040513d602081101561324e57600080fd5b50516132a1576040805162461bcd60e51b815260206004820152601760248201527f4d65726b6c652070726f6f6620697320696e76616c6964000000000000000000604482015290519081900360640190fd5b6002840154845433916001600160a01b0316907fd7eab0765b772ea6ea859d5633baf737502198012e930f257f90013d9b211094906132e7908e9063ffffffff613bff16565b60018801546132fd908e9063ffffffff613bff16565b61330e87600163ffffffff61387816565b6040805193845260208401929092528282015260608201889052519081900360800190a3600684018390558984556001840189905584156134415760006060306001600160a01b031688886040518083838082843760405192019450600093509091505080830381855af49150503d80600081146133a8576040519150601f19603f3d011682016040523d82523d6000602084013e6133ad565b606091505b509150915081819061343d5760405162461bcd60e51b81526004018080602001828103825283818151815260200191508051906020019080838360005b838110156134025781810151838201526020016133ea565b50505050905090810190601f16801561342f5780820380516001836020036101000a031916815260200191505b509250505060405180910390fd5b5050505b50505050505050505050565b6116cb8160008061277f565b613461613f65565b6002805467ffffffffffffffff191667ffffffffffffffff8316179055604080516020808252600f908201526e1d5b989bdb991a5b99d4195c9a5bd9608a1b8183015290517f9f5033568d78ae30f29f01e944f97b2216493bd19d1b46d429673acff3dcd674916060908290030190a150565b6000816134df6137fb565b6001600160a01b0316631e6d4c2260246040518263ffffffff1660e01b81526004018082815260200191505060206040518083038186803b15801561352357600080fd5b505afa158015613537573d6000803e3d6000fd5b505050506040513d602081101561354d57600080fd5b505181106135c45761355d6137fb565b6001600160a01b0316638a19c8bc6040518163ffffffff1660e01b815260040160206040518083038186803b15801561359557600080fd5b505afa1580156135a9573d6000803e3d6000fd5b505050506040513d60208110156135bf57600080fd5b505190505b60006135d08583615119565b9695505050505050565b6000546001600160a01b031681565b6000809054906101000a90046001600160a01b03166001600160a01b0316635c975abb6040518163ffffffff1660e01b815260040160206040518083038186803b15801561363657600080fd5b505afa15801561364a573d6000803e3d6000fd5b505050506040513d602081101561366057600080fd5b505115610e11576040805162461bcd60e51b815260206004820152601060248201526f1cde5cdd195b481a5cc81c185d5cd95960821b604482015290519081900360640190fd5b6136af6137fb565b6001600160a01b031663219bc76c6040518163ffffffff1660e01b815260040160206040518083038186803b1580156136e757600080fd5b505afa1580156136fb573d6000803e3d6000fd5b505050506040513d602081101561371157600080fd5b5051610e11576040805162461bcd60e51b815260206004820181905260248201527f63757272656e7420726f756e64206973206e6f7420696e697469616c697a6564604482015290519081900360640190fd5b600061376e6137fb565b6001600160a01b0316638a19c8bc6040518163ffffffff1660e01b815260040160206040518083038186803b1580156137a657600080fd5b505afa1580156137ba573d6000803e3d6000fd5b505050506040513d60208110156137d057600080fd5b5051336000908152600560205260409020600601549091508181101561149a5761149a338383613cbe565b60008054604080516c2937bab73239a6b0b730b3b2b960991b8152815190819003600d018120631c2d8fb360e31b8252600482015290516001600160a01b039092169163e16c7d9891602480820192602092909190829003018186803b15801561386457600080fd5b505afa158015611736573d6000803e3d6000fd5b60008282018381101561234f576040805162461bcd60e51b815260206004820152601b60248201527f536166654d6174683a206164646974696f6e206f766572666c6f770000000000604482015290519081900360640190fd5b6001600160a01b0384166000908152600560209081526040808320868452600881019092529091206139048686610d20565b613951576040805162461bcd60e51b81526020600482015260196024820152781a5b9d985b1a59081d5b989bdb991a5b99c81b1bd8dac81251603a1b604482015290519081900360640190fd5b80548254613965908263ffffffff61387816565b835560008681526008840160205260408120818155600101556002830154613998906001600160a01b0316828787614b4f565b6002830154604080518881526020810184905281516001600160a01b03808c169416927f9f5b64cc71e1e26ff178caaa7877a04d8ce66fde989251870e80e6fbee690c17928290030190a350505050505050565b60005460408051672b32b934b334b2b960c11b81528151908190036008018120631c2d8fb360e31b8252600482015290516001600160a01b039092169163e16c7d9891602480820192602092909190829003018186803b158015613a4f57600080fd5b505afa158015613a63573d6000803e3d6000fd5b505050506040513d6020811015613a7957600080fd5b50516001600160a01b03163314610e11576040805162461bcd60e51b815260206004820152601760248201527f63616c6c6572206d757374206265205665726966696572000000000000000000604482015290519081900360640190fd5b600061234f620f4240613af0858563ffffffff61533216565b9063ffffffff61538b16565b60408051635d35e00760e01b8152601060048201526001600160a01b0383166024820152905173__$d23c89be677d40ab24c636937040b6165f$__91635d35e007916044808301926000929190829003018186803b158015613b5d57600080fd5b505af4158015613b71573d6000803e3d6000fd5b50505050613b90613b8182612f54565b600f549063ffffffff613bff16565b600f556000613ba26001610bc06137fb565b6001600160a01b038316600081815260066020908152604091829020600a018490558151848152915193945091927ffee3e693fc72d0a0a673805f3e606c551f4c677b9072444b90dd2d0406bc995c929181900390910190a25050565b600082821115613c56576040805162461bcd60e51b815260206004820152601e60248201527f536166654d6174683a207375627472616374696f6e206f766572666c6f770000604482015290519081900360640190fd5b50900390565b60008054604080516526b4b73a32b960d11b81528151908190036006018120631c2d8fb360e31b8252600482015290516001600160a01b039092169163e16c7d9891602480820192602092909190829003018186803b15801561386457600080fd5b6001600160a01b038316600090815260056020526040812090613ce883600163ffffffff61387816565b82546001840154919250906000613cfd6137fb565b6001600160a01b0316631e6d4c2260246040518263ffffffff1660e01b81526004018082815260200191505060206040518083038186803b158015613d4157600080fd5b505afa158015613d55573d6000803e3d6000fd5b505050506040513d6020811015613d6b57600080fd5b505160028601549091506001600160a01b031615613eca57808411613e0757600081881115613d9a5781613d9c565b875b600454909150613db2828963ffffffff613bff16565b1115613e05576040805162461bcd60e51b815260206004820181905260248201527f746f6f206d616e7920726f756e647320746f20636c61696d207468726f756768604482015290519081900360640190fd5b505b613e118888615119565b9093509150808710613eca5760028501546001600160a01b031660009081526006602090815260408083208a8452600781019092529091206009810154613e7357815489811015613e7157613e66838261489e565b610120015160098301555b505b600a810154613ea057600e82015489811015613e9e57613e93838261489e565b6101400151600a8301555b505b60028701546001600160a01b038b811691161415613ec7576000600d8301819055600c8301555b50505b600285015485546001600160a01b03808b169216907fd7eab0765b772ea6ea859d5633baf737502198012e930f257f90013d9b21109490613f1290879063ffffffff613bff16565b6001890154613f2890879063ffffffff613bff16565b604080519283526020830191909152818101899052606082018c9052519081900360800190a3506006840195909555825550600101919091555050565b6000809054906101000a90046001600160a01b03166001600160a01b0316638da5cb5b6040518163ffffffff1660e01b815260040160206040518083038186803b158015613fb257600080fd5b505afa158015613fc6573d6000803e3d6000fd5b505050506040513d6020811015613fdc57600080fd5b50516001600160a01b03163314610e11576040805162461bcd60e51b815260206004820152601f60248201527f63616c6c6572206d75737420626520436f6e74726f6c6c6572206f776e657200604482015290519081900360640190fd5b620f4240101590565b600f54604080516304aa129960e41b815260106004820152905173__$d23c89be677d40ab24c636937040b6165f$__91634aa12990916024808301926020929190829003018186803b15801561409857600080fd5b505af41580156140ac573d6000803e3d6000fd5b505050506040513d60208110156140c257600080fd5b505115614252576000601073__$d23c89be677d40ab24c636937040b6165f$__6372e40b2690916040518263ffffffff1660e01b81526004018082815260200191505060206040518083038186803b15801561411d57600080fd5b505af4158015614131573d6000803e3d6000fd5b505050506040513d602081101561414757600080fd5b50519050600061415682612f54565b9050808711614167575050506111f2565b60408051635d35e00760e01b8152601060048201526001600160a01b0384166024820152905173__$d23c89be677d40ab24c636937040b6165f$__91635d35e007916044808301926000929190829003018186803b1580156141c857600080fd5b505af41580156141dc573d6000803e3d6000fd5b5050506001600160a01b0383166000908152600660205260409020600a018790555061420e838263ffffffff613bff16565b6040805188815290519194506001600160a01b038416917ffee3e693fc72d0a0a673805f3e606c551f4c677b9072444b90dd2d0406bc995c9181900360200190a250505b604080516327dd54d360e11b8152601060048201526001600160a01b03808916602483015260448201889052808616606483015284166084820152905173__$d23c89be677d40ab24c636937040b6165f$__91634fbaa9a69160a4808301926000929190829003018186803b1580156142ca57600080fd5b505af41580156142de573d6000803e3d6000fd5b505050506142f5858261387890919063ffffffff16565b6001600160a01b03871660009081526006602090815260408083206008810189905560098101899055600019600a8201558884526007810190925290912091925090614347908763ffffffff61451216565b600f8290556040805186815290516001600160a01b038916917f65d72d782835d64c3287844a829608d5abdc7e864cc9affe96d910ab3db665e9919081900360200190a250505050505050565b600054604080516b2a34b1b5b2ba213937b5b2b960a11b8152815190819003600c018120631c2d8fb360e31b8252600482015290516001600160a01b039092169163e16c7d9891602480820192602092909190829003018186803b1580156143fb57600080fd5b505afa15801561440f573d6000803e3d6000fd5b505050506040513d602081101561442557600080fd5b50516001600160a01b03163314610e11576040805162461bcd60e51b815260206004820152601b60248201527f63616c6c6572206d757374206265205469636b657442726f6b65720000000000604482015290519081900360640190fd5b61448b615aab565b614495838361489e565b8354610120820151919250901580156144ad57508281105b156144c8576144bc848261489e565b61012090810151908301525b600e8401546101408301511580156144df57508381105b156144fa576144ee858261489e565b61014090810151908401525b505092915050565b6004830191909155600590910155565b600290910155565b60006145466b033b2e3c9fd0803ce8000000613af061453986866153f5565b879063ffffffff61533216565b949350505050565b600061234f82613af085620f424063ffffffff61533216565b61014082015161012083015160009061458a576145856001806153f5565b614591565b8361012001515b905084600a0154600014156145cc576145bf6145b28285886002015461451a565b839063ffffffff61387816565b600a860155506128049050565b6145ef6145de8285886002015461451a565b600a8701549063ffffffff61387816565b600a8601555050505050565b6040805163b0138c4760e01b8152601060048201526001600160a01b0386166024820152905173__$d23c89be677d40ab24c636937040b6165f$__9163b0138c47916044808301926020929190829003018186803b15801561465c57600080fd5b505af4158015614670573d6000803e3d6000fd5b505050506040513d602081101561468657600080fd5b50511561484d57600061469885612f54565b905060006146ac828663ffffffff613bff16565b905060006146b86137fb565b6001600160a01b0316638a19c8bc6040518163ffffffff1660e01b815260040160206040518083038186803b1580156146f057600080fd5b505afa158015614704573d6000803e3d6000fd5b505050506040513d602081101561471a57600080fd5b50519050600061473182600163ffffffff61387816565b60408051631c11bf7f60e11b8152601060048201526001600160a01b03808c16602483015260448201879052808a16606483015288166084820152905191925073__$d23c89be677d40ab24c636937040b6165f$__916338237efe9160a480820192600092909190829003018186803b1580156147ad57600080fd5b505af41580156147c1573d6000803e3d6000fd5b5050600f546147d9925090508863ffffffff613bff16565b600f556001600160a01b038816600090815260066020526040902060088101548311156148205760008381526007820160205260409020614820908663ffffffff61451216565b6008810182905560008281526007820160205260409020614847908563ffffffff61451216565b50505050505b6001600160a01b038416600090815260056020526040902060030154614879908463ffffffff613bff16565b6001600160a01b03909416600090815260056020526040902060030193909355505050565b6148a6615aab565b6000828152600784016020818152604083206009810154610120860152858452919052600a01546101408301526148db6137fb565b6001600160a01b0316631e6d4c2260476040518263ffffffff1660e01b81526004018082815260200191505060206040518083038186803b15801561491f57600080fd5b505afa158015614933573d6000803e3d6000fd5b505050506040513d602081101561494957600080fd5b50519050806149566137fb565b6001600160a01b0316638a19c8bc6040518163ffffffff1660e01b815260040160206040518083038186803b15801561498e57600080fd5b505afa1580156149a2573d6000803e3d6000fd5b505050506040513d60208110156149b857600080fd5b505110614b485780831015614a16576101208201516149e690683635c9adc5dea0000063ffffffff61533216565b610120830152610140820151614a0b90683635c9adc5dea0000063ffffffff61533216565b610140830152614b48565b614a216001806153f5565b8261012001511015614a5357610120820151614a4c90683635c9adc5dea0000063ffffffff61533216565b6101208301525b614a5b6137fb565b6001600160a01b0316631e6d4c22604e6040518263ffffffff1660e01b81526004018082815260200191505060206040518083038186803b158015614a9f57600080fd5b505afa158015614ab3573d6000803e3d6000fd5b505050506040513d6020811015614ac957600080fd5b50518311614b4857614adc60018061454e565b8261014001511015614b0757610140820151614a0b90683635c9adc5dea0000063ffffffff61533216565b6d04ee2d6d415b85acef81000000008261014001511115614b4857610140820151614b4190683635c9adc5dea0000063ffffffff61538b16565b6101408301525b5092915050565b614b588461231e565b15614dbf576000614b6885612f54565b90506000614b7c828663ffffffff61387816565b90506000614b886137fb565b6001600160a01b0316638a19c8bc6040518163ffffffff1660e01b815260040160206040518083038186803b158015614bc057600080fd5b505afa158015614bd4573d6000803e3d6000fd5b505050506040513d6020811015614bea57600080fd5b505190506000614c0182600163ffffffff61387816565b6040805163b0138c4760e01b8152601060048201526001600160a01b038b166024820152905191925073__$d23c89be677d40ab24c636937040b6165f$__9163b0138c4791604480820192602092909190829003018186803b158015614c6657600080fd5b505af4158015614c7a573d6000803e3d6000fd5b505050506040513d6020811015614c9057600080fd5b505115614dad5760408051631c11bf7f60e11b8152601060048201526001600160a01b03808b16602483015260448201869052808916606483015287166084820152905173__$d23c89be677d40ab24c636937040b6165f$__916338237efe9160a4808301926000929190829003018186803b158015614d0f57600080fd5b505af4158015614d23573d6000803e3d6000fd5b5050600f54614d3b925090508863ffffffff61387816565b600f556001600160a01b03881660009081526006602052604090206008810154831115614d825760008381526007820160205260409020614d82908663ffffffff61451216565b60008281526007820160205260409020614da2908563ffffffff61451216565b600801819055614dba565b614dba8884838989614043565b505050505b6001600160a01b038416600090815260056020526040902060030154614879908463ffffffff61387816565b60008054604080516c2634bb32b832b2b92a37b5b2b760991b8152815190819003600d018120631c2d8fb360e31b8252600482015290516001600160a01b039092169163e16c7d9891602480820192602092909190829003018186803b15801561386457600080fd5b600054604080516c2937bab73239a6b0b730b3b2b960991b8152815190819003600d018120631c2d8fb360e31b8252600482015290516001600160a01b039092169163e16c7d9891602480820192602092909190829003018186803b158015614ebc57600080fd5b505afa158015614ed0573d6000803e3d6000fd5b505050506040513d6020811015614ee657600080fd5b50516001600160a01b03163314610e11576040805162461bcd60e51b815260206004820152601c60248201527f63616c6c6572206d75737420626520526f756e64734d616e6167657200000000604482015290519081900360640190fd5b6001600160a01b038516600090815260066020908152604080832086845260078101909252909120614f74615aab565b614f8283846000015461489e565b9050806101200151600014801561500f5750614f9c6137fb565b6001600160a01b0316631e6d4c2260476040518263ffffffff1660e01b81526004018082815260200191505060206040518083038186803b158015614fe057600080fd5b505afa158015614ff4573d6000803e3d6000fd5b505050506040513d602081101561500a57600080fd5b505186105b156150265761501f60018061454e565b6101208201525b82600c015483600b01819055506000615043888460040154613ad7565b90506000615057898363ffffffff613bff16565b9050600061506e8287600b0154876002015461451a565b905061508b83611fcf8389600c015461387890919063ffffffff16565b600c8701556150a185858463ffffffff61541716565b6150ad8b8b8a8a614b4f565b5050505050505050505050565b6000546001600160a01b03163314610e11576040805162461bcd60e51b815260206004820152601960248201527f63616c6c6572206d75737420626520436f6e74726f6c6c657200000000000000604482015290519081900360640190fd5b6001600160a01b038083166000908152600560209081526040808320600281015490941680845260069092529091206001830154835493909290919080615163575061203c915050565b600683015460009061517c90600163ffffffff61387816565b90506001600160a01b038881169083161460006151976137fb565b6001600160a01b0316631e6d4c2260246040518263ffffffff1660e01b81526004018082815260200191505060206040518083038186803b1580156151db57600080fd5b505afa1580156151ef573d6000803e3d6000fd5b505050506040513d602081101561520557600080fd5b505190505b88831115801561521a5750808311155b156152bc576000838152600786016020526040902081841480156152435750600881015460ff16155b1561524e57506152bc565b6152578161546d565b156152a35761527d615270828b8663ffffffff61547616565b899063ffffffff61387816565b97506152a0615293828b8663ffffffff6154c016565b8a9063ffffffff61387816565b98505b6152b484600163ffffffff61387816565b93505061520a565b808910615325578883116152ed576152e7856152df85600163ffffffff613bff16565b8b8b8b6154ea565b90985096505b811561532557600c85015461530990899063ffffffff61387816565b975061532285600d01548861387890919063ffffffff16565b96505b5050505050509250929050565b60008261534157506000610d4d565b8282028284828161534e57fe5b041461234f5760405162461bcd60e51b8152600401808060200182810382526021815260200180615c246021913960400191505060405180910390fd5b60008082116153e1576040805162461bcd60e51b815260206004820152601a60248201527f536166654d6174683a206469766973696f6e206279207a65726f000000000000604482015290519081900360640190fd5b60008284816153ec57fe5b04949350505050565b600061234f82613af0856b033b2e3c9fd0803ce800000063ffffffff61533216565b600082610120015160001415615437576154326001806153f5565b61543e565b8261012001515b905061545f6154528284876002015461451a565b829063ffffffff61387816565b846009018190555050505050565b60030154151590565b60088301546000908190819060ff161561549f57615495868686615935565b90925090506154b0565b6154aa868686615983565b90925090505b6135d0828263ffffffff61387816565b60088301546000908190819060ff16156154df576154958686866159f3565b6154aa868686615a3b565b6000806154f5615aab565b6154ff888861489e565b8854600090815260078a016020526040812060090154919250901580159061552a5750610120820151155b600e8a0154600090815260078b0160205260408120600a015491925090158015906155585750610140830151155b905060006155646137fb565b6001600160a01b0316631e6d4c2260246040518263ffffffff1660e01b81526004018082815260200191505060206040518083038186803b1580156155a857600080fd5b505afa1580156155bc573d6000803e3d6000fd5b505050506040513d60208110156155d257600080fd5b5051905060015b606481111580156155ea57508a8111155b80156155fa575083806155fa5750825b1561569b5760006156118c8363ffffffff613bff16565b905082811015615621575061569b565b600081815260078e0160205260409020858015615642575060008160090154115b15615661576156518e8361489e565b6101209081015190880152600095505b8480156156725750600081600a0154115b15615691576156818e8361489e565b6101409081015190880152600094505b50506001016155d9565b506101208401516157b1576156ae6137fb565b6001600160a01b0316631e6d4c2260476040518263ffffffff1660e01b81526004018082815260200191505060206040518083038186803b1580156156f257600080fd5b505afa158015615706573d6000803e3d6000fd5b505050506040513d602081101561571c57600080fd5b50516157266137fb565b6001600160a01b0316638a19c8bc6040518163ffffffff1660e01b815260040160206040518083038186803b15801561575e57600080fd5b505afa158015615772573d6000803e3d6000fd5b505050506040513d602081101561578857600080fd5b50511061579f5761579a6001806153f5565b6157aa565b6157aa60018061454e565b6101208501525b6157b9615aab565b6157c38c8b614483565b9050806101200151600014156158de576157db6137fb565b6001600160a01b0316631e6d4c2260476040518263ffffffff1660e01b81526004018082815260200191505060206040518083038186803b15801561581f57600080fd5b505afa158015615833573d6000803e3d6000fd5b505050506040513d602081101561584957600080fd5b50516158536137fb565b6001600160a01b0316638a19c8bc6040518163ffffffff1660e01b815260040160206040518083038186803b15801561588b57600080fd5b505afa15801561589f573d6000803e3d6000fd5b505050506040513d60208110156158b557600080fd5b5051106158cc576158c76001806153f5565b6158d7565b6158d760018061454e565b6101208201525b61590d6152708a615902886101400151856101400151613bff90919063ffffffff16565b88610120015161451a565b95506159248982610120015187610120015161451a565b965050505050509550959350505050565b60008060008086600301541161594c57600061595f565b61595f8660010154868860030154615a95565b90508361596e57806000615975565b8086600701545b92509250505b935093915050565b6003830154600090819081908190156159d75760006159aa88600101548960050154613ad7565b60018901549091506159c2908263ffffffff613bff16565b92506159d381888a60030154615a95565b9150505b84156159e6579250905061597b565b92506000915061597b9050565b600080600080866003015411615a0a576000615a1d565b615a1d8660000154868860030154615a95565b905083615a2c57806000615975565b60069095015494959350505050565b6003830154600090819081908190156159d757615a6087600001548860040154613ad7565b8754909250615a8490615a79908463ffffffff613bff16565b878960030154615a95565b905084156159e6579250905061597b565b6000614546620f4240613af0614539868661454e565b60405180610160016040528060008152602001600081526020016000815260200160008152602001600081526020016000815260200160008152602001600081526020016000151581526020016000815260200160008152509056fe756e626f6e6420616d6f756e74206d7573742062652067726561746572207468616e2030656e6420726f756e64206d75737420626520657175616c20746f207468652063757272656e7420726f756e64206f72206265666f726520746865204c49502d3336207570677261646520726f756e6463616c6c65722063616e277420626520616374697665206f72206d757374206861766520616c72656164792063616c6c65642072657761726420666f72207468652063757272656e7420726f756e64616d6f756e742069732067726561746572207468616e20626f6e64656420616d6f756e7463616c6c65722068617320616c72656164792063616c6c65642072657761726420666f72207468652063757272656e7420726f756e64536166654d6174683a206d756c7469706c69636174696f6e206f766572666c6f7764656c65676174696f6e20616d6f756e74206d7573742062652067726561746572207468616e2030776974686472617720726f756e64206d757374206265206265666f7265206f7220657175616c20746f207468652063757272656e7420726f756e6472656769737465726564207472616e73636f646572732063616e27742064656c656761746520746f7761726473206f746865722061646472657373657363616c6c6572206d75737420626520616e20616374697665207472616e73636f64657263616e277420757064617465207472616e73636f64657220706172616d732c2063757272656e7420726f756e64206973206c6f636b6564656e6420726f756e64206d757374206265206166746572206c61737420636c61696d20726f756e64a265627a7a7231582006dffb9856fafca69cc2511008fd9feaddf7d130828c0e3e680de71e63af87bd64736f6c634300050b0032",
  "libraries": {
    "SortedDoublyLL": "0x39A640D0E4eE2F81231aF4a960b503410201C91b"
  },
  "devdoc": {
    "methods": {
      "bond(uint256,address)": {
        "params": {
          "_amount": "The amount of tokens to stake",
          "_to": "The address of the transcoder to stake towards"
        }
      },
      "bondWithHint(uint256,address,address,address,address,address)": {
        "details": "If the caller is decreasing the stake of its old delegate in the transcoder pool, the caller can provide an optional hint for the insertion position of the old delegate via the `_oldDelegateNewPosPrev` and `_oldDelegateNewPosNext` params. If the caller is delegating to a delegate that is in the transcoder pool, the caller can provide an optional hint for the insertion position of the delegate via the `_currDelegateNewPosPrev` and `_currDelegateNewPosNext` params. In both cases, a linear search will be executed starting at the hint to find the correct position. In the best case, the hint is the correct position so no search is executed. See SortedDoublyLL.sol for details on list hints",
        "params": {
          "_amount": "The amount of tokens to stake.",
          "_currDelegateNewPosNext": "The address of the next transcoder in the pool for the current delegate",
          "_currDelegateNewPosPrev": "The address of the previous transcoder in the pool for the current delegate",
          "_oldDelegateNewPosNext": "The address of the next transcoder in the pool for the old delegate",
          "_oldDelegateNewPosPrev": "The address of the previous transcoder in the pool for the old delegate",
          "_to": "The address of the transcoder to stake towards"
        }
      },
      "claimEarnings(uint256)": {
        "params": {
          "_endRound": "The last round for which to claim token pools shares for a delegator"
        }
      },
      "claimSnapshotEarnings(uint256,uint256,bytes32[],bytes)": {
        "details": "https://github.com/livepeer/LIPs/blob/master/LIPs/LIP-52.md",
        "params": {
          "_data": "(optional) raw transaction data to be executed on behalf of msg.sender after claiming snapshot earnings",
          "_earningsProof": "array of keccak256 sibling hashes on the branch of the leaf for the delegator up to the root",
          "_pendingFees": "the amount of pending fees for the delegator (current fees + pending fees)",
          "_pendingStake": "the amount of pending stake for the delegator (current stake + pending rewards)"
        }
      },
      "constructor": {
        "details": "This constructor will not initialize any state variables besides `controller`. The following setter functions should be used to initialize state variables post-deployment: - setUnbondingPeriod() - setNumActiveTranscoders() - setMaxEarningsClaimsRounds()",
        "params": {
          "_controller": "Address of Controller that this contract will be registered with"
        }
      },
      "delegatorStatus(address)": {
        "params": {
          "_delegator": "Address of delegator"
        },
        "return": "bonded, unbonded or pending delegator status"
      },
      "executeLIP77(uint256)": {
        "params": {
          "_bondedAmount": "The bonded amount for the LIP-77 address"
        }
      },
      "getDelegator(address)": {
        "params": {
          "_delegator": "Address of delegator"
        },
        "return": "total amount bonded by '_delegator'amount of fees collected by '_delegator'address '_delegator' has bonded tototal amount delegated to '_delegator'round in which bond for '_delegator' became effectiveround for which '_delegator' has last claimed earningsID for the next unbonding lock created for '_delegator'"
      },
      "getDelegatorUnbondingLock(address,uint256)": {
        "params": {
          "_delegator": "Address of delegator",
          "_unbondingLockId": "ID of unbonding lock"
        },
        "return": "amount of stake locked up by unbonding lockround in which 'amount' becomes available for withdrawal"
      },
      "getFirstTranscoderInPool()": {
        "return": "address for transcoder with highest stake in transcoder pool"
      },
      "getNextTranscoderInPool(address)": {
        "params": {
          "_transcoder": "Address of a transcoder in the pool"
        },
        "return": "address for the transcoder after '_transcoder' in transcoder pool"
      },
      "getTotalBonded()": {
        "return": "total active stake for the current round"
      },
      "getTranscoder(address)": {
        "params": {
          "_transcoder": "Address of transcoder"
        },
        "return": "lastRewardRound Trancoder's last reward roundrewardCut Transcoder's reward cutfeeShare Transcoder's fee sharelastActiveStakeUpdateRound Round in which transcoder's stake was last updated while activeactivationRound Round in which transcoder became activedeactivationRound Round in which transcoder will no longer be activeactiveCumulativeRewards Transcoder's cumulative rewards that are currently activecumulativeRewards Transcoder's cumulative rewards (earned via its active staked rewards and its reward cut)cumulativeFees Transcoder's cumulative fees (earned via its active staked rewards and its fee share)lastFeeRound Latest round that the transcoder received fees"
      },
      "getTranscoderEarningsPoolForRound(address,uint256)": {
        "params": {
          "_round": "Round number",
          "_transcoder": "Address of transcoder"
        },
        "return": "rewardPool Reward pool for delegators (only used before LIP-36)feePool Fee pool for delegators (only used before LIP-36)totalStake Transcoder's total stake in '_round'claimableStake Remaining stake that can be used to claim from the pool (only used before LIP-36)transcoderRewardCut Transcoder's reward cut for '_round'transcoderFeeShare Transcoder's fee share for '_round'transcoderRewardPool Transcoder's rewards for '_round' (only used before LIP-36)transcoderFeePool Transcoder's fees for '_round' (only used before LIP-36)hasTranscoderRewardFeePool True if there is a split reward/fee pool for the transcoder (only used before LIP-36)cumulativeRewardFactor The cumulative reward factor for delegator rewards calculation (only used after LIP-36)cumulativeFeeFactor The cumulative fee factor for delegator fees calculation (only used after LIP-36)"
      },
      "getTranscoderPoolMaxSize()": {
        "return": "transcoder pool max size"
      },
      "getTranscoderPoolSize()": {
        "return": "transcoder pool current size"
      },
      "isActiveTranscoder(address)": {
        "params": {
          "_transcoder": "Transcoder address"
        },
        "return": "true if transcoder is active"
      },
      "isRegisteredTranscoder(address)": {
        "params": {
          "_transcoder": "Transcoder address"
        },
        "return": "true if transcoder is self-bonded"
      },
      "isValidUnbondingLock(address,uint256)": {
        "params": {
          "_delegator": "Address of delegator",
          "_unbondingLockId": "ID of unbonding lock"
        },
        "return": "true if unbondingLock for ID has a non-zero withdraw round"
      },
      "pendingFees(address,uint256)": {
        "params": {
          "_delegator": "Address of delegator",
          "_endRound": "The last round to compute pending fees from"
        },
        "return": "Pending fees for '_delegator' since last claiming fees"
      },
      "pendingStake(address,uint256)": {
        "params": {
          "_delegator": "Address of delegator",
          "_endRound": "The last round to compute pending stake from"
        },
        "return": "Pending bonded stake for '_delegator' since last claiming rewards"
      },
      "rebond(uint256)": {
        "params": {
          "_unbondingLockId": "ID of unbonding lock to rebond with"
        }
      },
      "rebondFromUnbonded(address,uint256)": {
        "params": {
          "_to": "Address of delegate",
          "_unbondingLockId": "ID of unbonding lock to rebond with"
        }
      },
      "rebondFromUnbondedWithHint(address,uint256,address,address)": {
        "details": "If the delegate joins the transcoder pool, the caller can provide an optional hint for the delegate's insertion position in the pool via the `_newPosPrev` and `_newPosNext` params. A linear search will be executed starting at the hint to find the correct position. In the best case, the hint is the correct position so no search is executed. See SortedDoublyLL.sol for details on list hints",
        "params": {
          "_newPosNext": "Address of next transcoder in pool if the delegate joins the pool",
          "_newPosPrev": "Address of previous transcoder in pool if the delegate joins the pool",
          "_to": "Address of delegate",
          "_unbondingLockId": "ID of unbonding lock to rebond with"
        }
      },
      "rebondWithHint(uint256,address,address)": {
        "details": "If the delegate is in the transcoder pool, the caller can provide an optional hint for the delegate's insertion position in the pool via the `_newPosPrev` and `_newPosNext` params. A linear search will be executed starting at the hint to find the correct position. In the best case, the hint is the correct position so no search is executed. See SortedDoublyLL.sol details on list hints",
        "params": {
          "_newPosNext": "Address of next transcoder in pool if the delegate is in the pool",
          "_newPosPrev": "Address of previous transcoder in pool if the delegate is in the pool",
          "_unbondingLockId": "ID of unbonding lock to rebond with"
        }
      },
      "rewardWithHint(address,address)": {
        "details": "If the caller is in the transcoder pool, the caller can provide an optional hint for its insertion position in the pool via the `_newPosPrev` and `_newPosNext` params. A linear search will be executed starting at the hint to find the correct position. In the best case, the hint is the correct position so no search is executed. See SortedDoublyLL.sol for details on list hints",
        "params": {
          "_newPosNext": "Address of next transcoder in pool if the caller is in the pool",
          "_newPosPrev": "Address of previous transcoder in pool if the caller is in the pool"
        }
      },
      "setController(address)": {
        "params": {
          "_controller": "Controller contract address"
        }
      },
      "setMaxEarningsClaimsRounds(uint256)": {
        "params": {
          "_maxEarningsClaimsRounds": "Max number of rounds a caller can claim earnings for at once"
        }
      },
      "setNumActiveTranscoders(uint256)": {
        "params": {
          "_numActiveTranscoders": "Number of active transcoders"
        }
      },
      "setUnbondingPeriod(uint64)": {
        "params": {
          "_unbondingPeriod": "Rounds between unbonding and possible withdrawal"
        }
      },
      "slashTranscoder(address,address,uint256,uint256)": {
        "params": {
          "_finder": "Finder that proved a transcoder violated a slashing condition. Null address if there is no finder",
          "_finderFee": "Percentage of penalty awarded to finder. Zero if there is no finder",
          "_slashAmount": "Percentage of transcoder bond to be slashed",
          "_transcoder": "Transcoder address"
        }
      },
      "transcoder(uint256,uint256)": {
        "details": "Percentages are represented as numerators of fractions over MathUtils.PERC_DIVISOR",
        "params": {
          "_feeShare": "% of fees paid to delegators by a transcoder",
          "_rewardCut": "% of reward paid to transcoder by a delegator"
        }
      },
      "transcoderStatus(address)": {
        "params": {
          "_transcoder": "Address of transcoder"
        },
        "return": "registered or not registered transcoder status"
      },
      "transcoderTotalStake(address)": {
        "params": {
          "_transcoder": "Address of transcoder"
        },
        "return": "total bonded stake for a delegator"
      },
      "transcoderWithHint(uint256,uint256,address,address)": {
        "details": "Percentages are represented as numerators of fractions over MathUtils.PERC_DIVISOR. If the caller is going to be added to the pool, the caller can provide an optional hint for the insertion position in the pool via the `_newPosPrev` and `_newPosNext` params. A linear search will be executed starting at the hint to find the correct position - in the best case, the hint is the correct position so no search is executed. See SortedDoublyLL.sol for details on list hints",
        "params": {
          "_feeShare": "% of fees paid to delegators by a transcoder",
          "_newPosNext": "Address of next transcoder in pool if the caller joins the pool",
          "_newPosPrev": "Address of previous transcoder in pool if the caller joins the pool",
          "_rewardCut": "% of reward paid to transcoder by a delegator"
        }
      },
      "unbond(uint256)": {
        "params": {
          "_amount": "Amount of tokens to unbond"
        }
      },
      "unbondWithHint(uint256,address,address)": {
        "details": "If the caller remains in the transcoder pool, the caller can provide an optional hint for its insertion position in the pool via the `_newPosPrev` and `_newPosNext` params. A linear search will be executed starting at the hint to find the correct position. In the best case, the hint is the correct position so no search is executed. See SortedDoublyLL.sol details on list hints",
        "params": {
          "_amount": "Amount of tokens to unbond",
          "_newPosNext": "Address of next transcoder in pool if the caller remains in the pool",
          "_newPosPrev": "Address of previous transcoder in pool if the caller remains in the pool"
        }
      },
      "updateTranscoderWithFees(address,uint256,uint256)": {
        "params": {
          "_fees": "Fees to be added to the fee pool",
          "_transcoder": "Transcoder address"
        }
      },
      "withdrawStake(uint256)": {
        "params": {
          "_unbondingLockId": "ID of unbonding lock to withdraw with"
        }
      }
    },
    "title": "BondingManager"
  },
  "userdoc": {
    "methods": {
      "bond(uint256,address)": {
        "notice": "Delegate stake towards a specific address"
      },
      "bondWithHint(uint256,address,address,address,address,address)": {
        "notice": "Delegate stake towards a specific address and updates the transcoder pool using optional list hints if needed"
      },
      "claimEarnings(uint256)": {
        "notice": "Claim token pools shares for a delegator from its lastClaimRound through the end round"
      },
      "claimSnapshotEarnings(uint256,uint256,bytes32[],bytes)": {
        "notice": "Claim earnings for a delegator based on the snapshot taken in LIP-52"
      },
      "constructor": "BondingManager constructor. Only invokes constructor of base Manager contract with provided Controller address",
      "delegatorStatus(address)": {
        "notice": "Computes delegator status"
      },
      "executeLIP77(uint256)": {
        "notice": "Execute LIP-77. Can only be called once by Controller owner"
      },
      "getDelegator(address)": {
        "notice": "Return delegator info"
      },
      "getDelegatorUnbondingLock(address,uint256)": {
        "notice": "Return delegator's unbonding lock info"
      },
      "getFirstTranscoderInPool()": {
        "notice": "Returns transcoder with most stake in pool"
      },
      "getNextTranscoderInPool(address)": {
        "notice": "Returns next transcoder in pool for a given transcoder"
      },
      "getTotalBonded()": {
        "notice": "Return total bonded tokens"
      },
      "getTranscoder(address)": {
        "notice": "Return transcoder information"
      },
      "getTranscoderEarningsPoolForRound(address,uint256)": {
        "notice": "Return transcoder's earnings pool for a given round"
      },
      "getTranscoderPoolMaxSize()": {
        "notice": "Returns max size of transcoder pool"
      },
      "getTranscoderPoolSize()": {
        "notice": "Returns size of transcoder pool"
      },
      "isActiveTranscoder(address)": {
        "notice": "Return whether a transcoder is active for the current round"
      },
      "isRegisteredTranscoder(address)": {
        "notice": "Return whether a transcoder is registered"
      },
      "isValidUnbondingLock(address,uint256)": {
        "notice": "Return whether an unbonding lock for a delegator is valid"
      },
      "pendingFees(address,uint256)": {
        "notice": "Returns pending fees for a delegator from its lastClaimRound through an end round"
      },
      "pendingStake(address,uint256)": {
        "notice": "Returns pending bonded stake for a delegator from its lastClaimRound through an end round"
      },
      "rebond(uint256)": {
        "notice": "Rebond tokens for an unbonding lock to a delegator's current delegate while a delegator is in the Bonded or Pending status"
      },
      "rebondFromUnbonded(address,uint256)": {
        "notice": "Rebond tokens for an unbonding lock to a delegate while a delegator is in the Unbonded status"
      },
      "rebondFromUnbondedWithHint(address,uint256,address,address)": {
        "notice": "Rebond tokens for an unbonding lock to a delegate while a delegator is in the Unbonded status and updates the transcoder pool using an optional list hint if needed"
      },
      "rebondWithHint(uint256,address,address)": {
        "notice": "Rebond tokens for an unbonding lock to a delegator's current delegate while a delegator is in the Bonded or Pending status and updates the transcoder pool using an optional list hint if needed"
      },
      "reward()": {
        "notice": "Mint token rewards for an active transcoder and its delegators"
      },
      "rewardWithHint(address,address)": {
        "notice": "Mint token rewards for an active transcoder and its delegators and update the transcoder pool using an optional list hint if needed"
      },
      "setController(address)": {
        "notice": "Set controller. Only callable by current controller"
      },
      "setCurrentRoundTotalActiveStake()": {
        "notice": "Called during round initialization to set the total active stake for the round. Only callable by the RoundsManager"
      },
      "setMaxEarningsClaimsRounds(uint256)": {
        "notice": "Set max number of rounds a caller can claim earnings for at once. Only callable by Controller owner"
      },
      "setNumActiveTranscoders(uint256)": {
        "notice": "Set maximum number of active transcoders. Only callable by Controller owner"
      },
      "setUnbondingPeriod(uint64)": {
        "notice": "Set unbonding period. Only callable by Controller owner"
      },
      "slashTranscoder(address,address,uint256,uint256)": {
        "notice": "Slash a transcoder. Only callable by the Verifier"
      },
      "transcoder(uint256,uint256)": {
        "notice": "Sets commission rates as a transcoder and if the caller is not in the transcoder pool tries to add it"
      },
      "transcoderStatus(address)": {
        "notice": "Computes transcoder status"
      },
      "transcoderTotalStake(address)": {
        "notice": "Returns total bonded stake for a transcoder"
      },
      "transcoderWithHint(uint256,uint256,address,address)": {
        "notice": "Sets commission rates as a transcoder and if the caller is not in the transcoder pool tries to add it using an optional list hint"
      },
      "unbond(uint256)": {
        "notice": "Unbond an amount of the delegator's bonded stake"
      },
      "unbondWithHint(uint256,address,address)": {
        "notice": "Unbond an amount of the delegator's bonded stake and updates the transcoder pool using an optional list hint if needed"
      },
      "updateTranscoderWithFees(address,uint256,uint256)": {
        "notice": "Update transcoder's fee pool. Only callable by the TicketBroker"
      },
      "withdrawFees()": {
        "notice": "Withdraws fees to the caller"
      },
      "withdrawStake(uint256)": {
        "notice": "Withdraws tokens for an unbonding lock that has existed through an unbonding period"
      }
    },
    "notice": "Manages bonding, transcoder and rewards/fee accounting related operations of the Livepeer protocol"
  }
}