{
  "address": "0x8573f2F5A3Bd960eeE3D998473e50C75cDbE6828",
  "abi": [
    {
      "constant": true,
      "inputs": [],
      "name": "mintingFinished",
      "outputs": [
        {
          "internalType": "bool",
          "name": "",
          "type": "bool"
        }
      ],
      "payable": false,
      "stateMutability": "view",
      "type": "function"
    },
    {
      "constant": true,
      "inputs": [],
      "name": "name",
      "outputs": [
        {
          "internalType": "string",
          "name": "",
          "type": "string"
        }
      ],
      "payable": false,
      "stateMutability": "view",
      "type": "function"
    },
    {
      "constant": false,
      "inputs": [
        {
          "internalType": "address",
          "name": "spender",
          "type": "address"
        },
        {
          "internalType": "uint256",
          "name": "value",
          "type": "uint256"
        }
      ],
      "name": "approve",
      "outputs": [
        {
          "internalType": "bool",
          "name": "",
          "type": "bool"
        }
      ],
      "payable": false,
      "stateMutability": "nonpayable",
      "type": "function"
    },
    {
      "constant": true,
      "inputs": [],
      "name": "totalSupply",
      "outputs": [
        {
          "internalType": "uint256",
          "name": "",
          "type": "uint256"
        }
      ],
      "payable": false,
      "stateMutability": "view",
      "type": "function"
    },
    {
      "constant": false,
      "inputs": [
        {
          "internalType": "address",
          "name": "sender",
          "type": "address"
        },
        {
          "internalType": "address",
          "name": "recipient",
          "type": "address"
        },
        {
          "internalType": "uint256",
          "name": "amount",
          "type": "uint256"
        }
      ],
      "name": "transferFrom",
      "outputs": [
        {
          "internalType": "bool",
          "name": "",
          "type": "bool"
        }
      ],
      "payable": false,
      "stateMutability": "nonpayable",
      "type": "function"
    },
    {
      "constant": true,
      "inputs": [],
      "name": "decimals",
      "outputs": [
        {
          "internalType": "uint8",
          "name": "",
          "type": "uint8"
        }
      ],
      "payable": false,
      "stateMutability": "view",
      "type": "function"
    },
    {
      "constant": false,
      "inputs": [
        {
          "internalType": "address",
          "name": "spender",
          "type": "address"
        },
        {
          "internalType": "uint256",
          "name": "addedValue",
          "type": "uint256"
        }
      ],
      "name": "increaseAllowance",
      "outputs": [
        {
          "internalType": "bool",
          "name": "",
          "type": "bool"
        }
      ],
      "payable": false,
      "stateMutability": "nonpayable",
      "type": "function"
    },
    {
      "constant": false,
      "inputs": [
        {
          "internalType": "address",
          "name": "_to",
          "type": "address"
        },
        {
          "internalType": "uint256",
          "name": "_amount",
          "type": "uint256"
        }
      ],
      "name": "mint",
      "outputs": [
        {
          "internalType": "bool",
          "name": "",
          "type": "bool"
        }
      ],
      "payable": false,
      "stateMutability": "nonpayable",
      "type": "function"
    },
    {
      "constant": false,
      "inputs": [
        {
          "internalType": "address",
          "name": "_routerAdmin",
          "type": "address"
        }
      ],
      "name": "setRouterAdmin",
      "outputs": [],
      "payable": false,
      "stateMutability": "nonpayable",
      "type": "function"
    },
    {
      "constant": false,
      "inputs": [
        {
          "internalType": "uint256",
          "name": "_amount",
          "type": "uint256"
        }
      ],
      "name": "burn",
      "outputs": [],
      "payable": false,
      "stateMutability": "nonpayable",
      "type": "function"
    },
    {
      "constant": true,
      "inputs": [],
      "name": "version",
      "outputs": [
        {
          "internalType": "string",
          "name": "",
          "type": "string"
        }
      ],
      "payable": false,
      "stateMutability": "view",
      "type": "function"
    },
    {
      "constant": true,
      "inputs": [
        {
          "internalType": "address",
          "name": "account",
          "type": "address"
        }
      ],
      "name": "balanceOf",
      "outputs": [
        {
          "internalType": "uint256",
          "name": "",
          "type": "uint256"
        }
      ],
      "payable": false,
      "stateMutability": "view",
      "type": "function"
    },
    {
      "constant": false,
      "inputs": [],
      "name": "finishMinting",
      "outputs": [
        {
          "internalType": "bool",
          "name": "",
          "type": "bool"
        }
      ],
      "payable": false,
      "stateMutability": "nonpayable",
      "type": "function"
    },
    {
      "constant": true,
      "inputs": [],
      "name": "routerAdmin",
      "outputs": [
        {
          "internalType": "address",
          "name": "",
          "type": "address"
        }
      ],
      "payable": false,
      "stateMutability": "view",
      "type": "function"
    },
    {
      "constant": true,
      "inputs": [],
      "name": "owner",
      "outputs": [
        {
          "internalType": "address",
          "name": "",
          "type": "address"
        }
      ],
      "payable": false,
      "stateMutability": "view",
      "type": "function"
    },
    {
      "constant": true,
      "inputs": [],
      "name": "isArbitrumEnabled",
      "outputs": [
        {
          "internalType": "uint8",
          "name": "",
          "type": "uint8"
        }
      ],
      "payable": false,
      "stateMutability": "view",
      "type": "function"
    },
    {
      "constant": true,
      "inputs": [],
      "name": "symbol",
      "outputs": [
        {
          "internalType": "string",
          "name": "",
          "type": "string"
        }
      ],
      "payable": false,
      "stateMutability": "view",
      "type": "function"
    },
    {
      "constant": false,
      "inputs": [
        {
          "internalType": "address",
          "name": "_gateway",
          "type": "address"
        },
        {
          "internalType": "uint256",
          "name": "_maxGas",
          "type": "uint256"
        },
        {
          "internalType": "uint256",
          "name": "_gasPriceBid",
          "type": "uint256"
        },
        {
          "internalType": "uint256",
          "name": "_maxSubmissionCost",
          "type": "uint256"
        },
        {
          "internalType": "address",
          "name": "_creditBackAddress",
          "type": "address"
        }
      ],
      "name": "registerGatewayWithRouter",
      "outputs": [],
      "payable": true,
      "stateMutability": "payable",
      "type": "function"
    },
    {
      "constant": false,
      "inputs": [
        {
          "internalType": "address",
          "name": "spender",
          "type": "address"
        },
        {
          "internalType": "uint256",
          "name": "subtractedValue",
          "type": "uint256"
        }
      ],
      "name": "decreaseAllowance",
      "outputs": [
        {
          "internalType": "bool",
          "name": "",
          "type": "bool"
        }
      ],
      "payable": false,
      "stateMutability": "nonpayable",
      "type": "function"
    },
    {
      "constant": false,
      "inputs": [
        {
          "internalType": "address",
          "name": "recipient",
          "type": "address"
        },
        {
          "internalType": "uint256",
          "name": "amount",
          "type": "uint256"
        }
      ],
      "name": "transfer",
      "outputs": [
        {
          "internalType": "bool",
          "name": "",
          "type": "bool"
        }
      ],
      "payable": false,
      "stateMutability": "nonpayable",
      "type": "function"
    },
    {
      "constant": true,
      "inputs": [
        {
          "internalType": "address",
          "name": "owner",
          "type": "address"
        },
        {
          "internalType": "address",
          "name": "spender",
          "type": "address"
        }
      ],
      "name": "allowance",
      "outputs": [
        {
          "internalType": "uint256",
          "name": "",
          "type": "uint256"
        }
      ],
      "payable": false,
      "stateMutability": "view",
      "type": "function"
    },
    {
      "constant": false,
      "inputs": [
        {
          "internalType": "address",
          "name": "newOwner",
          "type": "address"
        }
      ],
      "name": "transferOwnership",
      "outputs": [],
      "payable": false,
      "stateMutability": "nonpayable",
      "type": "function"
    },
    {
      "constant": true,
      "inputs": [],
      "name": "router",
      "outputs": [
        {
          "internalType": "address",
          "name": "",
          "type": "address"
        }
      ],
      "payable": false,
      "stateMutability": "view",
      "type": "function"
    },
    {
      "inputs": [
        {
          "internalType": "address",
          "name": "_router",
          "type": "address"
        }
      ],
      "payable": false,
      "stateMutability": "nonpayable",
      "type": "constructor"
    },
    {
      "anonymous": false,
      "inputs": [
        {
          "indexed": true,
          "internalType": "address",
          "name": "burner",
          "type": "address"
        },
        {
          "indexed": false,
          "internalType": "uint256",
          "name": "value",
          "type": "uint256"
        }
      ],
      "name": "Burn",
      "type": "event"
    },
    {
      "anonymous": false,
      "inputs": [
        {
          "indexed": true,
          "internalType": "address",
          "name": "to",
          "type": "address"
        },
        {
          "indexed": false,
          "internalType": "uint256",
          "name": "amount",
          "type": "uint256"
        }
      ],
      "name": "Mint",
      "type": "event"
    },
    {
      "anonymous": false,
      "inputs": [],
      "name": "MintFinished",
      "type": "event"
    },
    {
      "anonymous": false,
      "inputs": [
        {
          "indexed": true,
          "internalType": "address",
          "name": "previousOwner",
          "type": "address"
        },
        {
          "indexed": true,
          "internalType": "address",
          "name": "newOwner",
          "type": "address"
        }
      ],
      "name": "OwnershipTransferred",
      "type": "event"
    },
    {
      "anonymous": false,
      "inputs": [
        {
          "indexed": true,
          "internalType": "address",
          "name": "from",
          "type": "address"
        },
        {
          "indexed": true,
          "internalType": "address",
          "name": "to",
          "type": "address"
        },
        {
          "indexed": false,
          "internalType": "uint256",
          "name": "value",
          "type": "uint256"
        }
      ],
      "name": "Transfer",
      "type": "event"
    },
    {
      "anonymous": false,
      "inputs": [
        {
          "indexed": true,
          "internalType": "address",
          "name": "owner",
          "type": "address"
        },
        {
          "indexed": true,
          "internalType": "address",
          "name": "spender",
          "type": "address"
        },
        {
          "indexed": false,
          "internalType": "uint256",
          "name": "value",
          "type": "uint256"
        }
      ],
      "name": "Approval",
      "type": "event"
    }
  ],
  "transactionHash": "0x4c0dcb60500bb0d20a9d0cd5af27cec1cbb5223a523b73223779fabdae937d60",
  "args": [
    "0x70C143928eCfFaf9F5b406f7f4fC28Dc43d68380"
  ],
  "solcInputHash": "ebcc0ae727048c8076751259a562c240",
  "bytecode": "0x6003805460ff60a01b1916905560c0604052600e60808190527f4c6976657065657220546f6b656e00000000000000000000000000000000000060a09081526200004d91600491906200015c565b506005805460ff191660121790556040805180820190915260038082527f4c505400000000000000000000000000000000000000000000000000000000006020909201918252620000a1916006916200015c565b506040805180820190915260038082527f302e3100000000000000000000000000000000000000000000000000000000006020909201918252620000e8916007916200015c565b50348015620000f657600080fd5b50604051620013b2380380620013b2833981810160405260208110156200011c57600080fd5b505160038054336001600160a01b031991821681179092556009805482166001600160a01b03909416939093179092556008805490921617905562000201565b828054600181600116156101000203166002900490600052602060002090601f016020900481019282601f106200019f57805160ff1916838001178555620001cf565b82800160010185558215620001cf579182015b82811115620001cf578251825591602001919060010190620001b2565b50620001dd929150620001e1565b5090565b620001fe91905b80821115620001dd5760008155600101620001e8565b90565b6111a180620002116000396000f3fe6080604052600436106101405760003560e01c806370a08231116100b65780639945b7901161006f5780639945b79014610464578063a457c2d7146104a6578063a9059cbb146104df578063dd62ed3e14610518578063f2fde38b14610553578063f887ea401461058657610140565b806370a08231146103ac5780637d64bcb4146103df57806383b969b7146103f45780638da5cb5b146104255780638e5f5ad11461043a57806395d89b411461044f57610140565b8063313ce56711610108578063313ce5671461029b57806339509351146102c657806340c10f19146102ff57806341b8c3df1461033857806342966c681461036d57806354fd4d501461039757610140565b806305d2035b1461014557806306fdde031461016e578063095ea7b3146101f857806318160ddd1461023157806323b872dd14610258575b600080fd5b34801561015157600080fd5b5061015a61059b565b604080519115158252519081900360200190f35b34801561017a57600080fd5b506101836105ab565b6040805160208082528351818301528351919283929083019185019080838360005b838110156101bd5781810151838201526020016101a5565b50505050905090810190601f1680156101ea5780820380516001836020036101000a031916815260200191505b509250505060405180910390f35b34801561020457600080fd5b5061015a6004803603604081101561021b57600080fd5b506001600160a01b038135169060200135610639565b34801561023d57600080fd5b5061024661064f565b60408051918252519081900360200190f35b34801561026457600080fd5b5061015a6004803603606081101561027b57600080fd5b506001600160a01b03813581169160208101359091169060400135610655565b3480156102a757600080fd5b506102b06106ac565b6040805160ff9092168252519081900360200190f35b3480156102d257600080fd5b5061015a600480360360408110156102e957600080fd5b506001600160a01b0381351690602001356106b5565b34801561030b57600080fd5b5061015a6004803603604081101561032257600080fd5b506001600160a01b0381351690602001356106f1565b34801561034457600080fd5b5061036b6004803603602081101561035b57600080fd5b50356001600160a01b0316610774565b005b34801561037957600080fd5b5061036b6004803603602081101561039057600080fd5b50356107e8565b3480156103a357600080fd5b5061018361082b565b3480156103b857600080fd5b50610246600480360360208110156103cf57600080fd5b50356001600160a01b0316610886565b3480156103eb57600080fd5b5061015a6108a1565b34801561040057600080fd5b50610409610914565b604080516001600160a01b039092168252519081900360200190f35b34801561043157600080fd5b50610409610923565b34801561044657600080fd5b506102b0610932565b34801561045b57600080fd5b5061018361098e565b61036b600480360360a081101561047a57600080fd5b506001600160a01b038135811691602081013591604082013591606081013591608090910135166109e9565b3480156104b257600080fd5b5061015a600480360360408110156104c957600080fd5b506001600160a01b038135169060200135610aff565b3480156104eb57600080fd5b5061015a6004803603604081101561050257600080fd5b506001600160a01b038135169060200135610b3b565b34801561052457600080fd5b506102466004803603604081101561053b57600080fd5b506001600160a01b0381358116916020013516610b48565b34801561055f57600080fd5b5061036b6004803603602081101561057657600080fd5b50356001600160a01b0316610b73565b34801561059257600080fd5b50610409610bf9565b600354600160a01b900460ff1681565b6004805460408051602060026001851615610100026000190190941693909304601f810184900484028201840190925281815292918301828280156106315780601f1061060657610100808354040283529160200191610631565b820191906000526020600020905b81548152906001019060200180831161061457829003601f168201915b505050505081565b6000610646338484610c08565b50600192915050565b60025490565b6000610662848484610cf4565b6001600160a01b0384166000908152600160209081526040808320338085529252909120546106a291869161069d908663ffffffff610e3616565b610c08565b5060019392505050565b60055460ff1681565b3360008181526001602090815260408083206001600160a01b0387168452909152812054909161064691859061069d908663ffffffff610e9316565b6003546000906001600160a01b0316331461070b57600080fd5b600354600160a01b900460ff161561072257600080fd5b61072c8383610ef4565b6040805183815290516001600160a01b038516917f0f6798a560793a54c3bcfe86a93cde1e73087d944c0ea20544137d4121396885919081900360200190a250600192915050565b6008546001600160a01b031633146107c6576040805162461bcd60e51b815260206004820152601060248201526f2727aa2fa927aaaa22a92fa0a226a4a760811b604482015290519081900360640190fd5b600880546001600160a01b0319166001600160a01b0392909216919091179055565b6107f23382610fe4565b60408051828152905133917fcc16f5dbb4873280815c1ee09dbd06736cffcc184412cf7a71a0fdb75d397ca5919081900360200190a250565b6007805460408051602060026001851615610100026000190190941693909304601f810184900484028201840190925281815292918301828280156106315780601f1061060657610100808354040283529160200191610631565b6001600160a01b031660009081526020819052604090205490565b6003546000906001600160a01b031633146108bb57600080fd5b600354600160a01b900460ff16156108d257600080fd5b6003805460ff60a01b1916600160a01b1790556040517fae5184fba832cb2b1f702aca6117b8d265eaf03ad33eb133f19dde0f5920fa0890600090a150600190565b6008546001600160a01b031681565b6003546001600160a01b031681565b600954600090600160a01b900460ff16610987576040805162461bcd60e51b81526020600482015260116024820152701393d517d156141150d5115117d0d05313607a1b604482015290519081900360640190fd5b5061a4b190565b6006805460408051602060026001851615610100026000190190941693909304601f810184900484028201840190925281815292918301828280156106315780601f1061060657610100808354040283529160200191610631565b6008546001600160a01b03163314610a3b576040805162461bcd60e51b815260206004820152601060248201526f2727aa2fa927aaaa22a92fa0a226a4a760811b604482015290519081900360640190fd5b60098054600160a01b60ff60a01b19821681179283905560408051632d67b72d60e01b81526001600160a01b038a81166004830152602482018a90526044820189905260648201889052868116608483015291519290930460ff16931691632d67b72d91349160a48082019260009290919082900301818588803b158015610ac257600080fd5b505af1158015610ad6573d6000803e3d6000fd5b505060098054941515600160a01b0260ff60a01b19909516949094179093555050505050505050565b3360008181526001602090815260408083206001600160a01b0387168452909152812054909161064691859061069d908663ffffffff610e3616565b6000610646338484610cf4565b6001600160a01b03918216600090815260016020908152604080832093909416825291909152205490565b6003546001600160a01b03163314610b8a57600080fd5b6001600160a01b038116610b9d57600080fd5b6003546040516001600160a01b038084169216907f8be0079c531659141344cd1fd0a4f28419497f9722a3daafe3b4186f6b6457e090600090a3600380546001600160a01b0319166001600160a01b0392909216919091179055565b6009546001600160a01b031681565b6001600160a01b038316610c4d5760405162461bcd60e51b81526004018080602001828103825260248152602001806111496024913960400191505060405180910390fd5b6001600160a01b038216610c925760405162461bcd60e51b81526004018080602001828103825260228152602001806110e16022913960400191505060405180910390fd5b6001600160a01b03808416600081815260016020908152604080832094871680845294825291829020859055815185815291517f8c5be1e5ebec7d5bd14f71427d1e84f3dd0314c0f7b2291e5b200ac8c7c3b9259281900390910190a3505050565b6001600160a01b038316610d395760405162461bcd60e51b81526004018080602001828103825260258152602001806111246025913960400191505060405180910390fd5b6001600160a01b038216610d7e5760405162461bcd60e51b81526004018080602001828103825260238152602001806110be6023913960400191505060405180910390fd5b6001600160a01b038316600090815260208190526040902054610da7908263ffffffff610e3616565b6001600160a01b038085166000908152602081905260408082209390935590841681522054610ddc908263ffffffff610e9316565b6001600160a01b038084166000818152602081815260409182902094909455805185815290519193928716927fddf252ad1be2c89b69c2b068fc378daa952ba7f163c4a11628f55a4df523b3ef92918290030190a3505050565b600082821115610e8d576040805162461bcd60e51b815260206004820152601e60248201527f536166654d6174683a207375627472616374696f6e206f766572666c6f770000604482015290519081900360640190fd5b50900390565b600082820183811015610eed576040805162461bcd60e51b815260206004820152601b60248201527f536166654d6174683a206164646974696f6e206f766572666c6f770000000000604482015290519081900360640190fd5b9392505050565b6001600160a01b038216610f4f576040805162461bcd60e51b815260206004820152601f60248201527f45524332303a206d696e7420746f20746865207a65726f206164647265737300604482015290519081900360640190fd5b600254610f62908263ffffffff610e9316565b6002556001600160a01b038216600090815260208190526040902054610f8e908263ffffffff610e9316565b6001600160a01b0383166000818152602081815260408083209490945583518581529351929391927fddf252ad1be2c89b69c2b068fc378daa952ba7f163c4a11628f55a4df523b3ef9281900390910190a35050565b6001600160a01b0382166110295760405162461bcd60e51b81526004018080602001828103825260218152602001806111036021913960400191505060405180910390fd5b60025461103c908263ffffffff610e3616565b6002556001600160a01b038216600090815260208190526040902054611068908263ffffffff610e3616565b6001600160a01b038316600081815260208181526040808320949094558351858152935191937fddf252ad1be2c89b69c2b068fc378daa952ba7f163c4a11628f55a4df523b3ef929081900390910190a3505056fe45524332303a207472616e7366657220746f20746865207a65726f206164647265737345524332303a20617070726f766520746f20746865207a65726f206164647265737345524332303a206275726e2066726f6d20746865207a65726f206164647265737345524332303a207472616e736665722066726f6d20746865207a65726f206164647265737345524332303a20617070726f76652066726f6d20746865207a65726f2061646472657373a265627a7a72315820d43b27f8d62b36a9c4317d8481e658a1c5470a98b632a1cb1f84f931ced9219864736f6c634300050b0032",
  "devdoc": {
    "methods": {
      "allowance(address,address)": {
        "details": "See `IERC20.allowance`."
      },
      "approve(address,uint256)": {
        "details": "See `IERC20.approve`.     * Requirements:     * - `spender` cannot be the zero address."
      },
      "balanceOf(address)": {
        "details": "See `IERC20.balanceOf`."
      },
      "burn(uint256)": {
        "details": "Burns a specific amount of the sender's tokens",
        "params": {
          "_amount": "The amount of tokens to be burned"
        }
      },
      "decreaseAllowance(address,uint256)": {
        "details": "Atomically decreases the allowance granted to `spender` by the caller.     * This is an alternative to `approve` that can be used as a mitigation for problems described in `IERC20.approve`.     * Emits an `Approval` event indicating the updated allowance.     * Requirements:     * - `spender` cannot be the zero address. - `spender` must have allowance for the caller of at least `subtractedValue`."
      },
      "finishMinting()": {
        "details": "Function to stop minting new tokens.",
        "return": "True if the operation was successful."
      },
      "increaseAllowance(address,uint256)": {
        "details": "Atomically increases the allowance granted to `spender` by the caller.     * This is an alternative to `approve` that can be used as a mitigation for problems described in `IERC20.approve`.     * Emits an `Approval` event indicating the updated allowance.     * Requirements:     * - `spender` cannot be the zero address."
      },
      "mint(address,uint256)": {
        "details": "Function to mint tokens",
        "params": {
          "_amount": "The amount of tokens to mint.",
          "_to": "The address that will receive the minted tokens."
        },
        "return": "A boolean that indicates if the operation was successful."
      },
      "totalSupply()": {
        "details": "See `IERC20.totalSupply`."
      },
      "transfer(address,uint256)": {
        "details": "See `IERC20.transfer`.     * Requirements:     * - `recipient` cannot be the zero address. - the caller must have a balance of at least `amount`."
      },
      "transferFrom(address,address,uint256)": {
        "details": "See `IERC20.transferFrom`.     * Emits an `Approval` event indicating the updated allowance. This is not required by the EIP. See the note at the beginning of `ERC20`;     * Requirements: - `sender` and `recipient` cannot be the zero address. - `sender` must have a balance of at least `value`. - the caller must have allowance for `sender`'s tokens of at least `amount`."
      },
      "transferOwnership(address)": {
        "details": "Allows the current owner to transfer control of the contract to a newOwner.",
        "params": {
          "newOwner": "The address to transfer ownership to."
        }
      }
    }
  },
  "userdoc": {
    "methods": {}
  }
}