{
  "address": "0x799124845E2b06800EFA2A6cea3CCAdd26c8d098",
  "abi": [
    {
      "constant": true,
      "inputs": [],
      "name": "QUORUM",
      "outputs": [
        {
          "internalType": "uint256",
          "name": "",
          "type": "uint256"
        }
      ],
      "payable": false,
      "stateMutability": "view",
      "type": "function"
    },
    {
      "constant": false,
      "inputs": [
        {
          "internalType": "bytes",
          "name": "_proposal",
          "type": "bytes"
        }
      ],
      "name": "createPoll",
      "outputs": [],
      "payable": false,
      "stateMutability": "nonpayable",
      "type": "function"
    },
    {
      "constant": true,
      "inputs": [],
      "name": "POLL_CREATION_COST",
      "outputs": [
        {
          "internalType": "uint256",
          "name": "",
          "type": "uint256"
        }
      ],
      "payable": false,
      "stateMutability": "view",
      "type": "function"
    },
    {
      "constant": true,
      "inputs": [],
      "name": "QUOTA",
      "outputs": [
        {
          "internalType": "uint256",
          "name": "",
          "type": "uint256"
        }
      ],
      "payable": false,
      "stateMutability": "view",
      "type": "function"
    },
    {
      "constant": true,
      "inputs": [],
      "name": "POLL_PERIOD",
      "outputs": [
        {
          "internalType": "uint256",
          "name": "",
          "type": "uint256"
        }
      ],
      "payable": false,
      "stateMutability": "view",
      "type": "function"
    },
    {
      "constant": true,
      "inputs": [],
      "name": "token",
      "outputs": [
        {
          "internalType": "contract ILivepeerToken",
          "name": "",
          "type": "address"
        }
      ],
      "payable": false,
      "stateMutability": "view",
      "type": "function"
    },
    {
      "inputs": [
        {
          "internalType": "address",
          "name": "_tokenAddr",
          "type": "address"
        }
      ],
      "payable": false,
      "stateMutability": "nonpayable",
      "type": "constructor"
    },
    {
      "anonymous": false,
      "inputs": [
        {
          "indexed": true,
          "internalType": "address",
          "name": "poll",
          "type": "address"
        },
        {
          "indexed": false,
          "internalType": "bytes",
          "name": "proposal",
          "type": "bytes"
        },
        {
          "indexed": false,
          "internalType": "uint256",
          "name": "endBlock",
          "type": "uint256"
        },
        {
          "indexed": false,
          "internalType": "uint256",
          "name": "quorum",
          "type": "uint256"
        },
        {
          "indexed": false,
          "internalType": "uint256",
          "name": "quota",
          "type": "uint256"
        }
      ],
      "name": "PollCreated",
      "type": "event"
    }
  ],
  "transactionHash": "0xda993fe9e35afda21eec8ff9803943b65a1141fa0497f614f59c21b13e999aaf",
  "args": [
    "0x8573f2F5A3Bd960eeE3D998473e50C75cDbE6828"
  ],
  "solcInputHash": "ebcc0ae727048c8076751259a562c240",
  "bytecode": "0x608060405234801561001057600080fd5b506040516105f93803806105f98339818101604052602081101561003357600080fd5b5051600080546001600160a01b039092166001600160a01b0319909216919091179055610594806100656000396000f3fe608060405234801561001057600080fd5b50600436106100625760003560e01c80632e80d9b6146100675780634d2942ab146100815780635359fbc0146100f3578063a502303b146100fb578063cb61e46e14610103578063fc0c546a1461010b575b600080fd5b61006f61012f565b60408051918252519081900360200190f35b6100f16004803603602081101561009757600080fd5b8101906020810181356401000000008111156100b257600080fd5b8201836020820111156100c457600080fd5b803590602001918460018302840111640100000000831117156100e657600080fd5b509092509050610136565b005b61006f610336565b61006f610343565b61006f61034a565b610113610350565b604080516001600160a01b039092168252519081900360200190f35b620515f481565b600061e1004301905060008160405161014e9061035f565b90815260405190819003602001906000f080158015610171573d6000803e3d6000fd5b5060008054604080516323b872dd60e01b815233600482015230602482015268056bc75e2d63100000604482015290519394506001600160a01b03909116926323b872dd92606480840193602093929083900390910190829087803b1580156101d957600080fd5b505af11580156101ed573d6000803e3d6000fd5b505050506040513d602081101561020357600080fd5b50516102405760405162461bcd60e51b815260040180806020018281038252602181526020018061053f6021913960400191505060405180910390fd5b6000805460408051630852cd8d60e31b815268056bc75e2d63100000600482015290516001600160a01b03909216926342966c689260248084019382900301818387803b15801561029057600080fd5b505af11580156102a4573d6000803e3d6000fd5b50505050806001600160a01b03167f8afbc4e1826cefcfc1e64fd5ff7d8484e700867fdbe36e9b6db047c010a6229e858585620515f46207a12060405180806020018581526020018481526020018381526020018281038252878782818152602001925080828437600083820152604051601f909101601f19169092018290039850909650505050505050a250505050565b68056bc75e2d6310000081565b6207a12081565b61e10081565b6000546001600160a01b031681565b6101d28061036d8339019056fe608060405234801561001057600080fd5b506040516101d23803806101d28339818101604052602081101561003357600080fd5b505160005561018b806100476000396000f3fe608060405234801561001057600080fd5b50600436106100415760003560e01c80630121b93f14610046578063083c63231461006557806383197ef01461007f575b600080fd5b6100636004803603602081101561005c57600080fd5b5035610087565b005b61006d610106565b60408051918252519081900360200190f35b61006361010c565b6000544311156100cd576040805162461bcd60e51b815260206004820152600c60248201526b3837b6361034b99037bb32b960a11b604482015290519081900360640190fd5b60408051828152905133917ff668ead05c744b9178e571d2edb452e72baf6529c8d72160e64e59b50d865bd0919081900360200190a250565b60005481565b6000544311610153576040805162461bcd60e51b815260206004820152600e60248201526d706f6c6c2069732061637469766560901b604482015290519081900360640190fd5b33fffea265627a7a72315820030d4ccd58e03ab2b59cf24b943e793300efd59c00f7528ae973ab9bcfda1de664736f6c634300050b00324c69766570656572546f6b656e207472616e7366657246726f6d206661696c6564a265627a7a723158204c5367d9ac947c9000a3d425f31e215066ca09633885e69ac31901675c2bb47e64736f6c634300050b0032",
  "devdoc": {
    "methods": {
      "createPoll(bytes)": {
        "details": "Create a poll by burning POLL_CREATION_COST LPT.     Reverts if this contract's LPT allowance for the sender < POLL_CREATION_COST.",
        "params": {
          "_proposal": "The IPFS multihash for the proposal."
        }
      }
    }
  },
  "userdoc": {
    "methods": {}
  }
}