{
  "address": "0x81Eb0b10Ff8703905904e4d91Cf6AA575d59736f",
  "abi": [
    {
      "constant": true,
      "inputs": [
        {
          "internalType": "address",
          "name": "_sender",
          "type": "address"
        }
      ],
      "name": "isUnlockInProgress",
      "outputs": [
        {
          "internalType": "bool",
          "name": "",
          "type": "bool"
        }
      ],
      "payable": false,
      "stateMutability": "view",
      "type": "function"
    },
    {
      "constant": true,
      "inputs": [],
      "name": "unlockPeriod",
      "outputs": [
        {
          "internalType": "uint256",
          "name": "",
          "type": "uint256"
        }
      ],
      "payable": false,
      "stateMutability": "view",
      "type": "function"
    },
    {
      "constant": false,
      "inputs": [],
      "name": "withdraw",
      "outputs": [],
      "payable": false,
      "stateMutability": "nonpayable",
      "type": "function"
    },
    {
      "constant": false,
      "inputs": [
        {
          "internalType": "uint256",
          "name": "_unlockPeriod",
          "type": "uint256"
        }
      ],
      "name": "setUnlockPeriod",
      "outputs": [],
      "payable": false,
      "stateMutability": "nonpayable",
      "type": "function"
    },
    {
      "constant": true,
      "inputs": [
        {
          "internalType": "address",
          "name": "_reserveHolder",
          "type": "address"
        },
        {
          "internalType": "address",
          "name": "_claimant",
          "type": "address"
        }
      ],
      "name": "claimedReserve",
      "outputs": [
        {
          "internalType": "uint256",
          "name": "",
          "type": "uint256"
        }
      ],
      "payable": false,
      "stateMutability": "view",
      "type": "function"
    },
    {
      "constant": false,
      "inputs": [
        {
          "internalType": "uint256",
          "name": "_depositAmount",
          "type": "uint256"
        },
        {
          "internalType": "uint256",
          "name": "_reserveAmount",
          "type": "uint256"
        }
      ],
      "name": "fundDepositAndReserve",
      "outputs": [],
      "payable": true,
      "stateMutability": "payable",
      "type": "function"
    },
    {
      "constant": true,
      "inputs": [],
      "name": "targetContractId",
      "outputs": [
        {
          "internalType": "bytes32",
          "name": "",
          "type": "bytes32"
        }
      ],
      "payable": false,
      "stateMutability": "view",
      "type": "function"
    },
    {
      "constant": true,
      "inputs": [
        {
          "internalType": "bytes32",
          "name": "",
          "type": "bytes32"
        }
      ],
      "name": "usedTickets",
      "outputs": [
        {
          "internalType": "bool",
          "name": "",
          "type": "bool"
        }
      ],
      "payable": false,
      "stateMutability": "view",
      "type": "function"
    },
    {
      "constant": true,
      "inputs": [
        {
          "internalType": "address",
          "name": "_reserveHolder",
          "type": "address"
        }
      ],
      "name": "getReserveInfo",
      "outputs": [
        {
          "components": [
            {
              "internalType": "uint256",
              "name": "fundsRemaining",
              "type": "uint256"
            },
            {
              "internalType": "uint256",
              "name": "claimedInCurrentRound",
              "type": "uint256"
            }
          ],
          "internalType": "struct MReserve.ReserveInfo",
          "name": "info",
          "type": "tuple"
        }
      ],
      "payable": false,
      "stateMutability": "view",
      "type": "function"
    },
    {
      "constant": false,
      "inputs": [],
      "name": "fundDeposit",
      "outputs": [],
      "payable": true,
      "stateMutability": "payable",
      "type": "function"
    },
    {
      "constant": false,
      "inputs": [],
      "name": "fundReserve",
      "outputs": [],
      "payable": true,
      "stateMutability": "payable",
      "type": "function"
    },
    {
      "constant": true,
      "inputs": [
        {
          "internalType": "address",
          "name": "_reserveHolder",
          "type": "address"
        },
        {
          "internalType": "address",
          "name": "_claimant",
          "type": "address"
        }
      ],
      "name": "claimableReserve",
      "outputs": [
        {
          "internalType": "uint256",
          "name": "",
          "type": "uint256"
        }
      ],
      "payable": false,
      "stateMutability": "view",
      "type": "function"
    },
    {
      "constant": true,
      "inputs": [],
      "name": "ticketValidityPeriod",
      "outputs": [
        {
          "internalType": "uint256",
          "name": "",
          "type": "uint256"
        }
      ],
      "payable": false,
      "stateMutability": "view",
      "type": "function"
    },
    {
      "constant": false,
      "inputs": [
        {
          "internalType": "address",
          "name": "_controller",
          "type": "address"
        }
      ],
      "name": "setController",
      "outputs": [],
      "payable": false,
      "stateMutability": "nonpayable",
      "type": "function"
    },
    {
      "constant": false,
      "inputs": [],
      "name": "unlock",
      "outputs": [],
      "payable": false,
      "stateMutability": "nonpayable",
      "type": "function"
    },
    {
      "constant": true,
      "inputs": [
        {
          "components": [
            {
              "internalType": "address",
              "name": "recipient",
              "type": "address"
            },
            {
              "internalType": "address",
              "name": "sender",
              "type": "address"
            },
            {
              "internalType": "uint256",
              "name": "faceValue",
              "type": "uint256"
            },
            {
              "internalType": "uint256",
              "name": "winProb",
              "type": "uint256"
            },
            {
              "internalType": "uint256",
              "name": "senderNonce",
              "type": "uint256"
            },
            {
              "internalType": "bytes32",
              "name": "recipientRandHash",
              "type": "bytes32"
            },
            {
              "internalType": "bytes",
              "name": "auxData",
              "type": "bytes"
            }
          ],
          "internalType": "struct MTicketBrokerCore.Ticket",
          "name": "_ticket",
          "type": "tuple"
        }
      ],
      "name": "getTicketHash",
      "outputs": [
        {
          "internalType": "bytes32",
          "name": "",
          "type": "bytes32"
        }
      ],
      "payable": false,
      "stateMutability": "pure",
      "type": "function"
    },
    {
      "constant": false,
      "inputs": [],
      "name": "cancelUnlock",
      "outputs": [],
      "payable": false,
      "stateMutability": "nonpayable",
      "type": "function"
    },
    {
      "constant": false,
      "inputs": [
        {
          "internalType": "uint256",
          "name": "_ticketValidityPeriod",
          "type": "uint256"
        }
      ],
      "name": "setTicketValidityPeriod",
      "outputs": [],
      "payable": false,
      "stateMutability": "nonpayable",
      "type": "function"
    },
    {
      "constant": false,
      "inputs": [
        {
          "components": [
            {
              "internalType": "address",
              "name": "recipient",
              "type": "address"
            },
            {
              "internalType": "address",
              "name": "sender",
              "type": "address"
            },
            {
              "internalType": "uint256",
              "name": "faceValue",
              "type": "uint256"
            },
            {
              "internalType": "uint256",
              "name": "winProb",
              "type": "uint256"
            },
            {
              "internalType": "uint256",
              "name": "senderNonce",
              "type": "uint256"
            },
            {
              "internalType": "bytes32",
              "name": "recipientRandHash",
              "type": "bytes32"
            },
            {
              "internalType": "bytes",
              "name": "auxData",
              "type": "bytes"
            }
          ],
          "internalType": "struct MTicketBrokerCore.Ticket[]",
          "name": "_tickets",
          "type": "tuple[]"
        },
        {
          "internalType": "bytes[]",
          "name": "_sigs",
          "type": "bytes[]"
        },
        {
          "internalType": "uint256[]",
          "name": "_recipientRands",
          "type": "uint256[]"
        }
      ],
      "name": "batchRedeemWinningTickets",
      "outputs": [],
      "payable": false,
      "stateMutability": "nonpayable",
      "type": "function"
    },
    {
      "constant": true,
      "inputs": [
        {
          "internalType": "address",
          "name": "_sender",
          "type": "address"
        }
      ],
      "name": "getSenderInfo",
      "outputs": [
        {
          "components": [
            {
              "internalType": "uint256",
              "name": "deposit",
              "type": "uint256"
            },
            {
              "internalType": "uint256",
              "name": "withdrawRound",
              "type": "uint256"
            }
          ],
          "internalType": "struct MixinTicketBrokerCore.Sender",
          "name": "sender",
          "type": "tuple"
        },
        {
          "components": [
            {
              "internalType": "uint256",
              "name": "fundsRemaining",
              "type": "uint256"
            },
            {
              "internalType": "uint256",
              "name": "claimedInCurrentRound",
              "type": "uint256"
            }
          ],
          "internalType": "struct MReserve.ReserveInfo",
          "name": "reserve",
          "type": "tuple"
        }
      ],
      "payable": false,
      "stateMutability": "view",
      "type": "function"
    },
    {
      "constant": false,
      "inputs": [
        {
          "components": [
            {
              "internalType": "address",
              "name": "recipient",
              "type": "address"
            },
            {
              "internalType": "address",
              "name": "sender",
              "type": "address"
            },
            {
              "internalType": "uint256",
              "name": "faceValue",
              "type": "uint256"
            },
            {
              "internalType": "uint256",
              "name": "winProb",
              "type": "uint256"
            },
            {
              "internalType": "uint256",
              "name": "senderNonce",
              "type": "uint256"
            },
            {
              "internalType": "bytes32",
              "name": "recipientRandHash",
              "type": "bytes32"
            },
            {
              "internalType": "bytes",
              "name": "auxData",
              "type": "bytes"
            }
          ],
          "internalType": "struct MTicketBrokerCore.Ticket",
          "name": "_ticket",
          "type": "tuple"
        },
        {
          "internalType": "bytes",
          "name": "_sig",
          "type": "bytes"
        },
        {
          "internalType": "uint256",
          "name": "_recipientRand",
          "type": "uint256"
        }
      ],
      "name": "redeemWinningTicket",
      "outputs": [],
      "payable": false,
      "stateMutability": "nonpayable",
      "type": "function"
    },
    {
      "constant": true,
      "inputs": [],
      "name": "controller",
      "outputs": [
        {
          "internalType": "contract IController",
          "name": "",
          "type": "address"
        }
      ],
      "payable": false,
      "stateMutability": "view",
      "type": "function"
    },
    {
      "inputs": [
        {
          "internalType": "address",
          "name": "_controller",
          "type": "address"
        }
      ],
      "payable": false,
      "stateMutability": "nonpayable",
      "type": "constructor"
    },
    {
      "anonymous": false,
      "inputs": [
        {
          "indexed": true,
          "internalType": "address",
          "name": "sender",
          "type": "address"
        },
        {
          "indexed": false,
          "internalType": "uint256",
          "name": "amount",
          "type": "uint256"
        }
      ],
      "name": "DepositFunded",
      "type": "event"
    },
    {
      "anonymous": false,
      "inputs": [
        {
          "indexed": true,
          "internalType": "address",
          "name": "sender",
          "type": "address"
        },
        {
          "indexed": true,
          "internalType": "address",
          "name": "recipient",
          "type": "address"
        },
        {
          "indexed": false,
          "internalType": "uint256",
          "name": "faceValue",
          "type": "uint256"
        },
        {
          "indexed": false,
          "internalType": "uint256",
          "name": "winProb",
          "type": "uint256"
        },
        {
          "indexed": false,
          "internalType": "uint256",
          "name": "senderNonce",
          "type": "uint256"
        },
        {
          "indexed": false,
          "internalType": "uint256",
          "name": "recipientRand",
          "type": "uint256"
        },
        {
          "indexed": false,
          "internalType": "bytes",
          "name": "auxData",
          "type": "bytes"
        }
      ],
      "name": "WinningTicketRedeemed",
      "type": "event"
    },
    {
      "anonymous": false,
      "inputs": [
        {
          "indexed": true,
          "internalType": "address",
          "name": "sender",
          "type": "address"
        },
        {
          "indexed": true,
          "internalType": "address",
          "name": "recipient",
          "type": "address"
        },
        {
          "indexed": false,
          "internalType": "uint256",
          "name": "amount",
          "type": "uint256"
        }
      ],
      "name": "WinningTicketTransfer",
      "type": "event"
    },
    {
      "anonymous": false,
      "inputs": [
        {
          "indexed": true,
          "internalType": "address",
          "name": "sender",
          "type": "address"
        },
        {
          "indexed": false,
          "internalType": "uint256",
          "name": "startRound",
          "type": "uint256"
        },
        {
          "indexed": false,
          "internalType": "uint256",
          "name": "endRound",
          "type": "uint256"
        }
      ],
      "name": "Unlock",
      "type": "event"
    },
    {
      "anonymous": false,
      "inputs": [
        {
          "indexed": true,
          "internalType": "address",
          "name": "sender",
          "type": "address"
        }
      ],
      "name": "UnlockCancelled",
      "type": "event"
    },
    {
      "anonymous": false,
      "inputs": [
        {
          "indexed": true,
          "internalType": "address",
          "name": "sender",
          "type": "address"
        },
        {
          "indexed": false,
          "internalType": "uint256",
          "name": "deposit",
          "type": "uint256"
        },
        {
          "indexed": false,
          "internalType": "uint256",
          "name": "reserve",
          "type": "uint256"
        }
      ],
      "name": "Withdrawal",
      "type": "event"
    },
    {
      "anonymous": false,
      "inputs": [
        {
          "indexed": true,
          "internalType": "address",
          "name": "reserveHolder",
          "type": "address"
        },
        {
          "indexed": false,
          "internalType": "uint256",
          "name": "amount",
          "type": "uint256"
        }
      ],
      "name": "ReserveFunded",
      "type": "event"
    },
    {
      "anonymous": false,
      "inputs": [
        {
          "indexed": true,
          "internalType": "address",
          "name": "reserveHolder",
          "type": "address"
        },
        {
          "indexed": false,
          "internalType": "address",
          "name": "claimant",
          "type": "address"
        },
        {
          "indexed": false,
          "internalType": "uint256",
          "name": "amount",
          "type": "uint256"
        }
      ],
      "name": "ReserveClaimed",
      "type": "event"
    },
    {
      "anonymous": false,
      "inputs": [
        {
          "indexed": false,
          "internalType": "address",
          "name": "controller",
          "type": "address"
        }
      ],
      "name": "SetController",
      "type": "event"
    },
    {
      "anonymous": false,
      "inputs": [
        {
          "indexed": false,
          "internalType": "string",
          "name": "param",
          "type": "string"
        }
      ],
      "name": "ParameterUpdate",
      "type": "event"
    }
  ],
  "transactionHash": "0xec26e8e9d85ba104b0bf9412adc94a19fe6c3b6044dd906c01ac1f5b940d55b8",
  "args": [
    "0x1621165617F8D4b6D8c8C03Fce246CfF00450621"
  ],
  "solcInputHash": "ebcc0ae727048c8076751259a562c240",
  "bytecode": "0x60806040523480156200001157600080fd5b506040516200316c3803806200316c83398101604081905262000034916200006d565b600080546001600160a01b0319166001600160a01b0392909216919091179055620000c2565b80516200006781620000a8565b92915050565b6000602082840312156200008057600080fd5b60006200008e84846200005a565b949350505050565b60006001600160a01b03821662000067565b620000b38162000096565b8114620000bf57600080fd5b50565b61309a80620000d26000396000f3fe6080604052600436106101355760003560e01c806381779f38116100ab578063c2c4c2c81161006f578063c2c4c2c8146102f8578063c92978081461030d578063d01b808e1461032d578063e1a589da1461034d578063ec8b3cb61461037b578063f77c47911461039b57610135565b806381779f381461026e578063856a2cf81461028e57806392eefe9b146102a3578063a69df4b5146102c3578063b03fa864146102d857610135565b8063511f4073116100fd578063511f4073146101e957806351720b41146101fc57806359a515ba146102115780635b6333eb146102315780636caa736b1461025e5780636f9c3c8f1461026657610135565b8063121cdcc21461013a57806320d3a0b4146101705780633ccfd60b146101925780633d0ddf84146101a95780634ac826da146101c9575b600080fd5b34801561014657600080fd5b5061015a61015536600461211a565b6103bd565b6040516101679190612c95565b60405180910390f35b34801561017c57600080fd5b50610185610408565b6040516101679190612ca3565b34801561019e57600080fd5b506101a761040e565b005b3480156101b557600080fd5b506101a76101c436600461224a565b610554565b3480156101d557600080fd5b506101856101e436600461215e565b610561565b6101a76101f736600461232d565b610623565b34801561020857600080fd5b50610185610752565b34801561021d57600080fd5b5061015a61022c36600461224a565b610758565b34801561023d57600080fd5b5061025161024c36600461211a565b61076d565b6040516101679190612e74565b6101a761082f565b6101a76108cf565b34801561027a57600080fd5b5061018561028936600461215e565b610930565b34801561029a57600080fd5b50610185610b57565b3480156102af57600080fd5b506101a76102be36600461211a565b610b5d565b3480156102cf57600080fd5b506101a7610bbb565b3480156102e457600080fd5b506101856102f3366004612286565b610d19565b34801561030457600080fd5b506101a7610d6b565b34801561031957600080fd5b506101a761032836600461224a565b610d91565b34801561033957600080fd5b506101a7610348366004612198565b610dbe565b34801561035957600080fd5b5061036d61036836600461211a565b610eb9565b604051610167929190612e82565b34801561038757600080fd5b506101a76103963660046122bb565b610f0b565b3480156103a757600080fd5b506103b06111bc565b6040516101679190612ce6565b60006103c7611e7e565b506001600160a01b0382166000908152600360209081526040918290208251808401909352805483526001015490820152610401816111cb565b9392505050565b60045481565b6104166111d4565b3360008181526003602052604081208054909290919061043590611278565b905060008211806104465750600081115b61046b5760405162461bcd60e51b815260040161046290612dc4565b60405180910390fd5b60408051808201909152835481526001840154602082015261048c906111cb565b6104a85760405162461bcd60e51b815260040161046290612e44565b6040805180820190915283548152600184015460208201526104c990611293565b156104e65760405162461bcd60e51b815260040161046290612e14565b600083556104f333611327565b61050c33610507848463ffffffff61134116565b611366565b336001600160a01b03167fdf273cb619d95419a9cd0ec88123a0538c85064229baa6363788f743fff90deb8383604051610547929190612ed1565b60405180910390a2505050565b61055c6113d1565b600455565b6001600160a01b038216600090815260026020526040812081610582611486565b6001600160a01b0316638a19c8bc6040518163ffffffff1660e01b815260040160206040518083038186803b1580156105ba57600080fd5b505afa1580156105ce573d6000803e3d6000fd5b505050506040513d601f19601f820116820180604052506105f29190810190612268565b60009081526002909201602090815260408084206001600160a01b0387168552909152909120549150505b92915050565b61062b6111d4565b818161063d828263ffffffff61134116565b341461065b5760405162461bcd60e51b815260040161046290612da4565b336000818152600360205260409020805486919061067f908363ffffffff61134116565b80825560408051808201909152908152600182015460208201526106a2906111cb565b156106b1576106b18184611523565b33600081815260036020526040902087906106cc838361159e565b6040805180820190915281548152600182015460208201526106ed906111cb565b156106fc576106fc8184611523565b61070534611614565b505050826001600160a01b03167f5159e237d952190e68d5215430f305831be7c9c8776d1377c76679ae4773413f836040516107419190612ca3565b60405180910390a250505050505050565b60015481565b60056020526000908152604090205460ff1681565b610775611e7e565b61077e82611278565b81526001600160a01b0382166000908152600260205260408120600101906107a4611486565b6001600160a01b0316638a19c8bc6040518163ffffffff1660e01b815260040160206040518083038186803b1580156107dc57600080fd5b505afa1580156107f0573d6000803e3d6000fd5b505050506040513d601f19601f820116820180604052506108149190810190612268565b81526020808201929092526040016000205490820152919050565b6108376111d4565b336000818152600360205260409020805434919061085b908363ffffffff61134116565b808255604080518082019091529081526001820154602082015261087e906111cb565b1561088d5761088d8184611523565b61089634611614565b826001600160a01b03167f5159e237d952190e68d5215430f305831be7c9c8776d1377c76679ae4773413f836040516105479190612ca3565b6108d76111d4565b33600081815260036020526040902034906108f2838361159e565b604080518082019091528154815260018201546020820152610913906111cb565b15610922576109228184611523565b61092b34611614565b505050565b6001600160a01b038216600090815260026020526040812081610951611486565b6001600160a01b0316638a19c8bc6040518163ffffffff1660e01b815260040160206040518083038186803b15801561098957600080fd5b505afa15801561099d573d6000803e3d6000fd5b505050506040513d601f19601f820116820180604052506109c19190810190612268565b90506109cb611693565b6001600160a01b03166308802374856040518263ffffffff1660e01b81526004016109f69190612c44565b60206040518083038186803b158015610a0e57600080fd5b505afa158015610a22573d6000803e3d6000fd5b505050506040513d601f19601f82011682018060405250610a46919081019061222c565b610a555760009250505061061d565b6000610a5f611693565b6001600160a01b0316632a4e0d556040518163ffffffff1660e01b815260040160206040518083038186803b158015610a9757600080fd5b505afa158015610aab573d6000803e3d6000fd5b505050506040513d601f19601f82011682018060405250610acf9190810190612268565b905080610ae2576000935050505061061d565b60008281526001840160205260408120548454610b049163ffffffff61134116565b600084815260028601602090815260408083206001600160a01b038b168452909152902054909150610b4c90610b40838563ffffffff6116b516565b9063ffffffff6116ea16565b979650505050505050565b60065481565b610b65611712565b600080546001600160a01b0319166001600160a01b0383161790556040517f4ff638452bbf33c012645d18ae6f05515ff5f2d1dfb0cece8cbf018c60903f7090610bb0908390612c44565b60405180910390a150565b610bc36111d4565b3360009081526003602052604090208054151580610be957506000610be733611278565b115b610c055760405162461bcd60e51b815260040161046290612dc4565b604080518082019091528154815260018201546020820152610c26906111cb565b15610c435760405162461bcd60e51b815260040161046290612d14565b6000610c4d611486565b6001600160a01b0316638a19c8bc6040518163ffffffff1660e01b815260040160206040518083038186803b158015610c8557600080fd5b505afa158015610c99573d6000803e3d6000fd5b505050506040513d601f19601f82011682018060405250610cbd9190810190612268565b9050610cd46004548261134190919063ffffffff16565b6001830181905560405133917ff7870c5b224cbc19873599e46ccfc7103934650509b1af0c3ce90138377c200491610d0d918591612ed1565b60405180910390a25050565b80516020808301516040808501516060860151608087015160a088015160c08901519451600098610d4e989097969101612b50565b604051602081830303815290604052805190602001209050919050565b610d736111d4565b33600081815260036020526040902090610d8e908290611523565b50565b610d996113d1565b60008111610db95760405162461bcd60e51b815260040161046290612e54565b600655565b610dc66111d4565b610dce611486565b6001600160a01b031663219bc76c6040518163ffffffff1660e01b815260040160206040518083038186803b158015610e0657600080fd5b505afa158015610e1a573d6000803e3d6000fd5b505050506040513d601f19601f82011682018060405250610e3e919081019061222c565b610e5a5760405162461bcd60e51b815260040161046290612e64565b60005b8351811015610eb357610eaa848281518110610e7557fe5b6020026020010151848381518110610e8957fe5b6020026020010151848481518110610e9d57fe5b602002602001015161173c565b50600101610e5d565b50505050565b610ec1611e7e565b610ec9611e7e565b6001600160a01b03831660009081526003602090815260409182902082518084019093528054835260010154908201529150610f048361076d565b9050915091565b610f136111d4565b610f1b611486565b6001600160a01b031663219bc76c6040518163ffffffff1660e01b815260040160206040518083038186803b158015610f5357600080fd5b505afa158015610f67573d6000803e3d6000fd5b505050506040513d601f19601f82011682018060405250610f8b919081019061222c565b610fa75760405162461bcd60e51b815260040161046290612e64565b6000610fb284610d19565b9050610fc0848285856117de565b6020808501516001600160a01b0316600090815260038252604090819020815180830190925280548252600181015492820192909252610fff90611293565b61101b5760405162461bcd60e51b815260040161046290612d04565b8054151580611036575060006110348660200151611278565b115b6110525760405162461bcd60e51b815260040161046290612dc4565b600082815260056020526040808220805460ff1916600117905582549087015111156110c1576110b66110a8876020015188600001516110a386600001548b604001516116ea90919063ffffffff16565b61190a565b83549063ffffffff61134116565b6000835590506110dc565b50604085015181546110d9908263ffffffff6116ea16565b82555b8015611149576110f58660000151828860c00151611ab3565b85600001516001600160a01b031686602001516001600160a01b03167f8b87351a208c06e3ceee59d80725fd77a23b4129e1b51ca231fc89b40712649c836040516111409190612ca3565b60405180910390a35b85600001516001600160a01b031686602001516001600160a01b03167fc389eb51ed006dbf2528507f010efdf5225ea596e1e1741d74f550dab1925ee7886040015189606001518a60800151898c60c001516040516111ac959493929190612edf565b60405180910390a3505050505050565b6000546001600160a01b031681565b60200151151590565b6000809054906101000a90046001600160a01b03166001600160a01b0316635c975abb6040518163ffffffff1660e01b815260040160206040518083038186803b15801561122157600080fd5b505afa158015611235573d6000803e3d6000fd5b505050506040513d601f19601f82011682018060405250611259919081019061222c565b156112765760405162461bcd60e51b815260040161046290612db4565b565b6001600160a01b031660009081526002602052604090205490565b600081602001516000148061061d575081602001516112b0611486565b6001600160a01b0316638a19c8bc6040518163ffffffff1660e01b815260040160206040518083038186803b1580156112e857600080fd5b505afa1580156112fc573d6000803e3d6000fd5b505050506040513d601f19601f820116820180604052506113209190810190612268565b1092915050565b6001600160a01b0316600090815260026020526040812055565b6000828201838110156104015760405162461bcd60e51b815260040161046290612d54565b61136e611b30565b6001600160a01b03166320283da983836040518363ffffffff1660e01b815260040161139b929190612c52565b600060405180830381600087803b1580156113b557600080fd5b505af11580156113c9573d6000803e3d6000fd5b505050505050565b6000809054906101000a90046001600160a01b03166001600160a01b0316638da5cb5b6040518163ffffffff1660e01b815260040160206040518083038186803b15801561141e57600080fd5b505afa158015611432573d6000803e3d6000fd5b505050506040513d601f19601f820116820180604052506114569190810190612140565b6001600160a01b0316336001600160a01b0316146112765760405162461bcd60e51b815260040161046290612df4565b600080546040516001600160a01b039091169063e16c7d98906114a890612c2d565b6040519081900381206001600160e01b031960e084901b1682526114ce91600401612ca3565b60206040518083038186803b1580156114e657600080fd5b505afa1580156114fa573d6000803e3d6000fd5b505050506040513d601f19601f8201168201806040525061151e9190810190612140565b905090565b604080518082019091528254815260018301546020820152611544906111cb565b6115605760405162461bcd60e51b815260040161046290612e44565b6000600183018190556040516001600160a01b038316917ffa044b7b93a40365dc68049797c2eb06918523d694e5d56e406cac3eb35578e591a25050565b6001600160a01b0382166000908152600260205260409020546115c7908263ffffffff61134116565b6001600160a01b038316600081815260026020526040908190209290925590517fb52b99b9e83551fcbd069b559cc3e823e2a1a3bad8ece46561ea77524394c85090610d0d908490612ca3565b61161c611b30565b6001600160a01b031663f6326fb3826040518263ffffffff1660e01b81526004016020604051808303818588803b15801561165657600080fd5b505af115801561166a573d6000803e3d6000fd5b50505050506040513d601f19601f8201168201806040525061168f919081019061222c565b5050565b600080546040516001600160a01b039091169063e16c7d98906114a890612c17565b60008082116116d65760405162461bcd60e51b815260040161046290612d84565b60008284816116e157fe5b04949350505050565b60008282111561170c5760405162461bcd60e51b815260040161046290612d74565b50900390565b6000546001600160a01b031633146112765760405162461bcd60e51b815260040161046290612d94565b6000606084848460405160240161175593929190612e9d565b60408051601f198184030181529181526020820180516001600160e01b03166376459e5b60e11b179052519091503090611790908390612bc9565b6000604051808303816000865af19150503d80600081146117cd576040519150601f19603f3d011682016040523d82523d6000602084013e6117d2565b606091505b50909695505050505050565b83516001600160a01b03166118055760405162461bcd60e51b815260040161046290612d44565b60208401516001600160a01b031661182f5760405162461bcd60e51b815260040161046290612e24565b61183c8460c00151611b52565b8360a00151816040516020016118529190612c38565b60405160208183030381529060405280519060200120146118855760405162461bcd60e51b815260040161046290612e04565b60008381526005602052604090205460ff16156118b45760405162461bcd60e51b815260040161046290612cf4565b6118c384602001518385611cdb565b6118df5760405162461bcd60e51b815260040161046290612dd4565b6118ee82828660600151611d23565b610eb35760405162461bcd60e51b815260040161046290612e34565b6000806119178585610930565b90506000818411611928578361192a565b815b90508015611aaa57600061193c611486565b6001600160a01b0316638a19c8bc6040518163ffffffff1660e01b815260040160206040518083038186803b15801561197457600080fd5b505afa158015611988573d6000803e3d6000fd5b505050506040513d601f19601f820116820180604052506119ac9190810190612268565b6001600160a01b03881660009081526002602090815260408083208484526001810190925290912054919250906119e9908463ffffffff61134116565b60008381526001830160209081526040808320939093556002840181528282206001600160a01b038b16835290522054611a29908463ffffffff61134116565b600083815260028301602090815260408083206001600160a01b038c1684529091529020558054611a60908463ffffffff6116ea16565b81556040516001600160a01b038916907f5c2b394723f408a40a60335e24b71829642e35f350cebe2036a96a66e895ea9890611a9f908a908790612c52565b60405180910390a250505b95945050505050565b6000611abe82611d5a565b509050611ac9611693565b6001600160a01b0316633aeb512c8585846040518463ffffffff1660e01b8152600401611af893929190612c6d565b600060405180830381600087803b158015611b1257600080fd5b505af1158015611b26573d6000803e3d6000fd5b5050505050505050565b600080546040516001600160a01b039091169063e16c7d98906114a890612c22565b600080611b5e83611d5a565b915091506000611b6c611486565b6001600160a01b0316633aa4add4846040518263ffffffff1660e01b8152600401611b979190612ca3565b60206040518083038186803b158015611baf57600080fd5b505afa158015611bc3573d6000803e3d6000fd5b505050506040513d601f19601f82011682018060405250611be79190810190612268565b905080611c065760405162461bcd60e51b815260040161046290612d64565b808214611c255760405162461bcd60e51b815260040161046290612d34565b6000611c2f611486565b6001600160a01b0316638a19c8bc6040518163ffffffff1660e01b815260040160206040518083038186803b158015611c6757600080fd5b505afa158015611c7b573d6000803e3d6000fd5b505050506040513d601f19601f82011682018060405250611c9f9190810190612268565b905080611cb76006548661134190919063ffffffff16565b11611cd45760405162461bcd60e51b815260040161046290612d24565b5050505050565b600080611cf0611cea84611d8f565b85611da2565b90506001600160a01b03811615801590611aaa5750806001600160a01b0316856001600160a01b03161495945050505050565b6000818484604051602001611d39929190612bd5565b60408051601f19818403018152919052805160209091012010949350505050565b6000808251604014611d7e5760405162461bcd60e51b815260040161046290612de4565b505060208101516040909101519091565b600081604051602001610d4e9190612bf7565b60008151604114611db55750600061061d565b60208201516040830151606084015160001a7f7fffffffffffffffffffffffffffffff5d576e7357a4501ddfe92f46681b20a0821115611dfb576000935050505061061d565b8060ff16601b14158015611e1357508060ff16601c14155b15611e24576000935050505061061d565b60018682858560405160008152602001604052604051611e479493929190612cb1565b6020604051602081039080840390855afa158015611e69573d6000803e3d6000fd5b5050604051601f190151979650505050505050565b604051806040016040528060008152602001600081525090565b803561061d81613031565b805161061d81613031565b600082601f830112611ebf57600080fd5b8135611ed2611ecd82612f4d565b612f26565b81815260209384019390925082018360005b83811015611f105781358601611efa8882612008565b8452506020928301929190910190600101611ee4565b5050505092915050565b600082601f830112611f2b57600080fd5b8135611f39611ecd82612f4d565b81815260209384019390925082018360005b83811015611f105781358601611f618882612057565b8452506020928301929190910190600101611f4b565b600082601f830112611f8857600080fd5b8135611f96611ecd82612f4d565b91508181835260208401935060208101905083856020840282011115611fbb57600080fd5b60005b83811015611f105781611fd18882611ff2565b8452506020928301929190910190600101611fbe565b805161061d81613045565b803561061d8161304e565b805161061d8161304e565b600082601f83011261201957600080fd5b8135612027611ecd82612f6e565b9150808252602083016020830185838301111561204357600080fd5b61204e838284612fd8565b50505092915050565b600060e0828403121561206957600080fd5b61207360e0612f26565b905060006120818484611e98565b825250602061209284848301611e98565b60208301525060406120a684828501611ff2565b60408301525060606120ba84828501611ff2565b60608301525060806120ce84828501611ff2565b60808301525060a06120e284828501611ff2565b60a08301525060c082013567ffffffffffffffff81111561210257600080fd5b61210e84828501612008565b60c08301525092915050565b60006020828403121561212c57600080fd5b60006121388484611e98565b949350505050565b60006020828403121561215257600080fd5b60006121388484611ea3565b6000806040838503121561217157600080fd5b600061217d8585611e98565b925050602061218e85828601611e98565b9150509250929050565b6000806000606084860312156121ad57600080fd5b833567ffffffffffffffff8111156121c457600080fd5b6121d086828701611f1a565b935050602084013567ffffffffffffffff8111156121ed57600080fd5b6121f986828701611eae565b925050604084013567ffffffffffffffff81111561221657600080fd5b61222286828701611f77565b9150509250925092565b60006020828403121561223e57600080fd5b60006121388484611fe7565b60006020828403121561225c57600080fd5b60006121388484611ff2565b60006020828403121561227a57600080fd5b60006121388484611ffd565b60006020828403121561229857600080fd5b813567ffffffffffffffff8111156122af57600080fd5b61213884828501612057565b6000806000606084860312156122d057600080fd5b833567ffffffffffffffff8111156122e757600080fd5b6122f386828701612057565b935050602084013567ffffffffffffffff81111561231057600080fd5b61231c86828701612008565b925050604061222286828701611ff2565b6000806040838503121561234057600080fd5b600061234c8585611ff2565b925050602061218e85828601611ff2565b61236681612fa8565b82525050565b61236661237882612fa8565b613010565b61236681612fb3565b61236681612fb8565b61236661239b82612fb8565b612fb8565b60006123ab82612f96565b6123b58185612f9a565b93506123c5818560208601612fe4565b6123ce81613021565b9093019392505050565b60006123e382612f96565b6123ed8185612fa3565b93506123fd818560208601612fe4565b9290920192915050565b61236681612fcd565b600061241d600e83612f9a565b6d1d1a58dad95d081a5cc81d5cd95960921b815260200192915050565b6000612447601283612f9a565b711cd95b99195c881a5cc81d5b9b1bd8dad95960721b815260200192915050565b6000612475601c83612fa3565b7f19457468657265756d205369676e6564204d6573736167653a0a3332000000008152601c0192915050565b60006124ae601883612f9a565b7f756e6c6f636b20616c726561647920696e697469617465640000000000000000815260200192915050565b60006124e7601183612f9a565b701d1a58dad95d081a5cc8195e1c1a5c9959607a1b815260200192915050565b6000612514600e83612fa3565b6d2137b73234b733a6b0b730b3b2b960911b8152600e0192915050565b600061253e603783612f9a565b7f7469636b6574206372656174696f6e526f756e64426c6f636b4861736820696e81527f76616c696420666f72206372656174696f6e526f756e64000000000000000000602082015260400192915050565b600061259d602083612f9a565b7f7469636b657420726563697069656e74206973206e756c6c2061646472657373815260200192915050565b60006125d6601b83612f9a565b7f536166654d6174683a206164646974696f6e206f766572666c6f770000000000815260200192915050565b600061260f602f83612f9a565b7f7469636b6574206372656174696f6e526f756e6420646f6573206e6f7420686181526e0ecca40c240c4d8dec6d640d0c2e6d608b1b602082015260400192915050565b6000612660601e83612f9a565b7f536166654d6174683a207375627472616374696f6e206f766572666c6f770000815260200192915050565b6000612699601a83612f9a565b7f536166654d6174683a206469766973696f6e206279207a65726f000000000000815260200192915050565b60006126d2601983612f9a565b7f63616c6c6572206d75737420626520436f6e74726f6c6c657200000000000000815260200192915050565b600061270b600683612fa3565b6526b4b73a32b960d11b815260060192915050565b600061272d604183612f9a565b7f6d73672e76616c756520646f6573206e6f7420657175616c2073756d206f662081527f6465706f73697420616d6f756e7420616e64207265736572766520616d6f756e6020820152601d60fa1b604082015260600192915050565b6000612796601083612f9a565b6f1cde5cdd195b481a5cc81c185d5cd95960821b815260200192915050565b60006127c2602383612f9a565b7f73656e646572206465706f73697420616e64207265736572766520617265207a81526265726f60e81b602082015260400192915050565b6000612807602283612f9a565b7f696e76616c6964207369676e6174757265206f766572207469636b65742068618152610e6d60f31b602082015260400192915050565b600061284b603383612f9a565b7f696e76616c6964206c656e67746820666f72207469636b657420617578446174815272613a206d75737420626520363420627974657360681b602082015260400192915050565b60006128a0601f83612f9a565b7f63616c6c6572206d75737420626520436f6e74726f6c6c6572206f776e657200815260200192915050565b60006128d9602e83612f9a565b7f726563697069656e7452616e6420646f6573206e6f74206d617463682072656381526d0d2e0d2cadce8a4c2dcc890c2e6d60931b602082015260400192915050565b6000612929601183612f9a565b701858d8dbdd5b9d081a5cc81b1bd8dad959607a1b815260200192915050565b6000612956601d83612f9a565b7f7469636b65742073656e646572206973206e756c6c2061646472657373000000815260200192915050565b600061298f601283612f9a565b713a34b1b5b2ba103234b2103737ba103bb4b760711b815260200192915050565b60006129bd601d83612f9a565b7f6e6f20756e6c6f636b207265717565737420696e2070726f6772657373000000815260200192915050565b60006129f6600d83612fa3565b6c2937bab73239a6b0b730b3b2b960991b8152600d0192915050565b6000612a1f602b83612f9a565b7f7469636b657456616c6964697479506572696f64206d7573742062652067726581526a061746572207468616e20360ac1b602082015260400192915050565b6000612a6c602083612f9a565b7f63757272656e7420726f756e64206973206e6f7420696e697469616c697a6564815260200192915050565b80516040830190612aa98482612386565b506020820151610eb36020850182612386565b805160009060e0840190612ad0858261235d565b506020830151612ae3602086018261235d565b506040830151612af66040860182612386565b506060830151612b096060860182612386565b506080830151612b1c6080860182612386565b5060a0830151612b2f60a0860182612386565b5060c083015184820360c0860152611aaa82826123a0565b61236681612fc7565b6000612b5c828a61236c565b601482019150612b6c828961236c565b601482019150612b7c828861238f565b602082019150612b8c828761238f565b602082019150612b9c828661238f565b602082019150612bac828561238f565b602082019150612bbc82846123d8565b9998505050505050505050565b600061040182846123d8565b6000612be182856123d8565b9150612bed828461238f565b5060200192915050565b6000612c0282612468565b9150612c0e828461238f565b50602001919050565b600061061d82612507565b600061061d826126fe565b600061061d826129e9565b6000612c0e828461238f565b6020810161061d828461235d565b60408101612c60828561235d565b6104016020830184612386565b60608101612c7b828661235d565b612c886020830185612386565b6121386040830184612386565b6020810161061d828461237d565b6020810161061d8284612386565b60808101612cbf8287612386565b612ccc6020830186612b47565b612cd96040830185612386565b611aaa6060830184612386565b6020810161061d8284612407565b6020808252810161061d81612410565b6020808252810161061d8161243a565b6020808252810161061d816124a1565b6020808252810161061d816124da565b6020808252810161061d81612531565b6020808252810161061d81612590565b6020808252810161061d816125c9565b6020808252810161061d81612602565b6020808252810161061d81612653565b6020808252810161061d8161268c565b6020808252810161061d816126c5565b6020808252810161061d81612720565b6020808252810161061d81612789565b6020808252810161061d816127b5565b6020808252810161061d816127fa565b6020808252810161061d8161283e565b6020808252810161061d81612893565b6020808252810161061d816128cc565b6020808252810161061d8161291c565b6020808252810161061d81612949565b6020808252810161061d81612982565b6020808252810161061d816129b0565b6020808252810161061d81612a12565b6020808252810161061d81612a5f565b6040810161061d8284612a98565b60808101612e908285612a98565b6104016040830184612a98565b60608082528101612eae8186612abc565b90508181036020830152612ec281856123a0565b90506121386040830184612386565b60408101612c608285612386565b60a08101612eed8288612386565b612efa6020830187612386565b612f076040830186612386565b612f146060830185612386565b8181036080830152610b4c81846123a0565b60405181810167ffffffffffffffff81118282101715612f4557600080fd5b604052919050565b600067ffffffffffffffff821115612f6457600080fd5b5060209081020190565b600067ffffffffffffffff821115612f8557600080fd5b506020601f91909101601f19160190565b5190565b90815260200190565b919050565b600061061d82612fbb565b151590565b90565b6001600160a01b031690565b60ff1690565b600061061d82612fa8565b82818337506000910152565b60005b83811015612fff578181015183820152602001612fe7565b83811115610eb35750506000910152565b600061061d82600061061d8261302b565b601f01601f191690565b60601b90565b61303a81612fa8565b8114610d8e57600080fd5b61303a81612fb3565b61303a81612fb856fea365627a7a72315820c3c4b441c27be75f8b74c144d81585e3c45eef24d76db526c51cbacbdd13d4df6c6578706572696d656e74616cf564736f6c634300050b0040",
  "devdoc": {
    "methods": {
      "batchRedeemWinningTickets((address,address,uint256,uint256,uint256,bytes32,bytes)[],bytes[],uint256[])": {
        "params": {
          "_recipientRands": "Array of preimages for the recipientRandHash included in each ticket (`_recipientRands[i]` corresponds to `_tickets[i]`)",
          "_sigs": "Array of sender signatures over the hash of tickets (`_sigs[i]` corresponds to `_tickets[i]`)",
          "_tickets": "Array of winning tickets to be redeemed in order to claim payment"
        }
      },
      "claimableReserve(address,address)": {
        "details": "Returns the amount of funds claimable by a claimant from a reserve in the current round",
        "params": {
          "_claimant": "Address of claimant",
          "_reserveHolder": "Address of reserve holder"
        },
        "return": "Amount of funds claimable by `_claimant` from the reserve for `_reserveHolder` in the current round"
      },
      "claimedReserve(address,address)": {
        "details": "Returns the amount of funds claimed by a claimant from a reserve in the current round",
        "params": {
          "_claimant": "Address of claimant",
          "_reserveHolder": "Address of reserve holder"
        },
        "return": "Amount of funds claimed by `_claimant` from the reserve for `_reserveHolder` in the current round"
      },
      "constructor": {
        "details": "This constructor will not initialize any state variables besides `controller`. The following setter functions should be used to initialize state variables post-deployment: - setUnlockPeriod() - setTicketValidityPeriod()",
        "params": {
          "_controller": "Address of Controller that this contract will be registered with"
        }
      },
      "fundDepositAndReserve(uint256,uint256)": {
        "params": {
          "_depositAmount": "Amount of ETH to add to the caller's deposit",
          "_reserveAmount": "Amount of ETH to add to the caller's reserve"
        }
      },
      "getReserveInfo(address)": {
        "details": "Returns info about a reserve",
        "params": {
          "_reserveHolder": "Address of reserve holder"
        },
        "return": "Info about the reserve for `_reserveHolder`"
      },
      "getSenderInfo(address)": {
        "params": {
          "_sender": "Address of sender"
        },
        "return": "Info about the sender for `_sender`"
      },
      "getTicketHash((address,address,uint256,uint256,uint256,bytes32,bytes))": {
        "details": "Returns the hash of a ticket",
        "params": {
          "_ticket": "Ticket to be hashed"
        },
        "return": "keccak256 hash of `_ticket`"
      },
      "isUnlockInProgress(address)": {
        "params": {
          "_sender": "Address of sender"
        },
        "return": "Boolean indicating whether `_sender` has an unlock in progress"
      },
      "redeemWinningTicket((address,address,uint256,uint256,uint256,bytes32,bytes),bytes,uint256)": {
        "params": {
          "_recipientRand": "The preimage for the recipientRandHash included in `_ticket`",
          "_sig": "Sender's signature over the hash of `_ticket`",
          "_ticket": "Winning ticket to be redeemed in order to claim payment"
        }
      },
      "setController(address)": {
        "params": {
          "_controller": "Controller contract address"
        }
      },
      "setTicketValidityPeriod(uint256)": {
        "params": {
          "_ticketValidityPeriod": "Value for ticketValidityPeriod"
        }
      },
      "setUnlockPeriod(uint256)": {
        "params": {
          "_unlockPeriod": "Value for unlockPeriod"
        }
      }
    }
  },
  "userdoc": {
    "methods": {
      "batchRedeemWinningTickets((address,address,uint256,uint256,uint256,bytes32,bytes)[],bytes[],uint256[])": {
        "notice": "Redeems multiple winning tickets. The function will redeem all of the provided tickets and handle any failures gracefully without reverting the entire function"
      },
      "cancelUnlock()": {
        "notice": "Cancels the unlock period for the caller"
      },
      "constructor": "TicketBroker constructor. Only invokes constructor of base Manager contract with provided Controller address",
      "fundDeposit()": {
        "notice": "Adds ETH to the caller's deposit"
      },
      "fundDepositAndReserve(uint256,uint256)": {
        "notice": "Adds ETH to the caller's deposit and reserve"
      },
      "fundReserve()": {
        "notice": "Adds ETH to the caller's reserve"
      },
      "getSenderInfo(address)": {
        "notice": "Returns info about a sender"
      },
      "isUnlockInProgress(address)": {
        "notice": "Returns whether a sender is currently in the unlock period"
      },
      "redeemWinningTicket((address,address,uint256,uint256,uint256,bytes32,bytes),bytes,uint256)": {
        "notice": "Redeems a winning ticket that has been signed by a sender and reveals the recipient recipientRand that corresponds to the recipientRandHash included in the ticket"
      },
      "setController(address)": {
        "notice": "Set controller. Only callable by current controller"
      },
      "setTicketValidityPeriod(uint256)": {
        "notice": "Sets ticketValidityPeriod value. Only callable by the Controller owner"
      },
      "setUnlockPeriod(uint256)": {
        "notice": "Sets unlockPeriod value. Only callable by the Controller owner"
      },
      "unlock()": {
        "notice": "Initiates the unlock period for the caller"
      },
      "withdraw()": {
        "notice": "Withdraws all ETH from the caller's deposit and reserve"
      }
    }
  }
}