{
  "address": "0x53ebC58f6D5c326fa29c6ce58B16997E7A0b95D1",
  "abi": [
    {
      "constant": false,
      "inputs": [
        {
          "internalType": "address",
          "name": "_to",
          "type": "address"
        },
        {
          "internalType": "uint256",
          "name": "_unbondingLockId",
          "type": "uint256"
        },
        {
          "internalType": "address",
          "name": "_newPosPrev",
          "type": "address"
        },
        {
          "internalType": "address",
          "name": "_newPosNext",
          "type": "address"
        }
      ],
      "name": "rebondFromUnbondedWithHint",
      "outputs": [],
      "payable": false,
      "stateMutability": "nonpayable",
      "type": "function"
    },
    {
      "constant": false,
      "inputs": [
        {
          "internalType": "address",
          "name": "_delegator",
          "type": "address"
        },
        {
          "internalType": "uint256",
          "name": "_amount",
          "type": "uint256"
        },
        {
          "internalType": "address",
          "name": "_oldDelegateNewPosPrev",
          "type": "address"
        },
        {
          "internalType": "address",
          "name": "_oldDelegateNewPosNext",
          "type": "address"
        },
        {
          "internalType": "address",
          "name": "_newDelegateNewPosPrev",
          "type": "address"
        },
        {
          "internalType": "address",
          "name": "_newDelegateNewPosNext",
          "type": "address"
        }
      ],
      "name": "transferBond",
      "outputs": [],
      "payable": false,
      "stateMutability": "nonpayable",
      "type": "function"
    },
    {
      "constant": true,
      "inputs": [
        {
          "internalType": "address",
          "name": "_transcoder",
          "type": "address"
        }
      ],
      "name": "isActiveTranscoder",
      "outputs": [
        {
          "internalType": "bool",
          "name": "",
          "type": "bool"
        }
      ],
      "payable": false,
      "stateMutability": "view",
      "type": "function"
    },
    {
      "constant": true,
      "inputs": [
        {
          "internalType": "address",
          "name": "_delegator",
          "type": "address"
        },
        {
          "internalType": "uint256",
          "name": "_unbondingLockId",
          "type": "uint256"
        }
      ],
      "name": "isValidUnbondingLock",
      "outputs": [
        {
          "internalType": "bool",
          "name": "",
          "type": "bool"
        }
      ],
      "payable": false,
      "stateMutability": "view",
      "type": "function"
    },
    {
      "constant": true,
      "inputs": [
        {
          "internalType": "address",
          "name": "_delegator",
          "type": "address"
        }
      ],
      "name": "delegatorStatus",
      "outputs": [
        {
          "internalType": "enum BondingManager.DelegatorStatus",
          "name": "",
          "type": "uint8"
        }
      ],
      "payable": false,
      "stateMutability": "view",
      "type": "function"
    },
    {
      "constant": false,
      "inputs": [],
      "name": "reward",
      "outputs": [],
      "payable": false,
      "stateMutability": "nonpayable",
      "type": "function"
    },
    {
      "constant": false,
      "inputs": [
        {
          "internalType": "address",
          "name": "_transcoder",
          "type": "address"
        },
        {
          "internalType": "address",
          "name": "_finder",
          "type": "address"
        },
        {
          "internalType": "uint256",
          "name": "_slashAmount",
          "type": "uint256"
        },
        {
          "internalType": "uint256",
          "name": "_finderFee",
          "type": "uint256"
        }
      ],
      "name": "slashTranscoder",
      "outputs": [],
      "payable": false,
      "stateMutability": "nonpayable",
      "type": "function"
    },
    {
      "constant": true,
      "inputs": [
        {
          "internalType": "address",
          "name": "_transcoder",
          "type": "address"
        }
      ],
      "name": "getNextTranscoderInPool",
      "outputs": [
        {
          "internalType": "address",
          "name": "",
          "type": "address"
        }
      ],
      "payable": false,
      "stateMutability": "view",
      "type": "function"
    },
    {
      "constant": true,
      "inputs": [
        {
          "internalType": "address",
          "name": "_transcoder",
          "type": "address"
        },
        {
          "internalType": "uint256",
          "name": "_round",
          "type": "uint256"
        }
      ],
      "name": "getTranscoderEarningsPoolForRound",
      "outputs": [
        {
          "internalType": "uint256",
          "name": "totalStake",
          "type": "uint256"
        },
        {
          "internalType": "uint256",
          "name": "transcoderRewardCut",
          "type": "uint256"
        },
        {
          "internalType": "uint256",
          "name": "transcoderFeeShare",
          "type": "uint256"
        },
        {
          "internalType": "uint256",
          "name": "cumulativeRewardFactor",
          "type": "uint256"
        },
        {
          "internalType": "uint256",
          "name": "cumulativeFeeFactor",
          "type": "uint256"
        }
      ],
      "payable": false,
      "stateMutability": "view",
      "type": "function"
    },
    {
      "constant": false,
      "inputs": [
        {
          "internalType": "uint256",
          "name": "_endRound",
          "type": "uint256"
        }
      ],
      "name": "claimEarnings",
      "outputs": [],
      "payable": false,
      "stateMutability": "nonpayable",
      "type": "function"
    },
    {
      "constant": false,
      "inputs": [
        {
          "internalType": "uint256",
          "name": "_unbondingLockId",
          "type": "uint256"
        }
      ],
      "name": "withdrawStake",
      "outputs": [],
      "payable": false,
      "stateMutability": "nonpayable",
      "type": "function"
    },
    {
      "constant": false,
      "inputs": [
        {
          "internalType": "uint256",
          "name": "_amount",
          "type": "uint256"
        }
      ],
      "name": "unbond",
      "outputs": [],
      "payable": false,
      "stateMutability": "nonpayable",
      "type": "function"
    },
    {
      "constant": true,
      "inputs": [],
      "name": "getTranscoderPoolSize",
      "outputs": [
        {
          "internalType": "uint256",
          "name": "",
          "type": "uint256"
        }
      ],
      "payable": false,
      "stateMutability": "view",
      "type": "function"
    },
    {
      "constant": false,
      "inputs": [
        {
          "internalType": "uint256",
          "name": "_rewardCut",
          "type": "uint256"
        },
        {
          "internalType": "uint256",
          "name": "_feeShare",
          "type": "uint256"
        },
        {
          "internalType": "address",
          "name": "_newPosPrev",
          "type": "address"
        },
        {
          "internalType": "address",
          "name": "_newPosNext",
          "type": "address"
        }
      ],
      "name": "transcoderWithHint",
      "outputs": [],
      "payable": false,
      "stateMutability": "nonpayable",
      "type": "function"
    },
    {
      "constant": false,
      "inputs": [
        {
          "internalType": "address",
          "name": "_to",
          "type": "address"
        },
        {
          "internalType": "uint256",
          "name": "_unbondingLockId",
          "type": "uint256"
        }
      ],
      "name": "rebondFromUnbonded",
      "outputs": [],
      "payable": false,
      "stateMutability": "nonpayable",
      "type": "function"
    },
    {
      "constant": false,
      "inputs": [
        {
          "internalType": "address",
          "name": "_transcoder",
          "type": "address"
        },
        {
          "internalType": "uint256",
          "name": "_fees",
          "type": "uint256"
        },
        {
          "internalType": "uint256",
          "name": "_round",
          "type": "uint256"
        }
      ],
      "name": "updateTranscoderWithFees",
      "outputs": [],
      "payable": false,
      "stateMutability": "nonpayable",
      "type": "function"
    },
    {
      "constant": true,
      "inputs": [
        {
          "internalType": "address",
          "name": "_delegator",
          "type": "address"
        },
        {
          "internalType": "uint256",
          "name": "_unbondingLockId",
          "type": "uint256"
        }
      ],
      "name": "getDelegatorUnbondingLock",
      "outputs": [
        {
          "internalType": "uint256",
          "name": "amount",
          "type": "uint256"
        },
        {
          "internalType": "uint256",
          "name": "withdrawRound",
          "type": "uint256"
        }
      ],
      "payable": false,
      "stateMutability": "view",
      "type": "function"
    },
    {
      "constant": true,
      "inputs": [],
      "name": "currentRoundTotalActiveStake",
      "outputs": [
        {
          "internalType": "uint256",
          "name": "",
          "type": "uint256"
        }
      ],
      "payable": false,
      "stateMutability": "view",
      "type": "function"
    },
    {
      "constant": false,
      "inputs": [
        {
          "internalType": "uint256",
          "name": "_rewardCut",
          "type": "uint256"
        },
        {
          "internalType": "uint256",
          "name": "_feeShare",
          "type": "uint256"
        }
      ],
      "name": "transcoder",
      "outputs": [],
      "payable": false,
      "stateMutability": "nonpayable",
      "type": "function"
    },
    {
      "constant": true,
      "inputs": [],
      "name": "nextRoundTotalActiveStake",
      "outputs": [
        {
          "internalType": "uint256",
          "name": "",
          "type": "uint256"
        }
      ],
      "payable": false,
      "stateMutability": "view",
      "type": "function"
    },
    {
      "constant": true,
      "inputs": [],
      "name": "targetContractId",
      "outputs": [
        {
          "internalType": "bytes32",
          "name": "",
          "type": "bytes32"
        }
      ],
      "payable": false,
      "stateMutability": "view",
      "type": "function"
    },
    {
      "constant": true,
      "inputs": [],
      "name": "getTranscoderPoolMaxSize",
      "outputs": [
        {
          "internalType": "uint256",
          "name": "",
          "type": "uint256"
        }
      ],
      "payable": false,
      "stateMutability": "view",
      "type": "function"
    },
    {
      "constant": true,
      "inputs": [],
      "name": "getTotalBonded",
      "outputs": [
        {
          "internalType": "uint256",
          "name": "",
          "type": "uint256"
        }
      ],
      "payable": false,
      "stateMutability": "view",
      "type": "function"
    },
    {
      "constant": true,
      "inputs": [
        {
          "internalType": "address",
          "name": "_transcoder",
          "type": "address"
        }
      ],
      "name": "getTranscoder",
      "outputs": [
        {
          "internalType": "uint256",
          "name": "lastRewardRound",
          "type": "uint256"
        },
        {
          "internalType": "uint256",
          "name": "rewardCut",
          "type": "uint256"
        },
        {
          "internalType": "uint256",
          "name": "feeShare",
          "type": "uint256"
        },
        {
          "internalType": "uint256",
          "name": "lastActiveStakeUpdateRound",
          "type": "uint256"
        },
        {
          "internalType": "uint256",
          "name": "activationRound",
          "type": "uint256"
        },
        {
          "internalType": "uint256",
          "name": "deactivationRound",
          "type": "uint256"
        },
        {
          "internalType": "uint256",
          "name": "activeCumulativeRewards",
          "type": "uint256"
        },
        {
          "internalType": "uint256",
          "name": "cumulativeRewards",
          "type": "uint256"
        },
        {
          "internalType": "uint256",
          "name": "cumulativeFees",
          "type": "uint256"
        },
        {
          "internalType": "uint256",
          "name": "lastFeeRound",
          "type": "uint256"
        }
      ],
      "payable": false,
      "stateMutability": "view",
      "type": "function"
    },
    {
      "constant": false,
      "inputs": [
        {
          "internalType": "uint256",
          "name": "_numActiveTranscoders",
          "type": "uint256"
        }
      ],
      "name": "setNumActiveTranscoders",
      "outputs": [],
      "payable": false,
      "stateMutability": "nonpayable",
      "type": "function"
    },
    {
      "constant": true,
      "inputs": [
        {
          "internalType": "address",
          "name": "_transcoder",
          "type": "address"
        }
      ],
      "name": "isRegisteredTranscoder",
      "outputs": [
        {
          "internalType": "bool",
          "name": "",
          "type": "bool"
        }
      ],
      "payable": false,
      "stateMutability": "view",
      "type": "function"
    },
    {
      "constant": false,
      "inputs": [
        {
          "internalType": "uint256",
          "name": "_amount",
          "type": "uint256"
        },
        {
          "internalType": "address",
          "name": "_to",
          "type": "address"
        },
        {
          "internalType": "address",
          "name": "_oldDelegateNewPosPrev",
          "type": "address"
        },
        {
          "internalType": "address",
          "name": "_oldDelegateNewPosNext",
          "type": "address"
        },
        {
          "internalType": "address",
          "name": "_currDelegateNewPosPrev",
          "type": "address"
        },
        {
          "internalType": "address",
          "name": "_currDelegateNewPosNext",
          "type": "address"
        }
      ],
      "name": "bondWithHint",
      "outputs": [],
      "payable": false,
      "stateMutability": "nonpayable",
      "type": "function"
    },
    {
      "constant": true,
      "inputs": [],
      "name": "unbondingPeriod",
      "outputs": [
        {
          "internalType": "uint64",
          "name": "",
          "type": "uint64"
        }
      ],
      "payable": false,
      "stateMutability": "view",
      "type": "function"
    },
    {
      "constant": false,
      "inputs": [],
      "name": "setCurrentRoundTotalActiveStake",
      "outputs": [],
      "payable": false,
      "stateMutability": "nonpayable",
      "type": "function"
    },
    {
      "constant": false,
      "inputs": [
        {
          "internalType": "uint256",
          "name": "_unbondingLockId",
          "type": "uint256"
        },
        {
          "internalType": "address",
          "name": "_newPosPrev",
          "type": "address"
        },
        {
          "internalType": "address",
          "name": "_newPosNext",
          "type": "address"
        }
      ],
      "name": "rebondWithHint",
      "outputs": [],
      "payable": false,
      "stateMutability": "nonpayable",
      "type": "function"
    },
    {
      "constant": false,
      "inputs": [
        {
          "internalType": "address",
          "name": "_newPosPrev",
          "type": "address"
        },
        {
          "internalType": "address",
          "name": "_newPosNext",
          "type": "address"
        }
      ],
      "name": "rewardWithHint",
      "outputs": [],
      "payable": false,
      "stateMutability": "nonpayable",
      "type": "function"
    },
    {
      "constant": true,
      "inputs": [],
      "name": "getFirstTranscoderInPool",
      "outputs": [
        {
          "internalType": "address",
          "name": "",
          "type": "address"
        }
      ],
      "payable": false,
      "stateMutability": "view",
      "type": "function"
    },
    {
      "constant": true,
      "inputs": [
        {
          "internalType": "address",
          "name": "_transcoder",
          "type": "address"
        }
      ],
      "name": "transcoderStatus",
      "outputs": [
        {
          "internalType": "enum BondingManager.TranscoderStatus",
          "name": "",
          "type": "uint8"
        }
      ],
      "payable": false,
      "stateMutability": "view",
      "type": "function"
    },
    {
      "constant": false,
      "inputs": [
        {
          "internalType": "address",
          "name": "_controller",
          "type": "address"
        }
      ],
      "name": "setController",
      "outputs": [],
      "payable": false,
      "stateMutability": "nonpayable",
      "type": "function"
    },
    {
      "constant": false,
      "inputs": [
        {
          "internalType": "uint256",
          "name": "_amount",
          "type": "uint256"
        },
        {
          "internalType": "address",
          "name": "_newPosPrev",
          "type": "address"
        },
        {
          "internalType": "address",
          "name": "_newPosNext",
          "type": "address"
        }
      ],
      "name": "unbondWithHint",
      "outputs": [],
      "payable": false,
      "stateMutability": "nonpayable",
      "type": "function"
    },
    {
      "constant": true,
      "inputs": [
        {
          "internalType": "address",
          "name": "_delegator",
          "type": "address"
        },
        {
          "internalType": "uint256",
          "name": "_endRound",
          "type": "uint256"
        }
      ],
      "name": "pendingStake",
      "outputs": [
        {
          "internalType": "uint256",
          "name": "",
          "type": "uint256"
        }
      ],
      "payable": false,
      "stateMutability": "view",
      "type": "function"
    },
    {
      "constant": true,
      "inputs": [
        {
          "internalType": "address",
          "name": "_transcoder",
          "type": "address"
        }
      ],
      "name": "transcoderTotalStake",
      "outputs": [
        {
          "internalType": "uint256",
          "name": "",
          "type": "uint256"
        }
      ],
      "payable": false,
      "stateMutability": "view",
      "type": "function"
    },
    {
      "constant": true,
      "inputs": [
        {
          "internalType": "address",
          "name": "_delegator",
          "type": "address"
        }
      ],
      "name": "getDelegator",
      "outputs": [
        {
          "internalType": "uint256",
          "name": "bondedAmount",
          "type": "uint256"
        },
        {
          "internalType": "uint256",
          "name": "fees",
          "type": "uint256"
        },
        {
          "internalType": "address",
          "name": "delegateAddress",
          "type": "address"
        },
        {
          "internalType": "uint256",
          "name": "delegatedAmount",
          "type": "uint256"
        },
        {
          "internalType": "uint256",
          "name": "startRound",
          "type": "uint256"
        },
        {
          "internalType": "uint256",
          "name": "lastClaimRound",
          "type": "uint256"
        },
        {
          "internalType": "uint256",
          "name": "nextUnbondingLockId",
          "type": "uint256"
        }
      ],
      "payable": false,
      "stateMutability": "view",
      "type": "function"
    },
    {
      "constant": false,
      "inputs": [
        {
          "internalType": "address payable",
          "name": "_recipient",
          "type": "address"
        },
        {
          "internalType": "uint256",
          "name": "_amount",
          "type": "uint256"
        }
      ],
      "name": "withdrawFees",
      "outputs": [],
      "payable": false,
      "stateMutability": "nonpayable",
      "type": "function"
    },
    {
      "constant": false,
      "inputs": [
        {
          "internalType": "uint256",
          "name": "_amount",
          "type": "uint256"
        },
        {
          "internalType": "address",
          "name": "_to",
          "type": "address"
        }
      ],
      "name": "bond",
      "outputs": [],
      "payable": false,
      "stateMutability": "nonpayable",
      "type": "function"
    },
    {
      "constant": false,
      "inputs": [
        {
          "internalType": "uint256",
          "name": "_unbondingLockId",
          "type": "uint256"
        }
      ],
      "name": "rebond",
      "outputs": [],
      "payable": false,
      "stateMutability": "nonpayable",
      "type": "function"
    },
    {
      "constant": false,
      "inputs": [
        {
          "internalType": "uint256",
          "name": "_amount",
          "type": "uint256"
        },
        {
          "internalType": "address",
          "name": "_owner",
          "type": "address"
        },
        {
          "internalType": "address",
          "name": "_to",
          "type": "address"
        },
        {
          "internalType": "address",
          "name": "_oldDelegateNewPosPrev",
          "type": "address"
        },
        {
          "internalType": "address",
          "name": "_oldDelegateNewPosNext",
          "type": "address"
        },
        {
          "internalType": "address",
          "name": "_currDelegateNewPosPrev",
          "type": "address"
        },
        {
          "internalType": "address",
          "name": "_currDelegateNewPosNext",
          "type": "address"
        }
      ],
      "name": "bondForWithHint",
      "outputs": [],
      "payable": false,
      "stateMutability": "nonpayable",
      "type": "function"
    },
    {
      "constant": false,
      "inputs": [
        {
          "internalType": "uint64",
          "name": "_unbondingPeriod",
          "type": "uint64"
        }
      ],
      "name": "setUnbondingPeriod",
      "outputs": [],
      "payable": false,
      "stateMutability": "nonpayable",
      "type": "function"
    },
    {
      "constant": true,
      "inputs": [
        {
          "internalType": "address",
          "name": "_delegator",
          "type": "address"
        },
        {
          "internalType": "uint256",
          "name": "_endRound",
          "type": "uint256"
        }
      ],
      "name": "pendingFees",
      "outputs": [
        {
          "internalType": "uint256",
          "name": "",
          "type": "uint256"
        }
      ],
      "payable": false,
      "stateMutability": "view",
      "type": "function"
    },
    {
      "constant": true,
      "inputs": [],
      "name": "controller",
      "outputs": [
        {
          "internalType": "contract IController",
          "name": "",
          "type": "address"
        }
      ],
      "payable": false,
      "stateMutability": "view",
      "type": "function"
    },
    {
      "inputs": [
        {
          "internalType": "address",
          "name": "_controller",
          "type": "address"
        }
      ],
      "payable": false,
      "stateMutability": "nonpayable",
      "type": "constructor"
    },
    {
      "anonymous": false,
      "inputs": [
        {
          "indexed": true,
          "internalType": "address",
          "name": "transcoder",
          "type": "address"
        },
        {
          "indexed": false,
          "internalType": "uint256",
          "name": "rewardCut",
          "type": "uint256"
        },
        {
          "indexed": false,
          "internalType": "uint256",
          "name": "feeShare",
          "type": "uint256"
        }
      ],
      "name": "TranscoderUpdate",
      "type": "event"
    },
    {
      "anonymous": false,
      "inputs": [
        {
          "indexed": true,
          "internalType": "address",
          "name": "transcoder",
          "type": "address"
        },
        {
          "indexed": false,
          "internalType": "uint256",
          "name": "activationRound",
          "type": "uint256"
        }
      ],
      "name": "TranscoderActivated",
      "type": "event"
    },
    {
      "anonymous": false,
      "inputs": [
        {
          "indexed": true,
          "internalType": "address",
          "name": "transcoder",
          "type": "address"
        },
        {
          "indexed": false,
          "internalType": "uint256",
          "name": "deactivationRound",
          "type": "uint256"
        }
      ],
      "name": "TranscoderDeactivated",
      "type": "event"
    },
    {
      "anonymous": false,
      "inputs": [
        {
          "indexed": true,
          "internalType": "address",
          "name": "transcoder",
          "type": "address"
        },
        {
          "indexed": false,
          "internalType": "address",
          "name": "finder",
          "type": "address"
        },
        {
          "indexed": false,
          "internalType": "uint256",
          "name": "penalty",
          "type": "uint256"
        },
        {
          "indexed": false,
          "internalType": "uint256",
          "name": "finderReward",
          "type": "uint256"
        }
      ],
      "name": "TranscoderSlashed",
      "type": "event"
    },
    {
      "anonymous": false,
      "inputs": [
        {
          "indexed": true,
          "internalType": "address",
          "name": "transcoder",
          "type": "address"
        },
        {
          "indexed": false,
          "internalType": "uint256",
          "name": "amount",
          "type": "uint256"
        }
      ],
      "name": "Reward",
      "type": "event"
    },
    {
      "anonymous": false,
      "inputs": [
        {
          "indexed": true,
          "internalType": "address",
          "name": "newDelegate",
          "type": "address"
        },
        {
          "indexed": true,
          "internalType": "address",
          "name": "oldDelegate",
          "type": "address"
        },
        {
          "indexed": true,
          "internalType": "address",
          "name": "delegator",
          "type": "address"
        },
        {
          "indexed": false,
          "internalType": "uint256",
          "name": "additionalAmount",
          "type": "uint256"
        },
        {
          "indexed": false,
          "internalType": "uint256",
          "name": "bondedAmount",
          "type": "uint256"
        }
      ],
      "name": "Bond",
      "type": "event"
    },
    {
      "anonymous": false,
      "inputs": [
        {
          "indexed": true,
          "internalType": "address",
          "name": "delegate",
          "type": "address"
        },
        {
          "indexed": true,
          "internalType": "address",
          "name": "delegator",
          "type": "address"
        },
        {
          "indexed": false,
          "internalType": "uint256",
          "name": "unbondingLockId",
          "type": "uint256"
        },
        {
          "indexed": false,
          "internalType": "uint256",
          "name": "amount",
          "type": "uint256"
        },
        {
          "indexed": false,
          "internalType": "uint256",
          "name": "withdrawRound",
          "type": "uint256"
        }
      ],
      "name": "Unbond",
      "type": "event"
    },
    {
      "anonymous": false,
      "inputs": [
        {
          "indexed": true,
          "internalType": "address",
          "name": "delegate",
          "type": "address"
        },
        {
          "indexed": true,
          "internalType": "address",
          "name": "delegator",
          "type": "address"
        },
        {
          "indexed": false,
          "internalType": "uint256",
          "name": "unbondingLockId",
          "type": "uint256"
        },
        {
          "indexed": false,
          "internalType": "uint256",
          "name": "amount",
          "type": "uint256"
        }
      ],
      "name": "Rebond",
      "type": "event"
    },
    {
      "anonymous": false,
      "inputs": [
        {
          "indexed": true,
          "internalType": "address",
          "name": "delegator",
          "type": "address"
        },
        {
          "indexed": false,
          "internalType": "uint256",
          "name": "unbondingLockId",
          "type": "uint256"
        },
        {
          "indexed": false,
          "internalType": "uint256",
          "name": "amount",
          "type": "uint256"
        },
        {
          "indexed": false,
          "internalType": "uint256",
          "name": "withdrawRound",
          "type": "uint256"
        }
      ],
      "name": "WithdrawStake",
      "type": "event"
    },
    {
      "anonymous": false,
      "inputs": [
        {
          "indexed": true,
          "internalType": "address",
          "name": "delegator",
          "type": "address"
        },
        {
          "indexed": false,
          "internalType": "address",
          "name": "recipient",
          "type": "address"
        },
        {
          "indexed": false,
          "internalType": "uint256",
          "name": "amount",
          "type": "uint256"
        }
      ],
      "name": "WithdrawFees",
      "type": "event"
    },
    {
      "anonymous": false,
      "inputs": [
        {
          "indexed": true,
          "internalType": "address",
          "name": "delegate",
          "type": "address"
        },
        {
          "indexed": true,
          "internalType": "address",
          "name": "delegator",
          "type": "address"
        },
        {
          "indexed": false,
          "internalType": "uint256",
          "name": "rewards",
          "type": "uint256"
        },
        {
          "indexed": false,
          "internalType": "uint256",
          "name": "fees",
          "type": "uint256"
        },
        {
          "indexed": false,
          "internalType": "uint256",
          "name": "startRound",
          "type": "uint256"
        },
        {
          "indexed": false,
          "internalType": "uint256",
          "name": "endRound",
          "type": "uint256"
        }
      ],
      "name": "EarningsClaimed",
      "type": "event"
    },
    {
      "anonymous": false,
      "inputs": [
        {
          "indexed": false,
          "internalType": "address",
          "name": "controller",
          "type": "address"
        }
      ],
      "name": "SetController",
      "type": "event"
    },
    {
      "anonymous": false,
      "inputs": [
        {
          "indexed": false,
          "internalType": "string",
          "name": "param",
          "type": "string"
        }
      ],
      "name": "ParameterUpdate",
      "type": "event"
    }
  ],
  "transactionHash": "0xb80a789ed26a6d3a5b10d68ffd1c6591012938f560820782ea0ca11eac138a4f",
  "args": [
    "0x9ceC649179e2C7Ab91688271bcD09fb707b3E574"
  ],
  "numDeployments": 1,
  "solcInputHash": "cd771027a406633e1258619751cc7c14",
  "bytecode": "0x608060405234801561001057600080fd5b50604051620049f1380380620049f18339818101604052602081101561003557600080fd5b5051600080546001600160a01b039092166001600160a01b031990921691909117905561498980620000686000396000f3fe608060405234801561001057600080fd5b506004361061027f5760003560e01c80635c50c3561161015c57806392eefe9b116100ce578063b78d27dc11610087578063b78d27dc14610946578063eaffb3f914610972578063ee4e804a1461098f578063f10d1de1146109e3578063f595f1cc14610a0a578063f77c479114610a365761027f565b806392eefe9b146108085780639500ed9b1461082e5780639d0b2c7a146108625780639ef9df941461088e578063a64ad595146108b4578063ad3b1b471461091a5761027f565b80636cf6d675116101205780636cf6d6751461073b578063713f2216146107605780637fc4606f14610768578063818710561461079c57806388a6c749146107ca5780638b2f1652146107d25761027f565b80635c50c3561461062c5780635dce994814610634578063673a456b146106aa57806368ba170c146106c75780636bd9add4146106ed5761027f565b806327de9e32116101f5578063412f83b6116101b9578063412f83b6146105a45780634196ee75146105e957806343d3461a146105f1578063465501d31461061457806351720b411461061c5780635a2a75a9146106245761027f565b806327de9e32146104d55780632a4e0d55146104f25780633550aa101461050c5780633a080e93146105465780633aeb512c146105725761027f565b8063228cb73311610247578063228cb733146103be57806322bf9d7c146103c6578063235c96031461040257806324454fc41461044457806324b1babf1461049b57806325d5971f146104b85761027f565b80630584a37314610284578063062e98b8146102c2578063088023741461030e5780630fd02fc1146103485780631544fc6714610374575b600080fd5b6102c06004803603608081101561029a57600080fd5b506001600160a01b03813581169160208101359160408201358116916060013516610a3e565b005b6102c0600480360360c08110156102d857600080fd5b506001600160a01b03813581169160208101359160408201358116916060810135821691608082013581169160a0013516610b82565b6103346004803603602081101561032457600080fd5b50356001600160a01b0316610cda565b604080519115158252519081900360200190f35b6103346004803603604081101561035e57600080fd5b506001600160a01b038135169060200135610d83565b61039a6004803603602081101561038a57600080fd5b50356001600160a01b0316610db6565b604051808260028111156103aa57fe5b60ff16815260200191505060405180910390f35b6102c0610e69565b6102c0600480360360808110156103dc57600080fd5b506001600160a01b03813581169160208101359091169060408101359060600135610e76565b6104286004803603602081101561041857600080fd5b50356001600160a01b031661125e565b604080516001600160a01b039092168252519081900360200190f35b6104706004803603604081101561045a57600080fd5b506001600160a01b0381351690602001356112f5565b6040805195865260208601949094528484019290925260608401526080830152519081900360a00190f35b6102c0600480360360208110156104b157600080fd5b503561133b565b6102c0600480360360208110156104ce57600080fd5b5035611356565b6102c0600480360360208110156104eb57600080fd5b5035611577565b6104fa611583565b60408051918252519081900360200190f35b6102c06004803603608081101561052257600080fd5b508035906020810135906001600160a01b0360408201358116916060013516611608565b6102c06004803603604081101561055c57600080fd5b506001600160a01b0381351690602001356119a5565b6102c06004803603606081101561058857600080fd5b506001600160a01b0381351690602081013590604001356119b6565b6105d0600480360360408110156105ba57600080fd5b506001600160a01b038135169060200135611cf6565b6040805192835260208301919091528051918290030190f35b6104fa611d2a565b6102c06004803603604081101561060757600080fd5b5080359060200135611d30565b6104fa611d3d565b6104fa611d43565b6104fa611d49565b6104fa611d9d565b61065a6004803603602081101561064a57600080fd5b50356001600160a01b0316611da3565b604080519a8b5260208b0199909952898901979097526060890195909552608088019390935260a087019190915260c086015260e085015261010084015261012083015251908190036101400190f35b6102c0600480360360208110156106c057600080fd5b5035611dfd565b610334600480360360208110156106dd57600080fd5b50356001600160a01b0316611ed1565b6102c0600480360360c081101561070357600080fd5b508035906001600160a01b03602082013581169160408101358216916060820135811691608081013582169160a09091013516611f09565b610743611f20565b6040805167ffffffffffffffff9092168252519081900360200190f35b6102c0611f30565b6102c06004803603606081101561077e57600080fd5b508035906001600160a01b0360208201358116916040013516611f40565b6102c0600480360360408110156107b257600080fd5b506001600160a01b0381358116916020013516611fca565b61042861221f565b6107f8600480360360208110156107e857600080fd5b50356001600160a01b0316612273565b604051808260018111156103aa57fe5b6102c06004803603602081101561081e57600080fd5b50356001600160a01b0316612293565b6102c06004803603606081101561084457600080fd5b508035906001600160a01b03602082013581169160400135166122ef565b6104fa6004803603604081101561087857600080fd5b506001600160a01b03813516906020013561260c565b6104fa600480360360208110156108a457600080fd5b50356001600160a01b0316612693565b6108da600480360360208110156108ca57600080fd5b50356001600160a01b03166126b2565b6040805197885260208801969096526001600160a01b03909416868601526060860192909252608085015260a084015260c0830152519081900360e00190f35b6102c06004803603604081101561093057600080fd5b506001600160a01b0381351690602001356126ff565b6102c06004803603604081101561095c57600080fd5b50803590602001356001600160a01b03166128bb565b6102c06004803603602081101561098857600080fd5b50356128cb565b6102c0600480360360e08110156109a557600080fd5b508035906001600160a01b03602082013581169160408101358216916060820135811691608081013582169160a082013581169160c00135166128d7565b6102c0600480360360208110156109f957600080fd5b503567ffffffffffffffff16612c77565b6104fa60048036036040811015610a2057600080fd5b506001600160a01b038135169060200135612cf2565b610428612d79565b610a46612d88565b610a4e612e46565b610a56612f03565b6002610a6133610db6565b6002811115610a6c57fe5b14610abe576040805162461bcd60e51b815260206004820152601760248201527f63616c6c6572206d75737420626520756e626f6e646564000000000000000000604482015290519081900360640190fd5b610b3b6001610acb612f9a565b6001600160a01b0316638a19c8bc6040518163ffffffff1660e01b815260040160206040518083038186803b158015610b0357600080fd5b505afa158015610b17573d6000803e3d6000fd5b505050506040513d6020811015610b2d57600080fd5b50519063ffffffff61301716565b3360008181526003602052604090206004810192909255600290910180546001600160a01b0319166001600160a01b038716179055610b7c90848484613071565b50505050565b610b8a612d88565b610b92612e46565b610b9a612f03565b610ba58585856122ef565b336000908152600360205260408082206001600160a01b0389168352908220600682015491929091610bde90600163ffffffff61318b16565b905060008360070160008381526020019081526020016000206001015490508360070160008381526020019081526020016000206000808201600090556001820160009055505060008360060154905060405180604001604052808b8152602001838152508460070160008381526020019081526020016000206000820151816000015560208201518160010155905050610c876001856006015461301790919063ffffffff16565b5060028401546001600160a01b0316610cc15760028086015490850180546001600160a01b0319166001600160a01b039092169190911790555b610ccd8b828989613071565b5050505050505050505050565b6001600160a01b038116600090815260046020526040812081610cfb612f9a565b6001600160a01b0316638a19c8bc6040518163ffffffff1660e01b815260040160206040518083038186803b158015610d3357600080fd5b505afa158015610d47573d6000803e3d6000fd5b505050506040513d6020811015610d5d57600080fd5b505160058301549091508110801590610d795750816006015481105b925050505b919050565b6001600160a01b038216600090815260036020908152604080832084845260070190915290206001015415155b92915050565b6001600160a01b03811660009081526003602052604081208054610dde576002915050610d7e565b610de6612f9a565b6001600160a01b0316638a19c8bc6040518163ffffffff1660e01b815260040160206040518083038186803b158015610e1e57600080fd5b505afa158015610e32573d6000803e3d6000fd5b505050506040513d6020811015610e4857600080fd5b505160048201541115610e5f576000915050610d7e565b6001915050610d7e565b610e74600080611fca565b565b610e7e612d88565b610e866131e8565b6001600160a01b0384166000908152600360205260409020805415611208576001600160a01b038516600090815260036020526040812054610ec890856132d3565b6040805163b0138c4760e01b8152600760048201526001600160a01b03891660248201529051919250738b2cd2D3363ED88701AFe2b31a30f6F6E4AA2C839163b0138c4791604480820192602092909190829003018186803b158015610f2d57600080fd5b505af4158015610f41573d6000803e3d6000fd5b505050506040513d6020811015610f5757600080fd5b505115610f6757610f67866132f8565b8154610f79908263ffffffff61318b16565b82556001610f8687610db6565b6002811115610f9157fe5b1415610fea5760028201546001600160a01b031660009081526003602081905260409091200154610fc8908263ffffffff61318b16565b60028301546001600160a01b0316600090815260036020819052604090912001555b806001600160a01b0386161561114f57600061100683866132d3565b90506110106133fb565b6001600160a01b031663e7a49c2b88836040518363ffffffff1660e01b815260040180836001600160a01b03166001600160a01b0316815260200182815260200192505050600060405180830381600087803b15801561106f57600080fd5b505af1158015611083573d6000803e3d6000fd5b5050505061108f6133fb565b6001600160a01b031663c7ee98c26110ad848463ffffffff61318b16565b6040518263ffffffff1660e01b815260040180828152602001915050600060405180830381600087803b1580156110e357600080fd5b505af11580156110f7573d6000803e3d6000fd5b5050604080516001600160a01b038b81168252602082018890528183018690529151918c1693507ff4b71fed8e2c9a8c67c388bc6d35ad20b9368a24eed6d565459f2b277b6c0c22925081900360600190a250611201565b6111576133fb565b6001600160a01b031663c7ee98c2826040518263ffffffff1660e01b815260040180828152602001915050600060405180830381600087803b15801561119c57600080fd5b505af11580156111b0573d6000803e3d6000fd5b5050604080516000808252602082018790528183015290516001600160a01b038b1693507ff4b71fed8e2c9a8c67c388bc6d35ad20b9368a24eed6d565459f2b277b6c0c2292509081900360600190a25b5050611257565b604080516001600160a01b038681168252600060208301819052828401529151918716917ff4b71fed8e2c9a8c67c388bc6d35ad20b9368a24eed6d565459f2b277b6c0c229181900360600190a25b5050505050565b6040805163e189dedb60e01b8152600760048201526001600160a01b03831660248201529051600091738b2cd2D3363ED88701AFe2b31a30f6F6E4AA2C839163e189dedb91604480820192602092909190829003018186803b1580156112c357600080fd5b505af41580156112d7573d6000803e3d6000fd5b505050506040513d60208110156112ed57600080fd5b505192915050565b6001600160a01b03909116600090815260046020818152604080842094845260039485019091529091208054600182015460028301549483015492909301549094929392565b611343612d88565b61134b612e46565b611353612f03565b50565b61135e612d88565b611366612e46565b3360008181526003602090815260408083208584526007810190925290912090916113919084610d83565b6113de576040805162461bcd60e51b81526020600482015260196024820152781a5b9d985b1a59081d5b989bdb991a5b99c81b1bd8dac81251603a1b604482015290519081900360640190fd5b6113e6612f9a565b6001600160a01b0316638a19c8bc6040518163ffffffff1660e01b815260040160206040518083038186803b15801561141e57600080fd5b505afa158015611432573d6000803e3d6000fd5b505050506040513d602081101561144857600080fd5b50516001820154111561148c5760405162461bcd60e51b815260040180806020018281038252603b815260200180614883603b913960400191505060405180910390fd5b805460018083015460008681526007860160205260408120818155909201919091556114b66133fb565b6001600160a01b031663e7a49c2b33846040518363ffffffff1660e01b815260040180836001600160a01b03166001600160a01b0316815260200182815260200192505050600060405180830381600087803b15801561151557600080fd5b505af1158015611529573d6000803e3d6000fd5b5050604080518881526020810186905280820185905290513393507f1340f1a8f3d456a649e1a12071dfa15655e3d09252131d0f980c3b405cc8dd2e92509081900360600190a25050505050565b611353816000806122ef565b60006007738b2cd2D3363ED88701AFe2b31a30f6F6E4AA2C8363b32ece5890916040518263ffffffff1660e01b81526004018082815260200191505060206040518083038186803b1580156115d757600080fd5b505af41580156115eb573d6000803e3d6000fd5b505050506040513d602081101561160157600080fd5b5051905090565b611610612d88565b611618612e46565b611620612f9a565b6001600160a01b0316636841f2536040518163ffffffff1660e01b815260040160206040518083038186803b15801561165857600080fd5b505afa15801561166c573d6000803e3d6000fd5b505050506040513d602081101561168257600080fd5b5051156116c05760405162461bcd60e51b815260040180806020018281038252603781526020018061491e6037913960400191505060405180910390fd5b6116c98461345d565b61171a576040805162461bcd60e51b815260206004820152601c60248201527f696e76616c6964207265776172644375742070657263656e7461676500000000604482015290519081900360640190fd5b6117238361345d565b611774576040805162461bcd60e51b815260206004820152601b60248201527f696e76616c69642066656553686172652070657263656e746167650000000000604482015290519081900360640190fd5b61177d33611ed1565b6117ce576040805162461bcd60e51b815260206004820152601d60248201527f7472616e73636f646572206d7573742062652072656769737465726564000000604482015290519081900360640190fd5b336000908152600460205260408120906117e6612f9a565b6001600160a01b0316638a19c8bc6040518163ffffffff1660e01b815260040160206040518083038186803b15801561181e57600080fd5b505afa158015611832573d6000803e3d6000fd5b505050506040513d602081101561184857600080fd5b5051905061185533610cda565b15806118615750815481145b61189c5760405162461bcd60e51b815260040180806020018281038252604f815260200180614791604f913960600191505060405180910390fd5b60018201869055600282018590556040805163b0138c4760e01b8152600760048201523360248201529051738b2cd2D3363ED88701AFe2b31a30f6F6E4AA2C839163b0138c47916044808301926020929190829003018186803b15801561190257600080fd5b505af4158015611916573d6000803e3d6000fd5b505050506040513d602081101561192c57600080fd5b5051611963573360008181526003602081905260409091200154611963919061195c84600163ffffffff61301716565b8787613466565b6040805187815260208101879052815133927f7346854431dbb3eb8e373c604abf89e90f4865b8447e1e2834d7b3e4677bf544928290030190a2505050505050565b6119b28282600080610a3e565b5050565b6119be612d88565b6119c66137b6565b6119cf83611ed1565b611a20576040805162461bcd60e51b815260206004820152601d60248201527f7472616e73636f646572206d7573742062652072656769737465726564000000604482015290519081900360640190fd5b6000611a2a612f9a565b6001600160a01b0316638a19c8bc6040518163ffffffff1660e01b815260040160206040518083038186803b158015611a6257600080fd5b505afa158015611a76573d6000803e3d6000fd5b505050506040513d6020811015611a8c57600080fd5b50516001600160a01b03851660009081526004602090815260408083208054600782015486865260038301909452919093209394509192611acb61473d565b611ae585611ae088600163ffffffff61318b16565b6138a5565b905083861115611b425760018501546002860154611b0a91849163ffffffff61392016565b600485015486811015611b39576000818152600387016020526040902054611b3990849063ffffffff61393016565b85600801549350505b81546060820151158015611b5557508685145b15611c6e576000611b646133fb565b90506000611c1c611c13836001600160a01b0316632de22cdb6040518163ffffffff1660e01b815260040160206040518083038186803b158015611ba757600080fd5b505afa158015611bbb573d6000803e3d6000fd5b505050506040513d6020811015611bd157600080fd5b505160408051634d73184d60e11b815290516001600160a01b03871691639ae6309a916004808301926020929190829003018186803b158015610b0357600080fd5b84600554613934565b90506000611c2e8287600101546132d3565b90506000611c42838363ffffffff61318b16565b6003880154909150611c649086611c5f848263ffffffff61301716565b613934565b6060870152505050505b6000611c7e8a85600201546132d3565b90506000611c928b8363ffffffff61318b16565b90506000611ca1838886613934565b9050611cca82611cbe838c6009015461301790919063ffffffff16565b9063ffffffff61301716565b60098a0155611ce086868563ffffffff61396816565b50505050600a9094019490945550505050505050565b6001600160a01b03919091166000908152600360209081526040808320938352600790930190522080546001909101549091565b60055481565b6119b28282600080611608565b60065481565b60015481565b60006007738b2cd2D3363ED88701AFe2b31a30f6F6E4AA2C8363735bc2ca90916040518263ffffffff1660e01b81526004018082815260200191505060206040518083038186803b1580156115d757600080fd5b60055490565b6001600160a01b031660009081526004602081905260409091208054600182015460028301549383015460058401546006850154600786015460088701546009880154600a90980154969995989794969395929491939092565b611e056139f9565b6040805163a176adaf60e01b815260076004820152602481018390529051738b2cd2D3363ED88701AFe2b31a30f6F6E4AA2C839163a176adaf916044808301926000929190829003018186803b158015611e5e57600080fd5b505af4158015611e72573d6000803e3d6000fd5b5050604080516020808252601490820152736e756d4163746976655472616e73636f6465727360601b8183015290517f9f5033568d78ae30f29f01e944f97b2216493bd19d1b46d429673acff3dcd6749350908190036060019150a150565b6001600160a01b0380821660008181526003602052604081206002810154919390929116148015611f025750805415155b9392505050565b611f18863387878787876128d7565b505050505050565b60025467ffffffffffffffff1681565b611f38613ace565b600654600555565b611f48612d88565b611f50612e46565b611f58612f03565b6002611f6333610db6565b6002811115611f6e57fe5b1415611fb9576040805162461bcd60e51b815260206004820152601560248201527418d85b1b195c881b5d5cdd08189948189bdb991959605a1b604482015290519081900360640190fd5b611fc533848484613071565b505050565b611fd2612d88565b611fda612e46565b6000611fe4612f9a565b6001600160a01b0316638a19c8bc6040518163ffffffff1660e01b815260040160206040518083038186803b15801561201c57600080fd5b505afa158015612030573d6000803e3d6000fd5b505050506040513d602081101561204657600080fd5b5051905061205333610cda565b61208e5760405162461bcd60e51b81526004018080602001828103825260238152602001806148fb6023913960400191505060405180910390fd5b336000908152600460205260409020548114156120dc5760405162461bcd60e51b81526004018080602001828103825260368152602001806148046036913960400191505060405180910390fd5b336000908152600460209081526040808320848452600381019092529091206001820154600283015461211691839163ffffffff61392016565b60048201548381101561214557600081815260038401602052604090205461214590839063ffffffff61393016565b600061214f6133fb565b6001600160a01b0316637dbedad584600001546005546040518363ffffffff1660e01b81526004018083815260200182815260200192505050602060405180830381600087803b1580156121a257600080fd5b505af11580156121b6573d6000803e3d6000fd5b505050506040513d60208110156121cc57600080fd5b505190506121dd3382878a8a613bbe565b84845560408051828152905133917f619caafabdd75649b302ba8419e48cccf64f37f1983ac4727cfb38b57703ffc9919081900360200190a250505050505050565b60006007738b2cd2D3363ED88701AFe2b31a30f6F6E4AA2C83632ebb2fed90916040518263ffffffff1660e01b81526004018082815260200191505060206040518083038186803b1580156115d757600080fd5b600061227e82611ed1565b1561228b57506001610d7e565b506000919050565b61229b613c85565b600080546001600160a01b0383166001600160a01b0319909116811790915560408051918252517f4ff638452bbf33c012645d18ae6f05515ff5f2d1dfb0cece8cbf018c60903f709181900360200190a150565b6122f7612d88565b6122ff612e46565b612307612f03565b600161231233610db6565b600281111561231d57fe5b14612367576040805162461bcd60e51b815260206004820152601560248201527418d85b1b195c881b5d5cdd08189948189bdb991959605a1b604482015290519081900360640190fd5b336000908152600360205260409020836123b25760405162461bcd60e51b815260040180806020018281038252602481526020018061476d6024913960400191505060405180910390fd5b80548411156123f25760405162461bcd60e51b81526004018080602001828103825260248152602001806147e06024913960400191505060405180910390fd5b60028101546001600160a01b0316600061240a612f9a565b6001600160a01b0316638a19c8bc6040518163ffffffff1660e01b815260040160206040518083038186803b15801561244257600080fd5b505afa158015612456573d6000803e3d6000fd5b505050506040513d602081101561246c57600080fd5b505160025490915060009061249290839067ffffffffffffffff1663ffffffff61301716565b60068501546040805180820182528a81526020808201858152600085815260078b01909252929020905181559051600191820155919250906124db90829063ffffffff61301716565b600686015584546124f2908963ffffffff61318b16565b8086556125a9576002850180546001600160a01b031916905560006004808701919091556040805163b0138c4760e01b815260079281019290925233602483015251738b2cd2D3363ED88701AFe2b31a30f6F6E4AA2C839163b0138c47916044808301926020929190829003018186803b15801561256f57600080fd5b505af4158015612583573d6000803e3d6000fd5b505050506040513d602081101561259957600080fd5b5051156125a9576125a9336132f8565b6125b584898989613ce4565b60408051828152602081018a9052808201849052905133916001600160a01b038716917f2d5d98d189bee5496a08db2a5948cb7e5e786f09d17d0c3f228eb41776c24a069181900360600190a35050505050505050565b600080612617612f9a565b6001600160a01b0316638a19c8bc6040518163ffffffff1660e01b815260040160206040518083038186803b15801561264f57600080fd5b505afa158015612663573d6000803e3d6000fd5b505050506040513d602081101561267957600080fd5b5051905060006126898583613f8b565b5095945050505050565b6001600160a01b03166000908152600360208190526040909120015490565b6001600160a01b0390811660009081526003602081905260409091208054600182015460028301549383015460048401546005850154600690950154939792969590951694909390929091565b612707612d88565b61270f612e46565b612717612f03565b6001600160a01b038216612766576040805162461bcd60e51b81526020600482015260116024820152701a5b9d985b1a59081c9958da5c1a595b9d607a1b604482015290519081900360640190fd5b33600090815260036020526040902060010154818110156127ce576040805162461bcd60e51b815260206004820152601d60248201527f696e73756666696369656e74206665657320746f207769746864726177000000604482015290519081900360640190fd5b6127de818363ffffffff61318b16565b336000908152600360205260409020600101556127f96133fb565b6001600160a01b03166320283da984846040518363ffffffff1660e01b815260040180836001600160a01b03166001600160a01b0316815260200182815260200192505050600060405180830381600087803b15801561285857600080fd5b505af115801561286c573d6000803e3d6000fd5b5050604080516001600160a01b03871681526020810186905281513394507f4f1b51dd7a2fcb861aa2670f668be66835c4ee12b4bbbf037e4d0018f39819e493509081900390910190a2505050565b6119b28282600080600080611f09565b61135381600080611f40565b6128df612d88565b6128e7612e46565b6128ef612f03565b6001600160a01b038616600090815260036020526040812090612910612f9a565b6001600160a01b0316638a19c8bc6040518163ffffffff1660e01b815260040160206040518083038186803b15801561294857600080fd5b505afa15801561295c573d6000803e3d6000fd5b505050506040513d602081101561297257600080fd5b50516002808401549192508a916001600160a01b0316906129928b610db6565b600281111561299d57fe5b14156129be576129b483600163ffffffff61301716565b6004850155612a6d565b6001600160a01b038116158015906129e85750886001600160a01b0316816001600160a01b031614155b15612a6d576129f68a611ed1565b15612a325760405162461bcd60e51b815260040180806020018281038252603d8152602001806148be603d913960400191505060405180910390fd5b612a4383600163ffffffff61301716565b60048501558354612a5b90839063ffffffff61301716565b9150612a6d8185600001548a8a613ce4565b6001600160a01b03891660009081526004602090815260408083208684526003808201909352922090810154612ab557612aab828360000154614062565b6060015160038201555b6004810154612ad657612acc8283600a0154614062565b6080015160048201555b505060008211612b175760405162461bcd60e51b815260040180806020018281038252602881526020018061485b6028913960400191505060405180910390fd5b6002840180546001600160a01b0319166001600160a01b038b161790558354612b40908c613017565b8455612b4e8983888861409b565b8a15612c0957612b5c61433a565b6001600160a01b03166323b872dd33612b736133fb565b8e6040518463ffffffff1660e01b815260040180846001600160a01b03166001600160a01b03168152602001836001600160a01b03166001600160a01b031681526020018281526020019350505050602060405180830381600087803b158015612bdc57600080fd5b505af1158015612bf0573d6000803e3d6000fd5b505050506040513d6020811015612c0657600080fd5b50505b896001600160a01b0316816001600160a01b03168a6001600160a01b03167fe5917769f276ddca9f2ee7c6b0b33e1d1e1b61008010ce622c632dd20d168a238e8860000154604051808381526020018281526020019250505060405180910390a45050505050505050505050565b612c7f6139f9565b6002805467ffffffffffffffff191667ffffffffffffffff8316179055604080516020808252600f908201526e1d5b989bdb991a5b99d4195c9a5bd9608a1b8183015290517f9f5033568d78ae30f29f01e944f97b2216493bd19d1b46d429673acff3dcd674916060908290030190a150565b600080612cfd612f9a565b6001600160a01b0316638a19c8bc6040518163ffffffff1660e01b815260040160206040518083038186803b158015612d3557600080fd5b505afa158015612d49573d6000803e3d6000fd5b505050506040513d6020811015612d5f57600080fd5b505190506000612d6f8583613f8b565b9695505050505050565b6000546001600160a01b031681565b6000809054906101000a90046001600160a01b03166001600160a01b0316635c975abb6040518163ffffffff1660e01b815260040160206040518083038186803b158015612dd557600080fd5b505afa158015612de9573d6000803e3d6000fd5b505050506040513d6020811015612dff57600080fd5b505115610e74576040805162461bcd60e51b815260206004820152601060248201526f1cde5cdd195b481a5cc81c185d5cd95960821b604482015290519081900360640190fd5b612e4e612f9a565b6001600160a01b031663219bc76c6040518163ffffffff1660e01b815260040160206040518083038186803b158015612e8657600080fd5b505afa158015612e9a573d6000803e3d6000fd5b505050506040513d6020811015612eb057600080fd5b5051610e74576040805162461bcd60e51b815260206004820181905260248201527f63757272656e7420726f756e64206973206e6f7420696e697469616c697a6564604482015290519081900360640190fd5b6000612f0d612f9a565b6001600160a01b0316638a19c8bc6040518163ffffffff1660e01b815260040160206040518083038186803b158015612f4557600080fd5b505afa158015612f59573d6000803e3d6000fd5b505050506040513d6020811015612f6f57600080fd5b505133600090815260036020526040902060050154909150818110156119b2576119b23383836143a3565b60008054604080516c2937bab73239a6b0b730b3b2b960991b8152815190819003600d018120631c2d8fb360e31b8252600482015290516001600160a01b039092169163e16c7d9891602480820192602092909190829003018186803b15801561300357600080fd5b505afa1580156115eb573d6000803e3d6000fd5b600082820183811015611f02576040805162461bcd60e51b815260206004820152601b60248201527f536166654d6174683a206164646974696f6e206f766572666c6f770000000000604482015290519081900360640190fd5b6001600160a01b0384166000908152600360209081526040808320868452600781019092529091206130a38686610d83565b6130f0576040805162461bcd60e51b81526020600482015260196024820152781a5b9d985b1a59081d5b989bdb991a5b99c81b1bd8dac81251603a1b604482015290519081900360640190fd5b80548254613104908263ffffffff61301716565b835560008681526007840160205260408120818155600101556002830154613137906001600160a01b031682878761409b565b6002830154604080518881526020810184905281516001600160a01b03808c169416927f9f5b64cc71e1e26ff178caaa7877a04d8ce66fde989251870e80e6fbee690c17928290030190a350505050505050565b6000828211156131e2576040805162461bcd60e51b815260206004820152601e60248201527f536166654d6174683a207375627472616374696f6e206f766572666c6f770000604482015290519081900360640190fd5b50900390565b60005460408051672b32b934b334b2b960c11b81528151908190036008018120631c2d8fb360e31b8252600482015290516001600160a01b039092169163e16c7d9891602480820192602092909190829003018186803b15801561324b57600080fd5b505afa15801561325f573d6000803e3d6000fd5b505050506040513d602081101561327557600080fd5b50516001600160a01b03163314610e74576040805162461bcd60e51b815260206004820152601760248201527f63616c6c6572206d757374206265205665726966696572000000000000000000604482015290519081900360640190fd5b6000611f02620f42406132ec858563ffffffff61454116565b9063ffffffff61459a16565b60408051635d35e00760e01b8152600760048201526001600160a01b03831660248201529051738b2cd2D3363ED88701AFe2b31a30f6F6E4AA2C8391635d35e007916044808301926000929190829003018186803b15801561335957600080fd5b505af415801561336d573d6000803e3d6000fd5b5050505061338c61337d82612693565b6006549063ffffffff61318b16565b600655600061339e6001610acb612f9a565b6001600160a01b0383166000818152600460209081526040918290206006018490558151848152915193945091927ffee3e693fc72d0a0a673805f3e606c551f4c677b9072444b90dd2d0406bc995c929181900390910190a25050565b60008054604080516526b4b73a32b960d11b81528151908190036006018120631c2d8fb360e31b8252600482015290516001600160a01b039092169163e16c7d9891602480820192602092909190829003018186803b15801561300357600080fd5b620f4240101590565b600654604080516304aa129960e41b8152600760048201529051738b2cd2D3363ED88701AFe2b31a30f6F6E4AA2C8391634aa12990916024808301926020929190829003018186803b1580156134bb57600080fd5b505af41580156134cf573d6000803e3d6000fd5b505050506040513d60208110156134e557600080fd5b5051156136755760006007738b2cd2D3363ED88701AFe2b31a30f6F6E4AA2C836372e40b2690916040518263ffffffff1660e01b81526004018082815260200191505060206040518083038186803b15801561354057600080fd5b505af4158015613554573d6000803e3d6000fd5b505050506040513d602081101561356a57600080fd5b50519050600061357982612693565b905080871161358a57505050611257565b60408051635d35e00760e01b8152600760048201526001600160a01b03841660248201529051738b2cd2D3363ED88701AFe2b31a30f6F6E4AA2C8391635d35e007916044808301926000929190829003018186803b1580156135eb57600080fd5b505af41580156135ff573d6000803e3d6000fd5b5050506001600160a01b038316600090815260046020526040902060060187905550613631838263ffffffff61318b16565b6040805188815290519194506001600160a01b038416917ffee3e693fc72d0a0a673805f3e606c551f4c677b9072444b90dd2d0406bc995c9181900360200190a250505b604080516327dd54d360e11b8152600760048201526001600160a01b038089166024830152604482018890528086166064830152841660848201529051738b2cd2D3363ED88701AFe2b31a30f6F6E4AA2C8391634fbaa9a69160a4808301926000929190829003018186803b1580156136ed57600080fd5b505af4158015613701573d6000803e3d6000fd5b50505050613718858261301790919063ffffffff16565b6001600160a01b03871660009081526004602081815260408084209283018990556005830189905560001960068401558884526003830190915290912091925090613769908763ffffffff61393016565b60068290556040805186815290516001600160a01b038916917f65d72d782835d64c3287844a829608d5abdc7e864cc9affe96d910ab3db665e9919081900360200190a250505050505050565b600054604080516b2a34b1b5b2ba213937b5b2b960a11b8152815190819003600c018120631c2d8fb360e31b8252600482015290516001600160a01b039092169163e16c7d9891602480820192602092909190829003018186803b15801561381d57600080fd5b505afa158015613831573d6000803e3d6000fd5b505050506040513d602081101561384757600080fd5b50516001600160a01b03163314610e74576040805162461bcd60e51b815260206004820152601b60248201527f63616c6c6572206d757374206265205469636b657442726f6b65720000000000604482015290519081900360640190fd5b6138ad61473d565b6138b78383614062565b83546060820151919250901580156138ce57508281105b156138e8576138dd8482614062565b606090810151908301525b600a84015460808301511580156138fe57508381105b156139185761390d8582614062565b608090810151908401525b505092915050565b6001830191909155600290910155565b9055565b60006139606b033b2e3c9fd0803ce80000006132ec6139538686614604565b879063ffffffff61454116565b949350505050565b6080820151606083015160009061398957613984600180614604565b61398f565b83606001515b90508460040154600014156139ca576139bd6139b082858860000154613934565b839063ffffffff61301716565b600486015550611fc59050565b6139ed6139dc82858860000154613934565b60048701549063ffffffff61301716565b60048601555050505050565b6000809054906101000a90046001600160a01b03166001600160a01b0316638da5cb5b6040518163ffffffff1660e01b815260040160206040518083038186803b158015613a4657600080fd5b505afa158015613a5a573d6000803e3d6000fd5b505050506040513d6020811015613a7057600080fd5b50516001600160a01b03163314610e74576040805162461bcd60e51b815260206004820152601f60248201527f63616c6c6572206d75737420626520436f6e74726f6c6c6572206f776e657200604482015290519081900360640190fd5b600054604080516c2937bab73239a6b0b730b3b2b960991b8152815190819003600d018120631c2d8fb360e31b8252600482015290516001600160a01b039092169163e16c7d9891602480820192602092909190829003018186803b158015613b3657600080fd5b505afa158015613b4a573d6000803e3d6000fd5b505050506040513d6020811015613b6057600080fd5b50516001600160a01b03163314610e74576040805162461bcd60e51b815260206004820152601c60248201527f63616c6c6572206d75737420626520526f756e64734d616e6167657200000000604482015290519081900360640190fd5b6001600160a01b038516600090815260046020908152604080832086845260038101909252909120613bee61473d565b613bfc838460000154614062565b9050826008015483600701819055506000613c1b8884600101546132d3565b90506000613c2f898363ffffffff61318b16565b90506000613c468287600701548760000154613934565b9050613c6383611cbe83896008015461301790919063ffffffff16565b6008870155613c7985858463ffffffff61462616565b610ccd8b8b8a8a61409b565b6000546001600160a01b03163314610e74576040805162461bcd60e51b815260206004820152601960248201527f63616c6c6572206d75737420626520436f6e74726f6c6c657200000000000000604482015290519081900360640190fd5b6040805163b0138c4760e01b8152600760048201526001600160a01b03861660248201529051738b2cd2D3363ED88701AFe2b31a30f6F6E4AA2C839163b0138c47916044808301926020929190829003018186803b158015613d4557600080fd5b505af4158015613d59573d6000803e3d6000fd5b505050506040513d6020811015613d6f57600080fd5b505115613f38576000613d8185612693565b90506000613d95828663ffffffff61318b16565b90506000613da1612f9a565b6001600160a01b0316638a19c8bc6040518163ffffffff1660e01b815260040160206040518083038186803b158015613dd957600080fd5b505afa158015613ded573d6000803e3d6000fd5b505050506040513d6020811015613e0357600080fd5b505190506000613e1a82600163ffffffff61301716565b60408051631c11bf7f60e11b8152600760048201526001600160a01b03808c16602483015260448201879052808a166064830152881660848201529051919250738b2cd2D3363ED88701AFe2b31a30f6F6E4AA2C83916338237efe9160a480820192600092909190829003018186803b158015613e9657600080fd5b505af4158015613eaa573d6000803e3d6000fd5b5050600654613ec2925090508863ffffffff61318b16565b6006556001600160a01b038816600090815260046020819052604090912090810154831115613f0b5760008381526003820160205260409020613f0b908663ffffffff61393016565b6004810182905560008281526003820160205260409020613f32908563ffffffff61393016565b50505050505b6001600160a01b03841660009081526003602081905260409091200154613f65908463ffffffff61318b16565b6001600160a01b0390941660009081526003602081905260409091200193909355505050565b6001600160a01b03808316600090815260036020908152604080832060028101549094168352600490915281206001808401548454600586015490959194919392613fdc919063ffffffff61301716565b60028401549091506001600160a01b03908116908816811487831161401e576140188461401085600163ffffffff61318b16565b8a8a8a61467a565b90975095505b801561405657600884015461403a90889063ffffffff61301716565b965061405384600901548761301790919063ffffffff16565b95505b50505050509250929050565b61406a61473d565b6000828152600393840160208181526040832095860154606085015293909152909152600490910154608082015290565b6140a484611ed1565b1561430d5760006140b485612693565b905060006140c8828663ffffffff61301716565b905060006140d4612f9a565b6001600160a01b0316638a19c8bc6040518163ffffffff1660e01b815260040160206040518083038186803b15801561410c57600080fd5b505afa158015614120573d6000803e3d6000fd5b505050506040513d602081101561413657600080fd5b50519050600061414d82600163ffffffff61301716565b6040805163b0138c4760e01b8152600760048201526001600160a01b038b1660248201529051919250738b2cd2D3363ED88701AFe2b31a30f6F6E4AA2C839163b0138c4791604480820192602092909190829003018186803b1580156141b257600080fd5b505af41580156141c6573d6000803e3d6000fd5b505050506040513d60208110156141dc57600080fd5b5051156142fb5760408051631c11bf7f60e11b8152600760048201526001600160a01b03808b166024830152604482018690528089166064830152871660848201529051738b2cd2D3363ED88701AFe2b31a30f6F6E4AA2C83916338237efe9160a4808301926000929190829003018186803b15801561425b57600080fd5b505af415801561426f573d6000803e3d6000fd5b5050600654614287925090508863ffffffff61301716565b6006556001600160a01b0388166000908152600460208190526040909120908101548311156142d057600083815260038201602052604090206142d0908663ffffffff61393016565b600082815260038201602052604090206142f0908563ffffffff61393016565b600401819055614308565b6143088884838989613466565b505050505b6001600160a01b03841660009081526003602081905260409091200154613f65908463ffffffff61301716565b60008054604080516c2634bb32b832b2b92a37b5b2b760991b8152815190819003600d018120631c2d8fb360e31b8252600482015290516001600160a01b039092169163e16c7d9891602480820192602092909190829003018186803b15801561300357600080fd5b6001600160a01b0383166000908152600360205260408120906143cd83600163ffffffff61301716565b82546001840154600285015492935090916001600160a01b0316156144a7576143f68787613f8b565b60028601546001600160a01b031660009081526004602090815260408083208b84526003808201909352922090810154939550919350916144515781548881101561444f576144458382614062565b6060015160038301555b505b600481015461447d57600a8201548881101561447b576144718382614062565b6080015160048301555b505b60028601546001600160a01b038a8116911614156144a45760006009830181905560088301555b50505b600284015484546001600160a01b03808a169216907fd7eab0765b772ea6ea859d5633baf737502198012e930f257f90013d9b211094906144ef90869063ffffffff61318b16565b600188015461450590869063ffffffff61318b16565b604080519283526020830191909152818101889052606082018b9052519081900360800190a36005840195909555825550600101919091555050565b60008261455057506000610db0565b8282028284828161455d57fe5b0414611f025760405162461bcd60e51b815260040180806020018281038252602181526020018061483a6021913960400191505060405180910390fd5b60008082116145f0576040805162461bcd60e51b815260206004820152601a60248201527f536166654d6174683a206469766973696f6e206279207a65726f000000000000604482015290519081900360640190fd5b60008284816145fb57fe5b04949350505050565b6000611f02826132ec856b033b2e3c9fd0803ce800000063ffffffff61454116565b600082606001516000141561464557614640600180614604565b61464b565b82606001515b905061466c61465f82848760000154613934565b829063ffffffff61301716565b846003018190555050505050565b60008061468561473d565b61468f8888614062565b90508060600151600014156146af576146a9600180614604565b60608201525b6146b761473d565b6146c189886138a5565b90508060600151600014156146e1576146db600180614604565b60608201525b61471a61470d876147038560800151856080015161318b90919063ffffffff16565b8560600151613934565b869063ffffffff61301716565b925061472f8682606001518460600151613934565b935050509550959350505050565b6040518060a001604052806000815260200160008152602001600081526020016000815260200160008152509056fe756e626f6e6420616d6f756e74206d7573742062652067726561746572207468616e203063616c6c65722063616e277420626520616374697665206f72206d757374206861766520616c72656164792063616c6c65642072657761726420666f72207468652063757272656e7420726f756e64616d6f756e742069732067726561746572207468616e20626f6e64656420616d6f756e7463616c6c65722068617320616c72656164792063616c6c65642072657761726420666f72207468652063757272656e7420726f756e64536166654d6174683a206d756c7469706c69636174696f6e206f766572666c6f7764656c65676174696f6e20616d6f756e74206d7573742062652067726561746572207468616e2030776974686472617720726f756e64206d757374206265206265666f7265206f7220657175616c20746f207468652063757272656e7420726f756e6472656769737465726564207472616e73636f646572732063616e27742064656c656761746520746f7761726473206f746865722061646472657373657363616c6c6572206d75737420626520616e20616374697665207472616e73636f64657263616e277420757064617465207472616e73636f64657220706172616d732c2063757272656e7420726f756e64206973206c6f636b6564a265627a7a723158209f1c6f0a8c2b37ee97b60d069cd24e5746ceb03d21596cc6f20964b814173f2764736f6c634300050b0032",
  "deployedBytecode": "0x608060405234801561001057600080fd5b506004361061027f5760003560e01c80635c50c3561161015c57806392eefe9b116100ce578063b78d27dc11610087578063b78d27dc14610946578063eaffb3f914610972578063ee4e804a1461098f578063f10d1de1146109e3578063f595f1cc14610a0a578063f77c479114610a365761027f565b806392eefe9b146108085780639500ed9b1461082e5780639d0b2c7a146108625780639ef9df941461088e578063a64ad595146108b4578063ad3b1b471461091a5761027f565b80636cf6d675116101205780636cf6d6751461073b578063713f2216146107605780637fc4606f14610768578063818710561461079c57806388a6c749146107ca5780638b2f1652146107d25761027f565b80635c50c3561461062c5780635dce994814610634578063673a456b146106aa57806368ba170c146106c75780636bd9add4146106ed5761027f565b806327de9e32116101f5578063412f83b6116101b9578063412f83b6146105a45780634196ee75146105e957806343d3461a146105f1578063465501d31461061457806351720b411461061c5780635a2a75a9146106245761027f565b806327de9e32146104d55780632a4e0d55146104f25780633550aa101461050c5780633a080e93146105465780633aeb512c146105725761027f565b8063228cb73311610247578063228cb733146103be57806322bf9d7c146103c6578063235c96031461040257806324454fc41461044457806324b1babf1461049b57806325d5971f146104b85761027f565b80630584a37314610284578063062e98b8146102c2578063088023741461030e5780630fd02fc1146103485780631544fc6714610374575b600080fd5b6102c06004803603608081101561029a57600080fd5b506001600160a01b03813581169160208101359160408201358116916060013516610a3e565b005b6102c0600480360360c08110156102d857600080fd5b506001600160a01b03813581169160208101359160408201358116916060810135821691608082013581169160a0013516610b82565b6103346004803603602081101561032457600080fd5b50356001600160a01b0316610cda565b604080519115158252519081900360200190f35b6103346004803603604081101561035e57600080fd5b506001600160a01b038135169060200135610d83565b61039a6004803603602081101561038a57600080fd5b50356001600160a01b0316610db6565b604051808260028111156103aa57fe5b60ff16815260200191505060405180910390f35b6102c0610e69565b6102c0600480360360808110156103dc57600080fd5b506001600160a01b03813581169160208101359091169060408101359060600135610e76565b6104286004803603602081101561041857600080fd5b50356001600160a01b031661125e565b604080516001600160a01b039092168252519081900360200190f35b6104706004803603604081101561045a57600080fd5b506001600160a01b0381351690602001356112f5565b6040805195865260208601949094528484019290925260608401526080830152519081900360a00190f35b6102c0600480360360208110156104b157600080fd5b503561133b565b6102c0600480360360208110156104ce57600080fd5b5035611356565b6102c0600480360360208110156104eb57600080fd5b5035611577565b6104fa611583565b60408051918252519081900360200190f35b6102c06004803603608081101561052257600080fd5b508035906020810135906001600160a01b0360408201358116916060013516611608565b6102c06004803603604081101561055c57600080fd5b506001600160a01b0381351690602001356119a5565b6102c06004803603606081101561058857600080fd5b506001600160a01b0381351690602081013590604001356119b6565b6105d0600480360360408110156105ba57600080fd5b506001600160a01b038135169060200135611cf6565b6040805192835260208301919091528051918290030190f35b6104fa611d2a565b6102c06004803603604081101561060757600080fd5b5080359060200135611d30565b6104fa611d3d565b6104fa611d43565b6104fa611d49565b6104fa611d9d565b61065a6004803603602081101561064a57600080fd5b50356001600160a01b0316611da3565b604080519a8b5260208b0199909952898901979097526060890195909552608088019390935260a087019190915260c086015260e085015261010084015261012083015251908190036101400190f35b6102c0600480360360208110156106c057600080fd5b5035611dfd565b610334600480360360208110156106dd57600080fd5b50356001600160a01b0316611ed1565b6102c0600480360360c081101561070357600080fd5b508035906001600160a01b03602082013581169160408101358216916060820135811691608081013582169160a09091013516611f09565b610743611f20565b6040805167ffffffffffffffff9092168252519081900360200190f35b6102c0611f30565b6102c06004803603606081101561077e57600080fd5b508035906001600160a01b0360208201358116916040013516611f40565b6102c0600480360360408110156107b257600080fd5b506001600160a01b0381358116916020013516611fca565b61042861221f565b6107f8600480360360208110156107e857600080fd5b50356001600160a01b0316612273565b604051808260018111156103aa57fe5b6102c06004803603602081101561081e57600080fd5b50356001600160a01b0316612293565b6102c06004803603606081101561084457600080fd5b508035906001600160a01b03602082013581169160400135166122ef565b6104fa6004803603604081101561087857600080fd5b506001600160a01b03813516906020013561260c565b6104fa600480360360208110156108a457600080fd5b50356001600160a01b0316612693565b6108da600480360360208110156108ca57600080fd5b50356001600160a01b03166126b2565b6040805197885260208801969096526001600160a01b03909416868601526060860192909252608085015260a084015260c0830152519081900360e00190f35b6102c06004803603604081101561093057600080fd5b506001600160a01b0381351690602001356126ff565b6102c06004803603604081101561095c57600080fd5b50803590602001356001600160a01b03166128bb565b6102c06004803603602081101561098857600080fd5b50356128cb565b6102c0600480360360e08110156109a557600080fd5b508035906001600160a01b03602082013581169160408101358216916060820135811691608081013582169160a082013581169160c00135166128d7565b6102c0600480360360208110156109f957600080fd5b503567ffffffffffffffff16612c77565b6104fa60048036036040811015610a2057600080fd5b506001600160a01b038135169060200135612cf2565b610428612d79565b610a46612d88565b610a4e612e46565b610a56612f03565b6002610a6133610db6565b6002811115610a6c57fe5b14610abe576040805162461bcd60e51b815260206004820152601760248201527f63616c6c6572206d75737420626520756e626f6e646564000000000000000000604482015290519081900360640190fd5b610b3b6001610acb612f9a565b6001600160a01b0316638a19c8bc6040518163ffffffff1660e01b815260040160206040518083038186803b158015610b0357600080fd5b505afa158015610b17573d6000803e3d6000fd5b505050506040513d6020811015610b2d57600080fd5b50519063ffffffff61301716565b3360008181526003602052604090206004810192909255600290910180546001600160a01b0319166001600160a01b038716179055610b7c90848484613071565b50505050565b610b8a612d88565b610b92612e46565b610b9a612f03565b610ba58585856122ef565b336000908152600360205260408082206001600160a01b0389168352908220600682015491929091610bde90600163ffffffff61318b16565b905060008360070160008381526020019081526020016000206001015490508360070160008381526020019081526020016000206000808201600090556001820160009055505060008360060154905060405180604001604052808b8152602001838152508460070160008381526020019081526020016000206000820151816000015560208201518160010155905050610c876001856006015461301790919063ffffffff16565b5060028401546001600160a01b0316610cc15760028086015490850180546001600160a01b0319166001600160a01b039092169190911790555b610ccd8b828989613071565b5050505050505050505050565b6001600160a01b038116600090815260046020526040812081610cfb612f9a565b6001600160a01b0316638a19c8bc6040518163ffffffff1660e01b815260040160206040518083038186803b158015610d3357600080fd5b505afa158015610d47573d6000803e3d6000fd5b505050506040513d6020811015610d5d57600080fd5b505160058301549091508110801590610d795750816006015481105b925050505b919050565b6001600160a01b038216600090815260036020908152604080832084845260070190915290206001015415155b92915050565b6001600160a01b03811660009081526003602052604081208054610dde576002915050610d7e565b610de6612f9a565b6001600160a01b0316638a19c8bc6040518163ffffffff1660e01b815260040160206040518083038186803b158015610e1e57600080fd5b505afa158015610e32573d6000803e3d6000fd5b505050506040513d6020811015610e4857600080fd5b505160048201541115610e5f576000915050610d7e565b6001915050610d7e565b610e74600080611fca565b565b610e7e612d88565b610e866131e8565b6001600160a01b0384166000908152600360205260409020805415611208576001600160a01b038516600090815260036020526040812054610ec890856132d3565b6040805163b0138c4760e01b8152600760048201526001600160a01b0389166024820152905191925073__$d23c89be677d40ab24c636937040b6165f$__9163b0138c4791604480820192602092909190829003018186803b158015610f2d57600080fd5b505af4158015610f41573d6000803e3d6000fd5b505050506040513d6020811015610f5757600080fd5b505115610f6757610f67866132f8565b8154610f79908263ffffffff61318b16565b82556001610f8687610db6565b6002811115610f9157fe5b1415610fea5760028201546001600160a01b031660009081526003602081905260409091200154610fc8908263ffffffff61318b16565b60028301546001600160a01b0316600090815260036020819052604090912001555b806001600160a01b0386161561114f57600061100683866132d3565b90506110106133fb565b6001600160a01b031663e7a49c2b88836040518363ffffffff1660e01b815260040180836001600160a01b03166001600160a01b0316815260200182815260200192505050600060405180830381600087803b15801561106f57600080fd5b505af1158015611083573d6000803e3d6000fd5b5050505061108f6133fb565b6001600160a01b031663c7ee98c26110ad848463ffffffff61318b16565b6040518263ffffffff1660e01b815260040180828152602001915050600060405180830381600087803b1580156110e357600080fd5b505af11580156110f7573d6000803e3d6000fd5b5050604080516001600160a01b038b81168252602082018890528183018690529151918c1693507ff4b71fed8e2c9a8c67c388bc6d35ad20b9368a24eed6d565459f2b277b6c0c22925081900360600190a250611201565b6111576133fb565b6001600160a01b031663c7ee98c2826040518263ffffffff1660e01b815260040180828152602001915050600060405180830381600087803b15801561119c57600080fd5b505af11580156111b0573d6000803e3d6000fd5b5050604080516000808252602082018790528183015290516001600160a01b038b1693507ff4b71fed8e2c9a8c67c388bc6d35ad20b9368a24eed6d565459f2b277b6c0c2292509081900360600190a25b5050611257565b604080516001600160a01b038681168252600060208301819052828401529151918716917ff4b71fed8e2c9a8c67c388bc6d35ad20b9368a24eed6d565459f2b277b6c0c229181900360600190a25b5050505050565b6040805163e189dedb60e01b8152600760048201526001600160a01b0383166024820152905160009173__$d23c89be677d40ab24c636937040b6165f$__9163e189dedb91604480820192602092909190829003018186803b1580156112c357600080fd5b505af41580156112d7573d6000803e3d6000fd5b505050506040513d60208110156112ed57600080fd5b505192915050565b6001600160a01b03909116600090815260046020818152604080842094845260039485019091529091208054600182015460028301549483015492909301549094929392565b611343612d88565b61134b612e46565b611353612f03565b50565b61135e612d88565b611366612e46565b3360008181526003602090815260408083208584526007810190925290912090916113919084610d83565b6113de576040805162461bcd60e51b81526020600482015260196024820152781a5b9d985b1a59081d5b989bdb991a5b99c81b1bd8dac81251603a1b604482015290519081900360640190fd5b6113e6612f9a565b6001600160a01b0316638a19c8bc6040518163ffffffff1660e01b815260040160206040518083038186803b15801561141e57600080fd5b505afa158015611432573d6000803e3d6000fd5b505050506040513d602081101561144857600080fd5b50516001820154111561148c5760405162461bcd60e51b815260040180806020018281038252603b815260200180614883603b913960400191505060405180910390fd5b805460018083015460008681526007860160205260408120818155909201919091556114b66133fb565b6001600160a01b031663e7a49c2b33846040518363ffffffff1660e01b815260040180836001600160a01b03166001600160a01b0316815260200182815260200192505050600060405180830381600087803b15801561151557600080fd5b505af1158015611529573d6000803e3d6000fd5b5050604080518881526020810186905280820185905290513393507f1340f1a8f3d456a649e1a12071dfa15655e3d09252131d0f980c3b405cc8dd2e92509081900360600190a25050505050565b611353816000806122ef565b6000600773__$d23c89be677d40ab24c636937040b6165f$__63b32ece5890916040518263ffffffff1660e01b81526004018082815260200191505060206040518083038186803b1580156115d757600080fd5b505af41580156115eb573d6000803e3d6000fd5b505050506040513d602081101561160157600080fd5b5051905090565b611610612d88565b611618612e46565b611620612f9a565b6001600160a01b0316636841f2536040518163ffffffff1660e01b815260040160206040518083038186803b15801561165857600080fd5b505afa15801561166c573d6000803e3d6000fd5b505050506040513d602081101561168257600080fd5b5051156116c05760405162461bcd60e51b815260040180806020018281038252603781526020018061491e6037913960400191505060405180910390fd5b6116c98461345d565b61171a576040805162461bcd60e51b815260206004820152601c60248201527f696e76616c6964207265776172644375742070657263656e7461676500000000604482015290519081900360640190fd5b6117238361345d565b611774576040805162461bcd60e51b815260206004820152601b60248201527f696e76616c69642066656553686172652070657263656e746167650000000000604482015290519081900360640190fd5b61177d33611ed1565b6117ce576040805162461bcd60e51b815260206004820152601d60248201527f7472616e73636f646572206d7573742062652072656769737465726564000000604482015290519081900360640190fd5b336000908152600460205260408120906117e6612f9a565b6001600160a01b0316638a19c8bc6040518163ffffffff1660e01b815260040160206040518083038186803b15801561181e57600080fd5b505afa158015611832573d6000803e3d6000fd5b505050506040513d602081101561184857600080fd5b5051905061185533610cda565b15806118615750815481145b61189c5760405162461bcd60e51b815260040180806020018281038252604f815260200180614791604f913960600191505060405180910390fd5b60018201869055600282018590556040805163b0138c4760e01b815260076004820152336024820152905173__$d23c89be677d40ab24c636937040b6165f$__9163b0138c47916044808301926020929190829003018186803b15801561190257600080fd5b505af4158015611916573d6000803e3d6000fd5b505050506040513d602081101561192c57600080fd5b5051611963573360008181526003602081905260409091200154611963919061195c84600163ffffffff61301716565b8787613466565b6040805187815260208101879052815133927f7346854431dbb3eb8e373c604abf89e90f4865b8447e1e2834d7b3e4677bf544928290030190a2505050505050565b6119b28282600080610a3e565b5050565b6119be612d88565b6119c66137b6565b6119cf83611ed1565b611a20576040805162461bcd60e51b815260206004820152601d60248201527f7472616e73636f646572206d7573742062652072656769737465726564000000604482015290519081900360640190fd5b6000611a2a612f9a565b6001600160a01b0316638a19c8bc6040518163ffffffff1660e01b815260040160206040518083038186803b158015611a6257600080fd5b505afa158015611a76573d6000803e3d6000fd5b505050506040513d6020811015611a8c57600080fd5b50516001600160a01b03851660009081526004602090815260408083208054600782015486865260038301909452919093209394509192611acb61473d565b611ae585611ae088600163ffffffff61318b16565b6138a5565b905083861115611b425760018501546002860154611b0a91849163ffffffff61392016565b600485015486811015611b39576000818152600387016020526040902054611b3990849063ffffffff61393016565b85600801549350505b81546060820151158015611b5557508685145b15611c6e576000611b646133fb565b90506000611c1c611c13836001600160a01b0316632de22cdb6040518163ffffffff1660e01b815260040160206040518083038186803b158015611ba757600080fd5b505afa158015611bbb573d6000803e3d6000fd5b505050506040513d6020811015611bd157600080fd5b505160408051634d73184d60e11b815290516001600160a01b03871691639ae6309a916004808301926020929190829003018186803b158015610b0357600080fd5b84600554613934565b90506000611c2e8287600101546132d3565b90506000611c42838363ffffffff61318b16565b6003880154909150611c649086611c5f848263ffffffff61301716565b613934565b6060870152505050505b6000611c7e8a85600201546132d3565b90506000611c928b8363ffffffff61318b16565b90506000611ca1838886613934565b9050611cca82611cbe838c6009015461301790919063ffffffff16565b9063ffffffff61301716565b60098a0155611ce086868563ffffffff61396816565b50505050600a9094019490945550505050505050565b6001600160a01b03919091166000908152600360209081526040808320938352600790930190522080546001909101549091565b60055481565b6119b28282600080611608565b60065481565b60015481565b6000600773__$d23c89be677d40ab24c636937040b6165f$__63735bc2ca90916040518263ffffffff1660e01b81526004018082815260200191505060206040518083038186803b1580156115d757600080fd5b60055490565b6001600160a01b031660009081526004602081905260409091208054600182015460028301549383015460058401546006850154600786015460088701546009880154600a90980154969995989794969395929491939092565b611e056139f9565b6040805163a176adaf60e01b81526007600482015260248101839052905173__$d23c89be677d40ab24c636937040b6165f$__9163a176adaf916044808301926000929190829003018186803b158015611e5e57600080fd5b505af4158015611e72573d6000803e3d6000fd5b5050604080516020808252601490820152736e756d4163746976655472616e73636f6465727360601b8183015290517f9f5033568d78ae30f29f01e944f97b2216493bd19d1b46d429673acff3dcd6749350908190036060019150a150565b6001600160a01b0380821660008181526003602052604081206002810154919390929116148015611f025750805415155b9392505050565b611f18863387878787876128d7565b505050505050565b60025467ffffffffffffffff1681565b611f38613ace565b600654600555565b611f48612d88565b611f50612e46565b611f58612f03565b6002611f6333610db6565b6002811115611f6e57fe5b1415611fb9576040805162461bcd60e51b815260206004820152601560248201527418d85b1b195c881b5d5cdd08189948189bdb991959605a1b604482015290519081900360640190fd5b611fc533848484613071565b505050565b611fd2612d88565b611fda612e46565b6000611fe4612f9a565b6001600160a01b0316638a19c8bc6040518163ffffffff1660e01b815260040160206040518083038186803b15801561201c57600080fd5b505afa158015612030573d6000803e3d6000fd5b505050506040513d602081101561204657600080fd5b5051905061205333610cda565b61208e5760405162461bcd60e51b81526004018080602001828103825260238152602001806148fb6023913960400191505060405180910390fd5b336000908152600460205260409020548114156120dc5760405162461bcd60e51b81526004018080602001828103825260368152602001806148046036913960400191505060405180910390fd5b336000908152600460209081526040808320848452600381019092529091206001820154600283015461211691839163ffffffff61392016565b60048201548381101561214557600081815260038401602052604090205461214590839063ffffffff61393016565b600061214f6133fb565b6001600160a01b0316637dbedad584600001546005546040518363ffffffff1660e01b81526004018083815260200182815260200192505050602060405180830381600087803b1580156121a257600080fd5b505af11580156121b6573d6000803e3d6000fd5b505050506040513d60208110156121cc57600080fd5b505190506121dd3382878a8a613bbe565b84845560408051828152905133917f619caafabdd75649b302ba8419e48cccf64f37f1983ac4727cfb38b57703ffc9919081900360200190a250505050505050565b6000600773__$d23c89be677d40ab24c636937040b6165f$__632ebb2fed90916040518263ffffffff1660e01b81526004018082815260200191505060206040518083038186803b1580156115d757600080fd5b600061227e82611ed1565b1561228b57506001610d7e565b506000919050565b61229b613c85565b600080546001600160a01b0383166001600160a01b0319909116811790915560408051918252517f4ff638452bbf33c012645d18ae6f05515ff5f2d1dfb0cece8cbf018c60903f709181900360200190a150565b6122f7612d88565b6122ff612e46565b612307612f03565b600161231233610db6565b600281111561231d57fe5b14612367576040805162461bcd60e51b815260206004820152601560248201527418d85b1b195c881b5d5cdd08189948189bdb991959605a1b604482015290519081900360640190fd5b336000908152600360205260409020836123b25760405162461bcd60e51b815260040180806020018281038252602481526020018061476d6024913960400191505060405180910390fd5b80548411156123f25760405162461bcd60e51b81526004018080602001828103825260248152602001806147e06024913960400191505060405180910390fd5b60028101546001600160a01b0316600061240a612f9a565b6001600160a01b0316638a19c8bc6040518163ffffffff1660e01b815260040160206040518083038186803b15801561244257600080fd5b505afa158015612456573d6000803e3d6000fd5b505050506040513d602081101561246c57600080fd5b505160025490915060009061249290839067ffffffffffffffff1663ffffffff61301716565b60068501546040805180820182528a81526020808201858152600085815260078b01909252929020905181559051600191820155919250906124db90829063ffffffff61301716565b600686015584546124f2908963ffffffff61318b16565b8086556125a9576002850180546001600160a01b031916905560006004808701919091556040805163b0138c4760e01b81526007928101929092523360248301525173__$d23c89be677d40ab24c636937040b6165f$__9163b0138c47916044808301926020929190829003018186803b15801561256f57600080fd5b505af4158015612583573d6000803e3d6000fd5b505050506040513d602081101561259957600080fd5b5051156125a9576125a9336132f8565b6125b584898989613ce4565b60408051828152602081018a9052808201849052905133916001600160a01b038716917f2d5d98d189bee5496a08db2a5948cb7e5e786f09d17d0c3f228eb41776c24a069181900360600190a35050505050505050565b600080612617612f9a565b6001600160a01b0316638a19c8bc6040518163ffffffff1660e01b815260040160206040518083038186803b15801561264f57600080fd5b505afa158015612663573d6000803e3d6000fd5b505050506040513d602081101561267957600080fd5b5051905060006126898583613f8b565b5095945050505050565b6001600160a01b03166000908152600360208190526040909120015490565b6001600160a01b0390811660009081526003602081905260409091208054600182015460028301549383015460048401546005850154600690950154939792969590951694909390929091565b612707612d88565b61270f612e46565b612717612f03565b6001600160a01b038216612766576040805162461bcd60e51b81526020600482015260116024820152701a5b9d985b1a59081c9958da5c1a595b9d607a1b604482015290519081900360640190fd5b33600090815260036020526040902060010154818110156127ce576040805162461bcd60e51b815260206004820152601d60248201527f696e73756666696369656e74206665657320746f207769746864726177000000604482015290519081900360640190fd5b6127de818363ffffffff61318b16565b336000908152600360205260409020600101556127f96133fb565b6001600160a01b03166320283da984846040518363ffffffff1660e01b815260040180836001600160a01b03166001600160a01b0316815260200182815260200192505050600060405180830381600087803b15801561285857600080fd5b505af115801561286c573d6000803e3d6000fd5b5050604080516001600160a01b03871681526020810186905281513394507f4f1b51dd7a2fcb861aa2670f668be66835c4ee12b4bbbf037e4d0018f39819e493509081900390910190a2505050565b6119b28282600080600080611f09565b61135381600080611f40565b6128df612d88565b6128e7612e46565b6128ef612f03565b6001600160a01b038616600090815260036020526040812090612910612f9a565b6001600160a01b0316638a19c8bc6040518163ffffffff1660e01b815260040160206040518083038186803b15801561294857600080fd5b505afa15801561295c573d6000803e3d6000fd5b505050506040513d602081101561297257600080fd5b50516002808401549192508a916001600160a01b0316906129928b610db6565b600281111561299d57fe5b14156129be576129b483600163ffffffff61301716565b6004850155612a6d565b6001600160a01b038116158015906129e85750886001600160a01b0316816001600160a01b031614155b15612a6d576129f68a611ed1565b15612a325760405162461bcd60e51b815260040180806020018281038252603d8152602001806148be603d913960400191505060405180910390fd5b612a4383600163ffffffff61301716565b60048501558354612a5b90839063ffffffff61301716565b9150612a6d8185600001548a8a613ce4565b6001600160a01b03891660009081526004602090815260408083208684526003808201909352922090810154612ab557612aab828360000154614062565b6060015160038201555b6004810154612ad657612acc8283600a0154614062565b6080015160048201555b505060008211612b175760405162461bcd60e51b815260040180806020018281038252602881526020018061485b6028913960400191505060405180910390fd5b6002840180546001600160a01b0319166001600160a01b038b161790558354612b40908c613017565b8455612b4e8983888861409b565b8a15612c0957612b5c61433a565b6001600160a01b03166323b872dd33612b736133fb565b8e6040518463ffffffff1660e01b815260040180846001600160a01b03166001600160a01b03168152602001836001600160a01b03166001600160a01b031681526020018281526020019350505050602060405180830381600087803b158015612bdc57600080fd5b505af1158015612bf0573d6000803e3d6000fd5b505050506040513d6020811015612c0657600080fd5b50505b896001600160a01b0316816001600160a01b03168a6001600160a01b03167fe5917769f276ddca9f2ee7c6b0b33e1d1e1b61008010ce622c632dd20d168a238e8860000154604051808381526020018281526020019250505060405180910390a45050505050505050505050565b612c7f6139f9565b6002805467ffffffffffffffff191667ffffffffffffffff8316179055604080516020808252600f908201526e1d5b989bdb991a5b99d4195c9a5bd9608a1b8183015290517f9f5033568d78ae30f29f01e944f97b2216493bd19d1b46d429673acff3dcd674916060908290030190a150565b600080612cfd612f9a565b6001600160a01b0316638a19c8bc6040518163ffffffff1660e01b815260040160206040518083038186803b158015612d3557600080fd5b505afa158015612d49573d6000803e3d6000fd5b505050506040513d6020811015612d5f57600080fd5b505190506000612d6f8583613f8b565b9695505050505050565b6000546001600160a01b031681565b6000809054906101000a90046001600160a01b03166001600160a01b0316635c975abb6040518163ffffffff1660e01b815260040160206040518083038186803b158015612dd557600080fd5b505afa158015612de9573d6000803e3d6000fd5b505050506040513d6020811015612dff57600080fd5b505115610e74576040805162461bcd60e51b815260206004820152601060248201526f1cde5cdd195b481a5cc81c185d5cd95960821b604482015290519081900360640190fd5b612e4e612f9a565b6001600160a01b031663219bc76c6040518163ffffffff1660e01b815260040160206040518083038186803b158015612e8657600080fd5b505afa158015612e9a573d6000803e3d6000fd5b505050506040513d6020811015612eb057600080fd5b5051610e74576040805162461bcd60e51b815260206004820181905260248201527f63757272656e7420726f756e64206973206e6f7420696e697469616c697a6564604482015290519081900360640190fd5b6000612f0d612f9a565b6001600160a01b0316638a19c8bc6040518163ffffffff1660e01b815260040160206040518083038186803b158015612f4557600080fd5b505afa158015612f59573d6000803e3d6000fd5b505050506040513d6020811015612f6f57600080fd5b505133600090815260036020526040902060050154909150818110156119b2576119b23383836143a3565b60008054604080516c2937bab73239a6b0b730b3b2b960991b8152815190819003600d018120631c2d8fb360e31b8252600482015290516001600160a01b039092169163e16c7d9891602480820192602092909190829003018186803b15801561300357600080fd5b505afa1580156115eb573d6000803e3d6000fd5b600082820183811015611f02576040805162461bcd60e51b815260206004820152601b60248201527f536166654d6174683a206164646974696f6e206f766572666c6f770000000000604482015290519081900360640190fd5b6001600160a01b0384166000908152600360209081526040808320868452600781019092529091206130a38686610d83565b6130f0576040805162461bcd60e51b81526020600482015260196024820152781a5b9d985b1a59081d5b989bdb991a5b99c81b1bd8dac81251603a1b604482015290519081900360640190fd5b80548254613104908263ffffffff61301716565b835560008681526007840160205260408120818155600101556002830154613137906001600160a01b031682878761409b565b6002830154604080518881526020810184905281516001600160a01b03808c169416927f9f5b64cc71e1e26ff178caaa7877a04d8ce66fde989251870e80e6fbee690c17928290030190a350505050505050565b6000828211156131e2576040805162461bcd60e51b815260206004820152601e60248201527f536166654d6174683a207375627472616374696f6e206f766572666c6f770000604482015290519081900360640190fd5b50900390565b60005460408051672b32b934b334b2b960c11b81528151908190036008018120631c2d8fb360e31b8252600482015290516001600160a01b039092169163e16c7d9891602480820192602092909190829003018186803b15801561324b57600080fd5b505afa15801561325f573d6000803e3d6000fd5b505050506040513d602081101561327557600080fd5b50516001600160a01b03163314610e74576040805162461bcd60e51b815260206004820152601760248201527f63616c6c6572206d757374206265205665726966696572000000000000000000604482015290519081900360640190fd5b6000611f02620f42406132ec858563ffffffff61454116565b9063ffffffff61459a16565b60408051635d35e00760e01b8152600760048201526001600160a01b0383166024820152905173__$d23c89be677d40ab24c636937040b6165f$__91635d35e007916044808301926000929190829003018186803b15801561335957600080fd5b505af415801561336d573d6000803e3d6000fd5b5050505061338c61337d82612693565b6006549063ffffffff61318b16565b600655600061339e6001610acb612f9a565b6001600160a01b0383166000818152600460209081526040918290206006018490558151848152915193945091927ffee3e693fc72d0a0a673805f3e606c551f4c677b9072444b90dd2d0406bc995c929181900390910190a25050565b60008054604080516526b4b73a32b960d11b81528151908190036006018120631c2d8fb360e31b8252600482015290516001600160a01b039092169163e16c7d9891602480820192602092909190829003018186803b15801561300357600080fd5b620f4240101590565b600654604080516304aa129960e41b815260076004820152905173__$d23c89be677d40ab24c636937040b6165f$__91634aa12990916024808301926020929190829003018186803b1580156134bb57600080fd5b505af41580156134cf573d6000803e3d6000fd5b505050506040513d60208110156134e557600080fd5b505115613675576000600773__$d23c89be677d40ab24c636937040b6165f$__6372e40b2690916040518263ffffffff1660e01b81526004018082815260200191505060206040518083038186803b15801561354057600080fd5b505af4158015613554573d6000803e3d6000fd5b505050506040513d602081101561356a57600080fd5b50519050600061357982612693565b905080871161358a57505050611257565b60408051635d35e00760e01b8152600760048201526001600160a01b0384166024820152905173__$d23c89be677d40ab24c636937040b6165f$__91635d35e007916044808301926000929190829003018186803b1580156135eb57600080fd5b505af41580156135ff573d6000803e3d6000fd5b5050506001600160a01b038316600090815260046020526040902060060187905550613631838263ffffffff61318b16565b6040805188815290519194506001600160a01b038416917ffee3e693fc72d0a0a673805f3e606c551f4c677b9072444b90dd2d0406bc995c9181900360200190a250505b604080516327dd54d360e11b8152600760048201526001600160a01b03808916602483015260448201889052808616606483015284166084820152905173__$d23c89be677d40ab24c636937040b6165f$__91634fbaa9a69160a4808301926000929190829003018186803b1580156136ed57600080fd5b505af4158015613701573d6000803e3d6000fd5b50505050613718858261301790919063ffffffff16565b6001600160a01b03871660009081526004602081815260408084209283018990556005830189905560001960068401558884526003830190915290912091925090613769908763ffffffff61393016565b60068290556040805186815290516001600160a01b038916917f65d72d782835d64c3287844a829608d5abdc7e864cc9affe96d910ab3db665e9919081900360200190a250505050505050565b600054604080516b2a34b1b5b2ba213937b5b2b960a11b8152815190819003600c018120631c2d8fb360e31b8252600482015290516001600160a01b039092169163e16c7d9891602480820192602092909190829003018186803b15801561381d57600080fd5b505afa158015613831573d6000803e3d6000fd5b505050506040513d602081101561384757600080fd5b50516001600160a01b03163314610e74576040805162461bcd60e51b815260206004820152601b60248201527f63616c6c6572206d757374206265205469636b657442726f6b65720000000000604482015290519081900360640190fd5b6138ad61473d565b6138b78383614062565b83546060820151919250901580156138ce57508281105b156138e8576138dd8482614062565b606090810151908301525b600a84015460808301511580156138fe57508381105b156139185761390d8582614062565b608090810151908401525b505092915050565b6001830191909155600290910155565b9055565b60006139606b033b2e3c9fd0803ce80000006132ec6139538686614604565b879063ffffffff61454116565b949350505050565b6080820151606083015160009061398957613984600180614604565b61398f565b83606001515b90508460040154600014156139ca576139bd6139b082858860000154613934565b839063ffffffff61301716565b600486015550611fc59050565b6139ed6139dc82858860000154613934565b60048701549063ffffffff61301716565b60048601555050505050565b6000809054906101000a90046001600160a01b03166001600160a01b0316638da5cb5b6040518163ffffffff1660e01b815260040160206040518083038186803b158015613a4657600080fd5b505afa158015613a5a573d6000803e3d6000fd5b505050506040513d6020811015613a7057600080fd5b50516001600160a01b03163314610e74576040805162461bcd60e51b815260206004820152601f60248201527f63616c6c6572206d75737420626520436f6e74726f6c6c6572206f776e657200604482015290519081900360640190fd5b600054604080516c2937bab73239a6b0b730b3b2b960991b8152815190819003600d018120631c2d8fb360e31b8252600482015290516001600160a01b039092169163e16c7d9891602480820192602092909190829003018186803b158015613b3657600080fd5b505afa158015613b4a573d6000803e3d6000fd5b505050506040513d6020811015613b6057600080fd5b50516001600160a01b03163314610e74576040805162461bcd60e51b815260206004820152601c60248201527f63616c6c6572206d75737420626520526f756e64734d616e6167657200000000604482015290519081900360640190fd5b6001600160a01b038516600090815260046020908152604080832086845260038101909252909120613bee61473d565b613bfc838460000154614062565b9050826008015483600701819055506000613c1b8884600101546132d3565b90506000613c2f898363ffffffff61318b16565b90506000613c468287600701548760000154613934565b9050613c6383611cbe83896008015461301790919063ffffffff16565b6008870155613c7985858463ffffffff61462616565b610ccd8b8b8a8a61409b565b6000546001600160a01b03163314610e74576040805162461bcd60e51b815260206004820152601960248201527f63616c6c6572206d75737420626520436f6e74726f6c6c657200000000000000604482015290519081900360640190fd5b6040805163b0138c4760e01b8152600760048201526001600160a01b0386166024820152905173__$d23c89be677d40ab24c636937040b6165f$__9163b0138c47916044808301926020929190829003018186803b158015613d4557600080fd5b505af4158015613d59573d6000803e3d6000fd5b505050506040513d6020811015613d6f57600080fd5b505115613f38576000613d8185612693565b90506000613d95828663ffffffff61318b16565b90506000613da1612f9a565b6001600160a01b0316638a19c8bc6040518163ffffffff1660e01b815260040160206040518083038186803b158015613dd957600080fd5b505afa158015613ded573d6000803e3d6000fd5b505050506040513d6020811015613e0357600080fd5b505190506000613e1a82600163ffffffff61301716565b60408051631c11bf7f60e11b8152600760048201526001600160a01b03808c16602483015260448201879052808a16606483015288166084820152905191925073__$d23c89be677d40ab24c636937040b6165f$__916338237efe9160a480820192600092909190829003018186803b158015613e9657600080fd5b505af4158015613eaa573d6000803e3d6000fd5b5050600654613ec2925090508863ffffffff61318b16565b6006556001600160a01b038816600090815260046020819052604090912090810154831115613f0b5760008381526003820160205260409020613f0b908663ffffffff61393016565b6004810182905560008281526003820160205260409020613f32908563ffffffff61393016565b50505050505b6001600160a01b03841660009081526003602081905260409091200154613f65908463ffffffff61318b16565b6001600160a01b0390941660009081526003602081905260409091200193909355505050565b6001600160a01b03808316600090815260036020908152604080832060028101549094168352600490915281206001808401548454600586015490959194919392613fdc919063ffffffff61301716565b60028401549091506001600160a01b03908116908816811487831161401e576140188461401085600163ffffffff61318b16565b8a8a8a61467a565b90975095505b801561405657600884015461403a90889063ffffffff61301716565b965061405384600901548761301790919063ffffffff16565b95505b50505050509250929050565b61406a61473d565b6000828152600393840160208181526040832095860154606085015293909152909152600490910154608082015290565b6140a484611ed1565b1561430d5760006140b485612693565b905060006140c8828663ffffffff61301716565b905060006140d4612f9a565b6001600160a01b0316638a19c8bc6040518163ffffffff1660e01b815260040160206040518083038186803b15801561410c57600080fd5b505afa158015614120573d6000803e3d6000fd5b505050506040513d602081101561413657600080fd5b50519050600061414d82600163ffffffff61301716565b6040805163b0138c4760e01b8152600760048201526001600160a01b038b166024820152905191925073__$d23c89be677d40ab24c636937040b6165f$__9163b0138c4791604480820192602092909190829003018186803b1580156141b257600080fd5b505af41580156141c6573d6000803e3d6000fd5b505050506040513d60208110156141dc57600080fd5b5051156142fb5760408051631c11bf7f60e11b8152600760048201526001600160a01b03808b16602483015260448201869052808916606483015287166084820152905173__$d23c89be677d40ab24c636937040b6165f$__916338237efe9160a4808301926000929190829003018186803b15801561425b57600080fd5b505af415801561426f573d6000803e3d6000fd5b5050600654614287925090508863ffffffff61301716565b6006556001600160a01b0388166000908152600460208190526040909120908101548311156142d057600083815260038201602052604090206142d0908663ffffffff61393016565b600082815260038201602052604090206142f0908563ffffffff61393016565b600401819055614308565b6143088884838989613466565b505050505b6001600160a01b03841660009081526003602081905260409091200154613f65908463ffffffff61301716565b60008054604080516c2634bb32b832b2b92a37b5b2b760991b8152815190819003600d018120631c2d8fb360e31b8252600482015290516001600160a01b039092169163e16c7d9891602480820192602092909190829003018186803b15801561300357600080fd5b6001600160a01b0383166000908152600360205260408120906143cd83600163ffffffff61301716565b82546001840154600285015492935090916001600160a01b0316156144a7576143f68787613f8b565b60028601546001600160a01b031660009081526004602090815260408083208b84526003808201909352922090810154939550919350916144515781548881101561444f576144458382614062565b6060015160038301555b505b600481015461447d57600a8201548881101561447b576144718382614062565b6080015160048301555b505b60028601546001600160a01b038a8116911614156144a45760006009830181905560088301555b50505b600284015484546001600160a01b03808a169216907fd7eab0765b772ea6ea859d5633baf737502198012e930f257f90013d9b211094906144ef90869063ffffffff61318b16565b600188015461450590869063ffffffff61318b16565b604080519283526020830191909152818101889052606082018b9052519081900360800190a36005840195909555825550600101919091555050565b60008261455057506000610db0565b8282028284828161455d57fe5b0414611f025760405162461bcd60e51b815260040180806020018281038252602181526020018061483a6021913960400191505060405180910390fd5b60008082116145f0576040805162461bcd60e51b815260206004820152601a60248201527f536166654d6174683a206469766973696f6e206279207a65726f000000000000604482015290519081900360640190fd5b60008284816145fb57fe5b04949350505050565b6000611f02826132ec856b033b2e3c9fd0803ce800000063ffffffff61454116565b600082606001516000141561464557614640600180614604565b61464b565b82606001515b905061466c61465f82848760000154613934565b829063ffffffff61301716565b846003018190555050505050565b60008061468561473d565b61468f8888614062565b90508060600151600014156146af576146a9600180614604565b60608201525b6146b761473d565b6146c189886138a5565b90508060600151600014156146e1576146db600180614604565b60608201525b61471a61470d876147038560800151856080015161318b90919063ffffffff16565b8560600151613934565b869063ffffffff61301716565b925061472f8682606001518460600151613934565b935050509550959350505050565b6040518060a001604052806000815260200160008152602001600081526020016000815260200160008152509056fe756e626f6e6420616d6f756e74206d7573742062652067726561746572207468616e203063616c6c65722063616e277420626520616374697665206f72206d757374206861766520616c72656164792063616c6c65642072657761726420666f72207468652063757272656e7420726f756e64616d6f756e742069732067726561746572207468616e20626f6e64656420616d6f756e7463616c6c65722068617320616c72656164792063616c6c65642072657761726420666f72207468652063757272656e7420726f756e64536166654d6174683a206d756c7469706c69636174696f6e206f766572666c6f7764656c65676174696f6e20616d6f756e74206d7573742062652067726561746572207468616e2030776974686472617720726f756e64206d757374206265206265666f7265206f7220657175616c20746f207468652063757272656e7420726f756e6472656769737465726564207472616e73636f646572732063616e27742064656c656761746520746f7761726473206f746865722061646472657373657363616c6c6572206d75737420626520616e20616374697665207472616e73636f64657263616e277420757064617465207472616e73636f64657220706172616d732c2063757272656e7420726f756e64206973206c6f636b6564a265627a7a723158209f1c6f0a8c2b37ee97b60d069cd24e5746ceb03d21596cc6f20964b814173f2764736f6c634300050b0032",
  "libraries": {
    "SortedDoublyLL": "0x8b2cd2D3363ED88701AFe2b31a30f6F6E4AA2C83"
  },
  "devdoc": {
    "methods": {
      "bond(uint256,address)": {
        "params": {
          "_amount": "The amount of tokens to stake",
          "_to": "The address of the transcoder to stake towards"
        }
      },
      "bondForWithHint(uint256,address,address,address,address,address,address)": {
        "details": "If the caller is decreasing the stake of its old delegate in the transcoder pool, the caller can provide an optional hint for the insertion position of the old delegate via the `_oldDelegateNewPosPrev` and `_oldDelegateNewPosNext` params. If the caller is delegating to a delegate that is in the transcoder pool, the caller can provide an optional hint for the insertion position of the delegate via the `_currDelegateNewPosPrev` and `_currDelegateNewPosNext` params. In both cases, a linear search will be executed starting at the hint to find the correct position. In the best case, the hint is the correct position so no search is executed. See SortedDoublyLL.sol for details on list hints",
        "params": {
          "_amount": "The amount of tokens to stake.",
          "_currDelegateNewPosNext": "The address of the next transcoder in the pool for the current delegate",
          "_currDelegateNewPosPrev": "The address of the previous transcoder in the pool for the current delegate",
          "_oldDelegateNewPosNext": "The address of the next transcoder in the pool for the old delegate",
          "_oldDelegateNewPosPrev": "The address of the previous transcoder in the pool for the old delegate",
          "_owner": "The address of the owner of the bond",
          "_to": "The address of the transcoder to stake towards"
        }
      },
      "bondWithHint(uint256,address,address,address,address,address)": {
        "details": "If the caller is decreasing the stake of its old delegate in the transcoder pool, the caller can provide an optional hint for the insertion position of the old delegate via the `_oldDelegateNewPosPrev` and `_oldDelegateNewPosNext` params. If the caller is delegating to a delegate that is in the transcoder pool, the caller can provide an optional hint for the insertion position of the delegate via the `_currDelegateNewPosPrev` and `_currDelegateNewPosNext` params. In both cases, a linear search will be executed starting at the hint to find the correct position. In the best case, the hint is the correct position so no search is executed. See SortedDoublyLL.sol for details on list hints",
        "params": {
          "_amount": "The amount of tokens to stake.",
          "_currDelegateNewPosNext": "The address of the next transcoder in the pool for the current delegate",
          "_currDelegateNewPosPrev": "The address of the previous transcoder in the pool for the current delegate",
          "_oldDelegateNewPosNext": "The address of the next transcoder in the pool for the old delegate",
          "_oldDelegateNewPosPrev": "The address of the previous transcoder in the pool for the old delegate",
          "_to": "The address of the transcoder to stake towards"
        }
      },
      "claimEarnings(uint256)": {
        "params": {
          "_endRound": "The last round for which to claim token pools shares for a delegator"
        }
      },
      "constructor": {
        "details": "This constructor will not initialize any state variables besides `controller`. The following setter functions should be used to initialize state variables post-deployment: - setUnbondingPeriod() - setNumActiveTranscoders() - setMaxEarningsClaimsRounds()",
        "params": {
          "_controller": "Address of Controller that this contract will be registered with"
        }
      },
      "delegatorStatus(address)": {
        "params": {
          "_delegator": "Address of delegator"
        },
        "return": "bonded, unbonded or pending delegator status"
      },
      "getDelegator(address)": {
        "params": {
          "_delegator": "Address of delegator"
        },
        "return": "total amount bonded by '_delegator'amount of fees collected by '_delegator'address '_delegator' has bonded tototal amount delegated to '_delegator'round in which bond for '_delegator' became effectiveround for which '_delegator' has last claimed earningsID for the next unbonding lock created for '_delegator'"
      },
      "getDelegatorUnbondingLock(address,uint256)": {
        "params": {
          "_delegator": "Address of delegator",
          "_unbondingLockId": "ID of unbonding lock"
        },
        "return": "amount of stake locked up by unbonding lockround in which 'amount' becomes available for withdrawal"
      },
      "getFirstTranscoderInPool()": {
        "return": "address for transcoder with highest stake in transcoder pool"
      },
      "getNextTranscoderInPool(address)": {
        "params": {
          "_transcoder": "Address of a transcoder in the pool"
        },
        "return": "address for the transcoder after '_transcoder' in transcoder pool"
      },
      "getTotalBonded()": {
        "return": "total active stake for the current round"
      },
      "getTranscoder(address)": {
        "params": {
          "_transcoder": "Address of transcoder"
        },
        "return": "lastRewardRound Trancoder's last reward roundrewardCut Transcoder's reward cutfeeShare Transcoder's fee sharelastActiveStakeUpdateRound Round in which transcoder's stake was last updated while activeactivationRound Round in which transcoder became activedeactivationRound Round in which transcoder will no longer be activeactiveCumulativeRewards Transcoder's cumulative rewards that are currently activecumulativeRewards Transcoder's cumulative rewards (earned via its active staked rewards and its reward cut)cumulativeFees Transcoder's cumulative fees (earned via its active staked rewards and its fee share)lastFeeRound Latest round that the transcoder received fees"
      },
      "getTranscoderEarningsPoolForRound(address,uint256)": {
        "params": {
          "_round": "Round number",
          "_transcoder": "Address of transcoder"
        },
        "return": "totalStake Transcoder's total stake in '_round'transcoderRewardCut Transcoder's reward cut for '_round'transcoderFeeShare Transcoder's fee share for '_round'cumulativeRewardFactor The cumulative reward factor for delegator rewards calculation (only used after LIP-36)cumulativeFeeFactor The cumulative fee factor for delegator fees calculation (only used after LIP-36)"
      },
      "getTranscoderPoolMaxSize()": {
        "return": "transcoder pool max size"
      },
      "getTranscoderPoolSize()": {
        "return": "transcoder pool current size"
      },
      "isActiveTranscoder(address)": {
        "params": {
          "_transcoder": "Transcoder address"
        },
        "return": "true if transcoder is active"
      },
      "isRegisteredTranscoder(address)": {
        "params": {
          "_transcoder": "Transcoder address"
        },
        "return": "true if transcoder is self-bonded"
      },
      "isValidUnbondingLock(address,uint256)": {
        "params": {
          "_delegator": "Address of delegator",
          "_unbondingLockId": "ID of unbonding lock"
        },
        "return": "true if unbondingLock for ID has a non-zero withdraw round"
      },
      "pendingFees(address,uint256)": {
        "params": {
          "_delegator": "Address of delegator",
          "_endRound": "The last round to compute pending fees from"
        },
        "return": "Pending fees for '_delegator' since last claiming fees"
      },
      "pendingStake(address,uint256)": {
        "params": {
          "_delegator": "Address of delegator",
          "_endRound": "The last round to compute pending stake from"
        },
        "return": "Pending bonded stake for '_delegator' since last claiming rewards"
      },
      "rebond(uint256)": {
        "params": {
          "_unbondingLockId": "ID of unbonding lock to rebond with"
        }
      },
      "rebondFromUnbonded(address,uint256)": {
        "params": {
          "_to": "Address of delegate",
          "_unbondingLockId": "ID of unbonding lock to rebond with"
        }
      },
      "rebondFromUnbondedWithHint(address,uint256,address,address)": {
        "details": "If the delegate joins the transcoder pool, the caller can provide an optional hint for the delegate's insertion position in the pool via the `_newPosPrev` and `_newPosNext` params. A linear search will be executed starting at the hint to find the correct position. In the best case, the hint is the correct position so no search is executed. See SortedDoublyLL.sol for details on list hints",
        "params": {
          "_newPosNext": "Address of next transcoder in pool if the delegate joins the pool",
          "_newPosPrev": "Address of previous transcoder in pool if the delegate joins the pool",
          "_to": "Address of delegate",
          "_unbondingLockId": "ID of unbonding lock to rebond with"
        }
      },
      "rebondWithHint(uint256,address,address)": {
        "details": "If the delegate is in the transcoder pool, the caller can provide an optional hint for the delegate's insertion position in the pool via the `_newPosPrev` and `_newPosNext` params. A linear search will be executed starting at the hint to find the correct position. In the best case, the hint is the correct position so no search is executed. See SortedDoublyLL.sol details on list hints",
        "params": {
          "_newPosNext": "Address of next transcoder in pool if the delegate is in the pool",
          "_newPosPrev": "Address of previous transcoder in pool if the delegate is in the pool",
          "_unbondingLockId": "ID of unbonding lock to rebond with"
        }
      },
      "rewardWithHint(address,address)": {
        "details": "If the caller is in the transcoder pool, the caller can provide an optional hint for its insertion position in the pool via the `_newPosPrev` and `_newPosNext` params. A linear search will be executed starting at the hint to find the correct position. In the best case, the hint is the correct position so no search is executed. See SortedDoublyLL.sol for details on list hints",
        "params": {
          "_newPosNext": "Address of next transcoder in pool if the caller is in the pool",
          "_newPosPrev": "Address of previous transcoder in pool if the caller is in the pool"
        }
      },
      "setController(address)": {
        "params": {
          "_controller": "Controller contract address"
        }
      },
      "setNumActiveTranscoders(uint256)": {
        "params": {
          "_numActiveTranscoders": "Number of active transcoders"
        }
      },
      "setUnbondingPeriod(uint64)": {
        "params": {
          "_unbondingPeriod": "Rounds between unbonding and possible withdrawal"
        }
      },
      "slashTranscoder(address,address,uint256,uint256)": {
        "params": {
          "_finder": "Finder that proved a transcoder violated a slashing condition. Null address if there is no finder",
          "_finderFee": "Percentage of penalty awarded to finder. Zero if there is no finder",
          "_slashAmount": "Percentage of transcoder bond to be slashed",
          "_transcoder": "Transcoder address"
        }
      },
      "transcoder(uint256,uint256)": {
        "details": "Percentages are represented as numerators of fractions over MathUtils.PERC_DIVISOR",
        "params": {
          "_feeShare": "% of fees paid to delegators by a transcoder",
          "_rewardCut": "% of reward paid to transcoder by a delegator"
        }
      },
      "transcoderStatus(address)": {
        "params": {
          "_transcoder": "Address of transcoder"
        },
        "return": "registered or not registered transcoder status"
      },
      "transcoderTotalStake(address)": {
        "params": {
          "_transcoder": "Address of transcoder"
        },
        "return": "total bonded stake for a delegator"
      },
      "transcoderWithHint(uint256,uint256,address,address)": {
        "details": "Percentages are represented as numerators of fractions over MathUtils.PERC_DIVISOR. If the caller is going to be added to the pool, the caller can provide an optional hint for the insertion position in the pool via the `_newPosPrev` and `_newPosNext` params. A linear search will be executed starting at the hint to find the correct position - in the best case, the hint is the correct position so no search is executed. See SortedDoublyLL.sol for details on list hints",
        "params": {
          "_feeShare": "% of fees paid to delegators by a transcoder",
          "_newPosNext": "Address of next transcoder in pool if the caller joins the pool",
          "_newPosPrev": "Address of previous transcoder in pool if the caller joins the pool",
          "_rewardCut": "% of reward paid to transcoder by a delegator"
        }
      },
      "transferBond(address,uint256,address,address,address,address)": {
        "details": "If the original delegate is in the transcoder pool, the caller can provide an optional hint for the insertion position of the delegate via the `_oldDelegateNewPosPrev` and `_oldDelegateNewPosNext` params. If the target delegate is in the transcoder pool, the caller can provide an optional hint for the insertion position of the delegate via the `_newDelegateNewPosPrev` and `_newDelegateNewPosNext` params.     * In both cases, a linear search will be executed starting at the hint to find the correct position. In the best case, the hint is the correct position so no search is executed. See SortedDoublyLL.sol for details on list hints",
        "params": {
          "_amount": "Portion of the bond to transfer to receiver",
          "_delegator": "Receiver of the bond",
          "_newDelegateNewPosNext": "Address of next transcoder in pool if the delegate is in the pool",
          "_newDelegateNewPosPrev": "Address of previous transcoder in pool if the delegate is in the pool",
          "_oldDelegateNewPosNext": "Address of next transcoder in pool if the delegate remains in the pool",
          "_oldDelegateNewPosPrev": "Address of previous transcoder in pool if the delegate remains in the pool"
        }
      },
      "unbond(uint256)": {
        "params": {
          "_amount": "Amount of tokens to unbond"
        }
      },
      "unbondWithHint(uint256,address,address)": {
        "details": "If the caller remains in the transcoder pool, the caller can provide an optional hint for its insertion position in the pool via the `_newPosPrev` and `_newPosNext` params. A linear search will be executed starting at the hint to find the correct position. In the best case, the hint is the correct position so no search is executed. See SortedDoublyLL.sol details on list hints",
        "params": {
          "_amount": "Amount of tokens to unbond",
          "_newPosNext": "Address of next transcoder in pool if the caller remains in the pool",
          "_newPosPrev": "Address of previous transcoder in pool if the caller remains in the pool"
        }
      },
      "updateTranscoderWithFees(address,uint256,uint256)": {
        "params": {
          "_fees": "Fees to be added to the fee pool",
          "_transcoder": "Transcoder address"
        }
      },
      "withdrawStake(uint256)": {
        "params": {
          "_unbondingLockId": "ID of unbonding lock to withdraw with"
        }
      }
    },
    "title": "BondingManager"
  },
  "userdoc": {
    "methods": {
      "bond(uint256,address)": {
        "notice": "Delegate stake towards a specific address"
      },
      "bondForWithHint(uint256,address,address,address,address,address,address)": {
        "notice": "Delegates stake \"on behalf of\" another address towards a specific address and updates the transcoder pool using optional list hints if needed"
      },
      "bondWithHint(uint256,address,address,address,address,address)": {
        "notice": "Delegates stake towards a specific address and updates the transcoder pool using optional list hints if needed"
      },
      "claimEarnings(uint256)": {
        "notice": "Claim token pools shares for a delegator from its lastClaimRound through the end round"
      },
      "constructor": "BondingManager constructor. Only invokes constructor of base Manager contract with provided Controller address",
      "delegatorStatus(address)": {
        "notice": "Computes delegator status"
      },
      "getDelegator(address)": {
        "notice": "Return delegator info"
      },
      "getDelegatorUnbondingLock(address,uint256)": {
        "notice": "Return delegator's unbonding lock info"
      },
      "getFirstTranscoderInPool()": {
        "notice": "Returns transcoder with most stake in pool"
      },
      "getNextTranscoderInPool(address)": {
        "notice": "Returns next transcoder in pool for a given transcoder"
      },
      "getTotalBonded()": {
        "notice": "Return total bonded tokens"
      },
      "getTranscoder(address)": {
        "notice": "Return transcoder information"
      },
      "getTranscoderEarningsPoolForRound(address,uint256)": {
        "notice": "Return transcoder's earnings pool for a given round"
      },
      "getTranscoderPoolMaxSize()": {
        "notice": "Returns max size of transcoder pool"
      },
      "getTranscoderPoolSize()": {
        "notice": "Returns size of transcoder pool"
      },
      "isActiveTranscoder(address)": {
        "notice": "Return whether a transcoder is active for the current round"
      },
      "isRegisteredTranscoder(address)": {
        "notice": "Return whether a transcoder is registered"
      },
      "isValidUnbondingLock(address,uint256)": {
        "notice": "Return whether an unbonding lock for a delegator is valid"
      },
      "pendingFees(address,uint256)": {
        "notice": "Returns pending fees for a delegator from its lastClaimRound through an end round"
      },
      "pendingStake(address,uint256)": {
        "notice": "Returns pending bonded stake for a delegator from its lastClaimRound through an end round"
      },
      "rebond(uint256)": {
        "notice": "Rebond tokens for an unbonding lock to a delegator's current delegate while a delegator is in the Bonded or Pending status"
      },
      "rebondFromUnbonded(address,uint256)": {
        "notice": "Rebond tokens for an unbonding lock to a delegate while a delegator is in the Unbonded status"
      },
      "rebondFromUnbondedWithHint(address,uint256,address,address)": {
        "notice": "Rebond tokens for an unbonding lock to a delegate while a delegator is in the Unbonded status and updates the transcoder pool using an optional list hint if needed"
      },
      "rebondWithHint(uint256,address,address)": {
        "notice": "Rebond tokens for an unbonding lock to a delegator's current delegate while a delegator is in the Bonded or Pending status and updates the transcoder pool using an optional list hint if needed"
      },
      "reward()": {
        "notice": "Mint token rewards for an active transcoder and its delegators"
      },
      "rewardWithHint(address,address)": {
        "notice": "Mint token rewards for an active transcoder and its delegators and update the transcoder pool using an optional list hint if needed"
      },
      "setController(address)": {
        "notice": "Set controller. Only callable by current controller"
      },
      "setCurrentRoundTotalActiveStake()": {
        "notice": "Called during round initialization to set the total active stake for the round. Only callable by the RoundsManager"
      },
      "setNumActiveTranscoders(uint256)": {
        "notice": "Set maximum number of active transcoders. Only callable by Controller owner"
      },
      "setUnbondingPeriod(uint64)": {
        "notice": "Set unbonding period. Only callable by Controller owner"
      },
      "slashTranscoder(address,address,uint256,uint256)": {
        "notice": "Slash a transcoder. Only callable by the Verifier"
      },
      "transcoder(uint256,uint256)": {
        "notice": "Sets commission rates as a transcoder and if the caller is not in the transcoder pool tries to add it"
      },
      "transcoderStatus(address)": {
        "notice": "Computes transcoder status"
      },
      "transcoderTotalStake(address)": {
        "notice": "Returns total bonded stake for a transcoder"
      },
      "transcoderWithHint(uint256,uint256,address,address)": {
        "notice": "Sets commission rates as a transcoder and if the caller is not in the transcoder pool tries to add it using an optional list hint"
      },
      "transferBond(address,uint256,address,address,address,address)": {
        "notice": "Transfers ownership of a bond to a new delegator using optional hints if needed     * If the receiver is already bonded to a different delegate than the bond owner then the stake goes to the receiver's delegate otherwise the receiver's delegate is set as the owner's delegate"
      },
      "unbond(uint256)": {
        "notice": "Unbond an amount of the delegator's bonded stake"
      },
      "unbondWithHint(uint256,address,address)": {
        "notice": "Unbond an amount of the delegator's bonded stake and updates the transcoder pool using an optional list hint if needed"
      },
      "updateTranscoderWithFees(address,uint256,uint256)": {
        "notice": "Update transcoder's fee pool. Only callable by the TicketBroker"
      },
      "withdrawFees(address,uint256)": {
        "notice": "Withdraws fees to the caller"
      },
      "withdrawStake(uint256)": {
        "notice": "Withdraws tokens for an unbonding lock that has existed through an unbonding period"
      }
    },
    "notice": "Manages bonding, transcoder and rewards/fee accounting related operations of the Livepeer protocol"
  }
}