{
  "address": "0x733797E9433d2cC3DbeF402e224b451B63B66a96",
  "abi": [
    {
      "inputs": [],
      "stateMutability": "nonpayable",
      "type": "constructor"
    },
    {
      "anonymous": false,
      "inputs": [
        {
          "indexed": true,
          "internalType": "address",
          "name": "previousOwner",
          "type": "address"
        },
        {
          "indexed": true,
          "internalType": "address",
          "name": "newOwner",
          "type": "address"
        }
      ],
      "name": "OwnershipTransferred",
      "type": "event"
    },
    {
      "anonymous": false,
      "inputs": [
        {
          "components": [
            {
              "internalType": "address[]",
              "name": "target",
              "type": "address[]"
            },
            {
              "internalType": "uint256[]",
              "name": "value",
              "type": "uint256[]"
            },
            {
              "internalType": "bytes[]",
              "name": "data",
              "type": "bytes[]"
            },
            {
              "internalType": "uint256",
              "name": "nonce",
              "type": "uint256"
            }
          ],
          "indexed": false,
          "internalType": "struct Governor.Update",
          "name": "update",
          "type": "tuple"
        }
      ],
      "name": "UpdateCancelled",
      "type": "event"
    },
    {
      "anonymous": false,
      "inputs": [
        {
          "components": [
            {
              "internalType": "address[]",
              "name": "target",
              "type": "address[]"
            },
            {
              "internalType": "uint256[]",
              "name": "value",
              "type": "uint256[]"
            },
            {
              "internalType": "bytes[]",
              "name": "data",
              "type": "bytes[]"
            },
            {
              "internalType": "uint256",
              "name": "nonce",
              "type": "uint256"
            }
          ],
          "indexed": false,
          "internalType": "struct Governor.Update",
          "name": "update",
          "type": "tuple"
        }
      ],
      "name": "UpdateExecuted",
      "type": "event"
    },
    {
      "anonymous": false,
      "inputs": [
        {
          "components": [
            {
              "internalType": "address[]",
              "name": "target",
              "type": "address[]"
            },
            {
              "internalType": "uint256[]",
              "name": "value",
              "type": "uint256[]"
            },
            {
              "internalType": "bytes[]",
              "name": "data",
              "type": "bytes[]"
            },
            {
              "internalType": "uint256",
              "name": "nonce",
              "type": "uint256"
            }
          ],
          "indexed": false,
          "internalType": "struct Governor.Update",
          "name": "update",
          "type": "tuple"
        },
        {
          "indexed": false,
          "internalType": "uint256",
          "name": "delay",
          "type": "uint256"
        }
      ],
      "name": "UpdateStaged",
      "type": "event"
    },
    {
      "inputs": [
        {
          "components": [
            {
              "internalType": "address[]",
              "name": "target",
              "type": "address[]"
            },
            {
              "internalType": "uint256[]",
              "name": "value",
              "type": "uint256[]"
            },
            {
              "internalType": "bytes[]",
              "name": "data",
              "type": "bytes[]"
            },
            {
              "internalType": "uint256",
              "name": "nonce",
              "type": "uint256"
            }
          ],
          "internalType": "struct Governor.Update",
          "name": "_update",
          "type": "tuple"
        }
      ],
      "name": "cancel",
      "outputs": [],
      "stateMutability": "nonpayable",
      "type": "function"
    },
    {
      "inputs": [
        {
          "components": [
            {
              "internalType": "address[]",
              "name": "target",
              "type": "address[]"
            },
            {
              "internalType": "uint256[]",
              "name": "value",
              "type": "uint256[]"
            },
            {
              "internalType": "bytes[]",
              "name": "data",
              "type": "bytes[]"
            },
            {
              "internalType": "uint256",
              "name": "nonce",
              "type": "uint256"
            }
          ],
          "internalType": "struct Governor.Update",
          "name": "_update",
          "type": "tuple"
        }
      ],
      "name": "execute",
      "outputs": [],
      "stateMutability": "payable",
      "type": "function"
    },
    {
      "inputs": [],
      "name": "owner",
      "outputs": [
        {
          "internalType": "address",
          "name": "",
          "type": "address"
        }
      ],
      "stateMutability": "view",
      "type": "function"
    },
    {
      "inputs": [
        {
          "components": [
            {
              "internalType": "address[]",
              "name": "target",
              "type": "address[]"
            },
            {
              "internalType": "uint256[]",
              "name": "value",
              "type": "uint256[]"
            },
            {
              "internalType": "bytes[]",
              "name": "data",
              "type": "bytes[]"
            },
            {
              "internalType": "uint256",
              "name": "nonce",
              "type": "uint256"
            }
          ],
          "internalType": "struct Governor.Update",
          "name": "_update",
          "type": "tuple"
        },
        {
          "internalType": "uint256",
          "name": "_delay",
          "type": "uint256"
        }
      ],
      "name": "stage",
      "outputs": [],
      "stateMutability": "nonpayable",
      "type": "function"
    },
    {
      "inputs": [
        {
          "internalType": "address",
          "name": "newOwner",
          "type": "address"
        }
      ],
      "name": "transferOwnership",
      "outputs": [],
      "stateMutability": "nonpayable",
      "type": "function"
    },
    {
      "inputs": [
        {
          "internalType": "bytes32",
          "name": "",
          "type": "bytes32"
        }
      ],
      "name": "updates",
      "outputs": [
        {
          "internalType": "uint256",
          "name": "",
          "type": "uint256"
        }
      ],
      "stateMutability": "view",
      "type": "function"
    }
  ],
  "transactionHash": "0xf1d2f968e0c0698fcac8058d911bed1d0c760e909cedde7cc616c44e7ce2619d",
  "args": [],
  "numDeployments": 1,
  "solcInputHash": "fd71754917ff1fac1bc941be820e6e93",
  "bytecode": "0x608060405234801561001057600080fd5b50600080546001600160a01b0319163390811782556040519091907f8be0079c531659141344cd1fd0a4f28419497f9722a3daafe3b4186f6b6457e0908290a3610cd18061005f6000396000f3fe6080604052600436106100555760003560e01c80630d1e4bd31461005a5780636b8ace711461007c57806376ad65291461008f5780638da5cb5b146100af578063d877bc7f146100ec578063f2fde38b14610127575b600080fd5b34801561006657600080fd5b5061007a610075366004610964565b610147565b005b61007a61008a3660046109a9565b610255565b34801561009b57600080fd5b5061007a6100aa3660046109a9565b610460565b3480156100bb57600080fd5b506000546100cf906001600160a01b031681565b6040516001600160a01b0390911681526020015b60405180910390f35b3480156100f857600080fd5b506101196101073660046109e6565b60016020526000908152604090205481565b6040519081526020016100e3565b34801561013357600080fd5b5061007a6101423660046109ff565b61054a565b6000546001600160a01b0316331461017a5760405162461bcd60e51b815260040161017190610a1a565b60405180910390fd5b60008260405160200161018d9190610bd8565b60408051601f19818403018152918152815160209283012060008181526001909352912054909150156101fa5760405162461bcd60e51b81526020600482015260156024820152741d5c19185d1948185b1c9958591e481cdd1859d959605a1b6044820152606401610171565b6102044383610658565b6000828152600160205260409081902091909155517faf91f635f78d93ffa603808c9abd3099887413bc3e144b4b64c1fb966d6519c1906102489085908590610beb565b60405180910390a1505050565b6000816040516020016102689190610bd8565b60408051601f19818403018152918152815160209283012060008181526001909352912054909150806102d45760405162461bcd60e51b81526020600482015260146024820152731d5c19185d19481a5cc81b9bdd081cdd1859d95960621b6044820152606401610171565b804310156103245760405162461bcd60e51b815260206004820152601c60248201527f64656c617920666f7220757064617465206e6f742065787069726564000000006044820152606401610171565b60008281526001602052604081208190555b835151811015610430576000808560000151838151811061035957610359610c0d565b60200260200101516001600160a01b03168660200151848151811061038057610380610c0d565b60200260200101518760400151858151811061039e5761039e610c0d565b60200260200101516040516103b39190610c23565b60006040518083038185875af1925050503d80600081146103f0576040519150601f19603f3d011682016040523d82523d6000602084013e6103f5565b606091505b509150915081819061041a5760405162461bcd60e51b81526004016101719190610c3f565b505050808061042890610c68565b915050610336565b507f5cda31e1476d59bb0aad65b6f4d0b2151029b59e9af9872141f16c8fcaf6a45b836040516102489190610bd8565b6000546001600160a01b0316331461048a5760405162461bcd60e51b815260040161017190610a1a565b60008160405160200161049d9190610bd8565b60408051601f19818403018152918152815160209283012060008181526001909352912054909150806105095760405162461bcd60e51b81526020600482015260146024820152731d5c19185d19481a5cc81b9bdd081cdd1859d95960621b6044820152606401610171565b60008281526001602052604080822091909155517fb1a3479c973dd630e159980ce42bb5da45e167cf7bce9a8b51b1dac8f398419590610248908590610bd8565b3330146105a75760405162461bcd60e51b815260206004820152602560248201527f756e617574686f72697a65643a206d73672e73656e646572206e6f7420476f7660448201526432b93737b960d91b6064820152608401610171565b6001600160a01b0381166105fd5760405162461bcd60e51b815260206004820152601a60248201527f6e65774f776e65722069732061206e756c6c20616464726573730000000000006044820152606401610171565b600080546040516001600160a01b03808516939216917f8be0079c531659141344cd1fd0a4f28419497f9722a3daafe3b4186f6b6457e091a3600080546001600160a01b0319166001600160a01b0392909216919091179055565b60006106648284610c83565b9392505050565b634e487b7160e01b600052604160045260246000fd5b6040516080810167ffffffffffffffff811182821017156106a4576106a461066b565b60405290565b604051601f8201601f1916810167ffffffffffffffff811182821017156106d3576106d361066b565b604052919050565b600067ffffffffffffffff8211156106f5576106f561066b565b5060051b60200190565b80356001600160a01b038116811461071657600080fd5b919050565b600082601f83011261072c57600080fd5b8135602061074161073c836106db565b6106aa565b82815260059290921b8401810191818101908684111561076057600080fd5b8286015b8481101561077b5780358352918301918301610764565b509695505050505050565b6000601f838184011261079857600080fd5b823560206107a861073c836106db565b82815260059290921b850181019181810190878411156107c757600080fd5b8287015b8481101561085e57803567ffffffffffffffff808211156107ec5760008081fd5b818a0191508a603f8301126108015760008081fd5b858201356040828211156108175761081761066b565b610828828b01601f191689016106aa565b92508183528c8183860101111561083f5760008081fd5b81818501898501375060009082018701528452509183019183016107cb565b50979650505050505050565b60006080828403121561087c57600080fd5b610884610681565b9050813567ffffffffffffffff8082111561089e57600080fd5b818401915084601f8301126108b257600080fd5b813560206108c261073c836106db565b82815260059290921b840181019181810190888411156108e157600080fd5b948201945b83861015610906576108f7866106ff565b825294820194908201906108e6565b8652508581013593508284111561091c57600080fd5b6109288785880161071b565b9085015250604084013591508082111561094157600080fd5b5061094e84828501610786565b6040830152506060820135606082015292915050565b6000806040838503121561097757600080fd5b823567ffffffffffffffff81111561098e57600080fd5b61099a8582860161086a565b95602094909401359450505050565b6000602082840312156109bb57600080fd5b813567ffffffffffffffff8111156109d257600080fd5b6109de8482850161086a565b949350505050565b6000602082840312156109f857600080fd5b5035919050565b600060208284031215610a1157600080fd5b610664826106ff565b60208082526022908201527f756e617574686f72697a65643a206d73672e73656e646572206e6f74206f776e60408201526132b960f11b606082015260800190565b600081518084526020808501945080840160005b83811015610a8c57815187529582019590820190600101610a70565b509495945050505050565b60005b83811015610ab2578181015183820152602001610a9a565b83811115610ac1576000848401525b50505050565b60008151808452610adf816020860160208601610a97565b601f01601f19169290920160200192915050565b600081518084526020808501808196508360051b8101915082860160005b85811015610b3b578284038952610b29848351610ac7565b98850198935090840190600101610b11565b5091979650505050505050565b8051608080845281519084018190526000916020919082019060a0860190845b81811015610b8d5783516001600160a01b031683529284019291840191600101610b68565b505082850151915085810383870152610ba68183610a5c565b9250505060408301518482036040860152610bc18282610af3565b915050606083015160608501528091505092915050565b6020815260006106646020830184610b48565b604081526000610bfe6040830185610b48565b90508260208301529392505050565b634e487b7160e01b600052603260045260246000fd5b60008251610c35818460208701610a97565b9190910192915050565b6020815260006106646020830184610ac7565b634e487b7160e01b600052601160045260246000fd5b6000600019821415610c7c57610c7c610c52565b5060010190565b60008219821115610c9657610c96610c52565b50019056fea264697066735822122059b61d3935291cf8620e551577b5ca7a69fded6090d1d7bf91d2d6f82a7bef4364736f6c63430008080033",
  "devdoc": {
    "details": "The Governor holds the rights to stage and execute contract calls i.e. changing Livepeer protocol parameters.",
    "kind": "dev",
    "methods": {
      "cancel((address[],uint256[],bytes[],uint256))": {
        "details": "Reverts if an update does not exist.Reverts if the 'msg.sender' is not the 'owner'",
        "params": {
          "_update": "Update to be cancelled."
        }
      },
      "constructor": {
        "details": "The Ownable constructor sets the original `owner` of the contract to the sender account."
      },
      "execute((address[],uint256[],bytes[],uint256))": {
        "details": "Updates are authorized during staging.Reverts if a transaction can not be executed.",
        "params": {
          "_update": "Update to be staged."
        }
      },
      "stage((address[],uint256[],bytes[],uint256),uint256)": {
        "details": "Reverts if the 'msg.sender' is not the 'owner'Reverts if an update is already staged",
        "params": {
          "_delay": "(uint256) Delay (in number of blocks) for the update.",
          "_update": "Update to be staged."
        }
      },
      "transferOwnership(address)": {
        "details": "Can only be called through stage/execute, will revert if the caller is not this contract's address.",
        "params": {
          "newOwner": "The address to transfer ownership to."
        }
      }
    },
    "stateVariables": {
      "updates": {
        "details": "mapping of updateHash (keccak256(update) => executeBlock (block.number + delay)"
      }
    },
    "title": "Governor",
    "version": 1
  },
  "userdoc": {
    "kind": "user",
    "methods": {
      "cancel((address[],uint256[],bytes[],uint256))": {
        "notice": "Cancel a staged update."
      },
      "execute((address[],uint256[],bytes[],uint256))": {
        "notice": "Execute a staged update."
      },
      "stage((address[],uint256[],bytes[],uint256),uint256)": {
        "notice": "Stage a batch of updates to be executed."
      },
      "transferOwnership(address)": {
        "notice": "Allows the current owner to transfer control of the contract to a newOwner."
      }
    },
    "version": 1
  },
  "storageLayout": {
    "storage": [
      {
        "astId": 6737,
        "contract": "contracts/governance/Governor.sol:Governor",
        "label": "owner",
        "offset": 0,
        "slot": "0",
        "type": "t_address"
      },
      {
        "astId": 6742,
        "contract": "contracts/governance/Governor.sol:Governor",
        "label": "updates",
        "offset": 0,
        "slot": "1",
        "type": "t_mapping(t_bytes32,t_uint256)"
      }
    ],
    "types": {
      "t_address": {
        "encoding": "inplace",
        "label": "address",
        "numberOfBytes": "20"
      },
      "t_bytes32": {
        "encoding": "inplace",
        "label": "bytes32",
        "numberOfBytes": "32"
      },
      "t_mapping(t_bytes32,t_uint256)": {
        "encoding": "mapping",
        "key": "t_bytes32",
        "label": "mapping(bytes32 => uint256)",
        "numberOfBytes": "32",
        "value": "t_uint256"
      },
      "t_uint256": {
        "encoding": "inplace",
        "label": "uint256",
        "numberOfBytes": "32"
      }
    }
  }
}