{
  "address": "0xd50AC3a667BFe57B5B69Efb0eDD44ABb4443A97a",
  "abi": [
    {
      "constant": true,
      "inputs": [
        {
          "internalType": "address",
          "name": "_sender",
          "type": "address"
        }
      ],
      "name": "isUnlockInProgress",
      "outputs": [
        {
          "internalType": "bool",
          "name": "",
          "type": "bool"
        }
      ],
      "payable": false,
      "stateMutability": "view",
      "type": "function"
    },
    {
      "constant": true,
      "inputs": [],
      "name": "unlockPeriod",
      "outputs": [
        {
          "internalType": "uint256",
          "name": "",
          "type": "uint256"
        }
      ],
      "payable": false,
      "stateMutability": "view",
      "type": "function"
    },
    {
      "constant": false,
      "inputs": [],
      "name": "withdraw",
      "outputs": [],
      "payable": false,
      "stateMutability": "nonpayable",
      "type": "function"
    },
    {
      "constant": false,
      "inputs": [
        {
          "internalType": "uint256",
          "name": "_unlockPeriod",
          "type": "uint256"
        }
      ],
      "name": "setUnlockPeriod",
      "outputs": [],
      "payable": false,
      "stateMutability": "nonpayable",
      "type": "function"
    },
    {
      "constant": true,
      "inputs": [
        {
          "internalType": "address",
          "name": "_reserveHolder",
          "type": "address"
        },
        {
          "internalType": "address",
          "name": "_claimant",
          "type": "address"
        }
      ],
      "name": "claimedReserve",
      "outputs": [
        {
          "internalType": "uint256",
          "name": "",
          "type": "uint256"
        }
      ],
      "payable": false,
      "stateMutability": "view",
      "type": "function"
    },
    {
      "constant": false,
      "inputs": [
        {
          "internalType": "uint256",
          "name": "_depositAmount",
          "type": "uint256"
        },
        {
          "internalType": "uint256",
          "name": "_reserveAmount",
          "type": "uint256"
        }
      ],
      "name": "fundDepositAndReserve",
      "outputs": [],
      "payable": true,
      "stateMutability": "payable",
      "type": "function"
    },
    {
      "constant": true,
      "inputs": [],
      "name": "targetContractId",
      "outputs": [
        {
          "internalType": "bytes32",
          "name": "",
          "type": "bytes32"
        }
      ],
      "payable": false,
      "stateMutability": "view",
      "type": "function"
    },
    {
      "constant": true,
      "inputs": [
        {
          "internalType": "bytes32",
          "name": "",
          "type": "bytes32"
        }
      ],
      "name": "usedTickets",
      "outputs": [
        {
          "internalType": "bool",
          "name": "",
          "type": "bool"
        }
      ],
      "payable": false,
      "stateMutability": "view",
      "type": "function"
    },
    {
      "constant": true,
      "inputs": [
        {
          "internalType": "address",
          "name": "_reserveHolder",
          "type": "address"
        }
      ],
      "name": "getReserveInfo",
      "outputs": [
        {
          "components": [
            {
              "internalType": "uint256",
              "name": "fundsRemaining",
              "type": "uint256"
            },
            {
              "internalType": "uint256",
              "name": "claimedInCurrentRound",
              "type": "uint256"
            }
          ],
          "internalType": "struct MReserve.ReserveInfo",
          "name": "info",
          "type": "tuple"
        }
      ],
      "payable": false,
      "stateMutability": "view",
      "type": "function"
    },
    {
      "constant": false,
      "inputs": [],
      "name": "fundDeposit",
      "outputs": [],
      "payable": true,
      "stateMutability": "payable",
      "type": "function"
    },
    {
      "constant": false,
      "inputs": [],
      "name": "fundReserve",
      "outputs": [],
      "payable": true,
      "stateMutability": "payable",
      "type": "function"
    },
    {
      "constant": true,
      "inputs": [
        {
          "internalType": "address",
          "name": "_reserveHolder",
          "type": "address"
        },
        {
          "internalType": "address",
          "name": "_claimant",
          "type": "address"
        }
      ],
      "name": "claimableReserve",
      "outputs": [
        {
          "internalType": "uint256",
          "name": "",
          "type": "uint256"
        }
      ],
      "payable": false,
      "stateMutability": "view",
      "type": "function"
    },
    {
      "constant": true,
      "inputs": [],
      "name": "ticketValidityPeriod",
      "outputs": [
        {
          "internalType": "uint256",
          "name": "",
          "type": "uint256"
        }
      ],
      "payable": false,
      "stateMutability": "view",
      "type": "function"
    },
    {
      "constant": false,
      "inputs": [
        {
          "internalType": "address",
          "name": "_controller",
          "type": "address"
        }
      ],
      "name": "setController",
      "outputs": [],
      "payable": false,
      "stateMutability": "nonpayable",
      "type": "function"
    },
    {
      "constant": false,
      "inputs": [
        {
          "internalType": "address",
          "name": "_addr",
          "type": "address"
        },
        {
          "internalType": "uint256",
          "name": "_depositAmount",
          "type": "uint256"
        },
        {
          "internalType": "uint256",
          "name": "_reserveAmount",
          "type": "uint256"
        }
      ],
      "name": "fundDepositAndReserveFor",
      "outputs": [],
      "payable": true,
      "stateMutability": "payable",
      "type": "function"
    },
    {
      "constant": false,
      "inputs": [],
      "name": "unlock",
      "outputs": [],
      "payable": false,
      "stateMutability": "nonpayable",
      "type": "function"
    },
    {
      "constant": true,
      "inputs": [
        {
          "components": [
            {
              "internalType": "address",
              "name": "recipient",
              "type": "address"
            },
            {
              "internalType": "address",
              "name": "sender",
              "type": "address"
            },
            {
              "internalType": "uint256",
              "name": "faceValue",
              "type": "uint256"
            },
            {
              "internalType": "uint256",
              "name": "winProb",
              "type": "uint256"
            },
            {
              "internalType": "uint256",
              "name": "senderNonce",
              "type": "uint256"
            },
            {
              "internalType": "bytes32",
              "name": "recipientRandHash",
              "type": "bytes32"
            },
            {
              "internalType": "bytes",
              "name": "auxData",
              "type": "bytes"
            }
          ],
          "internalType": "struct MTicketBrokerCore.Ticket",
          "name": "_ticket",
          "type": "tuple"
        }
      ],
      "name": "getTicketHash",
      "outputs": [
        {
          "internalType": "bytes32",
          "name": "",
          "type": "bytes32"
        }
      ],
      "payable": false,
      "stateMutability": "pure",
      "type": "function"
    },
    {
      "constant": false,
      "inputs": [],
      "name": "cancelUnlock",
      "outputs": [],
      "payable": false,
      "stateMutability": "nonpayable",
      "type": "function"
    },
    {
      "constant": false,
      "inputs": [
        {
          "internalType": "uint256",
          "name": "_ticketValidityPeriod",
          "type": "uint256"
        }
      ],
      "name": "setTicketValidityPeriod",
      "outputs": [],
      "payable": false,
      "stateMutability": "nonpayable",
      "type": "function"
    },
    {
      "constant": false,
      "inputs": [
        {
          "components": [
            {
              "internalType": "address",
              "name": "recipient",
              "type": "address"
            },
            {
              "internalType": "address",
              "name": "sender",
              "type": "address"
            },
            {
              "internalType": "uint256",
              "name": "faceValue",
              "type": "uint256"
            },
            {
              "internalType": "uint256",
              "name": "winProb",
              "type": "uint256"
            },
            {
              "internalType": "uint256",
              "name": "senderNonce",
              "type": "uint256"
            },
            {
              "internalType": "bytes32",
              "name": "recipientRandHash",
              "type": "bytes32"
            },
            {
              "internalType": "bytes",
              "name": "auxData",
              "type": "bytes"
            }
          ],
          "internalType": "struct MTicketBrokerCore.Ticket[]",
          "name": "_tickets",
          "type": "tuple[]"
        },
        {
          "internalType": "bytes[]",
          "name": "_sigs",
          "type": "bytes[]"
        },
        {
          "internalType": "uint256[]",
          "name": "_recipientRands",
          "type": "uint256[]"
        }
      ],
      "name": "batchRedeemWinningTickets",
      "outputs": [],
      "payable": false,
      "stateMutability": "nonpayable",
      "type": "function"
    },
    {
      "constant": true,
      "inputs": [
        {
          "internalType": "address",
          "name": "_sender",
          "type": "address"
        }
      ],
      "name": "getSenderInfo",
      "outputs": [
        {
          "components": [
            {
              "internalType": "uint256",
              "name": "deposit",
              "type": "uint256"
            },
            {
              "internalType": "uint256",
              "name": "withdrawRound",
              "type": "uint256"
            }
          ],
          "internalType": "struct MixinTicketBrokerCore.Sender",
          "name": "sender",
          "type": "tuple"
        },
        {
          "components": [
            {
              "internalType": "uint256",
              "name": "fundsRemaining",
              "type": "uint256"
            },
            {
              "internalType": "uint256",
              "name": "claimedInCurrentRound",
              "type": "uint256"
            }
          ],
          "internalType": "struct MReserve.ReserveInfo",
          "name": "reserve",
          "type": "tuple"
        }
      ],
      "payable": false,
      "stateMutability": "view",
      "type": "function"
    },
    {
      "constant": false,
      "inputs": [
        {
          "components": [
            {
              "internalType": "address",
              "name": "recipient",
              "type": "address"
            },
            {
              "internalType": "address",
              "name": "sender",
              "type": "address"
            },
            {
              "internalType": "uint256",
              "name": "faceValue",
              "type": "uint256"
            },
            {
              "internalType": "uint256",
              "name": "winProb",
              "type": "uint256"
            },
            {
              "internalType": "uint256",
              "name": "senderNonce",
              "type": "uint256"
            },
            {
              "internalType": "bytes32",
              "name": "recipientRandHash",
              "type": "bytes32"
            },
            {
              "internalType": "bytes",
              "name": "auxData",
              "type": "bytes"
            }
          ],
          "internalType": "struct MTicketBrokerCore.Ticket",
          "name": "_ticket",
          "type": "tuple"
        },
        {
          "internalType": "bytes",
          "name": "_sig",
          "type": "bytes"
        },
        {
          "internalType": "uint256",
          "name": "_recipientRand",
          "type": "uint256"
        }
      ],
      "name": "redeemWinningTicket",
      "outputs": [],
      "payable": false,
      "stateMutability": "nonpayable",
      "type": "function"
    },
    {
      "constant": true,
      "inputs": [],
      "name": "controller",
      "outputs": [
        {
          "internalType": "contract IController",
          "name": "",
          "type": "address"
        }
      ],
      "payable": false,
      "stateMutability": "view",
      "type": "function"
    },
    {
      "inputs": [
        {
          "internalType": "address",
          "name": "_controller",
          "type": "address"
        }
      ],
      "payable": false,
      "stateMutability": "nonpayable",
      "type": "constructor"
    },
    {
      "anonymous": false,
      "inputs": [
        {
          "indexed": true,
          "internalType": "address",
          "name": "sender",
          "type": "address"
        },
        {
          "indexed": false,
          "internalType": "uint256",
          "name": "amount",
          "type": "uint256"
        }
      ],
      "name": "DepositFunded",
      "type": "event"
    },
    {
      "anonymous": false,
      "inputs": [
        {
          "indexed": true,
          "internalType": "address",
          "name": "sender",
          "type": "address"
        },
        {
          "indexed": true,
          "internalType": "address",
          "name": "recipient",
          "type": "address"
        },
        {
          "indexed": false,
          "internalType": "uint256",
          "name": "faceValue",
          "type": "uint256"
        },
        {
          "indexed": false,
          "internalType": "uint256",
          "name": "winProb",
          "type": "uint256"
        },
        {
          "indexed": false,
          "internalType": "uint256",
          "name": "senderNonce",
          "type": "uint256"
        },
        {
          "indexed": false,
          "internalType": "uint256",
          "name": "recipientRand",
          "type": "uint256"
        },
        {
          "indexed": false,
          "internalType": "bytes",
          "name": "auxData",
          "type": "bytes"
        }
      ],
      "name": "WinningTicketRedeemed",
      "type": "event"
    },
    {
      "anonymous": false,
      "inputs": [
        {
          "indexed": true,
          "internalType": "address",
          "name": "sender",
          "type": "address"
        },
        {
          "indexed": true,
          "internalType": "address",
          "name": "recipient",
          "type": "address"
        },
        {
          "indexed": false,
          "internalType": "uint256",
          "name": "amount",
          "type": "uint256"
        }
      ],
      "name": "WinningTicketTransfer",
      "type": "event"
    },
    {
      "anonymous": false,
      "inputs": [
        {
          "indexed": true,
          "internalType": "address",
          "name": "sender",
          "type": "address"
        },
        {
          "indexed": false,
          "internalType": "uint256",
          "name": "startRound",
          "type": "uint256"
        },
        {
          "indexed": false,
          "internalType": "uint256",
          "name": "endRound",
          "type": "uint256"
        }
      ],
      "name": "Unlock",
      "type": "event"
    },
    {
      "anonymous": false,
      "inputs": [
        {
          "indexed": true,
          "internalType": "address",
          "name": "sender",
          "type": "address"
        }
      ],
      "name": "UnlockCancelled",
      "type": "event"
    },
    {
      "anonymous": false,
      "inputs": [
        {
          "indexed": true,
          "internalType": "address",
          "name": "sender",
          "type": "address"
        },
        {
          "indexed": false,
          "internalType": "uint256",
          "name": "deposit",
          "type": "uint256"
        },
        {
          "indexed": false,
          "internalType": "uint256",
          "name": "reserve",
          "type": "uint256"
        }
      ],
      "name": "Withdrawal",
      "type": "event"
    },
    {
      "anonymous": false,
      "inputs": [
        {
          "indexed": true,
          "internalType": "address",
          "name": "reserveHolder",
          "type": "address"
        },
        {
          "indexed": false,
          "internalType": "uint256",
          "name": "amount",
          "type": "uint256"
        }
      ],
      "name": "ReserveFunded",
      "type": "event"
    },
    {
      "anonymous": false,
      "inputs": [
        {
          "indexed": true,
          "internalType": "address",
          "name": "reserveHolder",
          "type": "address"
        },
        {
          "indexed": false,
          "internalType": "address",
          "name": "claimant",
          "type": "address"
        },
        {
          "indexed": false,
          "internalType": "uint256",
          "name": "amount",
          "type": "uint256"
        }
      ],
      "name": "ReserveClaimed",
      "type": "event"
    },
    {
      "anonymous": false,
      "inputs": [
        {
          "indexed": false,
          "internalType": "address",
          "name": "controller",
          "type": "address"
        }
      ],
      "name": "SetController",
      "type": "event"
    },
    {
      "anonymous": false,
      "inputs": [
        {
          "indexed": false,
          "internalType": "string",
          "name": "param",
          "type": "string"
        }
      ],
      "name": "ParameterUpdate",
      "type": "event"
    }
  ],
  "transactionHash": "0x69450e16f3a89103ddc7852d7236aac1281919dc81794c0136a666274253b35c",
  "args": [
    "0x9ceC649179e2C7Ab91688271bcD09fb707b3E574"
  ],
  "numDeployments": 1,
  "solcInputHash": "cd771027a406633e1258619751cc7c14",
  "bytecode": "0x60806040523480156200001157600080fd5b50604051620032b1380380620032b183398101604081905262000034916200006d565b600080546001600160a01b0319166001600160a01b0392909216919091179055620000c2565b80516200006781620000a8565b92915050565b6000602082840312156200008057600080fd5b60006200008e84846200005a565b949350505050565b60006001600160a01b03821662000067565b620000b38162000096565b8114620000bf57600080fd5b50565b6131df80620000d26000396000f3fe6080604052600436106101405760003560e01c806381779f38116100b6578063c2c4c2c81161006f578063c2c4c2c814610316578063c92978081461032b578063d01b808e1461034b578063e1a589da1461036b578063ec8b3cb614610399578063f77c4791146103b957610140565b806381779f3814610279578063856a2cf81461029957806392eefe9b146102ae578063989f789c146102ce578063a69df4b5146102e1578063b03fa864146102f657610140565b8063511f407311610108578063511f4073146101f457806351720b411461020757806359a515ba1461021c5780635b6333eb1461023c5780636caa736b146102695780636f9c3c8f1461027157610140565b8063121cdcc21461014557806320d3a0b41461017b5780633ccfd60b1461019d5780633d0ddf84146101b45780634ac826da146101d4575b600080fd5b34801561015157600080fd5b506101656101603660046121b5565b6103db565b6040516101729190612dba565b60405180910390f35b34801561018757600080fd5b50610190610426565b6040516101729190612dc8565b3480156101a957600080fd5b506101b261042c565b005b3480156101c057600080fd5b506101b26101cf366004612328565b610572565b3480156101e057600080fd5b506101906101ef3660046121f9565b6105b8565b6101b26102023660046123fa565b61067a565b34801561021357600080fd5b50610190610689565b34801561022857600080fd5b50610165610237366004612328565b61068f565b34801561024857600080fd5b5061025c6102573660046121b5565b6106a4565b6040516101729190612fb9565b6101b2610766565b6101b2610806565b34801561028557600080fd5b506101906102943660046121f9565b610867565b3480156102a557600080fd5b50610190610a8e565b3480156102ba57600080fd5b506101b26102c93660046121b5565b610a94565b6101b26102dc366004612233565b610ae7565b3480156102ed57600080fd5b506101b2610c2c565b34801561030257600080fd5b50610190610311366004612364565b610d8a565b34801561032257600080fd5b506101b2610ddc565b34801561033757600080fd5b506101b2610346366004612328565b610e02565b34801561035757600080fd5b506101b2610366366004612280565b610e5d565b34801561037757600080fd5b5061038b6103863660046121b5565b610f58565b604051610172929190612fc7565b3480156103a557600080fd5b506101b26103b4366004612399565b610faa565b3480156103c557600080fd5b506103ce61125b565b6040516101729190612e0b565b60006103e5611f19565b506001600160a01b038216600090815260036020908152604091829020825180840190935280548352600101549082015261041f8161126a565b9392505050565b60045481565b610434611273565b3360008181526003602052604081208054909290919061045390611317565b905060008211806104645750600081115b6104895760405162461bcd60e51b815260040161048090612f09565b60405180910390fd5b6040805180820190915283548152600184015460208201526104aa9061126a565b6104c65760405162461bcd60e51b815260040161048090612f89565b6040805180820190915283548152600184015460208201526104e790611332565b156105045760405162461bcd60e51b815260040161048090612f59565b60008355610511336113c6565b61052a33610525848463ffffffff6113e016565b611405565b336001600160a01b03167fdf273cb619d95419a9cd0ec88123a0538c85064229baa6363788f743fff90deb8383604051610565929190613016565b60405180910390a2505050565b61057a611470565b60048190556040517f9f5033568d78ae30f29f01e944f97b2216493bd19d1b46d429673acff3dcd674906105ad90612ed9565b60405180910390a150565b6001600160a01b0382166000908152600260205260408120816105d9611525565b6001600160a01b0316638a19c8bc6040518163ffffffff1660e01b815260040160206040518083038186803b15801561061157600080fd5b505afa158015610625573d6000803e3d6000fd5b505050506040513d601f19601f820116820180604052506106499190810190612346565b60009081526002909201602090815260408084206001600160a01b0387168552909152909120549150505b92915050565b610685338383610ae7565b5050565b60015481565b60056020526000908152604090205460ff1681565b6106ac611f19565b6106b582611317565b81526001600160a01b0382166000908152600260205260408120600101906106db611525565b6001600160a01b0316638a19c8bc6040518163ffffffff1660e01b815260040160206040518083038186803b15801561071357600080fd5b505afa158015610727573d6000803e3d6000fd5b505050506040513d601f19601f8201168201806040525061074b9190810190612346565b81526020808201929092526040016000205490820152919050565b61076e611273565b3360008181526003602052604090208054349190610792908363ffffffff6113e016565b80825560408051808201909152908152600182015460208201526107b59061126a565b156107c4576107c481846115c2565b6107cd3461163d565b826001600160a01b03167f5159e237d952190e68d5215430f305831be7c9c8776d1377c76679ae4773413f836040516105659190612dc8565b61080e611273565b336000818152600360205260409020349061082983836116b8565b60408051808201909152815481526001820154602082015261084a9061126a565b156108595761085981846115c2565b6108623461163d565b505050565b6001600160a01b038216600090815260026020526040812081610888611525565b6001600160a01b0316638a19c8bc6040518163ffffffff1660e01b815260040160206040518083038186803b1580156108c057600080fd5b505afa1580156108d4573d6000803e3d6000fd5b505050506040513d601f19601f820116820180604052506108f89190810190612346565b905061090261172e565b6001600160a01b03166308802374856040518263ffffffff1660e01b815260040161092d9190612d69565b60206040518083038186803b15801561094557600080fd5b505afa158015610959573d6000803e3d6000fd5b505050506040513d601f19601f8201168201806040525061097d919081019061230a565b61098c57600092505050610674565b600061099661172e565b6001600160a01b0316632a4e0d556040518163ffffffff1660e01b815260040160206040518083038186803b1580156109ce57600080fd5b505afa1580156109e2573d6000803e3d6000fd5b505050506040513d601f19601f82011682018060405250610a069190810190612346565b905080610a195760009350505050610674565b60008281526001840160205260408120548454610a3b9163ffffffff6113e016565b600084815260028601602090815260408083206001600160a01b038b168452909152902054909150610a8390610a77838563ffffffff61175016565b9063ffffffff61178516565b979650505050505050565b60065481565b610a9c6117ad565b600080546001600160a01b0319166001600160a01b0383161790556040517f4ff638452bbf33c012645d18ae6f05515ff5f2d1dfb0cece8cbf018c60903f70906105ad908390612d69565b610aef611273565b8181610b01828263ffffffff6113e016565b3414610b1f5760405162461bcd60e51b815260040161048090612ee9565b6001600160a01b0385166000908152600360205260409020805486918691610b4d908363ffffffff6113e016565b8082556040805180820190915290815260018201546020820152610b709061126a565b15610b7f57610b7f81846115c2565b6001600160a01b038816600090815260036020526040902088908790610ba583836116b8565b604080518082019091528154815260018201546020820152610bc69061126a565b15610bd557610bd581846115c2565b610bde3461163d565b505050826001600160a01b03167f5159e237d952190e68d5215430f305831be7c9c8776d1377c76679ae4773413f83604051610c1a9190612dc8565b60405180910390a25050505050505050565b610c34611273565b3360009081526003602052604090208054151580610c5a57506000610c5833611317565b115b610c765760405162461bcd60e51b815260040161048090612f09565b604080518082019091528154815260018201546020820152610c979061126a565b15610cb45760405162461bcd60e51b815260040161048090612e39565b6000610cbe611525565b6001600160a01b0316638a19c8bc6040518163ffffffff1660e01b815260040160206040518083038186803b158015610cf657600080fd5b505afa158015610d0a573d6000803e3d6000fd5b505050506040513d601f19601f82011682018060405250610d2e9190810190612346565b9050610d45600454826113e090919063ffffffff16565b6001830181905560405133917ff7870c5b224cbc19873599e46ccfc7103934650509b1af0c3ce90138377c200491610d7e918591613016565b60405180910390a25050565b80516020808301516040808501516060860151608087015160a088015160c08901519451600098610dbf989097969101612c75565b604051602081830303815290604052805190602001209050919050565b610de4611273565b33600081815260036020526040902090610dff9082906115c2565b50565b610e0a611470565b60008111610e2a5760405162461bcd60e51b815260040161048090612f99565b60068190556040517f9f5033568d78ae30f29f01e944f97b2216493bd19d1b46d429673acff3dcd674906105ad90612ea9565b610e65611273565b610e6d611525565b6001600160a01b031663219bc76c6040518163ffffffff1660e01b815260040160206040518083038186803b158015610ea557600080fd5b505afa158015610eb9573d6000803e3d6000fd5b505050506040513d601f19601f82011682018060405250610edd919081019061230a565b610ef95760405162461bcd60e51b815260040161048090612fa9565b60005b8351811015610f5257610f49848281518110610f1457fe5b6020026020010151848381518110610f2857fe5b6020026020010151848481518110610f3c57fe5b60200260200101516117d7565b50600101610efc565b50505050565b610f60611f19565b610f68611f19565b6001600160a01b03831660009081526003602090815260409182902082518084019093528054835260010154908201529150610fa3836106a4565b9050915091565b610fb2611273565b610fba611525565b6001600160a01b031663219bc76c6040518163ffffffff1660e01b815260040160206040518083038186803b158015610ff257600080fd5b505afa158015611006573d6000803e3d6000fd5b505050506040513d601f19601f8201168201806040525061102a919081019061230a565b6110465760405162461bcd60e51b815260040161048090612fa9565b600061105184610d8a565b905061105f84828585611879565b6020808501516001600160a01b031660009081526003825260409081902081518083019092528054825260018101549282019290925261109e90611332565b6110ba5760405162461bcd60e51b815260040161048090612e29565b80541515806110d5575060006110d38660200151611317565b115b6110f15760405162461bcd60e51b815260040161048090612f09565b600082815260056020526040808220805460ff191660011790558254908701511115611160576111556111478760200151886000015161114286600001548b6040015161178590919063ffffffff16565b6119a5565b83549063ffffffff6113e016565b60008355905061117b565b5060408501518154611178908263ffffffff61178516565b82555b80156111e8576111948660000151828860c00151611b4e565b85600001516001600160a01b031686602001516001600160a01b03167f8b87351a208c06e3ceee59d80725fd77a23b4129e1b51ca231fc89b40712649c836040516111df9190612dc8565b60405180910390a35b85600001516001600160a01b031686602001516001600160a01b03167fc389eb51ed006dbf2528507f010efdf5225ea596e1e1741d74f550dab1925ee7886040015189606001518a60800151898c60c0015160405161124b959493929190613024565b60405180910390a3505050505050565b6000546001600160a01b031681565b60200151151590565b6000809054906101000a90046001600160a01b03166001600160a01b0316635c975abb6040518163ffffffff1660e01b815260040160206040518083038186803b1580156112c057600080fd5b505afa1580156112d4573d6000803e3d6000fd5b505050506040513d601f19601f820116820180604052506112f8919081019061230a565b156113155760405162461bcd60e51b815260040161048090612ef9565b565b6001600160a01b031660009081526002602052604090205490565b60008160200151600014806106745750816020015161134f611525565b6001600160a01b0316638a19c8bc6040518163ffffffff1660e01b815260040160206040518083038186803b15801561138757600080fd5b505afa15801561139b573d6000803e3d6000fd5b505050506040513d601f19601f820116820180604052506113bf9190810190612346565b1092915050565b6001600160a01b0316600090815260026020526040812055565b60008282018381101561041f5760405162461bcd60e51b815260040161048090612e79565b61140d611bcb565b6001600160a01b03166320283da983836040518363ffffffff1660e01b815260040161143a929190612d77565b600060405180830381600087803b15801561145457600080fd5b505af1158015611468573d6000803e3d6000fd5b505050505050565b6000809054906101000a90046001600160a01b03166001600160a01b0316638da5cb5b6040518163ffffffff1660e01b815260040160206040518083038186803b1580156114bd57600080fd5b505afa1580156114d1573d6000803e3d6000fd5b505050506040513d601f19601f820116820180604052506114f591908101906121db565b6001600160a01b0316336001600160a01b0316146113155760405162461bcd60e51b815260040161048090612f39565b600080546040516001600160a01b039091169063e16c7d989061154790612d52565b6040519081900381206001600160e01b031960e084901b16825261156d91600401612dc8565b60206040518083038186803b15801561158557600080fd5b505afa158015611599573d6000803e3d6000fd5b505050506040513d601f19601f820116820180604052506115bd91908101906121db565b905090565b6040805180820190915282548152600183015460208201526115e39061126a565b6115ff5760405162461bcd60e51b815260040161048090612f89565b6000600183018190556040516001600160a01b038316917ffa044b7b93a40365dc68049797c2eb06918523d694e5d56e406cac3eb35578e591a25050565b611645611bcb565b6001600160a01b031663f6326fb3826040518263ffffffff1660e01b81526004016020604051808303818588803b15801561167f57600080fd5b505af1158015611693573d6000803e3d6000fd5b50505050506040513d601f19601f82011682018060405250610685919081019061230a565b6001600160a01b0382166000908152600260205260409020546116e1908263ffffffff6113e016565b6001600160a01b038316600081815260026020526040908190209290925590517fb52b99b9e83551fcbd069b559cc3e823e2a1a3bad8ece46561ea77524394c85090610d7e908490612dc8565b600080546040516001600160a01b039091169063e16c7d989061154790612d3c565b60008082116117715760405162461bcd60e51b815260040161048090612eb9565b600082848161177c57fe5b04949350505050565b6000828211156117a75760405162461bcd60e51b815260040161048090612e99565b50900390565b6000546001600160a01b031633146113155760405162461bcd60e51b815260040161048090612ec9565b600060608484846040516024016117f093929190612fe2565b60408051601f198184030181529181526020820180516001600160e01b03166376459e5b60e11b17905251909150309061182b908390612cee565b6000604051808303816000865af19150503d8060008114611868576040519150601f19603f3d011682016040523d82523d6000602084013e61186d565b606091505b50909695505050505050565b83516001600160a01b03166118a05760405162461bcd60e51b815260040161048090612e69565b60208401516001600160a01b03166118ca5760405162461bcd60e51b815260040161048090612f69565b6118d78460c00151611bed565b8360a00151816040516020016118ed9190612d5d565b60405160208183030381529060405280519060200120146119205760405162461bcd60e51b815260040161048090612f49565b60008381526005602052604090205460ff161561194f5760405162461bcd60e51b815260040161048090612e19565b61195e84602001518385611d76565b61197a5760405162461bcd60e51b815260040161048090612f19565b61198982828660600151611dbe565b610f525760405162461bcd60e51b815260040161048090612f79565b6000806119b28585610867565b905060008184116119c357836119c5565b815b90508015611b455760006119d7611525565b6001600160a01b0316638a19c8bc6040518163ffffffff1660e01b815260040160206040518083038186803b158015611a0f57600080fd5b505afa158015611a23573d6000803e3d6000fd5b505050506040513d601f19601f82011682018060405250611a479190810190612346565b6001600160a01b0388166000908152600260209081526040808320848452600181019092529091205491925090611a84908463ffffffff6113e016565b60008381526001830160209081526040808320939093556002840181528282206001600160a01b038b16835290522054611ac4908463ffffffff6113e016565b600083815260028301602090815260408083206001600160a01b038c1684529091529020558054611afb908463ffffffff61178516565b81556040516001600160a01b038916907f5c2b394723f408a40a60335e24b71829642e35f350cebe2036a96a66e895ea9890611b3a908a908790612d77565b60405180910390a250505b95945050505050565b6000611b5982611df5565b509050611b6461172e565b6001600160a01b0316633aeb512c8585846040518463ffffffff1660e01b8152600401611b9393929190612d92565b600060405180830381600087803b158015611bad57600080fd5b505af1158015611bc1573d6000803e3d6000fd5b5050505050505050565b600080546040516001600160a01b039091169063e16c7d989061154790612d47565b600080611bf983611df5565b915091506000611c07611525565b6001600160a01b0316633aa4add4846040518263ffffffff1660e01b8152600401611c329190612dc8565b60206040518083038186803b158015611c4a57600080fd5b505afa158015611c5e573d6000803e3d6000fd5b505050506040513d601f19601f82011682018060405250611c829190810190612346565b905080611ca15760405162461bcd60e51b815260040161048090612e89565b808214611cc05760405162461bcd60e51b815260040161048090612e59565b6000611cca611525565b6001600160a01b0316638a19c8bc6040518163ffffffff1660e01b815260040160206040518083038186803b158015611d0257600080fd5b505afa158015611d16573d6000803e3d6000fd5b505050506040513d601f19601f82011682018060405250611d3a9190810190612346565b905080611d52600654866113e090919063ffffffff16565b11611d6f5760405162461bcd60e51b815260040161048090612e49565b5050505050565b600080611d8b611d8584611e2a565b85611e3d565b90506001600160a01b03811615801590611b455750806001600160a01b0316856001600160a01b03161495945050505050565b6000818484604051602001611dd4929190612cfa565b60408051601f19818403018152919052805160209091012010949350505050565b6000808251604014611e195760405162461bcd60e51b815260040161048090612f29565b505060208101516040909101519091565b600081604051602001610dbf9190612d1c565b60008151604114611e5057506000610674565b60208201516040830151606084015160001a7f7fffffffffffffffffffffffffffffff5d576e7357a4501ddfe92f46681b20a0821115611e965760009350505050610674565b8060ff16601b14158015611eae57508060ff16601c14155b15611ebf5760009350505050610674565b60018682858560405160008152602001604052604051611ee29493929190612dd6565b6020604051602081039080840390855afa158015611f04573d6000803e3d6000fd5b5050604051601f190151979650505050505050565b604051806040016040528060008152602001600081525090565b803561067481613176565b805161067481613176565b600082601f830112611f5a57600080fd5b8135611f6d611f6882613092565b61306b565b81815260209384019390925082018360005b83811015611fab5781358601611f9588826120a3565b8452506020928301929190910190600101611f7f565b5050505092915050565b600082601f830112611fc657600080fd5b8135611fd4611f6882613092565b81815260209384019390925082018360005b83811015611fab5781358601611ffc88826120f2565b8452506020928301929190910190600101611fe6565b600082601f83011261202357600080fd5b8135612031611f6882613092565b9150818183526020840193506020810190508385602084028201111561205657600080fd5b60005b83811015611fab578161206c888261208d565b8452506020928301929190910190600101612059565b80516106748161318a565b803561067481613193565b805161067481613193565b600082601f8301126120b457600080fd5b81356120c2611f68826130b3565b915080825260208301602083018583830111156120de57600080fd5b6120e983828461311d565b50505092915050565b600060e0828403121561210457600080fd5b61210e60e061306b565b9050600061211c8484611f33565b825250602061212d84848301611f33565b60208301525060406121418482850161208d565b60408301525060606121558482850161208d565b60608301525060806121698482850161208d565b60808301525060a061217d8482850161208d565b60a08301525060c082013567ffffffffffffffff81111561219d57600080fd5b6121a9848285016120a3565b60c08301525092915050565b6000602082840312156121c757600080fd5b60006121d38484611f33565b949350505050565b6000602082840312156121ed57600080fd5b60006121d38484611f3e565b6000806040838503121561220c57600080fd5b60006122188585611f33565b925050602061222985828601611f33565b9150509250929050565b60008060006060848603121561224857600080fd5b60006122548686611f33565b93505060206122658682870161208d565b92505060406122768682870161208d565b9150509250925092565b60008060006060848603121561229557600080fd5b833567ffffffffffffffff8111156122ac57600080fd5b6122b886828701611fb5565b935050602084013567ffffffffffffffff8111156122d557600080fd5b6122e186828701611f49565b925050604084013567ffffffffffffffff8111156122fe57600080fd5b61227686828701612012565b60006020828403121561231c57600080fd5b60006121d38484612082565b60006020828403121561233a57600080fd5b60006121d3848461208d565b60006020828403121561235857600080fd5b60006121d38484612098565b60006020828403121561237657600080fd5b813567ffffffffffffffff81111561238d57600080fd5b6121d3848285016120f2565b6000806000606084860312156123ae57600080fd5b833567ffffffffffffffff8111156123c557600080fd5b6123d1868287016120f2565b935050602084013567ffffffffffffffff8111156123ee57600080fd5b612265868287016120a3565b6000806040838503121561240d57600080fd5b6000612419858561208d565b92505060206122298582860161208d565b612433816130ed565b82525050565b612433612445826130ed565b613155565b612433816130f8565b612433816130fd565b612433612468826130fd565b6130fd565b6000612478826130db565b61248281856130df565b9350612492818560208601613129565b61249b81613166565b9093019392505050565b60006124b0826130db565b6124ba81856130e8565b93506124ca818560208601613129565b9290920192915050565b61243381613112565b60006124ea600e836130df565b6d1d1a58dad95d081a5cc81d5cd95960921b815260200192915050565b60006125146012836130df565b711cd95b99195c881a5cc81d5b9b1bd8dad95960721b815260200192915050565b6000612542601c836130e8565b7f19457468657265756d205369676e6564204d6573736167653a0a3332000000008152601c0192915050565b600061257b6018836130df565b7f756e6c6f636b20616c726561647920696e697469617465640000000000000000815260200192915050565b60006125b46011836130df565b701d1a58dad95d081a5cc8195e1c1a5c9959607a1b815260200192915050565b60006125e1600e836130e8565b6d2137b73234b733a6b0b730b3b2b960911b8152600e0192915050565b600061260b6037836130df565b7f7469636b6574206372656174696f6e526f756e64426c6f636b4861736820696e81527f76616c696420666f72206372656174696f6e526f756e64000000000000000000602082015260400192915050565b600061266a6020836130df565b7f7469636b657420726563697069656e74206973206e756c6c2061646472657373815260200192915050565b60006126a3601b836130df565b7f536166654d6174683a206164646974696f6e206f766572666c6f770000000000815260200192915050565b60006126dc602f836130df565b7f7469636b6574206372656174696f6e526f756e6420646f6573206e6f7420686181526e0ecca40c240c4d8dec6d640d0c2e6d608b1b602082015260400192915050565b600061272d601e836130df565b7f536166654d6174683a207375627472616374696f6e206f766572666c6f770000815260200192915050565b60006127666014836130df565b731d1a58dad95d15985b1a591a5d1e54195c9a5bd960621b815260200192915050565b6000612796601a836130df565b7f536166654d6174683a206469766973696f6e206279207a65726f000000000000815260200192915050565b60006127cf6019836130df565b7f63616c6c6572206d75737420626520436f6e74726f6c6c657200000000000000815260200192915050565b6000612808600c836130df565b6b1d5b9b1bd8dad4195c9a5bd960a21b815260200192915050565b60006128306006836130e8565b6526b4b73a32b960d11b815260060192915050565b60006128526041836130df565b7f6d73672e76616c756520646f6573206e6f7420657175616c2073756d206f662081527f6465706f73697420616d6f756e7420616e64207265736572766520616d6f756e6020820152601d60fa1b604082015260600192915050565b60006128bb6010836130df565b6f1cde5cdd195b481a5cc81c185d5cd95960821b815260200192915050565b60006128e76023836130df565b7f73656e646572206465706f73697420616e64207265736572766520617265207a81526265726f60e81b602082015260400192915050565b600061292c6022836130df565b7f696e76616c6964207369676e6174757265206f766572207469636b65742068618152610e6d60f31b602082015260400192915050565b60006129706033836130df565b7f696e76616c6964206c656e67746820666f72207469636b657420617578446174815272613a206d75737420626520363420627974657360681b602082015260400192915050565b60006129c5601f836130df565b7f63616c6c6572206d75737420626520436f6e74726f6c6c6572206f776e657200815260200192915050565b60006129fe602e836130df565b7f726563697069656e7452616e6420646f6573206e6f74206d617463682072656381526d0d2e0d2cadce8a4c2dcc890c2e6d60931b602082015260400192915050565b6000612a4e6011836130df565b701858d8dbdd5b9d081a5cc81b1bd8dad959607a1b815260200192915050565b6000612a7b601d836130df565b7f7469636b65742073656e646572206973206e756c6c2061646472657373000000815260200192915050565b6000612ab46012836130df565b713a34b1b5b2ba103234b2103737ba103bb4b760711b815260200192915050565b6000612ae2601d836130df565b7f6e6f20756e6c6f636b207265717565737420696e2070726f6772657373000000815260200192915050565b6000612b1b600d836130e8565b6c2937bab73239a6b0b730b3b2b960991b8152600d0192915050565b6000612b44602b836130df565b7f7469636b657456616c6964697479506572696f64206d7573742062652067726581526a061746572207468616e20360ac1b602082015260400192915050565b6000612b916020836130df565b7f63757272656e7420726f756e64206973206e6f7420696e697469616c697a6564815260200192915050565b80516040830190612bce8482612453565b506020820151610f526020850182612453565b805160009060e0840190612bf5858261242a565b506020830151612c08602086018261242a565b506040830151612c1b6040860182612453565b506060830151612c2e6060860182612453565b506080830151612c416080860182612453565b5060a0830151612c5460a0860182612453565b5060c083015184820360c0860152611b45828261246d565b6124338161310c565b6000612c81828a612439565b601482019150612c918289612439565b601482019150612ca1828861245c565b602082019150612cb1828761245c565b602082019150612cc1828661245c565b602082019150612cd1828561245c565b602082019150612ce182846124a5565b9998505050505050505050565b600061041f82846124a5565b6000612d0682856124a5565b9150612d12828461245c565b5060200192915050565b6000612d2782612535565b9150612d33828461245c565b50602001919050565b6000610674826125d4565b600061067482612823565b600061067482612b0e565b6000612d33828461245c565b60208101610674828461242a565b60408101612d85828561242a565b61041f6020830184612453565b60608101612da0828661242a565b612dad6020830185612453565b6121d36040830184612453565b60208101610674828461244a565b602081016106748284612453565b60808101612de48287612453565b612df16020830186612c6c565b612dfe6040830185612453565b611b456060830184612453565b6020810161067482846124d4565b60208082528101610674816124dd565b6020808252810161067481612507565b602080825281016106748161256e565b60208082528101610674816125a7565b60208082528101610674816125fe565b602080825281016106748161265d565b6020808252810161067481612696565b60208082528101610674816126cf565b6020808252810161067481612720565b6020808252810161067481612759565b6020808252810161067481612789565b60208082528101610674816127c2565b60208082528101610674816127fb565b6020808252810161067481612845565b60208082528101610674816128ae565b60208082528101610674816128da565b602080825281016106748161291f565b6020808252810161067481612963565b60208082528101610674816129b8565b60208082528101610674816129f1565b6020808252810161067481612a41565b6020808252810161067481612a6e565b6020808252810161067481612aa7565b6020808252810161067481612ad5565b6020808252810161067481612b37565b6020808252810161067481612b84565b604081016106748284612bbd565b60808101612fd58285612bbd565b61041f6040830184612bbd565b60608082528101612ff38186612be1565b90508181036020830152613007818561246d565b90506121d36040830184612453565b60408101612d858285612453565b60a081016130328288612453565b61303f6020830187612453565b61304c6040830186612453565b6130596060830185612453565b8181036080830152610a83818461246d565b60405181810167ffffffffffffffff8111828210171561308a57600080fd5b604052919050565b600067ffffffffffffffff8211156130a957600080fd5b5060209081020190565b600067ffffffffffffffff8211156130ca57600080fd5b506020601f91909101601f19160190565b5190565b90815260200190565b919050565b600061067482613100565b151590565b90565b6001600160a01b031690565b60ff1690565b6000610674826130ed565b82818337506000910152565b60005b8381101561314457818101518382015260200161312c565b83811115610f525750506000910152565b600061067482600061067482613170565b601f01601f191690565b60601b90565b61317f816130ed565b8114610dff57600080fd5b61317f816130f8565b61317f816130fd56fea365627a7a723158206e0bf419675d8f4d5c41a9c4b9e91af729562d0954886a31220dc5d1f5f493846c6578706572696d656e74616cf564736f6c634300050b0040",
  "devdoc": {
    "methods": {
      "batchRedeemWinningTickets((address,address,uint256,uint256,uint256,bytes32,bytes)[],bytes[],uint256[])": {
        "params": {
          "_recipientRands": "Array of preimages for the recipientRandHash included in each ticket (`_recipientRands[i]` corresponds to `_tickets[i]`)",
          "_sigs": "Array of sender signatures over the hash of tickets (`_sigs[i]` corresponds to `_tickets[i]`)",
          "_tickets": "Array of winning tickets to be redeemed in order to claim payment"
        }
      },
      "claimableReserve(address,address)": {
        "details": "Returns the amount of funds claimable by a claimant from a reserve in the current round",
        "params": {
          "_claimant": "Address of claimant",
          "_reserveHolder": "Address of reserve holder"
        },
        "return": "Amount of funds claimable by `_claimant` from the reserve for `_reserveHolder` in the current round"
      },
      "claimedReserve(address,address)": {
        "details": "Returns the amount of funds claimed by a claimant from a reserve in the current round",
        "params": {
          "_claimant": "Address of claimant",
          "_reserveHolder": "Address of reserve holder"
        },
        "return": "Amount of funds claimed by `_claimant` from the reserve for `_reserveHolder` in the current round"
      },
      "constructor": {
        "details": "This constructor will not initialize any state variables besides `controller`. The following setter functions should be used to initialize state variables post-deployment: - setUnlockPeriod() - setTicketValidityPeriod()",
        "params": {
          "_controller": "Address of Controller that this contract will be registered with"
        }
      },
      "fundDepositAndReserve(uint256,uint256)": {
        "params": {
          "_depositAmount": "Amount of ETH to add to the caller's deposit",
          "_reserveAmount": "Amount of ETH to add to the caller's reserve"
        }
      },
      "fundDepositAndReserveFor(address,uint256,uint256)": {
        "params": {
          "_depositAmount": "Amount of ETH to add to the address' deposit",
          "_reserveAmount": "Amount of ETH to add to the address' reserve"
        }
      },
      "getReserveInfo(address)": {
        "details": "Returns info about a reserve",
        "params": {
          "_reserveHolder": "Address of reserve holder"
        },
        "return": "Info about the reserve for `_reserveHolder`"
      },
      "getSenderInfo(address)": {
        "params": {
          "_sender": "Address of sender"
        },
        "return": "Info about the sender for `_sender`"
      },
      "getTicketHash((address,address,uint256,uint256,uint256,bytes32,bytes))": {
        "details": "Returns the hash of a ticket",
        "params": {
          "_ticket": "Ticket to be hashed"
        },
        "return": "keccak256 hash of `_ticket`"
      },
      "isUnlockInProgress(address)": {
        "params": {
          "_sender": "Address of sender"
        },
        "return": "Boolean indicating whether `_sender` has an unlock in progress"
      },
      "redeemWinningTicket((address,address,uint256,uint256,uint256,bytes32,bytes),bytes,uint256)": {
        "params": {
          "_recipientRand": "The preimage for the recipientRandHash included in `_ticket`",
          "_sig": "Sender's signature over the hash of `_ticket`",
          "_ticket": "Winning ticket to be redeemed in order to claim payment"
        }
      },
      "setController(address)": {
        "params": {
          "_controller": "Controller contract address"
        }
      },
      "setTicketValidityPeriod(uint256)": {
        "params": {
          "_ticketValidityPeriod": "Value for ticketValidityPeriod"
        }
      },
      "setUnlockPeriod(uint256)": {
        "params": {
          "_unlockPeriod": "Value for unlockPeriod"
        }
      }
    }
  },
  "userdoc": {
    "methods": {
      "batchRedeemWinningTickets((address,address,uint256,uint256,uint256,bytes32,bytes)[],bytes[],uint256[])": {
        "notice": "Redeems multiple winning tickets. The function will redeem all of the provided tickets and handle any failures gracefully without reverting the entire function"
      },
      "cancelUnlock()": {
        "notice": "Cancels the unlock period for the caller"
      },
      "constructor": "TicketBroker constructor. Only invokes constructor of base Manager contract with provided Controller address",
      "fundDeposit()": {
        "notice": "Adds ETH to the caller's deposit"
      },
      "fundDepositAndReserve(uint256,uint256)": {
        "notice": "Adds ETH to the caller's deposit and reserve"
      },
      "fundDepositAndReserveFor(address,uint256,uint256)": {
        "notice": "Adds ETH to the address' deposit and reserve"
      },
      "fundReserve()": {
        "notice": "Adds ETH to the caller's reserve"
      },
      "getSenderInfo(address)": {
        "notice": "Returns info about a sender"
      },
      "isUnlockInProgress(address)": {
        "notice": "Returns whether a sender is currently in the unlock period"
      },
      "redeemWinningTicket((address,address,uint256,uint256,uint256,bytes32,bytes),bytes,uint256)": {
        "notice": "Redeems a winning ticket that has been signed by a sender and reveals the recipient recipientRand that corresponds to the recipientRandHash included in the ticket"
      },
      "setController(address)": {
        "notice": "Set controller. Only callable by current controller"
      },
      "setTicketValidityPeriod(uint256)": {
        "notice": "Sets ticketValidityPeriod value. Only callable by the Controller owner"
      },
      "setUnlockPeriod(uint256)": {
        "notice": "Sets unlockPeriod value. Only callable by the Controller owner"
      },
      "unlock()": {
        "notice": "Initiates the unlock period for the caller"
      },
      "withdraw()": {
        "notice": "Withdraws all ETH from the caller's deposit and reserve"
      }
    }
  }
}