{
  "address": "0x65ea76efD31c7566c81676f7c3C02fD69dF16C7d",
  "abi": [
    {
      "constant": false,
      "inputs": [],
      "name": "unpause",
      "outputs": [],
      "payable": false,
      "stateMutability": "nonpayable",
      "type": "function"
    },
    {
      "constant": true,
      "inputs": [],
      "name": "paused",
      "outputs": [
        {
          "internalType": "bool",
          "name": "",
          "type": "bool"
        }
      ],
      "payable": false,
      "stateMutability": "view",
      "type": "function"
    },
    {
      "constant": true,
      "inputs": [
        {
          "internalType": "bytes32",
          "name": "_id",
          "type": "bytes32"
        }
      ],
      "name": "getContractInfo",
      "outputs": [
        {
          "internalType": "address",
          "name": "",
          "type": "address"
        },
        {
          "internalType": "bytes20",
          "name": "",
          "type": "bytes20"
        }
      ],
      "payable": false,
      "stateMutability": "view",
      "type": "function"
    },
    {
      "constant": false,
      "inputs": [],
      "name": "pause",
      "outputs": [],
      "payable": false,
      "stateMutability": "nonpayable",
      "type": "function"
    },
    {
      "constant": true,
      "inputs": [],
      "name": "owner",
      "outputs": [
        {
          "internalType": "address",
          "name": "",
          "type": "address"
        }
      ],
      "payable": false,
      "stateMutability": "view",
      "type": "function"
    },
    {
      "constant": false,
      "inputs": [
        {
          "internalType": "bytes32",
          "name": "_id",
          "type": "bytes32"
        },
        {
          "internalType": "address",
          "name": "_contractAddress",
          "type": "address"
        },
        {
          "internalType": "bytes20",
          "name": "_gitCommitHash",
          "type": "bytes20"
        }
      ],
      "name": "setContractInfo",
      "outputs": [],
      "payable": false,
      "stateMutability": "nonpayable",
      "type": "function"
    },
    {
      "constant": true,
      "inputs": [
        {
          "internalType": "bytes32",
          "name": "_id",
          "type": "bytes32"
        }
      ],
      "name": "getContract",
      "outputs": [
        {
          "internalType": "address",
          "name": "",
          "type": "address"
        }
      ],
      "payable": false,
      "stateMutability": "view",
      "type": "function"
    },
    {
      "constant": false,
      "inputs": [
        {
          "internalType": "bytes32",
          "name": "_id",
          "type": "bytes32"
        },
        {
          "internalType": "address",
          "name": "_controller",
          "type": "address"
        }
      ],
      "name": "updateController",
      "outputs": [],
      "payable": false,
      "stateMutability": "nonpayable",
      "type": "function"
    },
    {
      "constant": false,
      "inputs": [
        {
          "internalType": "address",
          "name": "newOwner",
          "type": "address"
        }
      ],
      "name": "transferOwnership",
      "outputs": [],
      "payable": false,
      "stateMutability": "nonpayable",
      "type": "function"
    },
    {
      "inputs": [],
      "payable": false,
      "stateMutability": "nonpayable",
      "type": "constructor"
    },
    {
      "anonymous": false,
      "inputs": [
        {
          "indexed": false,
          "internalType": "bytes32",
          "name": "id",
          "type": "bytes32"
        },
        {
          "indexed": false,
          "internalType": "address",
          "name": "contractAddress",
          "type": "address"
        },
        {
          "indexed": false,
          "internalType": "bytes20",
          "name": "gitCommitHash",
          "type": "bytes20"
        }
      ],
      "name": "SetContractInfo",
      "type": "event"
    },
    {
      "anonymous": false,
      "inputs": [],
      "name": "Pause",
      "type": "event"
    },
    {
      "anonymous": false,
      "inputs": [],
      "name": "Unpause",
      "type": "event"
    },
    {
      "anonymous": false,
      "inputs": [
        {
          "indexed": true,
          "internalType": "address",
          "name": "previousOwner",
          "type": "address"
        },
        {
          "indexed": true,
          "internalType": "address",
          "name": "newOwner",
          "type": "address"
        }
      ],
      "name": "OwnershipTransferred",
      "type": "event"
    }
  ],
  "transactionHash": "0xe96acd1c5431a3b587ac4318dc747044297ad24690c339d819843754c2be0a5f",
  "args": [],
  "solcInputHash": "cd771027a406633e1258619751cc7c14",
  "bytecode": "0x60806040526000805460ff60a01b1916905534801561001d57600080fd5b506000805460ff60a01b196001600160a01b0319909116331716740100000000000000000000000000000000000000001790556104f08061005f6000396000f3fe608060405234801561001057600080fd5b50600436106100935760003560e01c80638da5cb5b116100665780638da5cb5b1461010f578063d737c2b014610133578063e16c7d981461016f578063eb5dd94f1461018c578063f2fde38b146101b857610093565b80633f4ba83a146100985780635c975abb146100a2578063613e2de2146100be5780638456cb5914610107575b600080fd5b6100a06101de565b005b6100aa610241565b604080519115158252519081900360200190f35b6100db600480360360208110156100d457600080fd5b5035610251565b604080516001600160a01b0390931683526001600160601b031990911660208301528051918290030190f35b6100a061027b565b6101176102e5565b604080516001600160a01b039092168252519081900360200190f35b6100a06004803603606081101561014957600080fd5b5080359060208101356001600160a01b031690604001356001600160601b0319166102f4565b6101176004803603602081101561018557600080fd5b5035610394565b6100a0600480360360408110156101a257600080fd5b50803590602001356001600160a01b03166103af565b6100a0600480360360208110156101ce57600080fd5b50356001600160a01b0316610436565b6000546001600160a01b031633146101f557600080fd5b600054600160a01b900460ff1661020b57600080fd5b6000805460ff60a01b191681556040517f7805862f689e2f13df9f062ff482ad3ad112aca9e0847911ed832e158c525b339190a1565b600054600160a01b900460ff1681565b600081815260016020819052604090912080549101546001600160a01b039091169060601b915091565b6000546001600160a01b0316331461029257600080fd5b600054600160a01b900460ff16156102a957600080fd5b6000805460ff60a01b1916600160a01b1781556040517f6985a02210a168e66602d3235cb6db0e70f92b3ba4d376a33c0f3d9434bff6259190a1565b6000546001600160a01b031681565b6000546001600160a01b0316331461030b57600080fd5b60008381526001602081815260409283902080546001600160a01b0387166001600160a01b031991821681178355919093018054606087811c919095161790558351878152918201526001600160601b031984168184015291517ff9a6cf519167d81bc5cb3d26c60c0c9a19704aa908c148e82a861b570f4cd2d79281900390910190a1505050565b6000908152600160205260409020546001600160a01b031690565b6000546001600160a01b031633146103c657600080fd5b6000828152600160205260408082205481516392eefe9b60e01b81526001600160a01b038581166004830152925192909116926392eefe9b9260248084019382900301818387803b15801561041a57600080fd5b505af115801561042e573d6000803e3d6000fd5b505050505050565b6000546001600160a01b0316331461044d57600080fd5b6001600160a01b03811661046057600080fd5b600080546040516001600160a01b03808516939216917f8be0079c531659141344cd1fd0a4f28419497f9722a3daafe3b4186f6b6457e091a3600080546001600160a01b0319166001600160a01b039290921691909117905556fea265627a7a72315820eb7b6f3369703fd39bc4dfbf2b4ef0aec73c21eef5060c703cef6a6daf15226464736f6c634300050b0032",
  "devdoc": {
    "methods": {
      "getContract(bytes32)": {
        "params": {
          "_id": "Contract id"
        }
      },
      "getContractInfo(bytes32)": {
        "params": {
          "_id": "Contract id (keccak256 hash of contract name)"
        }
      },
      "pause()": {
        "details": "called by the owner to pause, triggers stopped state"
      },
      "setContractInfo(bytes32,address,bytes20)": {
        "params": {
          "_contractAddress": "Contract address",
          "_id": "Contract id (keccak256 hash of contract name)"
        }
      },
      "transferOwnership(address)": {
        "details": "Allows the current owner to transfer control of the contract to a newOwner.",
        "params": {
          "newOwner": "The address to transfer ownership to."
        }
      },
      "unpause()": {
        "details": "called by the owner to unpause, returns to normal state"
      },
      "updateController(bytes32,address)": {
        "params": {
          "_controller": "Controller address",
          "_id": "Contract id (keccak256 hash of contract name)"
        }
      }
    }
  },
  "userdoc": {
    "methods": {
      "getContract(bytes32)": {
        "notice": "Get contract address for an id"
      },
      "getContractInfo(bytes32)": {
        "notice": "Return contract info for a given contract id"
      },
      "setContractInfo(bytes32,address,bytes20)": {
        "notice": "Register contract id and mapped address"
      },
      "updateController(bytes32,address)": {
        "notice": "Update contract's controller"
      }
    }
  }
}