{
  "address": "0x3984fc4ceEeF1739135476f625D36d6c35c40dc3",
  "abi": [
    {
      "constant": true,
      "inputs": [
        {
          "internalType": "address",
          "name": "_addr",
          "type": "address"
        }
      ],
      "name": "getServiceURI",
      "outputs": [
        {
          "internalType": "string",
          "name": "",
          "type": "string"
        }
      ],
      "payable": false,
      "stateMutability": "view",
      "type": "function"
    },
    {
      "constant": true,
      "inputs": [],
      "name": "targetContractId",
      "outputs": [
        {
          "internalType": "bytes32",
          "name": "",
          "type": "bytes32"
        }
      ],
      "payable": false,
      "stateMutability": "view",
      "type": "function"
    },
    {
      "constant": false,
      "inputs": [
        {
          "internalType": "string",
          "name": "_serviceURI",
          "type": "string"
        }
      ],
      "name": "setServiceURI",
      "outputs": [],
      "payable": false,
      "stateMutability": "nonpayable",
      "type": "function"
    },
    {
      "constant": false,
      "inputs": [
        {
          "internalType": "address",
          "name": "_controller",
          "type": "address"
        }
      ],
      "name": "setController",
      "outputs": [],
      "payable": false,
      "stateMutability": "nonpayable",
      "type": "function"
    },
    {
      "constant": true,
      "inputs": [],
      "name": "controller",
      "outputs": [
        {
          "internalType": "contract IController",
          "name": "",
          "type": "address"
        }
      ],
      "payable": false,
      "stateMutability": "view",
      "type": "function"
    },
    {
      "inputs": [
        {
          "internalType": "address",
          "name": "_controller",
          "type": "address"
        }
      ],
      "payable": false,
      "stateMutability": "nonpayable",
      "type": "constructor"
    },
    {
      "anonymous": false,
      "inputs": [
        {
          "indexed": true,
          "internalType": "address",
          "name": "addr",
          "type": "address"
        },
        {
          "indexed": false,
          "internalType": "string",
          "name": "serviceURI",
          "type": "string"
        }
      ],
      "name": "ServiceURIUpdate",
      "type": "event"
    },
    {
      "anonymous": false,
      "inputs": [
        {
          "indexed": false,
          "internalType": "address",
          "name": "controller",
          "type": "address"
        }
      ],
      "name": "SetController",
      "type": "event"
    },
    {
      "anonymous": false,
      "inputs": [
        {
          "indexed": false,
          "internalType": "string",
          "name": "param",
          "type": "string"
        }
      ],
      "name": "ParameterUpdate",
      "type": "event"
    }
  ],
  "transactionHash": "0xc6f9a5bf08ff7fc3fc055b73efc24c0d574c6633bdc609dcdf15853443eddb0f",
  "args": [
    "0x65ea76efD31c7566c81676f7c3C02fD69dF16C7d"
  ],
  "solcInputHash": "cd771027a406633e1258619751cc7c14",
  "bytecode": "0x608060405234801561001057600080fd5b506040516105063803806105068339818101604052602081101561003357600080fd5b5051600080546001600160a01b039092166001600160a01b03199092169190911790556104a1806100656000396000f3fe608060405234801561001057600080fd5b50600436106100575760003560e01c8063214c2a4b1461005c57806351720b41146100f75780635f11301b1461011157806392eefe9b14610183578063f77c4791146101a9575b600080fd5b6100826004803603602081101561007257600080fd5b50356001600160a01b03166101cd565b6040805160208082528351818301528351919283929083019185019080838360005b838110156100bc5781810151838201526020016100a4565b50505050905090810190601f1680156100e95780820380516001836020036101000a031916815260200191505b509250505060405180910390f35b6100ff610276565b60408051918252519081900360200190f35b6101816004803603602081101561012757600080fd5b81019060208101813564010000000081111561014257600080fd5b82018360208201111561015457600080fd5b8035906020019184600183028401116401000000008311171561017657600080fd5b50909250905061027c565b005b6101816004803603602081101561019957600080fd5b50356001600160a01b0316610305565b6101b1610361565b604080516001600160a01b039092168252519081900360200190f35b6001600160a01b038116600090815260026020818152604092839020805484516001821615610100026000190190911693909304601f8101839004830284018301909452838352606093909183018282801561026a5780601f1061023f5761010080835404028352916020019161026a565b820191906000526020600020905b81548152906001019060200180831161024d57829003601f168201915b50505050509050919050565b60015481565b3360009081526002602052604090206102969083836103d1565b50336001600160a01b03167ffbb63068732c85741c9f8e61caffaabe038d577bfafd2d2dcc0e352a4f653a4c838360405180806020018281038252848482818152602001925080828437600083820152604051601f909101601f19169092018290039550909350505050a25050565b61030d610370565b600080546001600160a01b0383166001600160a01b0319909116811790915560408051918252517f4ff638452bbf33c012645d18ae6f05515ff5f2d1dfb0cece8cbf018c60903f709181900360200190a150565b6000546001600160a01b031681565b6000546001600160a01b031633146103cf576040805162461bcd60e51b815260206004820152601960248201527f63616c6c6572206d75737420626520436f6e74726f6c6c657200000000000000604482015290519081900360640190fd5b565b828054600181600116156101000203166002900490600052602060002090601f016020900481019282601f106104125782800160ff1982351617855561043f565b8280016001018555821561043f579182015b8281111561043f578235825591602001919060010190610424565b5061044b92915061044f565b5090565b61046991905b8082111561044b5760008155600101610455565b9056fea265627a7a72315820d44851bc0a6f4010e5de2cc6bd07bf15df510d9a80f563892abba148dc74eb8564736f6c634300050b0032",
  "devdoc": {
    "methods": {
      "constructor": {
        "params": {
          "_controller": "Address of a Controller that this contract will be registered with"
        }
      },
      "getServiceURI(address)": {
        "params": {
          "_addr": "Address for which a service URI endpoint is desired"
        }
      },
      "setController(address)": {
        "params": {
          "_controller": "Controller contract address"
        }
      },
      "setServiceURI(string)": {
        "params": {
          "_serviceURI": "Service URI endpoint for the caller"
        }
      }
    },
    "title": "ServiceRegistry"
  },
  "userdoc": {
    "methods": {
      "constructor": "ServiceRegistry constructor. Only invokes constructor of base Manager contract with provided Controller address",
      "getServiceURI(address)": {
        "notice": "Returns service URI endpoint stored for a given address"
      },
      "setController(address)": {
        "notice": "Set controller. Only callable by current controller"
      },
      "setServiceURI(string)": {
        "notice": "Stores service URI endpoint for the caller that can be used to send requests to the caller off-chain"
      }
    },
    "notice": "Maintains a registry of service metadata associated with service provider addresses (transcoders/orchestrators)"
  }
}